:020000040800F2
:10000000F0FF0120758B0508DD8B050865400408AD
:10001000DD8B0508DD8B0508DD8B05080000000081
:10002000000000000000000000000000DD8B05085B
:10003000DD8B050800000000DD8B0508D51D0408D8
:10004000DD8B0508DD8B0508DD8B0508DD8B0508DC
:10005000DD8B0508DD8B0508DD410408D54104086A
:10006000CD410408C5410408BD410408957C05083C
:10007000857C0508757C0508657C0508517C0508AC
:100080003D7C0508297C0508DD8B0508DD8B05080E
:10009000C9CE0008DD8B0508DD8B0508B5410408D5
:1000A00019620508E9620508096205081163050877
:1000B000D9620508C9620508B9620508998605086C
:1000C000A5860508818605088D860508DD8B05084F
:1000D000DD8B05086D1E0408611E0408551E04080A
:1000E000AD410408DD8B0508DD8B0508DD8B0508B7
:1000F00039620508DD8B050829620508DD8B0508D6
:10010000DD8B0508DD8B0508A9620508DD8B050878
:10011000491E04083D1E04083D62050889C6000802
:10012000017C0508ED7B0508D97B0508C57B050822
:10013000B17B0508DD8B0508DD8B0508DD8B050827
:10014000DD8B0508DD8B0508DD8B0508DD8B0508DB
:10015000DD8B0508DD8B0508DD8B0508DD8B0508CB
:10016000DD8B0508DD8B0508DD8B0508DD8B0508BB
:10017000DD8B0508DD8B0508DD8B0508DD8B0508AB
:10018000F9610508DD8B0508518605085D860508BF
:10019000DD8B050800000000DD8B0508DD8B050800
:1001A000DD8B0508DD8B0508DD8B0508DD8B05087B
:1001B0006986050875860508DD8B0508DD8B050851
:1001C000157C05089D7B0508897B0508757B05085E
:0801D000DD8B0508DD8B05083D
:0801D800D486050001000000BF
:08280000082800080040000850
:04400000FFFFFFFFC0
:106000000A480B4B816910B40A4C83608A1E223106
:10601000838C1B01A4FB03C3DB08A3F5B06322F848
:10602000023F9142F4D15DF8044B7047E00E00202E
:1060300005050208CDCCCCCC037870B42BB3024656
:10604000C0F10105531912F8014FDBB2002CF9D150
:1060500001335B000E4C0B80032284F8343084F84B
:106060003520017879B1022300265A1CE51854FA2C
:1060700082F285F8341082F8346010F8011F023380
:10608000DBB20029F1D170BC70470223E2E700BF08
:10609000E00E002070B4C3080D4CE25C00F007066F
:1060A000B24004EBD004D2B20020C6F108038B4208
:1060B00028BF0B46C3F108052A419840C91A40EA97
:1060C00002004FF0000614F8012FEED170BC7047AB
:1060D0005410002030B5EFF31181802383F3128830
:1060E0000A4AD2F80832D2F80C42D2F80802D2F8A2
:1060F0000C52CAB282F31188013BA84294BF4FF4FC
:10610000006000201B1B184430BD00BFE00E0020C3
:10611000012380F851307047014BD3F810027047CB
:10612000E00E002001207047014BC3E98521704734
:10613000E00E0020014BC3E987217047E00E0020EC
:1061400070477047212838B505D0222827D020284D
:106150000FD0002038BD0029FBD0072AF9D1174BFA
:106160001C6818795A799B790C6008714A718B7197
:10617000EFE70029EDD0072AEBD111480F4B0C793E
:10618000D0F818224D791C718C7909685D719C7169
:106190001960002ADDD0D0F814029047D9E7002911
:1061A000D7D0022AD5D1064AD2F82032002BD0D03F
:1061B0000988D2F81C029847CBE700BF00000020F6
:1061C000E00E0020002070470A230380004870473B
:1061D000080000206423038000487047140000205A
:1061E000012901D000207047014BD3F890301847A7
:1061F00000000020012901D009F06CB9014BD3F84F
:106200008C30184700000020014BD3F88830184725
:106210000000002010B40B7803F00303012B0A46A2
:10622000044605D0022B0BD000205DF8044B7047CC
:106230008B8843B9204611465DF8044B0CF0AABC8C
:106240008B88832BF6D0034B5DF8044BD3F880305A
:10625000184700BF0000002038B5054B0446DB6F2F
:106260000D469847294620460BF06AF9002038BDB4
:106270000000002038B5054B04469B6F0D4698473B
:10628000294620460BF08EF9002038BD0000002082
:106290000023F0B452004F1C1E46B0F1204F4FEACD
:1062A000107404F130052ABF3734CD54CC54FE5459
:1062B00002339A424FEA0010EFD1F0BC704700BFA2
:1062C00008B50248FFF7B8FE014808BDF8380608CF
:1062D000140F002008B50248FFF7AEFE014808BDC4
:1062E00008390608140F00200B4A0C4B10681B6875
:1062F0001A22C0180A8001D10948704710B5094B0D
:1063000009491C680822FFF7C3FF204607490422F9
:10631000FFF7BEFF024810BD9075FF1F9875FF1F65
:10632000B00000209475FF1FB2000020C2000020C2
:1063300008B50248FFF780FE014808BD1439060879
:10634000140F002008B50248FFF776FE014808BD8B
:1063500020390608140F0020042301480B807047E1
:10636000CC000020A0B182680D4B12B107229A70B8
:1063700070471978DA6003294FF004000CBF8021C0
:106380004FF48071C3E901111A611A759870704752
:10639000034B41F2E47101225A545A70704700BF16
:1063A000547400200378022B10D0006908B9012032
:1063B00070470C4B1B78032B0EBF0B4B80B24FF674
:1063C000F773984294BF0020012070470549436845
:1063D00041F650028A58B3EB422F2CBF0120002017
:1063E000704700BF54740020F7FFFF0F0378022BA3
:1063F00014D030B4104A4368006941F6480402F5ED
:10640000C2511559096841F63C042B4012595B0AE8
:10641000023801FB0030104430BC7047064B426824
:1064200041F6340141F630005958185800EB41004C
:1064300000EB5220704700BF5474002000487047A2
:106440003C100020034B93F85801032894BF002010
:1064500001207047E00E00202DE9F843884600290E
:106460004FD04718284C07F1FF39461E8025EFF31F
:10647000118185F31288D4F80822D4F80C02D4F8DC
:106480000832D4F80CC2C9B281F31188634594BFB5
:106490004FF400630023121A1344012B1AD1012078
:1064A0003BF006F8EFF3118185F31288D4F8082247
:1064B000D4F80C02D4F80832D4F80C72C9B281F3C3
:1064C0001188BB4294BF4FF400630023121A134497
:1064D000012BE4D0EFF3118285F31288D4F80C324B
:1064E00016F8011F2344D2B283F82412D4F80C32D8
:1064F0000133C3F30A03C4F80C3282F311884E450A
:10650000B5D14046BDE8F883E00E0020F8B590F81C
:106510005050002380F85030D5B10F4E96F8982C8B
:10652000032A17D1D6F8D07C00F13C042946204636
:10653000FFF792FFD6F8D03CDB1B322BA5EB000512
:10654000044401D8002DF1D1B5FA85F04009F8BD19
:106550000120FCE71846FAE7E00E0020002280F850
:106560005120D3E790F85020531C0244DBB280F84E
:10657000503082F83C1090F851200AB1132B00D90A
:10658000C4E77047F8B50C4E96F8983C032B0D46BF
:1065900014460FD1D6F8D07C002C0BDD21462846BE
:1065A000FFF75AFFD6F8D03CDB1B322BA4EB0004DC
:1065B0000544F1D9F8BD00BFE00E0020444B9842DD
:1065C0002DE9F04110D003F568530833984255D0B7
:1065D000404B0020A3F83C0DA3F8480DC3F8400D34
:1065E000C3F8440DBDE8F0813A4C3B4FDFF8F08032
:1065F0000223C4F8D43C04F6D8460025D7F8D0309E
:10660000AB42294605F1010503D0D4F8580D4BF0F3
:1066100001FA94F85C3DD4F8582D86F824303262A3
:10662000304641464BF02CFBD4F8D43C9D4206F159
:106630003006E3DB002384F84A3DD4F8D41CB4F8D8
:10664000DC2CD4F8E43CD4F8E00CB4F8E85CC4F8F2
:10665000683D12FB01F203FB01F3A4F83C2DB4F8F2
:10666000DE1C1E4AC4F8400DC4F8443DA4F8485D41
:10667000A4F83E1DC4F8382D0120B3E7154C164F81
:10668000DFF860800223C4F8D43C04F6D846002525
:10669000D7F8D030AB42294605F1010503D0D4F834
:1066A000580D4BF0B7F994F85C3DD4F8582D86F8A6
:1066B00024303262304641464BF044F9D4F8D43CA1
:1066C0009D4206F13006E3DB012384F84A3DB4E73E
:1066D0001971EF00E00E0020000000200CC4050836
:1066E0001940EF0021AAEF00F0B5254C85B004F663
:1066F0006C530546A361FFF783FC224A224B1A2103
:106700004020C4E90323A17030F054FB002835D0A9
:1067100094F8A93D94F8AA7D94F8AB6D90F9040023
:106720001A4A002D14BF4FF4E1314FF4E121002B40
:1067300014BF02230023002F14BF30250025002E94
:1067400018BF43F001032B430325CDE9015300910A
:106750000023402132F0F3FDC4F8C00D58B10C48BD
:1067600013F070FD94F8C53D84F8C40DD4F8C00D45
:106770000BB984F8C55D003818BF012005B0F0BD25
:10678000E00E002009520208511A0208F50F020813
:10679000591B02080F4B07B5D3F8D4205208B2FB9F
:1067A000F1F3B3F5803F02D3012AF7D8F9E799B2A4
:1067B00001904FF00FFF0849084A019841F23463F5
:1067C000CA5001F5B1510022143103B05DF804EB59
:1067D0004FF0E4BD00000020E00E00203DD4010891
:1067E00010B50C464AF094FF58B9084B93F844355D
:1067F000012B4FF012030BBF05480648238023806E
:1068000010BD12230448238010BD00BFD81F0020F4
:1068100000010020EC000020D80000202DE9F84302
:106820001B4C94F85861042E0546894690461F4635
:1068300008D0082E02D00020BDE8F8830BF0B2FF8C
:106840000228F8D1D4F894013DF026FB94F84E319B
:10685000A3B9690211200CF015F8A8B9D4F8D03CFE
:10686000C4F834910522C4E95087C4F8385184F83B
:106870005821C4F848310120BDE8F8832946112089
:106880000CF000F80028E9D00CF046F8D3E700BF80
:10689000E00E002070B51E4C94F85831042B0646CB
:1068A0000D4609D0082B23D1D4F8503183422DD086
:1068B0000BF078FF02281BD1D4F894013DF0ECFADC
:1068C000002137200BF0DEFF294617200BF0DAFFFE
:1068D000B0B994F84E316BB9710219200BF0D2FFA8
:1068E00070B90823C4E9546584F85831022070BD9A
:1068F000012070BD314619200BF0C4FF0028F0D0F4
:106900000CF00AF80CF040F8032070BD022070BDB6
:10691000E00E00202DE9F8432A4C0546884617462C
:106920001E4694F85801042831D0082807D1D4F81D
:106930005031AB4206D00BF035FF0228F1D00120D8
:10694000BDE8F883FC22204BDFF884901F4883F8D1
:106950004825C9F83C813DF0B9FE002814BF4FF42A
:1069600000734FF480731948C9F8443109F58A71EE
:106970003DF07CFE01220623C4E94D85C4E9507632
:1069800084F83C2184F858310020BDE8F883D4F81D
:1069900094013DF081FA94F84E3153B96902182000
:1069A0000BF070FF38B994F85831082BCAD0FE228A
:1069B000C9E72946F3E70BF0AFFF0BF0E5FF032033
:1069C000BEE700BFE00E0020D81F00206C100020A2
:1069D000000000204309012200F01F00013B86B0A7
:1069E00002FA00F0042B0CD8DFE803F0161F28038E
:1069F0000D00174BDA6D0243DA65DA6D1040019035
:106A0000019B06B07047124B9A6C02439A649A6CD1
:106A100010400590059BF4E70D4BDA6C0243DA64F5
:106A2000DA6C10400490049BEBE7094B1A6E0243AA
:106A30001A661A6E10400390039BE2E7044B9A6DAE
:106A400002439A659A6D10400290029BD9E700BFFD
:106A5000001002402DE9F041324D95F84F351BB939
:106A600000273846BDE8F08195F84E1505F5B5606C
:106A70003DF01CFF07460028F2D095F84F053DF089
:106A800059F995F84C35C5F8B0050133DBB210B1B2
:106A90002222C37182710D213DF0BCF9D5F8B005F9
:106AA0003DF000FA95F85005E0B91F4AD2F8D03C05
:106AB000632BFBD91D481E4E1E4CDFF87C803DF039
:106AC00037FFA5F8AC0502E056F8044BF4B1404698
:106AD000A04703460028F7D0174885F854363EF003
:106AE0002FF8BEE73DF026F995F84C35C5F820069D
:106AF0000133DBB210B15022C37182710D213DF020
:106B000089F9D5F820063DF0CDF9CEE795F84F0587
:106B10003DF0A6FD95F850050028A1D03DF0A0FD60
:106B200027469EE7D81F0020E00E002040420F00BD
:106B300048C40508373C050880250020164BDB6853
:106B4000C3F3022310B4C3F107041A1D042C28BF99
:106B50000424062A4FF0FF3202FA04F28CBF033BF2
:106B6000002321EA0201002801FA03F10ADB00F107
:106B7000604000F561400901C9B280F800135DF87A
:106B8000044B7047054B00F00F0009010344C9B2E4
:106B900019765DF8044B704700ED00E0FCEC00E076
:106BA000284B294AD3F8D430284910B5A2FB032337
:106BB000274CDB0C82B00022013BC4F84C1B04F6CE
:106BC0004C3041F28731C4F8503BC4F8581BC4F82C
:106BD0005C2BC4F8542B0DF07DF91E4B9A6D42F0DE
:106BE00020029A659B6D03F0200301930621372054
:106BF000019BFFF7A3FF1849D4F84C3B174A4FF409
:106C000000004860D96841F00101D96099680A40E4
:106C1000062A06D0B2F5803F03D01A6842F001027E
:106C20001A600F4B0F49D3F8B42C002003F50974F8
:106C3000C2E98114C2F81002C3F82002C3F8180296
:106C400002B010BD0000002083DE1B430014004092
:106C5000D81F00200010024000E100E00700010002
:106C6000E00E0020642B0020F0B589B00D460446EC
:106C70003DF092FA031E1CDB164A174E1A4406EB2F
:106C8000830392F85870C3F8945220463DF0AAFA54
:106C90003E44A588114A2068002303A9CDE90533A5
:106CA0000793CDE903520EF069F896F8D432F02B31
:106CB00001D809B0F0BD0A4B0321D8570190F02349
:106CC00086F8D432FFF73AFF01980FF011F809B0B7
:106CD000F0BD00BF0CC40508D0300020000011102A
:106CE00070390608F0B5D0F800C0134CDCF8045039
:106CF00085B0254045EA01040A9F039344F000440F
:106D000044F490341546CCF8044019463A460646F9
:106D10000DF088FF68B93168039B8D6202460097C9
:106D2000304640210DF0AEFF003818BF012005B0FD
:106D3000F0BD012005B0F0BD009800FCF8B5144F7F
:106D400004460D460AE09B69DB0602D50DF028FFDC
:106D5000D8B9D7F8DC325B1B0A2B09D823689E69A7
:106D6000B6062A464FF00A012046ECD50020F8BDB1
:106D7000636C202100220B43636484F8402084F874
:106D8000411084F842200120F8BD0120F8BD00BF69
:106D9000D0300020B0B10C49D1F8E032102B03D133
:106DA000052100203DF0C6B903EB43020A4482F8F6
:106DB000E402202082F8E5020120034482F8E60282
:106DC000C1F8E032704700BFD030002000B583B07A
:106DD0000146012305480DF107023DF071FF08B19E
:106DE0009DF8070003B05DF804FB00BF802500207C
:106DF0002DE9F04FDFF8BCB089B06C2200210BF513
:106E0000457055F05FF923490BF5607040F24C4234
:106E100054F0F6F99BF8CC371BB19BF8CD378BF8C3
:106E200014339BF8CE371BB19BF8CF378BF8203348
:106E30009BF8D0371BB19BF8D1378BF82C339BF8DC
:106E4000D2371BB19BF8D3378BF838339BF8D43744
:106E50001BB19BF8D5378BF844339BF8D6371BB161
:106E60009BF8D7378BF850330B4A0C4B0C491B88D7
:106E7000128809880B4DCBF8E8270B4C0B4ECBF84A
:106E8000E4179A1A00270A4B93FBF2F3CBF8EC377E
:106E900017E000BF74C40508A875FF1FCA75FF1F5F
:106EA000AA75FF1F000021C30CC40508E4330020AD
:106EB00080380100D03000200137092F06F10C0680
:106EC00028D0062F00F04C81072F00F07081307819
:106ED0000028F1D0BA4A00230133312BECD012F84C
:106EE0000C1F8842F8D103EB430CB64904EB8C0C21
:106EF00000220868DC3128B19CF8B5041041C007B5
:106F000000F10D830132052AF3D10137092F06F173
:106F10000C06D6D1AC4CDFF8DC82DFF8DCA2DFF85F
:106F2000DC92AA4FAA4E002554F8083C002B00F032
:106F3000AF80D4F8D020002A00F0AA80DC2202FB27
:106F400005B22360D2F8E41341F00201C2F8E41361
:106F50009A6812F0040F9A6840F05C81110700F102
:106F60005981DA6842F40012DA6020460EF0CEFE53
:106F7000002800F0FB81236896495A68DFF880C238
:106F800002EA08025A6040F2FF721A609A6822F020
:106F9000A0429A609A6842F000529A60DA6802EA67
:106FA0000A02DA60DA6842F00042DA601A6902EA3C
:106FB00008021A615A6902F080425A619A6902F025
:106FC00078429A611A6A02F0F0221A625A6A02F052
:106FD000FF225A629A6A02F0FF229A621A6B02EA50
:106FE00009021A635A6B3A405A639A6B3A409A63A1
:106FF000DA6B22F4FB6222F00702DA631A6E0A40AF
:107000001A665A6E0A405A669A6E0A409A66DA6E94
:107010001140D966D3F8A02002EA0C02C3F8A020E0
:10702000D3F8A42002EA0C02C3F8A420D3F8B020BD
:1070300002EA0C02C3F8B020D3F8B420B3F1A04F99
:1070400022F07F12C3F8B420634A00F055829342C5
:1070500000F05D82614B6249624A9B688968926870
:107060000B431343DB0704D45F4B9A685F490A4024
:107070009A60DC2202FB05B20023C2F8E833C4E9BF
:107080001933C2F8E43384F85830002840F0968071
:107090000135052D04F1DC047FF446AF4FF0000903
:1070A000DFF860A14F465AF8743C23B1DAF8643037
:1070B000002B40F0D4800137052F0AF1DC0AF2D111
:1070C0000026404DDFF84081494F34462B68002BA5
:1070D00000F0F581D5F8D820002A00F0F081A968E9
:1070E000B1F1A04F00F01182DFF8ECC0384B3E4800
:1070F000614518BF03469B68886840072FD495F800
:10710000600001282BD003F01F030120092B85F814
:10711000600000F26C8340F22120D840C00740F1AB
:107120006683886810F0010040F04181D1F808E0E2
:10713000DFF8D8C01EEA0C0F00F01F81DC2303FB30
:1071400004B4D4F8E43384F8E00343F01003C4F843
:10715000E433D4F8E83343F00103C4F8E833FEE73E
:1071600000210A464FF4803CAE46DC2303FB02B20A
:107170003078D2F85834717043EA0C0301214FF093
:10718000070CC6F804E0C2F8583486F80AC07172D9
:1071900000283FF491AE3CF0CDFDFB1DDBB210B1F9
:1071A00000228371C27103213CF034FE84E6002189
:1071B000DFF85CE00A464FF4802CD6E7FEE700BF1C
:1071C000C0C805085034002058340020200882E050
:1071D0000003005000F0FF030001005000040050C5
:1071E000000500500006005000070050E01000FEAF
:1071F000C0FFFF7F00F8FFFF04000080300882E03E
:107200000000F8FFC4340020FEF0FFFF3F000080C4
:10721000000084CBDA68920105D5A18B40F20112FF
:10722000914200F0CE829A68520703D59A6890077F
:1072300040F105849A68120703D59A68910740F1D6
:10724000B7820C21DBF8DC0205E0DBF8DC22121A45
:10725000052A00F23D819A680A42F6D181E61AF8C1
:10726000700CFFF7B7FBDAF864305AF8742C4AF860
:107270006C2C99085A0801F0333102F077320A4435
:10728000D9089B1A01F011329B1A03EB131303F078
:107290000F33FF22B3FBF2F2C2EB02229B1A002251
:1072A0004AE919224AE910224FF40020DC214AF869
:1072B0004C3C4AF8680C01234AF85C2C0AF8502C24
:1072C0000AF8482C0AF82C2C059201FB07B108207B
:1072D0004FF480524AF8583C0AF84F3C0AF8343CC4
:1072E0004AF8540C4AF8302CD1F8E433002B00F063
:1072F00085825AF86C3C9A68940005D59A6822F009
:10730000204222F03F029A609A68D00016D49A6810
:1073100089498A48D1F8D410B1FBF0F122F010422B
:1073200022F03F0242F080529A600591059A2AB1FC
:10733000059A013A0592059A002AF9D19A68D10076
:1073400040F1268200249A68520740F10981DC232B
:1073500003FB07B3D3F8E433DC2303FB07B3D3F811
:10736000E42342F01002C3F8E423FEE7DC2303FB2E
:1073700005B30122C3F8E423FDE58868384040F0F6
:1073800001008860DBF8DCC20EE08868C00704D426
:107390008868384040F001008860DBF8DC02A0EB30
:1073A0000C00022800F237840868C007EDD54FF0C2
:1073B000DC0C0CFB04BCDFF8A4E1DCF8E40300EA1D
:1073C000080040F480707145CCF8E40300F01B82A3
:1073D0005B48814200F01782DC2303FB04B3D3F83F
:1073E000E40320F48010C3F8E403DC2303FB04B3BC
:1073F0004FEA920ED3F8E40310F480501CBFD3F888
:10740000E80320F00600C3F8E803E86D4D4BC362C3
:107410004D4B03634D4B43631C230B60D1F804C0F9
:1074200053080EF0333E03F0773373444FF00009F6
:107430004CF0100E4FEAD20C85F86090D31AC1F8C8
:1074400004E00CF01132D1F80CE09B1A03EB13139B
:107450003F4A03F00F334EF0010E4FF0FF0CB3FB29
:10746000FCFCCCEB0C2CA3EB0C03C1F80CE002EB06
:10747000460240310EF0D4FAAA6893683B4043F0CC
:1074800004039360002840F0C483D5F8D830314A13
:107490005908980800F0333001F077310144D808DA
:1074A0005B1A00F011315B1A03EB131303F00F3377
:1074B000A2FB0312D209C2EB02229B1A1E44013422
:1074C000052C05F1DC057FF401AE09B0BDE8F08FB5
:1074D000DC2202FB05B20120D2F8E41341F01001D6
:1074E000C2F8E413D2F8E8130143C2F8E813DA68EB
:1074F00042F40012DA603EE59B6892681343DB07B2
:107500003FF5B7ADB2683346B0E5134BF3E54FF046
:10751000A04292689B681343DA07F3D5A9E50C21D2
:1075200001FB03434FF0010C93F8BC14D3F8B8E40B
:107530000CFA01FC51B218E600000020400D0300D7
:107540000005005031F800082DF8000819F800086F
:10755000A09B01208180808000030050000100502A
:10756000DC2202FB07B2D2F8E413CD063FF5F4AEFD
:10757000D2F8E41321F4817141F00201C2F8E4135E
:107580009A68D6071AD4B3F1A04F00F06B82A04AD4
:10759000934200F070829F489F4902F540729268C2
:1075A0008068896802430A43D50707D49B488268EC
:1075B0005AF8681C22F47C120A4382605AE91910B6
:1075C0005AF8302C02430A431AF84F0C1AF8481C98
:1075D00042EA4032012942EA014204D15AF8441CED
:1075E000013942EA41425AF8401C29B15AF83C0C90
:1075F00001F4787101430A43DD6889495AF8380C6F
:1076000029400A43DA601A6922F0406202431A6193
:1076100099689A6801F0040102F008020A4327D130
:10762000D9681AF8342C1AF8505C5AF85C0C21F41A
:107630008041520021F0020142EA85320A43DA60B9
:107640001A69002840F0C58222F480321A61D3F80A
:10765000C02022F47F5222F03F02C3F8C0201AF863
:107660002C2C012A00F0C2821A6922F001021A6150
:107670005AF8582C012A00F085821A6B22F00F026A
:107680001A63DC2505FB07B505F57976D5F8E433F3
:1076900023F0030343F00103C5F8E433002C40F06A
:1076A00086811AF8143C0694012B00F07F81AAF120
:1076B0006C030393184601230AF8143C0EF026FBD2
:1076C000002840F06D81D5F8E433564923F48853FF
:1076D00023F0020343F00203C5F8E4335AF86C2C9C
:1076E000936823F0404323F03F0343F0004393604B
:1076F0009368002BC0F23082DC2202FB07B200212B
:10770000D2F8E433DFF82CC123F0030343F0010384
:10771000C2F8E433444B0AF8141C6C330293A3F10F
:107720006C00012604E0029B0C30834200F0408193
:10773000437A002BF7D090F90130BB42F3D13B4B99
:1077400080F8089003EB86021AF8143CD2F8005730
:1077500042684FF0000809F10101012B0191CDF8B9
:107760001C8006F1010612D05AF86C3C996801247D
:107770000AF8144C4C075FD5DC2303FB07B3D3F89E
:10778000E42383F8E08342F02002C3F8E423FEE719
:10779000DC2202FB07B20124D2F8E41341F010010D
:1077A000C2F8E413D2F8E8132143C2F8E813CAE59B
:1077B0009A6822F0004222F03F0242F020029A60D2
:1077C0003FE51A68500607D4194A02E0013A3FF42F
:1077D0007FAE19684906F9D540221A609A685007A9
:1077E00003D59A68910740F1348104212AE5DC230E
:1077F00003FB04B4002384F8E033B0E4C1F8E833B9
:107800000AF8143C75E5002B7FF4EFADE4E500BF0A
:107810000001005000050050000600500007005015
:107820000740F0FF01DE0400E43300200CC405082B
:10783000000040A3000300504FEA951808F00C0820
:1078400003F1300E05F01F0558F80E901F24AC40D0
:10785000C2F3846101FA05F529EA04042C4348F8CF
:107860000E409D689C6805F0040504F008042C4354
:1078700056D14FEAD25E03F114050EF0040EC2F3A6
:1078800004595EF80580072404FA09F444EA080460
:107890004EF805405C6924F000445C61DC681C6EB5
:1078A0001C6EC2F31205C4F38464002D00F03C8109
:1078B00092FAA2F1B1FA81F18C4200F02881596E5E
:1078C000596E03F16004C1F3846103F1640592FA17
:1078D000A2FEBEFA8EFE8E4503D1296821F000413A
:1078E0002960A168A16804F10805C1F3846192FAD6
:1078F000A2FEBEFA8EFE8E4503D1296821F000411A
:107900002960E168E5680C34C5F3846592FAA2F158
:10791000B1FA81F1A94203D1216821F0004121602F
:107920009968C90707D4D3F8B010C2F3120421EA4A
:107930000401C3F8B010C2490A422BD0B3F1A04FE2
:1079400000F0E180BF49C04C8B4208BF644621462D
:10795000BE4D8C68AA4204F0E07100F0B080BC4DCE
:10796000AA4200F0AC80BB4DAA4240F08F80E501F6
:1079700010D4B3F1A04F00F08780B24AB24C9342CA
:1079800008BF64462246936823F0E0730B4343F03C
:10799000807393600023DDF804900AF8143CC2E67B
:1079A000336885F8E04343F010033360FEE7DCE41E
:1079B000A94B3B44FDB293F91320294602203CF029
:1079C00099FC4668044630463CF0C2FCA34A242198
:1079D000431E01FB0323864693F8801100297FF4A0
:1079E00074AD01354FF0060C83F8815183F880C1E6
:1079F00000283FF46AADA368CAF80430802320222F
:107A0000CAF810304FF480754FF480534FF48064FF
:107A1000CAE90723CAE90211CAE90554CAF8006095
:107A20004FF0D0FC50460EF057F850460EF0C8F814
:107A3000039B4AF818ACCAF82830FFF73CBB9A6899
:107A400022F0004222F03F0242F010029A60FFF75B
:107A5000F1BB9A6822F0004222F03F0242F010028D
:107A60009A60C2E677499A6889680A43D1073FF568
:107A7000A5AD7B489BE54FF0A04291689A680A4308
:107A8000D2073FF59BADF4E762467CE7754DAA420D
:107A900080D164023FF57EAF6A4A93423FF47AAFE9
:107AA00002F5C062B3F1A04F08BF62461346926868
:107AB00022F0E0720A4342F480029A606AE72402EC
:107AC0003FF568AFB3F1A04F1FD0674A93427FF4F0
:107AD00061AF5D4CA368614A644DD2F8D420B2FB1B
:107AE000F5F223F0E0730B430C2143F4000301FB98
:107AF00002F2A360079202E0079B013B0793079BFA
:107B0000002BF9D146E7614622E76446E2E7196EA9
:107B10001C4621F0004144F8601F596E596E03F174
:107B20006405C1F38461D2E6A14245D05C6E5D6E0E
:107B300003F16004C5F3846503F1640EA9422AD001
:107B4000A568A568C5F384658D4230D0E568E56811
:107B50000C34C5F38465DDE6069B01330693069B72
:107B60008B427FF6C5ADDC2303FB07B30021D3F8BE
:107B7000E42383F8E01322F0120242F01002C3F86B
:107B8000E42313E7196B5AF84C2C21F00F01013A4A
:107B90000A431A6375E5DEF8005025F00045CEF87B
:107BA0000050A568A568C5F38465A942CED1A56833
:107BB00025F00045A560C9E71D6E1C4625F000456F
:107BC00044F8605F5D6E5D6E03F1640EC5F384651D
:107BD000B4E742F480321A61D3F8C02022F47F5215
:107BE00022F03F020243C3F8C02038E55AE90A21D7
:107BF0001D695AF8200C25F4FF650A4325F0040599
:107C00005AF81C1C2A4302430A4342F001021A613B
:107C10002EE5FFF7A4BADC2303FB04B40022D4F85A
:107C2000E43384F8E02343F01003C4F8E433D4F8D9
:107C3000E83343F00103C4F8E833FFF790BA00BF1C
:107C4000000008800001005000070050000021C320
:107C50001000C090000052C79C3800200000002097
:107C600000030050000084CB00060050400D0300CC
:107C7000F0B5D0F800C0134CDCF8045085B02540B6
:107C800045EA01040A9F039344F0014444F490340C
:107C90001546CCF8044019463A4606460CF0C2FF99
:107CA00068B93168039B8D62024600973046802197
:107CB0000CF0E8FF003818BF012005B0F0BD01202E
:107CC00005B0F0BD009800FC0128B5EEC00A10D048
:107CD000F1EE10FA0BDD9FED177ADFED177AE0EE8B
:107CE000077AFCEEE77A17EE903A98B270470020D8
:107CF0007047F1EE10FA0BDD9FED107ADFED107A90
:107D0000E0EE077AFCEEE77A17EE903A98B2704709
:107D1000EDD5F7EE007A30EE270A9FED0A7ADFED17
:107D20000A7AE0EE077AFCEEE77A17EE903A98B21C
:107D3000704700BF00E0F9440000404200C07944B1
:107D40000000834400C079C400E0824470B5464E10
:107D500096F8F04704EB840306EB8303A50093F841
:107D6000F437032B6ED8DFE803F059291E022544AF
:107D700006EB8505D5F8F807002870D196F8443849
:107D80009C425FD0013404F00302934286F8F0274E
:107D900058D002EB820406EB84040223C4F8F807EF
:107DA00084F8F43770BD2B1906EB8303D3F8F8275A
:107DB00072B1013AC3F8F827002070BD2B1906EB09
:107DC0008303D3F8F827002AF3D1022283F8F4279B
:107DD000254406EB850595F80038013BDBB285F8B4
:107DE00000388BBB214B96F84468D3F8A413D5F820
:107DF000FC07621C02F003024B1E0324B242034440
:107E000085F8F447B3FBF1F0C5F8F8071AD09942AA
:107E100018D80138C5F8F807012070BD3DF066FBA1
:107E200080B1124B2C44D3F8A42306EB8404012127
:107E300002F51C5384F8F4170F33B3FBF2F3C4F8C4
:107E4000F83770BD012070BD084BD3F8A423012082
:107E500002F2E733B3FBF2F3C5F8F83770BD01382F
:107E6000C5F8F807002070BDD030002000000020C9
:107E700038B590F83C30012B00F0AA800D46022363
:107E80000121044680F83C1080F83D30142A1ED8A9
:107E9000DFE802F0241D1D1D3C1D1D1D551D1D1D6F
:107EA0006D1D1D1D861D1D1D0B00006829460BF054
:107EB00059FD23682869196D41F400611965196D30
:107EC00021F4806119651A6D42EA00221A650123C6
:107ED000002084F83D3084F83C0038BD0068294615
:107EE0000BF0AAFE23682869996941F0080199619D
:107EF000996921F0040199619A6902439A6100200D
:107F0000012384F83D3084F83C00E6E70068294608
:107F10000BF040FE23682869996941F4006199617A
:107F2000996921F4806199619A6942EA00229A6113
:107F30000020012384F83D3084F83C00CDE7006840
:107F400029460BF0D5FD23682869D96941F008015D
:107F5000D961D96921F00401D961DA690243DA6192
:107F60000020012384F83D3084F83C00B5E7006828
:107F700029460BF06BFD23682869D96941F400613B
:107F8000D961D96921F48061D961DA6942EA0022B4
:107F9000DA610020012384F83D3084F83C009CE73E
:107FA000006829460BF018FD23682869196D41F017
:107FB00008011965196D21F0040119651A6D024354
:107FC0001A650020012384F83D3084F83C0084E7E2
:107FD000022038BD03689B0AA3F58013542B00D9F7
:107FE00070470D4A134493F81C370B2BF8D830B563
:107FF0000A4C427985B0002914BF0025022504EB04
:108000008310694600230124CDE90054CDE90233F1
:108010000BF054FE05B030BD0CC405081839002023
:108020000D4BD3F8D42010B5520804464FF6FF711B
:108030004EF0D0FA20460021FFF7CCFF0749084A4E
:1080400041F238632046CA5001F5B151BDE81040F5
:10805000002218314EF0A2B900000020E00E0020EE
:10806000319101080F4B104AD3F8D430A2FB0323FF
:108070009B09013BB3F1807F11D210B50B4A0C492B
:10808000536000240723F02081F8230094600F211F
:108090004FF0FF301360FEF751FD204610BD012068
:1080A000704700BF00000020D34D621010E000E0D8
:1080B00000ED00E0F0B5324C324BD4F8A02B126941
:1080C0005168994283B054D0A3F57843994252D075
:1080D00003F58063994250D003F58033994214BF71
:1080E0004FF0FF3103212848013100F1B4073CF083
:1080F000DDFBD4F8A03B2548D3F88830C4F8AC3B6E
:1081000007F11003C4F8143CC4F8107C3CF010FCD8
:1081100000260546314601AA0223A7F1B400A4F8BF
:10812000A85BADF804603CF08BFC052039F0C0F989
:1081300001AA3146A7F1B4000223ADF804603CF077
:108140007FFC054620B19DF805301E2B03D0354637
:10815000284603B0F0BD0E4A0E4BC4F88C2B01210B
:10816000A7F1B40084F8781CC4F8903B3CF0E8FC1C
:10817000EEE70021B7E70121B5E70221B3E700BF31
:10818000D030002000300140743C002080969800E0
:10819000854705082D3F0508F8B5184F97F8543660
:1081A000132B01D00020F8BD07F5B565BC21144E96
:1081B00028463CF0D5FB284601223C213CF04CFCF3
:1081C000D6F8D04CE4B201E0820708D4BC2128469E
:1081D0003CF0C6FBD6F8D03CE31A312BF4D9430768
:1081E000E0D408490848094A094BC1F8C800C7F853
:1081F0009825C7F89C350120F8BD00BFD81F002086
:10820000E00E00203425002000007A3D7943050867
:108210008D410508F0B5244B244E93F8547583B076
:1082200038463BF087FD96F88D4C054644B1D6F8AC
:10823000904C241AB4FA84F46409204603B0F0BDCB
:1082400038460122512136F009FA07460028F4D0B9
:108250000123C6F8905C86F88D3C15B140F25113AD
:10826000EB807A7A022128463BF0B2FD38684DF067
:10827000CDFE0F4B0246A3FB0213C3F30E35013DA7
:10828000ACB2C3F3CF230094013B0024019409480E
:1082900039469BB22CF092FD0124D6F87C3C204656
:1082A0001D6003B0F0BD00BFD81F0020D0300020FB
:1082B000D34D62104C3D002070B5214DD5F8983C4F
:1082C00093F82620DAB11B699847E0B1D5F8983CBD
:1082D00093F824208AB105F69C4600241A19E0B2CE
:1082E0009B6992F82C10B6EC010A9847D5F8983C97
:1082F00093F8242001349442F0DB5B69984795F8A9
:10830000AC3C312B00D070BD95F8AD3C002BFAD0C1
:10831000D5F8983C93F82430042B1E46A8BF0426B9
:10832000002BF0D00024074D234618464EF09CFB4E
:108330000134E3B29E4245F8040BF6D870BD00BF8D
:10834000D0300020803D002003681878012801D03B
:1083500000207047074A93F90430642101FB03238E
:1083600093F8292D202AF4D1D3F8E83C9869C0F37A
:10837000C0307047D030002010B50C4CD4F8603EAF
:108380001B78022B10D1D4F8680E3BF08BFDD4F88B
:10839000680E08B12123C38001213BF03BFD044856
:1083A0003CF0C6FAA4F8640E10BD00BFD030002027
:1083B00080969800054BD3F8602E1278022A03D1DC
:1083C000D3F8680E3CF02CB9704700BFD0300020C5
:1083D00030B583B00D46012301460DF10702044676
:1083E00007483CF06DFC9DF8072035EA020304D0F5
:1083F00003482A4321463CF037FF03B030BD00BF9D
:10840000303F002038B505460A460C460648294646
:108410003CF022FB45F0800103483CF0A1FA231A0E
:108420005842584138BD00BF303F002070B50D4C58
:10843000D4F8605E2E78022E134607D00A46014615
:1084400004F56660BDE870403CF03ABC2A6A0AB1A7
:10845000002070BD0A46014604F566603CF0CCFA87
:10846000012070BDD030002003681B78022B4FF034
:10847000010201D03CF052BE3CF016BB13B53B4CA0
:108480000023D4F8182F8DF80730137803F0FD017E
:10849000012905D194F81C1F11B90C2184F81C1F67
:1084A000022B1ED0032B2ED001220B2130484AF084
:1084B000EBFB042038F0FCFF2D4801230DF10702EF
:1084C00000214AF003FC00283AD09DF80730482BE1
:1084D00036D1284BC4F80C3F274BC4F8103F02B0EC
:1084E00010BDD4F8200F3BF0DDFCD4F8200F08B10C
:1084F0002E23C38001213BF08DFC20483CF018FA6C
:10850000A4F81C0FD0E741F2A8335068E35846F2B4
:10851000A8111961002380F86830122237214AF02F
:1085200087FBD4F8183F0D22586824214AF080FBBD
:10853000D4F8183F302258686A214AF079FBB3E733
:10854000D4F8183F1A78022A03D0032A07D0002053
:10855000C5E7D4F8200F3CF063F80020BFE7586867
:10856000102237214AF064FBF1E700BFD030002031
:10857000E83F00202B2D0508AD2D050880969800BA
:1085800010B58CB000234CF20502044601A9CDE9D8
:108590000633CDE90833ADF800208DF80230032210
:1085A0000B930123CDE903128DF814308DF8283098
:1085B000CDF808D03CF0BEFA204602A93CF056F8AF
:1085C00020463CF0B7FA9DF806000CB010BD00BF85
:1085D0002DE9F041614C82B0242204F59E60002117
:1085E00053F070FD94F819750023C4F81435002F6A
:1085F0003CD15B4ED6F8383D63B39B6A53B35948C0
:108600009847836833B303885748013B9BB284463D
:10861000064600253178032906F106061ED00135ED
:10862000062DF7D100220178022900F1060000F0A2
:108630008E800132062AF6D1D4F81415052909D006
:10864000481C02FB01C2C4F81405022000219380DB
:1086500010705180384602B0BDE8F081062303FB5C
:108660000545B5F8F234013B9BB2DBE794F81805F9
:1086700004F5A463C4F81C3510B9394E0027B9E7D6
:108680003BF058FBC4F8280518B183790BB1382B9F
:10869000F3D1364839463CF009F980460028ECD041
:1086A000D4F81C352F4A98685A6708B12023C38034
:1086B0000D213BF0AFFBD4F81C35294E98683BF0F8
:1086C000F1FB2B48D4F81C553CF032F90123A8806B
:1086D0003220C6F8585D86F85C3D38F0E9FE042388
:1086E000D4F81C0500250DEB03029F2101953CF0F9
:1086F00083F99DF805509DF804309DF806102D0271
:1087000045EA03450D43294606F6385049F0B8FAC4
:1087100008BB2846FDF752FFE8B99DF806509DF8C2
:1087200005209DF807302D0245EA02451D432946E4
:1087300006F6385049F006F968B92846FDF73EFFBD
:10874000074640B994F818053BF08AFF52E7062126
:1087500001FB02C279E747464CE700BFC841002051
:10876000E00E0020181C0020B8460020E84600203B
:10877000404B4C00114BD3F8CC1C91F82802012837
:108780001AD00A68B2F858306FEA43436FEA53438D
:108790009BB210B4A2F85830B2F840309BB243F408
:1087A0003F43002443F08003A2F8403081F8284280
:1087B00020465DF8044B7047704700BFE00E002074
:1087C000F0B5744C744E94F8C157744BC4F8983596
:1087D00006F62422022104F5B3670820C4F808280D
:1087E000002289B0C6F8CC7CC4F89C05C4F8A0155A
:1087F000C4F8A815C4F8AC25C4F8B025C4F8B4254D
:10880000C4F8B825002D73D0032184F8C117B3F83C
:10881000405044F27F0129401646A3F84010002240
:1088200015464FF0010C04EB4211971C81F8C0254E
:10883000A1F8CE25013204EB4717D2B2904281F85D
:10884000C1C581F8C355C1F8D055C1F8D455C7F892
:108850009855E8D80022154604EB421102F10A07A8
:1088600081F8C026013204EB4717D2B2904281F85A
:10887000C15681F8C356C1F8D056C1F8D456C7F8CE
:108880009855E9D800210120A3F84000A3F8401032
:10889000A3F84410A3F85010B3F8402092B242F469
:1088A0003F4242F080028642A3F8402084F8BC1583
:1088B00084F8C1075BD01423002054259421D422CE
:1088C000A4F8C6364FF48A7384F8CC0684F8CC0535
:1088D00084F8EC0584F8EC0684F80C06A4F8C65578
:1088E000A4F8E615A4F8E626A4F8063609B0F0BD0B
:1088F00005F0FF062A4D0796EB6C84F8C06743F03D
:108900000103EB64EB6C049103F001030293032772
:108910004FF4C05303A94FF09040029A0596039379
:1089200006970CF02BFAAB6D43F40003AB65AB6D0F
:1089300003F40003019306211420019BFEF7FEF8C7
:10894000184AD4F89835D4F89C054FF4801111607A
:1089500084F8C177B3F84010D4F8B46544F27F02CC
:108960000A40A3F8402000287FF459AF8AE784F832
:10897000F817B3F85420C4F8006892B242F001022C
:10898000A3F85420B3F8542092B242F00202A3F8A4
:10899000542090E7C8410020E00E0020005C004019
:1089A0000010024000E100E010B5194C94F80D08E9
:1089B00090B9184B83F88501C3F8880194F81038F2
:1089C000012B20D0D4F814380BB313495B68BDE8F1
:1089D0001040A1F10C0018473BF0ACF994F80F28B7
:1089E0000C49003A18BF012281F88521C1F888019D
:1089F0000028E3D01F22C28020213BF00BFA94F81C
:108A00001038012BDED1054BC4F81438DDE710BD5A
:108A1000C8410020E00E0020E0490020A80300200B
:108A200099B10A6B824216D9154BD3F85C28914252
:108A300021D35C3991421ED30B6B9842F9D38B6BD7
:108A40009842F6D80B46184670470D4BD3F85C1881
:108A50000A6B904212D30B680BB9F4E70A6B904291
:108A60000B4602D38A6B9042EDD951F85C3F002B44
:108A7000F4D1184670470023184670470A46D8E7D5
:108A8000C84100202DE9F047CC0143D10346224ADA
:108A900043F8082B4FF0FF324260022418467E262E
:108AA000DFF87880D8F860982644013E051D4946D5
:108AB0006FF070474FF0010A08E0A3421CD0631C1E
:108AC00045F8043C321B1C460435CAB10B6BA3426B
:108AD00002D88B6BA34204D22046FFF7A1FF0146C8
:108AE00090B10A794B6B002AE7D1A34204D0E6D2B9
:108AF00045F8042C631CE5E745F8047C631CE1E7BA
:108B0000C8F86018BDE8F08745F804AC321B631C58
:108B10004946D8E78026C3E7F8FFFF0FC841002089
:108B20000F4A10B50F4CC2F87C480F4CC2F874487D
:108B300000230E4CC2F86808A2F86C18C2F870380E
:108B4000A2F86E38C2F8784882F880382822994214
:108B500004D002FB03F403530133F8E710BD00BF58
:108B6000C841002040420F0020A10700A01CE9FFDF
:108B700030B5402085B02EF01DF940B3164B90F96A
:108B8000040093F8A91D93F8AA5D93F8AB4D134A1E
:108B9000002914BF02210021002D14BF102300233F
:108BA000002C18BF41F001010B4303244FF4E131C5
:108BB000CDE9014300910023402130F0C0FB084B78
:108BC000C3F8840808B1074B436305B030BD044BBC
:108BD000C3F8840805B030BDE00E00208D210208E6
:108BE000C8410020292102082DE9F041A34C6578F5
:108BF00084B0132D1CD8DFE815F049004900AC0003
:108C0000650106011F001F00A101EA0120024900C1
:108C10001B006402DF021B00AC001C0322031F00C8
:108C20002403FFF7A5FFD5F88438002B40F0EB8232
:108C3000002004B0BDE8F081914B924A92489349DC
:108C4000A260062D4FF0000283F8382983F83929F5
:108C500083F83A29E060616100F0CE83122D00F0C4
:108C60004B83052DE4D10C2242F6F8264FF4FA503E
:108C70001B21A68083F84259A27083F84129C3F8CA
:108C80003C0983F840194FF4E13646E37C4D40201F
:108C9000C5F8D0482EF08EF806460028C8D0677870
:108CA0000023394685F8D43811F0C8FF012F034658
:108CB00000F071830A2F00F06483002F00F0BF835F
:108CC0007349744AA160E2607049734AC4E904219F
:108CD00096F90400002B40F0528395F8D438002B0D
:108CE00014BF0326012694F8A93D94F8AA2D002B61
:108CF00014BF02230023002A40F03F8395F8D428B4
:108D0000002A14BF1022002294F8AB1D01960029FE
:108D100018BF43F0010313434FF4E1320293009272
:108D2000564B5E4A402130F00AFB94F8B03DA278E1
:108D3000C5F8E408013BDBB29A4285F8E83802D86E
:108D4000002385F8E838003818BF012004B0BDE8DA
:108D5000F081534DA56105F12403E361FDF750F95E
:108D600094F8BC3D4F485049E160002B42F6F82191
:108D7000A5F6EC054D4A41F2707304BF02460B465E
:108D800012264249A6704020C5F83429A3806161AB
:108D90002EF010F8064600283FF44AAF67783946AF
:108DA00011F04CFF002840F021830F2F00F01E83AC
:108DB00096F90400D5F83469012594F8A93D94F892
:108DC000AA2D002B14BF0C230E23002A40F00C8385
:108DD0000F2F0CBF1022002294F8AB1D0195002923
:108DE00018BF43F0010313430293314A314B0096FD
:108DF000402130F0A4FA94F8B43D002BA3D0052311
:108E000084F8C53D9FE72C4A2C4B082042F6F821F8
:108E1000A0704020C4E90223A1802DF0CBFF0546BD
:108E200000283FF405AF617811F008FF94F8A91D00
:108E300094F8AA3D94F8AB6D214A0746002F14BF61
:108E400003240124002914BF02210021002B14BF98
:108E500010230023002E18BF41F001010B434FF4F3
:108E6000E13195F904000091CDE90143402100234F
:108E700030F065FA003818BF0120DAE6E00E002075
:108E8000C84100208D020208B102020879050208DB
:108E9000AD040208FD120208E9250208D5210208E6
:108EA000B44A0020A08601000D480208400D0300CE
:108EB00031220208D84A0020F102020815030208F4
:108EC000AD120208A449A54A182342F6F820A3705F
:108ED000A080A34B63614020C4E902122DF06AFF19
:108EE000064600283FF4A4AE617811F0A7FE94F87E
:108EF000A92D94F8AA3D94F8AB4D96F904100028DA
:108F000008BF0125002A14BF02220022002B14BF33
:108F100010230023002C18BF42F0010213434FF42A
:108F2000E13208460293009201958E4A00234021C7
:108F300030F005FA003818BF01207AE68A498B4DD7
:108F40008B4A874BA160122044F62061A0704FF03D
:108F50000008402085F84389A180E26063612DF01C
:108F600029FF064600283FF463AE40214FF48052AB
:108F70002DF00CFF94F8A92D94F8AA3D85F84489AA
:108F8000071E14BF03210121424596F9040014BFB6
:108F900002224246002B40F01182002F00F03E8258
:108FA00094F8AB4D0191002C18BF42F0010242F041
:108FB00010024FF4E131029200916E4A402130F0EC
:108FC000BEF90023C5F8480985F84C39BBE6674D62
:108FD000694BA36028211023684A85F85E19002692
:108FE00041F27C51A37040205D4B85F85D69A18002
:108FF000E26063612DF0DEFE00283FF419AE94F8C4
:10900000A92D94F8AB3D5E4990F904000091B2425D
:1090100014BF12221022B34218BF42F001020321F2
:10902000CDE901123346574A402130F088F9C5F89E
:109030006009801B18BF0120FBE5A28C5249534BED
:109040001201A1FB0212D208A2F5B06203F14001A5
:1090500043F8042F9942FBD110204D494D4A404B13
:10906000A07041F60B254020C4E90212A58063617F
:109070002DF0A0FE00283FF4DBAD94F8A93D94F854
:10908000AB2D454990F904000091002B14BF022339
:109090000023002A18BF43F001030322CDE9012376
:1090A00040213E4B3E4A30F04AF9304A94F8C53DE3
:1090B000C2F8A409002B7FF446AE062384F8C53D10
:1090C00041E6384DA561FCF79BFF122342F6F820DC
:1090D0003549364AA370A080214B63614020C4E922
:1090E00003122DF067FE00283FF4A2AD94F8A91DED
:1090F00094F8AA3D94F8AB6D90F904002C4A00292D
:1091000014BF02210021002B14BF30230023002EA6
:1091100018BF41F001010B4303264FF4E131CDE9C3
:10912000016300910023402130F009F9A5F6A8154C
:10913000C5F8CC0900283FF406AE1E4811F082F8AD
:1091400094F8C53D85F8D009D5F8CC09002B7FF4FB
:10915000FAAD84F8C56DF6E5850302089D030208A3
:10916000790502085920020839090208C84100207F
:1091700039260208C1240208150602083D06020825
:1091800048E80100A1220208CDCCCCCC284B00201D
:1091900025050208AD150208A0680600E00E0020B3
:1091A000C14C0208704B00207D550208DD1B0208EF
:1091B000611C0208991B0208AA4B4FF4004103F1FD
:1091C000400223F8021F9A42FBD1A74D94F8BA1D22
:1091D00085F8C81805F6880194F8BB0DA34AA1616B
:1091E00042F6F82185F8C908A1802020A049A26094
:1091F000D5F884389F4AA0709F48E060C4E90421F4
:10920000002B3FF40EAD012385F8CA3835F016FB6C
:1092100094F8C53D00F543405030C5F8CC0813B96B
:10922000032384F8C53DD5F88408003818BF012011
:10923000FFE4012004B0BDE8F041FDF755BA00207D
:10924000F8E78E4D8E4B8F4AA360122144F62063BF
:10925000A1708D49A380E260854B21614FF4B67205
:10926000002105F57370636152F02CFF012385F82E
:10927000E33405F5856105F5727340F2DC5243F87D
:10928000042F8B42FBD140202DF094FD00283FF4A9
:10929000CFAC94F8A93D94F8AB2D7C4990F904002B
:1092A0000091002B14BF32233023002A18BF43F053
:1092B00001030322CDE901234021754A002330F048
:1092C0003EF80446C5F8340490B1674B00223F21B4
:1092D000C3F8500983F8542983F85529C3F858294D
:1092E00083F85C2985F8381585F839151CF0B4FA2F
:1092F000201E18BF01209CE443F2B066102240F605
:109300008C204721A680634E83F84259A27083F8CF
:109310004129C3F83C0983F8401940202DF04AFD4B
:10932000054600283FF484AC617811F087FC94F87E
:10933000A92D94F8AA3D94F8AB4D0146002914BF1D
:1093400003210121002A14BF02220022002B14BF96
:1093500010230023002C18BF42F00102134395F99B
:1093600004004D4A0096CDE90113002340212FF05F
:10937000E6FF003818BF01205BE41022C4E4032696
:10938000B1E4D5F8D82812F480621CBF80F0010245
:10939000D2B285F8D4280321072285F8DC1885F895
:1093A000DD2801214FF4006285F8DE18C5F8E028B9
:1093B0000C2142F6F822A170A28081E494F8AB3D22
:1093C0000191002B18BF42F0010242F010024FF44D
:1093D000E13102920091314A434640212FF0AFFF24
:1093E000002F3FF4B0ACECE51022F5E496F9040050
:1093F000D5F834690325E0E40C2243F2B0674FF45A
:10940000FA502121234E83F84259A27083F8412952
:10941000A780C3F83C0983F840197EE794F8AB3D78
:109420000191002B18BF42F001024FF4E13102928A
:1094300000911A4A3B4640212FF081FF83E402222B
:10944000032185F8DC284FF4806285F8DD18C5F823
:10945000E028072145F2F05285F8DE78A170A2805D
:109460002EE400BF4E4A0020C841002075040208C7
:109470007905020899250208994902080000002090
:10948000DD060208F10602088D59020860E31600A5
:10949000A523020890D00300ED1D0208C124020894
:1094A00004490023C1F8D439C1F8D839C1F8DC39EE
:1094B000704700BFC8410020034B0022C3F8E429D5
:1094C000C3F8E029704700BFC84100202DE9F043F0
:1094D000404C2DED028B012284F81C283E4A92F864
:1094E000E839B2F8001AB4F85C2507EE103AB8EE85
:1094F000C77AF2EE047AC7EE276A04F25C550026BA
:109500004A43642083B0B2FBF0F2C4F81468C4F894
:10951000182804F2CC684FF0000907EE101AC5EDC8
:10952000AD6AB8EEC77ADFED2D6A86EE878AF0EE77
:10953000678AB4F85C3500EE903A0022F8EE600AD3
:10954000B3EE090A0821404647F0E6FBB4F85C3563
:1095500000EE903A38EE080AF8EE600A0022052183
:1095600008F1900047F0D8FBB4F85C75C5F890920C
:1095700028EE280A07EE907AB5EEC00AF1EE10FA4E
:10958000F8EE670A07DD37B1CDED010A47F0FAFAC8
:10959000DDED010A01E0B7EE000AB5EEC08AF1EE9A
:1095A00010FA85EDA50A05DD27B1B0EE480A47F0AF
:1095B000E9FA01E0B7EE000A0136032E85EDA60AAE
:1095C00008F1300805F10C05B3D103B0BDEC028BF6
:1095D000BDE8F083D81F0020C841002000004843A8
:1095E0002DE9F04FAB4AAC4CB2F86015B2F85E35DD
:1095F0002DED088B07EE901A0AEE103A94F8DD3D37
:109600009FEDA6BADFEDA6AAF8EE679A07EE903AAC
:10961000B4F8DE3DF8EEE77AF2EE046A0A2B87EE44
:10962000A67AB8BF0A239246002285B004F608271E
:10963000C4F8182A04F6E85B04F5616607EE903A70
:10964000B4F8E03D87ED007A08EE103AF8EEE78ACC
:10965000B8EEC88AB6EE009AF4EE488A29EE890A76
:10966000F1EE10FAC8BFB0EE688A94F8DC3DC7EDA1
:10967000018AB4EEC80AF1EE10FAD8BFB0EE408A03
:10968000082BA8BF0823B1F57A7F38BF134680EEB8
:10969000080AC4F8143A87ED028A50F039F9B7EE97
:1096A000007AB4EE470AF1EE10FA48BFB0EE470A6E
:1096B000FDEEC07AB8EE4AAAF8EEE76A17EE905AC5
:1096C000CAEE297A04F6EC53C4F8E45D9FED75AA5E
:1096D00067EEA67A87EE276A89EEA67ADFED727AC0
:1096E0008BED006AC7EE279A0BF2247B88EEA90A5D
:1096F000C3ED009A50F0AAF90228B8BF022088EE04
:10970000290A8046C4F8F00D50F0A0F92328A8BF1C
:109710002320B8F1230FA8BF4FF023084045C4F819
:10972000F40DB8BF404604F6F853A0EB0801D3EDA2
:10973000007A01938146012D01F10103DFED5B8A7F
:109740005B480093B8BF0125F5EE407AF1EE10FAC0
:109750002BD1584A02960023CDF80CB01646AB46E2
:109760001D4607EE905AF8EEE79A013569EE8B9A9E
:109770000836B0EE690A50F083F8B0EE408AB0EED9
:10978000690A50F035FAA0EE288A242D484828EEC0
:109790000A8A20EE0A0A06ED028A06ED010AE0D1E5
:1097A0005D46DDE9026BF0EE6A7A002346E9053892
:1097B000009A46F80C9C92FBF5F246F8045C46F8D9
:1097C000082C32460133482BE2EC018AFAD13A499F
:1097D000D0F800C0096806F5907300220132242AEF
:1097E000C3F800C0596003F10803F7D106F51576F8
:1097F0005E45A9D1019BDFF8C8909FED308AC3ED8B
:10980000007A0026B819CB464FF00008D4F8143A75
:10981000984500F1240531DA07EE908A97ED016A48
:10982000F8EEE76AD7ED027A36EE897A77EEC67AF5
:10983000743067EE877A07EE103AB8EEC77ABAF856
:109840005E3587EE870A042108F1010800EE903AA0
:1098500030EE060AF8EE600AABEC010A97ED001A4A
:10986000C5ED178AA6EE881AC5ED168AC5ED158ACC
:10987000C5ED148A47F0FCFA2846C7E706F590764E
:10988000B6F5587F09F12009BCD105B0BDEC088BB5
:10989000BDE8F08FD81F0020C8410020C3B8B23DFA
:1098A000BC297E3F72F97F3F00009042000000001B
:1098B00080CB0508C056002084CB0508CDCC4C3E9B
:1098C000E44B00202DE9F04F2DED028BDFF83C82B8
:1098D000DFF83C92DFED878A9FED878A85B008F13B
:1098E00038040127FEB218F8010B32464F2134F03C
:1098F000B5FE0546002800F0C6800068A56001237B
:10990000B0F1804F04F8303C04D07C4BC31AB3FA5A
:1099100083F35B0904F82F3C4CF078FB14F82F3CE0
:10992000DFF8F0A107EE900A002B14BF01224FF4DC
:109930008072F8EE677A286844F8102C00234FF400
:10994000005244E9062344ED0A7A44F8083C4CF0FE
:109950005DFB9AF8263544ED088A07EE903AA9FB9C
:109960000030F8EE677AC308012218F8010C44F8B9
:109970000C3C04ED0B8A44ED097A24F81C2C24F8E5
:109980001A2C3AF0D7F9E06010B14F23C6718371F9
:109990009AF82435012B00F08F80022B0CBF422156
:1099A00002216A7A3AF014FA28684CF02FFB002161
:1099B000024628464CF00EFE14F82F3C002B6DD0CA
:1099C00021464F4B41F8043D002228464CF0E6FC6E
:1099D00028684CF059FE8346002835D00123002228
:1099E00001930423CDE902239AF82515914214BF6F
:1099F000134602236A79009369460AF05FF96A798F
:109A00000C2A08D8DFE802F06F0707076807070786
:109A1000610707075A00DBF80030186A02F01F01DF
:109A200001228A4020EA02001862186A354902437E
:109A30001A629A681140062906D0B1F5803F03D01A
:109A40001A6842F001021A60A26854F8103C1268C9
:109A50009AF82806013E591EF6B2916201230021B0
:109A60004FF0FF3C4FF40055B042C2F82CC0536198
:109A700044E9065124F81C3C24F81A3C44F8081C1C
:109A800001D134F041FD0137052F04F140047FF48A
:109A900029AF05B0BDEC028BBDE8F08F1A48DFF8A6
:109AA00078C044F8040C63602246211F2846C4F89D
:109AB00000C04CF073FC8BE7222172E7DBF800302A
:109AC000D96841F01001D960A7E7DBF80030D96808
:109AD00041F00801D960A0E7DBF80030D96841F017
:109AE0000401D96099E7DBF80030D96841F0020140
:109AF000D96092E700401C4600000000000C0040C6
:109B000065DF0308070001008DE00308E05700202F
:109B10001F85EB51C05200202DE5030870B5084C9D
:109B2000251D2E4614F8010B2CF0F6FB28B1037905
:109B300005F8013BB442F5D170BDFF23F8E700BF43
:109B4000EC5800202DE9F0471D4F012607F10805CC
:109B5000B2464FF033094FF0000817F8010B3AF006
:109B6000E9F8044690B180F80690C671FB7803F0DE
:109B70007F02012A18D013F0800F20460DD185F8FE
:109B800004803AF089F985F805802C600136052EAD
:109B900005F10805E1D1BDE8F08785F804A03AF0A9
:109BA00081F985F805A0F0E71B0605D401212046C0
:109BB0003AF030F9FB78DEE73AF074F9F6E700BFE7
:109BC000F4580020184B03F5D062C3F87426EFF365
:109BD0001181102282F312880022C3F8DC26C9B258
:109BE000C3F8E02683F8E42683F8E82681F3118899
:109BF00093F8012793F80217C3F8EC06002A14BF64
:109C00000222002211B142F0300252B20748084944
:109C100083F8F0261A22C3F8F40683F8F826C3F86E
:109C2000FC160120704700BFC0520020E931030834
:109C300071350308314BB3F85E3507EE103A2DE964
:109C4000F041BAEEEF7A2DED048BB4EEC70AF1EED7
:109C500010FADFED2B8AB0EE408AF0EE607AF0EE7B
:109C6000419A06DDF4EEC70AF1EE10FA3DD5B0EEEA
:109C7000478AB5EEC08AF1EE10FA3BDDF5EEC07A08
:109C8000F1EE10FA36DDF4EEC87AF1EE10FA31D5C5
:109C900027EE887A67EEE77AE8EE087A87EE279A69
:109CA000DFF86880174F184E00F10C0400F19C0596
:109CB00044F80C8C44E9026720460421303444ED1A
:109CC000098A44ED0A8A44ED0B8A44ED0C8AB0EE11
:109CD000491AF0EE690AB0EE480A47F0C9F8AC42FA
:109CE000E6D1BDEC048BBDE8F081B0EE688AB0EE41
:109CF000689AD5E79FED029AD2E700BFD81F0020EF
:109D00000000000089CC0408DDCC040825CD04083F
:109D10000A44914215D030B441F2210511F8014BAB
:109D2000082380EA042010F4004F85EA40040ABFAB
:109D30004000A0B280B2013BF5D18A42EED130BCE6
:109D4000704770471249134AD1F8DC0205E0D1F898
:109D5000DC321B1AB3F57A7F0FD81369DB03F6D414
:109D600013694CF2FA310B4009D1106910F001006F
:109D700004D001211846116170470320704706483E
:109D8000D0F840151943C0F8401501201361704701
:109D9000D0300020002002400000002070B5254C8B
:109DA000254DD4F80417D4F80827D4F80C3741EA25
:109DB00002000126184384B085F85C6524D009B2FE
:109DC0001BB212B206EE901A07EE903A07EE102A76
:109DD0009FED1A6AF8EEE66AB8EEC77AF8EEE77A0F
:109DE00066EE866A27EE067A67EE867A002304F22C
:109DF0003C7101A8CDED016A8DED027ACDED037ABB
:109E000085F85C3546F0DAFBD4F81037012285F886
:109E10005D254BB10A490023A1F1080085F85D35A5
:109E200046F02AFC04B070BDB4F91437002BF1D110
:109E300004B070BDC05200200000002035FA8E3CF6
:109E4000D85900202DE9F041204D95F8673785F865
:109E5000603705F2647705F5ED6600244FF00508DC
:109E600017F8010B20BB30600134032C06F1040607
:109E7000F6D195F86017D5F86807C94301F00101DC
:109E80003AF090F895F86017D5F86C0781F0020168
:109E9000C1F340013AF086F895F86017D5F87007DD
:109EA00081F00401BDE8F041C1F380013AF07AB8D5
:109EB00039F040FF013401213060E3B210B180F885
:109EC0000680C371306839F0A5FFCEE7C05200208C
:109ED000F0B5284CB4F87857A4F87A5783B0EDB9A8
:109EE00094F8740739F026FF94F87527C4F87C07B6
:109EF000003A18BF012284F8802748B194F87617F9
:109F00002A22002914BF11210121C28039F082FFC9
:109F1000002003B0BDE8F0403AF04CB894F87477F4
:109F2000002238462A2134F099FB0646384639F09B
:109F300001FFE8B1E6B12A22C4F89807C280727A1C
:109F4000022139F045FF00270B4AB2FBF5F3C3F3BA
:109F50004F0000909BB23146019704F28470A4F840
:109F6000A0572AF02BFFD4F884371F6084F8957728
:109F700003B0F0BDC052002040420F002DE9F04F69
:109F8000DFF814932DED068B99F83648A1B0032C19
:109F90000390A4F1050300F29C80AD490122032B3C
:109FA00081F8F02600F2C38099F83F3889F86428D8
:109FB000012B00F0ED80022B00F0E780A54BA64EB0
:109FC0000B931D460FCE0FC50FCE0FC599F83E78E7
:109FD0003268DFF8C8822A603A1E18BF01229F4B00
:109FE00088F8AD2C072CC9F8E43700F27382042CF2
:109FF0000ED999F83D389A4AC9F86C28012B05D03A
:10A00000022B06BFB7FA87F35B09002389F8703883
:10A01000DFF88CB2934B0593ABF2F3530693002316
:10A020000493CDF81C80DDE90332934240F3488469
:10A03000069B9DF810A013F8016B06930AF1010529
:10A04000EDB22A463046032134F008FB04460028CE
:10A0500035D0304639F06EFE059B586110B10323B0
:10A06000C571837199F8363808932046277A3AF0FB
:10A0700007F999F870380646002800F0A582099380
:10A08000002B40F0A482D0F80480B8F1000F16D065
:10A0900040463AF05DF9744A0A90431E242101FBC0
:10A0A000032393F8802152B90322B16883F88151C8
:10A0B00083F880210A9B0C91002B40F0AF826B4B00
:10A0C0006B4AC9F8E837DDF81C80C9F8EC27002393
:10A0D000BBE0DAB2052A7FF660AF5D490022032BB0
:10A0E00081F8F02640D80123DFF8B08189F8643880
:10A0F000D8F8983C002B3CD0039883F82400012129
:10A10000002283F8251083F826209A62014648B180
:10A110002C331944574A084612F8011B03F8011B57
:10A120009842F9D121B0BDEC068BBDE8F08F524EBC
:10A13000524D99F83C780FCE0FC50FCE0FC533683E
:10A140002B60002389F864380A2C00F2CB83DFE807
:10A1500014F0A900C903DC030104C903C903C9033E
:10A16000C903C903A9000604DFF8308189F864280F
:10A17000BEE7434D434C0FCD0FC40FCD0FC42B682A
:10A1800044F82039C8F8984CCCE7082C00F0EC8350
:10A190002F4B3D4F83F83C430FCF3C4D99F83EC8C1
:10A1A0003B4EDFF8F8800FC50FCF0FC52C463A683D
:10A1B000039B44F87D2B0021C9F86838BCEB0103F0
:10A1C00018BF0123A6F54C704FF44C72049488F824
:10A1D000AD3C89F866180F4651F074FFA6F264454D
:10A1E000D9F86838BB4240F31781049B13F8014B40
:10A1F0000493204634F0BCFA8246204639F09AFD9A
:10A200009AF808B098F8AD2C0BF0010A0AF1010A8F
:10A21000044689F865A80AB18BF0010B002C00F008
:10A220005383A279002A00F0D480382A00F0D1802C
:10A230000F4B18490D4AC9F8BC37012389F8663815
:10A24000C9F8B417C9F8B8270023C8F8983C4FE7F5
:10A25000B8630020945A002068CC0508FD67050803
:10A2600081590408C46500200000002081DB030838
:10A270007DDB0308F85A0020B0CC0508C45A002042
:10A2800044CC0508C46600208CCC0508645A002024
:10A29000286A002085DB0308C0520020D03000204F
:10A2A000F4600020B94BDFEDBA7AC9F81438012305
:10A2B000B84A0693B84BC9F81C28F0EE679A39EEF5
:10A2C000A77AF5EE006A86EE87AAC9F81838B34C6B
:10A2D000B34B05934FF00008DFEDAD8A9FEDB19AC7
:10A2E00067EEA88A039B43456CDD059B08F1010BD3
:10A2F00013F8017B05935FFA8BF63246384603214B
:10A3000034F0ACF90546002800F0DB84384639F01B
:10A3100011FD606110B10323C6718371A5616A7A72
:10A32000022139F055FD069B002B7CD0B9F834385A
:10A33000286807EE903AF8EEE77AFCEEE77A17EE37
:10A34000907A4BF063FEB0FBF7F303F57F43FF33E6
:10A350001B0CB0FBF3F30493B3FBF7F3DDED047ACE
:10A3600099F83628F8EE677A092A67EEA86A29EE86
:10A37000667AC4ED026AA7EEA97A84ED037A69D001
:10A380000020CDE90000049A9BB2294620462AF01D
:10A3900015FDB8F1000F41D06168804B01E09C428F
:10A3A0003CD05A688A4203F11C03F8D1012383F0A0
:10A3B00001030122BBF1040F23746274D84604F137
:10A3C0001C048FD1DFF8F8B1DFF8F881C8F898BC29
:10A3D0008EE6204639F0E0FE4FEA4A1A01374AF08D
:10A3E00001014FF0030371617060F46086F810B0F2
:10A3F000E771A371204639F00DFD1BF0010F2046D7
:10A400000ED039F049FDF3686B61042F06F1200688
:10A4100005F11C057FF4E4AE634B16E70023C6E7A5
:10A4200039F040FDEFE7B0EE4A0A4FF0E3F9286853
:10A43000B0EE408A4BF0EAFDFCEEC87A4FF6FF73AF
:10A4400017EE902AB0FBF2F21A44120CB0FBF2F2B3
:10A45000049283E701210022CDE900219BB2049AF6
:10A46000294620462AF0AAFC2B68184608EE103A26
:10A470001E464CF009F9079000288AD04B4AD2F8C2
:10A480008832002B85D130464CF012F9484F09959F
:10A490000C2682460894474D01E0BD4221D06B78DE
:10A4A0002878194603350028F7D0002BF5D034F072
:10A4B0007FF804460028F0D000684CF0F9F8824597
:10A4C000EBD16379B342E8D1043E16F0FF06E2D146
:10A4D000089C5EE7082C7FF49BAD374BC9F86C38BD
:10A4E00096E5B246314E089C099DC6F888426B79C4
:10A4F0002268980818EE107A86F8C8020798126841
:10A500000068C6F89422343706F525713E461F448C
:10A510005346F318254E2160C6F88472049EC16A22
:10A520001292192707FB06F7079E244A96F83CC0AB
:10A530001E4EB7FBF2F2891A4FF480770022C6F85C
:10A540008032C6F88C1202234FF40071BCF1010F67
:10A55000CDE91422119216971393179100F03082CF
:10A560000799012281F83D30AAF1040381F83C20CB
:10A57000082B00F21E82DFE813F0AD021C021C0261
:10A580001C02A9021C021C021C02190285DB030822
:10A590006F12833A313E030881DB0308C465002053
:10A5A000015B002000007A44645A0020B863002058
:10A5B000C3660020846600205159040840420F0001
:10A5C000C45A0020D0300020002B3FF478ADD4F8DE
:10A5D0001480B8F1000F3FF472AD404639F0B8FE78
:10A5E000A269CC4B0C92451E242202FB05350A9031
:10A5F00095F88061312E00F0CE8120684CF058F83B
:10A60000C0B2002E7FF45BAD312385F880310A9B08
:10A6100085F88101002B3FF452AD099699F87168D5
:10A620002568BD48CBF82881002E00F05F8200220B
:10A63000034603E00132B24200F0588219688D42AD
:10A6400003F1B803F6D1D6B2B82306FB03038BF8A7
:10A65000B5A0CBF82C3199F87138207903F1FF3A85
:10A6600039F068FB079B93F8AD2C07F00103591CE8
:10A670000AB187F00107490141F00E01CBF8B8108B
:10A68000CBF80840627A39F0A3FB564500F0CE8241
:10A69000089B063B0D930023CBE93F33CBE94133C5
:10A6A000CBE94333CBF814310BF1F80308EE103A41
:10A6B00017F002034FF060020E934FEA4703CBF806
:10A6C000F82003F002034FF0010200F03582CBF8CE
:10A6D0000C31CBF8002100274FF48033CBE947370A
:10A6E0000A220223CBF80471CBF81821CBF82431CD
:10A6F00063790C2B00F20882884A99F8701802EBF3
:10A700008302D2F8E877CBF8E870002900F0E28203
:10A71000DBF82C31C3F8A880CBF82881099B002BEB
:10A7200000F04E820BF1BC000F9008F049FF99F841
:10A7300070380F98002B00F03082794A21684FF46E
:10A74000907303FB0623DBF82C2101F57871C2F826
:10A75000B030CBF8C0300C9BCBF8E030CBF8BC105D
:10A76000089B082B0CBF06231223CBF8DC300023F8
:10A77000CBE932334FF400731022CBF8D4304FF4CE
:10A780000053CBF8C420CBF8E4308022099BCBF8EF
:10A79000D0204FF40062CBF8D820002B00F0E981E4
:10A7A0009DF83430CBF82881022B00F2A8815B4A57
:10A7B00002EB8303089AD3F8DC37082A594AB2FB24
:10A7C000F3F303F12303CBF8F0300CBF5F22132225
:10A7D000DBF82C3158469A804BF07CFF99F87038A2
:10A7E000002B00F07B81099B002B00F0778118EE95
:10A7F000102A3946284608F0B3FC012F00F0A58145
:10A80000042F00F0F281102F00F07082402F00F032
:10A810008282B7F5807F00F08C82B7F5806F00F000
:10A820009082B7F5805F00F09482B7F5804F00F01A
:10A830009882B7F5803F00F09C822B6D43F4006353
:10A840002B6505F1180009233749384AC95C12F80D
:10A8500003C00B58042202FA0CF223EA02030B5045
:10A860002B6843F001032B600E9B002B00F06081EE
:10A870002B6A43EA87072F6256450BD16B6C43F472
:10A8800000436B642B6843F080032B602B6843F01C
:10A8900001032B60079B93F8AD3C002B40F06281D5
:10A8A000049A0599012301328BF80F304B74042A66
:10A8B00001F11C0304920BF59A7B05937FF4B3AB73
:10A8C000DDF81C800B9BC0E4204639F065FC4FEAA4
:10A8D0004A1A4AF00101013771617060F46086F82C
:10A8E00010B087E5DFED127AF0EE679A114A12494F
:10A8F000124BC9F81C18002F1149C9F8141816BFBB
:10A900001346002201220692D9E4DFED0E7AF0EE22
:10A91000679AEBE700000020345B00200CC40508B8
:10A92000C09E012000D0121320CD050814CD0508CB
:10A930006F12033981DB0308313E0308F126030857
:10A9400085DB030828293038ACC5A737ACC5A73646
:10A950006F12833A5FED047A5FED049AC6E75FED0C
:10A96000047AF0EE679AC1E7A44BA54D0B931C4601
:10A970000FCD0FC40FCD0FC499F83E68DFF8A48245
:10A980002A68A04B2260003E18BF012688F8AD6CF3
:10A99000C9F8E437A1E520684BF08AFE95F88131CB
:10A9A00083427FF48CAB0123099337E611A909F0A8
:10A9B0004DF807990122002381F83D2081F83C30B1
:10A9C0002E460FCE18AF0FC796E80F0087E80F008E
:10A9D0008D49DFF854C2C1F800C0002218A8A1F5C3
:10A9E0001F738DF865A04BF0D9FC29680023874AB6
:10A9F00052F83320914200F0738101330C2BF6D1D1
:10AA0000002040B201210490FCF798F804980BF064
:10AA10006FF99DF865200C2A08D8DFE802F0490795
:10AA2000070742070707500707073B00079B1B68FC
:10AA3000186A02F01F0101228A4020EA020018620F
:10AA4000186A734902438B421A6200F08680714A89
:10AA5000934200F0828002F5406293427DD002F57D
:10AA60008062934279D002F58062934275D002F5FC
:10AA70000062934271D09968674A0A40062A3FF4FF
:10AA800088ACB2F5803F3FF484AC1A6842F0010212
:10AA90001A607EE4079B1B68D96841F01001D960F9
:10AAA000C6E7079B1B68D96841F00401D960BFE77E
:10AAB000079B1B68D96841F00201D960B8E7079B82
:10AAC0001B68D96841F00801D960B1E711A909F004
:10AAD0000FF86EE711A909F05DF86AE70A989BF88C
:10AAE000B5304E4990224CF051FC80E6B82202FB72
:10AAF0000692731CC2F8745889F87138A4E58D2346
:10AB0000CBF8F030132263E699F87038CBF8E87090
:10AB1000002B7FF4FDAD1F461946DBF82C21ABF866
:10AB20000C10B2F8B43023EA0103A2F8B430F5E512
:10AB30002B6A1F432F629FE6CBF808314FF48073D6
:10AB4000CBF8FC20CBF81031C5E5AB6943F0080326
:10AB5000AB6105F11800002376E65A6C42F400421E
:10AB60005A6488E72368627934334FF6FF7199504D
:10AB700096E65FFA88F30246A3F1080128F0FF0089
:10AB80001423B1FBF3F1013108F028FDD8F80030AF
:10AB900043F00203C8F8003002E6214A0C9B0499F6
:10ABA000CBF8E030582303FB0123CBF83031CBF84E
:10ABB000C0302368627934331344CBF8BC30CFE51E
:10ABC000D8F800305FFA88F123F001031422C8F8A6
:10ABD000003028F0FF000839B1FBF2F1013108F034
:10ABE0003BFD0A984CF0EEFB9CE5AB6943F0080393
:10ABF000AB6105F11800012326E600BF945A00203E
:10AC000068CC0508FD6705083466002088CB050878
:10AC1000002C01400034014007000100814C050870
:10AC2000C0A70120D0300020F927030800234FF0EF
:10AC3000FF32ADF8603019931B938DF870301A9283
:10AC4000504A52F8332095426DD001330C2BF7D186
:10AC50000020FBF7BFFE2B6823F001032B60089B4D
:10AC600028469A1F0D924BF0D1F99DF8343007EE2B
:10AC7000900A022BF8EE677A40D8434ADFED436A28
:10AC800002EB830303F2DC7292ED007AB8EE477AAE
:10AC900087EE870A30EE260A4EF0D8FE089B013870
:10ACA000082BADF8600014BF13225F22002318A9FF
:10ACB00028461A921B938DF87030199308F01EFCE9
:10ACC000E9E4334A334BC9F81C288346C9F81838DD
:10ACD000FFF77ABB2C4A02EB4303B3F81C181CE7BE
:10ACE000294A02EBC30393F881078AE6AB6943F470
:10ACF0000063AB6105F118000223A5E59FED267AFC
:10AD00009FED220AA7EE870A4EF0A0FE0138ADF8AB
:10AD100060001322CAE7AB6943F00803AB6105F199
:10AD20001800032390E5184A02EBC30393F8800749
:10AD30008FE7EB6943F00803EB6105F1180004238A
:10AD400082E5EB6943F00803EB6105F11800052388
:10AD50007AE5EB6943F40063EB6105F11800062323
:10AD600072E5EB6943F00803EB6105F11800072376
:10AD70006AE52B6D43F008032B6505F118000823E5
:10AD800062E500BF88CB05080CC405080AD7233C40
:10AD9000F527030881DB0308FCF4B234F8B55C4EF8
:10ADA00096F8B70D96F8B85D38F0C4FF60B12B2364
:10ADB000C3802021044639F02DF80A2036F06CFBC0
:10ADC000204639F0DFF920B9524FD7F8F436DA00CF
:10ADD00000D5F8BD013D092DFBD896F8B64D14BB42
:10ADE00040202BF0E7FF0028F3D090F90430717871
:10ADF000092BC8BF143B3B440A2993F8F85693F833
:10AE0000044775D096F8AA3D002B14BF2B46234665
:10AE1000002BDED096F8AB2DD20767D59D4218BF28
:10AE20002C46002CD5D0204638F084FF054608B1CA
:10AE30002B23C3800021284638F0ECFF012128464F
:10AE400039F0B0F80121284638F0E4FF0121084626
:10AE500039F0EEF83C2036F02BFB0021012039F0D0
:10AE6000E7F896F8B83D1BB300240021084639F0F6
:10AE7000DFF80021022039F0DBF80021284639F004
:10AE800091F8782036F008FB0121002039F0D0F845
:10AE90000121022039F0CCF80121284639F082F84E
:10AEA000782036F0F9FA96F8B83D01349C42DCDBA4
:10AEB00096F8B63D93B996F8B73D002B89D196F830
:10AEC000B93D012B85D1D7F8F43613F0805380D1EA
:10AED00086F8B83DBDE8F84046F070BB322036F049
:10AEE000E7FA2846002138F095FFE4E71C469AE788
:10AEF000094BD3F8D8385B057FF56BAF0FF09EFE9A
:10AF000000287FF466AF2B46002B3FF462AF81E749
:10AF1000E00E0020B8630020C8410020484008220D
:10AF2000430010F0800F08BF400083F0D50314BF2A
:10AF3000D8B2C0B2013AF3D1704700BF00F1480364
:10AF4000D0ED024A90ED044A90ED037A90ED055A57
:10AF5000D0ED087AD0ED075A90ED066AE4EE004A8B
:10AF60002430F0EE406AA5EE267A67EEE47AA4EE8D
:10AF7000E57AE6EE267A00ED077A40ED067A984209
:10AF8000B0EE640ADCD1704770B4344890F81C37D6
:10AF9000A3F13001092957D800F21C74224600F2AF
:10AFA0002B7012F8015FA5F13001092904D8824203
:10AFB000F7D1002070BC7047141B022C4ADD2848D2
:10AFC000002101E010F8013B01EB810103EB41039B
:10AFD000161A303B022E044603F0FF01F2DC214B2F
:10AFE00003FB01F1A2424FF000030DD903EB8303F1
:10AFF00014F8016B5B00303B3344A24203F0FF03C3
:10B00000F4D1194800FB03F32E2D06D01748A0FBFE
:10B01000032301EB930070BC70470132042000242D
:10B02000157804EB8404303D6400092D00F1FF30F5
:10B03000A4B202D82C44A4B2013210F0FF00EFD128
:10B04000642202FB0433E1E700211D4600F21C727A
:10B050000B46D9E7064C0021C4E700BFB8630020C7
:10B06000D56A00208096980040420F00ABAAAAAA99
:10B07000D46A002083B50C46164605462BF04CFEDC
:10B0800020462BF049FE0021204B0846002E08BF29
:10B090001E4638F0CDFF0021012038F0C9FF2846B8
:10B0A00036F006FFB0B10121002038F0C1FF28467C
:10B0B00036F0F6FE0746204636F0F6FE0028FAD0B7
:10B0C0003946204637F0C0FA3846B04700210846D6
:10B0D00038F0AEFF204636F0EBFE0028DFD001212D
:10B0E000002038F0A5FF204636F0DAFE014628465B
:10B0F000019136F0D9FE01990028F8D0284637F0A2
:10B10000A3FA0021084638F093FFC8E7A96B0308AB
:10B11000F0B50023C1E90033C1E902330B61D0E986
:10B1200000258DB007AEDFF898E0C2F3056C374616
:10B130004CFA03F0C0073C4604D513F80E0004F89F
:10B14000010B27460133062BF2D11B4CDFF874E0CC
:10B15000C2F303200023205C3B708DF82400C2F36F
:10B16000073C0DF125074CFA03F0C0073C4604D517
:10B1700013F80E0004F8010B27460133082BF2D117
:10B1800000233B70C5F3435CC5F3434409AB084659
:10B19000C5F34F05C2F30351CDE902150193CDE983
:10B1A000044C02F00F0305490096C2F3031245F068
:10B1B000EBF80DB0F0BD00BF60390608383906085D
:10B1C000683906085439060870B5094CD4F82C279C
:10B1D000054662B10026D4F82C072D2101363AF03D
:10B1E0005BF9AE42F7DBBDE870403AF0E7BF70BDF7
:10B1F000B86300202DE9F04385B008B13BF00EF8AC
:10B20000164DDFF85C80002415F8023C009342469E
:10B210002346002101203BF061FADFF848902F46D9
:10B22000002615F8023C9E4207F1040707D30134BB
:10B23000082C05F12605E7D105B0BDE8F08337F904
:10B24000023C029337F9043C4A46CDE900630021F1
:10B25000234601203BF042FA0136E2E7EA6A002089
:10B2600078390608903906082DE9F04FCCB2002154
:10B2700085B007460846164638F0DAFE0021012060
:10B2800038F0D6FE38F060FC022E09D0042E44F6C9
:10B29000C01818BF4FF49648032C06D900200BE0C5
:10B2A000FF2C4FF41648F7D10326C54D95F86038AA
:10B2B0002BB90020C5F8640805B0BDE8F08F032E57
:10B2C00015D0C0490C44002294F84108032133F002
:10B2D000C5F90028EDD0BC4CC4F80C0E037A9A07CF
:10B2E000E7D400684BF0D0F941F21863E05041F226
:10B2F0002F63B54C95F86008E6540022032133F023
:10B30000ADF941F21023E0500028D2D000684BF094
:10B31000BBF941F214634FF48062E050AB4BC4F8C8
:10B32000C83DC4F8D42D0323C4F8D82D04F5B15278
:10B33000A4F8CC3D0023137041F21C624FF0010AC7
:10B3400024F802A041F2286204F56161A35041F2A1
:10B350002C62C4F8DC1DA35241F22E6201F20441BA
:10B36000032EA354C4F8D08DC4F8F43DC4F8E83DCE
:10B37000C4F8E43DC4F8E01DC4F8F03DC4F8EC3D69
:10B3800004F6C8590ED0D4F80CBE9BF8040038F06F
:10B39000D1FCC4F8080E584611F0FBFF5146484650
:10B3A00012F006F8322036F083F8012E0AD141F26D
:10B3B00010234146E058FBF7EDF9D4F80C0EFCF7EA
:10B3C0002FFE0BE0022E3DD1D4F80C0E11F0D5FF6C
:10B3D00041F210234146E058FBF7DCF9C5F86498C8
:10B3E0004FF0060A022E12D0D5F8640836F060FD40
:10B3F00068B10121002038F01BFED5F8640836F052
:10B4000057FD0146002840F0888038F011FE38468C
:10B4100036F04EFD80B10121084638F009FE4FF0AC
:10B42000050B4FF00008384636F042FD0146002873
:10B430007CD1012038F0FCFD042ED5D0052036F05B
:10B4400037F8CFE7032E60D141F230634FF0000AA6
:10B4500004F803A051465E48DFF868B1202250F09E
:10B4600031FE8DF80FA0DFF870A19DF80F30032B8F
:10B470000AD95848012111F09BFF41F2102341469F
:10B48000E058FBF787F9A9E79DF80F30C3EBC3033A
:10B4900005EB830393F81D3283B39DF80F30C3EBA4
:10B4A000C30305EB8303D3F820323BB39DF80F3081
:10B4B0005B4493F8410808B30022032133F0CEF82F
:10B4C0000190D8B111F059FF9DF80F309AF8001093
:10B4D000019AC3EBC30305EB830305EBC100D3F86B
:10B4E0002032C0F86838137ADB0748BF012301F126
:10B4F000010148BF80F86C388AF800109DF80F30C1
:10B500000133DBB28DF80F30AFE7042E7FF466AF66
:10B51000D4F80C0E11F031FF49E7D5F8640836F085
:10B52000BFFC0146384637F08FF866E7384636F0FC
:10B53000B7FC95F8963801468BB9242803D14FF013
:10B54000010385F89638012E04D13846019137F071
:10B550007BF80199D5F8640837F076F863E7012B9A
:10B5600006D14D280CBF0223002385F89638EAE760
:10B57000022B06D13C280CBF0323002385F8963804
:10B58000E1E7032B10D10A2802D985F89688DAE77B
:10B59000042385F8890885F8888885F88B8885F8DC
:10B5A0008A0885F89638CEE7042B17D195F88A38A3
:10B5B00085F89708434085F88A3885F896B8C2E739
:10B5C000B8630020C0520020E00E0020D4CC050853
:10B5D000206C0020A81C002010250020052BB2D1D3
:10B5E00095F8883895F8899895F88A084B4509D2D6
:10B5F0005A1C2B44484085F88A0885F8882883F827
:10B600008C18A0E78842C0D195F8973885F896A89D
:10B61000F42B98D1B9F1000F95D12421384685F843
:10B62000969837F011F84D21384637F00DF83E2145
:10B63000384637F009F84946384637F005F8F4211E
:10B64000384637F001F8F421384636F0FDFF032E76
:10B6500012D0D4F80C5E28464AF062FE49462846CD
:10B660004AF076FE2879202111F076FED4F80C0EEF
:10B670004A4649464AF092FE41F210230022E05821
:10B6800011464AF08BFE012016E600BF38B50F4C7C
:10B6900094F89F1801F03F018B1C024601F10A0546
:10B6A00084F89D3884F89A5804F6980084F89B280A
:10B6B00008311AF0B5F8254485F8960894F89A38B8
:10B6C0001C44000A84F8970838BD00BFB863002006
:10B6D0002DE9F04FCE4CDFF848A393B004F21D33B0
:10B6E00001904FF00009A4F6CB05029354F80B0C1F
:10B6F000002800F0528136F0DBFB0646002800F0FF
:10B700008E82DAF8D03C44F8073CE026002304F8A7
:10B71000033C06FB09F654F80B0C36F0C9FB002875
:10B7200000F03B8154F80B0C36F0BAFB14F8023CE5
:10B730005A1E01460B2A0DD8DFE812F01F003A000E
:10B7400045005200820099003A01740191019C0168
:10B75000C301D90124290CD0019A3AB995F8CE2B0E
:10B760008A4240F0CA81012204F8032C0D2BD2D169
:10B7700084E0012304F8023CCDE700234D29C4F8FE
:10B78000C53084F8CD3084F8CE3004D0582908D0A4
:10B7900004F8023CBFE7022204F8022C84F8C4300B
:10B7A000B9E7032304F8023C022384F8C430B2E76B
:10B7B00004233C2904F8023C0AD03E290CD0002383
:10B7C00004F8023CA7E70A233C2904F8023CF4D120
:10B7D000002304F8013C9EE7012304F8013C9AE7AA
:10B7E000D4F8C500AB190344421CC4F8C52083F843
:10B7F000CB1894F8CD00022A81EA000184F8CD101C
:10B8000089D12378C02BDAD86278FF2A08D1052B9A
:10B81000D5D9012384F8C430072304F8023C7AE721
:10B82000A4F8C12000229342C4F8C93014BF0523F4
:10B83000062384F8C320C4F8C52004F8023C6AE754
:10B84000D4F8C500AB190344421CC4F8C52083F8E2
:10B85000CB1894F8CD00D4F8C93041409A4284F80E
:10B86000CD107FF458AF062304F8023C53E794F858
:10B87000CD308B42A3D10D2304F8023C14F8017C97
:10B88000002F40F0C081634B0A940FCB06AE86E8D0
:10B890000F00D4F8C930D4F8D100ADF83270234489
:10B8A0000B93B4F8C130ADF8303094F8C3308DF854
:10B8B00034304FF0010805AB32460AA98DF83580C7
:10B8C00005972DF091FF002860D0069E94F8C430B3
:10B8D000DFF848B10796102239460EA80393CDF839
