:020000040800F2
:10000000F0FF0120EDD70508E5E20008A15E040835
:1000100065D8050865D8050865D805080000000002
:10002000000000000000000000000000E1E2000805
:10003000DDE2000800000000D9E20008195F0408B2
:1000400065D8050865D8050865D8050865D8050888
:1000500065D8050865D8050825AD0408EDAC040889
:10006000B5AC04087DAC040845AC04089D960508B1
:100070008D9605087D9605086D9605085996050824
:10008000459605083196050865D80508000000006A
:100090000000000000000000000000000DAC04089B
:1000A0006DE10308B9E103085DE10308DDE1030840
:1000B000ADE103089DE103088DE103085DC8050873
:1000C00065C8050851C8050859C8050865D8050858
:1000D00065D80508C59D04080D9D040800000000B2
:1000E000D5AB040865D805083120010800000000E0
:1000F0000000000000000000000000001D96050840
:100100000000000065D805087DE1030865D80508F2
:1001100000000000000000000000000000000000DF
:1001200009960508F5950508E1950508CD9505089A
:10013000B995050800000000000000000000000064
:1001400000000000000000000000000001020108A3
:10015000A5950508919505087D950508559C040809
:1001600045C805084DC80508000000000000000053
:10017000000000000000000000000000000000007F
:100180000000000065D80508000000000000000025
:0801900065D8050865D80508D3
:080198004CD30500010000003A
:08280000082800080040000850
:04400000FFFFFFFFC0
:108000002DE9F04700230F6801264FF0030C02E032
:108010000133102B41D006FA03F232EA0704F7D1FC
:10802000D0F800E05C000CFA04F52EEA050EC0F86A
:1080300000E091F80490D0F800A009FA04FE09F1DC
:10804000FF394EEA0A0EB9F1010FA846C0F800E068
:108050006FEA050515D8D0F808E005EA0E05856039
:108060004D79D0F808E0A54045EA0E0585604568E1
:1080700025EA020242608A7945689A4092B22A4310
:108080004260C26822EA0802C260CA79C568A2409A
:1080900001332A43102BC260BDD1BDE8F08700BF79
:1080A000036870B55E6A26B133461522BDE870409C
:1080B000184704460D4601F1150600E023689B6849
:1080C000204698470028F9D0236815F8011B1B6843
:1080D00020469847B542F1D170BD00BF074AD2E9AA
:1080E0000031994208D0D1180133097A0170C3F3E5
:1080F0000A0313600120704700207047702700209A
:10810000044BD3E90030C01AC0F30A00C0F5006088
:10811000704700BF70270020012380F8513070475E
:1081200007B501A8FFF7DAFF0028FAD09DF8040090
:1081300003B05DF804FB034BD3E90030C01AC0F371
:108140000A0070477027002001207047024BC3F8D7
:108150000828C3F80C18704770270020024BC3F89A
:108160001028C3F814187047702700207047704714
:1081700030B4104DD5E900239A1AC2F30A020A441A
:10818000B2F5006F11D899B101444A1E013810F8B8
:10819000014FE918824203F101030C72C3F30A0391
:1081A000F5D16B60002030BC7047022030BC7047B6
:1081B0000846F8E770270020212838B50C4605D07E
:1081C00022282ED0202813D0002038BD0029FBD033
:1081D000072AF9D11A4BD3F8180893F81C1893F80A
:1081E0001D2893F81E38206021716271A371EBE79E
:1081F0000029E9D0072AE7D1114DD5F80C381BB179
:108200000968D5F808089847206821796279A37928
:10821000C5F8180885F81C1885F81D2885F81E383B
:10822000D2E70029D0D0022ACED1054AD2F814389C
:10823000002BC9D00988D2F810089847C4E700BFBE
:1082400070270020024B0020C3F82008704700BFB1
:1082500070270020044B00200522C3F82028C3F813
:108260001408C3F80C08704770270020704700BF3F
:10827000704700BF704700BF704700BF704700BF26
:10828000704700BF704700BF042301480B80704750
:108290009801002010B4074A074B92F824081224D2
:1082A00003F114020C8001280CBF184610465DF83B
:1082B000044B7047702700209C01002010B40C4A2A
:1082C00092F8283802EBC3010133DBB2042B4FF0E4
:1082D000050408BF00234FF4045081F82C4882F8AD
:1082E0002838C1F830085DF8044B4FF0FF30704774
:1082F00070270020202301480B807047C401002014
:10830000642301480B807047E401002043230148A7
:108310000B8070474802002010B5084CD4F8F400D8
:10832000FF2809D00649D1F84C2801F50561FFF76F
:1083300043FFFF23C4F8F430002010BD9801002053
:1083400070270020E8E700BF08B5D0F8E4355B6A85
:108350009847002008BD00BF08B5D0F8E4351B6A77
:108360009847002008BD00BFD0F8E43510B504469A
:108370001B689847D4F8E8359B689847002010BDE3
:1083800008B5D0F8E435DB6903B19847002008BD93
:1083900008B5042290F81211D0F8E83580F81311CE
:1083A00080F81221DB689847002008BD10B5D0F88E
:1083B000E83504461B699847032384F812310020EE
:1083C00010BD00BF0B0617D401EB810300EBC30304
:1083D00010B400EB81000124002283F8764383F877
:1083E000741383F87523426D5DF8044B136843F4EE
:1083F000001300201360704701F07F0101EB81033F
:1084000000EBC303012200EB810083F81C1183F809
:108410001E2183F81D2182691368002B01DA43F0C5
:10842000804343F400131360002070470B0630B400
:108430001CD401EB810200EBC202002300EB81059A
:1084400082F8741382F8753301241A4604FA01F194
:108450006D6D61F31F4201696FF3CF332B60CB6900
:1084600023EA0203002030BCCB61704701F07F019A
:1084700001EB810400EBC404012200EB8105002321
:1084800084F81C1184F81D2102FA01F11A46AD6925
:1084900061F30F02DFE700BF10B581210446FFF74B
:1084A000C5FF20460121FFF7C1FF024B002083F8E2
:1084B000580810BD7027002010B581210446FFF731
:1084C000B5FF20460121FFF7B1FF82212046FFF7CB
:1084D000ADFFFFF7B7FE002010BD00BF38B50D4659
:1084E00004468321FFF7A2FF29462046FFF7E4FF59
:1084F000002038BDF0B416460A063AD401EB8105D7
:1085000000EBC5052824002204FB0104022B85F89A
:108510007413C5F87C6385F8773385F8752304F503
:108520005D7448D0154600EB8107012202FA01F183
:108530007F6D61F31F45D7F800C01CF4004F11D1C7
:10854000E488204946F0805242F4004242EA8342E5
:1085500004F00F041C4B42EA845211400CEA03035E
:10856000194339600269D3692B430020F0BCD36101
:10857000704701F07F0101EB810500EBC505282460
:10858000012204FB0104022B85F81C11C5F82461AB
:1085900085F81F31A5F8221185F81D2104F58E7488
:1085A0000CD0002500EB8107012202FA01F1BF691E
:1085B00061F30F05BFE722711546B4E70025257169
:1085C000F0E700BFFF87CC13007833EC002310B531
:1085D000194604464022FFF78DFF802120460023E4
:1085E0004022FFF787FFD4F8E835A078012284F80D
:1085F00012215B689847002010BD00BF82B00023A5
:10860000016801930B6901930E4B03E00A69019223
:10861000013B13D0019A002AF8DA019A094B42F083
:1086200001020192019A0A610A69019203E00A6952
:108630000192013B02D0019AD207F8D4002002B087
:10864000704700BF400D0300436D064A1A61C278AF
:10865000012A06D100F2CC5058614FF080221968EF
:108660001A6070471800086010B580210446FFF7B3
:10867000A9FE20460021FFF7A5FE2046BDE81040D8
:10868000E2E700BF70B44B78012B26D00B784A6923
:1086900000EB83035D6D2C682B69D2B18A684A6157
:1086A00002F07F0223F4002323F07F0342F4002230
:1086B00013432B61C378012B04BF0B696B61C4F3B7
:1086C000076363F07B0363F31F642C60002070BCBE
:1086D00070478A6802F07F02E4E782694D69146896
:1086E000136945B38E68B5428CBF06F07F0505F06F
:1086F0007F0523F4002323F07F0345F4002543EA9C
:10870000050388BF4E611361C378012B1DD0C4F3EC
:10871000076565F07B0565F31F641460002BD5D1F8
:108720004B69002BD2D002690878516B012383403A
:108730000B435363CAE723F4002323F07F0343F47E
:1087400000231361C378012BE1D10B780D6900EB95
:108750008300C4F30763816963F07B0363F31F64E1
:108760004D610020146070BC704700BF2DE9F043DC
:108770004B78012B30D00B784C6900EB83035E6D96
:10878000356837691CB38B681C44013CB4FBF3F4B7
:10879000C4F3090203FB02F3C3F312034B61144653
:1087A00043EAC44363F31C073761C378012B04BF5A
:1087B0000B697361CB78012B44D0C5F3076363F079
:1087C0007B0363F31F6535600020BDE8F0838A6892
:1087D0000124C2F31203E3E791F800804E6900EB35
:1087E000880EDEF818C0DCF80050DCF8107076B3A4
:1087F000D1F80890384A06EB0904013CB4FBF9F4BF
:1088000002EAC444C6F312022243CC7807F0604760
:108810003A43012C174649D0CCF81020C278012ADF
:1088200055D00269516B03FA08F30B435363C5F348
:10883000076363F07B0363F31F65CCF800500020EF
:10884000BDE8F0834B7973B345F00055B5E707F009
:10885000604747F40027CC78CCF81070C378012B20
:108860002FD0012CE3D102699268D20554BF45F0A4
:10887000005545F08055C5F3076262F07B0262F354
:108880001F65CCF80050002B9ED1B0B20330801091
:10889000DEF8D04098D0CA6852F8041B216001333A
:1088A0009842F9D190E745F0805586E764F35E770A
:1088B000CCF81070C378012BD5D10A69CCF81420FC
:1088C000D1E70A69CCF81420012CB0D1CBE70B69B1
:1088D000CCF81430ABE700BF0000F81F38B501EB4F
:1088E000810400EBC4040D46002184F87453C4F8DD
:1088F0008C1384F87513C4F88833C4F88023C378C4
:108900002821012B01FB050108BFEDB201F55D71C6
:1089100008BFC4F884231DB9FFF7B4FE002038BD9A
:10892000FFF724FF002038BD70B5104BD3F8642842
:1089300093F87C5804461AB193F868382B430DD04D
:1089400081212046FFF73EFD022D00D070BD20465C
:10895000074ABDE870401F230121BFE70121FFF74F
:1089600031FD20468121BDE870402BE570270020B5
:10897000CC2F002010B501EB8101084A00EBC101AA
:108980000446B1F88C131046FFF7F2FB034A204669
:1089900040230121FFF7A2FF002010BDF02F00208F
:1089A000E8E700BF10B50223044640228121FFF70B
:1089B000A1FD2046022340220121FFF79BFD8221D9
:1089C000204603230822FFF795FD064B02229A83D7
:1089D000FFF740FC044A204640230121FFF77EFFB9
:1089E000002010BD98010020F02F002038B509228A
:1089F0000D46044603238321FFF77CFD29462046CC
:108A0000FFF7D0FF002038BD82B000230193019A08
:108A1000094B42F010020192C168019A0A610A6989
:108A2000019203E00A690192013B02D0019AD20649
:108A3000F8D4002002B07047400D030082B000233C
:108A40000193019A0B4B42F020020192019A61F3CB
:108A50008A120192C168019A0A610A69019203E0CF
:108A60000A690192013B02D0019A9206F8D40020D3
:108A700002B07047400D030070B50446144EFFF776
:108A80000BFD2046022340228121FFF733FD4022C7
:108A9000012120460223FFF72DFDD6F8C03800251E
:108AA0001B6886F85858284686F87C589847204610
:108AB000FFF7AAFF20460121FFF7C0FF204606F678
:108AC0005C021F230121FFF709FF284670BD00BF8C
:108AD000702700200E4BDA68D20310D4DA68D10672
:108AE0000FD4DA68D20510D4DA6812F0E00F0AD198
:108AF000DB6813F0020F14BF082009207047012023
:108B0000704706207047072070470220704700BF5B
:108B1000003C0240064BFF2283F8C42883F8F0286B
:108B200083F81C2983F8482983F87429704700BF0B
:108B30007027002070B5144C94F8A039002BFBD19D
:108B4000F9B101444E1E451E02E001203DF008F936
:108B5000D4F8A439D4F8A8290133C3F30A03934203
:108B6000F3D0D4F8A429D4F8A43915F8011F22446D
:108B70000133C3F30A03B54282F8AC19C4F8A4392F
:108B8000E6D1002070BD00BF702700200A4B0846C8
:108B9000D3F8201810B569B1D3F82038052B09D1C6
:108BA000064C002AD4F8B43004DD1146FFF7C2FFAA
:108BB000D4F8B43010BD00BF702700206838002002
:108BC00010B590F85010002380F8503089B10C4C4B
:108BD000D4F820287AB1D4F82028052A0DD1094CE0
:108BE0003C30D4F8B430FFF7A5FFD4F8B4300120FE
:108BF00010BD0120FCE71046FAE71846F8E700BF71
:108C00007027002068380020002280F85120D7E724
:108C100090F85020531C0244DBB280F8503082F8A8
:108C20003C1090F851200AB1132B00D9C8E77047C7
:108C30002DE9F04FDFF82C93C04F4D4606460FCD7F
:108C400007F1B8042DED048B0FC40FCD0FC48DB008
:108C500097F8EA302A682260049697F8F0200A2BE9
:108C60000CD8DFE813F0F6010B006A02F1010B00EB
:108C70000B000B000B000B000B00EC01DFEDB07ADA
:108C8000F0EE678A002AAF49AF4AC7F8C820AF485C
:108C9000AF4BC7F8D0000EBF002201220B46059251
:108CA00037EEA87AF5EE006AC6EE879AA94DC7F8A6
:108CB000CC304FF00008A5F1230305F1700BAA4654
:108CC000019345469FEDA48A9FEDA49A27EE888ADA
:108CD000049BAB4240F39281019B13F8014B01933B
:108CE000002C00F0D181002302E0152B00F0CC8194
:108CF00003EB43024FEA43081BF80210A14203F1C1
:108D00000103F2D13A4492F88911002900F013824C
:108D1000204635F0BDFC0646304635F0D9FC0078DB
:108D2000002840F0B18107EB080305F101085FFA64
:108D300088F2032183F8C92183F8C811002E00F0BE
:108D4000A3812309013B042B04F00F0C00F2CF8117
:108D500009EB4300808C40FA0CF414F0010400F09D
:108D6000E581012404FA0CFC0CF1FF3C0CEA000044
:108D7000CDE9023254F082FB029BDFF8ECC1039A8A
:108D8000CAF818604B44032193F8303018440CEBB8
:108D9000C003CAF814309971DA715CF83000727A45
:108DA00000F13F4101F57E0109EB912191F8381066
:108DB00001F01F0C4909032904FA0CF400F0AC81FE
:108DC000042900F0A281022900F097819C88B4FA5E
:108DD00084F3C3F11F03C3F3CC0100EB810103F063
:108DE0000703D1F820C09B004FF00F0E0EFA03FED0
:108DF0002CEA0E0CC1F820C0D1F820C002FA03F30F
:108E000043EA0C0307AA0B62114602230292CDE942
:108E10000743FFF7F5F8029A059B002B00F03E810F
:108E2000B7F8E830D7F874C4346807EE903AF8EE33
:108E3000E77AFCEEE77A17EE900ABCFBF0F303F555
:108E40007F43FF331B0CBCFBF3F3B3FBF0F00138A3
:108E50001FFA80FE07EE903ABCFBF3F3B8EE677A98
:108E60002188DFF808C167EE087A013BCAED027A73
:108E700069EE677A6445E7EE287A9BB289B2CAED5B
:108E8000037A00F0F4803648844200F0F080B4F1B8
:108E9000804F00F0EC80ACF57C4C644500F0E7803E
:108EA0000CF5806C644500F0E2800CF5806C644544
:108EB00000F0DD80DFF8B8C0644500F0E0800CF51C
:108EC000806C644500F0DB8021F440710CF56C4C43
:108ED00089B264452180C4F82CE0238540F00281EA
:108EE000002323864FF0010CA4F814C0337A717963
:108EF0000020CDE909004FF0600EADF820000B9086
:108F00009807CDF81CE040F1E180DB0003F0080396
:108F10000420ADF82A30ADF820002046029134F04C
:108F2000B1FF02990C292DD8DFE801F0802C2C2C00
:108F3000772C2C2C6E2C2C2C240000BF68380020A1
:108F40006F120339B5690408B9690408B5FA020853
:108F5000BDED0208803900206F12833A00007A4488
:108F600000040140340406085C3A0020000001407F
:108F700000100040A38B23F400631B041B0C43F47C
:108F80000063A3833368B3F844206FEA42426FEA78
:108F9000524292B2A3F844201A88194692B242F083
:108FA000010221F8342B7079CAF804300C18002221
:108FB000CAF800400A50002D00F0B680D7F81C1106
:108FC0008B4200F0B680012D00F0AE80D7F838114A
:108FD0008B4200F0AE80032D40F0A680D7F85421DC
:108FE000D31A18BF012345460122042D8AF81030F8
:108FF0008AF811200AF11C0A7FF46AAE51480DB0BC
:10900000BDEC048BBDE8F08FA38B23F008031B0499
:109010001B0C43F00803A383B4E7238B23F4006302
:109020001B041B0C43F400632383ABE7238B23F067
:1090300008031B041B0C43F008032383A2E7DFEDA6
:10904000427AF0EE678A1DE6DFED407ADFED408A76
:1090500018E6404BDFED3C7A3F4AC7F8C8300123A1
:109060000593C7F8D0203D4BF0EE678A18E6DFF88D
:1090700000C121F07001644589B27FF420AF2180E6
:10908000C4F82CE023852DE7354A344B0020C7E98E
:1090900033320DB0BDEC048BBDE8F08FB0EE690A41
:1090A000029254F0E7FBFCEEC07AD7F874C434683F
:1090B000029A17EE903ABCFBF3F303F57F43FF33BC
:1090C0001B0C4FF6FE7EBCFBF3F3C3E65B0003F024
:1090D00002034FF48070ADF82830ADF81EC0ADF833
:1090E0002C001AE71F4B9C423FF4FAAEFAE6CAF88E
:1090F0001400CAF8186007AA8EE6DFF86CE0DEF804
:1091000044100C43CEF8444060E61749D1F830C013
:1091100044EA0C040C6359E6DFF84CE0DEF840103A
:109120000C43CEF8404051E601235CE7CAF81440F6
:10913000DFE7134657E70E46EEE5DFED0C7AF0EE7B
:10914000678A9FE5203900206F12833AACC5A737A4
:10915000ACC5A736B9690408B5FA0208B5690408B0
:10916000D9F10208000401400038024028293038B3
:1091700000100040F8B5214C1D270E46054684F826
:1091800078741EF06BFE00201EF00AFE08201EF010
:1091900007FE0E201EF004FE38461EF001FE0420DD
:1091A0001EF0FEFD04201EF0FBFD00201EF0F8FD69
:1091B00030201EF0F5FD00201EF0F2FD30461EF0BE
:1091C000EFFD00201EF0ECFD1EF032FE04F27940AF
:1091D0001EF04EFD234670B194F8792462B994F8DC
:1091E0007A24302A00D03AB993F87B2422B993F834
:1091F0007C342B700120F8BD0120FCE7683800208A
:1092000000F01F0240090123032803FA02F304D0EF
:1092100004280CD0022805D07047074A116C0B4374
:1092200013647047044A516C0B4353647047024AFD
:10923000116B0B43136370470038024000487047BE
:10924000BC3A00202DE9F041324C94F88F341BB920
:1092500000273846BDE8F08194F88E1404F59D602F
:1092600042F0EEF807460028F2D094F88F0440F060
:1092700019FF94F88C34C4F8F0040133DBB210B158
:109280002422C3718271092141F068FAD4F8F004F4
:1092900041F030FC94F89004D8B9D4F8B430632B82
:1092A000FBD91D481D4E1E4DDFF8788042F000F9B5
:1092B000A4F8EC0402E056F8045FF5B14046A84774
:1092C00003460028F7D0174884F8B43542F0B4FAC2
:1092D000BFE740F0E7FE94F88C34C4F88005013312
:1092E000DBB210B15822C3718271092141F036FA04
:1092F000D4F8800541F0FEFBCFE794F88F0441F0ED
:1093000023FF94F890040028A2D041F01DFF2F46BF
:109310009FE700BF6838002040420F007404060831
:1093200011280508503D00200E4B30B4DB68427810
:1093300001780D4CDB43C3F30223C3F10403DBB21A
:1093400002FA03F360181B0101F01F05012249090D
:1093500003F0F003AA4080F8003344F8212030BC29
:10936000704700BF00ED00E000E100E030B50368A9
:109370005A4D5B4C1A88D5F87404B0FBF1F0A34247
:1093800000F1FF3083B080B292B211D055498B42C8
:109390000ED0B3F1804F0BD0A1F580318B4207D0B6
:1093A00001F580618B4203D001F580618B4202D1CF
:1093B00022F0700292B24C498B4268D001F5806174
:1093C0008B4243D022F4407201F56C4192B24FF6C9
:1093D000FF748B421A80DC62188564D100221A86E1
:1093E00001229A821A883E4992B242F001028B42CF
:1093F0001A8063D0B3F1804F62D03C4A934261D06F
:1094000002F5806293425FD002F5806293425DD0A4
:1094100002F5806293425BD002F58062934259D09C
:1094200002F59632934257D002F58062934213D0F0
:1094300002F58062934208BF09220ED04FF001234B
:1094400001A80193FFF770FF03B030BD4FF6FF7125
:109450001A80D9621885C3E70822254B03EBC203A3
:1094600001A893F85D408DF8044001224FF4807309
:109470008DF80520ADF80630FFF756FF1B2CE3D121
:109480001C4B019301A8FFF74FFF03B030BD012132
:109490004FF6FF741A80DC62188599821A8892B29E
:1094A0000A431A80A9E70F4A934297D001229A8271
:1094B0001A8892B242F001021A809BE70022CCE7A0
:1094C0000122CAE70222C8E70322C6E70422C4E752
:1094D0000522C2E70622C0E70722BEE7683800205F
:1094E0000000014000040140001000400004004062
:1094F0003404060819010001002877D0F0B58388EC
:10950000B3FA83F3202B83B00446C3F11F0258D073
:10951000374D384E15444FF0004006EB820230FACA
:1095200003F395F8A850C2F8AC1A05D0324A116876
:1095300021EA0301116053612046002141F00EF938
:10954000A38822682C49B3FA83F7C7F11F0404F0FB
:10955000FC0000F1804000F59C3004F00304A400FE
:1095600002F13F434FF00F0C82680CFA04FC22EA30
:109570000C02826003F57E038268C3F38723A34055
:10958000134383600A681D484FF00043FB4022EA02
:1095900003020A604A6822EA03024A600A681A4320
:1095A0000A608A6822EA03028A60CA6822EA030221
:1095B000CA6002682E441343036096F8EC3AF02B1D
:1095C00001D803B0F0BD0E4B5B5D8DF80430F02187
:1095D00003224FF4807301A886F8EC1A8DF8052059
:1095E000ADF80630FFF7A0FE03B0F0BD704700BF36
:1095F0003404060868380020003C0140083C014063
:10960000A860060800285FD00368374A2DE9F041BA
:1096100003F13F4404F57E0402EB9422012492F806
:10962000382002F01F055209032A04FA05F456D027
:10963000042A4FD0022A48D08588B5FA85F0C0F1B7
:109640001F00C0F3CC0603EB860600F00700820083
:109650000F24306A944020EA04003062306A01FA34
:1096600002F20243002132624FF0010E0A464FF02F
:10967000030C02270EFA02F838EA050002F1010293
:109680001CD118680CFA01F420EA0400186018686C
:1096900007FA01F606431E609E6826EA04069E60ED
:1096A00098689860586820EA0800586058685860C0
:1096B000D86820EA0400D860D868D860102A01F180
:1096C0000201D7D1BDE8F0817047084A556C2C43A0
:1096D0005464B1E7054A156B2C431463ACE7034AA5
:1096E000156C2C431464A7E73404060800380240C4
:1096F0002DE9F84FC94C94F8F31A0546C1F340011F
:10970000D4F8F80A41F0FCF994F8F31AD4F8F40A02
:10971000C94301F0010141F0F3F9002D00F0EC80A4
:1097200005F1FF38BE4D5FFA88F80127D4F8F83A02
:1097300033B11A689B8851690B4214BF538313835A
:10974000D4F8F43A33B11A689B8851690B4214BFBC
:1097500053831383B4F8003B002B40F0658194F8E9
:10976000021BD4F8040B41F0CBF9DFF8B8C2FA20A1
:109770004FF0100E4FF47A71DCF80430C3F3080395
:10978000002B40F01E81EFF31183002B40F0198174
:10979000D4F8B420D5F80890D4F8B4309A42F7D170
:1097A000D4F8303B9945F3D8D4F82C6B01FB06F381
:1097B000A3EB0903B3FBF6F301FB0232DCF8043040
:1097C000C3F30803002B40F0BA80EFF31183002BA2
:1097D00040F0B580D4F8B430D5F808B0D4F8B4600F
:1097E000B342F7D1D4F8306BB345F3D8D4F82C6B2F
:1097F00001FB06F9A9EB0B09B9FBF6F901FB039391
:109800009B1AB3F57A7FD9D30138B5D1D4F8F83A99
:1098100033B11A689B8851690B4214BF5383138379
:10982000D4F8F43A33B11A689B8851690B4214BFDB
:1098300053831383B4F8003B002B40F0E38094F88B
:10984000021BD4F8040B81F0010141F059F9DFF853
:10985000D4C1FA204FF0100E4FF47A71DCF80430C6
:10986000C3F30803002B40F08B80EFF31183002B30
:1098700040F08680D4F8B420D5F80890D4F8B430FD
:109880009A42F7D1D4F8303B9945F3D8D4F82C6BF1
:1098900001FB06F3A3EB0903B3FBF6F301FB023272
:1098A000DCF80430C3F3080343BBEFF311832BBB95
:1098B000D4F8B430D5F808B0D4F8B460B342F7D1D6
:1098C000D4F8306BB345F3D8D4F82C6B01FB06F910
:1098D000A9EB0B09B9FBF6F901FB03939B1AB3F54E
:1098E0007A7FDDD30138B9D108F1FF385FFA88F803
:1098F000B8F1FF0F7FF41AAFBDE8F88FEFF3118ACC
:109900008EF31288D5F808B02B68DB0344BFC4F887
:10991000287BD5F808B0D4F8B430D4F8289B5FFA87
:109920008AFA8AF31188D4F82C6B4B4401FB06F9B0
:10993000A9EB0B09B9FBF6F901FB0393CEE7EFF3B3
:10994000118A8EF31288D5F808B02B68DE0344BF65
:10995000C4F8287BD5F808B0D4F8B430D4F8289BE4
:109960005FFA8AFA8AF31188D4F82C6B4B4401FB16
:1099700006F9A9EB0B09B9FBF6F901FB03933FE7E5
:10998000EFF311898EF31288D5F808A02B68DA035B
:1099900044BFC4F8287BD5F808A0D4F8B430D4F874
:1099A000282B5FFA89F989F31188D4F82C6B1A44B3
:1099B00001FB06F3A3EB0A03B3FBF6F301FB023250
:1099C0006EE7EFF311898EF31288D5F808A02B68A3
:1099D000DB0344BFC4F8287BD5F808A0D4F8B43022
:1099E000D4F8282B5FFA89F989F31188D4F82C6B05
:1099F0001A4401FB06F3A3EB0A03B3FBF6F301FBE6
:109A00000232DBE6D4F81C3B002B3FF420AFD4F845
:109A1000082B0023136084F8193B18E768380020EE
:109A200010E000E000ED00E0D4F81C3B002B3FF418
:109A30009CAED4F8082BB4F8243B0449B1FBF3F3F3
:109A40005B10136084F8197B8FE600BF40420F0063
:109A50002DE9F84FCE4CCF4D94F8F31AD4F8F80A0C
:109A6000C1F3400141F04CF894F8F31AD4F8F40A29
:109A7000C94301F0010141F043F84FF00508012707
:109A8000D4F8F83A33B11A689B8851690B4214BF75
:109A900053831383D4F8F43A33B11A689B8851691D
:109AA0000B4214BF53831383B4F8003B002B40F0E8
:109AB0005D8194F8021BD4F8040B41F021F8DFF823
:109AC000DCC232204FF0100E4FF47A71DCF8043013
:109AD000C3F30803002B40F01C81EFF31183002B2C
:109AE00040F01781D4F8B420D5F80890D4F8B430F9
:109AF0009A42F7D1D4F8303B9945F3D8D4F82C6B7F
:109B000001FB06F3A3EB0903B3FBF6F301FB0232FF
:109B1000DCF80430C3F30803002B40F0B880EFF307
:109B20001183002B40F0B380D4F8B430D5F808B0DE
:109B3000D4F8B460B342F7D1D4F8306BB345F3D85E
:109B4000D4F82C6B01FB06F9A9EB0B09B9FBF6F96C
:109B500001FB03939B1AB3F57A7FD9D30138B5D1B2
:109B6000D4F8F83A33B11A689B8851690B4214BF94
:109B700053831383D4F8F43A33B11A689B8851693C
:109B80000B4214BF53831383B4F8003B002B40F007
:109B9000E18094F8021BD4F8040B81F0010140F03D
:109BA000AFFFDFF8F8C132204FF0100E4FF47A719A
:109BB000DCF80430C3F30803002B40F08980EFF396
:109BC0001183002B40F08480D4F8B420D5F808909D
:109BD000D4F8B4309A42F7D1D4F8303B9945F3D851
:109BE000D4F82C6B01FB06F3A3EB0903B3FBF6F3EC
:109BF00001FB0232DCF80430C3F3080333BBEFF39C
:109C000011831BBBD4F8B430D5F808B0D4F8B460D5
:109C1000B342F7D1D4F8306BB345F3D8D4F82C6BFA
:109C200001FB06F9A9EB0B09B9FBF6F901FB03935C
:109C30009B1AB3F57A7FDDD30138B9D108F1FF382B
:109C400018F0FF087FF41CAFBDE8F88FEFF3118A1E
:109C50008EF31288D5F808B02B68DB0344BFC4F834
:109C6000287BD5F808B0D4F8B430D4F8289B5FFA34
:109C70008AFA8AF31188D4F82C6B4B4401FB06F95D
:109C8000A9EB0B09B9FBF6F901FB0393D0E7EFF35E
:109C9000118A8EF31288D5F808B02B68DE0344BF12
:109CA000C4F8287BD5F808B0D4F8B430D4F8289B91
:109CB0005FFA8AFA8AF31188D4F82C6B4B4401FBC3
:109CC00006F9A9EB0B09B9FBF6F901FB039341E790
:109CD000EFF311898EF31288D5F808A02B68DA0308
:109CE00044BFC4F8287BD5F808A0D4F8B430D4F821
:109CF000282B5FFA89F989F31188D4F82C6B1A4460
:109D000001FB06F3A3EB0A03B3FBF6F301FB0232FC
:109D100070E7EFF311898EF31288D5F808A02B684D
:109D2000DB0344BFC4F8287BD5F808A0D4F8B430CE
:109D3000D4F8282B5FFA89F989F31188D4F82C6BB1
:109D40001A4401FB06F3A3EB0A03B3FBF6F301FB92
:109D50000232DDE6D4F81C3B002B3FF422AFD4F8EE
:109D6000082B0023136084F8193B1AE7D4F81C3B36
:109D7000002B3FF4A4AED4F8082BB4F8243B0649DA
:109D8000B1FBF3F35B10136084F8197B97E600BF17
:109D90006838002010E000E040420F0000ED00E0D5
:109DA000B0B10C49D1F8343B102B03D10521002070
:109DB00034F0C0BE03EB43020A4482F8380B202083
:109DC00082F8390B0120034482F83A0BC1F8343B86
:109DD000704700BF68380020F0B53E4CD4F8E82446
:109DE0001378012B95B006D0022B01D1136AE3B191
:109DF000002015B0F0BD92F904506A1CF8D0022D75
:109E0000F6DC0DF10E06024694F8EC140096284696
:109E100052F01AFB0028EBD0284652F0C5FB002870
:109E2000E6D09DF80E0015B0F0BD60F07F00012176
:109E30000DF10F058DF80F0000260DF10E00002723
:109E4000CDE90833CDE90E6705938DF81C300D93ED
:109E500010931293049506910B918DF830108DF8A4
:109E600044100A90EFF31180102383F31288D4F882
:109E7000E8341B6A0BB3069B04AD29461BB1CB69C2
:109E80001431002BFBD1136A0BB39A683AB98B4299
:109E90000AD01A682AB15B689A68002AF7D014338E
:109EA000F3E70D4AC3E90025C0B280F31188D4F866
:109EB000E824136A002BFCD1B3E704ABC0B21362F1
:109EC00080F3118804F59D604FF0A2FCEFE7024A91
:109ED0001A60FFDE68380020503D00202DE9F84F61
:109EE0002E4F00EB800407EBC404D4F86C6B2EB14A
:109EF000054694F8810B00F0FF0820B14FF00008F0
:109F00004046BDE8F88F89469A4693463BF040FDAF
:109F10004FEA49010123C9B284F8821B84F883BB4C
:109F200084F8853B84F8868B84F8843B84F8813BF5
:109F300084F8808BB288C4F888AB91058146C4F858
:109F40008CAB1DD43388DA0510D442F20F7405E0CF
:109F50003BF01EFDA0EB0903A34215DC33889B05F3
:109F6000F6D433889BB243F480733380B3889BB2BA
:109F700043F440734FF00108B3804046BDE8F88FCA
:109F800098464046BDE8F88FB7F8E03B01339BB2F6
:109F90002846A7F8E03B52F0B5F8B1E76838002052
:109FA0000128B5EEC00A10D0F1EE10FA0BDD9FEDDE
:109FB000177ADFED177AE0EE077AFCEEE77A17EE14
:109FC000903A98B2704700207047F1EE10FA0BDD1E
:109FD0009FED107ADFED107AE0EE077AFCEEE77A7B
:109FE00017EE903A98B27047EDD5F7EE007A30EE62
:109FF000270A9FED0A7ADFED0A7AE0EE077AFCEE97
:10A00000E77A17EE903A98B2704700BF00E0F94443
:10A010000000404200C079440000834400C079C47D
:10A0200000E0824470B5464E96F8E24B04EB8403A0
:10A0300006EB8303A50093F8E43B032B6ED8DFE81F
:10A0400003F059291E02254406EB8505D5F8E80BD7
:10A05000002870D196F8343C9C425FD0013404F063
:10A060000302934286F8E22B58D002EB820406EBFF
:10A0700084040223C4F8E80B84F8E43B70BD2B1978
:10A0800006EB8303D3F8E82B72B1013AC3F8E82B4F
:10A09000002070BD2B1906EB8303D3F8E82B002AB0
:10A0A000F3D1022283F8E42B254406EB850595F8CD
:10A0B000F03B013BDBB285F8F03B8BBB214B96F8C4
:10A0C000346CD3F8F810D5F8EC0B621C02F00302E4
:10A0D0004B1E0324B242034485F8E44BB3FBF1F07A
:10A0E000C5F8E80B1AD0994218D80138C5F8E80B22
:10A0F000012070BD41F0E2FC80B1124B2C44D3F83A
:10A10000F82006EB8404012102F51C5384F8E41BBB
:10A110000F33B3FBF2F3C4F8E83B70BD012070BD10
:10A12000084BD3F8F820012002F2E733B3FBF2F337
:10A13000C5F8E83B70BD0138C5F8E80B002070BDDC
:10A14000683800209801002070B5214DD5F8383CC2
:10A1500093F82620DAB11B699847E0B1D5F8383C6E
:10A1600093F824208AB105F63C4600241A19E0B27F
:10A170009B6992F82C10B6EC010A9847D5F8383C48
:10A1800093F8242001349442F0DB5B69984795F8FA
:10A190004C3C312B00D070BD95F84D3C002BFAD0D3
:10A1A000D5F8383C93F82430042B1E46A8BF04266B
:10A1B000002BF0D00024074D234618464DF008FF31
:10A1C0000134E3B29E4245F8040BF6D870BD00BFDF
:10A1D00068380020B844002003681A78012A01D0AA
:10A1E0000020704793F90430044A03EB830302EB29
:10A1F000C30393F8810BC0B2704700BF68380020DA
:10A2000010B5094CD4F8780C40F074FCD4F8780CF4
:10A2100008B12323C380012140F0A0FA034841F094
:10A2200047F9A4F8740C10BD683800208096980097
:10A2300030B583B00D46012301460DF107020446F7
:10A24000074841F07DFB9DF8072035EA020304D062
:10A2500003482A43214641F0E7FB03B030BD00BF6D
:10A26000D8440020F0B53B4CD4F8705C2B78022B1E
:10A2700095B018D0012B02D0002015B0F0BD95F993
:10A2800004506B1CF8D0022DF6DC0091134694F8B4
:10A29000741C0246284652F0D7F80028ECD0284615
:10A2A00052F082F9E9E72B6A002BE5D10DF10F0C92
:10A2B0008DF80F00002601200027CDE90833CDE9F5
:10A2C0000A12CDE90E6705938DF81C300D9310939B
:10A2D0001293CDF810C006908DF830008DF8440030
:10A2E000EFF31180102383F31288D4F8703C1B6ABB
:10A2F00013B3069B04AE32461BB1D3691432002B54
:10A30000FBD12B6A13B3996839B993420AD0196803
:10A3100029B15B6899680029F7D01433F3E70E4A36
:10A32000C3E90026C0B280F31188D4F8702C136AF8
:10A33000002BFCD10120A0E704ABC0B22B6280F35C
:10A34000118804F547604FF063FAEEE7024A1A609D
:10A35000FFDE00BF68380020D844002070B50368D5
:10A360001D78022D14D0012D01D0002070BD0446AF
:10A3700093F904000A4B421C83F83C5DF5D0022897
:10A38000F3DC0A4603F63C532179BDE87040A5E5AD
:10A390001B6A002BE9D1012241F05EF9012070BD5A
:10A3A000683800202DE9F0417B4C82B0242204F56E
:10A3B0005460002155F09AFE94F8695D0023C4F8BA
:10A3C000643D002D3CD1D4F8083E6BB39B6A5BB36F
:10A3D0007248984783683BB30388DFF8D4C1013BD8
:10A3E0009BB26046664600213778032F06F10606C9
:10A3F0001ED001310629F7D100220178022900F18F
:10A40000060000F084800132062AF6D1D4F8641DDB
:10A41000052909D0481C02FB01C2C4F8640D0220C2
:10A420000021938010705180284602B0BDE8F08171
:10A43000062303FB0141B1F8423D013B9BB2DBE740
:10A4400094F8680D04F55763C4F86C3D08B900250D
:10A45000B9E73FF027FEC4F8780D18B1837913F0FF
:10A46000BF0FF4D129464E4840F0EAFF05460028C8
:10A47000EDD0D4F86C3D494A9868C3F8942008B1EF
:10A480002223C380092140F069F9D4F86C3D454F7F
:10A49000986840F02FFB4448D4F86C6D41F008F800
:10A4A0000123B0803220C4F8286E84F82C3E3BF0A3
:10A4B00057FC04230DEB0302D4F86C0D00269F21FA
:10A4C000019641F075F89DF805009DF804209DF86F
:10A4D0000630000240EA02401843324601E088425A
:10A4E00019D0D3B207EB03130132D3F8B810002907
:10A4F000F5D194F8680DA4F80C1EA4F8181EC4F841
:10A50000101EC4F8141E0D4640F01EFE5BE7062127
:10A5100001FB02C283E7B3F8C220B3F8C070B3F8FE
:10A52000BC602249B3F8BE00A4F8182E1202D3F87A
:10A53000C4C0A4F80C7E01FB00F04FF4807301FB53
:10A5400006F14FF0000802FB07F6C4F8102EC4F81D
:10A55000146EC4F83C0EC4F8381EC4F808CE84F853
:10A560001A8EA4F80E3E40F0A3FFD4F8287EB6F170
:10A57000807FB88003D8012384F8213E23E701239C
:10A58000B72642463846694684F8203E8DF800607A
:10A5900041F006F9EFE700BF683800207046002060
:10A5A000D845002034040608404B4C0040420F00C0
:10A5B000A84500202DE9F041C94BCA4ECA4DCB4CED
:10A5C0000822C3F88820336B82B043F00103336361
:10A5D00007464FF4C052284640F202338846694687
:10A5E000CDE90023FDF70CFD6B6AC14ADFF848C3D3
:10A5F00023F470436B626B6A43F420436B626B6AB3
:10A6000023F470236B626B6A43F420236B62736CD8
:10A61000B84D43F4804341F224417364736B44F8B2
:10A62000018041F22C4143F08003675041F2284EF3
:10A63000B14973630227C4F8441EB04EB04BB14910
:10A6400044F80E5084F8487E4FF0A045AE4FC4F851
:10A650004C5EC4F8506EC4F8583EC4F8941E05F51C
:10A66000326506F5A07603F51073A1F5D071C4F834
:10A670005C7EC4F8985EC4F8606EC4F89C3EC4F872
:10A68000641E012307F51077A5F5E465A6F5A0661D
:10A69000A1F58C61C4F840CEC4F8A07EC4F8545E25
:10A6A000C4F80C6F84F84B3E05F5A075536106F5B0
:10A6B000B076C4F8D01E84F8523F1946934B944AA2
:10A6C000C4F8D85EA7F5BC67A035C4F8E46E914E17
:10A6D000C4F8E07EC4F8E83E07F5D45703F56953A3
:10A6E000C4F8EC5E4FF050250020DFF850E2DFF8B0
:10A6F00050C2C4F8102FC4F8147F02F5A04207F529
:10A70000A047C4F8186FC4F81C3F06F5A046A3F58F
:10A710004853C4F8205F04F56465C4F8242FC4F8D6
:10A720002C6FC4F84C3FC4F8D4EEC4F8DCCE02461B
:10A73000C4F8287F2B4684F8540F402683F81C2148
:10A74000A3F822210132042AC3E9496083F81D11CC
:10A7500083F81F01C3F8300103F12803EED1002272
:10A7600011462B46402083F87423A3F87A23013244
:10A77000042AC3E9DF0183F8751383F87713C3F85C
:10A78000881303F12803EED14FF0A04362489A6882
:10A7900022F001029A60DA6842F04002DA60FDF7C6
:10A7A0002DFF94F8493E0022212161F317420BB19D
:10A7B00042F4801294F8431ED4F84C3E01299A6367
:10A7C00000F0E380DA68D4F84C6FD4F8500EC2F38E
:10A7D000076121F0600141F0400161F31F62002137
:10A7E000DA603160026861F3CC22026094F84B2E8B
:10A7F000012A00F0B78010214848FEF71FF94748AA
:10A80000FEF702F9D4F8500E94F8413E00224FF0C2
:10A81000FF31026142618161C26153B305F11407E6
:10A820003F4E114607EB83074FEA830C4FF0FF0EB4
:10A8300056F8042F1368002BACBF00234FF0904351
:10A84000B74213601161C2F808E0F1D105F150037D
:10A85000344963440027FF2651F8042F1568002D62
:10A86000ACBF00254FF09045994215601761966086
:10A87000F2D1036994F8431E43F480730129036104
:10A8800060D0D4F84C2E28480023936100294FF063
:10A89000FF336FF0804151615360516114BF002359
:10A8A0001023906143F47013916943F4605343F0B3
:10A8B00008030B43936141F228419368615843F0C8
:10A8C000010393600B689847184B194ADA60684691
:10A8D000184B0093FEF728FD02B0BDE8F08100BFE1
:10A8E00000E100E00038024000000240683800202B
:10A8F000003C01409402002040004001000800504C
:10A9000000090050000B005020090050C005005005
:10A910000010005000300050B4460020A84600202F
:10A92000BC460020F84600200008008000ED00E052
:10A930000005FA054302000108040100200500504B
:10A9400060050050D4F84C2E144B03636FF0804127
:10A95000134D00234FF0FF309361516150605161FE
:10A9600095619FE701680F4A0F4E41F003010160B6
:10A97000802159629E62C3F80421E022C3F80821B5
:10A98000C0F24002C3F80C2135E79A6822F03E017C
:10A9900041F02A0161F307029A6013E70301810085
:10A9A00000080080A00040008000200099B10A6BE0
:10A9B000824216D9154BD3F86C23914221D35C39CE
:10A9C00091421ED30B6B9842F9D38B6B9842F6D809
:10A9D0000B46184670470D4BD3F86C130A6B904228
:10A9E00012D30B680BB9F4E70A6B90420B4602D303
:10A9F0008A6B9042EDD951F85C3F002BF4D1184698
:10AA000070470023184670470A46D8E7604900207F
:10AA10002DE9F047CC0143D10346224A43F8082BE5
:10AA20004FF0FF324260022418467E26DFF878801D
:10AA3000D8F870932644013E051D49466FF07047D3
:10AA40004FF0010A08E0A3421CD0631C45F8043C07
:10AA5000321B1C460435CAB10B6BA34202D88B6B68
:10AA6000A34204D22046FFF7A1FF014690B10A7924
:10AA70004B6B002AE7D1A34204D0E6D245F8042C60
:10AA8000631CE5E745F8047C631CE1E7C8F8701334
:10AA9000BDE8F08745F804AC321B631C4946D8E793
:10AAA0008026C3E7F8FFFF0F604900202DE9F04F33
:10AAB0000646044616F8010B87B0002800F04B83C9
:10AAC0008B46002509E012F059FD01353446264633
:10AAD00016F8010B002800F088802528F3D1627851
:10AAE000302A00F0D78002340027A2F13001CBB227
:10AAF000092B4FF000035ED96C2A7AD0782AE6D869
:10AB0000572A64D9A2F158012029E0D801A050F8B1
:10AB100021F000BFD1AD0008CFAA0008CFAA0008DD
:10AB2000CFAA0008CFAA0008CFAA0008CFAA000821
:10AB3000CFAA0008CFAA0008CFAA0008CFAA000811
:10AB400013AD000821AD0008CFAA0008CFAA000865
:10AB5000CFAA0008CFAA0008CFAA0008CFAA0008F1
:10AB6000CFAA0008CFAA0008CFAA00080BAD0008A2
:10AB7000CFAA0008CFAA0008CFAA0008CFAA0008D1
:10AB8000A7AC0008CFAA00087BAD0008CFAA000838
:10AB9000CFAA0008D1AD0008BCF1050FACD8A2F1D6
:10ABA00037010A29A8D114F8012B03EB830301EB29
:10ABB0004303A2F13001C8B20928A2F16106A2F153
:10ABC000410CF0D9052EE7D8A2F15701E9E762B1AF
:10ABD000252A7FF47CAF2646252012F0CFFC16F8FC
:10ABE000010B013500287FF478AF284607B0BDE897
:10ABF000F08F14F8011B78293FF669AF57294DD91A
:10AC0000A1F15802202A3FF662AF01A050F822F0CD
:10AC1000E3AE0008CFAA0008CFAA0008CFAA000818
:10AC2000CFAA0008CFAA0008CFAA0008CFAA000820
:10AC3000CFAA0008CFAA0008CFAA000813AD0008C9
:10AC400033AE0008CFAA0008CFAA0008CFAA000898
:10AC5000CFAA0008CFAA0008CFAA0008CFAA0008F0
:10AC6000CFAA0008CFAA00080BAD0008CFAA0008A1
:10AC7000CFAA0008CFAA0008CFAA0008A7AC0008F6
:10AC8000CFAA00088DAE0008CFAA0008CFAA0008FE
:10AC9000E3AE0008A2780127033426E70029A4D0F8
:10ACA000252998D013E75BF8048BB8F1000F00F06A
:10ACB0004582464616F8010B002800F04E82CBB1C3
:10ACC000324600E0B3B112F8011B1F46013B0029D8
:10ACD000F8D1023F73B1B946202012F04FFC4B4629
:10ACE000002B09F1FF39F7DC98F8000027EAE77339
:10ACF000013340B101339F1B12F040FCF31916F8E9
:10AD0000010B0028F8D11D44E1E65BF8043B1D600F
:10AD1000DDE65BF8040BC0B2013512F02FFCD6E67D
:10AD2000DBF800000028C0F25481EC4609280646F2
:10AD30004FF0010209DD02EB82025200B0FBF2F19A
:10AD40000929F8D8002A00F09181D248A0FB02E13D
:10AD5000B6FBF2F009288E4600F1570900F13008E1
:10AD60004FEAD10140F27981092A0CF8019B02FBDC
:10AD7000106640F27B810A46E7E7DBF800C0BCF1D1
:10AD8000090F4FF0010209D902EB82025200BCFB0D
:10AD9000F2F10929F8D8002A00F0A6816E46B646DD
:10ADA000BC48A0FB0281BCFBF2F00928884600F1F8
:10ADB000570A00F130094FEAD10140F3B581092A61
:10ADC0000EF801AB02FB10CC40F290810A46E7E797
:10ADD0005BF804CBBCF10F0F4FF0010140F2D881BA
:10ADE0000901BCFBF1F00F28FAD8002900F0CB8153
:10ADF0006E46B0460EE0582A0CBF4FF0370E4FF0AB
:10AE0000570E864401FB10CC090908F801EB0CD061
:10AE1000BCFBF1F00928EEDC4FF0300E864401FB5C
:10AE200010CC090908F801EBF2D1002288F80020C3
:10AE300097E05BF8040B0028C0F28681EC460928F5
:10AE400006464FF0010209DD02EB82025200B0FB20
:10AE5000F2F10929F8D8002A00F057818D48A0FBAB
:10AE600002E1B6FBF2F009288E4600F1570900F125
:10AE700030084FEAD10140F23F81092A0CF8019BCA
:10AE800002FB106640F241810A46E7E75BF804CB1B
:10AE9000BCF1090F4FF0010209D902EB8202520006
:10AEA000BCFBF2F10929F8D8002A00F099806E461F
:10AEB000B6467848A0FB0281BCFBF2F00928884620
:10AEC00000F1570A00F130094FEAD10140F3218126
:10AED000092A0EF801AB02FB10CC40F283800A462F
:10AEE000E7E75BF804CBBCF10F0F4FF0010240F233
:10AEF0004D811201BCFBF2F00F28FAD8002A00F0B5
:10AF00003F816E46582931461DD007E002FB10CC28
:10AF1000120901F8018B22D0BCFBF2F0092800F1E4
:10AF2000570800F1300EF1DC02FB10CC120901F8D9
:10AF300001EBF1D113E002FB10CC120901F8018BF7
:10AF40000DD0BCFBF2F0092800F1370800F1300EFB
:10AF5000F1DC02FB10CC120901F801EBF1D1002267
:10AF60000A709DF80090002F14BF4FF030084FF08A
:10AF70002008B9F1000F00F0FE800DF1010211462A
:10AF80000BB91AE0CBB111F8010B1F46013B0028A9
:10AF9000F8D1023F8BB1BA46404612F0EFFA534661
:10AFA000002B0AF1FF3AF7DC27EAE7730133B9F126
:10AFB000000F3FF4A8AE0DF1010217469E1B484654
:10AFC00012F0DCFABB1917F8010B0028F8D11D4468
:10AFD0007DE52D2240428DF800200DF1010CA5E603
:10AFE0006E46B64600228EF800209DF80090002F95
:10AFF00014BF4FF030084FF02008B9F1000F00F0F7
:10B00000B5800DF1010211460BB91AE0CBB111F870
:10B01000010B1F46013B0028F8D1023F8BB1BA4615
:10B02000404612F0ABFA5346002B0AF1FF3AF7DC28
:10B0300027EAE7730133B9F1000F3FF464AE0DF175
:10B04000010217469E1B484612F098FABB1917F8E2
:10B05000010B0028F8D11D4439E5092A0CF8018BB1
:10B0600002FB10664FEADE013FF685AE00220BF1CF
:10B07000040B8CF800209DF80080002F14BF3027AF
:10B080002027B8F1000F6DD00DF10102114623B950
:10B090001DE000BFCDCCCCCCCBB111F8010B1E46CE
:10B0A000013B0028F8D1023E8BB1B146384612F080
:10B0B00065FA4B46002B09F1FF39F7DC26EAE67307
:10B0C0000133B8F1000F3FF41EAE0DF101026E46E0
:10B0D00017469E1B404612F051FABB1917F8010B98
:10B0E0000028F8D11D44F2E46E46B64600220BF16A
:10B0F000040B8EF8002078E7092A0CF8018B02FB7C
:10B1000010664FEADE013FF6BFAE00228CF8002049
:10B11000B1E7092A0EF8019B02FB10CC4FEAD801D7
:10B120007FF660AF0A46C4E6092A0EF8019B02FBCF
:10B1300010CC4FEAD801D9D90A4631E6DFF854805D
:10B14000282008F10106BAE52D2240428DF80020A2
:10B150000DF1010C73E6054647E55F1E002B7FF4F9
:10B16000BAADB4E45E1E002B9FD1B0E45F1E002B8D
:10B170007FF455AFABE45F1E002B7FF40CAFA6E469
:10B180006E463146EBE66E46B0464EE66046B8E6A1
:10B1900060462DE61C600608214A038890429BB257
:10B1A00012D002F5806290420ED0B0F1804F0BD0E9
:10B1B000A2F58032904207D002F58062904203D01F
:10B1C00002F58062904203D14A8823F07003134352
:10B1D000144A904218D002F58062904214D030B4E4
:10B1E00023F440730C894D6802F56C429BB22343F3
:10B1F00090420C880380C56204850DD18B7A03864A
:10B20000012330BC8382704703800B884A68C26286
:10B210000385012383827047034B9842EED0EFE70A
:10B220000000014000100040000401402DE9F04101
:10B23000494D4A4ED5F8743486B004460139A6FB10
:10B24000030389B29B0C0027013B02912068ADF8F3
:10B25000043001A91646ADF80C70ADF806708DF8F3
:10B260000E70FFF799FF237AADF808706022019203
:10B270009A07CDE90477D4F8008067793ED5DB00E2
:10B2800003F008030422ADF81230ADF8082001AA3B
:10B2900039464046039632F0F5FD0C2F12D8DFE810
:10B2A00007F03A1111114511111150111111070038
:10B2B000B8F81C3023F400631B041B0C43F4006338
:10B2C000A8F81C302268B2F844306FEA43436FEAB2
:10B2D00053439BB2A2F84430138811469BB243F00B
:10B2E000010321F8343B6379C5F80C2BC818002200
:10B2F000C5F8080BCA5006B0BDE8F0815B0003F04A
:10B3000002030122ADF810304FF48073ADF806202F
:10B31000ADF81430BBE7B8F8183023F008031B046D
:10B320001B0C43F00803A8F81830CBE7B8F8183026
:10B3300023F400631B041B0C43F40063A8F81830CB
:10B34000C0E7B8F81C3023F008031B041B0C43F0C3
:10B350000803A8F81C30B5E76838002083DE1B43DB
:10B3600070B4447941BB03684FF400524FF4007647
:10B37000202502213CBB1A8C22F001021204120C7F
:10B380001A841A8B188C22F0F30280B2120420F077
:10B390000A00120C014342F0010241F001011A833C
:10B3A00019841A8B22F00C021204120C1A831A8BC5
:10B3B00092B270BC1A837047002203681646154685
:10B3C0001146002CD7D0042C21D0082C38D0198C51
:10B3D00021F480510904090C19849C8B1D8C45F6BD
:10B3E000FF7040F6FF4128402140024342F4805262
:10B3F00041F4807199831A849A8B22F4406212047A
:10B40000120C9A839A8B92B270BC9A8370471A8CF2
:10B4100022F010021204120C1A84188B198C89B2B3
:10B4200040F6FF4221F0A00102400D4342F4807239
:10B4300045F010051A831D841A8B22F44062B3E78D
:10B440001A8C22F480721204120C1A84998B1A8CB2
:10B4500021F0F30192B2090422F42062090C324374
:10B4600042F4807241F0010199831A849A8B22F090
:10B470000C02C4E70B88F0B433BB028C4C880E89F5
:10B480008B88C98822F001021204120C0284058BF9
:10B49000028CADB225F0F30592B22B4322F00A02E2
:10B4A00043EA061322439BB242F001020383028463
:10B4B000038B23F00C031B041B0C0383038B9BB235
:10B4C0001943F0BC01837047042B048C2CD0082B4B
:10B4D0004E888A880D89C98851D024F48054240468
:10B4E000240C0484838B078C2C0344EA022440F64A
:10B4F000FF421A4045F6FF733B4043EA06332243BE
:10B500009BB292B243F4805382830384828B22F4F1
:10B5100040621204120C8283838B9BB243EA0123A4
:10B520009BB2F0BC8383704724F010042404240CE5
:10B530004D880F898A88C9880484068B038C12027F
:10B540009BB242EA073423F0A00340F6FF423240A8
:10B5500043EA051322439BB292B243F010030283E5
:10B560000384028B22F440621204120C0283038BC8
:10B570009BB243EA01239BB2F0BC0383704724F4DF
:10B5800080742404240C0484848B038CA4B29BB2A6
:10B5900024F0F30423F42063224343EA062342EA1F
:10B5A00005129BB243F4807392B282830384838B2F
:10B5B00023F00C031B041B0C8383838B9BB2194366
:10B5C000F0BC818370470E4ADFF840C010B50D4CC7
:10B5D000C2F88C430C4CC2F878030023C2E9E1C4E2
:10B5E000A2F87C13C2F88033A2F87E3382F890333D
:10B5F000282202FB03F4035301339942F9D110BD11
:10B600006049002040420F00A01CE9FF20A1070074
:10B610000449054A054B8360C0E900120C3046F02E
:10B6200061B800BFE5160508A1FC04084DFC04083C
:10B630002DE9F041534C2DED048B012284F87C2739
:10B64000514ADFED529A92F89433B2F8AC13B4F841
:10B650009C249FED4F9A07EE103AB8EEC77AF2EEAF
:10B66000047AC7EE276A04F29C4500264A43642008
:10B67000C4F87467B2FBF0F204F22C67C4F87827C0
:10B680004FF0000807EE101AC5EDB56AB8EEC77A9C
:10B69000DFED406A86EE878AF0EE678AB4F89C3464
:10B6A00000EE903AB3EE090AF8EE600A3846FFF76A
:10B6B000AFFFB4F89C3400EE903A38EE080AF8EE8A
:10B6C000600A0022052107F1900049F0CFF8B4F894
:10B6D0009C34C5F8B08268EE287A07EE103AF5EE91
:10B6E000C07AF1EE10FAB8EE476AB7EE007A17DDCD
:10B6F000B3B166EE296AF4EEE76AF1EE10FA88BF9C
:10B70000F0EE676AF0EE665AE6EE095AC6EEA57AE2
:10B71000F4EEC77AF1EE10FA88BFF0EE477A01E056
:10B72000F0EE477AB5EEC08AF1EE10FAC5EDAD7ACB
:10B7300019DDC3B166EE296AF4EEC86AF1EE10FABB
:10B7400088BFF0EE486AF0EE667AE6EE097AB0EE6F
:10B75000676AC6EE867AF4EEC77AF1EE10FA88BF11
:10B76000F0EE477A01E0F7EE007A0136032EC5EDE0
:10B77000AE7A07F1300705F10C058FD1BDEC048BD3
:10B78000BDE8F08168380020604900203333F33E83
:10B7900083F9223E000048432DE9F04FA84AA94C06
:10B7A000B2F8A014B2F89E342DED088B07EE901A73
:10B7B0000AEE103A94F889379FEDA3BADFEDA3AAF9
:10B7C000F8EE679A07EE903AB4F88A37F8EEE77A1F
:10B7D000F2EE046A0A2B87EEA67AB8BF0A239146D6
:10B7E000002285B0C4F8C42304F2A47A04F2BC7623
:10B7F00004F6B86B07EE903AB4F88C3784EDED7A26
:10B8000008EE103AF8EEE78AB8EEC88AB6EE009A6B
:10B81000F4EE488A29EE890AF1EE10FAC8BFB0EEBC
:10B82000688A94F88837C4EDEE8AB4EEC80AF1EE5F
:10B8300010FAD8BFB0EE408A082BA8BF0823B1F594
:10B840007A7F38BF134680EE080AC4F8C03384ED0F
:10B85000EF8A52F09DF8B7EE007AB4EE470AF1EEA7
:10B8600010FA48BFB0EE470AFDEEC07AB8EE4AAA19
:10B87000F8EEE76A17EE905ACAEE297A04F294734A
:10B88000C4F890579FED72AA67EEA67A87EE276AF2
:10B8900089EEA67ADFED6F7A83ED006AC7EE279A0C
:10B8A00004F5F36388EEA90AC3ED009A52F0F0F8AC
:10B8B0000228B8BF022088EE290A0746C4F89C0770
:10B8C00052F0E6F82328A8BF2320232FA8BF232760
:10B8D000B842C4F8A007B8BF3846C21B012DDAED44
:10B8E000007ADFED5D8A5D498046B8BF01250132EF
:10B8F000F5EE407AF1EE10FA2BD15948019500236C
:10B9000002961D46064607EE905AF8EEE79A039215
:10B9100069EE8B9A0135B0EE690A51F0F1FFB0EE95
:10B92000408AB0EE690A52F085F9A0EE288A242DEB
:10B930004A49039A28EE0A8A20EE0A0A86ED008A0E
:10B9400086ED010A06F10806DDD1DDE90156F0EECB
:10B950006A7A002346E9053792FBF5F046F80C8C2D
:10B9600046F8080C46F8045C30460133482BE0ECFE
:10B97000018AFAD1D1F8F8E1D1F8FCC106F590734B
:10B98000002001302428C3F800E0C3F804C003F10C
:10B990000803F6D106F515765E45A9D1314E9FED27
:10B9A000328ACAED007A0027A6F1140B0BEB0700D0
:10B9B000B2464FF00008D4F8C033984500F1240592
:10B9C00031DA07EE908A94EDEE6AF8EEE76AD4ED8C
:10B9D000EF7A36EE897A77EEC67A743067EE877A38
:10B9E00007EE103AB8EEC77AB9F89E3487EE870AA8
:10B9F000042108F1010800EE903A30EE060AF8EE54
:10BA0000600AAAEC010A94EDED1AC5ED178AA6EEBC
:10BA1000881AC5ED168AC5ED158AC5ED148A48F059
:10BA2000D1FF2846C7E707F59077B7F5587F06F1AD
:10BA30002006BBD105B0BDEC088BBDE8F08F00BF80
:10BA40006838002060490020C3B8B23DBC297E3F61
:10BA500072F97F3F000090420000000034040608A5
:10BA600004580020284D0020CDCC4C3E2DE9F04F4D
:10BA70002DED028BDFF8C481DFF8C4B1DFED698AF8
:10BA80009FED698A85B008F138040127FEB218F8E5
:10BA9000010B3246572132F051FE0546002800F0D6
:10BAA0009A800368A0600122B3F1804F04F8302C23
:10BAB00000F09C805D4A934200F09880DFF884A1FA
:10BAC000DAF8743407EE903AF8EE677A00228021B3
:10BAD000DFF8749144ED0A7A99F8CA0F04F82F2C14
:10BAE00007EE900AABFB0323F8EE677ADB0800222F
:10BAF00044F80C3C4FF4005C012318F8010C44F8A6
:10BB0000101C44ED088A04ED0B8A44ED097A44F8D0
:10BB1000082C44F8142C44F818CC24F81C3C24F8C5
:10BB20001A3C3EF0BFFAE06010B15723C671837132
:10BB300099F8C83F012B72D0022B0CBF4221022181
:10BB40006A7A3EF075FBDAF874142846FDF70EFCAD
:10BB500014F82F3C002B54D02146354B41F8043DBE
:10BB60000022284632F042FB99F8C93F2868002B92
:10BB70004FF0010914BF00230223CDF80890ADF85F
:10BB8000063004236A79ADF804200DEB0301ADF80B
:10BB90000C30FFF76FFC54F8103CA268254912687E
:10BBA00011F82C1C013E013B9BB2F6B213854FF0FD
:10BBB000FF3500234FF40050B142D562A2F8149033
:10BBC00044E9060324F81C9C24F81A9C44F8083C19
:10BBD00001D132F001F90137052F04F140047FF45F
:10BBE00055AF05B0BDEC028BBDE8F08FDFF854A077
:10BBF000DAF8743407EE903A0122F8EE677A1146CB
:10BC000066E70D48DFF844C044F8040C6360224640
:10BC1000211F2846C4F800C032F0E8FAA4E7222128
:10BC20008EE700BF00401C4600000000000C0040F2
:10BC300051D80308585A002079D903082459002004
:10BC40001F85EB516838002060490020FDDD0308A6
:10BC50000C480D4B50F8101C10B40C4C40F8203C14
:10BC60008A1E223130F8043C1B01A4FB03C3DB080D
:10BC7000A3F5B06322F8023F9142F3D15DF8044B83
:10BC8000704700BF585A00205D220208CDCCCCCCB2
:10BC9000F0B5254C85B004F10C03054644F8103C82
:10BCA000FFF7D6FF214A224B1A21402044E90723FF
:10BCB00004F8261C2DF02AFE002833D094F84930D1
:10BCC00094F84A7094F84B6090F90400194A002DDA
:10BCD00014BF4FF4E1314FF4E121002B14BF0223D4
:10BCE0000023002F14BF30250025002E18BF43F07D
:10BCF00001032B430325CDE901530091002340218B
:10BD00002DF063FE206648B10B480BF045FD94F81A
:10BD1000653084F864000BB984F86550206E0038F3
:10BD200018BF012005B0F0BD585A002015A7010822
:10BD300095AE0108F9A00108A9AF010830B540206F
:10BD400085B02DF0E3FD30B3144C90F9040094F865
:10BD5000491094F84A3094F84B50114A002914BF06
:10BD600002210021002B14BF10230023002D18BF37
:10BD700041F001010B4303254FF4E131CDE90153BB
:10BD80000091002340212DF020FEA06608B1054B54
:10BD9000436305B030BD014B9866FAE7585A00205E
:10BDA000F11A0208391A020870B5084C251D2E46F2
:10BDB00014F8010B2BF0AEFD28B1037905F8013B17
:10BDC000B442F5D170BDFF23F8E700BFC45A00208C
:10BDD0002DE9F0471D4F012607F10805B2464FF047
:10BDE0003B094FF0000817F8010B3EF05BF90446E1
:10BDF00090B180F80690C671FB7803F07F02012AAB
:10BE000018D013F0800F20460DD185F804803EF045
:10BE10006BFE85F805802C600136052E05F10805BE
:10BE2000E1D1BDE8F08785F804A03EF063FE85F817
:10BE300005A0F0E71B0605D4012120463EF08EFC4C
:10BE4000FB78DEE73EF056FEF6E700BFCC5A002056
:10BE50002DE9F04F0C68B64EB64F2588D6F87464BD
:10BE6000B6FBF2F2013B013ABC4296B283B09BB200
:10BE7000AAB211D0B04DAC420ED0B4F1804F0BD06D
:10BE8000A5F58035AC4207D005F58065AC4203D0FE
:10BE900005F58065AC4202D122F0700292B2A74D46
:10BEA000AC4211D005F58065AC420DD022F4407251
:10BEB00005F56C4592B2AC422280E362268540F0E3
:10BEC00021810023238602E02280E3622685012669
:10BED000A6820B7A4A7913F0020572D00021DB00AA
:10BEE00003F008038E46019188460F468C460E46A5
:10BEF0004FF480654FF0400A4FF0040B0C2A08D82D
:10BF0000DFE802F0CC070707A007070718070707B5
:10BF100071000C2A3DD8DFE812F0EC003C003C0038
:10BF20003C00B8003C003C003C003C003C003C00B5
:10BF30003C008C00218CDFF8FC8121F48071090425
:10BF4000090C2184218CB4F80490A68B89B226F0C8
:10BF5000730621F4007136040F43360C444547EA5A
:10BF60000C211FFA89F946F0600600F0D080724F6C
:10BF7000BC4200F0CC800023A4F80490A683E363C5
:10BF80002184A38B23F008031B041B0C43F008033C
:10BF9000A383B4F844306FEA43436FEA53439BB240
:10BFA000A4F84430238821469BB243F0010321F8D2
:10BFB000343B00238D18C0E900548B5003B0BDE81A
:10BFC000F08F5B004FF4806703F0020C0197AA46E4
:10BFD0002B46AB464FF480414FF4805E4FF0100883
:10BFE0004FF480778AE7238C524E23F480531B044E
:10BFF0001B0C2384238CB4F80480A78B9BB227F4FA
:10C00000E64723F400533F044EEA03053F0CB442D5
:10C0100045EA0C3347F4C0471FFA88F500F08480E6
:10C0200006F58066B4427FD00021A580A7832164F5
:10C030002384A38B23F400631B041B0C43F40063D1
:10C04000A383A6E7218C3B4E21F010010904090CC3
:10C050002184218CA788258B89B225F4E64521F01F
:10C0600020012D0448EA01012D0CB44241EA0C11D3
:10C07000BFB245F4C0456ED006F58066B4426AD0C2
:10C080000023A7802583A3632184238B23F40063EB
:10C090001B041B0C43F4006323837AE7218CDFF835
:10C0A00094E021F001010904090C2184258CB4F8E5
:10C0B0000480B4F8189025F0020529F073092D04C6
:10C0C0004FEA09494CEA06012D0C4FEA194974451B
:10C0D00045EA01061FFA88F849F0600930D0164990
:10C0E0008C422DD00023A4F80480A4F81890636338
:10C0F0002684238B23F008031B041B0C43F0080346
:10C10000238346E70C4B9C423FF4DBAEDFE621F491
:10C11000006141EA032323F4806329F4405943EA90
:10C12000050149EA0E0926E725F480450D437BE722
:10C130006838002000000140000401400010004069
:10C140004FF6F375354028F440782B4348EA07084A
:10C1500043EA0B06C6E721F0800141EA031323F00E
:10C160004001019B27F4406741EA0A011F4387E72A
:10C17000104B93F8F62007EE902AF8EEE77AF2EEED
:10C18000046A87EEA67A93F8F72007EE902ADFED8F
:10C190000A6A83ED287AF8EEE77AB3F8F82087EE9A
:10C1A000A67A07EE902AF8EE677A83ED297AC3ED36
:10C1B0002A7A7047585A00200000C8422DE9F04101
:10C1C000E64C9FEDE71AB4F8DA30DFEDE61A9FEDA2
:10C1D000E62A07EE103AB4F8DC302DED088B09EEB4
:10C1E000103AB4F8DE30DFEDE1AADFEDE1BA9FED01
:10C1F000E1BA9FEDE1AADFEDE19A08EE903AB4F8DA
:10C20000BC3008EE103AB4F8C63000EE103AB4F87C
:10C21000BE3000EE903AB4F8C83007EE903AB4F869
:10C22000C03002EE903AB4F8C23003EE103AB4F8DF
:10C23000C43003EE903AB4F8CE3004EE103AB4F8BD
:10C24000CA3004EE903AB4F8CC3005EE103AB4F8A7
:10C25000D03005EE903AB4F8D23006EE103AB8EE8F
:10C26000C77AB8EEC99AF8EEE88AB8EEC88AB8EE8E
:10C27000C00AF8EEE00AF8EEE77AF8EEE22AB8EE45
:10C28000C33AF8EEE33AB8EEC44AF8EEE44AB8EE40
:10C29000C55AF8EEE55AB8EEC66AB4F8D43027EEBF
:10C2A0002A7A28EE2B8A67EE8B7A65EE8A5A26EE7A
:10C2B000296A29EE2A9A68EEAA8A20EE2B0A60EEF5
:10C2C0008B0A62EE812A23EE213A63EE813A24EE54
:10C2D000014A64EE824A25EE215A06EE903A84ED38
:10C2E000E47A84EDC08AC4EDC67AC4EDCA5A84EDFE
:10C2F000E59AC4EDE68A84EDC50AC4EDC10AC4ED31
:10C30000C22A84EDC33AC4EDC43A84EDC94AC4EDEF
:10C31000C74A84EDC85A84EDCB6AB4F8D63094EDA0
:10C32000408A07EE103AB4F8D83007EE903A94F805
:10C33000E930F8EEE66A05EE903A94F8EA3066EEF7
:10C34000826A06EE103A94F8EB30C4EDCC6AB8EE8F
:10C35000C77A06EE903AF8EEE77A27EE217A67EE92
:10C36000827AF8EE655AB8EE466AF8EE666A94F894
:10C37000E03084EDCD7AC4EDCE7AC4EDEA5A84ED96
:10C38000EB6AC4EDEC6A002B00F0E58007EE903A12
:10C39000F8EEE77AF2EE046A86EEA77A94F8E130D6
:10C3A00084EDE87A002B00F0D38007EE903AF8EEA7
:10C3B000E77A734DC4EDE97A05F55C7705F53576D6
:10C3C0004FF0000856F8043C304608F101083036BA
:10C3D000F0EE480A2BB1AA7900EE102AB8EE400A16
:10C3E000984715F8013B00EE103A3846B8EE400A7F
:10C3F000F0EE480A48F0A6FBAB7800EE103A07F1E1
:10C400003000B8EE400AF0EE480A48F09BFBB8F165
:10C41000030F07F11007D5D194F8E23084F89C336C
:10C42000002B00F09180DFED577A9FED577AB5EE43
:10C43000C08AF1EE10FA68EE277A28EE077A40F308
:10C44000AF8094F8E630002B00F0D480642BA8BFB6
:10C45000642306EE903AF8EE666AF4EEE67AF1EEC0
:10C4600010FA98BFF0EE676A37EE265AB7EE006A08
:10C47000C6EE855A94F8E330444994F8E720F4EE88
:10C48000C65AF1EE10FA88BFF0EE465AFA2BA8BF52
:10C49000FA230A2BB8BF0A23C1ED005A84F89D3352
:10C4A00032B1642AA8BF642206EE902AB8EE666A0A
:10C4B000F4EEC67AF1EE10FA98BFB0EE676A37EE86
:10C4C000065AF7EE006AC6EE055A94F8E430304991
:10C4D00094F8E820F4EEE65AF1EE10FA88BFF0EE98
:10C4E000665AFA2BA8BFFA230A2BB8BF0A23C1ED5C
:10C4F000005A84F89E3332B1642AA8BF642206EE43
:10C50000902AF8EE666AF4EEE67AF1EE10FA88BF49
:10C51000F0EE667A37EE277AB7EE006AC7EE876AE2
:10C5200094F8E5301B4AF4EEC66AF1EE10FA88BFC3
:10C53000F0EE466AFA2BA8BFFA230A2BB8BF0A23EB
:10C54000C2ED006A84F89F33BDEC088BBDE8F08132
:10C55000DFED117A2DE79FED117A1FE7585A002081
:10C5600095BFD63317B7D137BD3786350AD7233CA9
:10C570002CB2DF3617B7513964CF8B386F12033ABC
:10C58000445B00203333F33E83F9223EA05E00205B
:10C59000A85E0020B05E00200000614500000000A1
:10C5A00094F8E31094F8E42094F8E530134EFA2957
:10C5B000A8BFFA21FA2AA8BFFA22BDEC088BFA2BF1
:10C5C000A8BFFA2330460A294FF07E55B8BF0A218A
:10C5D0000A2AB8BF0A2240F8085B0A2BB8BF0A2310
:10C5E0003561056084F89D1384F89E2384F89F3399
:10C5F000BDE8F081F7EE006A2FE700BFA05E0020E3
:10C600002DE9F84FDFF8D4A2A84F2DED0C8B0AF5D9
:10C610004F705422002153F069FD9AED40DADFEDAE
:10C62000A47ADFEDA46A9FEDA49ADFEDA4CA9FED82
:10C63000A4CADFEDA4BA9FEDA4BADFEDA4AA6DEE03
:10C64000277AB7EE007AF4EEC77AF1EE10FA88BFD7
:10C65000F0EE477AB0EE676AADEE266A0AF54074EE
:10C660000025C7EE0D9AA3460AF1EC090AF5707889
:10C670000AF1EF06C7EE86DA2DEE099AF4EEC7DA74
:10C68000F1EE10FA3DEE0DAA88BFF0EE47DA99F808
:10C69000063000EE103A8E4B48F80C3C8D4BB8EE4D
:10C6A000400A48E90237F0EE4D0A404645F078F975
:10C6B00019F8013BC4F86051C4F85C5123B1B5EEE0
:10C6C000C0DAF1EE10FA3EDC99F80230C4F8645199
:10C6D000C4F86851C4F89051C4F88C5123B3B5EE36
:10C6E000C0DAF1EE10FA00F3D780C4F89451C4F820
:10C6F0009851F7EE007ACBF844514E45CBED527A83
:10C7000008F1300804F110040BF1080BBFD1DAED89
:10C71000407AF5EEC07AF1EE10FA40F2B980BDEC45
:10C720000C8BBDE8F84F49E5B5EEC0DAF1EE10FA32
:10C73000C4F89451C4F89851CBF8445140F3B380F5
:10C74000F0EE6D7AD9E707EE903AB8EE677A39EEF7
:10C75000A98AB4EEC97AF1EE10FA88BFB0EE497A30
:10C7600067EE088AB0EE680A51F03EFA38EEC07AF9
:10C77000B0EE6A6A67EE076AF0EE4C7AA6EE8B6A54
:10C78000C4F89051C4F88C51E6EEAC7ADFED525A01
:10C79000E6EE865AB0EE6B6AA6EEA76ABDEEC00A58
:10C7A000F0EE467AB7EE006AA6EEA56A10EE103AF1
:10C7B00027EE277ADA0744BFB1EE466AC6EE076A6B
:10C7C00099F8023058BFC7EE066AB7EE007A76EEE7
:10C7D000877A36EEC77A66EE8A6A87EE276A86EE31
:10C7E000A77A84ED596A84ED5A7A002B49D007EE76
:10C7F000903AF8EE677AF4EEC97AF1EE10FA88BF53
:10C80000F0EE497A27EE888AB0EE480A51F0ECF94A
:10C8100078EE407AF0EE6A5A27EEA77A9FED2E6AFC
:10C82000E7EE0B5AF0EE4C6AE7EE2C6AA7EE256AAB
:10C83000F0EE6B5AE7EE265ABDEEC00AF7EE006A3C
:10C84000E7EE066A10EE103A67EEA57ADB0746BF00
:10C85000F1EE666A86EEA77A87EEA67AF7EE007AA0
:10C8600077EE276A77EE677A27EE0A7A87EEA66A6E
:10C87000C7EE267A84ED656AC4ED667ACBF844513A
:10C880005EE7C4F89451C4F89851CBF8445157E787
:10C89000BDEC0C8BBDE8F88F07EE903A39EEA98A13
:10C8A000F8EE677AA7E7F7EE007A26E7A91A0508F7
:10C8B0003333F33E83F9223E3333733E15109F3DED
:10C8C000624D25BF990FC93FF454A7BCB1D8813E32
:10C8D000A11905081DFC0408D1E99DBF585A002084
:10C8E000564BB3F89E342DE9F04107EE903AF8EE3E
:10C8F000E77AB6EE007A67EE877A2DED0A8BB4EE12
:10C90000E70AF1EE10FADFED4E8A82B0B0EE408A0F
:10C91000B0EE41AAF0EE47AA06DDF4EEE70AF1EE2A
:10C9200010FA78D5B0EE678AB5EEC08AF1EE10FA4B
:10C9300076DDF5EEC00AF1EE10FA71DDF4EEC80A0C
:10C94000F1EE10FA6CD560EE887A60EEE00AE8EE5F
:10C95000080AC7EEA09A3B4E3B4FDFF8F88004462A
:10C9600000F19005DFED397A9FED397A6AEE277A8A
:10C97000B7EE009AF4EEC87AF1EE10FA88BFF0EE46
:10C98000487A67EE877A89EE29BAC7EE8ABAB8EE96
:10C9900000CAB5EEC08AF1EE10FAC4E9018726603C
:10C9A000C4ED068AC4ED058AC4ED048AC4ED038A89
:10C9B00039DDB5EEC0AAF1EE10FA34DDF5EEC09A1D
:10C9C000F1EE10FA2FDDB0EE6B0A47F0FFFE20EE1D
:10C9D0002A0AF0EE497AE0EE0B7A60EE8C0AB0EEAD
:10C9E000496A80EEA77AA0EE4B6AC9EE276A84ED09
:10C9F000087A84ED0A7A86EE277AC4ED076AC4EDD8
:10CA0000096A84ED0B7A3034A542C2D102B0BDEC84
:10CA10000A8BBDE8F081B0EE688AF0EE689A9AE77A
:10CA2000DFED079A97E784ED079AC4ED088AC4ED15
:10CA3000098AC4ED0A8AC4ED0B8AE4E7683800204D
:10CA400000000000E9FC04084DFC04083333F33E09
:10CA5000DB0FC940A1FC04080A44914215D030B450
:10CA600041F2210511F8014B082380EA042010F45B
:10CA7000004F85EA40040ABF4000A0B280B2013BEB
:10CA8000F5D18A42EED130BC7047704770B5664C24
:10CA9000664DD4F8BC14D4F8C024D4F8C4342DEDB9
:10CAA000068B41EA02000126184384B085F818611C
:10CAB0006FD009B209EE101A12B2DFED5D7A1BB227
:10CAC000B8EEC99A08EE902A08EE103A29EE279A95
:10CAD000F8EEE88AB8EEC88A0023B0EE490A85F875
:10CAE000183168EEA78A28EE278A50F009FFF0EE89
:10CAF000407AB0EE490AB0EE679A51F09BF8F0EE3A
:10CB0000409AB0EE680A50F0FBFEB0EE40AAB0EEDC
:10CB1000680A51F08FF8F0EE408AB0EE480A50F003
:10CB2000EFFEF0EE407AB0EE480AB0EE678A51F0C0
:10CB300081F869EE085A69EE806A29EE006A29EEEA
:10CB4000887AB0EE655AA8EEE65A04F2F443E8EEAD
:10CB5000E56AF0EE465AE8EE875AA8EE867A2AEEA3
:10CB6000088A6AEE699A60EE4A7A29EE0A9A83ED9B
:10CB7000045AC3ED066AC3ED028A83ED008AC3ED51
:10CB8000059AC3ED017A83ED089AC3ED035A83ED4C
:10CB9000077AD4F8C834012285F8192133B9B4F9D9
:10CBA000CC342BB904B0BDEC068B70BDB4F9CC34D9
:10CBB000B4F9C804B4F9CA241E4C9FED1D6A1E497D
:10CBC00084FB00C6C017C0EBA60084FB02C684FB32
:10CBD00003C4D217DB17C2EBA602C3EBA40312B245
:10CBE00000B21BB207EE102A06EE900A07EE903A4A
:10CBF000F8EEE66AB8EEC77AF8EEE77A66EE866A8D
:10CC000027EE067A67EE867A002301A8CDED016A49
:10CC10008DED027ACDED037A85F8193147F036FCB7
:10CC200004B0BDEC068B70BD585A0020980100205E
:10CC300035FA8E3C67666666285F00202DE9F04174
:10CC4000214E224F96F81B3587F8F33A06F5A36676
:10CC500007F6F42500244FF0050816F8010B20BB59
:10CC600028600134032C05F10405F6D197F8F31A76
:10CC7000D7F8F40AC94301F001013DF041FF97F8EC
:10CC8000F31AD7F8F80A81F00201C1F340013DF030
:10CC900037FF97F8F31AD7F8FC0A81F00401BDE8D2
:10CCA000F041C1F380013DF02BBF3DF0FBF90134B1
:10CCB00001212860E3B210B180F80680C3712868B2
:10CCC0003DF04CFDCEE700BF585A002068380020E8
:10CCD000036870B55E6A26B133461922BDE870401C
:10CCE000184704460D4601F1190600E023689B68C9
:10CCF000204698470028F9D0236815F8011B1B68C7
:10CD000020469847B542F1D170BD00BFF8B5254C1B
:10CD1000254DB4F82065A5F8006BE6B994F81C051C
:10CD20003DF0C0F994F81D25C5F8040B003A18BF72
:10CD3000012285F8022B48B194F81E152C220029F7
:10CD400014BF11210121C2803DF008FDBDE8F8406B
:10CD500000203DF0DDBE94F81C75002238462C21E1
:10CD600031F0ECFC044638463DF09CF9C0B1BCB152
:10CD70002C22C5F81C0BC280617AFCF743FC0B49DE
:10CD8000B1FBF6F12046C1F34F0289B2A5F8246B3E
:10CD9000FEF74CFAD5F8082B0023136085F8193BF1
:10CDA000F8BD00BF585A00206838002040420F00EC
:10CDB0002DE9F84F244C94F82C3584F8223504F2F0
:10CDC0002357002604F5A8645FFA86FB0BF10108DF
:10CDD0005FFA88F8012117F8010F42460E448A468F
:10CDE00031F0ACFC4FF00009054638B3387804F850
:10CDF0000E9C04F80D9C04F80FBC04F810AC44F829
:10CE0000045C3DF04FF918B180F806A080F8078067
:10CE1000697AFCF7F7FB0D492846FCF7A7FA0C4B9B
:10CE200023600C4B221D21462846C4E9013931F00C
:10CE3000DDF9697928684A4628F0C8F9082E04F116
:10CE40001C04C1D1BDE8F88F585A002040420F00A1
:10CE500005520308B1EB020870B52C4C2C4B94F82A
:10CE60005806C4F8503600220221C4F81026C4F82F
:10CE70001426C4F81826C4F84C26A4F8542631F019
:10CE80005DFC002834D0234B0168054603F1700097
:10CE90005A7C12B15A6891422BD01C338342F7D18D
:10CEA000002394F85806C4F83C5584F830353DF01A
:10CEB000F9F808B10223C380697AFCF7A3FB28467E
:10CEC0001549FCF753FA154A1549C4F840150026D0
:10CED000111F2846134BC4F84435C4F8486531F097
:10CEE00085F9697928683246BDE8704028F06EB946
:10CEF00070BD0B8D0C4A0D49D2F874249BB20133DE
:10CF0000B2FBF3F381F81A31CAE700BF585A002088
:10CF100000FFFF008039002040420F009C5F00208E
:10CF2000D9EB020875ED020868380020980100204E
:10CF30002DE9F04FCA4D95F8EA700A2F83B00446E8
:10CF400000F29E80012303FA07F140F2EF521142F2
:10CF500000F09680C34E7A1F032A86F8B03A21D992
:10CF6000002386F8BC36FBF763FEC5F8380CD5F80D
:10CF7000383C002B00F08E800022012183F82440F1
:10CF800083F8251083F826209A6244B12C33B64AE0
:10CF90001C4412F8011B03F8011BA342F9D103B092
:10CFA000BDE8F08F95F8F32086F8BC36012A00F032
:10CFB0009C80022A7ED0DFF8DCE2AC4B0193BEE815
:10CFC0000F00DFF8A8C295F8F280ACE80F00BEE8C9
:10CFD0000F00ACE80F00DEF80020CCF80020B8F11C
:10CFE000000218BF0122A24B85F84D2C072FC6F86E
:10CFF0009C3600F20681042F00F21281DFF898922D
:10D000000027A9F1230B5FFA87FA0AF101085FFAFA
:10D0100088F8BC4242464FF0030107F101072BDDBF
:10D020001BF8013B0093184631F088FB009B024639
:10D0300000921846002A00F0EB803DF033F8009A89
:10D04000034651461046C9F814302BB14FF0030C7B
:10D0500083F806C083F80780137A95F8EA204BF02E
:10D060003DF9002800F0D4804FF00103042F89F827
:10D07000113009F11C09C6D1019BC5F8383C76E78F
:10D08000784B053F0022032F83F8B02A0ED983F88E
:10D09000BC266CE7774E784C0FCE0FC40FCE0FC472
:10D0A000336844F82039C5F8384C78E7012283F812
:10D0B000BC265CE795F8F220002A3FF47CAF082FED
:10D0C00013D1DFF8D0C185F84D3CBCE80F0006F263
:10D0D0008C6701970FC7BCE80F000FC7DCF8002072
:10D0E000634B3A60C6F89C368EE0DFF8B0E1DFF8BB
:10D0F00098B195F8F290DFF8A08186F8FC76BEE84A
:10D100000F00ABE80F00BEE80F00ABE80F000021F6
:10D110005846B9EB0109DEF8003040F8843B18BFEF
:10D120004FF001090F464FF44C7285F84D9CC6F83C
:10D13000C04686F8BE160BF56D7B52F0D7FFA8F1FE
:10D140002309BA460094D6F8C036534553DD19F882
:10D15000014B204631F078FB074620463CF0A2FF09
:10D160003C7A95F84D2C04F001010131074686F810
:10D17000BD160AB184F00104002F61D0BA7912F013
:10D18000BF0F0ED03D4B3E493E4AC6F874360123D0
:10D1900086F8BE36009CC6F86C16C6F870260023CA
:10D1A0006BE7BA88CBF80C704901B2FA82F241F011
:10D1B00009010AF1010AC2F11F024FF00303CBF883
:10D1C0000420CBF814108BF8104087F807A0BB712F
:10D1D00038463DF0C3FAE30738460FD53DF084FCEE
:10D1E000DBF80C30C8F81430BAF1040F0BF1200B47
:10D1F00008F11C08A7D1009C234B3EE73DF07AFCC8
:10D20000EEE7082F7FF4FAAE204BC6F8C436F5E6F9
:10D210001C4B1A4AC6F8A036C6F8A42600232CE7F1
:10D2200095F8F1301A4AC6F8C426012B05D0022B16
:10D2300006BFB8FA88F35B09002386F8C836DDE636
:10D24000490141F009014FF0FF33CBF81410CBF83E
:10D250000430CBF80C708BF810400AF1010AB7E7E4
:10D2600068380020585A002054390020E46000201B
:10D27000196B05083406060824610020B16904080A
:10D28000B9690408B5690408B46000201D6A04087F
:10D290004D6A040858060608803900207C060608F6
:10D2A000F8B56E4F97F8570097F858503CF0FAFED3
:10D2B00060B12D23C380202104463DF04FFA0A209F
:10D2C00031F080FD20463DF07BFC18B9D7F8B43A28
:10D2D000DA0000D5F8BD013D092DFBD897F856407E
:10D2E000D4B940202CF012FB0028F3D090F9043080
:10D2F00017F8271C092BC8BF143B3B440A2993F895
:10D30000B84A00F09D8093F8C43A97F84A20002A62
:10D3100008BF1C46002CDDD020463CF0C3FE05466D
:10D32000002800F085802D23C38001213DF016FAEE
:10D33000012108463DF02AFC2B68AA881A833C206C
:10D3400038F00EFD002101203DF020FC97F8583008
:10D35000002B4CD0424C00261FE02B68AA885A8331
:10D3600031F030FD94F8F31AD4F8F40A01F0010119
:10D370003DF0C6FB94F8F31AD4F8FC0AC1F380011F
:10D380003DF0BEFB2B68AA881A83782031F01AFD85
:10D3900097F8583001369E4229DA94F8F31AD4F8F7
:10D3A000F40AC94301F001013DF0AAFB94F8F31A15
:10D3B000D4F8FC0A81F00401C1F380013DF0A0FB28
:10D3C0007820002DC9D1782031F0FCFC94F8F31AB4
:10D3D000D4F8F40A01F001013DF092FB94F8F31A3D
:10D3E000D4F8FC0AC1F380013DF08AFBCDE797F841
:10D3F0005630ABB997F85730002B7FF46BAF97F8E6
:10D400005930012B7FF466AFD7F8B43A13F080534C
:10D410007FF460AF87F85830BDE8F84047F00ABFA6
:10D42000322038F09DFC284600213DF097F9E1E7D5
:10D4300001213DF093F9012108463DF0A7FB7EE76D
:10D44000D7F8DC3A5B057FF545AF0AF0E5FF002829
:10D450007FF440AF002C7FF45FAF3BE7585A0020C9
:10D460006838002048400822430010F0800F08BFB1
:10D47000400083F0D50314BFD8B2C0B2013AF3D153
:10D48000704700BF30B405688D424FF0000211D0E4
:10D4900011F8013B08245A40530012F0800F08BFD6
:10D4A000520083F0D50314BFDAB2D2B2013CF3D1FB
:10D4B0008D42EDD16B1C03602A7030BC704700BFF9
:10D4C00070B4344890F8E03AA3F13001092957D8F4
:10D4D00000F52E64224600F6EF2012F8015FA5F158
:10D4E0003001092904D88242F7D1002070BC70476E
:10D4F000141B022C4ADD2848002101E010F8013BF2
:10D5000001EB810103EB4103161A303B022E044666
:10D5100003F0FF01F2DC214B03FB01F1A2424FF0CB
:10D5200000030DD903EB830314F8016B5B00303B60
:10D530003344A24203F0FF03F4D1194800FB03F384
:10D540002E2D06D01748A0FB032301EB930070BCDF
:10D550007047013204200024157804EB8404303D28
:10D560006400092D00F1FF30A4B202D82C44A4B20B
:10D57000013210F0FF00EFD1642202FB0433E1E737
:10D5800000211D4600F52E620B46D9E7064C00210E
:10D59000C4E700BF585A00203965002080969800E3
:10D5A00040420F00ABAAAAAA3865002083B50C46FA
:10D5B000164605462CF05CF920462CF059F900215E
:10D5C000204B0846002E08BF1E463DF0DFFA002122
:10D5D00001203DF0DBFA28463CF018FDB0B10121F6
:10D5E00000203DF0D3FA28463CF008FD07462046CF
:10D5F0003CF008FD0028FAD0394620463CF00AFDF0
:10D600003846B047002108463DF0C0FA20463CF0BD
:10D61000FDFC0028DFD0012100203DF0B7FA2046B4
:10D620003CF0ECFC0146284601913CF0EBFC0199F2
:10D630000028F8D028463CF0EDFC002108463DF0DB
:10D64000A5FAC8E72F760308F0B50023C1E9003337
:10D65000C1E902330B61D0E900258DB007AEDFF8D8
:10D6600098E0C2F3056C37464CFA03F0C0073C461D
:10D6700004D513F80E0004F8010B27460133062BDE
:10D68000F2D11B4CDFF874E0C2F303200023205CCE
:10D690003B708DF82400C2F3073C0DF125074CFACE
:10D6A00003F0C0073C4604D513F80E0004F8010B44
:10D6B00027460133082BF2D100233B70C5F3435CAE
:10D6C000C5F3434409AB0846C5F34F05C2F3035104
:10D6D000CDE902150193CDE9044C02F00F03054991
:10D6E0000096C2F3031246F00DFB0DB0F0BD00BF73
:10D6F0009860060824600608A06006088C6006088A
:10D7000070B5094CD4F8F02A054662B10026D4F869
:10D71000F00A2D2101363EF0BDF9AE42F7DBBDE83F
:10D72000704045F09FBB70BD585A00202DE9F04372
:10D7300085B008B145F0A0FB164DDFF85C800024F1
:10D7400015F8023C0093424623460021012045F093
:10D75000D5FCDFF848902F46002615F8023C9E4283
:10D7600007F1040707D30134082C05F12605E7D19A
:10D7700005B0BDE8F08337F9023C029337F9043C69
:10D780004A46CDE9006300212346012045F0B6FC5E
:10D790000136E2E74E650020B0600608C860060862
:10D7A00070B51D4C0968D4F8285C1C4ED4F8244C84
:10D7B000D6ED477ADFED1A6A491B00EE901A016830
:10D7C000F8EEE00A091B60EEA70A00EE101A20EE40
:10D7D000A07AB8EEC00A1C46A0EE007AB1EE400A6C
:10D7E000F1EEC77A67EEA67AFCEEE77AC2ED007A30
:10D7F00046F07EFF9FED0B7ADFED0B7AE0EE077AC5
:10D80000FDEEE77A17EE902A002ABCBF02F50C4223
:10D81000A032226070BD00BF585A0020980100203D
:10D820002C7D8E3FA00CB34500A00C46F0B54A4EAF
:10D830008BB00324354696F83C3C042B23D01AF0D9
:10D8400035FB00B345480121FBF794FCD8B14448AF
:10D850000221FBF78FFCB0B1B6F83D3C49F207322C
:10D8600023F00801914207D049F20A32934203D0D3
:10D8700049F20B42934206D1032385F83C3C012434
:10D8800020460BB0F0BD42F2107031F09BFA354BE0
:10D8900004AA03F1100E944618685968174603C786
:10D8A000083373453A46F7D118681B79386015215B
:10D8B00060463B711AF0BAFB082101A81AF06FFC10
:10D8C000002843D09DF80430342B3FD19DF805301B
:10D8D000372B3BD19DF80630312B37D19DF80730DF
:10D8E0009DF8090085F83F3C9DF8083085F83E3CDE
:10D8F00085F83D0CB5F83D1C01F5BF521F3292B2C0
:10D9000041F2FE07BA4203D8012485F83C4CB7E740
:10D9100021F0080249F20737BA4207D049F20A3229
