:020000040800F2
:10000000F8FF012055E10A08F1E10A087108090822
:10001000F1E10A08F1E10A08F1E10A080000000034
:10002000000000000000000000000000F1E10A08EC
:10003000F1E10A0800000000F1E10A08E90B0908F3
:10004000F1E10A08F1E10A08F1E10A08F1E10A0820
:10005000F1E10A08F1E10A08B93E0908813E090800
:10006000493E0908113E0908D93D0908DD2E000066
:10007000CD2E0000BD2E0000AD2E0000992E0000F8
:10008000852E0000712E0000F1E10A08F1E10A0856
:10009000F1E10A08F1E10A08F1E10A08A13D0908C5
:1000A000F1E10A0899C60A08F1E10A0889C60A08B6
:1000B00079C60A0869C60A0859C60A0859AA0A0868
:1000C0007DAA0A089DA90A08C1A90A08F1E10A083F
:1000D000F1E10A0809200000FD1F0000F11F0000E7
:1000E000693D0908F1E10A080000000091C50A080D
:1000F000A1C50A0881C50A08C9C50A085D2E000005
:10010000F1E10A08C97D0A0849C60A08F1E10A08AE
:10011000E51F0000D91F0000D9C50A08D9880408C6
:10012000492E0000352E0000212E00000D2E00006B
:10013000F92D0000F1E10A08F1E10A08F1E10A08ED
:1001400000000000000000000000000000000000AF
:10015000E52D0000D12D0000BD2D0000CD1F0000B9
:10016000D9A80A0801A90A08F1E10A08F1E10A0878
:10017000F1E10A08F1E10A08F1E10A0800000000D3
:10018000F1E10A08F1E10A08C11F0000B51F0000F3
:10019000F1E10A08F1E10A08F1E10A08F1E10A08CF
:1001A000F1E10A08F1E10A08F1E10A08F1E10A08BF
:1001B000F1E10A08F1E10A08F1E10A0815A80A08C4
:1001C0003DA80A08F1E10A08F1E10A08F1E10A088C
:1001D000F1E10A08CD8C0408F1E10A08F1E10A080E
:1001E000F1E10A08F1E10A08F1E10A08F1E10A087F
:1001F000F1E10A08F1E10A08F1E10A08F1E10A086F
:10020000F1E10A08F1E10A08F1E10A08F1E10A085E
:1002100071C50A0861C50A0851C50A08F1E10A0852
:10022000F1E10A08F1E10A08F1E10A080000000022
:10023000FD7F0A08F1E10A0800000000F1E10A0868
:10024000F1E10A08F1E10A08F1E10A08F1E10A081E
:10025000F1E10A08F1E10A08F1E10A08F1E10A080E
:10026000F1E10A08F1E10A08F1E10A08F1E10A08FE
:10027000F1E10A08F1E10A08F1E10A0800000000D2
:10028000F1E10A0800000000F1E10A0800000000A6
:0802900000000000F1E10A0882
:0828000000001E080000200882
:020000040802F0
:04000000FFFFFFFF00
:020000040804EE
:10000000124B30B41D686B6A28B943EA01430020E3
:10001000AB6230BC7047AC6A013803EB14440BD0C0
:10002000002303F14002013305EB8202DBB2526888
:10003000834204EB1244F4D3403044EA014405EB1C
:1000400080004460002030BC704700BFD8100024FE
:100050000C480D4BD0F8201410B48A1E0B4C2231E2
:10006000C0F81034B0F82C341B01A4FB03C3DB0828
:10007000A3F5B06322F8023F9142F3D15DF8044B3F
:10008000704700BFD8100024154D0608CDCCCCCC4D
:10009000036870B55E6A26B133461522BDE870402C
:1000A000184704460D4601F1150600E023689B68D9
:1000B000204698470028F9D02368204615F8011BF0
:1000C0001B689847B542F1D170BD30B5EFF311818F
:1000D000802383F312880A4AD2F83C34D2F8404491
:1000E000D2F83C04D2F84054CAB282F31188013BE2
:1000F000A84294BF4FF4006000201B1B184430BD81
:10010000D8100024012380F851307047014BD3F8F8
:1001100044047047D810002401207047024BC3F8F4
:100120004824C3F84C147047D8100024024BC3F87D
:100130005024C3F854147047D810002470477047F7
:1001400000207047212870B505D0222829D020280A
:1001500010D0002070BD0029FBD0072AF9D1184B20
:1001600018791C685A799B79087100200C604A71D3
:100170008B7170BD0029ECD0072AEAD11148104BD1
:100180000C680E794D79D0F84C2489791C601E7169
:100190005D719971002ADCD02146D0F8480490475F
:1001A000D7E70029D5D0022AD3D1064AD2F8543451
:1001B000002BCED00988D2F850049847C9E700BF79
:1001C00000000024D81000240020704703460A22B3
:1001D00001481A80704700BF0800002403466422CB
:1001E00001481A80704700BF14000024012901D083
:1001F00000207047014BD3F89030184700000024CE
:10020000012901D009F0F8BD014BD3F88C30184713
:1002100000000024014BD3F8883018470000002468
:1002200010B40B780A46044603F00303012B05D0F3
:10023000022B0BD000205DF8044B70478B8843B92C
:10024000204611465DF8044B10F074BD8B88832B5B
:10025000F6D0034B5DF8044BD3F88030184700BF4D
:100260000000002438B5054B04460D46DB6F984767
:10027000294620460AF0BAFB002038BD00000024C1
:1002800038B5054B04460D469B6F984729462046D6
:100290000AF0E4FB002038BD000000242DE9F04303
:1002A000056893B02B6A1BB1002013B0BDE8F08342
:1002B00061F07F0101260DF107074FF000084FF0B4
:1002C00000098DF807100221044603938DF81430BD
:1002D00008920B930E931093029704968DF8286062
:1002E0008DF83C600991CDE90633CDE90C89EFF337
:1002F0001186102383F3128803681B6A03B302A8D4
:10030000049B02461BB1D3691432002BFBD12B6A2C
:10031000F3B1996839B9934209D0196829B15B687A
:1003200099680029F7D01433F3E7C3E90040F6B227
:1003300086F311882268136A002BFCD10120B4E7F0
:1003400002ABF6B22B6286F311886BF065F9F1E728
:100350001C60FFDE2DE9F843884600294FD047187E
:10036000461E284C802507F1FF39EFF3118185F3F4
:100370001288D4F83C24C9B2D4F84004D4F83C34F0
:10038000D4F840C481F31188634594BF4FF40063EF
:100390000023121A1344012B1AD1012050F034F912
:1003A000EFF3118185F31288D4F83C24C9B2D4F854
:1003B0004004D4F83C34D4F8407481F31188BB4233
:1003C00094BF4FF400630023121A1344012BE4D0AE
:1003D000EFF3118285F31288D4F84034D2B216F8C4
:1003E000011F234483F85814D4F840340133C3F375
:1003F0000A03C4F8403482F311884E45B5D1404613
:10040000BDE8F883D8100024F8B5002390F85050C8
:1004100080F85030CDB10F4E96F8F42E032A16D145
:10042000D6F8387F00F13C0429462046FFF792FFBA
:10043000D6F8383F2D1A0444DB1B322B01D8002D8F
:10044000F2D1B5FA85F04009F8BD0120FCE7184665
:10045000FAE700BFD8100024002280F85120D3E72B
:1004600090F85020531C0244DBB280F8503082F8E0
:100470003C1090F851200AB1132B00D9C4E7704703
:10048000F8B50B4E0D46144696F8F43E032B0ED1EC
:10049000D6F8387F002C0ADD21462846FFF75AFFA0
:1004A000D6F8383F241A0544DB1B322BF2D9F8BDAD
:1004B000D8100024454B98422DE9F04111D003F5A6
:1004C00068530833984256D00023414A1846A2F890
:1004D000A43FA2F8B03FC2F8A83FC2F8AC3FBDE8C5
:1004E000F0813B4C022300263A4F04F57465DFF897
:1004F000EC80C4F83C3FD7F8B0303146B34206F147
:10050000010603D0D4F8C00F62F046FC94F8C43F53
:100510002846D4F8C02F414685F82430303545F8B8
:10052000102C62F073FDD4F83C3F9E42E3DB0023C5
:1005300084F8B23FD4F83C3F0120D4F84C1FB4F803
:10054000442FD4F8485F12FB03F201FB03F3B4F825
:10055000506FA4F8A42FC4F8AC3FB4F8462F1E4B3C
:10056000C4F8D01FC4F8A85FA4F8B06FA4F8A62FF1
:10057000C4F8A03FB3E7164C02230026154F04F53C
:100580007465DFF85C80C4F83C3FD7F8B030314682
:10059000B34206F1010603D0D4F8C00F62F0FCFBB1
:1005A00094F8C43F2846D4F8C02F414685F824303B
:1005B000303545F8102C62F087FBD4F83C3F9E4262
:1005C000E3DB012384F8B23FB4E700BF1971EF0009
:1005D000D810002400000024280F0B081940EF0059
:1005E00021AAEF0070B5294C84B0054604F6D473F7
:1005F000C4F82034FFF72CFD1A21254A254B402052
:1006000084F80A14C4F81424C4F8183448F04CFDD3
:10061000002839D0002D204C90F904004FF003063B
:1006200014F8E72C14BF4FF4E1334FF4E12314F82E
:10063000E61C002A14F8E52C00934FF0000318BFC5
:100640000225019608BF1D46994214BF3021194664
:100650009A4218BF45F00105104A0D43402102950A
:1006600050F072F844F8D00C58B10D4818F05EFC08
:1006700014F8CB3C04F8CC0C54F8D00C0BB904F8AB
:10068000CB6C003818BF012004B070BDD810002416
:1006900011980608C9AA0608D0210024B54006080A
:1006A0001DAD06080E4B07B5D3F8B4205208B2FBB7
:1006B000F1F3B3F5803F02D3012AF7D8F9E799B2F5
:1006C00001906CF0A9F90749074B002201F2A471CF
:1006D00001980B6003B05DF804EB6CF02DB800BF1F
:1006E00000000024D02100242DF10508F8B5214C8C
:1006F0001D270E46054684F8AC772BF079FB0020C9
:100700002BF016FB08202BF013FB0E202BF010FB18
:1007100038462BF00DFB04202BF00AFB04202BF0B5
:1007200007FB00202BF004FB30202BF001FB002006
:100730002BF0FEFA30462BF0FBFA00202BF0F8FAF3
:100740002BF040FB04F2AD702BF058FA234670B149
:1007500094F8AD2762B994F8AE27302A00D03AB9A0
:1007600093F8AF2722B993F8B03701202B70F8BD6A
:100770000120FCE7D0210024154BDB68C3F30223E2
:1007800010B4C3F107041A1D042C28BF0424062A40
:100790004FF0FF328CBF033B0023A240002821EA28
:1007A000020101FA03F108DB09010A4BC9B2034453
:1007B00083F800135DF8044B704700F00F00090147
:1007C000054BC9B2034419765DF8044B704700BF6E
:1007D00000ED00E000E100E0FCEC00E02D4B41F218
:1007E00087302D490022D3F8B430A1FB03132B49E5
:1007F000DB0C10B52A4C013B82B0C4F8CC0704F5E1
:10080000F860C4F8C017C4F8D027C4F8C827C4F8E3
:10081000C4370DF06BFC234B06213720D3F8E820BA
:1008200042F02002C3F8E820D3F8E83003F02003B8
:100830000193019BFFF7A0FF1B4B4FF400025A608E
:1008400094F8FD37012B14D1D4F8C0370221174A90
:1008500084F8FD17D96841F00101D96099680A4010
:10086000062A06D0B2F5803F03D01A6842F0010292
:100870001A600F4B00200F49D3F81C2F03F58B642F
:10088000C3F85404C2F81002C3F84C04C2E981143E
:1008900002B010BD0000002483DE1B4300140040A2
:1008A000D02100240044025800E100E007000100CC
:1008B000D8100024DC29002403689B0AA3F58013C8
:1008C000522B00D970470F4A134493F838300D2B40
:1008D000F8D803EBC30200290B4903EB420370B5C0
:1008E00084B014BF002602264279012501EB830063
:1008F00000246946CDE90065CDE902440DF09EFA79
:1009000004B070BD280F0B08DC3100240C4B4FF6EF
:10091000FF71D3F8B42010B5044652086CF07CF88F
:1009200000212046FFF7C8FF0649074B204600225A
:1009300001F5F5610B60BDE810406BF0FDBE00BF36
:1009400000000024D0210024EDAD05084309012258
:1009500000F01F008AB0023B02FA00F0082B11D809
:10096000DFE803F0665A4E42362A1E120500364B67
:10097000D3F8F4200243C3F8F420D3F8F420104055
:100980000190019B0AB070472F4BD3F8E02002433F
:10099000C3F8E020D3F8E02010400590059BF1E774
:1009A000294BD3F8E4200243C3F8E420D3F8E42031
:1009B00010400290029BE5E7234BD3F8D42002437A
:1009C000C3F8D420D3F8D42010400690069BD9E772
:1009D0001D4BD3F8DC200243C3F8DC20D3F8DC2025
:1009E00010400890089BCDE7174BD3F8D82002435E
:1009F000C3F8D820D3F8D82010400990099BC1E74C
:100A0000114BD3F8EC200243C3F8EC20D3F8EC20D0
:100A100010400390039BB5E70B4BD3F8E82002434B
:100A2000C3F8E820D3F8E82010400490049BA9E71D
:100A3000054BD3F8F0200243C3F8F020D3F8F020A0
:100A400010400790079B9DE7004402582DE9F04FA6
:100A5000DFF840A3C24D5446C24F2DED048B9DB02C
:100A600007900FCD0FC40FCD2E6897F88A530FC48F
:100A700097F8903326600A2D00F2F082DFE815F037
:100A80000B00EE020B030603EE02EE02EE02EE0294
:100A9000EE020B00010301239FEDB38AB34A0493D6
:100AA000F0EE488AB24BCAF81820CAF81030B14BA1
:100AB00078EE287ADFEDAC6AB5EE007AAE4ADFF860
:100AC000E4B228EE268A02F123090027C7EE279A0E
:100AD0009FEDAA9A5D460392CAF81430079BBB4269
:100AE00040F30181039B13F8014B0393002C00F0AA
:100AF0000081002302E0152B00F0FB8003EB430292
:100B00004FEA4308013312F80910A142F3D1954B83
:100B10001A4492F8B913002900F09E82204648F04A
:100B2000ADFE0646304648F0C5FE03780593002B1F
:100B300040F0DF807B1C8B4A06939044DBB203229B
:100B400088F8F93388F8F823002E00F0D2804FEAB5
:100B5000141804F00F0C08F1FF38B8F1060F00F27A
:100B60004B81874C04EB4801B1F8B00040FA0CF11E
:100B7000CA0740F141810121A044029301FA0CF11E
:100B8000DFF824B2013908406DF06CF998F8C01014
:100B9000029B03220144DFF814C2AE610BEBC108D3
:100BA00088F8062088F807305BF83130C5F81480E3
:100BB0009C44737A4FEA9C2C029304EB4C04B4F8E7
:100BC000C800FFF7C3FE029BB8F804400222189346
:100BD000059B5BF8310014A914941592CDE91633E6
:100BE00013F092FB049B002B00F08D805D4BB3F85B
:100BF000883307EE903AF8EEE77AFCEEE77A17EEE4
:100C0000908A33685F4A93420FD002F58062934224
:100C10000BD05D4902F58042934218BF8B4204D04D
:100C200002F58062934240F00E820EF075FA574B47
:100C3000DA69C2F3022255494FF6FF73544C096931
:100C4000C1F3C03142EAC1020499A45C00FB04F480
:100C5000B4FBF8F21A44120CB4FBF2F2029211B196
:100C6000B2FBF8F39BB2DDED027A3E4AF8EE677A0A
:100C700092F88A2367EE886A092A29EE667AC5ED1A
:100C8000026AA7EEA87A85ED037A43D04FF0000CF4
:100C9000029A31462846CDF804C0CDF800C03EF097
:100CA000C9F8002F00F0A6806B68DAF83420934270
:100CB00000F0D081012F00F09D80DAF8502093429F
:100CC00000F0C881032F40F09580DAF86C20D31A29
:100CD00018BF0123069F01222B741C35042F05F831
:100CE0000B2C7FF4FBAE2B481DB0BDEC048BBDE894
:100CF000F08F294A00201F4BCAE905321DB0BDEC18
:100D0000048BBDE8F08FFAFE697AFCEEE77A17EE05
:100D1000908A76E701210020029A019131460090E5
:100D200028463EF087F833680B939B0AA3F580139F
:100D3000522BB6D8124A134493F838200D2A099240
:100D4000AFD8DAF8AC30002BABD1144B0C21DFF864
:100D500060809C568B460A960895114E2CE000BF89
:100D6000B40F0B08C83200246F12833AA5BC0708E1
:100D700049130908451309085D36002400007A4428
:100D8000280F0B08000001400040014000440258B9
:100D900000B20B081801002025AD0708F0B10B08C0
:100DA0008036002448010020EC3600240000FEA715
:100DB000BF360024B04523D03078033616F8021C25
:100DC0000028F7D00029F5D048F058FD0546002846
:100DD000F0D000686BF0A8FEA042EBD16B795B45C8
:100DE000E8D1ABF1040B1BF0FF0BB6D1089D002F2F
:100DF0007FF45AAF01236DE7059BAE616B61F1E6AD
:100E000009994C23089D4FF0190E08460B9AC149C9
:100E10000A9E02F1340803FB00130299CAF8AC5091
:100E200072790EFB01F4DFF834C3910853F8EC0C2F
:100E30004244D8448AF8EC102968B4FBFCFED1F88F
:100E400000C00021C46ACAF8A480A4EB0E0413F801
:100E5000B08C4FF0020ECAF8A820CAF8B8C04FF400
:100E60008072CDF838C0B8F1010F4FF4007CCAF899
:100E7000B040A94C0D912C601292CDF83CE0CDF819
:100E80004CC0CDE910111ED00121ABF1040203F8D2
:100E9000B01C1346082B0DD8DFE813F038010C0006
:100EA0000C000C0034010C000C000C0009000DA912
:100EB0000CF0CAFE09994C2300220846954903FB11
:100EC000001303F8B02CB44614ACDFF894E2BCE88D
:100ED0000F000FC49CE80F0084E80F0000228F4928
:100EE00014A88DF855B0CAF8A0E06BF025FC336863
:100EF0008B4A934200F07D81B3F1804F00F07B81FB
:100F0000A2F57C42934200F0838102F58062934215
:100F100000F03D8102F58062934200F0778102F596
:100F20008062934200F0768102F58062934200F085
:100F3000738102F57042934200F07281A2F56C4217
:100F4000934200F06B8102F58062934200F06E8163
:100F500002F58062934200F0678102F5903293427D
:100F600000F0608102F58062934200F0618102F539
:100F70008062934200F06081002B00F05B81BDF93C
:100F8000140001210290FFF7F7FB029814F0D2FC45
:100F900009994C229DF8553008465E4902FB001223
:100FA000002B7DD112F8AE1C01297FF47AAE02210C
:100FB00002F8AE1C09994C220846564902FB001261
:100FC00052F8EC1CCA6842F00202CA6009984C242C
:100FD00003F01F03012106464E48514A994004FB85
:100FE0000604504E504854F8EC3CB34218BF9342AC
:100FF0001C6A06F580460CBF0122002224EA010487
:10100000834208BF42F001021C62186AB34208BF63
:1010100042F001020143196212B9444A934203D1DA
:101020005A6C42F400425A649968414A0A40062ABE
:101030003FF437AEB2F5803F3FF433AE1A6842F06A
:1010400001021A602DE60EF079F83A4BDA69C2F324
:101050000212F0E500233DE60E4663E59FED368A79
:10106000F0EE488A002B354A354B0EBF0021012196
:101070001346344A04913449CAF81020CAF81810AB
:1010800016E59FED328AF0EE488AEBE79FED308A55
:10109000DFED308AE6E79FED308AF0EE488AE1E73F
:1010A000042B00F09180082B79D00C2B5AD0102BF8
:1010B00000F0A38012F8A91C01297FF4F2AD0221EF
:1010C00002F8A91C0C2B81D801A252F823F000BF12
:1010D000B50F0408CD0F0408CD0F0408CD0F040888
:1010E000D9110408CD0F0408CD0F0408CD0F040852
:1010F000AF110408CD0F0408CD0F0408CD0F04086C
:10110000751104080DA90CF0D3FDD3E60DA90CF060
:1011100011FECFE6C8320024D0010020B801002023
:10112000000001400004014000400140004801402F
:1011300007000100004402586F12033945130908E3
:10114000A9AB070849130908A5BC07086F12833A21
:10115000ACC5A737ACC5A7362829303840420F00A8
:10116000C1AD070812F8AB1C01297FF49AAD02212A
:1011700002F8AB1C09994C220846304902FB0012C8
:1011800052F8EC1CCA6842F01002CA601EE7032342
:101190002B4A02EBC30393F8E2300593EFE612F813
:1011A000AC1C01297FF47DAD022102F8AC1C099929
:1011B0004C220846214902FB001252F8EC1CCA6876
:1011C00042F00802CA6001E712F8AD1C01297FF461
:1011D00068AD022102F8AD1C09994C220846174956
:1011E00002FB001252F8EC1CCA6842F00402CA600A
:1011F000ECE60023CCE70123CAE712F8AA1C012978
:101200007FF44FAD022102F8AA1CDFE60423BFE7FA
:101210000223BDE70523BBE70623B9E70823B7E7A9
:101220000723B5E70B23B3E70A23B1E70923AFE7A9
:101230000C23ADE70E23ABE70D23A9E7C83200244A
:10124000280F0B0800284DD0274A2DE9F84F0446F7
:10125000264B006803449B0A02EB4303B3F8C80023
:10126000FFF774FBB4F804C02368BCF1000F37D05B
:1012700000204FF0010B4FF0030A4FF00F0900F070
:1012800007020BFA00FE45000224C7081CEA0E0FF5
:101290004FEA82020AFA05F603EB870700F1010024
:1012A00009FA02F804FA05F501FA02F215D09C6871
:1012B00024EA06049C605C6824EA0E045C60DC6836
:1012C00024EA0604DC603C6A24EA080414433C6215
:1012D0001A6822EA06022A431A603CFA00F2CED1CA
:1012E000BDE8F88F704700BF280F0B080000FEA76D
:1012F00000284CD0264A2DE9F84F0446254B0068BB
:1013000003449B0A02EB4303B3F8C800FFF71EFB3C
:10131000B4F804C02368BCF1000F36D000204FF0B1
:10132000010B4FF0030A4FF00F0900F007020BFA10
:1013300000FE45000224C7081CEA0E0F4FEA820295
:101340000AFA05F603EB870700F1010009FA02F833
:1013500004FA05F501FA02F214D09C6834439C604B
:101360005C6824EA0E045C60DC6824EA0604DC6045
:101370003C6A24EA080414433C621A6822EA060222
:101380002A431A603CFA00F2CFD1BDE8F88F7047CB
:10139000280F0B080000FEA7004870474C370024B8
:1013A00070B4204D06460468E36931EA030323D094
:1013B000D5F8A4379B1AB3F1007F23681FD25807D2
:1013C000F2D5E3691B05EFD54FF40062202300211D
:1013D00003202262226822F4D0722260A26822F0E6
:1013E0000102A260C6F8803086F87C10C6F884300E
:1013F000C6F8883070BC7047002070BC704723F47A
:10140000D0732022002103202360A36823F001036E
:10141000A360C6F8802086F87C10C6F8842070BCD3
:10142000704700BFC83200240128B5EEC00A10D0B2
:10143000F1EE10FA0BDD9FED177ADFED177AE0EE93
:10144000077AFCEEE77A17EE903A98B270470020E0
:101450007047F1EE10FA0BDD9FED107ADFED107A98
:10146000E0EE077AFCEEE77A17EE903A98B2704712
:10147000EDD5F7EE006A9FED0B7ADFED0B7A30EEDB
:10148000260AE0EE077AFCEEE77A17EE903A98B279
:10149000704700BF00E0F9440000404200C07944BA
:1014A0000000834400C079C400E08244F8B5474E90
:1014B00096F8A84704EB8403A50006EB830393F892
:1014C000AC37032B77D8DFE803F0492A1F02254405
:1014D00006EB8505D5F8B037002B6ED196F8FC27C2
:1014E000944268D0013404F003018A4286F8A817B8
:1014F00061D001EB81040222184606EB8404C4F893
:10150000B03784F8AC27F8BD2B1906EB8303D3F86A
:10151000B02772B1013A0020C3F8B027F8BD2B19EB
:1015200006EB8303D3F8B027002AF3D1022283F815
:10153000AC27254406EB850595F8B837013BDBB2AF
:1015400085F8B837F3B1224B0120D3F8B82002F266
:10155000E733B3FBF2F3C5F8B037F8BD53F0F0FD55
:1015600048B31B4A42F20F732C440121D2F8B82031
:1015700006EB8404134484F8AC17B3FBF2F3C4F80D
:10158000B037F8BD124B601C0327D5F8B417D3F859
:10159000B820384096F8FC47531E85F8AC77001BFE
:1015A0000B4418BF01209A42B3FBF2F188BF002020
:1015B000C5F8B01730B90120F8BD013B0020C5F8CF
:1015C000B037F8BD0139C5F8B017F8BDC8320024EE
:1015D0000000002438B590F83C30012B00F08F80DB
:1015E000012304460D4680F83C30142A1DD8DFE85C
:1015F00002F0201C1C1C341C1C1C491C1C1C5D1CE7
:101600001C1C721C1C1C0B0000680CF0B5FA236833
:101610002869596D41F400615965596D21F4806163
:1016200059655A6D42EA00225A65002084F83C0050
:1016300038BD00680CF0C2FB23682869996941F045
:1016400008019961996921F0040199619A6902433D
:1016500000209A6184F83C00EAE700680CF06AFB1D
:1016600023682869996941F400619961996921F4B5
:10167000806199619A6942EA002200209A6184F8A7
:101680003C00D5E700680CF013FB23682869D96992
:1016900041F00801D961D96921F00401D961DA6901
:1016A00002430020DA6184F83C00C1E700680CF0D6
:1016B000CBFA23682869D96941F40061D961D969F5
:1016C00021F48061D961DA6942EA00220020DA61FE
:1016D00084F83C00ACE700680CF082FA23682869C3
:1016E000596D41F008015965596D21F004015965A2
:1016F0005A6D024300205A6584F83C0098E70220A6
:1017000038BD00BF2DE9F04FDFF8E0B18DB06C229D
:1017100000210BF500606FF04BFA0BF66C004FF4F4
:10172000317266496EF0E2FA9BF8303B3BB19BF8B0
:10173000312B9BF8323B8BF800288BF801389BF853
:10174000333B1BB1BBF8343BABF80C389BF8363B52
:101750003BB19BF8372B9BF8383B8BF818288BF85C
:1017600019389BF8393B1BB1BBF83A3BABF824382E
:101770009BF83C3B3BB19BF83D2B9BF83E3B8BF8E9
:1017800030288BF831389BF83F3B1BB1BBF8403B0E
:10179000ABF83C384A4B00254A4A1B8812881B0983
:1017A000494C4A49C3EB12102288CBF8503B13092D
:1017B000474C484F484ECBF84C3B91FBF0F1CBF8EF
:1017C000541B0DE0072D00F0E981082D00F0ED819C
:1017D0002078002840F0A78101350C34092D2AD04B
:1017E000062DEFD102214FF4802CB8460A46EC2397
:1017F0004FF0070E6170012103FB02B32078C4F89B
:101800000480D3F8542984F80AE042EA0C02617299
:10181000C3F854290028DFD051F0CEFEEB1DDBB217
:1018200010B100228371C2710135032152F038F9E1
:101830000C34092DD4D1294C0025DFF8B490DFF801
:10184000B480274FDFF8B0A0264E54F8083C002B98
:1018500000F00581D4F8E020002A00F00081EC229D
:10186000236002FB05B2D2F8C81841F00201C2F8A9
:10187000C81899689A6801F0040102F008020A4346
:10188000DA6845D0920105D5A18A40F20112914251
:1018900000F0FB829A68520700F1EC829A68120706
:1018A00008D59A68910705D499680F4A0A4042F012
:1018B00020029A600C21DBF8A40725E08C100B08AD
:1018C00020E8F11F40E8F11F60E8F11F80380100B7
:1018D000C83A0024000084CB280F0B083C3B0024AE
:1018E000200882E000210240C0FFFF7FC8320024B0
:1018F0001CF800FC300882E0E03000FEDBF8A42792
:10190000121A052A00F2DB829A680A42F6D1DA68D6
:1019100042F400122046DA6014F01AF8002800F0B1
:101920008382236840F2FF7CAA490022D3F804E0B6
:101930000EEA0101DFF8B8E25960C3F800C0996807
:10194000DFF8B0C221F0A0419960996841F00051E0
:101950009960D96801F08021D960D96841F00041CF
:10196000D960196901EA09011961596901F0404119
:101970005961996901F078419961196A01F07C41D6
:101980001962596A01F07C415962D3F8B01001F034
:101990007C41C3F8B010D3F8B41001F07C41C3F817
:1019A000B410D3F8B81001F07C41C3F8B810D3F8E4
:1019B000BC1001F07C41C3F8BC10196B01EA0801AE
:1019C0001963596B39405963996B39409963D96BE5
:1019D00001EA0E0E8049C3F83CE08B42D3F860E088
:1019E0001A66D3F864E05A66D3F868E09A66D3F8CA
:1019F0006CE0DA66D3F8A02002EA0C02C3F8A0205B
:101A0000D3F8A42002EA0C02C3F8A420D3F8C02023
:101A100002EA0C02C3F8C020D3F8C42002F0F82276
:101A2000C3F8C42000F09081B34200F08D816B4B6D
:101A30009B68DB0704D46A4B9A6802EA0A029A6040
:101A4000EC22002302FB05B2C2F8CC38C4E91733FC
:101A5000C2F8C83884F85030002840F0748101354D
:101A6000EC34032D7FF4F1AEDFF880914FF0000AE3
:101A70004D46D046CDF81490D5F8E830002B40F014
:101A80006E8108F10108EC35B8F1030FF4D100269E
:101A9000DDF81490DFF860813546524FDFF85CA125
:101AA000D9F8E830002B00F04581D9F808404A4ABF
:101AB000944200F05281444500F04F8148488268CA
:101AC000A16849072ED499F8581001292AD002F0AC
:101AD0001F020121092A89F8581000F2C48140F23E
:101AE0002121D140C90740F1BE81A16811F0010157
:101AF00040F09E80D4F808E0DFF804C11EEA0C0F25
:101B00005AD0EC2303FB05B5D5F8C83885F8C418BE
:101B100043F01003C5F8C838D5F8CC3843F00103BA
:101B2000C5F8CC38FEE7304A002301331E2B3FF4C2
:101B300053AE12F80C1F8842F7D194F901104A1ED7
:101B400041B103EB430106EB810191F829141141E6
:101B5000C90716D403EB43012448002206EB810198
:101B6000D0F800C0EC30BCF1000F06D091F829C4C9
:101B70004CFA02FC1CF0010F03D10132032AEFD111
:101B80002AE60C204FF0010C51B200FB036393F8DE
:101B90003004D3F82C840CFA00FC28E602214FF420
:101BA000002CDFF860800A4621E602214FF4003C59
:101BB000DFF854800A461AE6A168394041F0010175
:101BC000A160DBF8A4C78168C9062ED044452CD19A
:101BD0002EE000BF00F8FFFF002002400060025826
:101BE00000630258C0FFFF7F50130B08343B0024F2
:101BF00020F8FFFF0000F0FF002102400023024018
:101C00003F0000800000B8CF000052C7A168C8079D
:101C100004D4A168394041F00101A160DBF8A417A8
:101C2000A1EB0C01022900F25B842168C907EDD504
:101C3000EC20AD49444500FB05B0D0F8C8C80CEA1B
:101C4000010141F48071C0F8C81800D142B9EC22FA
:101C500002FB05B2D2F8C81821F48011C2F8C818E6
:101C6000EC2202FB05B2D2F8C81811F4805140F002
:101C70002283C2F8CC184FEA530ED9F854009908C1
:101C80009A4A0EF0773E01F03331C263DA088E448F
:101C9000974902F01132A3EB0E0E0164954B1C2103
:101CA000AEEB020EC364FF2321600EEB1E1E6268C2
:101CB00000210EF00F3E42F0100289F8581004F196
:101CC00040016260E268BEFBF3F322F0030CD9F836
:101CD0003420C3EB03234CEA0202DFF840C2AEEB30
:101CE0000303E2600CEB460213F06EF9D9F808200A
:101CF00093683B4043F004039360002840F0A483C2
:101D0000D9F8E8307C4A59089C0801F07731D808A6
:101D100004F0333400F0113021445B1A1B1A03EB3A
:101D2000131303F00F33A2FB0312D209C2EB0222FA
:101D30009B1A1E44013509F1EC09032D7FF4B0AE66
:101D40000DB0BDE8F08FFEE76C4B9B68B2681343A3
:101D5000DA073FF575AE6A4B6EE65046AFE6A888E7
:101D60000426FEF7F3FDD5F8E830FF22AE615908EE
:101D70009C0801F07731D80804F0333400F01130BA
:101D8000214403245B1AEC211B1A286801FB08B1CB
:101D900003EB1313A8604FF4403003F00F33E860F7
:101DA0000820B3FBF2F2C2EB0222286101209B1A49
:101DB000002268612B624FF480536877A8622A770B
:101DC00085F8242085F840200692C5E90B22C5E954
:101DD0000D43D1F8C838002B00F00982AF68BB680A
:101DE000980003D5BA68474B1340BB60BB6813F03B
:101DF000805F454B1FD00193BB68D90040F1E7815C
:101E00000024BB685A0740F18B80EC2303FB08B326
:101E1000D3F8C838EC2303FB08B3D3F8C82842F042
:101E20001002C3F8C828FEE7EC23012203FB05B328
:101E3000C3F8C82875E5B9681A460193334BD2F840
:101E4000B4200B403249B2FBF1F243F08053BB6047
:101E50000692069B002BCFD0069B013B0693069B68
:101E6000002BF9D1C8E7EC22002302FB05B585F869
:101E7000C43857E69A6891073FF510AD9968254A2E
:101E80000A4042F010029A6008E51A68500606D42B
:101E9000214A01E0013A12D019684906FAD54022D8
:101EA0001A609A68500708D59A68900705D499680F
:101EB000184A0A4042F010029A600421FBE4EC2226
:101EC000012002FB05B2D2F8C81841F01001C2F897
:101ED000C818D2F8CC180143C2F8CC18DA6842F41A
:101EE0000012DA601DE500BFFEF0FFFFCD1C050803
:101EF000C91C0508B51C05088180808000200240AF
:101F000000230240C0FFFF5F00000024C0FFFF6FFE
:101F1000400D0300C0FFFF7F00DC0C002087012480
:101F2000EC2303FB08B3D3F8C828D6063FF572AFFD
:101F3000D3F8C82822F4817242F00202C3F8C828FC
:101F4000BB68DB0713D4AC4B9F4200F0BF8203F5A4
:101F500080739F4200F0BA82A84B9B68D80706D4D2
:101F6000A7498B68EA6823F47C1313438B60A54A66
:101F700041F203031268B3EB124F2A69C0F0A28149
:101F8000AB6B697F134395F8242043EA413343EA5E
:101F90000243012A03D1AA6A013A43EA4243EA6AA8
:101FA00022B102F47872296B0A431343F968964A06
:101FB0000A401343FB60B868BB6800F0040003F0FC
:101FC0000803184300F02C81AB686A69012A00F00D
:101FD000FD811A6B22F00F021A63EC2707FB08B78A
:101FE000D7F8C83807F6C80623F0030343F0010307
:101FF000C7F8C838002C40F0908195F85830079405
:10200000012B00F0828105F1080318460493012397
:1020100085F8583013F09CFC002840F07781D7F801
:10202000C8187A4A7A4B0A407A4942F00202C7F845
:10203000C828AA689068034043F0004393609368FF
:10204000002BC0F24D81EC220020734F02FB08B23E
:1020500001460290D2F8C83823F0030343F001038D
:10206000C2F8C83885F8580006E0029B0C370133E7
:10207000092B029300F062817B7A002BF5D097F94F
:1020800001304345F1D1654B00224E1C87F808A072
:1020900003EB810095F858300AF101010892012BF9
:1020A000D0F890457A68039100F04781AB68012031
:1020B000996885F85800490700F13081C2F3130E82
:1020C000BEF1000F40F08A81C2F3846C910E00FAD9
:1020D0000CF0D3F81CA04FEA941903F1300C04F073
:1020E0001F044AEA000A09F00C004FF01F09C3F868
:1020F0001CA001EA090150F80CA009FA04F9A1405A
:102100002AEA090949EA010140F80C10986899681F
:1021100000F0040001F00801014345D1D10DC2F3E4
:10212000045A03F114044FF0070901F004014FF0C1
:10213000060C09FA0AF908590CFA0AFCDFF8C4A0DF
:1021400020EA090040EA0C000851DAF8001001F01A
:102150007041B1F1805FD96800D0D968196E9006DE
:1021600001F0F841B1EB826F03D1196E21F000410B
:102170001966596E01F0F841884203D1596E21F079
:1021800000415966996E01F0F841884203D1996E79
:1021900021F000419966D96E01F0F841884203D1DF
:1021A000D96E21F00041D9669968C80708D4D3F8E0
:1021B000C010002A21EA0E01C3F8C010C0F2188135
:1021C00000233146DDF80CA085F858304DE7EC23AC
:1021D000012403FB08B3D3F8C82842F01002C3F867
:1021E000C828D3F8CC282243C3F8CC2809E6C1F884
:1021F000CC3885F85830F1E50020024000600258E4
:10220000006302580010005C03C0F0FFFDEEFFFF0A
:10221000C0FFFE3F00F8C325C83A0024280F0B0872
:10222000FB68BD4A297F1A406B6B42EA813295F800
:10223000401013430129FB6000F088813B6923F0C3
:1022400001033B613A69EB6B22F07042B3491343DF
:102250008F423B6100F05881B14B9F4200F05481A6
:10226000B04B9B6813F4403F14BF01230023002BA5
:1022700000F0A0810CF020FFEB68B3F5003F00F008
:102280009581B3F5403F00F08181B3F5803F00F0C8
:102290008D81A54A41F203031268B3EB124FC0F0DF
:1022A0006C81A24B984240F26281AB689A6842F41A
:1022B00080729A6089E6D2F8CC1821F00601C2F843
:1022C000CC18D8E4102A7FF45BAE95F82420687F00
:1022D0001104AB6B41EA40310B4343F01C0358E659
:1022E000079B01330793079B8B42FFF4A8AEEC23B7
:1022F000002103FB08B3D3F8C82883F8C41822F0E0
:10230000120242F01002C3F8C828FEE7336887F8CB
:10231000C44843F010033360F7E784E5EC2303FB84
:1023200008B3D3F8C82842F02002C3F8C828EC2329
:10233000002203FB08B383F8C428FEE77C4B5FFA56
:1023400088F602204344314693F9192051F02CF8C5
:1023500047680446384651F017F801994FF0240CAD
:10236000431E0CFB031393F8D81000297FF4E8AC4C
:1023700001364FF0060C83F8D96083F8D8C00028E6
:102380003FF4DEACA3684FF480644FF48072EF66D4
:102390002B674FF400664FF480334FF40057EC671F
:1023A00005F16C046967A967C5E92223C5E92067BF
:1023B00068F0B8FF204612F0B1FF204613F090F805
:1023C000049B6C65C5F8A430FFF75BBB196B2A6AE8
:1023D00021F00F01013A0A431A63FEE592FAA2FCCA
:1023E000BCFA8CFC910E0CF01F0C00FA0CF070E69D
:1023F0004A498B422AD001F580718B4226D04D4943
:1024000048488468896804F0E07CC94301F0010110
:10241000002983D048498A4239D048498A4226D087
:1024200047498A427FF4CCAE64023FF5C9AE414AC7
:1024300093427FF4C5AE836823F0E07343EA0C0354
:1024400043F480038360BBE6FFF76CBB3D498C68B7
:102450000846A1F5407104F0E07CD1F80890D1F86D
:1024600008E149EA0E01C94301F00101D0E7E201A8
:102470003FF5A6AE2F4A93427FF4A2AE836823F0C5
:10248000E07343EA0C0343F08073836098E6210213
:102490003FF596AE274A93427FF492AE019B826845
:1024A000D3F8B430284922F0E072B3FBF1F342EAEA
:1024B0000C0C5A004CF400038360089202E0089B65
:1024C000013B0893089B002BF9D179E6134B144A82
:1024D0009B6892681343DE073FF549AD194940E513
:1024E000EC23002203FB05B5D5F8C83885F8C428CD
:1024F00043F01003C5F8C838D5F8CC3843F00103D1
:10250000C5F8CC38FFF70EBB0E4B9B6813F4403F69
:1025100014BF01230023AAE6FCBFFFFF00200240F6
:1025200000210240006302580010005C002D3101C0
:10253000F83D002400600258000084CB000052C720
:102540000000B8CF00230240400D0300D5E911235D
:10255000E96C013A2E6D0B43396943EA02434F4A55
:1025600033430A40134343F001033B616AE6AB681F
:102570009A6822F480729A6027E5494B984207D8FE
:10258000AB689A6822F440729A601EE5800880E683
:10259000444B98423FD9444B9842AB689A6824D840
:1025A00022F4407242F400729A600EE51B0CB0FBFC
:1025B000F3F06EE63D4A936D03F44033B3F5803F8C
:1025C0005BD0B3F5003F4BD0002B5FD0EB68B3F589
:1025D000101F43D00DD8B3F5E01F3DD023D9B3F57C
:1025E000001F7FF456AE400953E642F440729A60F1
:1025F000EBE4B3F5201F4ED0B3F5301F7FF449AEA6
:102600002B4A41F203031268B3EB124FAFD2244BB3
:10261000B3EB102FB4D2AB689A6822F4407242F444
:1026200080729A60D1E4B3F5801F07D00BD9B3F55F
:10263000A01F03D0B3F5C01F7FF42BAE9B0C5B0033
:10264000B0FBF3F025E6B3F5002FF7D023F400221A
:10265000B2F5802FF2D01CE600091AE6800918E6D0
:10266000D36C13F040530FD0B3F1805F0AD0114AFE
:10267000B3F1005F08BF1046A8E709A80BF0DCFD26
:102680000B98A3E70C48A1E70C489FE709A80BF0BB
:102690007FFE09989AE7C009FBE500BF1EF800FC21
:1026A00021BCBE0041787D0181F0FA02004402584D
:1026B0000010005C00127A0000093D000090D00379
:1026C0002DE9F041D0F800E00C46DFF8588084B0E6
:1026D000DEF804501746DFF850C0194605EA080531
:1026E000DDF82880064603932C43424644EA0C0C4E
:1026F000CEF804C00EF098FC78B931680246039B0E
:1027000030468F628021CDF800800EF0BDFC00388D
:1027100018BF012004B0BDE8F081012004B0BDE87D
:10272000F08100BF009800FC00200181F8B5134F34
:1027300004460D460AE09B69DB0602D50EF034FC28
:10274000D0B9D7F8A4375B1B0A2B08D823682A46D0
:102750000A2120469E69B606EDD50020F8BD636CBF
:102760002021002201200B4384F84020636484F878
:10277000411084F84220F8BD0120F8BDC832002481
:102780002DE9F041D0F800E00C46DFF8588084B025
:10279000DEF804501746DFF850C0194605EA080570
:1027A000DDF82880064603932C43424644EA0C0C8D
:1027B000CEF804C00EF038FC78B931680246039BAD
:1027C00030468F624021CDF800800EF05DFC00386D
:1027D00018BF012004B0BDE8F081012004B0BDE8BD
:1027E000F08100BF009800FC00200180F8B5364C55
:1027F00005460821D4F8580BD4F8A4670AF072FFF4
:1028000000B1F8BDD4F89C1BD4F8580B09040AF0A9
:1028100009FF0028F5D1D4F8583B4FF0FF310822CA
:1028200059629A6201301F28FCD9DA6A00202749D0
:1028300041F2331722F0FF0242F03302DA6298606D
:102840001846DA68114041F288320F433321DF60C5
:102850000AF04EFE0028D4D1D4F8582B84460746FF
:1028600040F22A5104E0D4F8A4379B1B01331ED058
:10287000536B0B42536B09D11B03F4D40028F2D1E4
:10288000D2F880700120D2F880C0ECE7190714D488
:10289000536B9B070ED4506B10F0200010D19CFAA4
:1028A0008CF33FBA0A499163C5E90037F8BD4FF090
:1028B0000040F8BD02209063F8BD08209063F8BD89
:1028C00020209063F8BD00BFC8320024C0E0FEFFA6
:1028D0003A0F001870B5114C41F20D13104D41F232
:1028E0008832D4F89C1BD4F8580B0E040D21866056
:1028F000C66835402B43C3600AF0FAFD38B1D4F8FE
:102900008C2B034600201343C4F88C3B70BDD4F8D5
:10291000583B5869C0F3432070BD00BFC832002443
:10292000C0E0FEFFF8B500286FD0474C94F8883B14
:10293000012BDEB255D18B18D4F8A85B0027AB422F
:10294000C4F88C7B50D8D4F8903B4FF0030ED4F8E9
:10295000585B4FEA422C012B84F888EB4FF00003C0
:10296000EF6218BF49024FF0FF37C4F880CBC4F8BC
:102970007C0B6F62C5F828C001331F2BFCD9EB6AB2
:10298000012723F0FF03BA4243F09203EB62EB68A6
:1029900043F04003EB60A8652F6540D982232B4F9D
:1029A0002846C4F8843B41F21213A9601221EA6858
:1029B000174041F288323B43EB600AF099FDD8B1F1
:1029C000D4F8581B0122224D00238D63D4F88C1BB0
:1029D0000843C4F88C0B304684F8882BC4F8843B39
:1029E000F8BD02263046F8BDD4F88C3B304643F0A3
:1029F0000073C4F88C3BF8BDD4F8582B0646D36B53
:102A0000304643F49573D363F8BD0F4A0126D2F8DC
:102A10008C3B304643F00063C2F88C3BF8BD812309
:102A20000A4F2846C4F8843B41F21113A9601121D2
:102A3000EA68174041F288323B43EB600AF058FDE8
:102A40000028D9D0BCE700BFC8320024C0E0FEFF98
:102A5000FF0FE01FF8B50121514D12F01F04C5F81A
:102A6000F81B6FD14FEA432CBFF34F8FBCF1000F1F
:102A700008D002EB0C0711464A4EC6F86812203106
:102A8000B942FAD1BFF34F8FBFF36F8F002A7ED0C8
:102A900095F8881B012953D103EB000ED5F8A86BDC
:102AA00000270146B645C5F88C7B68D8D5F8906BF1
:102AB0004FF0030ED5F8580B012E4FF0FF3685F876
:102AC00088EB18BF4902C762C5F8742B4662C5F887
:102AD00078CBC0F828C001341F2CFCD9C46A012669
:102AE00024F0FF04B34244F09004C462C46844F08C
:102AF0004004C4608265066526D9A0222A4C41F2B2
:102B00001913C5F8842B41F288328160C1680C40EA
:102B100019212343C3600AF0EBFC03463BB3D5F80D
:102B2000580B0121214C002284632A20D5F88C4BBC
:102B30002343C5F88C3B85F8881BC5F8842BF8BD6A
:102B40002A20F8BD0920F8BD9022174C41F2181335
:102B5000C5F8842B41F288328160C1680C4018218D
:102B60002343C3600AF0C4FC0346002BD7D1D5F839
:102B7000582B1846D36B43F48D73D363F8BDD5F847
:102B80008C3B2A2043F00073C5F88C3BF8BDD5F888
:102B90008C3B2A2043F00063C5F88C3BF8BD00BF96
:102BA000C832002400ED00E0C0E0FEFFFF0FE01F90
:102BB000134B30B4D3F8040C0025D3F80C2CD3F805
:102BC000084C20F01F01C3F8F45B04FB0202521A08
:102BD000BFF34F8FAA420DDD013A01F120030948EE
:102BE00022F01F021A449342C0F85C12194603F106
:102BF0002003F8D1BFF34F8FBFF36F8F30BC704706
:102C0000C832002400ED00E00B4BD3F8F42B3AB1AE
:102C1000D3F8FC2B00210132C3F8F41BC3F8FC2BC2
:102C2000D3F8F82B3AB1D3F8002C00210132C3F8C5
:102C3000F81BC3F8002C7047C8320024002800F0AD
:102C4000FF802DE9F04F848885B0B4FA84F3202BFF
:102C5000C3F11F0200F099807A4E4FF00045DFF873
:102C60000C82164435FA03F308EB820296F8D0651D
:102C7000C2F8101C019605D0734A116821EA0301BD
:102C8000116093600368002C79D00021DFF8E0E147
:102C90006D4F00944FF00109009809FA01F20240CB
:102CA00069D04FF0030A01FA09FCDD684FF00F0B01
:102CB0000AFA0CFC01EA0A0021F00306634C25EA3B
:102CC0000C05800006F1B046A342DD600BFA00F56A
:102CD000D3F800B006F580662BEA0C0CC3F800C0F0
:102CE000DEF8F4C04CF0020CCEF8F4C0DEF8F4C00C
:102CF0000CF0020CCDF80CC0DDF80CC0D6F808C002
:102D00002CEA050526D004F58064A34240D0504C3F
:102D1000A3426DD04F4CA34276D04F4CA3426DD00E
:102D20004E4CA34274D0DFF84CC163457CD0DFF831
:102D300048C163457ED0DFF844C163456ED0DFF8FB
:102D400040C163450CBF4FF0090C4FF00A0C0CFA60
:102D500000F00543B5604FF0B0403D6815433D605D
:102D60007D6825EA02057D600568154305604568B4
:102D700025EA020242600131009ACA408AD1019BD1
:102D8000984498F8503CF02B06D805B0BDE8F08F79
:102D900009FA00F00543DDE7F021314A314B01200B
:102DA00088F8501CD2680199C2F302222E4D595C5A
:102DB000C2F10704131D01F01F06042C00FA06F0EF
:102DC00028BF0424062B4FF0FF338CBF033A0022A8
:102DD000A3406C184909DB4303F0030393401B0134
:102DE000DBB284F8003345F8210005B0BDE8F08F70
:102DF0004FF0020C0CFA00F00543ABE74FF0040C67
:102E00000CFA00F00543A5E70AFA00F00543A1E734
:102E10004FF0050C0CFA00F005439BE74FF0080C4F
:102E20000CFA00F0054395E74FF0060C0CFA00F0A1
:102E300005438FE74FF0070C0CFA00F0054389E7D4
:102E4000704700BF280F0B08800000580000025890
:102E500000080258000C02580010025800140258D2
:102E600000ED00E014B20B0800E100E0C8320024DD
:102E70000044025800180258001C02580020025852
:102E8000002402582DE9F043384D95B00446D5F89A
:102E9000586C3378012B07D0022B01D1336A7BB1F8
:102EA000002015B0BDE8F08396F9040013460091A8
:102EB000224695F85C1C66F0F5FF15B0BDE8F0837E
:102EC000012460F07F000DF10F074FF000084FF074
:102ED000000905938DF80F008DF81C300D931093A9
:102EE0001293049706948DF830408DF84440CDE954
:102EF0000833CDE90A12CDE90E89EFF311801023D2
:102F000083F31288D5F8583C1B6A13B304AC069BB4
:102F100022461BB1D3691432002BFBD1336A13B3A1
:102F2000996839B993420AD0196829B15B689968E0
:102F30000029F7D01433F3E70D4AC3E90024C0B2E7
:102F400080F31188D5F8582C136A002BFCD101208E
:102F5000A7E704ABC0B2336280F3118805F658408E
:102F600068F05AFBEEE7024A1A60FFDEC83200241E
:102F7000203F0024034BD3F87C2D136A002BFCD197
:102F8000704700BFC83200242DE9F84FCB4C0546EE
:102F900094F8181ED4F8200EC1F3400150F07CFEC6
:102FA00094F8181ED4F81C0EC94301F0010150F02A
:102FB00073FE002D00F0E78005F1FF39C04E4FF0A1
:102FC0001008C04F5FFA89F9BF4DD4F8203E33B1E5
:102FD0001A689B8851690B4218BF1B049361D4F88F
:102FE0001C3E33B11A689B8851690B4218BF1B0401
:102FF0009361B4F8283E002B40F0578194F82A1EC4
:10300000D4F82C0E50F048FEFA204FF47A714FF0AD
:10301000010C7B68C3F30803002B40F01981EFF328
:103020001183002B40F01481D6F8382FD5F808E032
:10303000D6F8383F9A42F7D1D4F8543E9E45F3D89B
:10304000D4F850AE01FB0AF3A3EB0E03B3FBFAF383
:1030500001FB02327B68C3F30803002B40F0B6800B
:10306000EFF31183002B40F0B180D6F8383FD5F84C
:1030700008B0D6F838EF7345F7D1D4F854EEF345DD
:10308000F3D8D4F850AE01FB0AFEAEEB0B0EBEFB3C
:10309000FAFE01FB03E39B1AB3F57A7FDAD301381A
:1030A000B7D1D4F8203E33B11A689B8851690B42DE
:1030B00018BF1B049361D4F81C3E33B11A689B8877
:1030C00051690B4218BF1B049361B4F8283E002BD2
:1030D00040F0DF8094F82A1ED4F82C0E81F0010114
:1030E00050F0DAFDFA204FF47A714FF0010C7B6852
:1030F000C3F30803002B40F08A80EFF31183002B09
:1031000040F08580D6F8382FD5F808E0D6F8383F5B
:103110009A42F7D1D4F8543E9E45F3D8D4F850AE35
:1031200001FB0AF3A3EB0E03B3FBFAF301FB02323C
:103130007B68C3F3080343BBEFF311832BBBD6F8C3
:10314000383FD5F808B0D6F838EF7345F7D1D4F842
:1031500054EEF345F3D8D4F850AE01FB0AFEAEEBC3
:103160000B0EBEFBFAFE01FB03E39B1AB3F57A7F5D
:10317000DED30138BBD109F1FF395FFA89F9B9F122
:10318000FF0F7FF422AFBDE8F88FEFF3118A88F3C9
:103190001288D5F808B02B68DB0303D5C4F84CCEF1
:1031A000D5F808B0D6F8383F5FFA8AFAD4F84CEE72
:1031B0008AF31188D4F850AE734401FB0AFEAEEBDB
:1031C0000B0EBEFBFAFE01FB03E3CEE7EFF3118A21
:1031D00088F31288D5F808B02B68DB0303D5C4F850
:1031E0004CCED5F808B0D6F8383F5FFA8AFAD4F852
:1031F0004CEE8AF31188D4F850AE734401FB0AFEFA
:10320000AEEB0B0EBEFBFAFE01FB03E343E7EFF36D
:10321000118E88F31288D5F808A02B68DA0303D53D
:10322000C4F84CCED5F808A0D6F8383F5FFA8EFE29
:10323000D4F84C2E8EF31188D4F850EE1A4401FBCA
:103240000EF3A3EB0A03B3FBFEF301FB02326FE7BD
:10325000EFF3118E88F31288D5F808A02B68DA03F3
:1032600003D5C4F84CCED5F808A0D6F8383F5FFA9D
:103270008EFED4F84C2E8EF31188D4F850EE1A44FA
:1032800001FB0EF3A3EB0A03B3FBFEF301FB0232D7
:10329000E0E6D4F8443E002B3FF424AF0023D4F8FA
:1032A000302E136084F8413E1CE7D4F8443E002BD6
:1032B0003FF4AAAE50F056F8A6E600BFC83200248C
:1032C000D810002400ED00E010E000E02DE9F04F00
:1032D000CA4C83B00523CA4E94F8181E4FF010094B
:1032E000D4F8200EC1F34001019350F0D5FC94F8BE
:1032F000181ED4F81C0EC943DFF80C83C14D01F031
:10330000010150F0C9FCD4F8203E33B11A689B8803
:1033100051690B4218BF1B049361D4F81C3E33B1B2
:103320001A689B8851690B4218BF1B049361B4F85B
:10333000283E002B40F0598194F82A1ED4F82C0E18
:1033400050F0AAFC32204FF47A710127D8F80430EB
:10335000C3F30803002B40F01B81EFF31183002B14
:1033600040F01681D6F8382FD5F808E0D6F8383F67
:103370009A42F7D1D4F8543E9E45F3D8D4F850AED3
:1033800001FB0AF3A3EB0E03B3FBFAF301FB0232DA
:10339000D8F80430C3F30803002B40F0B780EFF3F4
:1033A0001183002B40F0B280D6F8383FD5F808B032
:1033B000D6F838EF7345F7D1D4F854EEF345F3D887
:1033C000D4F850AE01FB0AFEAEEB0B0EBEFBFAFECC
:1033D00001FB03E39B1AB3F57A7FD9D30138B5D14A
:1033E000D4F8203E33B11A689B8851690B4218BF4C
:1033F0001B049361D4F81C3E33B11A689B88516951
:103400000B4218BF1B049361B4F8283E002B40F018
:10341000E08094F82A1ED4F82C0E81F0010150F0BF
:103420003BFC32204FF47A710127D8F80430C3F303
:103430000803002B40F08B80EFF31183002B40F04A
:103440008680D6F8382FD5F808E0D6F8383F9A426B
:10345000F7D1D4F8543E9E45F3D8D4F850AE01FBD2
:103460000AF3A3EB0E03B3FBFAF301FB0232D8F825
:103470000430C3F3080343BBEFF311832BBBD6F82F
:10348000383FD5F808B0D6F838EF7345F7D1D4F8FF
:1034900054EEF345F3D8D4F850AE01FB0AFEAEEB80
:1034A0000B0EBEFBFAFE01FB03E39B1AB3F57A7F1A
:1034B000DDD30138B9D1019B5F1E17F0FF030193E3
:1034C0007FF421AF03B0BDE8F08FEFF3118A89F3E9
:1034D0001288D5F808B02B68DB0303D5C4F84C7EFE
:1034E000D5F808B0D6F8383F5FFA8AFAD4F84CEE2F
:1034F0008AF31188D4F850AE734401FB0AFEAEEB98
:103500000B0EBEFBFAFE01FB03E3CEE7EFF3118ADD
:1035100089F31288D5F808B02B68DB0303D5C4F80B
:103520004C7ED5F808B0D6F8383F5FFA8AFAD4F85E
:103530004CEE8AF31188D4F850AE734401FB0AFEB6
:10354000AEEB0B0EBEFBFAFE01FB03E342E7EFF32B
:10355000118E89F31288D5F808A02B68DA0303D5F9
:10356000C4F84C7ED5F808A0D6F8383F5FFA8EFE36
:10357000D4F84C2E8EF31188D4F850EE1A4401FB87
:103580000EF3A3EB0A03B3FBFEF301FB02326EE77B
:10359000EFF3118E89F31288D5F808A02B68DA03AF
:1035A00003D5C4F84C7ED5F808A0D6F8383F5FFAAA
:1035B0008EFED4F84C2E8EF31188D4F850EE1A44B7
:1035C00001FB0EF3A3EB0A03B3FBFEF301FB023294
:1035D000DEE6D4F8443E002B3FF423AF0023D4F8BA
:1035E000302E136084F8413E1BE7D4F8443E002B94
:1035F0003FF4A8AE4FF0B6FEA4E600BFC8320024E8
:10360000D810002410E000E000ED00E0B0B10C495B
:10361000D1F8583E102B03D10521002046F08CBA7A
:1036200003EB43020A4482F85C0E202082F85D0E10
:103630000120034482F85E0EC1F8583E704700BF77
:10364000C832002470B5334C82B0334BD4F8082113
:1036500012695168994248D0A3F57843994252D0F3
:1036600003F58063994250D003F5784399424ED0D8
:1036700003F5E053994236D0284B994214BF4FF0DE
:10368000FF3105210131264851F0A2F8254BD4F82D
:10369000082100262448D2F8A81003F11002C4F82B
:1036A0001411C4E9663251F0CDF80346314601AA3F
:1036B0001B48A4F81031ADF80460FCF7EFFD0520BD
:1036C0004CF0A2FF01AA31461548ADF80460FCF7A2
:1036D000E5FD054620B19DF805301E2B07D0354687
:1036E000284602B070BD0421CCE70021CAE70F498B
:1036F00001200F4A0F4B81F88C0E0948C4E93D2385
:1037000051F0AEFAECE70121BCE70221BAE7032150
:10371000B8E700BF18010020003001400014005835
:1037200024020020806A012480969800C832002478
:1037300069650A0805700A08F0B5234E83B096F84B
:10374000987E38464FF038FF96F8C14E054644B192
:10375000D6F8C44E241AB4FA84F46409204603B09F
:10376000F0BD38460122512146F0E2F80746002814
:10377000F4D00123C6F8C45E86F8C13E15B140F20C
:103780005113EB80797A2846FDF75CFD386868F0C4
:103790008FFD0E4B024600243946A3FB02030C4862
:1037A00001940124C3F30E35C3F3CF23013D013B44
:1037B000AFB29BB200973BF03DFBD6F8B03E20463F
:1037C0001D6003B0F0BD00BFC8320024D34D6210AD
:1037D0007841002470B5214DD5F8E03193F82620CA
:1037E000DAB11B699847E0B1D5F8E03193F82420AD
:1037F0008AB105F5F27600241A19E0B29B6901340A
:1038000092F82C10B6EC010A9847D5F8E03193F8FD
:1038100024209442F0DB5B69984795F8F431312B12
:1038200000D070BD95F8F831002BFAD0D5F8E03112
:1038300093F82430042B1E46A8BF0426002BF0D09A
:103840000024074D23460134184665F0D7FB45F8A0
:10385000040BE3B29E42F6D870BD00BF18010020F1
:1038600014030020194A0024194D08B50023D46020
:1038700005F5077545F8383C45F8343C45F8303CCB
:1038800045F82C3CFFF7A6FF32204CF0BDFE55F862
:103890003C3CDB68984755F83C3C40F2DC5083F8F0
:1038A00026409C6283F8254046F08EFA2346224645
:1038B00055F8331011B10A6045F833200133202B3D
:1038C000F6D164204CF0A0FE69F092FD5040005803
:1038D0001801002003681878012801D000207047E3
:1038E000074A642193F9043001FB032393F8252F41
:1038F000202AF4D1D3F8E43E9869C0F3C030704771
:10390000C832002410B50C4CD4F8583C1B78022B5C
:1039100010D1D4F8600C50F0B9F9D4F8600C08B1AB
:103920002123C380012150F0BBF8044850F08AFFE6
:10393000A4F85C0C10BD00BFC8320024809698002B
:10394000054BD3F8582C1278022A03D1D3F8600C17
:1039500050F06EBC704700BFC832002430B504463A
:1039600083B001230D460DF107020848214651F0AE
:1039700089FA9DF8072035EA020304D02A4321463C
:10398000024851F0A3FB03B030BD00BF203F00242C
:1039900038B505460A460C460648294651F06EF8E9
:1039A00045F08001034850F05FFF231A5842584108
:1039B00038BD00BF203F00242DE9F043384D95B0BD
:1039C0000446D5F8586C3378022B11D0012B03D064
:1039D000002015B0BDE8F08396F90400134600916D
:1039E000224695F85C1C66F05DFA15B0BDE8F083E0
:1039F000336A002BECD10DF10F074FF000084FF0A8
:103A000000098DF80F00012005938DF81C300D93EF
:103A100010931293049706908DF830008DF84400AF
:103A2000CDE90833CDE90A12CDE90E89EFF3118013
:103A3000102383F31288D5F8583C1B6A13B304ACE7
:103A4000069B22461BB1D3691432002BFBD1336A8B
:103A500013B3996839B993420AD0196829B15B68E0
:103A600099680029F7D01433F3E70E4AC3E900241C
:103A7000C0B280F31188D5F8582C136A002BFCD102
:103A80000120A6E704ABC0B2336280F3118805F6CB
:103A9000584067F0C1FDEEE7024A1A60FFDE00BF42
:103AA000C8320024203F00242DE9F04F046883B081
:103AB0002578022D00F08880012D04D000242046B6
:103AC00003B0BDE8F08F94F904704B4E032F06F855
:103AD0009C5CD4BF00240124B7F1FF3F08BF44F031
:103AE0000104002CEAD10A46DFF828C1642103460C
:103AF00001FB07C1D1F8E40E0028DFD091F825EFD3
:103B0000BEF1200FDAD1806910F40048D6D191F8C7
:103B1000240F0128D2D04FF0400E38484FF0210931
:103B200093F804A0DCF8A4B781F8259F81F826EF6C
:103B3000A6F19C0EC1F8288FA1F80E5FC1F8100FF6
:103B4000B1F80E3F2E489BB281F8245FC1F808EF10
:103B5000FF2BC1F8180F4AD8B1F80EEF4FF00079DB
:103B60001FFA8EFE64204FEA4A0ACDF800B01923EE
:103B700000FB07F7234851460CEB07053844A5F82E
:103B80000CEFFEF79DFD40BBD5F8E42E1E495368AF
:103B900095F80C6F0B401D4CD5F8181F43EA0A032B
:103BA000A14243EA064343EA0903536085F8240F20
:103BB00004D0174B994218BF4FF0F2081368012444
:103BC00043EA080313607AE7236A002B7FF476AF99
:103BD0000122144650F052FF71E736F89A3C002259
:103BE000013385F8242F9BB226F89A3C67E74FF003
:103BF000FF0E4FF08079B5E7C04300240000FFFFBF
:103C0000C5170508AC410024009C00FC55150508AB
:103C100081160508C832002413B53A4C002354F825
:103C20008C2C8DF80730137803F0FD01012905D1A4
:103C300014F8881C11B90C2104F8881C022B1ED022
:103C4000032B2ED001220B212F4860F0FBF904201A
:103C50004CF0DAFC01230DF1070200212A4860F044
:103C600013FA002839D09DF80730482B35D1274B5F
:103C700044F8983C264B44F8943C02B010BD54F8EC
:103C8000840C50F003F854F8840C08B12E23C38040
:103C900001214FF005FF1F4850F0D4FD24F8880C97
:103CA000D0E7D4F8243446F2A811506812221961E2
:103CB0000023372180F8883060F098F954F88C3C64
:103CC0000D222421586860F091F954F88C3C302280
:103CD0006A21586860F08AF9B4E754F88C3C1A7885
:103CE000022A03D0032A07D00020C6E754F8840C28
:103CF00050F09EFA0020C0E710223721586860F08B
:103D000075F9F1E7C043002434430024E7400A0872
:103D100069410A088096980030B54CF205028DB0D2
:103D2000002304460321ADF8002001AD01228DF8E7
:103D300002300B938DF814208DF82820CDF808D090
:103D4000CDE90633CDE90833CDE9035150F082FFC8
:103D5000204602A950F092FA204650F07BFF9DF8D1
:103D600006000DB030BD00BF2DE9F041614C82B0BE
:103D70002422002104F2A4706CF01AFF002394F8AE
:103D8000CD77C4F8C837002F3AD15B4ED6F8A03FA4
:103D900053B39B6A43B359489847836823B3038856
:103DA00000255748013B844606469BB231780636CB
:103DB00003291DD00135062DF8D1002201780630E7
:103DC000022900F090800132062AF7D1D4F8C817F2
:103DD000052909D002FB01C20131C4F8C81702202D
:103DE0000021938010705180384602B0BDE8F08108
:103DF000062303FB0545B5F8A637013B9BB2DCE77C
:103E000004F2D47394F8CC07C4F8D03710B9002763
:103E1000394EBBE74FF0D0FBC4F8DC0718B183790B
:103E20000BB1382BF3D13946364850F0D1FC8046DF
:103E30000028ECD0D4F8D037304A9868C3F89420E2
:103E400008B12023C3800D212B4E4FF029FED4F85A
:103E5000D037002598684FF019FF2B4850F0F2FC3E
:103E6000D4F8D0370146012232209980C6F8C03FED
:103E700086F8C42F4CF0C8FB04239F21D4F8D00748
:103E80000DEB0302019550F0A5FD9DF805509DF83E
:103E9000043006F57A602D029DF8061045EA0345C8
:103EA0000D4329465FF0B2F808BB2846FCF702FB39
:103EB000E8B99DF8065006F57A609DF805202D02B8
:103EC0009DF8073045EA02451D4329465EF0FCFE99
:103ED00068B92846FCF7EEFA074640B994F8CC07D3
:103EE00050F0C6F952E7062101FB02C277E74746C8
:103EF0004CE700BFC0430024D810002478200024E1
:103F0000644B0024944B0024404B4C002DE9F04FAF
:103F10000646044689B016F8010B002800F03E83DF
:103F20008B46002509E0013534461BF0D1FE2646BC
:103F300016F8010B002800F08B802528F3D1627859
:103F4000302A00F0DB8002340027A2F13006F3B201
:103F5000092B4FF000035FD96C2A7DD0782AE6D870
:103F6000572A67D9A2F158012029E0D801A050F8BA
:103F700021F000BF3D4204082F3F04082F3F0408F2
:103F80002F3F04082F3F04082F3F04082F3F040849
:103F90002F3F04082F3F04082F3F04082F3F040839
:103FA0007B410408894104082F3F04082F3F04087F
:103FB0002F3F04082F3F04082F3F04082F3F040819
:103FC0002F3F04082F3F04082F3F040873410408C3
:103FD0002F3F04082F3F04082F3F04082F3F0408F9
:103FE0000F4104082F3F0408E74104082F3F04084D
:103FF0002F3F04083D420408BCF1050F17D9BEF15C
:10400000050FA9D80A28A7D103EB830314F8012BC5
:1040100000EB4303A2F13006F1B2A2F1610CA2F170
:10402000410EA2F137000929E6D83046ECE7A2F1AB
:104030005700E7E762B1252A7FF479AF26462520AD
:104040001BF046FE013516F8010B00287FF475AF12
:10405000284609B0BDE8F08F14F8011B78293FF617
:1040600066AF57294ED9A1F15802202A3FF65FAF1B
:1040700001A050F822F000BFAD4304082F3F040810
:104080002F3F04082F3F04082F3F04082F3F040848
:104090002F3F04082F3F04082F3F04082F3F040838
:1040A0002F3F04087B410408FD4204082F3F040809
:1040B0002F3F04082F3F04082F3F04082F3F040818
:1040C0002F3F04082F3F04082F3F04082F3F040808
:1040D000734104082F3F04082F3F04082F3F0408B2
:1040E0002F3F04080F4104082F3F040857430408DA
:1040F0002F3F04082F3F0408AD430408A27801278E
:10410000033422E70029A3D0252997D00FE75BF8D5
:10411000048BB8F1000F00F03582464616F8010B0B
:10412000002800F03D82CBB1324600E0B3B112F876
:10413000011B1F46013B0029F8D1023F73B1B9466C
:1041400020201BF0C5FD4B4609F1FF39002BF7DCA1
:1041500027EAE77398F80000013340B101339F1B51
:104160001BF0B6FDF31916F8010B0028F8D11D4419
:10417000DDE65BF8043B1D60D9E65BF8040B013516
:10418000C0B21BF0A5FDD2E6DBF800000028C0F2AB
:104190004D810DF1080C092806464FF0010209DD9A
:1041A00002EB82025200B0FBF2F10929F8D8002A92
:1041B00000F091819A46C949B6FBF2F0A1FB02E1F9
:1041C000092800F1570900F130088E464FEAD10165
:1041D00040F27781092A02FB10660CF8019B40F23D
:1041E00079810A46E7E7DBF800C00122BCF1090F3C
:1041F00009D902EB82025200BCFBF2F10929F8D87E
:10420000002A00F0E98102AE0193B646B349BCFB37
:10421000F2F0A1FB0281092800F1570A00F13009F0
:1042200088464FEAD10140F3A081092A02FB10CC55
:104230000EF801AB40F2A2810A46E7E75BF804EB17
:104240000121BEF10F0F40F2CC810901BEFBF1F05C
:104250000F28FAD8002900F0BC8102AEB04601E078
:10426000BEFBF1F009284FF0300C05DD582A0CBFD9
:104270004FF0370C4FF0570C844401FB10EE090946
:1042800008F801CBECD1002288F80020002F9DF81F
:10429000089014BF4FF030084FF02008B9F1000F1C
:1042A00000F092810DF10902E3B1114600E0CBB1BB
:1042B00011F8010B1F46013B0028F8D1023F8BB1DA
:1042C000BA4640461BF004FD53460AF1FF3A002B64
:1042D000F7DC27EAE7730133B9F1000F3FF447AF8A
:1042E0000DF1090217469E1B48461BF0F1FCBB1955
:1042F00017F8010B0028F8D11D4418E65BF8040BF1
:104300000028C0F244810DF1080C092806464FF040
:10431000010209DD02EB82025200B0FBF2F1092931
:10432000F8D8002A00F092809A466C49B6FBF2F069
:10433000A1FB02E1092800F1570900F130088E467F
:104340004FEAD10179D9092A02FB10660CF8019BCA
:104350007BD90A46E9E75BF804CB0122BCF1090FDF
:1043600009D902EB82025200BCFBF2F10929F8D80C
:10437000002A00F0238102AE0193B6465749BCFBE8
:10438000F2F0A1FB0281092800F1570A00F130097F
:1043900088464FEAD10140F3A380092A02FB10CCE2
:1043A0000EF801AB40F2A5800A46E7E75BF804CBC4
:1043B0000122BCF10F0F40F212811201BCFBF2F09E
:1043C0000F28FAD8002A00F0FC8002AE58293146A6
:1043D0001DD007E002FB10CC120901F8018B22D09E
:1043E000BCFBF2F0092800F1570800F1300EF1DCB7
:1043F00002FB10CC120901F801EBF1D113E002FB32
:1044000010CC120901F8018B0DD0BCFBF2F0092889
:1044100000F1370800F1300EF1DC02FB10CC12097C
:1044200001F801EBF1D100220A702FE72D22404262
:104430000DF1090C8DF80820ADE6092A4FEADE01DE
:1044400002FB10660CF8018B83D853460022002F24
:104450008CF8002018BF30279DF8088008BF20275F
:10446000B8F1000F00F0A5800DF10902E3B111468B
:1044700000E0CBB111F8010B1E46013B0028F8D13A
:10448000023E8BB1B14638461BF022FC4B4609F187
:10449000FF39002BF7DC26EAE6730133B8F1000F91
:1044A0003FF465AE0DF1090202AE174640469E1B71
:1044B0001BF00EFCBB1917F8010B0028F8D11D44A6
:1044C00035E5092A4FEADE0102FB10660CF8018B84
:1044D0003FF687AE53460BF1040BB7E7CDCCCCCCFF
:1044E000092A4FEAD80102FB10CC0EF8019B3FF6D7
:1044F0005BAF019B0022002F8EF8002018BF4FF009
:1045000030089DF8089008BF4FF02008B9F1000F5F
:104510004BD00DF10902E3B1114600E0CBB111F827
:10452000010B1F46013B0028F8D1023F8BB1BA4670
:1045300040461BF0CDFB53460AF1FF3A002BF7DC57
:1045400027EAE7730133B9F1000F3FF410AE0DF124
:10455000090217469E1B48461BF0BAFBBB1917F809
:10456000010B0028F8D11D44E1E4092A4FEAD801E3
:1045700002FB10CC0EF8019B3FF65EAE019B0BF1E7
:10458000040BB7E7184E282006F1FF38CBE52D22A3
:1045900040420DF1090C8DF80820B6E6054657E5B6
:1045A0005F1E002B7FF4CBADC1E45F1E002BBED19C
:1045B000BDE45E1E002B7FF465AFB8E402AEB646E4
:1045C00098E702AE31462EE75F1E002B7FF478AEEF
:1045D000ADE402AEB04656E602AEB646CFE7604660
:1045E000F3E6704639E600BFA1B10B0830B50346CB
:1045F00083B0084C00250DF10600C4F8103FADF85B
:104600000650DB6A984703462846C4F8183F03B0B3
:1046100030BD00BFD81000242DE9F04FBB4C002363
:1046200002220926BA4D04F6584094F8BD138BB007
:10463000C4F8344F6660C4F80404256023636361E2
:1046400023616362A261E260C4E90733C4E90A330B
:10465000002900F086811E460321AD4B84F8BD136E
:10466000DB6B13F48078AB6818BFD4F8108023F0AC
:10467000010308BFC4F81080012AAB6040F0DD8060
:10468000AA6BA44B22F48032616BAA630129EA6809
:1046900003EA0203EB60EB6823F44013EB6000F0E5
:1046A000A681284608F092FA0746B8F1010F17D004
:1046B00007B3022384F8BD33974B93F86C58012D50
:1046C00000F0088123688021012059625A6A42F46F
:1046D00080029A62FBF794FC00200BB0BDE8F08FDB
:1046E000AB6843F00603AB60AB6843F02003AB60FC
:1046F000002FDED123683220DA6822F0C042DA606F
:10470000DA6842F08042DA6011F060F9666846B318
:104710003A4601253946C2EBC203501C04EB830321
:1047200083F83C20A3F84220C2B283F83D50B24245
:1047300083F83F101965C3E91111ECD30022C7EBD0
:10474000C703791C04EB830383F8FC71CFB283F8B1
:10475000FD21B74283F8FF21C3F81022C3E981226B
:10476000EDD300232568D4F80CC01946D4F8109076
:10477000D4F82C80D4E90602019203F140020133FF
:1047800005EB82020F2B5160F7D1B8F1000F40F01A
:104790002181D5F8043805F5006743F002037B60FA
:1047A000AB6B23F40013AB632B6843F040032B6027
:1047B0002B6843F080032B6000230128C5F8003EDE
:1047C0003B683B603B6800F01C8143F003033B60A7
:1047D0001021284608F0CAFB1023504A2B61D2F85A
:1047E000A41705E0D2F8A4375B1A052B00F2FD8070
:1047F0002B69DB06F6D4003818BF012000223A618D
:104800007A61FA6166B305F510634FF0904A4FF094
:10481000006B11464FF67F3E844607E01960013277
:104820001961C3F808E02033B2427BD01868002831
:10483000F4DA92B1C3F800A0F1E7EB68284643F040
:104840004003EB6008F0C2F9AB6B0746002E40F066
:10485000C88043F48033AB6327E7C3F800B0DEE7DA
:104860003B6900216FF0804223F480733B61A961B2
:104870006A61B9F1000F03D1AB6943F01003AB617A
:10488000AA69274B1343AB61019B1BB1AB6943F092
:104890000803AB61B8F1010F00F0AE8000287FF48F
:1048A00008AF0123626A84F838009A4284F8BD3365
:1048B000236800F0AE80D3F80428032042F00202FF
:1048C000C3F8042811F082F8134B93F86C58012DAB
:1048D0007FF4F8AE5EF0E8F800287FF4F3AE2368CA
:1048E0008022284640215A625A6A42F400129A6293
:1048F000FBF786FB20210220FBF782FB40210320EF
:10490000FBF77EFB00200BB0BDE8F08FD810002431
:1049100000000840BFFFBDFFC0430024C832002490
:1049200000383C800022604605F530634FF0904A25
:104930004FF0006B11464FF67F3EB44607E019601A
:1049400001321961C3F808E02033624588D01E683F
:10495000002EF4DA12B1C3F800A0F1E7C3F800B0FA
:10496000EEE701F0FF06364B03204FF4C05584F804
:10497000BC63D3F8E01041F00101C3F8E01005A9D1
:10498000D3F8E03006920A2203F0010308902D4884
:104990000493049B0796059509920FF0B5FCE36A12
:1049A000012B43D0264B06216520D3F8D82042F0B6
:1049B0000062C3F8D820D3F8D83003F00063039323
:1049C000039BFBF7D9FE20221F4BA66A2568DA60FD
:1049D000A26941E6AB6B05F5006743F40013AB63D6
:1049E000EAE623F48033AB635FE6012006E7EB6879
:1049F00043F48013EB6054E6AA69144B1343AB6194
:104A00004CE7BCF1000F3FF4E2AE43F001033B6022
:104A1000DEE684F8F4039969C4F8FC2341F00061F0
:104A20000B4A9961596D0A435A6544E74FF4007384
:104A300005A904480593CDE906660FF065FCB1E7CA
:104A4000004402580000025800E100E00400004069
:104A50000300001010B51A4C94F87108C0B9194B36
:104A600083F8750DC3F8780D94F87438012B05D0D0
:104A7000022B21D0D4F878381BB910BD124BC4F8E2
:104A8000783812495B68A1F10C00BDE81040184766
:104A90004EF092FD94F873280A49003AC1F8780D57
:104AA00018BF012281F8752D0028DDD01F2220219A
:104AB000C2804EF0F5FFD7E7054BC4F87838E0E741
:104AC000C0430024C8320024200300243C4C0024AE
:104AD000FC02002499B10A6B824216D9154BD3F817
:104AE000CC28914221D35C3991421ED30B6B984262
:104AF000F9D38B6B9842F6D80B46184670470D4B8E
:104B0000D3F8CC180A6B904212D30B680BB9F4E7B8
:104B10000A6B90420B4602D38A6B9042EDD951F852
:104B20005C3F002BF4D118467047002318467047AD
:104B30000A46D8E7C04300242DE9F047CC0143D111
:104B4000034622494FF0FF32022443F8081B7E2619
:104B500042601846DFF878802644051D6FF07047E4
:104B6000D8F8D0984FF0010A013E494608E0A34228
:104B70001CD0631C45F8043C321B1C460435CAB1EA
:104B80000B6BA34202D88B6BA34204D22046FFF7E3
:104B9000A1FF014690B10A794B6B002AE7D1A342ED
:104BA00004D0E6D2631C45F8042CE5E7631C45F805
:104BB000047CE1E7C8F8D018BDE8F087321B631C1D
:104BC000494645F804ACD8E78026C3E7F8FFFF0F55
:104BD000C0430024F0B5154D83B00E4695F8D83883
:104BE000022B0DD1070AC4B2D5F80C0B0023012209
:104BF00001A9384406F046F9012806D003B0F0BDFB
:104C0000C0F3D41700F07F04EEE795F8D838022BF4
:104C1000019B04D133F81430336003B0F0BD53F876
:104C2000243023F07043336003B0F0BDC043002450
:104C30000F4A002310B50F4CC2F8300BC2F8444B9A
:104C40000D4CA2F8341BC2F83C4B0C4CC2F8383B5C
:104C5000A2F8363BC2F8404B82F8483B28229942E2
:104C600004D002FB03F403530133F8E710BD00BF87
:104C7000C043002440420F0020A10700A01CE9FF10
:104C800070B5464C84B0D4F84C3B5D0633D4D4F8B0
:104C9000583B580661D4D4F8643B590660D4D4F824
:104CA000703B5A065FD4D4F87C3B5B065ED4D4F8E4
:104CB000883B5E065DD4D4F8943B5D065CD4D4F8A2
:104CC000A03B58065BD4D4F8AC3B59065AD4D4F870
:104CD000B83B5A0659D4D4F8C43B5B0658D4D4F830
:104CE000D03B13F0400356D10C22C4F8E43B84F8C7
:104CF000E02B04B070BD00230121294A03EB4303DC
:104D000084F8E01B032512F8E71C04EB830312F878
:104D1000E66C002912F8E51C93F9500B4FF4E133CF
:104D200014BF02220022002E019500934FF00003D1
:104D300014BF10250025002918BF42F001024021B0
:104D40001543184A02954BF0FFFCC4F8E40B002809
:104D5000CFD0154B436304B070BD01230221CCE7D3
:104D600002230321C9E703230421C6E70423052105
:104D7000C3E705230621C0E706230721BDE7072374
:104D80000821BAE708230921B7E709230A21B4E774
:104D90000A230B21B1E70B230C21AEE7C04300240B
:104DA000D02100245D450608A5440608F0B5724DE3
:104DB00085B095F80934132B2FD8DFE813F03100B4
:104DC0003100F300CE019B05140014006502F202CD
:104DD0002E0331002E00F103A4042E00F300F6048C
:104DE000FC041400FE040022644C6548062B65494F
:104DF00084F89C2C84F89D2C84F89E2C624AC5F87B
:104E00001004C5F81414C5F81C2400F04C87122BAC
:104E100000F0B685052B00F04086002005B0F0BDFF
:104E2000564C5A49D4F84C2BC4F8301C510600F1AA
:104E3000D587D4F8582B560600F1EE87D4F8642BAA
:104E4000500601F11380D4F8702B510601F1168041
:104E5000D4F87C2B560601F13D80D4F8882B5006FF
:104E600001F15080D4F8942B510600F17986D4F8E2
:104E7000A02B560601F16580D4F8AC2B500601F149
:104E80008B80D4F8B82B510601F1A480D4F8C42B40
:104E9000560601F1C180D4F8D02B12F0400000F08A
:104EA00004850B210C26002012F4057F84F8E06BAA
:104EB00084F8340C00F06A86042B40F26287052BDC
:104EC00000F063879A1F012A40F2A2870A2B00F0A4
:104ED0001C87002B00F0038701EB41012C4A2D4E6B
:104EE000002704EB8103C5F810240121264A93F919
:104EF000500B294BC5F81464C5F81C24C5F81834A8
:104F0000264E16F8E72C16F8E63C002A14BF0222BB
:104F10000022002B40F08A8694F8343C002B14BF0A
:104F20004FF0100C4FF0000C16F8E53C01914FF4D7
:104F3000E131002B18BF42F00102144B00914021D7
:104F40004CEA020C164ACDF808C04BF0FDFBC4F841
:104F5000440C0FB1C4F8480C16F8E03C95F80A244C
:104F6000013BDBB29A4284F84C3C00F204850023FA
:104F700084F84C3C00F0FFBCD8100024C04300244F
:104F80006132060889320608C9560608E014002472
:104F900061470608BD4706080D470608D0210024D2
:104FA000694C0608B5F82C240021AA4F41F2707014
:104FB0001201A94EDFF8CCC2A7FB027216F8D47C0E
:104FC000A64CD2088F42A64FA2F5B06218BF674622
:104FD00042F6F82C92B2C4F8987C08BF604604F6FA
:104FE000744C62F30F01A5F80C04122062F31F4108
:104FF00004F5456285F80A04C4F8501C9948C4F8C1
:10500000541CC4F8581CC4F85C1CC4F8601CC4F8D8
:10501000641CC4F8681CC4F86C1CC4F8701CC5F887
:1050200020249149D4F84C2BC5F81014C5F8140469
:1050300050068E49C5F824C4C5F81C1400F1C68674
:10504000D4F8582B510600F1EB86D4F8642B5506A2
:1050500000F10487D4F8702B500600F11787D4F8BC
:105060007C2B510600F12A87D4F8882B550600F1D5
:105070005187D4F8942B500600F12485D4F8A02B46
:10508000510600F16687D4F8AC2B550600F1708705
:10509000D4F8B82B500600F18987D4F8C42B5106F8
:1050A00000F1C287D4F8D02B12F0400000F0FD834D
:1050B0000B210C2084F8E00B12F4057000F09F85A2
:1050C000A3F10F00B0FA80F04009022B8CBF02461A
:1050D00040F00102002A40F05286D81E012840F21A
:1050E0009A85052B00F09785063B012B40F29385AE
:1050F00001EB410100224FF0010E04EB8101154646
:1051000091F9500B16F8E71C16F8E63C002914BF7D
:105110004FF00C0C4FF00E0C03B902B1102216F830
:10512000E53C40210097002B18BF4CF0010CCDF856
:1051300004E04F4B42EA0C074E4A02974BF004FB47
:1051400016F8DC3C13B1052306F8CB3C002D00F02B
:105150001284C4F8480C00F00EBC42F6F820464910
:105160003E4C1826A5F80C04C5F81014D4F84C2BA6
:1051700042483E4985F80A64C5F81404C5F81C1471
:10518000550600F13586D4F8582B500600F13C86C0
:10519000D4F8642B510600F15286D4F8702B5706D0
:1051A00000F17C86D4F87C2B560600F17F86D4F87B
:1051B000882B550600F19686D4F8942B500600F102
:1051C0008584D4F8A02B510600F1C786D4F8AC2B07
:1051D000570600F1D186D4F8B82B560600F1EE86BA
:1051E000D4F8C42B550600F12787D4F8D02B12F041
:1051F000400000F05A830B210C2012F4057584F84E
:10520000E00B00F0B48401EB4101012504EB8102C5
:1052100092F9500B104E01934FF4E13316F8E72C3E
:1052200016F8E67C002A16F8E52C00934FF00003F0
:1052300014BF022119469F4214BF10261E469A42EF
:1052400018BF41F001010E4A0E43402102964BF077
:105250007BFA7BE7CDCCCCCCD0210024C04300240A
:10526000A0860100354D0608154D0608C9560608EA
:1052700034500024E54E0608413E0608593E060813
:105280002D3F0608400D0300B54C122044F6206661
:105290000021D4F84C2B85F80A04A5F80C64B14819
:1052A000B14EC5F81004C5F814645606AF4884F82A
:1052B000A71CC5F81C0400F19585D4F8582B550699
:1052C00000F1B985D4F8642B500600F1C385D4F8F9
:1052D000702B510600F1E685D4F87C2B570600F1BF
:1052E000E985D4F8882B560600F10486D4F8942B6F
:1052F000550600F13284D4F8A02B500600F11D862B
:10530000D4F8AC2B510600F13F86D4F8B82B5306E5
:1053100000F15886D4F8C42B570600F18186D4F8E2
:10532000D02B12F0400000F0C0820B210C2302F4BD
:10533000825284F8E03BB2F5825F00F0168501EB03
:1053400041010025012704EB810191F9500B884EA2
:10535000002316F8E72C16F8E61C9A4284F8A83CBD
:1053600014BF02221A46002940F07E84002D00F06E
:10537000D98416F8E55C0B464FF4E1310197002D16
:1053800018BF42F001020091402142F01005794A15
:1053900002954BF0D9F90023C4F8AC0C84F8B03C6A
:1053A000E9E241F27C54744A102028237349002713
:1053B000A5F80C44C5F81024694C6C4A85F80A0419
:1053C0004020C5F81414C5F81C2484F8C23C84F8A5
:1053D000C17C43F069FE00283FF41FAD644E0321F9
:1053E00090F904003B4616F8E75C16F8E52CBD4240
:1053F0000191634914BF1225102500914021BA4242
:1054000018BF45F001055F4A02954BF09DF9C4F8BD
:10541000C40CC01B18BF012000E5B5F82C241020D7
:10542000594912014E4C85F80A0441F60B20A1FBA4
:105430000212564FA5F80C04D208D4F84C0B544E67
:10544000A2F5B0624006C5F81074C4F8C82CC4F8C0
:10545000D02CC4F8CC2CC4F8D42CC4F8D82CC4F864
:10546000DC2CC4F8E02CC4F8E42CC4F8E82CC4F814
:10547000EC2CC4F8F02CC4F8F42CC4F8F82CC4F8C4
:10548000FC2CC4F8002DC4F8042D384AC5F8146467
:10549000C5F81C2400F19E84D4F8582B510600F165
:1054A000C384D4F8642B520600F1DC84D4F8702B4A
:1054B000570600F1DF84D4F87C2B560600F10685F0
:1054C000D4F8882B550600F11185D4F8942B50069A
:1054D00000F14083D4F8A02B510600F14285D4F8A6
:1054E000AC2B520600F14185D4F8B83B5B0600F1C5
:1054F0006185D4F8C43B5F0600F19A85D4F8D00BDF
:1055000010F0400000F0D1810B220C23184E02EB6A
:10551000420284F8E03B032716F8E73C04EB8202E2
:1055200016F8E55C4021002B92F9500B194B14BF83
:10553000022200220093002D18BF42F00102164BF8
:1055400001970292154A4BF0FFF816F8CB3CC4F8CD
:10555000080D002B40F00F82062306F8CB3C0AE230
:10556000C0430024F55C060851670608C9560608C2
:10557000D02100240D5D0608655706088D570608E2
:1055800048E801002D580608CDCCCCCCD94F0608F0
:105590002D500608A0680600E0140024ED5206080D
:1055A000B5F82C241220C34C0021120185F80A04FE
:1055B00042F6F820C04EA4FB0242C04CA5F80C04F1
:1055C000D20804F60C50C5F81064A2F5B062BC4EC7
:1055D000C5F8200492B2D4F84C0BC5F8186462F3F5
:1055E0000F01460662F31F41B64AC5F81424B64AB5
:1055F000C4F80C1DC4F8101DC4F8141DC4F8181DFF
:10560000C4F81C1DC4F8201DC4F8241DC4F8281DAE
:10561000C4F82C1DC5F81C2400F1E783D4F8582BDE
:10562000550600F10584D4F8642B500600F10F8470
:10563000D4F8702B510600F12D84D4F87C2B52063F
:1056400000F14084D4F8882B570600F15F84D4F829
:10565000942B560600F18882D4F8A02B550600F151
:105660007484D4F8AC2B500600F19284D4F8B82B93
:10567000510600F1AB84D4F8C42B520600F1BC846F
:10568000D4F8D00B10F0400000F00F810B228F4EA9
:1056900002EB420284F8E03B032516F8E71C04EB1A
:1056A000820216F8E67C4FF4E133002992F9500BA0
:1056B00016F8E51C14BF02220022002F009301956A
:1056C0004FF0000314BF30270027002918BF42F015
:1056D0000102402117437E4A02974BF035F8C4F887
:1056E000300D002800F047817A4813F01FFC16F8AF
:1056F000CB3C84F8340DD4F8300D002B40F03B81C6
:1057000006F8CB5C37E1714E42F6F8226B4C4FF055
:10571000802016F8D67C4FF0802104F6E833A5F8F7
:105720000C2484F8287C4FF0200C16F8D57C6A4AAB
:1057300084F8297C694FC5F82034C5F81024C5F8D1
:105740001474614A664F85F80AC4C5F81C24C5F86C
:105750001874C3E90001C3E90201C3E90401C3E904
:105760000601C3E90801C3E90A01C3E90C01C3E961
:105770000E01D4F8E43B002B00F08D82012384F865
:105780002A3C44F0BFFB4CF2503316F8CB2C0344B8
:10579000C4F82C3C12B9032306F8CB3CD4F8E40B34
:1057A000003818BF0120FFF739BB012005B0BDE864
:1057B000F040FAF717BF0020F8E71223494C4A4F90
:1057C00044F6206185F80A344FF4B672474B07F56A
:1057D0005270C5F81044464CC5F81434C5F8184446
:1057E000394B364CA5F80C140021C5F81C346BF06D
:1057F000DFF9D4F84C0B40F2DC5240F2DC530121CB
:10580000460687F85F14C7E9D223C7E9D423C7E95E
:10581000D623C7E9D823C7E9DA23C7E9DC23C7E9D8
