:020000040800F2
:10000000F0FF01202DC305081DE000084D2804085D
:10001000A5C30508A5C30508A5C305080000000081
:1000200000000000000000000000000019E00008CF
:1000300015E000080000000011E00008C5280408D1
:10004000A5C30508A5C30508A5C30508A5C30508DC
:10005000A5C30508A5C30508E5700408AD7004082C
:10006000757004083D70040805700408DD810508FA
:10007000CD810508BD810508AD8105089981050878
:100080008581050871810508A5C3050800000000E9
:10009000000000000000000000000000CD6F040818
:1000A00099DB0308E9DB030889DB030811DC03089B
:1000B000D9DB0308C9DB0308B9DB03089DB30508D6
:1000C000A5B3050891B3050899B30508A5C30508AC
:1000D000A5C30508ED5604083556040800000000C5
:1000E000956F0408A5C30508CD1B0108000000009A
:1000F0000000000000000000000000005D81050815
:1001000000000000A5C30508A9DB0308A5C3050876
:1001100000000000000000000000000000000000DF
:100120004981050835810508218105080D810508EB
:10013000F980050800000000000000000000000039
:1001400000000000000000000000000025FF000883
:10015000E5800508D1800508BD8005087D550408A7
:1001600085B305088DB305080000000000000000FD
:10017000000000000000000000000000000000007F
:1001800000000000A5C305080000000000000000FA
:08019000A5C30508A5C305087D
:080198008CBE0500010000000F
:08280000082800080040000850
:04400000FFFFFFFFC0
:108000002DE9F04700230F6801264FF0030C02E032
:108010000133102B41D006FA03F232EA0704F7D1FC
:10802000D0F800E05C000CFA04F52EEA050EC0F86A
:1080300000E091F80490D0F800A009FA04FE09F1DC
:10804000FF394EEA0A0EB9F1010FA846C0F800E068
:108050006FEA050515D8D0F808E005EA0E05856039
:108060004D79D0F808E0A54045EA0E0585604568E1
:1080700025EA020242608A7945689A4092B22A4310
:108080004260C26822EA0802C260CA79C568A2409A
:1080900001332A43102BC260BDD1BDE8F08700BF79
:1080A000036870B55E6A26B133461522BDE870409C
:1080B000184704460D4601F1150600E023689B6849
:1080C000204698470028F9D0236815F8011B1B6843
:1080D00020469847B542F1D170BD00BF074AD2E9AA
:1080E0000031994208D0D1180133097A0170C3F3E5
:1080F0000A0313600120704700207047C02E002043
:10810000044BD3E90030C01AC0F30A00C0F5006088
:10811000704700BFC02E0020012380F85130704707
:1081200007B501A8FFF7DAFF0028FAD09DF8040090
:1081300003B05DF804FB034BD3E90030C01AC0F371
:108140000A007047C02E002001207047024BC3F880
:108150000828C3F80C187047C02E0020024BC3F843
:108160001028C3F814187047C02E002070477047BD
:1081700030B4104DD5E900239A1AC2F30A020A441A
:10818000B2F5006F11D899B101444A1E013810F8B8
:10819000014FE918824203F101030C72C3F30A0391
:1081A000F5D16B60002030BC7047022030BC7047B6
:1081B0000846F8E7C02E0020212838B50C4605D027
:1081C00022282ED0202813D0002038BD0029FBD033
:1081D000072AF9D11A4BD3F8180893F81C1893F80A
:1081E0001D2893F81E38206021716271A371EBE79E
:1081F0000029E9D0072AE7D1114DD5F80C381BB179
:108200000968D5F808089847206821796279A37928
:10821000C5F8180885F81C1885F81D2885F81E383B
:10822000D2E70029D0D0022ACED1054AD2F814389C
:10823000002BC9D00988D2F810089847C4E700BFBE
:10824000C02E0020024B0020C3F82008704700BF5A
:10825000C02E0020044B00200522C3F82028C3F8BC
:108260001408C3F80C087047C02E0020704700BFE8
:10827000704700BF704700BF704700BF704700BF26
:10828000704700BF704700BF042301480B80704750
:108290009801002010B4074A074B92F824081224D2
:1082A00003F114020C8001280CBF184610465DF83B
:1082B000044B7047C02E00209C01002010B40C4AD3
:1082C00092F8283802EBC3010133DBB2042B4FF0E4
:1082D000050408BF00234FF4045081F82C4882F8AD
:1082E0002838C1F830085DF8044B4FF0FF30704774
:1082F000C02E0020202301480B807047C4010020BD
:10830000642301480B807047E401002043230148A7
:108310000B8070474802002010B5084CD4F8F400D8
:10832000FF2809D00649D1F84C2801F50561FFF76F
:1083300043FFFF23C4F8F430002010BD9801002053
:10834000C02E0020E8E700BF08B5D0F8E4355B6A2E
:108350009847002008BD00BF08B5D0F8E4351B6A77
:108360009847002008BD00BFD0F8E43510B504469A
:108370001B689847D4F8E8359B689847002010BDE3
:1083800008B5D0F8E435DB6903B19847002008BD93
:1083900008B5042290F81211D0F8E83580F81311CE
:1083A00080F81221DB689847002008BD10B5D0F88E
:1083B000E83504461B699847032384F812310020EE
:1083C00010BD00BF0B0617D401EB810300EBC30304
:1083D00010B400EB81000124002283F8764383F877
:1083E000741383F87523426D5DF8044B136843F4EE
:1083F000001300201360704701F07F0101EB81033F
:1084000000EBC303012200EB810083F81C1183F809
:108410001E2183F81D2182691368002B01DA43F0C5
:10842000804343F400131360002070470B0630B400
:108430001CD401EB810200EBC202002300EB81059A
:1084400082F8741382F8753301241A4604FA01F194
:108450006D6D61F31F4201696FF3CF332B60CB6900
:1084600023EA0203002030BCCB61704701F07F019A
:1084700001EB810400EBC404012200EB8105002321
:1084800084F81C1184F81D2102FA01F11A46AD6925
:1084900061F30F02DFE700BF10B581210446FFF74B
:1084A000C5FF20460121FFF7C1FF024B002083F8E2
:1084B000580810BDC02E002010B581210446FFF7DA
:1084C000B5FF20460121FFF7B1FF82212046FFF7CB
:1084D000ADFFFFF7B7FE002010BD00BF38B50D4659
:1084E00004468321FFF7A2FF29462046FFF7E4FF59
:1084F000002038BDF0B416460A063AD401EB8105D7
:1085000000EBC5052824002204FB0104022B85F89A
:108510007413C5F87C6385F8773385F8752304F503
:108520005D7448D0154600EB8107012202FA01F183
:108530007F6D61F31F45D7F800C01CF4004F11D1C7
:10854000E488204946F0805242F4004242EA8342E5
:1085500004F00F041C4B42EA845211400CEA03035E
:10856000194339600269D3692B430020F0BCD36101
:10857000704701F07F0101EB810500EBC505282460
:10858000012204FB0104022B85F81C11C5F82461AB
:1085900085F81F31A5F8221185F81D2104F58E7488
:1085A0000CD0002500EB8107012202FA01F1BF691E
:1085B00061F30F05BFE722711546B4E70025257169
:1085C000F0E700BFFF87CC13007833EC002310B531
:1085D000194604464022FFF78DFF802120460023E4
:1085E0004022FFF787FFD4F8E835A078012284F80D
:1085F00012215B689847002010BD00BF82B00023A5
:10860000016801930B6901930E4B03E00A69019223
:10861000013B13D0019A002AF8DA019A094B42F083
:1086200001020192019A0A610A69019203E00A6952
:108630000192013B02D0019AD207F8D4002002B087
:10864000704700BF400D0300436D064A1A61C278AF
:10865000012A06D100F2CC5058614FF080221968EF
:108660001A6070471800086010B580210446FFF7B3
:10867000A9FE20460021FFF7A5FE2046BDE81040D8
:10868000E2E700BF70B44B78012B26D00B784A6923
:1086900000EB83035D6D2C682B69D2B18A684A6157
:1086A00002F07F0223F4002323F07F0342F4002230
:1086B00013432B61C378012B04BF0B696B61C4F3B7
:1086C000076363F07B0363F31F642C60002070BCBE
:1086D00070478A6802F07F02E4E782694D69146896
:1086E000136945B38E68B5428CBF06F07F0505F06F
:1086F0007F0523F4002323F07F0345F4002543EA9C
:10870000050388BF4E611361C378012B1DD0C4F3EC
:10871000076565F07B0565F31F641460002BD5D1F8
:108720004B69002BD2D002690878516B012383403A
:108730000B435363CAE723F4002323F07F0343F47E
:1087400000231361C378012BE1D10B780D6900EB95
:108750008300C4F30763816963F07B0363F31F64E1
:108760004D610020146070BC704700BF2DE9F043DC
:108770004B78012B30D00B784C6900EB83035E6D96
:10878000356837691CB38B681C44013CB4FBF3F4B7
:10879000C4F3090203FB02F3C3F312034B61144653
:1087A00043EAC44363F31C073761C378012B04BF5A
:1087B0000B697361CB78012B44D0C5F3076363F079
:1087C0007B0363F31F6535600020BDE8F0838A6892
:1087D0000124C2F31203E3E791F800804E6900EB35
:1087E000880EDEF818C0DCF80050DCF8107076B3A4
:1087F000D1F80890384A06EB0904013CB4FBF9F4BF
:1088000002EAC444C6F312022243CC7807F0604760
:108810003A43012C174649D0CCF81020C278012ADF
:1088200055D00269516B03FA08F30B435363C5F348
:10883000076363F07B0363F31F65CCF800500020EF
:10884000BDE8F0834B7973B345F00055B5E707F009
:10885000604747F40027CC78CCF81070C378012B20
:108860002FD0012CE3D102699268D20554BF45F0A4
:10887000005545F08055C5F3076262F07B0262F354
:108880001F65CCF80050002B9ED1B0B20330801091
:10889000DEF8D04098D0CA6852F8041B216001333A
:1088A0009842F9D190E745F0805586E764F35E770A
:1088B000CCF81070C378012BD5D10A69CCF81420FC
:1088C000D1E70A69CCF81420012CB0D1CBE70B69B1
:1088D000CCF81430ABE700BF0000F81F38B501EB4F
:1088E000810400EBC4040D46002184F87453C4F8DD
:1088F0008C1384F87513C4F88833C4F88023C378C4
:108900002821012B01FB050108BFEDB201F55D71C6
:1089100008BFC4F884231DB9FFF7B4FE002038BD9A
:10892000FFF724FF002038BD70B5104BD3F8642842
:1089300093F87C5804461AB193F868382B430DD04D
:1089400081212046FFF73EFD022D00D070BD20465C
:10895000074ABDE870401F230121BFE70121FFF74F
:1089600031FD20468121BDE870402BE5C02E00205E
:108970001C37002010B501EB8101084A00EBC10152
:108980000446B1F88C131046FFF7F2FB034A204669
:1089900040230121FFF7A2FF002010BD4037002037
:1089A000E8E700BF10B50223044640228121FFF70B
:1089B000A1FD2046022340220121FFF79BFD8221D9
:1089C000204603230822FFF795FD064B02229A83D7
:1089D000FFF740FC044A204640230121FFF77EFFB9
:1089E000002010BD980100204037002038B5092232
:1089F0000D46044603238321FFF77CFD29462046CC
:108A0000FFF7D0FF002038BD82B000230193019A08
:108A1000094B42F010020192C168019A0A610A6989
:108A2000019203E00A690192013B02D0019AD20649
:108A3000F8D4002002B07047400D030082B000233C
:108A40000193019A0B4B42F020020192019A61F3CB
:108A50008A120192C168019A0A610A69019203E0CF
:108A60000A690192013B02D0019A9206F8D40020D3
:108A700002B07047400D030070B50446144EFFF776
:108A80000BFD2046022340228121FFF733FD4022C7
:108A9000012120460223FFF72DFDD6F8C03800251E
:108AA0001B6886F85858284686F87C589847204610
:108AB000FFF7AAFF20460121FFF7C0FF204606F678
:108AC0005C021F230121FFF709FF284670BD00BF8C
:108AD000C02E00200E4BDA68D20310D4DA68D1061B
:108AE0000FD4DA68D20510D4DA6812F0E00F0AD198
:108AF000DB6813F0020F14BF082009207047012023
:108B0000704706207047072070470220704700BF5B
:108B1000003C0240064BFF2283F8C42883F8F0286B
:108B200083F81C2983F8482983F87429704700BF0B
:108B3000C02E002070B5144C94F8A039002BFBD146
:108B4000F9B101444E1E451E02E0012039F0DEFD60
:108B5000D4F8A439D4F8A8290133C3F30A03934203
:108B6000F3D0D4F8A429D4F8A43915F8011F22446D
:108B70000133C3F30A03B54282F8AC19C4F8A4392F
:108B8000E6D1002070BD00BFC02E00200A4B084671
:108B9000D3F8201810B569B1D3F82038052B09D1C6
:108BA000064C002AD4F8B43004DD1146FFF7C2FFAA
:108BB000D4F8B43010BD00BFC02E0020B83F002054
:108BC00010B590F85010002380F8503089B10C4C4B
:108BD000D4F820287AB1D4F82028052A0DD1094CE0
:108BE0003C30D4F8B430FFF7A5FFD4F8B4300120FE
:108BF00010BD0120FCE71046FAE71846F8E700BF71
:108C0000C02E0020B83F0020002280F85120D7E776
:108C100090F85020531C0244DBB280F8503082F8A8
:108C20003C1090F851200AB1132B00D9C8E77047C7
:108C30002DE9F04FDFF81893BB4F4D4606460FCD98
:108C400007F1B8042DED048B0FC40FCD0FC497F8B6
:108C5000EA302A6822608DB0022B97F8F020049643
:108C600000F04482032B00F03A82002B00F0438294
:108C7000DFEDAE7AF0EE678A002AAD49AD4AC7F85B
:108C8000C820AD48AD4BC7F8D0000EBF002201226E
:108C90000B46059237EEA87AF5EE006AC6EE879A83
:108CA000A74DC7F8CC304FF00008A5F1230305F11C
:108CB000700BAA46019345469FEDA28A9FEDA29AAA
:108CC00027EE888A049BAB4240F38E81019B13F808
:108CD000014B0193002C00F0A881002302E0152B2A
:108CE00000F0A38103EB43024FEA43081BF8021094
:108CF000A14203F10103F2D13A4492F8891100290B
:108D000000F00782204635F0DDF90646304635F0A2
:108D1000F9F90078002840F0888107EB080305F195
:108D200001085FFA88F2032183F8C92183F8C8118A
:108D3000002E00F07A812309013B042B04F00F0C74
:108D400000F2AB8109EB4300808C40FA0CF414F084
:108D5000010400F0C181012404FA0CFC0CF1FF3C79
:108D60000CEA0000CDE9023253F028F9029BDFF84B
:108D7000E4C1039ACAF818604B44032193F83030D9
:108D800018440CEBC003CAF814309971DA715CF81E
:108D90003000727A00F13F4101F57E0109EB91212B
:108DA00091F8381001F01F0C4909032904FA0CF45A
:108DB00000F08881042900F07E81022900F073818F
:108DC0009C88B4FA84F3C3F11F03C3F3CC0100EB16
:108DD000810103F00703D1F820C09B004FF00F0E74
:108DE0000EFA03FE2CEA0E0CC1F820C0D1F820C008
:108DF00002FA03F343EA0C0307AA0B6211460223AB
:108E00000292CDE90743FFF7FBF8029A059B002B7E
:108E100000F02681B7F8E830D7F874C4346807EE5C
:108E2000903AF8EEE77AFCEEE77A17EE900ABCFB90
:108E3000F0F303F57F43FF331B0CBCFBF3F3B3FBF1
:108E4000F0F001381FFA80FE07EE903ABCFBF3F316
:108E5000B8EE677A2188DFF800C167EE087A013B37
:108E6000CAED027A69EE677A6445E7EE287A9BB22A
:108E700089B2CAED037A11D0344884420ED0B4F1DD
:108E8000804F0BD0ACF57C4C644507D00CF5806C62
:108E9000644503D00CF5806C644502D121F070016B
:108EA00089B2DFF8B8C0644500F0C9800CF5806C69
:108EB000644500F0C48021F440710CF56C4C89B21B
:108EC00064452180C4F82CE0238540F0E180002334
:108ED00023864FF0010CA4F814C0337A7179002076
:108EE000CDE909004FF0600EADF820000B90980717
:108EF000CDF81CE040F1A880DB0003F0080304205B
:108F0000ADF82A30ADF820002046029134F0D0FCB4
:108F100002990C292CD8DFE801F07F2B2B2B762B24
:108F20002B2B6D2B2B2B2300B83F00206F12033906
:108F3000995E04089D5E04082908030819FB0208CD
:108F4000D04000206F12833A00007A4400040140B0
:108F500094EF0508AC4100200000014000100040E3
:108F6000A38B23F400631B041B0C43F40063A38353
:108F70003368B3F844206FEA42426FEA524292B239
:108F8000A3F844201A88194692B242F0010221F84F
:108F9000342B7079CAF804300C180022CAF800404B
:108FA0000A50002D00F09680D7F81C118B4200F07B
:108FB0009B80012D00F08E80D7F838118B4200F095
:108FC0009380032D40F08680D7F85421D31A18BF20
:108FD000012345460122042D8AF810308AF8112019
:108FE0000AF11C0A7FF46EAE4B480DB0BDEC048B49
:108FF000BDE8F08FA38B23F008031B041B0C43F088
:109000000803A383B4E7238B23F400631B041B0C26
:1090100043F400632383ABE7238B23F008031B0493
:109020001B0C43F008032383A2E73C4A3C4B00207F
:10903000C7E933320DB0BDEC048BBDE8F08F218061
:10904000C4F82CE0238544E75B0003F002034FF4EF
:109050008070ADF82830ADF81EC0ADF82C0053E795
:10906000B0EE690A029253F0A5F9FCEEC07AD7F887
:1090700074C43468029A17EE903ABCFBF3F303F51C
:109080007F43FF331B0C4FF6FE7EBCFBF3F3DBE6A6
:10909000244B9C423FF41BAF1BE7CAF81400CAF8EC
:1090A000186007AAB2E6DFF880E0DEF844100C434F
:1090B000CEF8444084E61C49D1F830C044EA0C04A0
:1090C0000C637DE6DFF860E0DEF840100C43CEF87C
:1090D000404075E601237CE7CAF81440DFE7DFED86
:1090E000137ADFED138AC7E5134672E7DFED117AD5
:1090F000F0EE678AC0E5104BDFED107A104AC7F832
:10910000C83001230593C7F8D020054BF0EE678ADD
:10911000C0E50E46FAE500BF7040002035FF0208AA
:10912000995E04080004014000380240ACC5A7372E
:10913000ACC5A736282930389D5E04086F12833AE3
:1091400029080308F8B5214C1D270E46054684F86A
:10915000787420F0E9FA002020F088FA082020F046
:1091600085FA0E2020F082FA384620F07FFA04209B
:1091700020F07CFA042020F079FA002020F076FA22
:10918000302020F073FA002020F070FA304620F0F2
:109190006DFA002020F06AFA20F0B0FA04F279406B
:1091A00020F0CCF9234670B194F8792462B994F890
:1091B0007A24302A00D03AB993F87B2422B993F864
:1091C0007C342B700120F8BD0120FCE7B83F002063
:1091D00000F01F0240090123032803FA02F304D020
:1091E00004280CD0022805D07047074A116C0B43A5
:1091F00013647047044A516C0B4353647047024A2E
:10920000116B0B43136370470038024000487047EE
:109210000C4200202DE9F041324C94F88F341BB9F8
:1092200000273846BDE8F08194F88E1404F59D605F
:109230003EF0C4FA07460028F2D094F88F043DF0BF
:10924000EBF994F88C34C4F8F0040133DBB210B1BC
:109250002422C371827109213DF08CFCD4F8F00402
:109260003DF054FE94F89004D8B9D4F8B430632B90
:10927000FBD91D481D4E1E4DDFF878803EF0D2FA16
:10928000A4F8EC0402E056F8045FF5B14046A847A4
:1092900003460028F7D0174884F8B4353EF086FC22
:1092A000BFE73DF0B9F994F88C34C4F88005013378
:1092B000DBB210B15A22C371827109213DF05AFC10
:1092C000D4F880053DF022FECFE794F88F043EF0FD
:1092D000FDF894F890040028A2D03EF0F7F82F464D
:1092E0009FE700BFB83F002040420F00D4EF0508C1
:1092F0001F110508A04400200E4B30B4DB684278F3
:1093000001780D4CDB43C3F30223C3F10403DBB24A
:1093100002FA03F360181B0101F01F05012249093D
:1093200003F0F003AA4080F8003344F8212030BC59
:10933000704700BF00ED00E000E100E030B50368D9
:109340005A4D5B4C1A88D5F87404B0FBF1F0A34277
:1093500000F1FF3083B080B292B211D055498B42F8
:109360000ED0B3F1804F0BD0A1F580318B4207D0E6
:1093700001F580618B4203D001F580618B4202D1FF
:1093800022F0700292B24C498B4268D001F58061A4
:109390008B4243D022F4407201F56C4192B24FF6F9
:1093A000FF748B421A80DC62188564D100221A8611
:1093B00001229A821A883E4992B242F001028B42FF
:1093C0001A8063D0B3F1804F62D03C4A934261D09F
:1093D00002F5806293425FD002F5806293425DD0D5
:1093E00002F5806293425BD002F58062934259D0CD
:1093F00002F59632934257D002F58062934213D021
:1094000002F58062934208BF09220ED04FF001237B
:1094100001A80193FFF770FF03B030BD4FF6FF7155
:109420001A80D9621885C3E70822254B03EBC203D3
:1094300001A893F85D408DF8044001224FF4807339
:109440008DF80520ADF80630FFF756FF1B2CE3D151
:109450001C4B019301A8FFF74FFF03B030BD012162
:109460004FF6FF741A80DC62188599821A8892B2CE
:109470000A431A80A9E70F4A934297D001229A82A1
:109480001A8892B242F001021A809BE70022CCE7D0
:109490000122CAE70222C8E70322C6E70422C4E782
:1094A0000522C2E70622C0E70722BEE7B83F002038
:1094B0000000014000040140001000400004004092
:1094C00094EF050819010001002877D0F0B58388D2
:1094D000B3FA83F3202B83B00446C3F11F0258D0A4
:1094E000374D384E15444FF0004006EB820230FAFB
:1094F00003F395F8A850C2F8AC1A05D0324A1168A7
:1095000021EA030111605361204600213DF032FB46
:10951000A38822682C49B3FA83F7C7F11F0404F02B
:10952000FC0000F1804000F59C3004F00304A4002E
:1095300002F13F434FF00F0C82680CFA04FC22EA60
:109540000C02826003F57E038268C3F38723A34085
:10955000134383600A681D484FF00043FB4022EA32
:1095600003020A604A6822EA03024A600A681A4350
:109570000A608A6822EA03028A60CA6822EA030251
:10958000CA6002682E441343036096F8EC3AF02B4D
:1095900001D803B0F0BD0E4B5B5D8DF80430F021B7
:1095A00003224FF4807301A886F8EC1A8DF8052089
:1095B000ADF80630FFF7A0FE03B0F0BD704700BF66
:1095C00094EF0508B83F0020003C0140083C0140F2
:1095D000A455060800285FD00368374A2DE9F041FA
:1095E00003F13F4404F57E0402EB9422012492F837
:1095F000382002F01F055209032A04FA05F456D058
:10960000042A4FD0022A48D08588B5FA85F0C0F1E7
:109610001F00C0F3CC0603EB860600F007008200B3
:109620000F24306A944020EA04003062306A01FA64
:1096300002F20243002132624FF0010E0A464FF05F
:10964000030C02270EFA02F838EA050002F10102C3
:109650001CD118680CFA01F420EA0400186018689C
:1096600007FA01F606431E609E6826EA04069E601D
:1096700098689860586820EA0800586058685860F0
:10968000D86820EA0400D860D868D860102A01F1B0
:109690000201D7D1BDE8F0817047084A556C2C43D0
:1096A0005464B1E7054A156B2C431463ACE7034AD5
:1096B000156C2C431464A7E794EF050800380240AA
:1096C0002DE9F84FC94C94F8F31A0546C1F340014F
:1096D000D4F8F80A3DF020FC94F8F31AD4F8F40A10
:1096E000C94301F001013DF017FC002D00F0EC80B2
:1096F00005F1FF38BE4D5FFA88F80127D4F8F83A33
:1097000033B11A689B8851690B4214BF538313838A
:10971000D4F8F43A33B11A689B8851690B4214BFEC
:1097200053831383B4F8003B002B40F0658194F819
:10973000021BD4F8040B3DF0EFFBDFF8B8C2FA20AF
:109740004FF0100E4FF47A71DCF80430C3F30803C5
:10975000002B40F01E81EFF31183002B40F01981A4
:10976000D4F8B420D5F80890D4F8B4309A42F7D1A0
:10977000D4F8303B9945F3D8D4F82C6B01FB06F3B1
:10978000A3EB0903B3FBF6F301FB0232DCF8043070
:10979000C3F30803002B40F0BA80EFF31183002BD2
:1097A00040F0B580D4F8B430D5F808B0D4F8B4603F
:1097B000B342F7D1D4F8306BB345F3D8D4F82C6B5F
:1097C00001FB06F9A9EB0B09B9FBF6F901FB0393C1
:1097D0009B1AB3F57A7FD9D30138B5D1D4F8F83ACA
:1097E00033B11A689B8851690B4214BF53831383AA
:1097F000D4F8F43A33B11A689B8851690B4214BF0C
:1098000053831383B4F8003B002B40F0E38094F8BB
:10981000021BD4F8040B81F001013DF07DFBDFF861
:10982000D4C1FA204FF0100E4FF47A71DCF80430F6
:10983000C3F30803002B40F08B80EFF31183002B60
:1098400040F08680D4F8B420D5F80890D4F8B4302D
:109850009A42F7D1D4F8303B9945F3D8D4F82C6B21
:1098600001FB06F3A3EB0903B3FBF6F301FB0232A2
:10987000DCF80430C3F3080343BBEFF311832BBBC5
:10988000D4F8B430D5F808B0D4F8B460B342F7D106
:10989000D4F8306BB345F3D8D4F82C6B01FB06F940
:1098A000A9EB0B09B9FBF6F901FB03939B1AB3F57E
:1098B0007A7FDDD30138B9D108F1FF385FFA88F833
:1098C000B8F1FF0F7FF41AAFBDE8F88FEFF3118AFC
:1098D0008EF31288D5F808B02B68DB0344BFC4F8B8
:1098E000287BD5F808B0D4F8B430D4F8289B5FFAB8
:1098F0008AFA8AF31188D4F82C6B4B4401FB06F9E1
:10990000A9EB0B09B9FBF6F901FB0393CEE7EFF3E3
:10991000118A8EF31288D5F808B02B68DE0344BF95
:10992000C4F8287BD5F808B0D4F8B430D4F8289B14
:109930005FFA8AFA8AF31188D4F82C6B4B4401FB46
:1099400006F9A9EB0B09B9FBF6F901FB03933FE715
:10995000EFF311898EF31288D5F808A02B68DA038B
:1099600044BFC4F8287BD5F808A0D4F8B430D4F8A4
:10997000282B5FFA89F989F31188D4F82C6B1A44E3
:1099800001FB06F3A3EB0A03B3FBF6F301FB023280
:109990006EE7EFF311898EF31288D5F808A02B68D3
:1099A000DB0344BFC4F8287BD5F808A0D4F8B43052
:1099B000D4F8282B5FFA89F989F31188D4F82C6B35
:1099C0001A4401FB06F3A3EB0A03B3FBF6F301FB16
:1099D0000232DBE6D4F81C3B002B3FF420AFD4F876
:1099E000082B0023136084F8193B18E7B83F0020C8
:1099F00010E000E000ED00E0D4F81C3B002B3FF449
:109A00009CAED4F8082BB4F8243B0449B1FBF3F323
:109A10005B10136084F8197B8FE600BF40420F0093
:109A20002DE9F84FCE4CCF4D94F8F31AD4F8F80A3C
:109A3000C1F340013DF070FA94F8F31AD4F8F40A37
:109A4000C94301F001013DF067FA4FF00508012715
:109A5000D4F8F83A33B11A689B8851690B4214BFA5
:109A600053831383D4F8F43A33B11A689B8851694D
:109A70000B4214BF53831383B4F8003B002B40F018
:109A80005D8194F8021BD4F8040B3DF045FADFF831
:109A9000DCC232204FF0100E4FF47A71DCF8043043
:109AA000C3F30803002B40F01C81EFF31183002B5C
:109AB00040F01781D4F8B420D5F80890D4F8B43029
:109AC0009A42F7D1D4F8303B9945F3D8D4F82C6BAF
:109AD00001FB06F3A3EB0903B3FBF6F301FB023230
:109AE000DCF80430C3F30803002B40F0B880EFF338
:109AF0001183002B40F0B380D4F8B430D5F808B00F
:109B0000D4F8B460B342F7D1D4F8306BB345F3D88E
:109B1000D4F82C6B01FB06F9A9EB0B09B9FBF6F99C
:109B200001FB03939B1AB3F57A7FD9D30138B5D1E2
:109B3000D4F8F83A33B11A689B8851690B4214BFC4
:109B400053831383D4F8F43A33B11A689B8851696C
:109B50000B4214BF53831383B4F8003B002B40F037
:109B6000E18094F8021BD4F8040B81F001013DF070
:109B7000D3F9DFF8F8C132204FF0100E4FF47A71AC
:109B8000DCF80430C3F30803002B40F08980EFF3C6
:109B90001183002B40F08480D4F8B420D5F80890CD
:109BA000D4F8B4309A42F7D1D4F8303B9945F3D881
:109BB000D4F82C6B01FB06F3A3EB0903B3FBF6F31C
:109BC00001FB0232DCF80430C3F3080333BBEFF3CC
:109BD00011831BBBD4F8B430D5F808B0D4F8B46006
:109BE000B342F7D1D4F8306BB345F3D8D4F82C6B2B
:109BF00001FB06F9A9EB0B09B9FBF6F901FB03938D
:109C00009B1AB3F57A7FDDD30138B9D108F1FF385B
:109C100018F0FF087FF41CAFBDE8F88FEFF3118A4E
:109C20008EF31288D5F808B02B68DB0344BFC4F864
:109C3000287BD5F808B0D4F8B430D4F8289B5FFA64
:109C40008AFA8AF31188D4F82C6B4B4401FB06F98D
:109C5000A9EB0B09B9FBF6F901FB0393D0E7EFF38E
:109C6000118A8EF31288D5F808B02B68DE0344BF42
:109C7000C4F8287BD5F808B0D4F8B430D4F8289BC1
:109C80005FFA8AFA8AF31188D4F82C6B4B4401FBF3
:109C900006F9A9EB0B09B9FBF6F901FB039341E7C0
:109CA000EFF311898EF31288D5F808A02B68DA0338
:109CB00044BFC4F8287BD5F808A0D4F8B430D4F851
:109CC000282B5FFA89F989F31188D4F82C6B1A4490
:109CD00001FB06F3A3EB0A03B3FBF6F301FB02322D
:109CE00070E7EFF311898EF31288D5F808A02B687E
:109CF000DB0344BFC4F8287BD5F808A0D4F8B430FF
:109D0000D4F8282B5FFA89F989F31188D4F82C6BE1
:109D10001A4401FB06F3A3EB0A03B3FBF6F301FBC2
:109D20000232DDE6D4F81C3B002B3FF422AFD4F81E
:109D3000082B0023136084F8193B1AE7D4F81C3B66
:109D4000002B3FF4A4AED4F8082BB4F8243B06490A
:109D5000B1FBF3F35B10136084F8197B97E600BF47
:109D6000B83F002010E000E040420F0000ED00E0AE
:109D7000B0B10C49D1F8343B102B03D105210020A0
:109D800034F0F2BB03EB43020A4482F8380B202084
:109D900082F8390B0120034482F83A0BC1F8343BB6
:109DA000704700BFB83F0020F0B53E4CD4F8E8241F
:109DB0001378012B95B006D0022B01D1136AE3B1C1
:109DC000002015B0F0BD92F904506A1CF8D0022DA5
:109DD000F6DC0DF10E06024694F8EC1400962846C7
:109DE00051F0D2F80028EBD0284651F07DF9002838
:109DF000E6D09DF80E0015B0F0BD60F07F000121A7
:109E00000DF10F058DF80F0000260DF10E00002753
:109E1000CDE90833CDE90E6705938DF81C300D931D
:109E200010931293049506910B918DF830108DF8D4
:109E300044100A90EFF31180102383F31288D4F8B2
:109E4000E8341B6A0BB3069B04AD29461BB1CB69F2
:109E50001431002BFBD1136A0BB39A683AB98B42C9
:109E60000AD01A682AB15B689A68002AF7D01433BE
:109E7000F3E70D4AC3E90025C0B280F31188D4F896
:109E8000E824136A002BFCD1B3E704ABC0B2136221
:109E900080F3118804F59D604EF05AFAEFE7024A0C
:109EA0001A60FFDEB83F0020A04400202DE9F84FE3
:109EB0002E4F00EB800407EBC404D4F86C6B2EB17A
:109EC000054694F8810B00F0FF0820B14FF0000820
:109ED0004046BDE8F88F89469A46934638F0EAFB3B
:109EE0004FEA49010123C9B284F8821B84F883BB7D
:109EF00084F8853B84F8868B84F8843B84F8813B26
:109F000084F8808BB288C4F888AB91058146C4F888
:109F10008CAB1DD43388DA0510D442F20F7405E0FF
:109F200038F0C8FBA0EB0903A34215DC33889B057E
:109F3000F6D433889BB243F480733380B3889BB2EA
:109F400043F440734FF00108B3804046BDE8F88FFA
:109F500098464046BDE8F88FB7F8E03B01339BB226
:109F60002846A7F8E03B50F06DFEB1E7B83F00206F
:109F70000128B5EEC00A10D0F1EE10FA0BDD9FED0E
:109F8000177ADFED177AE0EE077AFCEEE77A17EE44
:109F9000903A98B2704700207047F1EE10FA0BDD4E
:109FA0009FED107ADFED107AE0EE077AFCEEE77AAB
:109FB00017EE903A98B27047EDD5F7EE007A30EE92
:109FC000270A9FED0A7ADFED0A7AE0EE077AFCEEC7
:109FD000E77A17EE903A98B2704700BF00E0F94474
:109FE0000000404200C079440000834400C079C4AE
:109FF00000E0824470B5464E96F8E24B04EB8403D1
:10A0000006EB8303A50093F8E43B032B6ED8DFE84F
:10A0100003F059291E02254406EB8505D5F8E80B07
:10A02000002870D196F8343C9C425FD0013404F093
:10A030000302934286F8E22B58D002EB820406EB2F
:10A0400084040223C4F8E80B84F8E43B70BD2B19A8
:10A0500006EB8303D3F8E82B72B1013AC3F8E82B7F
:10A06000002070BD2B1906EB8303D3F8E82B002AE0
:10A07000F3D1022283F8E42B254406EB850595F8FD
:10A08000F03B013BDBB285F8F03B8BBB214B96F8F4
:10A09000346CD3F8F810D5F8EC0B621C02F0030214
:10A0A0004B1E0324B242034485F8E44BB3FBF1F0AA
:10A0B000C5F8E80B1AD0994218D80138C5F8E80B52
:10A0C000012070BD3DF054FF80B1124B2C44D3F8F9
:10A0D000F82006EB8404012102F51C5384F8E41BEC
:10A0E0000F33B3FBF2F3C4F8E83B70BD012070BD41
:10A0F000084BD3F8F820012002F2E733B3FBF2F368
:10A10000C5F8E83B70BD0138C5F8E80B002070BD0C
:10A11000B83F00209801002070B5214DD5F8383C9B
:10A1200093F82620DAB11B699847E0B1D5F8383C9E
:10A1300093F824208AB105F63C4600241A19E0B2AF
:10A140009B6992F82C10B6EC010A9847D5F8383C78
:10A1500093F8242001349442F0DB5B69984795F82A
:10A160004C3C332B00D070BD95F84D3C002BFAD001
:10A17000D5F8383C93F82430042B1E46A8BF04269B
:10A18000002BF0D00024074D234618464CF0C0FCAD
:10A190000134E3B29E4245F8040BF6D870BD00BF0F
:10A1A000B83F0020084C002003681A78012A01D02B
:10A1B0000020704793F90430044A03EB830302EB59
:10A1C000C30393F8810BC0B2704700BFB83F0020B3
:10A1D00010B5094CD4F8780C3CF098FED4F8780C03
:10A1E00008B12323C38001213CF0C4FC03483DF0A7
:10A1F00019FBA4F8740C10BDB83F0020809698009D
:10A2000030B583B00D46012301460DF10702044627
:10A2100007483DF04FFD9DF8072035EA020304D0C2
:10A2200003482A4321463DF0B9FD03B030BD00BFCD
:10A23000284C0020F0B53B4CD4F8705C2B78022BF6
:10A2400095B018D0012B02D0002015B0F0BD95F9C3
:10A2500004506B1CF8D0022DF6DC0091134694F8E4
:10A26000741C0246284650F08FFE0028ECD0284689
:10A2700050F03AFFE9E72B6A002BE5D10DF10F0C06
:10A280008DF80F00002601200027CDE90833CDE925
:10A290000A12CDE90E6705938DF81C300D931093CB
:10A2A0001293CDF810C006908DF830008DF8440060
:10A2B000EFF31180102383F31288D4F8703C1B6AEB
:10A2C00013B3069B04AE32461BB1D3691432002B84
:10A2D000FBD12B6A13B3996839B993420AD0196834
:10A2E00029B15B6899680029F7D01433F3E70E4A67
:10A2F000C3E90026C0B280F31188D4F8702C136A29
:10A30000002BFCD10120A0E704ABC0B22B6280F38C
:10A31000118804F547604EF01BF8EEE7024A1A6018
:10A32000FFDE00BFB83F0020284C002070B5036856
:10A330001D78022D14D0012D01D0002070BD0446DF
:10A3400093F904000A4B421C83F83C5DF5D00228C7
:10A35000F3DC0A4603F63C532179BDE87040A5E5DD
:10A360001B6A002BE9D101223DF030FB012070BDBA
:10A37000B83F00200848002302461178022902F164
:10A38000060204D00133062BF7D10020704703EBFF
:10A39000430300EB43007047F84C00202DE9F041E7
:10A3A0007B4C82B0242204F55460002154F03EFC22
:10A3B00094F8695D0023C4F8643D002D3CD1D4F8C5
:10A3C000083E6BB39B6A5BB37248984783683BB3A4
:10A3D0000388DFF8D4C1013B9BB26046664600218A
:10A3E0003778032F06F106061ED001310629F7D172
:10A3F00000220178022900F1060000F08480013279
:10A40000062AF6D1D4F8641D052909D0481C02FBA0
:10A4100001C2C4F8640D02200021938010705180A5
:10A42000284602B0BDE8F081062303FB0141B1F8E4
:10A43000423D013B9BB2DBE794F8680D04F557639E
:10A44000C4F86C3D08B90025B9E73CF0E5F8C4F85C
:10A45000780D18B183790BB1422BF4D129464E48BF
:10A460003DF0ACF905460028EDD0D4F86C3D494AE2
:10A470009868C3F8942008B12223C38009213CF0D6
:10A4800079FBD4F86C3D454F98683CF03FFD44485B
:10A49000D4F86C6D3DF0C6F90123B0803220C4F8C9
:10A4A000286E84F82C3E38F031F904230DEB0302BA
:10A4B000D4F86C0D00269F2101963DF033FA9DF8EB
:10A4C00005009DF804209DF80630000240EA024095
:10A4D0001843324601E0884219D0D3B207EB031388
:10A4E0000132D3F8B8100029F5D194F8680DA4F81A
:10A4F0000C1EA4F8181EC4F8101EC4F8141E0D4635
:10A500003CF0E4FF5BE7062101FB02C283E7B3F8FE
:10A51000C220B3F8C070B3F8BC602249B3F8BE00E3
:10A52000A4F8182E1202D3F8C4C0A4F80C7E01FBC4
:10A5300000F04FF4807301FB06F14FF0000802FBBE
:10A5400007F6C4F8102EC4F8146EC4F83C0EC4F814
:10A55000381EC4F808CE84F81A8EA4F80E3E3DF0DA
:10A5600061F9D4F8287EB6F1807FB88003D8012342
:10A5700084F8213E23E70123B72642463846694640
:10A5800084F8203E8DF800603DF0C4FAEFE700BF8C
:10A59000B83F0020C04D0020284D002094EF050852
:10A5A000404B4C0040420F00F84C00202DE9F04198
:10A5B000C94BCA4ECA4DCB4C0822C3F88820336B16
:10A5C00082B043F00103336307464FF4C05228467C
:10A5D00040F2023388466946CDE90023FDF710FDBD
:10A5E0006B6AC14ADFF848C323F470436B626B6A3D
:10A5F00043F420436B626B6A23F470236B626B6AD3
:10A6000043F420236B62736CB84D43F4804341F2F2
:10A6100024417364736B44F8018041F22C4143F090
:10A620008003675041F2284EB14973630227C4F892
:10A63000441EB04EB04BB14944F80E5084F8487EE9
:10A640004FF0A045AE4FC4F84C5EC4F8506EC4F84D
:10A65000583EC4F8941E05F5326506F5A07603F55C
:10A660001073A1F5D071C4F85C7EC4F8985EC4F88C
:10A67000606EC4F89C3EC4F8641E012307F5107791
:10A68000A5F5E465A6F5A066A1F58C61C4F840CEF9
:10A69000C4F8A07EC4F8545EC4F80C6F84F84B3E36
:10A6A00005F5A075536106F5B076C4F8D01E84F8A0
:10A6B000523F1946934B944AC4F8D85EA7F5BC673D
:10A6C000A035C4F8E46E914EC4F8E07EC4F8E83ECC
:10A6D00007F5D45703F56953C4F8EC5E4FF05025E5
:10A6E0000020DFF850E2DFF850C2C4F8102FC4F8A1
:10A6F000147F02F5A04207F5A047C4F8186FC4F80C
:10A700001C3F06F5A046A3F54853C4F8205F04F5A6
:10A710006465C4F8242FC4F82C6FC4F84C3FC4F807
:10A72000D4EEC4F8DCCE0246C4F8287F2B4684F869
:10A73000540F402683F81C21A3F822210132042A59
:10A74000C3E9496083F81D1183F81F01C3F8300184
:10A7500003F12803EED1002211462B46402083F856
:10A760007423A3F87A230132042AC3E9DF0183F8B2
:10A77000751383F87713C3F8881303F12803EED118
:10A780004FF0A04362489A6822F001029A60DA68AA
:10A7900042F04002DA60FDF731FF94F8493E0022B2
:10A7A000212161F317420BB142F4801294F8431E49
:10A7B000D4F84C3E01299A6300F0E380DA68D4F8BB
:10A7C0004C6FD4F8500EC2F3076121F0600141F0E4
:10A7D000400161F31F620021DA603160026861F3B9
:10A7E000CC22026094F84B2E012A00F0B780102191
:10A7F0004848FEF723F94748FEF706F9D4F8500E0B
:10A8000094F8413E00224FF0FF31026142618161C4
:10A81000C26153B305F114073F4E114607EB83079E
:10A820004FEA830C4FF0FF0E56F8042F1368002BED
:10A83000ACBF00234FF09043B74213601161C2F8E0
:10A8400008E0F1D105F15003344963440027FF26A5
:10A8500051F8042F1568002DACBF00254FF090452E
:10A860009942156017619660F2D1036994F8431E0E
:10A8700043F480730129036160D0D4F84C2E28483A
:10A880000023936100294FF0FF336FF08041516145
:10A890005360516114BF00231023906143F470137F
:10A8A000916943F4605343F008030B43936141F211
:10A8B00028419368615843F0010393600B689847FF
:10A8C000184B194ADA606846184B0093FEF714FDDE
:10A8D00002B0BDE8F08100BF00E100E000380240B6
:10A8E00000000240B83F0020003C014094020020DC
:10A8F000400040010008005000090050000B0050CB
:10A9000020090050C00500500010005000300050D9
:10A91000044E0020F84D00200C4E0020484E002030
:10A920000008008000ED00E00005FA054302000188
:10A93000080401002005005060050050D4F84C2E9A
:10A94000144B03636FF08041134D00234FF0FF3031
:10A95000936151615060516195619FE701680F4AB1
:10A960000F4E41F003010160802159629E62C3F8DD
:10A970000421E022C3F80821C0F24002C3F80C21F0
:10A9800035E79A6822F03E0141F02A0161F307029F
:10A990009A6013E70301810000080080A0004000D6
:10A9A0008000200099B10A6B824216D9154BD3F86A
:10A9B0006C23914221D35C3991421ED30B6B984298
:10A9C000F9D38B6B9842F6D80B46184670470D4B5F
:10A9D000D3F86C130A6B904212D30B680BB9F4E7EF
:10A9E0000A6B90420B4602D38A6B9042EDD951F824
:10A9F0005C3F002BF4D1184670470023184670477F
:10AA00000A46D8E7B05000202DE9F047CC0143D1E9
:10AA10000346224A43F8082B4FF0FF3242600224DB
:10AA200018467E26DFF87880D8F870932644013ED9
:10AA3000051D49466FF070474FF0010A08E0A34238
:10AA40001CD0631C45F8043C321B1C460435CAB1BB
:10AA50000B6BA34202D88B6BA34204D22046FFF7B4
:10AA6000A1FF014690B10A794B6B002AE7D1A342BE
:10AA700004D0E6D245F8042C631CE5E745F8047CD5
:10AA8000631CE1E7C8F87013BDE8F08745F804AC33
:10AA9000321B631C4946D8E78026C3E7F8FFFF0F47
:10AAA000B05000202DE9F04F0646044616F8010B81
:10AAB00087B0002800F04B838B46002509E013F097
:10AAC0007FFD01353446264616F8010B002800F0BC
:10AAD00088802528F3D16278302A00F0D7800234AC
:10AAE0000027A2F13001CBB2092B4FF000035ED951
:10AAF0006C2A7AD0782AE6D8572A64D9A2F158016C
:10AB00002029E0D801A050F821F000BFC9AD00080D
:10AB1000C7AA0008C7AA0008C7AA0008C7AA000851
:10AB2000C7AA0008C7AA0008C7AA0008C7AA000841
:10AB3000C7AA0008C7AA00080BAD000819AD000895
:10AB4000C7AA0008C7AA0008C7AA0008C7AA000821
:10AB5000C7AA0008C7AA0008C7AA0008C7AA000811
:10AB6000C7AA000803AD0008C7AA0008C7AA0008C2
:10AB7000C7AA0008C7AA00089FAC0008C7AA000817
:10AB800073AD0008C7AA0008C7AA0008C9AD00082D
:10AB9000BCF1050FACD8A2F137010A29A8D114F8ED
:10ABA000012B03EB830301EB4303A2F13001C8B295
:10ABB0000928A2F16106A2F1410CF0D9052EE7D8CF
:10ABC000A2F15701E9E762B1252A7FF47CAF26465E
:10ABD000252013F0F5FC16F8010B013500287FF451
:10ABE00078AF284607B0BDE8F08F14F8011B78292C
:10ABF0003FF669AF57294DD9A1F15802202A3FF6F7
:10AC000062AF01A050F822F0DBAE0008C7AA00082E
:10AC1000C7AA0008C7AA0008C7AA0008C7AA000850
:10AC2000C7AA0008C7AA0008C7AA0008C7AA000840
:10AC3000C7AA00080BAD00082BAE0008C7AA000881
:10AC4000C7AA0008C7AA0008C7AA0008C7AA000820
:10AC5000C7AA0008C7AA0008C7AA0008C7AA000810
:10AC600003AD0008C7AA0008C7AA0008C7AA0008C1
:10AC7000C7AA00089FAC0008C7AA000885AE000854
:10AC8000C7AA0008C7AA0008DBAE0008A2780127FF
:10AC9000033426E70029A4D0252998D013E75BF8D0
:10ACA000048BB8F1000F00F04582464616F8010B00
:10ACB000002800F04E82CBB1324600E0B3B112F86A
:10ACC000011B1F46013B0029F8D1023F73B1B94671
:10ACD000202013F075FC4B46002B09F1FF39F7DCFF
:10ACE00098F8000027EAE773013340B101339F1B56
:10ACF00013F066FCF31916F8010B0028F8D11D4477
:10AD0000E1E65BF8043B1D60DDE65BF8040BC0B2D6
:10AD1000013513F055FCD6E6DBF800000028C0F240
:10AD20005481EC46092806464FF0010209DD02EB8A
:10AD300082025200B0FBF2F10929F8D8002A00F093
:10AD40009181D248A0FB02E1B6FBF2F009288E46C1
:10AD500000F1570900F130084FEAD10140F2798142
:10AD6000092A0CF8019B02FB106640F27B810A461F
:10AD7000E7E7DBF800C0BCF1090F4FF0010209D989
:10AD800002EB82025200BCFBF2F10929F8D8002A3A
:10AD900000F0A6816E46B646BC48A0FB0281BCFB13
:10ADA000F2F00928884600F1570A00F130094FEA0D
:10ADB000D10140F3B581092A0EF801AB02FB10CC9A
:10ADC00040F290810A46E7E75BF804CBBCF10F0F35
:10ADD0004FF0010140F2D8810901BCFBF1F00F28CE
:10ADE000FAD8002900F0CB816E46B0460EE0582A12
:10ADF0000CBF4FF0370E4FF0570E864401FB10CCBE
:10AE0000090908F801EB0CD0BCFBF1F00928EEDCD5
:10AE10004FF0300E864401FB10CC090908F801EB15
:10AE2000F2D1002288F8002097E05BF8040B00289C
:10AE3000C0F28681EC46092806464FF0010209DD82
:10AE400002EB82025200B0FBF2F10929F8D8002A85
:10AE500000F057818D48A0FB02E1B6FBF2F0092813
:10AE60008E4600F1570900F130084FEAD10140F257
:10AE70003F81092A0CF8019B02FB106640F24181D8
:10AE80000A46E7E75BF804CBBCF1090F4FF001027B
:10AE900009D902EB82025200BCFBF2F10929F8D871
:10AEA000002A00F099806E46B6467848A0FB0281E1
:10AEB000BCFBF2F00928884600F1570A00F130097E
:10AEC0004FEAD10140F32181092A0EF801AB02FBC0
:10AED00010CC40F283800A46E7E75BF804CBBCF174
:10AEE0000F0F4FF0010240F24D811201BCFBF2F056
:10AEF0000F28FAD8002A00F03F816E4658293146C3
:10AF00001DD007E002FB10CC120901F8018B22D002
:10AF1000BCFBF2F0092800F1570800F1300EF1DC1B
:10AF200002FB10CC120901F801EBF1D113E002FB96
:10AF300010CC120901F8018B0DD0BCFBF2F00928EE
:10AF400000F1370800F1300EF1DC02FB10CC1209E1
:10AF500001F801EBF1D100220A709DF80090002F5A
:10AF600014BF4FF030084FF02008B9F1000F00F087
:10AF7000FE800DF1010211460BB91AE0CBB111F8B8
:10AF8000010B1F46013B0028F8D1023F8BB1BA46A6
:10AF9000404613F015FB5346002B0AF1FF3AF7DC4D
:10AFA00027EAE7730133B9F1000F3FF4A8AE0DF1C2
:10AFB000010217469E1B484613F002FBBB1917F807
:10AFC000010B0028F8D11D447DE52D2240428DF86B
:10AFD00000200DF1010CA5E66E46B64600228EF863
:10AFE00000209DF80090002F14BF4FF030084FF064
:10AFF0002008B9F1000F00F0B5800DF101021146F3
:10B000000BB91AE0CBB111F8010B1F46013B002828
:10B01000F8D1023F8BB1BA46404613F0D1FA5346FD
:10B02000002B0AF1FF3AF7DC27EAE7730133B9F1A5
:10B03000000F3FF464AE0DF1010217469E1B484617
:10B0400013F0BEFABB1917F8010B0028F8D11D4404
:10B0500039E5092A0CF8018B02FB10664FEADE0184
:10B060003FF685AE00220BF1040B8CF800209DF812
:10B070000080002F14BF30272027B8F1000F6DD0BB
:10B080000DF10102114623B91DE000BFCDCCCCCC9F
:10B09000CBB111F8010B1E46013B0028F8D1023E4E
:10B0A0008BB1B146384613F08BFA4B46002B09F1B1
:10B0B000FF39F7DC26EAE6730133B8F1000F3FF4FD
:10B0C0001EAE0DF101026E4617469E1B404613F060
:10B0D00077FABB1917F8010B0028F8D11D44F2E4E8
:10B0E0006E46B64600220BF1040B8EF8002078E77E
:10B0F000092A0CF8018B02FB10664FEADE013FF6CD
:10B10000BFAE00228CF80020B1E7092A0EF8019B9F
:10B1100002FB10CC4FEAD8017FF660AF0A46C4E6C6
:10B12000092A0EF8019B02FB10CC4FEAD801D9D9AD
:10B130000A4631E6DFF85480282008F10106BAE516
:10B140002D2240428DF800200DF1010C73E60546DA
:10B1500047E55F1E002B7FF4BAADB4E45E1E002B02
:10B160009FD1B0E45F1E002B7FF455AFABE45F1EB0
:10B17000002B7FF40CAFA6E46E463146EBE66E463C
:10B18000B0464EE66046B8E660462DE6F454060842
:10B19000214A038890429BB212D002F5806290420D
:10B1A0000ED0B0F1804F0BD0A2F58032904207D084
:10B1B00002F58062904203D002F58062904203D192
:10B1C0004A8823F070031343144A904218D002F5C2
:10B1D0008062904214D030B423F440730C894D68DF
:10B1E00002F56C429BB2234390420C880380C562F7
:10B1F00004850DD18B7A0386012330BC838270478E
:10B2000003800B884A68C2620385012383827047EA
:10B21000034B9842EED0EFE70000014000100040E1
:10B22000000401402DE9F041494D4A4ED5F87434EF
:10B2300086B004460139A6FB030389B29B0C0027A4
:10B24000013B02912068ADF8043001A91646ADF823
:10B250000C70ADF806708DF80E70FFF799FF237A29
:10B26000ADF80870602201929A07CDE90477D4F80E
:10B27000008067793ED5DB0003F008030422ADF8B7
:10B280001230ADF8082001AA39464046039632F044
:10B290000FFB0C2F12D8DFE807F03A1111114511FE
:10B2A0001111501111110700B8F81C3023F400637C
:10B2B0001B041B0C43F40063A8F81C302268B2F88E
:10B2C00044306FEA43436FEA53439BB2A2F84430E1
:10B2D000138811469BB243F0010321F8343B637994
:10B2E000C5F80C2BC8180022C5F8080BCA5006B0C8
:10B2F000BDE8F0815B0003F002030122ADF81030DD
:10B300004FF48073ADF80620ADF81430BBE7B8F801
:10B31000183023F008031B041B0C43F00803A8F8A3
:10B320001830CBE7B8F8183023F400631B041B0C6B
:10B3300043F40063A8F81830C0E7B8F81C3023F0D5
:10B3400008031B041B0C43F00803A8F81C30B5E7E6
:10B35000B83F002083DE1B4370B4447941BB0368CF
:10B360004FF400524FF40076202502213CBB1A8C8A
:10B3700022F001021204120C1A841A8B188C22F08B
:10B38000F30280B2120420F00A00120C014342F0D2
:10B39000010241F001011A8319841A8B22F00C0278
:10B3A0001204120C1A831A8B92B270BC1A83704763
:10B3B00000220368164615461146002CD7D0042CEF
:10B3C00021D0082C38D0198C21F480510904090CA3
:10B3D00019849C8B1D8C45F6FF7040F6FF41284078
:10B3E0002140024342F4805241F4807199831A84CF
:10B3F0009A8B22F440621204120C9A839A8B92B2B6
:10B4000070BC9A8370471A8C22F010021204120C3E
:10B410001A84188B198C89B240F6FF4221F0A001E2
:10B4200002400D4342F4807245F010051A831D84DA
:10B430001A8B22F44062B3E71A8C22F48072120451
:10B44000120C1A84998B1A8C21F0F30192B2090420
:10B4500022F42062090C324342F4807241F001016F
:10B4600099831A849A8B22F00C02C4E70B88F0B4FB
:10B4700033BB028C4C880E898B88C98822F001026C
:10B480001204120C0284058B028CADB225F0F30578
:10B4900092B22B4322F00A0243EA061322439BB2E4
:10B4A00042F0010203830284038B23F00C031B048C
:10B4B0001B0C0383038B9BB21943F0BC01837047C1
:10B4C000042B048C2CD0082B4E888A880D89C988BF
:10B4D00051D024F480542404240C0484838B078CDE
:10B4E0002C0344EA022440F6FF421A4045F6FF735B
:10B4F0003B4043EA063322439BB292B243F480536B
:10B5000082830384828B22F440621204120C8283B1
:10B51000838B9BB243EA01239BB2F0BC83837047C9
:10B5200024F010042404240C4D880F898A88C988CB
:10B530000484068B038C12029BB242EA073423F088
:10B54000A00340F6FF42324043EA051322439BB278
:10B5500092B243F0100302830384028B22F4406210
:10B560001204120C0283038B9BB243EA01239BB2A9
:10B57000F0BC0383704724F480742404240C0484F6
:10B58000848B038CA4B29BB224F0F30423F42063D5
:10B59000224343EA062342EA05129BB243F4807336
:10B5A00092B282830384838B23F00C031B041B0C55
:10B5B0008383838B9BB21943F0BC818370470E4A0F
:10B5C000DFF840C010B50D4CC2F88C430C4CC2F8EB
:10B5D00078030023C2E9E1C4A2F87C13C2F88033E7
:10B5E000A2F87E3382F89033282202FB03F403533F
:10B5F00001339942F9D110BDB050002040420F00F4
:10B60000A01CE9FF20A10700036870B55E6A26B19F
:10B6100033461922BDE87040184704460D4601F133
:10B62000190600E023689B68204698470028F9D057
:10B63000236815F8011B1B6820469847B542F1D1D5
:10B6400070BD00BF2DE9F047164D0746002095F963
:10B65000999305F5687684B007EB010805F5C86590
:10B6600004464FF0B60A3368ABB193F83830142B68
:10B6700011D019F1020F01D04B450CD100226946BF
:10B680003046CDE90244CDE90078ADF808A08DF848
:10B690000D402AF073FFE036B542E4D104B0BDE8B6
:10B6A000F08700BFB05000200449054A054B836075
:10B6B000C0E900120C3044F019BC00BFEDFE0408D4
:10B6C00059E5040805E504082DE9F041534C2DED3A
:10B6D000048B012284F87C27514ADFED529A92F8BC
:10B6E0004036B2F85816B4F89C249FED4F9A07EEF6
:10B6F000103AB8EEC77AF2EE047AC7EE276A04F27F
:10B700009C4500264A436420C4F87467B2FBF0F2FB
:10B7100004F22C67C4F878274FF0000807EE101ADF
:10B72000C5EDB56AB8EEC77ADFED406A86EE878A66
:10B73000F0EE678AB4F89C3400EE903AB3EE090A52
:10B74000F8EE600A3846FFF7AFFFB4F89C3400EE1D
:10B75000903A38EE080AF8EE600A0022052107F157
:10B76000900047F0C5FEB4F89C34C5F8B08268EE8E
:10B77000287A07EE103AF5EEC07AF1EE10FAB8EE3C
:10B78000476AB7EE007A17DDB3B166EE296AF4EEC8
:10B79000E76AF1EE10FA88BFF0EE676AF0EE665ADB
:10B7A000E6EE095AC6EEA57AF4EEC77AF1EE10FA83
:10B7B00088BFF0EE477A01E0F0EE477AB5EEC08A36
:10B7C000F1EE10FAC5EDAD7A19DDC3B166EE296A66
:10B7D000F4EEC86AF1EE10FA88BFF0EE486AF0EEB7
:10B7E000667AE6EE097AB0EE676AC6EE867AF4EE1D
:10B7F000C77AF1EE10FA88BFF0EE477A01E0F7EE73
:10B80000007A0136032EC5EDAE7A07F1300705F157
:10B810000C058FD1BDEC048BBDE8F081B83F002052
:10B82000B05000203333F33E83F9223E00004843FA
:10B830002DE9F04FAC4AAD4CB2F8A014B2F89E34EA
:10B840002DED088B07EE901A0AEE103A94F8353A6F
:10B850009FEDA7BADFEDA7AAF8EE679A07EE903A38
:10B86000B4F8363AF8EEE77AF2EE046A0A2B87EE7D
:10B87000A67AB8BF0A239246002285B004F5CC67A9
:10B88000C4F8702604F5246B04F6682607EE903A97
:10B89000B4F8383A87ED007A08EE103AF8EEE78A05
:10B8A000B8EEC88AB6EE009AF4EE488A29EE890A04
:10B8B000F1EE10FAC8BFB0EE688A94F8343AC7EDDA
:10B8C000018AB4EEC80AF1EE10FAD8BFB0EE408A91
:10B8D000082BA8BF0823B1F57A7F38BF134680EE46
:10B8E000080AC4F86C3687ED028A50F0F1FDB7EE15
:10B8F000007AB4EE470AF1EE10FA48BFB0EE470AFC
:10B90000FDEEC07AB8EE4AAAF8EEE76A17EE905A52
:10B91000CAEE297A04F64423C4F83C5A9FED76AA6D
:10B9200067EEA67A87EE276A89EEA67ADFED737A4C
:10B930008BED006AC7EE279A0BF2247B88EEA90AEA
:10B94000C3ED009A50F044FE0228B8BF022088EEF2
:10B95000290A8046C4F8480A50F03AFE2328A8BFB6
:10B960002320B8F1230FA8BF4FF023084045C4F8A7
:10B970004C0A04F52563B8BF4046A0EB0801814698
:10B98000012DD3ED007ADFED5E8A5E480093B8BFEB
:10B9900001250131F5EE407AF1EE10FA2ED15A4A26
:10B9A00001960023CDF808B01646AB461D4607EEBB
:10B9B000905AF8EEE79A039169EE8B9A0135B0EE52
:10B9C000690A50F03DFDB0EE408AB0EE690A50F0D1
:10B9D000D1FEA0EE288A242D4A48039928EE0A8A2F
:10B9E00020EE0A0A86ED008A86ED010A06F10806B5
:10B9F000DDD15D46DDE9016BF0EE6A7A002346E9B0
:10BA0000053891FBF5F246F80C9C46F8082C46F8F0
:10BA1000045C32460133482BE2EC018AFAD1D0F8BB
:10BA2000F8E1D0F8FCC106F5907300220132242A17
:10BA3000C3F800E0C3F804C003F10803F6D106F52B
:10BA400015765E45A6D1009BDFF8C4909FED2F8A46
:10BA5000C3ED007A0026B819CB464FF00008D4F8A1
:10BA60006C36984500F1240531DA07EE908A97ED9F
:10BA7000016AF8EEE76AD7ED027A36EE897A77EE58
:10BA8000C67A743067EE877A07EE103AB8EEC77A56
:10BA9000BAF89E3487EE870A042108F1010800EE07
:10BAA000903A30EE060AF8EE600AABEC010A97ED28
:10BAB000001AC5ED178AA6EE881AC5ED168AC5EDDF
:10BAC000158AC5ED148A47F0BFFD2846C7E706F57D
:10BAD0009076B6F5587F09F12009BCD105B0BDECD0
:10BAE000088BBDE8F08F00BFB83F0020B0500020A9
:10BAF000C3B8B23DBC297E3F72F97F3F000090423F
:10BB00000000000094EF050800620020CDCC4C3E00
:10BB1000245700202DE9F04F2DED028BDFF8BC916A
:10BB2000DFF8BCB1DFED688A9FED688A85B009F166
:10BB300038040127FEB219F8010B3246592132F0C0
:10BB400017FB0546002800F099800368A0600122D9
:10BB5000B3F1804F04F8302C00F09B805C4A934294
:10BB600000F09780DFF87CA1DAF8743407EE903AA1
:10BB7000F8EE677A00228021DFF86C8144ED0A7AC2
:10BB800098F87E0104F82F2C07EE900AABFB0323F4
:10BB9000F8EE677ADB08002244F80C3C4FF4005CB6
:10BBA000012319F8010C44F8101C44ED088A04ED37
:10BBB0000B8A44ED097A44F8082C44F8142C44F814
:10BBC00018CC24F81C3C24F81A3C3AF025FDE0601F
:10BBD00010B15923C671837198F87C31012B71D053
:10BBE000022B0CBF422102216A7A3AF0DBFDDAF81F
:10BBF00074142846FDF7A2FB14F82F3C002B53D0F9
:10BC00002146344B41F8043D0022284632F008F822
:10BC100098F87D312868002B4FF0010A14BF0023EB
:10BC20000223CDF808A0ADF8063004236A79ADF8F8
:10BC300004200DEB0301ADF80C30FFF717FC54F8AE
:10BC4000103CA26898F880121268013E013B9BB23A
:10BC5000F6B213854FF0FF3500234FF40050B14288
:10BC6000D562A2F814A044E9060324F81CAC24F819
:10BC70001AAC44F8083C01D131F0C4FD0137052F5E
:10BC800004F140047FF456AF05B0BDEC028BBDE873
:10BC9000F08FDFF850A0DAF8743407EE903A012202
:10BCA000F8EE677A114667E70B48DFF840C044F8C2
:10BCB000040C63602246211F2846C4F800C031F0FE
:10BCC000AFFFA5E722218FE700401C4600000000DF
:10BCD000000C004029CF030851D003082063002046
:10BCE0001F85EB51B83F0020A861002029D8030828
:10BCF0000C480D4BD0F89C1210B40C4CC0F88C3290
:10BD00008A1E2231B0F8A8321B01A4FB03C3DB0852
:10BD1000A3F5B06322F8023F9142F3D15DF8044BE2
:10BD2000704700BFA8610020A5380208CDCCCCCC5C
:10BD3000F0B5264C85B004F52E730546C4F89C3248
:10BD4000FFF7D6FF224A234B1A214020C4E9A4233F
:10BD500084F886122DF01AF9002835D094F8F532BF
:10BD600094F8F67294F8F76290F904001A4A002DDC
:10BD700014BF4FF4E1314FF4E121002B14BF022333
:10BD80000023002F14BF30250025002E18BF43F0DC
:10BD900001032B430325CDE90153009100234021EA
:10BDA0002DF051F9C4F80C0348B10C480BF094FB8A
:10BDB00094F8113384F810030BB984F81153D4F8B4
:10BDC0000C03003818BF012005B0F0BDA8610020A9
:10BDD00095C8010889CD0108DDC501089DCE01087F
:10BDE00070B5084C251D2E4614F8010B2AF0F0FD05
:10BDF00028B1037905F8013BB442F5D170BDFF23AA
:10BE0000F8E700BFBC6400202DE9F0471D4F012674
:10BE100007F10805B2464FF03D094FF0000817F84A
:10BE2000010B3AF0F9FB044690B180F80690C67118
:10BE3000FB7803F07F02012A18D013F0800F204610
:10BE40000DD185F804803BF05BF885F805802C6007
:10BE50000136052E05F10805E1D1BDE8F08785F82A
:10BE600004A03BF053F885F805A0F0E71B0605D4C5
:10BE7000012120463AF07EFEFB78DEE73BF046F8F3
:10BE8000F6E700BFC46400202DE9F04F0C68B64E01
:10BE9000B64F2588D6F87464B6FBF2F2013B013A3E
:10BEA000BC4296B283B09BB2AAB211D0B04DAC42A4
:10BEB0000ED0B4F1804F0BD0A5F58035AC4207D041
:10BEC00005F58065AC4203D005F58065AC4202D132
:10BED00022F0700292B2A74DAC4211D005F58065F8
:10BEE000AC420DD022F4407205F56C4592B2AC42E2
:10BEF0002280E362268540F021810023238602E030
:10BF00002280E36226850126A6820B7A4A7913F005
:10BF1000020572D00021DB0003F008038E46019178
:10BF200088460F468C460E464FF480654FF0400A17
:10BF30004FF0040B0C2A08D8DFE802F0CC07070703
:10BF4000A00707071807070771000C2A3DD8DFE88C
:10BF500012F0EC003C003C003C00B8003C003C000F
:10BF60003C003C003C003C003C008C00218CDFF895
:10BF7000FC8121F480710904090C2184218CB4F81E
:10BF80000490A68B89B226F0730621F40071360462
:10BF90000F43360C444547EA0C211FFA89F946F055
:10BFA000600600F0D080724FBC4200F0CC800023CD
:10BFB000A4F80490A683E3632184A38B23F00803F1
:10BFC0001B041B0C43F00803A383B4F844306FEA4E
:10BFD00043436FEA53439BB2A4F84430238821467D
:10BFE0009BB243F0010321F8343B00238D18C0E9D4
:10BFF00000548B5003B0BDE8F08F5B004FF48067B6
:10C0000003F0020C0197AA462B46AB464FF4804141
:10C010004FF4805E4FF010084FF480778AE7238C4E
:10C02000524E23F480531B041B0C2384238CB4F83E
:10C030000480A78B9BB227F4E64723F400533F0408
:10C040004EEA03053F0CB44245EA0C3347F4C047BF
:10C050001FFA88F500F0848006F58066B4427FD030
:10C060000021A580A78321642384A38B23F400638C
:10C070001B041B0C43F40063A383A6E7218C3B4EF7
:10C0800021F010010904090C2184218CA788258B3B
:10C0900089B225F4E64521F020012D0448EA01018A
:10C0A0002D0CB44241EA0C11BFB245F4C0456ED02C
:10C0B00006F58066B4426AD00023A7802583A36377
:10C0C0002184238B23F400631B041B0C43F40063C3
:10C0D00023837AE7218CDFF894E021F00101090441
:10C0E000090C2184258CB4F80480B4F8189025F04C
:10C0F000020529F073092D044FEA09494CEA0601AB
:10C100002D0C4FEA1949744545EA01061FFA88F8D3
:10C1100049F0600930D016498C422DD00023A4F894
:10C120000480A4F8189063632684238B23F008030B
:10C130001B041B0C43F00803238346E70C4B9C4273
:10C140003FF4DBAEDFE621F4006141EA032323F490
:10C15000806329F4405943EA050149EA0E0926E7BC
:10C1600025F480450D437BE7B83F002000000140E7
:10C1700000040140001000404FF6F375354028F4EC
:10C1800040782B4348EA070843EA0B06C6E721F04C
:10C19000800141EA031323F04001019B27F440672B
:10C1A00041EA0A011F4387E7564BB3F89E342DE955
:10C1B000F04107EE903AF8EEE77AB6EE007A67EED5
:10C1C000877A2DED0A8BB4EEE70AF1EE10FADFED77
:10C1D0004E8A82B0B0EE408AB0EE41AAF0EE47AA95
:10C1E00006DDF4EEE70AF1EE10FA78D5B0EE678AD4
:10C1F000B5EEC08AF1EE10FA76DDF5EEC00AF1EE8A
:10C2000010FA71DDF4EEC80AF1EE10FA6CD560EEAA
:10C21000887A60EEE00AE8EE080AC7EEA09A3B4E84
:10C220003B4FDFF8F880044600F19005DFED397AE6
:10C230009FED397A6AEE277AB7EE009AF4EEC87A63
:10C24000F1EE10FA88BFF0EE487A67EE877A89EE51
:10C2500029BAC7EE8ABAB8EE00CAB5EEC08AF1EEC6
:10C2600010FAC4E901872660C4ED068AC4ED058A88
:10C27000C4ED048AC4ED038A39DDB5EEC0AAF1EE3F
:10C2800010FA34DDF5EEC09AF1EE10FA2FDDB0EEC3
:10C290006B0A47F0DDF820EE2A0AF0EE497AE0EE6C
:10C2A0000B7A60EE8C0AB0EE496A80EEA77AA0EEB7
:10C2B0004B6AC9EE276A84ED087A84ED0A7A86EE25
:10C2C000277AC4ED076AC4ED096A84ED0B7A30342D
:10C2D000A542C2D102B0BDEC0A8BBDE8F081B0EE40
:10C2E000688AF0EE689A9AE7DFED079A97E784ED9F
:10C2F000079AC4ED088AC4ED098AC4ED0A8AC4ED20
:10C300000B8AE4E7B83F002000000000A1E5040824
:10C3100005E504083333F33EDB0FC94059E5040853
:10C320000A44914215D030B441F2210511F8014B75
:10C33000082380EA042010F4004F85EA40040ABF75
:10C340004000A0B280B2013BF5D18A42EED130BCB0
:10C350007047704770B5654C654DD4F84C33D4E9DF
:10C36000D1122DED068B41EA02000126184384B05C
:10C3700085F818616FD009B209EE101A12B2DFED1C
:10C380005D7A1BB2B8EEC99A08EE902A08EE103A10
:10C3900029EE279AF8EEE88AB8EEC88A0023B0EEB4
:10C3A000490A85F8183168EEA78A28EE278A50F0E6
:10C3B00047F8F0EE407AB0EE490AB0EE679A50F0D6
:10C3C000D9F9B0EE40AAB0EE680A50F039F8F0EEB4
:10C3D000407AB0EE680AF0EE678A50F0CBF9F0EEE2
:10C3E000409AB0EE480A50F02BF8F0EE407AB0EEEA
:10C3F000480AB0EE678A50F0BDF969EE085A29EE96
:10C40000006A6AEE006A2AEE087AB0EE655AA9EE72
:10C41000E65AE9EEE56AF0EE465AE9EE875AA9EEE9
:10C42000867A60EE687A29EE289A28EE888A68EE85
:10C43000CA8AC4EDE19A84EDE35AC4EDE56AC4ED1D
:10C44000E07A84EDE79A84EDDF8AC4EDE48AC4EDF6
:10C45000E25A84EDE67AD4F85033012285F81921A6
:10C4600033B9B4F954332BB904B0BDEC068B70BDAD
:10C47000B4F95433B4F95003B4F952231E4C9FED70
:10C480001D6A1E4984FB00C6C017C0EBA60084FBD2
:10C4900002C684FB03C4D217DB17C2EBA602C3EBB0
:10C4A000A40312B200B21BB207EE102A06EE900AE5
:10C4B00007EE903AF8EEE66AB8EEC77AF8EEE77A59
:10C4C00066EE866A27EE067A67EE867A002301A872
:10C4D000CDED016A8DED027ACDED037A85F8193143
:10C4E00046F016FE04B0BDEC068B70BDA8610020BE
:10C4F0009801002035FA8E3C67666666006500206C
:10C500002DE9F041214E224F96F8A33387F8F33AF4
:10C5100006F5687607F6F42500244FF0050816F8AE
:10C52000010B20BB28600134032C05F10405F6D172
:10C5300097F8F31AD7F8F40AC94301F001013AF069
:10C54000EBFC97F8F31AD7F8F80A81F00201C1F36F
:10C5500040013AF0E1FC97F8F31AD7F8FC0A81F0B1
:10C560000401BDE8F041C1F380013AF0D5BC3AF0D6
:10C5700053F8013401212860E3B210B180F806803D
:10C58000C37128683AF0F6FACEE700BFA861002030
:10C59000B83F0020F8B5254C254DB4F8A863A5F8A0
:10C5A000006BE6B994F8A4033AF036F894F8A523A2
:10C5B000C5F8040B003A18BF012285F8022B48B1D8
:10C5C00094F8A6132D22002914BF11210121C28045
:10C5D0003AF0D0FABDE8F840002036F093B994F86C
:10C5E000A473002238462D2131F0C2FD044638469E
:10C5F0003AF012F8C0B1BCB12D22C5F81C0BC280B4
:10C60000617AFCF7E7FF0B49B1FBF6F12046C1F375
:10C610004F0289B2A5F8246BFEF704FED5F8082B6B
:10C620000023136085F8193BF8BD00BFA861002006
:10C63000B83F002040420F002DE9F84F244C94F8F9
:10C64000B43384F8AA3304F2AB37002604F57274CD
:10C650005FFA86FB0BF101085FFA88F8012117F8F1
:10C66000010F42460E448A4631F082FD4FF0000928
:10C67000054638B3387804F80E9C04F80D9C04F88D
:10C680000FBC04F810AC44F8045C39F0C5FF18B1D5
:10C6900080F806A080F80780697AFCF79BFF0D49B7
:10C6A0002846FCF74BFE0C4B23600C4B221D214609
:10C6B0002846C4E9013931F0B3FA697928684A4655
:10C6C00028F0ACF9082E04F11C04C1D1BDE8F88FA4
:10C6D000A861002040420F00554A03080DF90208E6
:10C6E00070B52C4C2C4B94F8E004C4F8D8340022DC
:10C6F0000221C4F89824C4F89C24C4F8A024C4F8E7
:10C70000D424A4F8DC2431F033FD002834D0234BAA
:10C710000168054603F170005A7C12B15A689142D3
:10C720002BD01C338342F7D1002394F8E004C4F8E3
:10C73000C45384F8B83339F06FFF08B10223C380C3
:10C74000697AFCF747FF28461549FCF7F7FD154ABB
:10C750001549C4F8C8130026111F2846134BC4F806
:10C76000CC33C4F8D06331F05BFA6979286832467B
:10C77000BDE8704028F052B970BD0B8D0C4A0D49D0
:10C78000D2F874249BB20133B2FBF3F381F81A316F
:10C79000CAE700BFA861002000FFFF00D0400020D2
:10C7A00040420F007465002035F90208D1FA0208F2
:10C7B000B83F0020980100202DE9F04FC84D95F8B2
:10C7C000EA70032F83B00446A7F1050328D8C54EAD
:10C7D0000122032B86F838292ED90023204686F81B
:10C7E0004435FCF725FAC5F8380CD5F8383C002B51
:10C7F00000F094800022012183F8244083F8251062
:10C8000083F826209A6244B12C33B74A1C4412F8AC
:10C81000011B03F8011B9C42F9D103B0BDE8F08F66
:10C82000DAB2032AD3D9AF4A0021032B82F8381990
:10C8300070D982F84415D8E795F8F33086F8442586
:10C84000012B00F09180022B74D0DFF8C8E2A74BD7
:10C850000193BEE80F00DFF894C295F8F280ACE8CF
:10C860000F00BEE80F00ACE80F00DEF80020CCF8A7
:10C870000020B8F1000218BF01229D4B85F84D2C15
:10C88000072FC6F8243500F2FB80042F00F2078141
:10C89000DFF884920027A9F1230B5FFA87FA0AF1E7
:10C8A00001085FFA88F8BC4242464FF0030107F1E5
:10C8B00001072BDD1BF8013B0093184631F058FCB3
:10C8C000009B024600921846002A00F0E08039F0F2
:10C8D000A3FE009A034651461046C9F814302BB106
:10C8E0004FF0030C83F806C083F80780137A95F89D
:10C8F000EA204AF093FA002800F0C9804FF00103C3
:10C90000042F89F8113009F11C09C6D1019BC5F823
:10C91000383C6AE7012382F8443566E7754E764C69
:10C920000FCE0FC40FCE0FC4336844F82039C5F8BA
:10C93000384C72E795F8F230002B86D0082F13D1CF
:10C94000DFF8D0C185F84D2CBCE80F0006F2145773
:10C9500001970FC7BCE80F000FC7DCF80020644B3D
:10C960003A60C6F824358EE0DFF8B0E1DFF898B120
:10C9700095F8F290DFF8A08186F88475BEE80F0084
:10C98000ABE80F00BEE80F00ABE80F0000215846EF
:10C99000B9EB0109DEF8003040F8843B18BF4FF0D6
:10C9A00001090F464FF44C7285F84D9CC6F8484576
:10C9B00086F846150BF56D7B52F038F9A8F123097E
:10C9C000BA460094D6F84835534553DD19F8014B63
:10C9D000204631F053FC0746204639F01DFE3C7AD4
:10C9E00095F84D2C04F001010131074686F84515F4
:10C9F0000AB184F00104002F61D0BA7982B1422AD1
:10CA00000ED03E4B3E493F4AC6F8FC34012386F81F
:10CA10004635009CC6F8F414C6F8F824002376E7DF
:10CA2000BA88CBF80C704901B2FA82F241F00901E0
:10CA30000AF1010AC2F11F024FF00303CBF80420F0
:10CA4000CBF814108BF8104087F807A0BB7138465C
:10CA50003AF090F8E30738460FD53AF051FADBF890
:10CA60000C30C8F81430BAF1040F0BF1200B08F1A8
:10CA70001C08A7D1009C244B49E73AF047FAEEE79F
:10CA8000082F7FF405AF214BC6F84C3500E71D4B4E
:10CA90001A4AC6F82835C6F82C25002337E795F83A
:10CAA000F1301B4AC6F84C25012B05D0022B06BFDE
:10CAB000B8FA88F35B09002386F85035E8E64901A7
:10CAC00041F009014FF0FF33CBF81410CBF80430DC
:10CAD000CBF80C708BF810400AF1010AB7E700BFE1
:10CAE000B83F0020A8610020A4400020BC660020C0
:10CAF0005956050894F10508FC660020955E040867
:10CB00009D5E0408995E04088C660020195F040885
:10CB1000495F0408B8F10508D0400020DCF10508A1
:10CB2000F8B56E4F97F8030397F8045339F074FD86
:10CB300060B12F23C380202104463AF01BF80A205D
:10CB400031F05AFE20463AF01BFA18B9D7F83C39B2
:10CB5000DA0000D5F8BD013D092DFBD897F8024356
:10CB6000D4B940202CF012FA0028F3D090F9043008
:10CB700097F88512092BC8BF143B3B440A2993F848
:10CB8000404900F09D8093F84C3997F8F622002A2E
:10CB900008BF1C46002CDDD0204639F03DFD05467F
:10CBA000002800F085802F23C380012139F0E2FFA7
:10CBB000012108463AF0CAF92B68AA881A833C205A
:10CBC00035F0A4FD002101203AF0C0F997F80433B4
:10CBD000002B4CD0424C00261FE02B68AA885A83B9
:10CBE00031F00AFE94F8F31AD4F8F40A01F00101C6
:10CBF0003AF092F994F8F31AD4F8FC0AC1F38001E0
:10CC00003AF08AF92B68AA881A83782031F0F4FD6B
:10CC100097F8043301369E4229DA94F8F31AD4F8CF
:10CC2000F40AC94301F001013AF076F994F8F31AD5
:10CC3000D4F8FC0A81F00401C1F380013AF06CF9E8
:10CC40007820002DC9D1782031F0D6FD94F8F31A60
:10CC5000D4F8F40A01F001013AF05EF994F8F31AFD
:10CC6000D4F8FC0AC1F380013AF056F9CDE797F801
:10CC70000233ABB997F80333002B7FF46BAF97F80F
:10CC80000533012B7FF466AFD7F83C3913F080539E
:10CC90007FF460AF87F80433BDE8F84047F0F6B89A
:10CCA000322035F033FD2846002139F063FFE1E7FB
:10CCB000012139F05FFF012108463AF047F97EE78C
:10CCC000D7F864395B057FF545AF0BF071FB0028A1
:10CCD0007FF440AF002C7FF45FAF3BE7A8610020FA
:10CCE000B83F002048400822430010F0800F08BFE2
:10CCF000400083F0D50314BFD8B2C0B2013AF3D1DB
:10CD0000704700BF30B405688D424FF0000211D06B
:10CD100011F8013B08245A40530012F0800F08BF5D
:10CD2000520083F0D50314BFDAB2D2B2013CF3D182
:10CD30008D42EDD16B1C03602A7030BC704700BF80
:10CD400070B4344890F86839A3F13001092957D8F4
:10CD500000F66814224600F6771012F8015FA5F17C
:10CD60003001092904D88242F7D1002070BC7047F5
:10CD7000141B022C4ADD2848002101E010F8013B79
:10CD800001EB810103EB4103161A303B022E0446EE
:10CD900003F0FF01F2DC214B03FB01F1A2424FF053
:10CDA00000030DD903EB830314F8016B5B00303BE8
:10CDB0003344A24203F0FF03F4D1194800FB03F30C
:10CDC0002E2D06D01748A0FB032301EB930070BC67
:10CDD0007047013204200024157804EB8404303DB0
:10CDE0006400092D00F1FF30A4B202D82C44A4B293
:10CDF000013210F0FF00EFD1642202FB0433E1E7BF
:10CE000000211D4600F668120B46D9E7064C0021AA
:10CE1000C4E700BFA8610020116B00208096980035
:10CE200040420F00ABAAAAAA106B00202DE9F047E0
:10CE3000041E0D4612DB092C26DC824A0B46824872
:10CE4000A0FB0410C00800EB8000A4EB4000002110
:10CE5000125C1A7059702846BDE8F08764422D2391
:10CE6000092C01F8013B24D8764A774BA3FB040335
:10CE7000DB0803EB8303A4EB43030020D35C48707F
:10CE80000B702846BDE8F0876F4B632CA3FB04268C
:10CE90004FEAD60621DC6B4A0B466B49A1FB060123
:10CEA000C90801EB8101A6EB4101515C03F8011BAC
:10CEB000C5E7654A632CA2FB04364FEAD60637D88D
:10CEC000604A614BA3FB0603DB0803EB8303A6EB7D
:10CED0004303D35C01F8013BC7E7A3FB0627B4F586
:10CEE0007A7F4FEAD7070DD2564A0B465649A1FB27
:10CEF0000701C90801EB8101A7EB4101515C03F86F
:10CF0000011BCAE7A3FB072842F20F7294424FEAC3
:10CF1000D80836D84B4A0B464B49A1FB0801C90833
:10CF200001EB8101A8EB4101515C03F8011BDDE736
:10CF3000A2FB0637B4F57A7F4FEAD7070CD2414AF5
:10CF4000414BA3FB0703DB0803EB8303A7EB43037E
:10CF5000D35C01F8013BB4E7A2FB073842F20F7340
:10CF60009C424FEAD80821D8364A374BA3FB080326
:10CF7000DB0803EB8303A8EB4303D35C01F8013B1D
:10CF8000DEE7324AA3FB080994424FEAD90921D8C7
:10CF90002C4A0B462C49A1FB0901C90801EB810170
:10CFA000A9EB4101515C03F8011BB5E7274BA2FB3C
:10CFB00008099C424FEAD90921D8224A224BA3FBF7
:10CFC0000903DB0803EB8303A9EB4303D35C01F8FC
:10CFD000013BCAE71E4AA3FB090394424FEAD30A66
:10CFE00021D80B461849174AA1FB0A01C90801EBD1
:10CFF0008101AAEB4101515C03F8011BCAE7144B04
:10D00000A2FB09029C424FEAD20A13D80E4B0D4AEA
:10D01000A3FB0A03DB0803EB8303AAEB4303D35C04
:10D0200001F8013BCAE70A22BAFBF2F044F0E0FE45
:10D030000346D7E70A22BAFBF2F044F0D9FE0146D4
:10D04000E4E700BFFC540608CDCCCCCC9F860100A1
:10D050003F420F0083B50C46164605462BF048FFAD
:10D0600020462BF045FF0021204B0846002E08BF2C
:10D070001E4639F06BFF0021012039F067FF28467A
:10D0800039F05EFAB0B10121002039F05FFF284687
:10D0900039F04EFA0746204639F04EFA0028FAD009
:10D0A0003946204639F070FA3846B0470021084624
:10D0B00039F04CFF204639F043FA0028DFD0012137
:10D0C000002039F043FF204639F032FA0146284665
:10D0D000019139F031FA01990028F8D0284639F049
:10D0E00053FA0021084639F031FFC8E78971030877
:10D0F000F0B50023C1E90033C1E902330B61D0E987
:10D1000000258DB007AEDFF898E0C2F3056C374616
:10D110004CFA03F0C0073C4604D513F80E0004F89F
:10D12000010B27460133062BF2D11B4CDFF874E0CC
:10D13000C2F303200023205C3B708DF82400C2F36F
:10D14000073C0DF125074CFA03F0C0073C4604D517
:10D1500013F80E0004F8010B27460133082BF2D117
:10D1600000233B70C5F3435CC5F3434409AB084659
:10D17000C5F34F05C2F30351CDE902150193CDE983
:10D18000044C02F00F0305490096C2F3031245F068
:10D190004FF80DB0F0BD00BF9455060824550608A1
:10D1A0009C5506088855060870B5094CD4F87829AE
:10D1B000054662B10026D4F878092D2101363AF0EF
:10D1C00017FEAE42F7DBBDE870403BF0ADB870BD76
:10D1D000A86100202DE9F04385B008B13BF0AEF81E
:10D1E000164DDFF85C80002415F8023C009342469F
:10D1F0002346002101203BF00DFBDFF848902F462D
:10D20000002615F8023C9E4207F1040707D30134BB
:10D21000082C05F12605E7D105B0BDE8F08337F904
:10D22000023C029337F9043C4A46CDE900630021F1
:10D23000234601203BF0EEFA0136E2E7266B0020A0
:10D24000AC550608C455060810B5036804469B682B
:10D2500001219847FF230122A373627310BD00BF11
:10D2600070B51D4C0968D4F8B05A1C4ED4F8AC4ABD
:10D27000D6ED477ADFED1A6A491B00EE901A016875
:10D28000F8EEE00A091B60EEA70A00EE101A20EE85
:10D29000A07AB8EEC00A1C46A0EE007AB1EE400AB1
:10D2A000F1EEC77A67EEA67AFCEEE77AC2ED007A75
:10D2B00046F060F89FED0B7ADFED0B7AE0EE077A2F
:10D2C000FDEEE77A17EE902A002ABCBF02F50C4269
:10D2D000A032226070BD00BFA8610020980100202C
:10D2E0002C7D8E3FA00CB34500A00C46F0B54A4EF5
:10D2F0008BB00324354696F8C43A042B23D01CF097
:10D300003BFA00B345480121FBF71CFFD8B1444864
:10D310000221FBF717FFB0B1B6F8C53A49F2073260
:10D3200023F00801914207D049F20A32934203D018
:10D3300049F20B42934206D1032385F8C43A0124F3
:10D3400020460BB0F0BD42F2107031F055FA354B6B
:10D3500004AA03F1100E944618685968174603C7CB
:10D36000083373453A46F7D118681B7938601521A0
:10D3700060463B711CF0C0FA082101A81CF075FB47
:10D38000002843D09DF80430342B3FD19DF8053060
:10D39000372B3BD19DF80630312B37D19DF8073024
:10D3A0009DF8090085F8C73A9DF8083085F8C63A17
:10D3B00085F8C50AB5F8C51A01F5BF521F3292B2F9
:10D3C00041F2FE07BA4203D8012485F8C44AB7E700
:10D3D00021F0080249F20737BA4207D049F20A326F
:10D3E000914203D049F20B42914204D1022385F8C5
:10D3F000C43A0124A4E7013BDBB28E2B06D80628F1
:10D4000004D1042385F8C43A012499E7013C14F0BF
:10D41000FF047FF470AF93E7A86100206E6C0020DA
:10D420006D6C002000F2050870B444781F2C38D0D1
:10D43000352C41D02B2C42D004884EF6B205AC429C
:10D4400018D94EF6B505AC4218D14FF44054C12658
:10D4500070250E70157002884EF6B2018A4219D8F6
:10D460004EF6B0018A4294BFFF220D2220461A7068
:10D4700070BC70474EF6B005AC4208D8002008706A
:10D48000FF251070044620461D7070BC70474FF495
:10D49000D054DCE74EF6B5018A4214BFFF221822B1
:10D4A000E4E74FF4F844C22530200D701070FF21DE
:10D4B0002046197070BC70474FF47844F3E74FF47E
:10D4C000FC44F0E738B50F4C94F8D31A01F03F0153
:10D4D0008B1C024601F10A0584F8D13A84F8CE5A31
:10D4E00004F6CC2084F8CF2A08311CF00BF8254430
:10D4F00085F8CA0A94F8CE3A1C44000A84F8CB0A8C
:10D5000038BD00BFA86100202DE9F04FCB4DCC4CB9
:10D51000DFF83C938DB04FF00008009005F6583BC3
:10D5200054F80B0C002800F0FC8039F009F806468E
:10D53000002800F0BD81D9F8B43044F8073CE0265B
:10D540000023C04F04F8033CA4F10B0A06FB08F6C5
:10D5500054F80B0C38F0F4FF002800F0E28054F887
:10D560000B0C38F0E5FF14F8023C5A1E01460B2A5A
:10D570000DD8DFE812F01F003A004500520082008B
:10D580009900E10012012F013A016F018501242960
:10D590000CD0009A3AB995F83E2B8A4240F0768139
:10D5A000012204F8032C0D2BD2D184E0012304F8CE
:10D5B000023CCDE700234D29C4F8C53084F8CD30B6
:10D5C00084F8CE3004D0582908D004F8023CBFE7D4
:10D5D000022204F8022C84F8C430B9E7032304F8CB
:10D5E000023C022384F8C430B2E704233C2904F847
:10D5F000023C0AD03E290CD0002304F8023CA7E7E5
:10D600000A233C2904F8023CF4D1002304F8013C2D
:10D610009EE7012304F8013C9AE7D4F8C500BB1942
:10D620000344421CC4F8C52083F8AB1394F8CD0022
:10D63000022A81EA000184F8CD1089D12378C02B19
:10D64000DAD86278FF2A08D1052BD5D9012384F8CE
:10D65000C430072304F8023C7AE7A4F8C120002272
:10D660009342C4F8C93014BF0523062384F8C320AD
:10D67000C4F8C52004F8023C6AE7D4F8C500BB1919
:10D680000344421CC4F8C52083F8AB1394F8CD00C2
:10D69000D4F8C93041409A4284F8CD107FF458AF95
:10D6A000062304F8023C53E794F8CD308B42A3D113
:10D6B0000D2304F8023C14F8017C002F40F0EC80AC
:10D6C000614B08940FCB04AE86E80F00D4F8C93044
:10D6D000D4F8D100ADF82A7023440993B4F8C130CE
:10D6E000ADF8283094F8C3308DF82C3001238DF834
:10D6F0002D30324603AB08A903972BF0FBFE48B14F
:10D70000049B059394F8C420504B04933146504633
:10D7100028F034FF039E002304F8023C002E40F062
:10D72000BF8008F10108B8F1030F04F1E0047FF4B1
:10D73000F7AE0DB0BDE8F08FD4F8C500BA190244B9
:10D74000431CC4F8C53082F8AB1394F8CD2094F88C
:10D75000CE0001934A4084F8CD20FFF7C3FA019B25
:10D7600084F8CE00072B7FF4F3AEB4F80530C02B5D
:10D770003FF642AFB4F80320A4F8C120A27884F8A1
:10D78000C32000229342C4F8C93014BF08230923E0
:10D79000C4F8C52004F8023CDAE694F8CE00FFF79E
:10D7A000A1FA94F8CD3084F8CE004B40D4F8C500EF
:10D7B00084F8CD30BB190344421CC4F8C52083F85B
:10D7C000AB13D4F8C9309A427FF4C2AE092304F8EF
:10D7D000023CBDE694F8CD304B4084F8CD3094F84F
:10D7E000CE308B427FF408AF5AE7D4F8C500BA199F
:10D7F0000244431CC4F8C53082F8AB1394F8CE0041
:10D800000193FFF76FFA019B84F8CE00052B7FF49C
:10D810009FAEB4F80120B4F80330A4F8C1202278F8
:10D8200084F8C32000229342C4F8C93014BF0B23EC
:10D830000C23C4F8C52004F8023C89E6A861002046
:10D840005B540020B050002018F20508087C01202D
:10D85000B83F002094F8CE00FFF744FA84F8CE00D9
:10D86000D4F8C500BB190344421CC4F8C52083F892
:10D87000AB13D4F8C9309A427FF46AAE0C23A4E605
:10D8800094F8CE308B427FF4B7AE11E7232904BF62
:10D89000022204F8032C86E6002304F8023C40E749
:10D8A00054F80B0C2BF024FB54F80B0CB04738E762
:10D8B00014F8030C00283FF434AFD9F8B43054F80E
:10D8C000072C9B1A632B7FF62CAF012827D0022848
:10D8D0007FF427AF54F80B3CC5F8443B0122C5F850
:10D8E0004C3B40230F4885F8402BA5F8543B0E4A8B
:10D8F0000E4BC5F8482BC5F87839C5F8983BC5F8E4
:10D9000050BB3AF015FD4FF400502BF0EBFD0848EA
:10D910003AF004FD85F89C6B85F89D6B01E738F0C3
