:020000040800F2
:10000000F0FF01208D09060889EB0008098E04081D
:10001000050A0608050A0608050A06080000000089
:1000200000000000000000000000000085EB000858
:1000300081EB0008000000007DEB0008818E0408C1
:10004000050A0608050A0608050A0608050A06083C
:10005000050A0608050A060865C704082DC704082E
:10006000F5C60408BDC6040885C604088DC6050883
:100070007DC605086DC605085DC6050849C60508A4
:1000800035C6050821C60508050A06080000000057
:100090000000000000000000000000004DC6040841
:1000A00055100408A510040845100408CD100408D4
:1000B000951004088510040875100408FDF905085A
:1000C00005FA0508F1F90508F9F90508050A060811
:1000D000050A0608FDB7040845B70408000000003B
:1000E00015C60408050A0608751801080000000076
:1000F0000000000000000000000000000DC6050820
:1001000000000000050A060865100408050A060834
:1001100000000000000000000000000000000000DF
:10012000F9C50508E5C50508D1C50508BDC505081B
:10013000A9C5050800000000000000000000000044
:10014000000000000000000000000000090B010892
:1001500095C5050881C505086DC505088DB6040857
:10016000E5F90508EDF905080000000000000000B1
:10017000000000000000000000000000000000007F
:1001800000000000050A0608000000000000000052
:08019000050A0608050A06082D
:08019800EC0406000100000068
:08280000082800080040000850
:04400000FFFFFFFFC0
:108000002DE9F04700230F6801264FF0030C02E032
:108010000133102B41D006FA03F232EA0704F7D1FC
:10802000D0F800E05C000CFA04F52EEA050EC0F86A
:1080300000E091F80490D0F800A009FA04FE09F1DC
:10804000FF394EEA0A0EB9F1010FA846C0F800E068
:108050006FEA050515D8D0F808E005EA0E05856039
:108060004D79D0F808E0A54045EA0E0585604568E1
:1080700025EA020242608A7945689A4092B22A4310
:108080004260C26822EA0802C260CA79C568A2409A
:1080900001332A43102BC260BDD1BDE8F08700BF79
:1080A0000A480B4B816910B40A4C83608A1E223146
:1080B000838C1B01A4FB03C3DB08A3F5B06322F888
:1080C000023F9142F4D15DF8044B7047C027002075
:1080D000CD2E0208CDCCCCCC036870B55E6A26B13B
:1080E00033461522BDE87040184704460D4601F19D
:1080F000150600E023689B68204698470028F9D0C1
:10810000236815F8011B1B6820469847B542F1D13A
:1081100070BD00BF084AD2E90D3199421FBFD11886
:10812000013391F83C1001701DBFC3F30A03012015
:1081300053630020704700BFC0270020044BD3E9E1
:108140000D30C01AC0F30A00C0F50060704700BFD0
:10815000C0270020012380F85130704707B501A8DF
:10816000FFF7D8FF0028FAD09DF8040003B05DF8AF
:1081700004FB034BD3E90D30C01AC0F30A0070476B
:10818000C027002001207047024BC3F83C28C3F8E9
:1081900040187047C0270020024BC3F84428C3F89A
:1081A00048187047C02700207047704730B4114D01
:1081B000D5E90D239A1AC2F30A020A44B2F5006FF8
:1081C00012D8A1B101444A1E013810F8014FE91834
:1081D000824203F1010381F83C40C3F30A03F4D166
:1081E000AB63002030BC7047022030BC70470846AB
:1081F000F8E700BFC0270020212838B50C4605D07D
:1082000022282ED0202813D0002038BD0029FBD0F2
:10821000072AF9D11A4BD3F84C0893F8501893F861
:10822000512893F85238206021716271A371EBE7F5
:108230000029E9D0072AE7D1114DD5F840381BB104
:108240000968D5F83C089847206821796279A379B4
:10825000C5F84C0885F8501885F8512885F852382B
:10826000D2E70029D0D0022ACED1054AD2F8483828
:10827000002BC9D00988D2F844089847C4E700BF4A
:10828000C0270020024B0020C3F85408704700BFED
:10829000C0270020044B00200522C3F85428C3F84F
:1082A0004808C3F840087047C0270020704700BF47
:1082B000704700BF704700BF704700BF704700BFE6
:1082C000704700BF704700BF042301480B80704710
:1082D0009801002010B4074A074B92F8580812245E
:1082E00003F114020C8001280CBF184610465DF8FB
:1082F000044B7047C02700209C01002010B40C4A9A
:1083000092F85C3802EBC3010133DBB2042B4FF06F
:10831000050408BF00234FF4045081F8604882F838
:108320005C38C1F864085DF8044B4FF0FF307047CB
:10833000C0270020202301480B807047C401002083
:10834000642301480B807047E40100204323014867
:108350000B8070474802002010B5084CD4F8F40098
:10836000FF2809D00649D1F8802801F68401FFF7DB
:1083700043FFFF23C4F8F430002010BD9801002013
:10838000C0270020E8E700BF08B5D0F8E4355B6AF5
:108390009847002008BD00BF08B5D0F8E4351B6A37
:1083A0009847002008BD00BFD0F8E43510B504465A
:1083B0001B689847D4F8E8359B689847002010BDA3
:1083C00008B5D0F8E435DB6903B19847002008BD53
:1083D00008B5042290F81211D0F8E83580F813118E
:1083E00080F81221DB689847002008BD10B5D0F84E
:1083F000E83504461B699847032384F812310020AE
:1084000010BD00BF0B0617D401EB810300EBC303C3
:1084100010B400EB81000124002283F8764383F836
:10842000741383F87523426D5DF8044B136843F4AD
:10843000001300201360704701F07F0101EB8103FE
:1084400000EBC303012200EB810083F81C1183F8C9
:108450001E2183F81D2182691368002B01DA43F085
:10846000804343F400131360002070470B0630B4C0
:108470001CD401EB810200EBC202002300EB81055A
:1084800082F8741382F8753301241A4604FA01F154
:108490006D6D61F31F4201696FF3CF332B60CB69C0
:1084A00023EA0203002030BCCB61704701F07F015A
:1084B00001EB810400EBC404012200EB81050023E1
:1084C00084F81C1184F81D2102FA01F11A46AD69E5
:1084D00061F30F02DFE700BF10B581210446FFF70B
:1084E000C5FF20460121FFF7C1FF024B002083F8A2
:1084F0008C0810BDC027002010B581210446FFF76D
:10850000B5FF20460121FFF7B1FF82212046FFF78A
:10851000ADFFFFF7B7FE002010BD00BF38B50D4618
:1085200004468321FFF7A2FF29462046FFF7E4FF18
:10853000002038BDF0B416460A063AD401EB810596
:1085400000EBC5052824002204FB0104022B85F85A
:108550007413C5F87C6385F8773385F8752304F5C3
:108560005D7448D0154600EB8107012202FA01F143
:108570007F6D61F31F45D7F800C01CF4004F11D187
:10858000E488204946F0805242F4004242EA8342A5
:1085900004F00F041C4B42EA845211400CEA03031E
:1085A000194339600269D3692B430020F0BCD361C1
:1085B000704701F07F0101EB810500EBC505282420
:1085C000012204FB0104022B85F81C11C5F824616B
:1085D00085F81F31A5F8221185F81D2104F58E7448
:1085E0000CD0002500EB8107012202FA01F1BF69DE
:1085F00061F30F05BFE722711546B4E70025257129
:10860000F0E700BFFF87CC13007833EC002310B5F0
:10861000194604464022FFF78DFF802120460023A3
:108620004022FFF787FFD4F8E835A078012284F8CC
:1086300012215B689847002010BD00BF82B0002364
:10864000016801930B6901930E4B03E00A690192E3
:10865000013B13D0019A002AF8DA019A094B42F043
:1086600001020192019A0A610A69019203E00A6912
:108670000192013B02D0019AD207F8D4002002B047
:10868000704700BF400D0300436D064A1A61C2786F
:10869000012A06D100F2CC5058614FF080221968AF
:1086A0001A6070471800086010B580210446FFF773
:1086B000A9FE20460021FFF7A5FE2046BDE8104098
:1086C000E2E700BF70B44B78012B26D00B784A69E3
:1086D00000EB83035D6D2C682B69D2B18A684A6117
:1086E00002F07F0223F4002323F07F0342F40022F0
:1086F00013432B61C378012B04BF0B696B61C4F377
:10870000076363F07B0363F31F642C60002070BC7D
:1087100070478A6802F07F02E4E782694D69146855
:10872000136945B38E68B5428CBF06F07F0505F02E
:108730007F0523F4002323F07F0345F4002543EA5B
:10874000050388BF4E611361C378012B1DD0C4F3AC
:10875000076565F07B0565F31F641460002BD5D1B8
:108760004B69002BD2D002690878516B01238340FA
:108770000B435363CAE723F4002323F07F0343F43E
:1087800000231361C378012BE1D10B780D6900EB55
:108790008300C4F30763816963F07B0363F31F64A1
:1087A0004D610020146070BC704700BF2DE9F0439C
:1087B0004B78012B30D00B784C6900EB83035E6D56
:1087C000356837691CB38B681C44013CB4FBF3F477
:1087D000C4F3090203FB02F3C3F312034B61144613
:1087E00043EAC44363F31C073761C378012B04BF1A
:1087F0000B697361CB78012B44D0C5F3076363F039
:108800007B0363F31F6535600020BDE8F0838A6851
:108810000124C2F31203E3E791F800804E6900EBF4
:10882000880EDEF818C0DCF80050DCF8107076B363
:10883000D1F80890384A06EB0904013CB4FBF9F47E
:1088400002EAC444C6F312022243CC7807F0604720
:108850003A43012C174649D0CCF81020C278012A9F
:1088600055D00269516B03FA08F30B435363C5F308
:10887000076363F07B0363F31F65CCF800500020AF
:10888000BDE8F0834B7973B345F00055B5E707F0C9
:10889000604747F40027CC78CCF81070C378012BE0
:1088A0002FD0012CE3D102699268D20554BF45F064
:1088B000005545F08055C5F3076262F07B0262F314
:1088C0001F65CCF80050002B9ED1B0B20330801051
:1088D000DEF8D04098D0CA6852F8041B21600133FA
:1088E0009842F9D190E745F0805586E764F35E77CA
:1088F000CCF81070C378012BD5D10A69CCF81420BC
:10890000D1E70A69CCF81420012CB0D1CBE70B6970
:10891000CCF81430ABE700BF0000F81F38B501EB0E
:10892000810400EBC4040D46002184F87453C4F89C
:108930008C1384F87513C4F88833C4F88023C37883
:108940002821012B01FB050108BFEDB201F55D7186
:1089500008BFC4F884231DB9FFF7B4FE002038BD5A
:10896000FFF724FF002038BD70B5104BD3F89828CE
:1089700093F8B05804461AB193F89C382B430DD0A5
:1089800081212046FFF73EFD022D00D070BD20461C
:10899000074ABDE870401F230121BFE70121FFF70F
:1089A00031FD20468121BDE870402BE5C027002025
:1089B0005030002010B501EB8101084A00EBC101E5
:1089C0000446B1F88C131046FFF7F0FB034A20462B
:1089D00040230121FFF7A2FF002010BD74300020CA
:1089E000E8E700BF10B50223044640228121FFF7CB
:1089F000A1FD2046022340220121FFF79BFD822199
:108A0000204603230822FFF795FD064B02229A8396
:108A1000FFF740FC044A204640230121FFF77EFF78
:108A2000002010BD980100207430002038B50922C4
:108A30000D46044603238321FFF77CFD294620468B
:108A4000FFF7D0FF002038BD82B000230193019AC8
:108A5000094B42F010020192C168019A0A610A6949
:108A6000019203E00A690192013B02D0019AD20609
:108A7000F8D4002002B07047400D030082B00023FC
:108A80000193019A0B4B42F020020192019A61F38B
:108A90008A120192C168019A0A610A69019203E08F
:108AA0000A690192013B02D0019A9206F8D4002093
:108AB00002B07047400D030070B50446144EFFF736
:108AC0000BFD2046022340228121FFF733FD402287
:108AD000012120460223FFF72DFDD6F8F4380025AA
:108AE0001B6886F88C58284686F8B0589847204668
:108AF000FFF7AAFF20460121FFF7C0FF204606F539
:108B000009621F230121FFF709FF284670BD00BF3E
:108B1000C02700200E4BDA68D20310D4DA68D106E1
:108B20000FD4DA68D20510D4DA6812F0E00F0AD157
:108B3000DB6813F0020F14BF0820092070470120E2
:108B4000704706207047072070470220704700BF1B
:108B5000003C024070B5144C94F8F838002BFBD15F
:108B6000F9B101444E1E451E02E0012040F0ACF870
:108B7000D4F8FC38D4F800290133C3F30A03934234
:108B8000F3D0D4F8FC28D4F8FC3815F8011F22449F
:108B90000133C3F30A03B54282F80419C4F8FC3860
:108BA000E6D1002070BD00BFC027002010B590F8AE
:108BB0005010002380F8503079B10B4CD4F8542871
:108BC0006AB1D4F85428052A0BD1084C3C30E3682C
:108BD000FFF7C0FFE368012010BD0120FCE710464D
:108BE000FAE71846F8E700BFC0270020B838002091
:108BF000002280F85120D9E790F85020531C0244FD
:108C0000DBB280F8503082F83C1090F851200AB165
:108C1000132B00D9CAE77047094B0846D3F85418FC
:108C200010B559B1D3F85438052B07D1054C002A9B
:108C3000E36803DD1146FFF78DFFE36810BD00BF59
:108C4000C0270020B8380020F0B5244D244CAC617A
:108C500085B00646FFF724FA224A234B1A2140200A
:108C6000C5E90323A97032F071FB002834D094F8D1
:108C70003D3094F83E5094F83F7090F904001B4A40
:108C8000002E14BF4FF4E1314FF4E121002B14BF4B
:108C900002230023002D14BF30250025002F18BF0C
:108CA00043F001032B430325CDE901530091002339
:108CB000402136F0F0FA103C606650B10C480FF0DD
:108CC00019FB94F8693084F86800606E0BB984F879
:108CD0006950003818BF012005B0F0BDC027002042
:108CE000C8380020C9B1010885B90108B1AB010835
:108CF00099BA01082DE9F04FDFF82893BF4F4D4690
:108D000006460FCD07F16C042DED048B0FC40FCD7B
:108D10000FC48DB097F89E302A682260049697F8A9
:108D2000A4200A2B0CD8DFE813F0F4010B00670233
:108D3000EF010B000B000B000B000B000B00EA0116
:108D4000DFEDAF7AF0EE678A002AAE49AE4AFA67E5
:108D5000AE48AF4BC7F884000EBF002201220B467D
:108D6000059237EEA87AF5EE006AC6EE879AA94D0D
:108D7000C7F880304FF00008A5F1230305F1700B10
:108D8000AA46019345469FEDA48A9FEDA49A27EE3B
:108D9000888A049BAB4240F39181019B13F8014BFD
:108DA0000193002C00F0CF81002302E0152B00F08E
:108DB000CA8103EB43024FEA43081BF80210A142A9
:108DC00003F10103F2D13A4492F83D11002900F079
:108DD0001182204638F0D4FB0646304638F0F0FBCE
:108DE0000078002840F0AF8107EB080305F1010887
:108DF0005FFA88F2032183F87D2183F87C11002E2D
:108E000000F0A1812309013B042B04F00F0C00F2B8
:108E1000CD8109EB4300808C40FA0CF414F001047E
:108E200000F0E381012404FA0CFC0CF1FF3C0CEA95
:108E30000000CDE9023257F0F1FB029BDFF8E8C1F8
:108E4000039ACAF818604B44032193F83030184451
:108E50000CEBC003CAF814309971DA715CF8300079
:108E6000727A00F13F4101F57E0109EB912191F801
:108E7000381001F01F0C4909032904FA0CF400F022
:108E8000AA81042900F0A081022900F095819C8824
:108E9000B4FA84F3C3F11F03C3F3CC0100EB8101E7
:108EA00003F00703D1F820C09B004FF00F0E0EFA1D
:108EB00003FE2CEA0E0CC1F820C0D1F820C002FA43
:108EC00003F343EA0C0307AA0B6211460223029242
:108ED000CDE90743FFF794F8029A059B002B00F0B9
:108EE0003C81B7F89C30D7F828C4346807EE903A34
:108EF000F8EEE77AFCEEE77A17EE900ABCFBF0F3A7
:108F000003F57F43FF331B0CBCFBF3F3B3FBF0F023
:108F100001381FFA80FE07EE903ABCFBF3F3B8EE7F
:108F2000677A2188DFF804C167EE087A013BCAED51
:108F3000027A69EE677A6445E7EE287A9BB289B2D5
:108F4000CAED037A00F0F2803548844200F0EE80EA
:108F5000B4F1804F00F0EA80ACF57C4C644500F041
:108F6000E5800CF5806C644500F0E0800CF5806CC9
:108F7000644500F0DB80DFF8B8C0644500F0DE80B7
:108F80000CF5806C644500F0D98021F440710CF53B
:108F90006C4C89B264452180C4F82CE0238540F0F4
:108FA0000081002323864FF0010CA4F814C0337A0B
:108FB00071790020CDE909004FF0600EADF8200076
:108FC0000B909807CDF81CE040F1DF80DB0003F048
:108FD00008030420ADF82A30ADF8200020460291A5
:108FE00037F0C4FE02990C292CD8DFE801F07F2B62
:108FF0002B2B762B2B2B6D2B2B2B2300B838002003
:109000006F1203391D99040821990408850C03087F
:1090100025010308843900206F12833A00007A4446
:1090200000040140D4350608603A002000000140E9
:1090300000100040A38B23F400631B041B0C43F4BB
:109040000063A3833368B3F844206FEA42426FEAB7
:10905000524292B2A3F844201A88194692B242F0C2
:10906000010221F8342B7079CAF804300C18002260
:10907000CAF800400A50002D00F0B580D7F8D01093
:109080008B4200F0B580012D00F0AD80D7F8EC10D8
:109090008B4200F0AD80032D40F0A580D7F8082169
:1090A000D31A18BF012345460122042D8AF8103037
:1090B0008AF811200AF11C0A7FF46BAE51480DB0FA
:1090C000BDEC048BBDE8F08FA38B23F008031B04D9
:1090D0001B0C43F00803A383B4E7238B23F4006342
:1090E0001B041B0C43F400632383ABE7238B23F0A7
:1090F00008031B041B0C43F008032383A2E7DFEDE6
:10910000427AF0EE678A1FE6DFED407ADFED408AB3
:109110001AE6404BDFED3C7A3F4AFB67012305939B
:10912000C7F884203D4BF0EE678A1AE6DFF800C1ED
:1091300021F07001644589B27FF422AF2180C4F828
:109140002CE023852FE7364A344B0020C7E9203234
:109150000DB0BDEC048BBDE8F08FB0EE690A029251
:1091600057F058FCFCEEC07AD7F828C43468029A4D
:1091700017EE903ABCFBF3F303F57F43FF331B0C70
:109180004FF6FE7EBCFBF3F3C5E65B0003F0020383
:109190004FF48070ADF82830ADF81EC0ADF82C004B
:1091A0001CE7204B9C423FF4FCAEFCE6CAF81400DE
:1091B000CAF8186007AA90E6DFF86CE0DEF8441001
:1091C0000C43CEF8444062E61749D1F830C044EA77
:1091D0000C040C635BE6DFF850E0DEF840100C4353
:1091E000CEF8404053E601235DE7CAF81440DFE7BC
:1091F000134658E70E46F0E5DFED0C7AF0EE678A8D
:10920000A2E500BF243900206F12833AACC5A7370E
:10921000ACC5A73621990408850C03081D990408DC
:10922000490503080004014000380240282930386D
:1092300000100040F8B5214C1D270E46054684F865
:109240002C741FF071FD00201FF010FD08201FF08E
:109250000DFD0E201FF00AFD38461FF007FD04200B
:109260001FF004FD04201FF001FD00201FF0FEFC94
:1092700030201FF0FBFC00201FF0F8FC30461FF0F0
:10928000F5FC00201FF0F2FC1FF038FD04F22D4029
:109290001FF054FC234670B194F82D2462B994F861
:1092A0002E24302A00D03AB993F82F2422B993F80B
:1092B00030342B700120F8BD0120FCE7B8380020C5
:1092C00000F01F0240090123032803FA02F304D02F
:1092D00004280CD0022805D07047074A116C0B43B4
:1092E00013647047044A516C0B4353647047024A3D
:1092F000116B0B43136370470038024000487047FE
:10930000C03A00202DE9F041314C94F843341BB9A8
:1093100000273846BDE8F08194F8421404F29C40DE
:1093200043F0AEFD07460028F2D094F8430442F023
:10933000D5FB94F84034C4F8A4040133DBB210B177
:109340002422C3718271092142F028FFD4F8A404B9
:1093500043F0F0F894F84404D0B9E368632BFCD9E7
:109360001C481D4E1D4DDFF8788043F0C1FDA4F868
:10937000A00402E056F8045FF5B14046A847034652
:109380000028F7D0164884F8683543F075FFC0E729
:1093900042F0A4FB94F84034C4F834050133DBB246
:1093A00010B15822C3718271092142F0F7FED4F83E
:1093B000340543F0BFF8D0E794F8430443F0E4FBEE
:1093C00094F844040028A3D043F0DEFB2F46A0E726
:1093D000B838002040420F0014360608979505085B
:1093E000543D00200E4B30B4DB68427801780D4CC0
:1093F000DB43C3F30223C3F10403DBB202FA03F33A
:1094000060181B0101F01F050122490903F0F00358
:10941000AA4080F8003344F8212030BC704700BFD8
:1094200000ED00E000E100E030B503685A4D5B4C10
:109430001A88D5F82804B0FBF1F0A34200F1FF3000
:1094400083B080B292B211D055498B420ED0B3F1A5
:10945000804F0BD0A1F580318B4207D001F58061A0
:109460008B4203D001F580618B4202D122F0700261
:1094700092B24C498B4268D001F580618B4243D057
:1094800022F4407201F56C4192B24FF6FF748B42A8
:109490001A80DC62188564D100221A8601229A8221
:1094A0001A883E4992B242F001028B421A8063D080
:1094B000B3F1804F62D03C4A934261D002F58062A2
:1094C00093425FD002F5806293425DD002F58062E4
:1094D00093425BD002F58062934259D002F59632F6
:1094E000934257D002F58062934213D002F5806216
:1094F000934208BF09220ED04FF0012301A8019327
:10950000FFF770FF03B030BD4FF6FF711A80D962CC
:109510001885C3E70822254B03EBC20301A893F883
:109520005D408DF8044001224FF480738DF80520D2
:10953000ADF80630FFF756FF1B2CE3D11C4B01930F
:1095400001A8FFF74FFF03B030BD01214FF6FF74B4
:109550001A80DC62188599821A8892B20A431A80AE
:10956000A9E70F4A934297D001229A821A8892B2B1
:1095700042F001021A809BE70022CCE70122CAE7F1
:109580000222C8E70322C6E70422C4E70522C2E795
:109590000622C0E70722BEE7B838002000000140DD
:1095A000000401400010004000040040D4350608CB
:1095B00019010001002877D0F0B58388B3FA83F34E
:1095C000202B83B00446C3F11F0258D0374D384ECC
:1095D00015444FF0004006EB820230FA03F395F891
:1095E000A850C2F8601A05D0324A116821EA030176
:1095F000116053612046002142F0D0FDA38822680B
:109600002C49B3FA83F7C7F11F0404F0FC0000F102
:10961000804000F59C3004F00304A40002F13F43B5
:109620004FF00F0C82680CFA04FC22EA0C028260F4
:1096300003F57E038268C3F38723A340134383604B
:109640000A681D484FF00043FB4022EA03020A600B
:109650004A6822EA03024A600A681A430A608A6872
:1096600022EA03028A60CA6822EA0302CA60026828
:109670002E441343036096F8A03AF02B01D803B0B0
:10968000F0BD0E4B5B5D8DF80430F02103224FF4EA
:10969000807301A886F8A01A8DF80520ADF8063071
:1096A000FFF7A0FE03B0F0BD704700BFD435060839
:1096B000B8380020003C0140083C0140CC9406082A
:1096C00000285FD00368374A2DE9F04103F13F4499
:1096D00004F57E0402EB9422012492F8382002F073
:1096E0001F055209032A04FA05F456D0042A4FD064
:1096F000022A48D08588B5FA85F0C0F11F00C0F372
:10970000CC0603EB860600F0070082000F24306AC7
:10971000944020EA04003062306A01FA02F2024307
:10972000002132624FF0010E0A464FF0030C02276F
:109730000EFA02F838EA050002F101021CD118689D
:109740000CFA01F420EA04001860186807FA01F620
:1097500006431E609E6826EA04069E60986898602C
:10976000586820EA0800586058685860D86820EAAD
:109770000400D860D868D860102A01F10201D7D15E
:10978000BDE8F0817047084A556C2C435464B1E73A
:10979000054A156B2C431463ACE7034A156C2C4344
:1097A0001464A7E7D4350608003802402DE9F84FC5
:1097B000C34C94F8A71A0546C1F34001D4F8AC0A8B
:1097C00042F0BEFE94F8A71AD4F8A80AC94301F0E3
:1097D000010142F0B5FE002D00F0E38005F1FF38F5
:1097E000B84D5FFA88F80127D4F8AC3A33B11A685B
:1097F0009B8851690B4214BF53831383D4F8A83A52
:1098000033B11A689B8851690B4214BF5383138389
:10981000B4F8B43A002B40F0598194F8B61AD4F851
:10982000B80A42F08DFEDFF8A0C2FA204FF0100E09
:109830004FF47A71DCF80430C3F30803002B40F0D6
:109840001281EFF31183002B40F00D81E268D5F80F
:109850000890E3689A42F9D1D4F8E43A9945F5D8EA
:10986000D4F8E06A01FB06F3A3EB0903B3FBF6F3BC
:1098700001FB0232DCF80430C3F30803002B40F094
:10988000B280EFF31183002B40F0AD80E368D5F890
:1098900008B0E668B342F9D1D4F8E46AB345F5D824
:1098A000D4F8E06A01FB06F9A9EB0B09B9FBF6F95C
:1098B00001FB03939B1AB3F57A7FDBD30138B9D14F
:1098C000D4F8AC3A33B11A689B8851690B4214BF83
:1098D00053831383D4F8A83A33B11A689B8851692B
:1098E0000B4214BF53831383B4F8B43A002B40F0F7
:1098F000DA8094F8B61AD4F8B80A81F0010142F07F
:109900001FFEDFF8C4C1FA204FF0100E4FF47A7139
:10991000DCF80430C3F30803002B40F08480EFF33D
:109920001183002B7FD1E268D5F80890E3689A4252
:10993000F9D1D4F8E43A9945F5D8D4F8E06A01FBB6
:1099400006F3A3EB0903B3FBF6F301FB0232DCF8E9
:109950000430C3F3080333BBEFF311831BBBE3688D
:10996000D5F808B0E668B342F9D1D4F8E46AB34553
:10997000F5D8D4F8E06A01FB06F9A9EB0B09B9FBAD
:10998000F6F901FB03939B1AB3F57A7FDFD3013815
:10999000BED108F1FF385FFA88F8B8F1FF0F7FF405
:1099A00023AFBDE8F88FEFF3118A8EF31288D5F854
:1099B00008B02B68DB0344BFC4F8DC7AD5F808B0E4
:1099C000E368D4F8DC9A5FFA8AFA8AF31188D4F84B
:1099D000E06A4B4401FB06F9A9EB0B09B9FBF6F968
:1099E00001FB0393CFE7EFF3118A8EF31288D5F8CA
:1099F00008B02B68DE0344BFC4F8DC7AD5F808B0A1
:109A0000E368D4F8DC9A5FFA8AFA8AF31188D4F80A
:109A1000E06A4B4401FB06F9A9EB0B09B9FBF6F927
:109A200001FB039346E7EFF311898EF31288D5F813
:109A300008A02B68DA0344BFC4F8DC7AD5F808A084
:109A4000E368D4F8DC2A5FFA89F989F31188D4F83D
:109A5000E06A1A4401FB06F3A3EB0A03B3FBF6F337
:109A600001FB023273E7EFF311898EF31288D5F808
:109A700008A02B68DB0344BFC4F8DC7AD5F808A043
:109A8000E368D4F8DC2A5FFA89F989F31188D4F8FD
:109A9000E06A1A4401FB06F3A3EB0A03B3FBF6F3F7
:109AA00001FB0232E6E6D4F8D03A002B3FF429AFAE
:109AB000D4F8BC2A0023136084F8CD3A21E700BF14
:109AC000B838002010E000E000ED00E0D4F8D03A13
:109AD000002B3FF4A8AED4F8BC2AB4F8D83A044915
:109AE000B1FBF3F35B10136084F8CD7A9BE600BF03
:109AF00040420F002DE9F84FC74CC84D94F8A71A03
:109B0000D4F8AC0AC1F3400142F01AFD94F8A71A48
:109B1000D4F8A80AC94301F0010142F011FD4FF049
:109B200005080127D4F8AC3A33B11A689B8851690B
:109B30000B4214BF53831383D4F8A83A33B11A6885
:109B40009B8851690B4214BF53831383B4F8B43A12
:109B5000002B40F0508194F8B61AD4F8B80A42F0BD
:109B6000EFFCDFF8C0C232204FF0100E4FF47A71D4
:109B7000DCF80430C3F30803002B40F01081EFF34E
:109B80001183002B40F00B81E268D5F80890E36860
:109B90009A42F9D1D4F8E43A9945F5D8D4F8E06A74
:109BA00001FB06F3A3EB0903B3FBF6F301FB02325F
:109BB000DCF80430C3F30803002B40F0B080EFF36F
:109BC0001183002B40F0AB80E368D5F808B0E6685D
:109BD000B342F9D1D4F8E46AB345F5D8D4F8E06AD1
:109BE00001FB06F9A9EB0B09B9FBF6F901FB03939D
:109BF0009B1AB3F57A7FDBD30138B9D1D4F8AC3AEC
:109C000033B11A689B8851690B4214BF5383138385
:109C1000D4F8A83A33B11A689B8851690B4214BF33
:109C200053831383B4F8B43A002B40F0D88094F8EF
:109C3000B61AD4F8B80A81F0010142F081FCDFF8CD
:109C4000E4C132204FF0100E4FF47A71DCF804308A
:109C5000C3F30803002B40F08280EFF31183002B45
:109C60007DD1E268D5F80890E3689A42F9D1D4F83A
:109C7000E43A9945F5D8D4F8E06A01FB06F3A3EB82
:109C80000903B3FBF6F301FB0232DCF80430C3F343
:109C9000080323BBEFF311830BBBE368D5F808B0CF
:109CA000E668B342F9D1D4F8E46AB345F5D8D4F8FC
:109CB000E06A01FB06F9A9EB0B09B9FBF6F901FB18
:109CC00003939B1AB3F57A7FDFD30138BED108F135
:109CD000FF3818F0FF087FF425AFBDE8F88FEFF3E9
:109CE000118A8EF31288D5F808B02B68DB0344BFC5
:109CF000C4F8DC7AD5F808B0E368D4F8DC9A5FFAE7
:109D00008AFA8AF31188D4F8E06A4B4401FB06F919
:109D1000A9EB0B09B9FBF6F901FB0393D1E7EFF3CC
:109D2000118A8EF31288D5F808B02B68DE0344BF81
:109D3000C4F8DC7AD5F808B0E368D4F8DC9A5FFAA6
:109D40008AFA8AF31188D4F8E06A4B4401FB06F9D9
:109D5000A9EB0B09B9FBF6F901FB039348E7EFF315
:109D600011898EF31288D5F808A02B68DA0344BF56
:109D7000C4F8DC7AD5F808A0E368D4F8DC2A5FFAE6
:109D800089F989F31188D4F8E06A1A4401FB06F3D3
:109D9000A3EB0A03B3FBF6F301FB023275E7EFF323
:109DA00011898EF31288D5F808A02B68DB0344BF15
:109DB000C4F8DC7AD5F808A0E368D4F8DC2A5FFAA6
:109DC00089F989F31188D4F8E06A1A4401FB06F393
:109DD000A3EB0A03B3FBF6F301FB0232E8E6D4F887
:109DE000D03A002B3FF42BAFD4F8BC2A00231360E9
:109DF00084F8CD3A23E7D4F8D03A002B3FF4B1AE43
:109E0000D4F8BC2AB4F8D83A0549B1FBF3F35B1097
:109E1000136084F8CD7AA4E6B838002010E000E0A2
:109E200040420F0000ED00E0B0B10C49D1F8E83A33
:109E3000102B03D10521002037F0F4BD03EB4302C2
:109E40000A4482F8EC0A202082F8ED0A012003443B
:109E500082F8EE0AC1F8E83A704700BFB83800202F
:109E6000F0B53E4CD4F89C241378012B95B006D065
:109E7000022B01D1136AE3B1002015B0F0BD92F9B5
:109E800004506A1CF8D0022DF6DC0DF10E060246D5
:109E900094F8A0140096284655F0CEFA0028EBD08E
:109EA000284655F0A5FB0028E6D09DF80E0015B019
:109EB000F0BD60F07F0001210DF10F058DF80F005E
:109EC00000260DF10E000027CDE90833CDE90E671D
:109ED00005938DF81C300D93109312930495069101
:109EE0000B918DF830108DF844100A90EFF311802B
:109EF000102383F31288D4F89C341B6A0BB3069B9F
:109F000004AD29461BB1CB691431002BFBD1136A78
:109F10000BB39A683AB98B420AD01A682AB15B68C7
:109F20009A68002AF7D01433F3E70D4AC3E90025F5
:109F3000C0B280F31188D4F89C24136A002BFCD1A2
:109F4000B3E704ABC0B2136280F3118804F29C4003
:109F500052F056FCEFE7024A1A60FFDEB8380020E4
:109F6000543D00202DE9F84F2E4F00EB800407EB05
:109F7000C404D4F8206B2EB1054694F8350B00F0DC
:109F8000FF0820B14FF000084046BDE8F88F894631
:109F90009A4693463EF0A2FC4FEA49010123C9B21A
:109FA00084F8361B84F837BB84F8393B84F83A8B45
:109FB00084F8383B84F8353B84F8348BB288C4F895
:109FC0003CAB91058146C4F840AB1DD43388DA051B
:109FD00010D442F20F7405E03EF080FCA0EB0903C0
:109FE000A34215DC33889B05F6D433889BB243F437
:109FF00080733380B3889BB243F440734FF0010801
:10A00000B3804046BDE8F88F98464046BDE8F88FDB
:10A01000B7F8943B01339BB22846A7F8943B55F020
:10A0200069F8B1E7B83800200128B5EEC00A10D0B1
:10A03000F1EE10FA0BDD9FED177ADFED177AE0EE07
:10A04000077AFCEEE77A17EE903A98B27047002054
:10A050007047F1EE10FA0BDD9FED107ADFED107A0C
:10A06000E0EE077AFCEEE77A17EE903A98B2704786
:10A07000EDD5F7EE007A30EE270A9FED0A7ADFED94
:10A080000A7AE0EE077AFCEEE77A17EE903A98B299
:10A09000704700BF00E0F9440000404200C079442E
:10A0A0000000834400C079C400E0824470B5464E8D
:10A0B00096F8964B04EB840306EB8303A50093F814
:10A0C000983B032B6ED8DFE803F059291E02254484
:10A0D00006EB8505D5F89C0B002870D196F8E83B77
:10A0E0009C425FD0013404F00302934286F8962B21
:10A0F00058D002EB820406EB84040223C4F89C0BC4
:10A1000084F8983B70BD2B1906EB8303D3F89C2B86
:10A1100072B1013AC3F89C2B002070BD2B1906EBDD
:10A120008303D3F89C2B002AF3D1022283F8982BC7
:10A13000254406EB850595F8A43B013BDBB285F889
:10A14000A43B8BBB214B96F8E86BD3F8F810D5F8FD
:10A15000A00B621C02F003024B1E0324B242034414
:10A1600085F8984BB3FBF1F0C5F89C0B1AD09942D7
:10A1700018D80138C5F89C0B012070BD43F0BEF91A
:10A1800080B1124B2C44D3F8F82006EB8404012153
:10A1900002F51C5384F8981B0F33B3FBF2F3C4F899
:10A1A0009C3B70BD012070BD084BD3F8F820012006
:10A1B00002F2E733B3FBF2F3C5F89C3B70BD013804
:10A1C000C5F89C0B002070BDB83800209801002015
:10A1D00070B5214DD5F8EC3B93F82620DAB11B6918
:10A1E0009847E0B1D5F8EC3B93F824208AB105F507
:10A1F0003F6600241A19E0B29B6992F82C10B6EC65
:10A20000010A9847D5F8EC3B93F824200134944296
:10A21000F0DB5B69984795F8003C312B00D070BDAE
:10A2200095F8013C002BFAD0D5F8EC3B93F824309C
:10A23000042B1E46A8BF0426002BF0D00024074D97
:10A240002346184650F0BCFE0134E3B29E4245F866
:10A25000040BF6D870BD00BFB8380020BC44002005
:10A2600003681A78012A01BF93F90430054A03EB09
:10A27000830302EBC30306BF93F8350BC0B2002083
:10A28000704700BFB838002010B5094CD4F82C0C2A
:10A2900042F050F9D4F82C0C08B12323C3800121DB
:10A2A00041F07CFF034842F023FEA4F8280C10BDC7
:10A2B000B83800208096980030B583B00D46012351
:10A2C00001460DF107020446074843F059F89DF88E
:10A2D000072035EA020304D003482A43214643F00D
:10A2E000C3F803B030BD00BFDC440020F0B53B4CE8
:10A2F000D4F8245C2B78022B95B018D0012B02D017
:10A30000002015B0F0BD95F904506B1CF8D0022D5B
:10A31000F6DC0091134694F8281C0246284655F0B6
:10A320008BF80028ECD0284655F062F9E9E72B6A53
:10A33000002BE5D10DF10F0C8DF80F000026012048
:10A340000027CDE90833CDE90A12CDE90E67059360
:10A350008DF81C300D9310931293CDF810C0069019
:10A360008DF830008DF84400EFF31180102383F353
:10A370001288D4F8243C1B6A13B3069B04AE324601
:10A380001BB1D3691432002BFBD12B6A13B399682C
:10A3900039B993420AD0196829B15B6899680029D4
:10A3A000F7D01433F3E70E4AC3E90026C0B280F3B6
:10A3B0001188D4F8242C136A002BFCD10120A0E7CB
:10A3C00004ABC0B22B6280F3118804F6244052F033
:10A3D00017FAEEE7024A1A60FFDE00BFB838002025
:10A3E000DC44002070B503681D78022D14D0012DC7
:10A3F00001D0002070BD044693F904000A4B421CB2
:10A4000083F8F05CF5D00228F3DC0A4603F54F63CD
:10A410002179BDE87040A5E51B6A002BE9D1012236
:10A4200042F03AFE012070BDB83800202DE9F0411D
:10A430007B4C82B0242204F6F440002158F026FF21
:10A4400094F81D5D0023C4F8183D002D3CD1D4F8CC
:10A45000BC3D6BB39B6A5BB37248984783683BB360
:10A460000388DFF8D4C1013B9BB2604666460021F9
:10A470003778032F06F106061ED001310629F7D1E1
:10A4800000220178022900F1060000F084800132E8
:10A49000062AF6D1D4F8181D052909D0481C02FB5C
:10A4A00001C2C4F8180D0220002193801070518061
:10A4B000284602B0BDE8F081062303FB0141B1F854
:10A4C000F63C013B9BB2DBE794F81C0D04F62453E9
:10A4D000C4F8203D08B90025B9E741F0FFFAC4F8F7
:10A4E0002C0D18B1837913F0BF0FF4D129464E48D3
:10A4F00042F0C6FC05460028EDD0D4F8203D494A7C
:10A500009868C3F8942008B12223C380092141F040
:10A5100045FED4F8203D454F986842F00BF844487A
:10A52000D4F8206D42F0E4FC0123B0803220C4F85E
:10A53000DC6D84F8E03D3EF0C7FB04230DEB030225
:10A54000D4F8200D00269F21019642F051FD9DF880
:10A5500005009DF804209DF80630000240EA024004
:10A560001843324601E0884219D0D3B207EB0313F7
:10A570000132D3F8B8100029F5D194F81C0DA4F8D5
:10A58000C01DA4F8CC1DC4F8C41DC4F8C81D0D46D8
:10A5900042F0FAFA5BE7062101FB02C283E7B3F857
:10A5A000C220B3F8C070B3F8BC602249B3F8BE0053
:10A5B000A4F8CC2D1202D3F8C4C0A4F8C07D01FBCE
:10A5C00000F04FF4807301FB06F14FF0000802FB2E
:10A5D00007F6C4F8C42DC4F8C86DC4F8F00DC4F86B
:10A5E000EC1DC4F8BCCD84F8CE8DA4F8C23D42F079
:10A5F0007FFCD4F8DC7DB6F1807FB88003D80123DE
:10A6000084F8D53D23E70123B726424638466946FC
:10A6100084F8D43D8DF8006042F0E2FDEFE700BF22
:10A62000B838002074460020DC450020D4350608E8
:10A63000404B4C0040420F00AC4500202DE9F0415A
:10A64000C94BCA4ECA4DCB4C0822C3F88820336B85
:10A6500082B043F00103336307464FF4C0522846EB
:10A6600040F2023388466946CDE90023FDF7C8FC75
:10A670006B6AC14ADFF848C323F470436B626B6AAC
:10A6800043F420436B626B6A23F470236B626B6A42
:10A6900043F420236B62736CB84D43F4804341F262
:10A6A000D8317364736B44F8018004F59F5143F013
:10A6B00080030F6041F2DC3EB14973630227C4F8A6
:10A6C000F81DB04EB04BB14944F80E5084F8FC7DF3
:10A6D0004FF0A045AE4FC4F8005EC4F8046EC4F855
:10A6E0000C3EC4F8481E05F5326506F5A07603F564
:10A6F0001073A1F5D071C4F8107EC4F84C5EC4F894
:10A70000146EC4F8503EC4F8181E012307F51077E4
:10A71000A5F5E465A6F5A066A1F58C61C4F8F4CDB5
:10A72000C4F8547EC4F8085EC4F8C06E84F8FF3DD7
:10A7300005F5A075536106F5B076C4F8841E84F85B
:10A74000063F1946934B944AC4F88C5EA7F5BC6744
:10A75000A035C4F8986E914EC4F8947EC4F89C3E1F
:10A7600007F5D45703F56953C4F8A05E4FF05025A0
:10A770000020DFF850E2DFF850C2C4F8C42EC4F85D
:10A78000C87E02F5A04207F5A047C4F8CC6EC4F815
:10A79000D03E06F5A046A3F54853C4F8D45E04F6AF
:10A7A000F455C4F8D82EC4F8E06EC4F8003FC4F8DD
:10A7B00088EEC4F890CE0246C4F8DC7E2B4684F8BE
:10A7C000080F402683F81C21A3F822210132042A15
:10A7D000C3E9496083F81D1183F81F01C3F83001F4
:10A7E00003F12803EED1002211462B46402083F8C6
:10A7F0007423A3F87A230132042AC3E9DF0183F822
:10A80000751383F87713C3F8881303F12803EED187
:10A810004FF0A04362489A6822F001029A60DA6819
:10A8200042F04002DA60FDF709FF94F8FD3D002296
:10A83000212161F317420BB142F4801294F8F71D05
:10A84000D4F8003E01299A6300F0E380DA68D4F876
:10A85000006FD4F8040EC2F3076121F0600141F0EB
:10A86000400161F31F620021DA603160026861F328
:10A87000CC22026094F8FF2D012A00F0B78010214D
:10A880004848FEF7FBF84748FEF7DEF8D4F8040E18
:10A8900094F8F53D00224FF0FF3102614261816181
:10A8A000C26153B305F114073F4E114607EB83070E
:10A8B0004FEA830C4FF0FF0E56F8042F1368002B5D
:10A8C000ACBF00234FF09043B74213601161C2F850
:10A8D00008E0F1D105F15003344963440027FF2615
:10A8E00051F8042F1568002DACBF00254FF090459E
:10A8F0009942156017619660F2D1036994F8F71DCB
:10A9000043F480730129036160D0D4F8002E2848F5
:10A910000023936100294FF0FF336FF080415161B4
:10A920005360516114BF00231023906143F47013EE
:10A93000916943F4605343F008030B43936141F280
:10A94000DC319368615843F0010393600B689847CA
:10A95000184B194ADA606846184B0093FEF742FD1F
:10A9600002B0BDE8F08100BF00E100E00038024025
:10A9700000000240B8380020003C01409402002052
:10A98000400040010008005000090050000B00503A
:10A9900020090050C0050050001000500030005049
:10A9A000B8460020AC460020C0460020FC460020EF
:10A9B0000008008000ED00E00005FA0543020001F8
:10A9C000080401002005005060050050D4F8002E56
:10A9D000144B03636FF08041134D00234FF0FF30A1
:10A9E000936151615060516195619FE701680F4A21
:10A9F0000F4E41F003010160802159629E62C3F84D
:10AA00000421E022C3F80821C0F24002C3F80C215F
:10AA100035E79A6822F03E0141F02A0161F307020E
:10AA20009A6013E70301810000080080A000400045
:10AA30008000200099B10A6B824216D9154BD3F8D9
:10AA40001C23914221D35C3991421ED30B6B984257
:10AA5000F9D38B6B9842F6D80B46184670470D4BCE
:10AA6000D3F81C130A6B904212D30B680BB9F4E7AE
:10AA70000A6B90420B4602D38A6B9042EDD951F893
:10AA80005C3F002BF4D118467047002318467047EE
:10AA90000A46D8E7B04900202DE9F047CC0143D160
:10AAA0000346224A43F8082B4FF0FF32426002244B
:10AAB00018467E26DFF87880D8F820932644013E99
:10AAC000051D49466FF070474FF0010A08E0A342A8
:10AAD0001CD0631C45F8043C321B1C460435CAB12B
:10AAE0000B6BA34202D88B6BA34204D22046FFF724
:10AAF000A1FF014690B10A794B6B002AE7D1A3422E
:10AB000004D0E6D245F8042C631CE5E745F8047C44
:10AB1000631CE1E7C8F82013BDE8F08745F804ACF2
:10AB2000321B631C4946D8E78026C3E7F8FFFF0FB6
:10AB3000B04900202DE9F04F0646044616F8010BF7
:10AB400087B0002800F047838B46002509E013F00A
:10AB500029FB01353446264616F8010B002800F083
:10AB60008A802528F3D16278302A08BFA278A2F122
:10AB70003001CBB219BF0234002701270334092B5F
:10AB80004FF000035DD96C2A79D0782AE3D8572A90
:10AB900063D9A2F158012029DDD801A050F821F095
:10ABA00055AE000857AB000857AB000857AB00087C
:10ABB00057AB000857AB000857AB000857AB00086D
:10ABC00057AB000857AB000857AB000897AD00081B
:10ABD000A5AD000857AB000857AB000857AB0008FD
:10ABE00057AB000857AB000857AB000857AB00083D
:10ABF00057AB000857AB00088FAD000857AB0008F3
:10AC000057AB000857AB000857AB00082BAD000846
:10AC100057AB0008FFAD000857AB000857AB000862
:10AC200055AE0008BCF1050FADD8A2F137010A29D5
:10AC3000A9D114F8012B03EB830301EB4303A2F129
:10AC40003001C8B20928A2F16106A2F1410CF0D985
:10AC5000052EE7D8A2F15701E9E762B1252A7FF472
:10AC60007AAF2646252013F09DFA16F8010B013520
:10AC700000287FF476AF284607B0BDE8F08F14F8BF
:10AC8000011B78293FF667AF572949D9A1F158022E
:10AC9000202A3FF660AF01A050F822F073AF000801
:10ACA00057AB000857AB000857AB000857AB00087C
:10ACB00057AB000857AB000857AB000857AB00086C
:10ACC00057AB000857AB000897AD0008B7AE0008B7
:10ACD00057AB000857AB000857AB000857AB00084C
:10ACE00057AB000857AB000857AB000857AB00083C
:10ACF00057AB00088FAD000857AB000857AB0008F2
:10AD000057AB000857AB00082BAD000857AB000845
:10AD10001DAF000857AB000857AB000873AF000821
:10AD20000029A8D025299CD015E75BF8048BB8F141
:10AD3000000F00F04A82464616F8010B002800F08A
:10AD40004C82CBB1324600E0B3B112F8011B1F4672
:10AD5000013B0029F8D1023F73B1B946202013F01E
:10AD600021FA4B46002B09F1FF39F7DC98F8000077
:10AD700027EAE773013340B101339F1B13F012FA46
:10AD8000F31916F8010B0028F8D11D44E3E65BF82F
:10AD9000043B1D60DFE65BF8040BC0B2013513F025
:10ADA00001FAD8E6DBF800000028C0F25A81EC4630
:10ADB000092806464FF0010209DD02EB820252002B
:10ADC000B0FBF2F10929F8D8002A00F05A81CB48EB
:10ADD000A0FB02E1B6FBF2F009288E4600F157090C
:10ADE00000F130084FEAD10140F24281092A0CF803
:10ADF000019B02FB106640F244810A46E7E7DBF85C
:10AE000000C0BCF1090F4FF0010209D902EB820228
:10AE10005200BCFBF2F10929F8D8002A00F0B981F0
:10AE20006E46B646B548A0FB0281BCFBF2F009288D
:10AE3000884600F1570A00F130094FEAD10140F38A
:10AE4000B081092A0EF801AB02FB10CC40F2A381BD
:10AE50000A46E7E75BF804CBBCF10F0F4FF00101A6
:10AE600040F2D6810901BCFBF1F00F28FAD8002985
:10AE700000F0C9816E46B0460EE0582A0CBF4FF074
:10AE8000370E4FF0570E864401FB10CC090908F825
:10AE900001EB0CD0BCFBF1F00928EEDC4FF0300EDA
:10AEA000864401FB10CC090908F801EBF2D100221D
:10AEB00088F800209DE05BF8040B0028BFBF2D221E
:10AEC00040428DF800200DF1010CA8BFEC46092886
:10AED00006464FF0010209DD02EB82025200B0FB90
:10AEE000F2F10929F8D8002A00F04F818348A0FB2D
:10AEF00002E1B6FBF2F009288E4600F1570900F195
:10AF000030084FEAD10140F23781092A0CF8019B41
:10AF100002FB106640F239810A46E7E75BF804CB92
:10AF2000BCF1090F4FF0010209D902EB8202520075
:10AF3000BCFBF2F10929F8D8002A00F0E1806E4646
:10AF4000B6466E48A0FB0281BCFBF2F00928884699
:10AF500000F1570A00F130094FEAD10140F32B818B
:10AF6000092A0EF801AB02FB10CC40F2CB800A4656
:10AF7000E7E75BF804CBBCF10F0F4FF0010240F2A2
:10AF800045811201BCFBF2F00F28FAD8002A00F02C
:10AF900037816E46582931461DD007E002FB10CCA0
:10AFA000120901F8018B22D0BCFBF2F0092800F154
:10AFB000570800F1300EF1DC02FB10CC120901F849
:10AFC00001EBF1D113E002FB10CC120901F8018B67
:10AFD0000DD0BCFBF2F0092800F1370800F1300E6B
:10AFE000F1DC02FB10CC120901F801EBF1D10022D7
:10AFF0000A709DF80090002F14BF4FF030084FF0FA
:10B000002008B9F1000F00F0F6800DF101021146A1
:10B010000BB91AE0CBB111F8010B1F46013B002818
:10B02000F8D1023F8BB1BA46404613F0BBF8534605
:10B03000002B0AF1FF3AF7DC27EAE7730133B9F195
:10B04000000F3FF4A2AE0DF1010217469E1B4846C9
:10B0500013F0A8F8BB1917F8010B0028F8D11D440C
:10B0600079E52D2240428DF800200DF1010C9FE67C
:10B07000092A0CF8018B02FB10664FEADE013FF64D
:10B08000BCAE00220BF1040B8CF800209DF8008070
:10B09000002F14BF30272027B8F1000F00F0A68042
:10B0A0000DF1010211460BB91AE0CBB111F8010BF9
:10B0B0001E46013B0028F8D1023E8BB1B14638460E
:10B0C00013F070F84B46002B09F1FF39F7DC26EA44
:10B0D000E6730133B8F1000F3FF457AE0DF10102F2
:10B0E0006E4617469E1B404613F05CF8BB1917F8D6
:10B0F000010B0028F8D11D442DE500BFCDCCCCCCF0
:10B100006E46B64600228EF800209DF80090002F73
:10B1100014BF4FF030084FF02008B9F1000F61D094
:10B120000DF1010211460BB91AE0CBB111F8010B78
:10B130001F46013B0028F8D1023F8BB1BA4640467A
:10B1400013F030F85346002B0AF1FF3AF7DC27EAF8
:10B15000E7730133B9F1000F3FF417AE0DF10102AF
:10B1600017469E1B484613F01DF8BB1917F8010B34
:10B170000028F8D11D44EEE4092A0CF8018B02FBEB
:10B1800010664FEADE013FF6C7AE00228CF80020C1
:10B190007CE76E46B64600220BF1040B8EF80020C9
:10B1A000B3E7092A0EF8019B02FB10CC4FEAD80145
:10B1B000F1D90A4636E6092A0EF8019B02FB10CCAB
:10B1C0004FEAD8019ED90A46BBE6DFF8488028201E
:10B1D00008F10106B5E505464DE55F1E002B7FF43D
:10B1E000BCADB8E45F1E002BA8D1B4E45E1E002BFA
:10B1F0007FF464AFAFE45F1E002B7FF414AFAAE4CA
:10B200006E463146F3E66E46B04650E66046C0E60E
:10B2100060462FE6409406080E4ADFF844C010B599
:10B220000D4CC2F83C430D4CC2F828030023C2E980
:10B23000CDC4A2F82C13C2F83033A2F82E3382F812
:10B240004033282202FB03F4035301339942F9D11E
:10B2500010BD00BFB049002040420F00A01CE9FF14
:10B2600020A10700214A038890429BB212D002F528
:10B27000806290420ED0B0F1804F0BD0A2F58032A8
:10B28000904207D002F58062904203D002F58062BE
:10B29000904203D14A8823F070031343144A90422A
:10B2A00018D002F58062904214D030B423F4407379
:10B2B0000C894D6802F56C429BB2234390420C8886
:10B2C0000380C56204850DD18B7A0386012330BCCF
:10B2D0008382704703800B884A68C262038501231A
:10B2E00083827047034B9842EED0EFE700000140A5
:10B2F00000100040000401402DE9F041494D4A4E44
:10B30000D5F8283486B004460139A6FB030389B278
:10B310009B0C0027013B02912068ADF8043001A985
:10B320001646ADF80C70ADF806708DF80E70FFF78C
:10B3300099FF237AADF80870602201929A07CDE94F
:10B340000477D4F8008067793ED5DB0003F008036A
:10B350000422ADF81230ADF8082001AA3946404663
:10B36000039635F003FD0C2F12D8DFE807F03A11F1
:10B37000111145111111501111110700B8F81C30AD
:10B3800023F400631B041B0C43F40063A8F81C3077
:10B390002268B2F844306FEA43436FEA53439BB2EA
:10B3A000A2F84430138811469BB243F0010321F800
:10B3B000343B6379C5F8C02AC8180022C5F8BC0A16
:10B3C000CA5006B0BDE8F0815B0003F00203012221
:10B3D000ADF810304FF48073ADF80620ADF814309E
:10B3E000BBE7B8F8183023F008031B041B0C43F02C
:10B3F0000803A8F81830CBE7B8F8183023F4006336
:10B400001B041B0C43F40063A8F81830C0E7B8F81D
:10B410001C3023F008031B041B0C43F00803A8F89E
:10B420001C30B5E7B838002083DE1B4370B4447984
:10B4300041BB03684FF400524FF4007620250221EF
:10B440003CBB1A8C22F001021204120C1A841A8BD3
:10B45000188C22F0F30280B2120420F00A00120CC1
:10B46000014342F0010241F001011A8319841A8B51
:10B4700022F00C021204120C1A831A8B92B270BCC6
:10B480001A83704700220368164615461146002CA1
:10B49000D7D0042C21D0082C38D0198C21F480511D
:10B4A0000904090C19849C8B1D8C45F6FF7040F62D
:10B4B000FF4128402140024342F4805241F4807110
:10B4C00099831A849A8B22F440621204120C9A8394
:10B4D0009A8B92B270BC9A8370471A8C22F0100239
:10B4E0001204120C1A84188B198C89B240F6FF4290
:10B4F00021F0A00102400D4342F4807245F0100596
:10B500001A831D841A8B22F44062B3E71A8C22F44A
:10B5100080721204120C1A84998B1A8C21F0F30198
:10B5200092B2090422F42062090C324342F4807280
:10B5300041F0010199831A849A8B22F00C02C4E72E
:10B540000B88F0B433BB028C4C880E898B88C98879
:10B5500022F001021204120C0284058B028CADB29F
:10B5600025F0F30592B22B4322F00A0243EA0613B8
:10B5700022439BB242F0010203830284038B23F037
:10B580000C031B041B0C0383038B9BB21943F0BCFD
:10B5900001837047042B048C2CD0082B4E888A889A
:10B5A0000D89C98851D024F480542404240C0484C7
:10B5B000838B078C2C0344EA022440F6FF421A4096
:10B5C00045F6FF733B4043EA063322439BB292B2F7
:10B5D00043F4805382830384828B22F440621204FA
:10B5E000120C8283838B9BB243EA01239BB2F0BC93
:10B5F0008383704724F010042404240C4D880F89A1
:10B600008A88C9880484068B038C12029BB242EAA2
:10B61000073423F0A00340F6FF42324043EA05130B
:10B6200022439BB292B243F0100302830384028B45
:10B6300022F440621204120C0283038B9BB243EA91
:10B6400001239BB2F0BC0383704724F4807424046C
:10B65000240C0484848B038CA4B29BB224F0F304E6
:10B6600023F42063224343EA062342EA05129BB2F5
:10B6700043F4807392B282830384838B23F00C03A0
:10B680001B041B0C8383838B9BB21943F0BC818307
:10B69000704700BF70B5314CD4F844335D0684B0B8
:10B6A0001BD4D4F85033580648D4D4F85C33590628
:10B6B00047D4D4F868335A0646D4D4F874335B06BA
:10B6C00045D4D4F8803313F0400343D10622C4F8A4
:10B6D000943384F8902304B070BD00230121204AE4
:10B6E00084F8901392F84D0092F84E1092F84F5053
:10B6F0001C4A002814BF0220002003EB430300294A
:10B7000014BF1021002104EB8303002D18BF40F06B
:10B710000100014303264FF4E13593F948030095F6
:10B72000CDE901610023402133F0B5FDC4F8940355
:10B730000028D0D00C4B436304B070BD012302211C
:10B74000CDE702230321CAE703230421C7E704232B
:10B750000521C4E705230621C1E700BFB049002049
:10B76000B8380020252702086D260208F0B5B74D2D
:10B770006B7885B0132B2DD8DFE813F02F002F0046
:10B7800056003304B40414001400FD008801C00105
:10B790002F002C003F02CC0240035600A203A80356
:10B7A0001400AA03AA4CAB4AAB48AC49AA60062BCA
:10B7B0004FF0000284F84C2484F84D2484F84E2481
:10B7C000E860696100F05486122B00F0CE84052BEE
:10B7D00000F04185002005B0F0BD9D4CD4F8442315
:10B7E000C4F8E053560600F1CD86D4F85023500635
:10B7F00000F1DE86D4F85C23510600F1FB86D4F814
:10B800006823570600F11B87D4F87423560600F10D
:10B810002087D4F8802312F0400040F02F850623C3
:10B8200084F8903305B0F0BDA98C8D488D4E884CBE
:10B8300096F86020DFF850C28B4F0901A0FB010190
:10B84000C908A1F5B06189B2002061F30F0061F36E
:10B850001F40002A18BF6146C4F8000442F6F82CC5
:10B86000C4F80404C4F80804C4F80C04C4F81004B0
:10B87000C4F81404C4F81804C4F81C04C4F8200460
:10B8800004F2244008BF3946D4F84423E86141F269
:10B8900070774FF0120008BF6746AF80A870734FF3
:10B8A0006E48AF6004F5806C714F68615006C4F853
:10B8B0004814C5F818C0EF6000F15D86D4F8502335
:10B8C000570600F17C86D4F85C23550600F18A8681
:10B8D000D4F86823500600F1B586D4F874235706CF
:10B8E00000F1BA86D4F8802312F0400097D00520EA
:10B8F000062512F4057F84F8905340F02F8602F459
:10B900008252B2F5825F00F0A5850F2B00F0A5856D
:10B9100000EB400004EB8002002592F948034FF051
:10B92000010C96F84D2096F84E70002A14BF0C2298
:10B930000E22002F40F04F850F2B0CBF1023002349
:10B9400096F84F700091002F18BF42F00102134388
:10B950000293484A484BCDF804C0402133F09BFC89
:10B9600096F8583013B1052386F86930002D00F0A1
:10B97000F58300F06DBC364C404AD4F84433AA60DD
:10B98000122044F620610022A870A9803C48334967
:10B9900084F857245F06E860696100F1FA85D4F8FD
:10B9A00050335E0600F10786D4F85C335D0600F183
:10B9B0002486D4F86833580600F12686D4F8743308
:10B9C000590600F15886D4F8803313F040003FF454
:10B9D00026AF0522062103F48253B3F5825F84F873
:10B9E000901300F0AA8502EB420204EB82020025CC
:10B9F00092F9480301271B4E96F84D3096F84E10E9
:10BA0000002B4FF0000314BF02221A4684F858346A
:10BA1000002940F0E384002D00F06E8596F84F3049
:10BA20000197002B18BF42F0010242F010024FF4C0
:10BA3000E13502920B46134A0095402133F02BFC6E
:10BA40000023C4F85C0484F8603487E3C027002036
:10BA5000B0490020299E0108519E01081D380208A6
:10BA6000CDCCCCCCB8380020A0860100CD2E020869
:10BA7000ED2E020895300208D44D0020713E0208D8
:10BA80006D5D0208853E0208400D0300C64CC74BA1
:10BA9000AB6028211023C64A84F87214002741F2B3
:10BAA0007C51AB704020C34B84F87174A980EA606C
:10BAB0006B612FF04BFC00283FF48CAEBE4EBF49AB
:10BAC00096F84D2096F84F3090F904000091BA4254
:10BAD00014BF12221022BB4218BF42F00102032100
:10BAE000CDE901123B46B64A402133F0D4FBC4F8FD
:10BAF0007404C01B18BF012005B0F0BDAB8CB14A67
:10BB0000A94CB149A9601B01A2FB0323D4F844133B
:10BB1000AE48E860DB08A3F5B0631020C4F87834C1
:10BB2000C4F88034C4F87C34C4F88434C4F888344D
:10BB3000C4F88C34C4F89034C4F89434C4F89834FD
:10BB4000C4F89C34C4F8A034C4F8A434C4F8A834AD
:10BB5000C4F8AC34C4F8B034C4F8B43441F60B22A1
:10BB6000944BA8704906AA806B6100F10E85D4F849
:10BB700050335A0600F12785D4F85C335B0600F198
:10BB80003585D4F868335F0600F15585D4F87433F1
:10BB90005E0600F16C85D4F8800310F040003FF49D
:10BBA0003EAE05230625844E894896F84D2096F82A
:10BBB0004F100090002A03EB430304EB830314BFF0
:10BBC00002220022002918BF42F00102032193F94A
:10BBD0004803804BCDE901127F4A84F890534021FD
:10BBE00033F059FB96F86930C4F8B804002B40F0E4
:10BBF000B582062386F86930B0E2AB8C714A6A4C94
:10BC000076497748A9601B01A2FB0323DB08A3F553
:10BC1000B0639BB2002263F30F0263F31F4212234F
:10BC2000AB70D4F84413634BC4F80425C4F808255A
:10BC3000C4F80C25C4F81025C4F81425C4F8182538
:10BC4000C4F81C25C4F82025C4F82425654AE860FA
:10BC500004F2045642F6F820C5E90423AE61A88038
:10BC60004D0600F19C84D4F85033580600F1AF849F
:10BC7000D4F85C33590600F1AE84D4F868335A0620
:10BC800000F1D584D4F874335B0600F1EC84D4F869
:10BC9000800310F040003FF4C2AD05230627464E56
:10BCA00084F8907396F84D0096F84E1096F84F5021
:10BCB0004D4A002814BF0220002003EB4303002953
:10BCC00014BF3021002104EB8303002D18BF40F086
:10BCD0000100014303254FF4E13793F9480300972E
:10BCE000CDE901510023402133F0D5FAC4F82805ED
:10BCF000002800F033823D480CF0FCFA96F86930D9
:10BD000084F82C05D4F82805002B40F0278286F80B
:10BD1000695023E2284E244C96F85E3096F85F2056
:10BD200084F8D83304F5667384F8D923AB614FF0F7
:10BD300080224FF08023C4E9E623C4E9E823C4E964
:10BD4000EA23C4E9EC23C4E9EE23C4E9F023C4E9FF
:10BD5000F223C4E9F423202242F6F823AA70AB8030
:10BD6000144A234BD4F89413224F2348AF60C5E9FB
:10BD70000432E860002900F06583012384F8DA3397
:10BD800036F038F896F8693000F543405030C4F882
:10BD9000DC0313B9032386F86930D4F89403003820
:10BDA00018BF0120A8E600BFB0490020E93802080A
:10BDB000113902081D380208B838002048E801008F
:10BDC000B1390208CDCCCCCC393402089134020808
:10BDD000A0680600C0270020DD580208CD2E02080A
:10BDE00061B6010801BB0108659C0108A1BA010800
:10BDF000ED250208B525020859540208AB8CA64A65
:10BE0000A64CA749A9601B01A2FB0323DB08A3F5ED
:10BE1000B06341F29410A34AC4F8C034C4F8C834E3
:10BE2000C4F8C434C4F8CC34C4F8D034C4F8D4341E
:10BE3000C4F8D834C4F8DC34C4F8E034C4F8E434CA
:10BE4000C4F8E834C4F8EC34C4F8F034C4F8F4347A
:10BE5000C4F8F834C4F8FC34934B9449A8801026F5
:10BE60004020C5E90432AE70E9602FF06FFA002877
:10BE70003FF4B0AC8E4E8F4996F84D3096F84F2077
:10BE800090F904000091002B14BF32233023002AC4
:10BE900018BF43F001030325CDE90153864A00236F
:10BEA000402133F0F8F996F86930844AC4F8000567
:10BEB0004263002B40F0578186F8695001201BE651
:10BEC000012005B0BDE8F040FCF7BEBE0020F8E759
:10BED0007B4B7C4FAB6044F620621223AB70AA8090
:10BEE000794B7A4A6D4CEB602A616E4B6B614FF473
:10BEF000AA72002107F58C7057F0C8F9D4F84403F2
:10BF000040F2DC5240F2DC53C7E94623C7E948233C
:10BF1000C7E94A23C7E94C23C7E94E23C7E95023A1
:10BF2000C7E95223C7E95423C7E956230121420632
:10BF300087F8171200F13083D4F850335B0600F114
:10BF40003283D4F85C335E0600F14983D4F8683359
:10BF50005D0600F15D83D4F87433580600F18083E8
:10BF6000D4F8800310F040003FF459AC05210625B9
:10BF70004F4E574896F84D3096F84F200090002BC2
:10BF800001EB410104EB810114BF32233023002A6D
:10BF900018BF43F00103032291F94803CDE90123BF
:10BFA000402184F890534B4A002333F074F905463E
:10BFB000C7F8680188B100233F22C4F8645487F8A9
:10BFC0006C2287F86D2284F8683484F86934C4F8E8
:10BFD0006C3484F870341CF017FD281E18BF012043
:10BFE0008AE52E4C3C49D4F84423A96042F6F82156
:10BFF0001220A9802B49A87069613848E860510671
:10C0000000F1BD82D4F85023570600F1CE82D4F857
:10C010005C23560600F1F582D4F86823550600F13A
:10C02000FA82D4F87423500600F11083D4F88023E8
:10C0300012F040003FF4F3AB0521062012F4057521
:10C0400084F8900300F0798101EB410104EB810257
:10C05000012592F94803164E019396F84D1096F873
:10C060004E3096F84F601E4A002914BF022100216D
:10C07000002B14BF10230023002E18BF41F0010134
:10C080000B434FF4E131029300910023402133F040
:10C0900002F9002D62D0DBE0CDCCCCCCB049002041
:10C0A000693102081D380208C931020855370208F3
:10C0B000B8380020A06806009933020855310208FC
:10C0C000B53A020898010020C93A020809AF0208EF
:10C0D00060E31600513B0208FD220208112302080A
:10C0E000E5230208C84AC94B082042F6F821A87087
:10C0F0004020C5E90223A9802FF028F90446002832
:10C100003FF468AB6978C24E0CF042FF96F84D20C0
:10C1100096F84E3096F84F50014694F904000C1EE4
:10C1200014BF03210121002A14BF02220022002B88
:10C1300014BF10230023002D18BF42F00102134347
:10C140004FF4E132CDE9011300920023B14A4021BE
:10C1500033F0A1F814B1B04BC3F8F803003818BF9E
:10C16000012005B0F0BD0120C6E4102243F2B0600A
:10C17000AA7040F68C2184F85524A8804722A74D48
:10C1800084F85634C4F8501484F85424D4F8442362
:10C19000510600F17482D4F85023570600F17482DE
:10C1A000D4F85C23560600F17282D4F86823500656
:10C1B00000F17082D4F87423510600F16E82D4F835
:10C1C000802312F040003FF42AAB0521062012F430
:10C1D000057F84F8900300F0EC800F2B00F01E82A6
:10C1E000122B00F05D82052B00F05A82062B00F026
:10C1F0005782072B00F0548202F48252B2F5825F1C
:10C2000000F0E08001EB410104EB8101002791F98E
:10C21000480301237E4E019396F84D2096F84E3048
:10C2200096F84F100095002A14BF02220022002B1E
:10C2300014BF10230023002918BF42F0010213434A
:10C240000293774A0023402133F025F8002F85D050
:10C25000C4F8F80382E70C22AA7042F6F8204FF4E3
:10C26000FA5184F855241B22A88084F85634C4F867
:10C27000501484F854244FF4E13587E7052106264D
:10C28000002012F4057F84F8906384F8E40362D000
:10C29000022B40F25C81DA1E042A40F21B810A2B39
:10C2A00000F03B81002B00F0FE8001EB410104EB2C
:10C2B00081035C4A93F948035B4B5C4E5C49AE607A
:10C2C000C5E90432E96000274FF0010C504E96F8A2
:10C2D0004D2096F84E30002A14BF02220022002B77
:10C2E00040F0AE8094F8E433002B14BF10230023F9
:10C2F00096F84F10CDF804C0002918BF42F0010293
:10C3000013434FF4E132029300924A4B4A4A4021D0
:10C3100032F0C1FFC4F8F4030FB1C4F8F80396F883
:10C320005430AA78013BDBB29A4284F8FC333FF6E2
:10C3300015AF002384F8FC3310E702F48252B2F503
:10C34000825F00F0F28001EB410104EB81010123E7
:10C3500091F948037FE602F48252B2F5825F00F061
:10C36000B680012B9BD100270322072384F8EC23FE
:10C3700084F8ED3301224FF4006384F8EE23C4F80F
:10C38000F0330C2242F6F823AA70AB80274A284BE0
:10C39000AA6001EB4101234AEB6004EB8101224BCF
:10C3A00091F94803C5E90432002F73D04FF0030C14
:10C3B0008CE702F48252B2F5825F7FF423AF072B41
:10C3C00000F02C8101EB410104EB8103002793F97C
:10C3D000480301231EE71023FFF7B2BA96F84F1067
:10C3E0000197002918BF42F0010242F010024FF4F9
:10C3F000E13102920091114A402132F04CFF002DB0
:10C400003FF4ACAEFFF71CBB71A9010895A9010868
:10C41000B838002065250208B049002090D00300FC
:10C42000B5A201081D380208E128020835290208D2
:10C430008D290208C0270020192E0208853E020817
:10C44000102355E7FFF726F9D4F89433002B3FF477
:10C45000C1A992E4072B7FF458AA00EB400004EB3B
:10C460008000012590F948034FF0030CFFF759BAFB
:10C470000C22AA7043F2B0604FF4FA5184F85524AC
:10C480002122A88084F85634894DC4F8501484F8C9
:10C4900054247BE694F8E433002B14BF4FF0030CD4
:10C4A0004FF0010C12E71F460222032384F8EC230D
:10C4B00084F8ED3300224FF4806384F8EE23C4F84F
:10C4C000F033072245F2F053AA70AB805EE7072BEA
:10C4D0007FF447AF01EB410104EB8103754A93F907
:10C4E0004803754B754E7649AE60C5E90432E96084
:10C4F00001274FF0030CE9E696F84F300197002B27
:10C5000018BF42F001024FF4E131029200916D4AEE
:10C510002B46402132F0BFFE20E6D4F8E833C3F3C7
:10C52000802384F8E43300271EE701EB410104EB8C
:10C53000810393F9480301238DE502EB420204EBEA
:10C540008203012593F948030327FFF754BA012B0F
:10C5500000F09880002BBDD10127A5E75A4DDD40A2
:10C56000ED073FF57AAF02F48252B2F5825F7FF4B5
:10C57000CCA9FFF7CDB900200125FFF7BAB90021FA
:10C5800001205BE5002101267AE600230125FFF763
:10C590000ABB0121FFF71FBA0D460021E8E4002382
:10C5A0000127FFF77CBB0225E2E40121022045E5DB
:10C5B0000121022664E601220221FFF70CBA0120C4
:10C5C0000225FFF796B901230225FFF7ECBA0123F4
:10C5D0000227FFF764BB02230327FFF760BB02219A
:10C5E0000325C5E402200325FFF783B902230325B1
:10C5F000FFF7D9BA0221032642E602220321FFF700
:10C60000EAB91846022119E503220421FFF7E3B92C
:10C6100003210425ACE4032104200FE501EB4101D3
:10C6200004EB8103012793F948030323F2E5032375
:10C630000427FFF734BB03230425FFF7B4BA032113
:10C6400004261DE603200425FFF753B90421052025
:10C65000F4E40421052613E604200525FFF749B973
:10C660000421052584E404230527FFF718BB0423D0
:10C670000525FFF798BA04220521FFF7ACB9002180
:10C680000120A4E51F466FE6012102209FE502215B
:10C6900003209CE50321042099E50421052096E56B
:10C6A0000C2303FB0141012791F948030323B1E562
:10C6B00090D003001D380208E1280208352902083D
:10C6C0008D290208853E0208FF8004000449054ABE
:10C6D000054B8360C0E900120C3045F04BBF00BF32
:10C6E00075250508FD0F0508A90F05082DE9F0417E
:10C6F000534C2DED048B012284F83027514ADFED95
:10C70000529A92F83035B2F84815B4F850249FED9B
:10C710004F9A07EE103AB8EEC77AF2EE047AC7EEF7
:10C72000276A04F58A6500264A436420C4F828670E
:10C73000B2FBF0F204F5BC67C4F82C274FF00008F8
:10C7400007EE101AC5EDB56AB8EEC77ADFED406A9C
:10C7500086EE878AF0EE678AB4F8503400EE903A9D
:10C76000B3EE090AF8EE600A3846FFF7AFFFB4F8F7
:10C77000503400EE903A38EE080AF8EE600A0022D3
:10C78000052107F1900049F049FFB4F85034C5F88D
:10C79000B08268EE287A07EE103AF5EEC07AF1EE34
:10C7A00010FAB8EE476AB7EE007A17DDB3B166EE5D
:10C7B000296AF4EEE76AF1EE10FA88BFF0EE676AD4
:10C7C000F0EE665AE6EE095AC6EEA57AF4EEC77A9E
:10C7D000F1EE10FA88BFF0EE477A01E0F0EE477A0A
:10C7E000B5EEC08AF1EE10FAC5EDAD7A19DDC3B130
:10C7F00066EE296AF4EEC86AF1EE10FA88BFF0EE30
:10C80000486AF0EE667AE6EE097AB0EE676AC6EE3E
:10C81000867AF4EEC77AF1EE10FA88BFF0EE477A26
:10C8200001E0F7EE007A0136032EC5EDAE7A07F18E
:10C83000300705F10C058FD1BDEC048BBDE8F0810C
:10C84000B8380020B04900203333F33E83F9223E4C
:10C85000000048432DE9F04FAC4AAD4CB2F85414F7
:10C86000B2F852342DED088B07EE901A0AEE103A0A
:10C8700094F825399FEDA7BADFEDA7AAF8EE679ADD
:10C8800007EE903AB4F82639F8EEE77AF2EE046A49
:10C890000A2B87EEA67AB8BF0A239246002285B0FB
:10C8A00004F5AA67C4F8602504F5136B04F658165E
:10C8B00007EE903AB4F8283987ED007A08EE103A7E
:10C8C000F8EEE78AB8EEC88AB6EE009AF4EE488A27
:10C8D00029EE890AF1EE10FAC8BFB0EE688A94F822
:10C8E0002439C7ED018AB4EEC80AF1EE10FAD8BFB8
:10C8F000B0EE408A082BA8BF0823B1F57A7F38BF75
:10C90000134680EE080AC4F85C3587ED028A54F0BD
:10C910000FF9B7EE007AB4EE470AF1EE10FA48BF0D
:10C92000B0EE470AFDEEC07AB8EE4AAAF8EEE76A22
:10C9300017EE905ACAEE297A04F63413C4F82C592B
:10C940009FED76AA67EEA67A87EE276A89EEA67A29
:10C95000DFED737A8BED006AC7EE279A0BF2247B2A
:10C9600088EEA90AC3ED009A54F062F90228B8BF14
:10C97000022088EE290A8046C4F8380954F058F994
:10C980002328A8BF2320B8F1230FA8BF4FF0230806
:10C990004045C4F83C0904F51463B8BF4046A0EB19
:10C9A00008018146012DD3ED007ADFED5E8A5E48F5
:10C9B0000093B8BF01250131F5EE407AF1EE10FA8F
:10C9C0002ED15A4A01960023CDF808B01646AB4640
:10C9D0001D4607EE905AF8EEE79A039169EE8B9A9E
:10C9E0000135B0EE690A54F05BF8B0EE408AB0EE63
:10C9F000690A54F0EFF9A0EE288A242D4A480399D9
:10CA000028EE0A8A20EE0A0A86ED008A86ED010ADF
:10CA100006F10806DDD15D46DDE9016BF0EE6A7ACC
:10CA2000002346E9053891FBF5F246F80C9C46F8E0
:10CA3000082C46F8045C32460133482BE2EC018AAC
:10CA4000FAD1D0F8F8E1D0F8FCC106F590730022D5
:10CA50000132242AC3F800E0C3F804C003F108033C
:10CA6000F6D106F515765E45A6D1009BDFF8C49099
:10CA70009FED2F8AC3ED007A0026B819CB464FF000
:10CA80000008D4F85C35984500F1240531DA07EE4A
:10CA9000908A97ED016AF8EEE76AD7ED027A36EEF2
:10CAA000897A77EEC67A743067EE877A07EE103AA5
:10CAB000B8EEC77ABAF8523487EE870A042108F133
:10CAC000010800EE903A30EE060AF8EE600AABEC90
:10CAD000010A97ED001AC5ED178AA6EE881AC5ED72
:10CAE000168AC5ED158AC5ED148A49F043FE28461D
:10CAF000C7E706F59076B6F5587F09F12009BCD155
:10CB000005B0BDEC088BBDE8F08F00BFB838002041
:10CB1000B0490020C3B8B23DBC297E3F72F97F3FC7
:10CB20000000904200000000D4350608F0590020B3
:10CB3000CDCC4C3E144F00202DE9F04F2DED028B53
:10CB4000DFF8BC91DFF8BCB1DFED688A9FED688A41
:10CB500085B009F138040127FEB219F8010B3246FD
:10CB6000572134F063FD0546002800F099800368E2
:10CB7000A0600122B3F1804F04F8302C00F09B80BC
:10CB80005C4A934200F09780DFF87CA1DAF8283401
:10CB900007EE903AF8EE677A00228021DFF86C8188
:10CBA00044ED0A7A98F86E0004F82F2C07EE900AEC
:10CBB000ABFB0323F8EE677ADB08002244F80C3C59
:10CBC0004FF4005C012319F8010C44F8101C44EDEB
:10CBD000088A04ED0B8A44ED097A44F8082C44F8DD
:10CBE000142C44F818CC24F81C3C24F81A3C3EF0D1
:10CBF00075FFE06010B15723C671837198F86C30EF
:10CC0000012B71D0022B0CBF422102216A7A3FF026
:10CC10002BF8DAF828142846FCF706FC14F82F3C09
:10CC2000002B53D02146344B41F8043D00222846C6
:10CC300034F054FA98F86D302868002B4FF0010A50
:10CC400014BF00230223CDF808A0ADF8063004235A
:10CC50006A79ADF804200DEB0301ADF80C30FEF756
:10CC60006FFC54F8103CA26898F870111268013EED
:10CC7000013B9BB2F6B213854FF0FF3500234FF412
:10CC80000050B142D562A2F814A044E9060324F88A
:10CC90001CAC24F81AAC44F8083C01D134F010F86C
:10CCA0000137052F04F140047FF456AF05B0BDEC09
:10CCB000028BBDE8F08FDFF850A0DAF8283407EED9
:10CCC000903A0122F8EE677A114667E70B48DFF8E1
:10CCD00040C044F8040C63602246211F2846C4F873
:10CCE00000C034F0FBF9A5E722218FE700401C4685
:10CCF00000000000000C004029040408510504084D
:10CD0000105B00201F85EB51B8380020A85A002086
:10CD1000E50C040870B5084C251D2E4614F8010BCF
:10CD20002CF0B4FA28B1037905F8013BB442F5D1EF
:10CD300070BDFF23F8E700BF1C5C00202DE9F04721
:10CD40001D4F012607F10805B2464FF03B094FF091
:10CD5000000817F8010B3EF0C1FE044690B180F8C0
:10CD60000690C671FB7803F07F02012A18D013F0F9
:10CD7000800F20460DD185F804803FF0D5FB85F863
:10CD800005802C600136052E05F10805E1D1BDE8CE
:10CD9000F08785F804A03FF0CDFB85F805A0F0E70B
:10CDA0001B0605D4012120463FF0F8F9FB78DEE7A9
:10CDB0003FF0C0FBF6E700BF245C0020184B03F5F2
:10CDC000E472C3F8BC21EFF31181102282F31288C0
:10CDD0000022C3F80822C9B2C3F80C2283F810223B
:10CDE00083F8142281F3118893F82D2293F82E12E0
:10CDF000C3F81802002A14BF0222002211B142F027
:10CE0000300252B20748084983F81C221222C3F8A4
:10CE1000200283F82422C3F828120120704700BFA3
:10CE2000A85A002005340308953703082DE9F04F70
:10CE30000C68B64EB64F2588D6F82864B6FBF2F2D9
:10CE4000013B013ABC4296B283B09BB2AAB211D068
:10CE5000B04DAC420ED0B4F1804F0BD0A5F580356B
:10CE6000AC4207D005F58065AC4203D005F580657E
:10CE7000AC4202D122F0700292B2A74DAC4211D066
:10CE800005F58065AC420DD022F4407205F56C4585
:10CE900092B2AC422280E362268540F021810023D9
:10CEA000238602E02280E36226850126A6820B7A91
:10CEB0004A7913F0020572D00021DB0003F0080369
:10CEC0008E46019188460F468C460E464FF480658B
:10CED0004FF0400A4FF0040B0C2A08D8DFE802F0AC
:10CEE000CC070707A00707071807070771000C2AD8
:10CEF0003DD8DFE812F0EC003C003C003C00B800FC
:10CF00003C003C003C003C003C003C003C008C00F1
:10CF1000218CDFF8FC8121F480710904090C218443
:10CF2000218CB4F80490A68B89B226F0730621F404
:10CF3000007136040F43360C444547EA0C211FFAB2
:10CF400089F946F0600600F0D080724FBC4200F0D4
:10CF5000CC800023A4F80490A683E3632184A38BF0
:10CF600023F008031B041B0C43F00803A383B4F84D
:10CF700044306FEA43436FEA53439BB2A4F8443012
:10CF8000238821469BB243F0010321F8343B002360
:10CF90008D18C0E900548B5003B0BDE8F08F5B00E2
:10CFA0004FF4806703F0020C0197AA462B46AB466C
:10CFB0004FF480414FF4805E4FF010084FF48077BB
:10CFC0008AE7238C524E23F480531B041B0C2384CA
:10CFD000238CB4F80480A78B9BB227F4E64723F494
:10CFE00000533F044EEA03053F0CB44245EA0C33BC
:10CFF00047F4C0471FFA88F500F0848006F5806684
:10D00000B4427FD00021A580A78321642384A38B11
:10D0100023F400631B041B0C43F40063A383A6E703
:10D02000218C3B4E21F010010904090C2184218C34
:10D03000A788258B89B225F4E64521F020012D042F
:10D0400048EA01012D0CB44241EA0C11BFB245F48B
:10D05000C0456ED006F58066B4426AD00023A78032
:10D060002583A3632184238B23F400631B041B0CFF
:10D0700043F4006323837AE7218CDFF894E021F006
:10D0800001010904090C2184258CB4F80480B4F84A
:10D09000189025F0020529F073092D044FEA09497B
:10D0A0004CEA06012D0C4FEA1949744545EA010680
:10D0B0001FFA88F849F0600930D016498C422DD00B
:10D0C0000023A4F80480A4F8189063632684238BBB
:10D0D00023F008031B041B0C43F00803238346E7DB
:10D0E0000C4B9C423FF4DBAEDFE621F4006141EAE9
:10D0F000032323F4806329F4405943EA050149EAF4
:10D100000E0926E725F480450D437BE7B83800205B
:10D110000000014000040140001000404FF6F3758C
:10D12000354028F440782B4348EA070843EA0B06C9
:10D13000C6E721F0800141EA031323F04001019B7F
:10D1400027F4406741EA0A011F4387E7564BB3F8CB
:10D1500052342DE9F04107EE903AF8EEE77AB6EE58
:10D16000007A67EE877A2DED0A8BB4EEE70AF1EECE
:10D1700010FADFED4E8A82B0B0EE408AB0EE41AADE
:10D18000F0EE47AA06DDF4EEE70AF1EE10FA78D5E4
:10D19000B0EE678AB5EEC08AF1EE10FA76DDF5EEF4
:10D1A000C00AF1EE10FA71DDF4EEC80AF1EE10FAE1
:10D1B0006CD560EE887A60EEE00AE8EE080AC7EE09
:10D1C000A09A3B4E3B4FDFF8F880044600F19005F3
:10D1D000DFED397A9FED397A6AEE277AB7EE009A59
:10D1E000F4EEC87AF1EE10FA88BFF0EE487A67EEF6
:10D1F000877A89EE29BAC7EE8ABAB8EE00CAB5EEC8
:10D20000C08AF1EE10FAC4E901872660C4ED068AEF
:10D21000C4ED058AC4ED048AC4ED038A39DDB5EE98
:10D22000C0AAF1EE10FA34DDF5EEC09AF1EE10FA74
:10D230002FDDB0EE6B0A49F0A1F920EE2A0AF0EEDC
:10D24000497AE0EE0B7A60EE8C0AB0EE496A80EE25
:10D25000A77AA0EE4B6AC9EE276A84ED087A84EDBE
:10D260000A7A86EE277AC4ED076AC4ED096A84ED6E
:10D270000B7A3034A542C2D102B0BDEC0A8BBDE8B6
:10D28000F081B0EE688AF0EE689A9AE7DFED079ACF
:10D2900097E784ED079AC4ED088AC4ED098AC4EDC6
:10D2A0000A8AC4ED0B8AE4E7B838002000000000C9
:10D2B00045100508A90F05083333F33EDB0FC940BD
:10D2C000FD0F05080A44914215D030B441F2210502
:10D2D00011F8014B082380EA042010F4004F85EA7E
:10D2E00040040ABF4000A0B280B2013BF5D18A429F
:10D2F000EED130BC7047704770B5654C654DD4F8C1
:10D300003832D4E98C122DED068B41EA0200012659
:10D31000184384B085F86E626FD009B209EE101A16
:10D3200012B2DFED5D7A1BB2B8EEC99A08EE902A10
:10D3300008EE103A29EE279AF8EEE88AB8EEC88A85
:10D340000023B0EE490A85F86E3268EEA78A28EE0F
:10D35000278A53F0A5FBF0EE407AB0EE490AB0EE12
:10D36000679A53F037FDB0EE40AAB0EE680A53F06A
:10D3700097FBF0EE407AB0EE680AF0EE678A53F061
:10D3800029FDF0EE409AB0EE480A53F089FBF0EE2A
:10D39000407AB0EE480AB0EE678A53F01BFD69EEA2
:10D3A000085A29EE006A6AEE006A2AEE087AB0EEA0
:10D3B000655AA9EEE65AE9EEE56AF0EE465AE9EE5C
:10D3C000875AA9EE867A60EE687A29EE289A28EEC6
:10D3D000888A68EECA8AC4ED9C9A84ED9E5AC4ED90
:10D3E000A06AC4ED9B7A84EDA29A84ED9A8AC4ED7A
:10D3F0009F8AC4ED9D5A84EDA17AD4F83C32012273
:10D4000085F86F2233B9B4F940322BB904B0BDECC2
:10D41000068B70BDB4F94032B4F93C02B4F93E2237
:10D420001E4C9FED1D6A1E4984FB00C6C017C0EB51
:10D43000A60084FB02C684FB03C4D217DB17C2EB31
:10D44000A602C3EBA40312B200B21BB207EE102A6D
:10D4500006EE900A07EE903AF8EEE66AB8EEC77A62
:10D46000F8EEE77A66EE866A27EE067A67EE867A47
:10D47000002301A8CDED016A8DED027ACDED037A8E
:10D4800085F86F3248F0DAFE04B0BDEC068B70BD53
:10D49000A85A00209801002035FA8E3C676666661F
:10D4A000EC5C00202DE9F041214E224F96F88F329E
:10D4B00087F8A73A06F5237607F6A82500244FF04B
:10D4C000050816F8010B20BB28600134032C05F178
:10D4D0000405F6D197F8A71AD7F8A80AC94301F0AE
:10D4E00001013FF02DF897F8A71AD7F8AC0A81F0A0
:10D4F0000201C1F340013FF023F897F8A71AD7F8CB
:10D50000B00A81F00401BDE8F041C1F380013FF0B1
:10D5100017B83EF0E3FA013401212860E3B210B1FC
:10D5200080F80680C37128683EF038FECEE700BF61
:10D53000A85A0020B8380020036870B55E6A26B18A
:10D5400033461922BDE87040184704460D4601F1E4
:10D55000190600E023689B68204698470028F9D008
:10D56000236815F8011B1B6820469847B542F1D186
:10D5700070BD00BFF8B5254C254DB4F89462A5F8F0
:10D58000B46AE6B994F890023EF0A8FA94F89122B1
:10D59000C5F8B80A003A18BF012285F8B62A48B182
:10D5A00094F892122C22002914BF11210121C2806B
:10D5B0003EF0F4FDBDE8F84000203EF0C9BF94F80D
:10D5C0009072002238462C2134F030F80446384658
:10D5D0003EF084FAC0B1BCB12C22C5F8D00AC2809A
:10D5E000617AFCF76DF80B49B1FBF6F12046C1F307
:10D5F0004F0289B2A5F8D86AFDF77EFED5F8BC2A9D
:10D600000023136085F8CD3AF8BD00BFA85A00206A
:10D61000B838002040420F002DE9F84F244C94F810
:10D62000A03284F8963204F29727002604F52D7470
:10D630005FFA86FB0BF101085FFA88F8012117F801
:10D64000010F42460E448A4633F0F0FF4FF00009C6
:10D65000054638B3387804F80E9C04F80D9C04F89D
:10D660000FBC04F810AC44F8045C3EF037FA18B173
:10D6700080F806A080F80780697AFCF721F80D4948
:10D680002846FBF7D1FE0C4B23600C4B221D214694
:10D690002846C4E9013933F021FD697928684A46F2
:10D6A00028F046FE082E04F11C04C1D1BDE8F88F15
:10D6B000A85A002040420F006963030839FE02089F
:10D6C00070B52B4C2B4B94F8CC03C4F8C433002218
:10D6D0000221C4E9E122C4F88C23C4F8C023A4F8D1
:10D6E000C82333F0A3FF002834D0234B016805463C
:10D6F00003F170005A7C12B15A6891422BD01C334E
:10D700008342F7D1002394F8CC03C4F8B05284F8D4
:10D71000A4323EF0E3F908B10223C380697AFBF733
:10D72000CFFF28461549FBF77FFE154A1549C4F877
:10D73000B4120026111F2846134BC4F8B832C4F89F
:10D74000BC6233F0CBFC697928683246BDE8704092
:10D7500028F0EEBD70BD0B8D0C4A0D49D2F828247F
:10D760009BB20133B2FBF3F381F87032CAE700BF1A
:10D77000A85A002000FFFF008439002040420F001B
:10D78000605D002061FE0208FDFF0208B83800203D
:10D79000980100202DE9F04FC94D95F89E700A2F91
:10D7A00083B0044600F29E80012303FA07F140F2A1
:10D7B000EF52114200F09680C24E7A1F032A86F87B
:10D7C000243821D9002386F83034FBF793FAC5F8C2
:10D7D000EC0BD5F8EC3B002B00F08E8000220121F1
:10D7E00083F8244083F8251083F826209A6244B1F8
:10D7F0002C33B54A1C4412F8011B03F8011BA34249
:10D80000F9D103B0BDE8F08F95F8A72086F8303441
:10D81000012A00F09C80022A7ED0DFF8D8E2AB4BD0
:10D820000193BEE80F00DFF8A4C295F8A680ACE82B
:10D830000F00BEE80F00ACE80F00DEF80020CCF8C7
:10D840000020B8F1000218BF0122A14B85F8012C7D
:10D85000072FC6F8103400F20481042F00F2108163
:10D86000DFF894920027A9F1230B5FFA87FA0AF1F7
:10D8700001085FFA88F8BC4242464FF0030107F105
:10D8800001072BDD1BF8013B0093184633F0CEFE59
:10D89000009B024600921846002A00F0E9803EF004
:10D8A0001DF9009A034651461046C9F814302BB1B1
:10D8B0004FF0030C83F806C083F80780137A95F8BD
:10D8C0009E204DF003FD002800F0D2804FF00103B0
:10D8D000042F89F8113009F11C09C6D1019BC5F844
:10D8E000EC3B76E7774B053F0022032F83F8242893
:10D8F0000ED983F830246CE7764E774C0FCE0FC4E8
:10D900000FCE0FC4336844F82039C5F8EC4B78E7E4
:10D91000012283F830245CE795F8A620002A3FF422
