:020000040800F2
:10000000F0FF00105DDD060891FF00082DF20408E6
:10001000FDDD0608FDDD0608FDDD06080000000028
:100020000000000000000000000000008DFF00083C
:1000300089FF00080000000085FF0008E5DD0408D6
:10004000FDDD0608FDDD0608FDDD0608FDDD060810
:10005000FDDD0608FDDD0608C12B0508892B050816
:10006000512B0508192B0508E12A050841BB060894
:1000700031BB060821BB060811BB0608FDBA0608FD
:10008000E9BA0608D5BA0608FDDD0608FDDD060852
:10009000FDDD0608FDDD0608FDDD0608A92A0508C8
:1000A00009B5040891B50408F9B40408B9B5040801
:1000B00081B5040871B5040861B50408A1CB060830
:1000C000A9CB060895CB06089DCB0608FDDD0608E2
:1000D000FDDD0608FDE1040845E104088DE00408A3
:1000E000712A0508FDDD0608D5160108E9B40408E3
:1000F00019B50408D9B4040841B50408C1BA060802
:10010000FDDD0608ED8A060851B50408FDDD060888
:10011000D5DF04081DDF0408FDDD0608FDDD060847
:10012000ADBA060899BA060885BA060871BA060873
:100130005DBA0608FDDD0608FDDD0608FDDD0608E2
:10014000FDDD0608FDDD0608FDDD060819F90008DD
:1001500049BA060835BA060821BA060865DE040859
:1001600089CB060891CB0608FDDD0608FDDD0608F3
:10017000FDDD0608FDDD0608FDDD0608FDDD0608DF
:08018000FDDD0608FDDD0608A7
:08280000082800080040000850
:04400000FFFFFFFFC0
:10800000F0B401292A4C2B4D23684FF0000694BF91
:1080100000270127EE626662A6626763676B47EA24
:1080200042076763EE63EC6B002A38D144F4957421
:10803000EC631C6824F001041C601C68E407FCD499
:10804000490289085960D8601968EAB921F04001ED
:10805000196019498B421DD018494FF47410C8603B
:10806000196841F01E011960596941F08001596198
:10807000196841F00101196022B90E4AD36A43F030
:108080000803D362F0BC704741F0400119600A490F
:108090008B42E1D14FF0746041F8500CE0E744F0BE
:1080A0001A04EC63EC6A44F00804EC62C1E700BF18
:1080B000382A0020002C014058640240006402402D
:1080C0002DE9F04F0C68B34D85B0013BAC42BDF8D3
:1080D00038809BB200F07C81A5F58065AC4200F051
:1080E000778105F58045AC425CD005F58065AC42F2
:1080F00058D005F58065AC4254D0A74E2588B76BA3
:108100007F08B7FBF2F6013EB6B2AAB2B4F1804FD7
:108110000AD0A24DAC4207D005F58065AC4203D031
:1081200005F58065AC4202D122F0700292B29C4DFE
:10813000AC4200F02B8105F58065AC4200F0268151
:1081400022F4407205F56C4592B2AC422280E362A3
:10815000268540F04681002323860125A58291F8DB
:1081600008904A7919F0020600F01E8100254FEAB6
:10817000C909402109F00809AE460395AC462F46CF
:108180002B4601954FF4806602914FF0040B0C2AA8
:1081900011D8DFE802F0C91010109B101010211048
:1081A00010106B007C4E2588B66BB6FBF2F6013ED4
:1081B000B6B2AAB2AAE70C2A40D8DFE812F0DE0075
:1081C0003F003F003F00AC003F003F003F003F004A
:1081D0003F003F003F007E00218C724D21F48071F2
:1081E0000904090C2184B4F820A0B4F804C0A18BC0
:1081F0001FFA8AFA21F073012AF4007A090447EA87
:108200000A07090CAC4247EA03231FFA8CFC41F031
:10821000600100F0EB8005F58065AC4200F0E6807F
:10822000A4F804C0A183C4F83C802384A38B23F06A
:1082300008031B041B0C43F00803A383B4F8443069
:108240006FEA43436FEA53439BB2A4F84430238858
:1082500021469BB243F0010321F8343B00238D18E3
:10826000C0E900548B5005B0BDE8F08F218C4D4E15
:1082700021F480510904090C2184B4F820C0A78896
:10828000A18B1FFA8CFC21F4E6412CF4005C09045C
:108290004EEA0C0E090CB4424EEA0333BFB241F46D
:1082A000C04100F0AF8006F58066B44200F0AA80BD
:1082B000A780A183C4F840802384A38B23F40063A8
:1082C0001B041B0C43F40063A383B7E7218C354DDB
:1082D00021F010010904090C2184278CA688218B28
:1082E000BFB221F4E64127F0200709044CEA070C4D
:1082F000090CAC424CEA0313B6B241F4C04100F0A1
:10830000918005F58065AC4200F08C80A6802183C9
:10831000C4F838802384238B23F400631B041B0CD4
:1083200043F40063238389E7258C1E4E019925F0D1
:1083300001052D042D0C2584B4F820E0B4F804C008
:10834000258B2EF0020E25F073054FEA0E4E2D04FC
:108350000B434FEA1E4E2D0CB4424EEA03031FFAA4
:108360008CFC45F0600551D00A498C424ED0A4F8EF
:1083700004C02583C4F834802384238B23F00803AE
:108380001B041B0C43F00803238357E72280E3629E
:108390002685E2E600040140382A0020000400405F
:1083A00000100040000001404FEA49094FF4806787
:1083B000CDE9015609F002030397B146B3464FF4E5
:1083C00080454FF4805E4FF0100C4FF48077DEE66E
:1083D0001B4E2588B66BB6FBF2F6013EB6B2AAB2CA
:1083E000A2E6184B9C423FF4B6AEB6E623F4006317
:1083F00043EA092323F480632CF4405C33434CEAC2
:108400000E0C0DE727F480472F4351E74FF6F37129
:1084100019402CF4407C41EA09034CEA070C43EA7A
:108420000B03A4E723F08003029D43EA091323F022
:1084300040032B43039D26F440662E4366E700BFAE
:10844000382A002000040140036870B55E6A26B136
:1084500033461522BDE87040184704460D4601F129
:10846000150600E023689B68204698470028F9D04D
:10847000236815F8011B1B6820469847B542F1D1C7
:1084800070BD00BF084AD2E90F31994209D0D11816
:10849000013391F844100170C3F30A03D363012040
:1084A00070470020704700BF382A0020044BD3E9F2
:1084B0000F30C01AC0F30A00C0F50060704700BF5B
:1084C000382A0020012380F85130704707B501A8F1
:1084D000FFF7D8FF0028FAD09DF8040003B05DF83C
:1084E00004FB034BD3E90F30C01AC0F30A007047F6
:1084F000382A002001207047024BC3F84428C3F8F3
:1085000048187047382A0020024BC3F84C28C3F89B
:1085100050187047382A00207047704730B4114D0A
:10852000D5E90F239A1AC2F30A020A44B2F5006F82
:1085300012D8A1B101444A1E013810F8014FE918C0
:10854000824203F1010381F84440C3F30A03F4D1EA
:108550002B64002030BC7047022030BC70470846B6
:10856000F8E700BF382A0020212838B50C4605D08E
:1085700022282ED0202813D0002038BD0029FBD07F
:10858000072AF9D11A4BD3F8540893F8581893F8DE
:10859000592893F85A38206021716271A371EBE772
:1085A0000029E9D0072AE7D1114DD5F848381BB189
:1085B0000968D5F844089847206821796279A37939
:1085C000C5F8540885F8581885F8592885F85A3898
:1085D000D2E70029D0D0022ACED1054AD2F85038AD
:1085E000002BC9D00988D2F84C089847C4E700BFCF
:1085F000382A0020024B0020C3F85C08704700BFF7
:10860000382A0020044B00200522C3F85C28C3F858
:108610005008C3F848087047382A0020704700BF48
:10862000704700BF704700BF704700BF704700BF72
:10863000704700BF704700BF042301480B8070479C
:108640008801002010B4074A074B92F860081224F2
:1086500003F114020C8001280CBF184610465DF887
:10866000044B7047382A00208C01002000487047D6
:10867000C432002000487047C4320020034B93F8F6
:108680008808032894BF002001207047382A002062
:10869000034B93F88808032894BF002001207047FB
:1086A000382A0020034B93F88808003818BF0120AF
:1086B000704700BF382A0020A0B182680D4B12B16C
:1086C00007229A7070471978DA6003294FF0040086
:1086D0000CBF80214FF48071C3E901111A611A7532
:1086E00098707047034B41F2E47101225A545A705A
:1086F000704700BF349E00200378022B10D0006921
:1087000008B9012070470C4B1B78032B0EBF0B4B95
:1087100080B24FF6F773984294BF00200120704753
:108720000549436841F650028A58B3EB422F2CBFEB
:1087300001200020704700BF349E0020F7FFFF0F8C
:108740000378022B14D030B4104A4368006941F614
:10875000480402F5C2511559096841F63C042B4002
:1087600012595B0A023801FB0030104430BC7047DC
:10877000064B426841F6340141F63000595818580A
:1087800000EB410000EB5220704700BF349E0020F8
:10879000F0B505682B6A93B013B1002013B0F0BD9B
:1087A00061F07F01CDE906330DF107078DF8071061
:1087B000039301218DF81430089202260B930E9337
:1087C000109300220023CDE90C2304460297049164
:1087D0008DF828108DF83C100996EFF311861023C0
:1087E00083F3128803681B6A03B3049B02A8024642
:1087F0001BB1D3691432002BFBD12B6AF3B19968FA
:1088000039B9934209D0196829B15B689968002980
:10881000F7D01433F3E7C3E90040F6B286F31188CA
:108820002268136A002BFCD10120B7E702ABF6B235
:108830002B6286F3118863F03DFAF1E71C60FFDEDE
:1088400070B5144C94F85839002BFBD1F9B10144A0
:108850004E1E451E02E0012045F024FAD4F85C3992
:10886000D4F860290133C3F30A039342F3D0D4F858
:108870005C29D4F85C3915F8011F22440133C3F395
:108880000A03B54282F86419C4F85C39E6D10020C5
:1088900070BD00BF382A0020094B0846D3F85C1889
:1088A00010B559B1D3F85C38052B07D1054C002A17
:1088B000E36E03DD1146FFF7C3FFE36E10BD00BF9B
:1088C000382A0020303B002010B590F850100023CB
:1088D00080F8503079B10B4CD4F85C286AB1D4F8E8
:1088E0005C28052A0BD1084C3C30E36EFFF7A8FF4B
:1088F000E36E012010BD0120FCE71046FAE71846A0
:10890000F8E700BF382A0020303B0020002280F822
:108910005120D9E790F85020531C0244DBB280F874
:10892000503082F83C1090F851200AB1132B00D936
:10893000CAE770473E4B98422DE9F0410ED003F54F
:108940006853083398424BD03A4B0020C3E93700B4
:10895000A3F8D800A3F8E400BDE8F081354C364F09
:10896000DFF8DC800223236704F174060025FB6A2C
:10897000AB42294605F1010503D0D4F8F40058F0C4
:10898000CBFE94F8F830D4F8F42086F82430326224
:108990003046414658F0F6FF236F9D4206F13006FF
:1089A000E5DB002384F8E630D4E91F03216FB4F837
:1089B0007820B4F88450C4F8043112FB01F203FBB0
:1089C00001F3A4F8D820B4F87A101C4AA4F8E450B3
:1089D000C4E93703A4F8DA10C4F8D4200120BBE7B7
:1089E000144C154FDFF85C800223236704F17406F2
:1089F0000025FB6AAB42294605F1010503D0D4F8F6
:108A0000F40058F089FE94F8F830D4F8F42086F891
:108A1000243032623046414658F016FE236F9D42A4
:108A200006F13006E5DB012384F8E630BCE700BF41
:108A30001971EF00303B002088010020380C070836
:108A40001940EF0021AAEF002DE9F04F2A4DDFF881
:108A5000D0A006460FCD54462DED048B0FC40FCD8C
:108A60000FC426492A6891F80A3122608BB091F828
:108A7000102103960A2B0CD8DFE813F036020B0006
:108A8000A30231020B000B000B000B000B000B00CC
:108A90002C02DFED1B7AF0EE678A002A19491A4A88
:108AA000CAF8102019481A4BCAF818000EBF002245
:108AB00001220B46009238EEA77AF5EE006AC6EE68
:108AC000879ADFF860B0134ECAF814300BF1230711
:108AD0004FF000099FED108A9FED109A27EE888ACB
:108AE000039B4B4540F3BF811BF8014B002C00F06A
:108AF0001B8200231BE000BF700C0708303B0020E6
:108B00006F120339DDA30408E1A3040831630308ED
:108B1000A1590308280100106F12833A00007A441B
:108B2000F8000010453C0020152B00F0FD8103EB00
:108B300043024FEA4308B95CA14203F10103F3D1B8
:108B4000D04B1A4492F83911002900F0388220469F
:108B500042F03AFF0546284642F056FF01780029C8
:108B600040F0E281C74B984409F1010301930322CD
:108B7000DBB288F8793188F87821002D00F0D481B3
:108B80004FEA141808F1FF38B8F1050F04F00F0C84
:108B900000F2F281BC4C04EB4801B1F85C0040FAF1
:108BA0000CF111F0010100F0E781012101FA0CFC48
:108BB0000CF1FF3C0CEA0000A044029364F016FFA5
:108BC00098F868C0DFF8D0E2029BB56160440EEB14
:108BD000C00C03228CF807308CF806205EF83000B9
:108BE000C6F814C000F13F4303F57E0304EB932461
:108BF000012194F870306A7A03F01F045B09032B9B
:108C000001FA04F100F0CD81042B00F0C581022BA4
:108C100000F0CC81BCF80440B4FA84F3C3F11F0324
:108C2000C3F3CC0100EB810103F00703D1F820C0AE
:108C30009B004FF00F0E0EFA03FE2CEA0E0CC1F84B
:108C400020C0D1F820C002FA03F343EA0C0305AABE
:108C50000B62114602230292CDE905430DF028FB79
:108C6000029A009B002B00F07081864BB3F808310C
:108C700000EE103AB8EEC00AFCEEC07A17EE90EAA9
:108C80002C68824B9C4200F05981A3F580639C4282
:108C900000F0548103F580439C4200F04F8103F5BE
:108CA00080639C4200F04A8103F580639C4200F09F
:108CB0004581774B986B4108B1FBFEF303F57F4389
:108CC000FF334FEA134C009BB1FBFCFC002B00F080
:108CD0003981BCFBFEF1013989B207EE90CAB8EECA
:108CE000677A6A4B67EE086A9C4269EE667AC6ED5F
:108CF000026AE7EE287AC6ED037A00F00381A3F555
:108D000080639C4200F0FE8003F580439C4200F0AB
:108D1000378103F580639C4200F0328103F5806364
:108D20009C4200F02D8123884008B0FBFCF0013804
:108D300080B29BB2B4F1804F00F0EA80DFF85CC1F2
:108D4000644500F0E5800CF5806C644500F0E0803F
:108D50000CF5806C644500F0DB80DFF844C16445AD
:108D600000F0DE800CF5806C644500F0D98023F4BF
:108D700040730CF56C4C9BB264452380E162208506
:108D800040F00581002323860120A0822B7A95F8EC
:108D900005800021CDE907114FF0600CADF81810E7
:108DA00009919907CDF814C040F1DA80DB0003F097
:108DB00008030421ADF82230ADF8181041462046D2
:108DC00042F006FAB8F10C0F10D8DFE808F07A0F7D
:108DD0000F0F710F0F0F520F0F0F0700A38B23F40C
:108DE00000631B041B0C43F40063A3832B68B3F8DC
:108DF00044206FEA42426FEA524292B2A3F8442002
:108E00001A88194692B242F0010221F8342B68798F
:108E100073600C18002234600A50B9F1000F00F0A2
:108E2000CA80DAF834108B4200F0C780B9F1010F24
:108E300000F0C180DAF850108B4200F0BE80B9F12A
:108E4000030F40F0B880DAF86C20D31A18BF012362
:108E5000DDF8049033740122B9F1040F727406F145
:108E60001C067FF43DAE0B480BB0BDEC048BBDE897
:108E7000F08FA38B23F008031B041B0C43F00803A3
:108E8000A383B3E7303B0020380C070800040140FF
:108E9000382A0020F8000010D43C002000040040D4
:108EA000001000406F12833AACC5A737ACC5A73697
:108EB000238B23F400631B041B0C43F40063238304
:108EC00094E7238B23F008031B041B0C43F00803D7
:108ED00023838BE75FED0D7AF0EE678ADDE55FEDCA
:108EE0000E7A5FED0E8AD8E5384BDFED397A394AD4
:108EF000CAF8103001230093CAF81820364BF0EE60
:108F0000678AD8E52388B0FBFCF0013880B29BB2B9
:108F1000DFF8DCC023F0700364459BB27FF422AF1E
:108F20002380E16220852FE72C4A2B4B0020CAE9E1
:108F300005320BB0BDEC048BBDE8F08F284B996B6C
:108F40000846B9E64FF6FE71C7E6B0EE690A02922E
:108F500064F05CFFFCEEC07A029A17EE90EA8FE6AE
:108F60005B0003F002034FF48071ADF82030ADF8E0
:108F70001600ADF8241021E77161B56105AA70E60D
:108F80002388B0FBFCF0013880B29BB2D2E6154BCF
:108F90009C423FF4F7AEF7E6134B1C6B2143196379
:108FA00038E6114B1C6C2143196433E60E4B5C6CA4
:108FB000214359642EE601234AE7134648E70D464C
:108FC000C9E5DFED0A7AF0EE678A66E5E1A30408F9
:108FD0006F12833A31630308DDA30408295B030899
:108FE000382A002000040140003802402829303887
:108FF00000100040114B70B59C6B054600680E4692
:1090000064080DF059F8B4FBF6F1B1F5803F03D3D5
:10901000012CFAD96408F6E72246284689B242F0C4
:1090200055FB0749074BC1F8083D28460022BDE81B
:10903000704001F6085142F0C7BA00BF382A00203C
:10904000303B002085F90108F8B5214C1D270E465C
:10905000054684F8107D25F055FB002025F0F4FA34
:10906000082025F0F1FA0E2025F0EEFA384625F01A
:10907000EBFA042025F0E8FA042025F0E5FA0020B8
:1090800025F0E2FA302025F0DFFA002025F0DCFAA6
:10909000304625F0D9FA002025F0D6FA25F01CFB41
:1090A00004F6115025F038FA234670B194F8112DCA
:1090B00062B994F8122D302A00D03AB993F8132DE2
:1090C00022B993F8143D2B700120F8BD0120FCE774
:1090D000303B002010B5044C04480A4621460BF0F2
:1090E0006FFE204610BD00BF54480020849B070837
:1090F00010B5044C04480A4621460BF061FE204698
:1091000010BD00BF54480020949B070810B5044CC4
:1091100004480A4621460BF053FE204610BD00BF0E
:1091200054480020A09B070810B5044C04480A4688
:1091300021460BF045FE204610BD00BF54480020DC
:10914000AC9B070810B5044C04480A4621460BF0B6
:1091500037FE204610BD00BF54480020B89B0708CA
:1091600010B50D4C94F856290023C4F8843812B178
:109170000A4AC2F8243E5FF019FD20B10423022000
:1091800084F8883810BD054BDB6EC4F878380923A5
:1091900084F8883810BD00BF382A0020303B0020FA
:1091A00070B50F4D95F88838042B04460E460BD049
:1091B000082B07D1D5F8803883420ED0FFF7D0FFB7
:1091C000022801D0012070BD0823C5F88468C5F8C5
:1091D000804885F88838022070BD022070BD00BF2D
:1091E000382A002070B50379234C002B14BF0123CB
:1091F000002384F8B43803D1002384F8883870BD84
:109200001E4D002195F92B2E03204AF0C5FB0028A6
:10921000F2D0466830464AF039FC84F855090028F7
:10922000EAD095F8293E003B18BF0123304684F868
:1092300056395FF07DF80BF05DFA38B994F87C3858
:1092400084F88808013384F87C3870BD5FF094FDA1
:1092500040B194F87C380022013384F87C3884F8DB
:10926000882870BDEB6EC4F87838012384F87C0838
:1092700084F8883870BD00BF382A0020303B0020B9
:1092800010B55FF079FD58B10C4C94F87C3801337F
:10929000DBB2072B84F87C3803D9002384F88838A4
:1092A00010BD0BF027FA0028F7D0054A0123D26E33
:1092B000C4F8782884F8883810BD00BF382A002008
:1092C000303B00202DE9F0418E4C94F8B458002D2D
:1092D00000F0058194F888288B4E0227531E082B36
:1092E00044D8DFE803F03A3CAB4371541543050022
:1092F0005FF05CFC002840F0F980D4F87838F26E1A
:10930000FA3393422FD2FFF7BBFF94F88828E5E7A2
:109310005FF04CFC0028F0D0D4F884380022012BF8
:1093200084F87C2840F2E680D4F8801894F8560936
:10933000013B0131C4F88438C4F8801810B1724B75
:10934000C3F8242E082284F88828A2F10805B5FA6B
:1093500085F56D092846BDE8F08184F888785FF0CE
:1093600025FC00284BD194F88828531EDBB2022B31
:109370000AD8654BD4F87818DB6E5B1AC82BE4D991
:10938000FFF77EFF94F88828042ADED1E2E7236BFA
:10939000002BDAD15C4BD4F87068DB6EC4F87838F7
:1093A000072284F88828002ECFD0D4F87438D4F857
:1093B0006428D4F868180120B047D4E7D4F8783886
:1093C000F16E64338B42C0D2D4F82C80B8F1000F18
:1093D000F4D15FF0EBFB002897D0D4F8706884F8E4
:1093E0007C88042384F88838002E7DD0D4F8743823
:1093F000D4F86428D4F868184046B047B3E75FF063
:109400007BF80028AFD196F82D3E002BA3F1020384
:10941000B3FA83F314BF022201225B0984F87D288A
:1094200084F87E385FF068F800287FF46CAF374A24
:109430000323926CC4F88C2884F888385FF05CF8B9
:10944000002890D1304BC4F8840893F85C6EB3F8D0
:109450005E0ED3F860EED3F860CED3F8607ED3F81A
:10946000602E84F8926893F8641EA4F8900893F82C
:10947000656E84F8962893F8650ED3F8682EC4F8C4
:109480009828B3F86E8EB3F86E2E84F89718B3F858
:109490006E1EC2F30B1343EA182303F00F0301F00F
:1094A0000F024FEA1E6E4FEA1C4C3F0A360900F0CD
:1094B0000F0003F5FA63042184F89D0884F893E80B
:1094C00084F894C884F8957884F89C68A4F89E3849
:1094D00084F8A02884F888182846BDE8F08184F82C
:1094E00088582846BDE8F081054633E7042384F810
:1094F00088382FE7FAD1FFF733FE94F88828531EF7
:1095000034E700BF382A0020303B002060490020AB
:1095100000F01F0240090123032803FA02F304D0DC
:1095200004280CD0022805D07047074A116C0B4361
:1095300013647047044A516C0B4353647047024AEA
:10954000116B0B4313637047003802400E4B30B46D
:10955000DB68427801780D4CDB43C3F30223C3F18F
:109560000403DBB202FA03F360181B0101F01F05CC
:109570000122490903F0F003AA4080F8003344F8BF
:10958000212030BC704700BF00ED00E000E100E0AA
:1095900010B5834A0368934282B000F0C280A2F5FE
:1095A0008062934200F0BD8002F58042934200F059
:1095B0008B8002F58062934200F0868002F5806223
:1095C000934200F0818077481A88806B4008B0FB96
:1095D000F1F1013989B292B2B3F1804F0AD07248E9
:1095E000834207D000F58060834203D000F580609D
:1095F000834202D122F0700292B26C48834200F0A2
:10960000998000F58060834200F0A08022F44072CF
:1096100000F56C4092B24FF6FF7483421A80DC6210
:10962000198540F0998000221A8601229A821A88B0
:109630005F4992B242F001028B421A8000F098809A
:10964000B3F1804F00F09680574A934200F0948027
:1096500002F58062934200F0918002F580629342AD
:1096600000F08E8002F58062934200F08B8002F55C
:109670008062934200F0888002F57042934200F0CD
:10968000858002F57052934200F0828002F580627C
:1096900093427FD002F5806293427DD0A2F598324A
:1096A00093427BD002F58062934216D002F580622D
:1096B000934208BF0D2211D04FF0012301A801935E
:1096C000FFF744FF02B010BD36481A88806BB0FB2C
:1096D000F1F1013989B292B27EE70C22354B03EBEE
:1096E000C20301A893F87D408DF8044001224FF495
:1096F00080738DF80520ADF80630FFF727FF1B2C8F
:1097000006D12D4B019301A8FFF720FF02B010BD39
:109710002E2CD7D1294B019301A8FFF717FF02B0D8
:1097200010BD20481A88806BB0FBF1F1013989B275
:1097300092B25FE701204FF6FF741A80DC62198550
:1097400098821A8892B202431A807DE74FF6FF7022
:109750001A80D862198568E7114A93423FF463AFD3
:1097600001229A821A8892B242F001021A8067E7B7
:109770000022B3E70122B1E70222AFE70322ADE7FF
:109780000422ABE70522A9E70622A7E70722A5E7FF
:109790000822A3E70922A1E70A229FE70B229DE7FF
:1097A00000040140382A002000040040001000405E
:1097B00000000140380C0708190100012C010001CC
:1097C000002877D0F0B58388B3FA83F3202B83B0D9
:1097D0000446C3F11F0258D0374D384E15444FF0A0
:1097E000004006EB820230FA03F395F8E850C2F825
:1097F000881E05D0324A116821EA030111605361C5
:109800002046002142F042FBA38822682C49B3FA8B
:1098100083F7C7F11F0404F0FC0000F1804000F55D
:109820009C3004F00304A40002F13F434FF00F0CFE
:1098300082680CFA04FC22EA0C02826003F57E03C3
:109840008268C3F38723A340134383600A681D48DB
:109850004FF00043FB4022EA03020A604A6822EA12
:1098600003024A600A681A430A608A6822EA03020D
:109870008A60CA6822EA0302CA6002682E4413435F
:10988000036096F8C83EF02B01D803B0F0BD0E4B34
:109890005B5D8DF80430F02103224FF4807301A842
:1098A00086F8C81E8DF80520ADF80630FFF74EFE8D
:1098B00003B0F0BD704700BF380C0708303B0020F4
:1098C000003C0140083C0140209C070800285FD074
:1098D0000368374A2DE9F04103F13F4404F57E0463
:1098E00002EB9422012492F8702002F01F05520925
:1098F000032A04FA05F456D0042A4FD0022A48D08D
:109900008588B5FA85F0C0F11F00C0F3CC0603EBE3
:10991000860600F0070082000F24306A944020EA97
:1099200004003062306A01FA02F20243002132621E
:109930004FF0010E0A464FF0030C02270EFA02F810
:1099400038EA050002F101021CD118680CFA01F492
:1099500020EA04001860186807FA01F606431E6042
:109960009E6826EA04069E6098689860586820EA17
:109970000800586058685860D86820EA0400D86029
:10998000D868D860102A01F10201D7D1BDE8F08172
:109990007047084A556C2C435464B1E7054A156B6F
:1099A0002C431463ACE7034A156C2C431464A7E7FB
:1099B000380C070800380240F0B5374DD5F8D07E96
:1099C0003E78012E95B004460B4606D0022E01D1FA
:1099D000396A69B1002015B0F0BD97F9040095F817
:1099E000D41E00931346224662F098FF15B0F0BDD6
:1099F00060F07F00CDE90A320DF10F048DF80F0001
:109A0000002201200023CDE90811CDE90E230591A4
:109A10008DF81C100D9110911291049406908DF800
:109A200030008DF84400EFF31180102383F3128887
:109A3000D5F8D03E1B6A13B3069B04AC22461BB17B
:109A4000D3691432002BFBD13B6A13B3996839B93F
:109A500093420AD0196829B15B6899680029F7D048
:109A60001433F3E70D4AC3E90024C0B280F3118830
:109A7000D5F8D02E136A002BFCD10120ABE704AB44
:109A8000C0B23B6280F3118805F56D6062F012F997
:109A9000EEE7024A1A60FFDE303B0020004A002059
:109AA000034BD3F8BC28136A002BFCD1704700BFCE
:109AB000382A00202DE9F047C24C94F89C1F054637
:109AC000C1F34001D4F8A40F45F08EFB94F89C1F1D
:109AD000D4F8A00FC94301F0010145F085FB002D2A
:109AE00000F0DC8005F1FF38B74EB84D5FFA88F81A
:109AF0001027D4F8A43F33B11A689B8851690B42F0
:109B000014BF53831383D4F8A03F33B11A689B88E2
:109B100051690B4214BF53831383B4F8AC3F002B3D
:109B200040F0488194F8AE1FD4F8B00F45F05CFBCC
:109B30004FF0FA0C4FF47A704FF0010E7368C3F3D4
:109B40000803002B40F00B81EFF31183002B40F052
:109B50000681E26EA968E36E9A42FAD1D4F8D83F42
:109B60009942F6D8D4F8D49F00FB09F35B1AB3FBF3
:109B7000F9F300FB02327368C3F30803002B40F0D3
:109B8000AF80EFF31183002B40F0AA80E36ED5F88D
:109B900008A0E16E8B42F9D1D4F8D81F8A45F5D8D8
:109BA000D4F8D49F00FB09F1A1EB0A01B1FBF9F154
:109BB00000FB03139B1AB3F57A7FDCD3BCF1010CD5
:109BC000BCD1D4F8A43F33B11A689B8851690B42C9
:109BD00014BF53831383D4F8A03F33B11A689B8812
:109BE00051690B4214BF53831383B4F8AC3F002B6D
:109BF00040F0D48094F8AE1FD4F8B00F81F001018A
:109C000045F0F2FA4FF0FA0C4FF47A704FF0010E73
:109C10007368C3F30803002B40F08280EFF31183D5
:109C2000002B7DD1E26EA968E36E9A42FAD1D4F896
:109C3000D83F9942F6D8D4F8D49F00FB09F35B1AB9
:109C4000B3FBF9F300FB02327368C3F308033BBBB9
:109C5000EFF3118323BBE36ED5F808A0E16E8B42CE
:109C6000F9D1D4F8D81F8A45F5D8D4F8D49F00FB91
:109C700009F1A1EB0A01B1FBF9F100FB03139B1AF7
:109C8000B3F57A7FE0D3BCF1010CC1D108F1FF3804
:109C90005FFA88F8B8F1FF0F7FF42BAFBDE8F087CB
:109CA000EFF3118987F31288D5F808A02B68DB033E
:109CB00044BFC4F8D0EFD5F808A0E36ED4F8D01FA5
:109CC0005FFA89F989F31188D4F8D49F0B4400FB1B
:109CD00009F1A1EB0A01B1FBF9F100FB0313CEE797
:109CE000EFF3118987F31288D5F808A02B68D90300
:109CF00044BFC4F8D0EFD5F808A0E36ED4F8D01F65
:109D00005FFA89F989F31188D4F8D49F0B4400FBDA
:109D100009F1A1EB0A01B1FBF9F100FB031349E7DB
:109D2000EFF3118187F31288D5F808902B68DA03D6
:109D300044BFC4F8D0EFD5F80890E36ED4F8D02F24
:109D4000C9B281F31188D4F8D41F1A4400FB01F37F
:109D5000A3EB0903B3FBF1F300FB023274E7EFF36B
:109D6000118187F31288D5F808902B68DB0344BF74
:109D7000C4F8D0EFD5F80890E36ED4F8D02FC9B26C
:109D800081F31188D4F8D41F1A4400FB01F3A3EB2C
:109D90000903B3FBF1F300FB0232ECE6D4F8C83F51
:109DA000002B3FF42FAFD4F8B42F0023136084F8B6
:109DB000C53F27E7D4F8C83F002B3FF4B9AE44F0C5
:109DC0003FF8B5E6303B002000ED00E010E000E099
:109DD0002DE9F84FBD4CBE4F94F89C1FD4F8A40F4A
:109DE000BC4DC1F3400145F0FFF994F89C1FD4F835
:109DF000A00FC94301F0010145F0F6F94FF0050B42
:109E00004FF01008D4F8A43F33B11A689B88516909
:109E10000B4214BF53831383D4F8A03F33B11A68A5
:109E20009B8851690B4214BF53831383B4F8AC3F32
:109E3000002B40F0438194F8AE1FD4F8B00F45F0EA
:109E4000D3F94FF0320C4FF47A7001267B68C3F3DC
:109E50000803002B40F00781EFF31183002B40F043
:109E60000281E26EA968E36E9A42FAD1D4F8D83F33
:109E70009942F6D8D4F8D49F00FB09F35B1AB3FBE0
:109E8000F9F300FB02327B68C3F30803002B40F0B8
:109E9000AB80EFF31183002B40F0A680E36ED5F882
:109EA00008A0E16E8B42F9D1D4F8D81F8A45F5D8C5
:109EB000D4F8D49F00FB09F1A1EB0A01B1FBF9F141
:109EC00000FB03139B1AB3F57A7FDCD3BCF1010CC2
:109ED000BCD1D4F8A43F33B11A689B8851690B42B6
:109EE00014BF53831383D4F8A03F33B11A689B88FF
:109EF00051690B4214BF53831383B4F8AC3F002B5A
:109F000040F0D08094F8AE1FD4F8B00F81F001017A
:109F100045F06AF94FF0320C4FF47A7001267B68F5
:109F2000C3F30803002B7FD1EFF31183002B7BD108
:109F3000E26EA968E36E9A42FAD1D4F8D83F99420A
:109F4000F6D8D4F8D49F00FB09F35B1AB3FBF9F3FE
:109F500000FB02327B68C3F308032BBBEFF31183D2
:109F600013BBE36ED5F808A0E16E8B42F9D1D4F8AB
:109F7000D81F8A45F5D8D4F8D49F00FB09F1A1EB8E
:109F80000A01B1FBF9F100FB03139B1AB3F57A7FC9
:109F9000E0D3BCF1010CC2D10BF1FF3616F0FF0B80
:109FA0007FF430AFBDE8F88FEFF3118988F31288A2
:109FB000D5F808A02B68DB0344BFC4F8D06FD5F8F0
:109FC00008A0E36ED4F8D01F5FFA89F989F31188ED
:109FD000D4F8D49F0B4400FB09F1A1EB0A01B1FBBB
:109FE000F9F100FB0313D0E7EFF3118988F312882E
:109FF000D5F808A02B68D90344BFC4F8D06FD5F8B2
:10A0000008A0E36ED4F8D01F5FFA89F989F31188AC
:10A01000D4F8D49F0B4400FB09F1A1EB0A01B1FB7A
:10A02000F9F100FB03134DE7EFF3118188F3128878
:10A03000D5F808902B68DA0344BFC4F8D06FD5F880
:10A040000890E36ED4F8D02FC9B281F31188D4F808
:10A05000D41F1A4400FB01F3A3EB0903B3FBF1F394
:10A0600000FB023276E7EFF3118188F31288D5F80E
:10A0700008902B68DB0344BFC4F8D06FD5F8089074
:10A08000E36ED4F8D02FC9B281F31188D4F8D41F6D
:10A090001A4400FB01F3A3EB0903B3FBF1F300FB4C
:10A0A0000232F0E6D4F8C83F002B3FF433AFD4F8C7
:10A0B000B42F0023136084F8C53F2BE7D4F8C83FC2
:10A0C000002B3FF4BEAE43F0BBFEBAE6303B0020AF
:10A0D00000ED00E010E000E0B0B10C49D1F8DC3F49
:10A0E000102B03D10521002042F070B803EB43028E
:10A0F0000A4482F8E00F202082F8E10F0120034497
:10A1000082F8E20FC1F8DC3F704700BF303B00200F
:10A110002DE9F04F2DED028BAA4C95B01E22A4F133
:10A12000E800002166F0E4FB14F8C83C1BB114F809
:10A13000C73C04F8E83C14F8C63C1BB114F8C53C15
:10A1400004F8E33C14F8C43C1BB114F8C33C04F815
:10A15000DE3C14F8C23C1BB114F8C13C04F8D93CF5
:10A1600014F8C03C1BB114F8BF3C04F8D43C14F8FC
:10A17000BE3C1BB114F8BD3C04F8CF3C14F8B63C0F
:10A180000393013B5FB2DBB202937B1C00F0B08013
:10A190008D4B8E4E53F83720019203EBC7034FF0DF
:10A1A000000A1B7908EE103AB146D046D34699F81A
:10A1B00000503946284645B34AF08CFB03462846F2
:10A1C0001D4613B344F09AFC0BF107031321DBB2D5
:10A1D00020B14FF0000C837180F807C041F056FEAB
:10A1E00099F800004AF0ACFB08F1010389F80280FD
:10A1F0005FFA83F84FF0070389F804304FF001034A
:10A2000089F80100AA4689F803300BF1010BBBF174
:10A21000060F09F10509CAD118EE100AFFF778F9FF
:10A220006B4A6C4B51680B4043F44033536017B991
:10A23000BAF1000F0BD1684D4820FFF769F92846A5
:10A24000022162F0C3FCAB6843F00103AB606049DC
:10A25000614B4A6834F8BC0C42F400024A605A6808
:10A2600022F480525A609A6B22F4401242F4801217
:10A270009A63DA6842F46002DA609D6B85F44012FA
:10A28000C2F3015202EB82021F2101FA02FC25EA0D
:10A290000C054FF0110C0CFA02F22A439A63DA68AB
:10A2A00042F4E012DA609D6BC5F30152C2F1040280
:10A2B000D2B202EB820291404FF0100C25EA010568
:10A2C0000CFA02F22A439A63E8B134F8BA2C44F843
:10A2D000B00CAAB134F8B83C44F8AC2C6BB13F498F
:10A2E0009B1A91FBF3F344F8A83CBAF1000F0DD18F
:10A2F00015B0BDEC028BBDE8F08F394B1B88EEE743
:10A30000384B1A88E6E7384B1888DEE7019D41464E
:10A31000284662F05BFC06F11E0E012117E0EB6897
:10A3200023EA0B031A43EA604B1E03EB83031F224D
:10A33000062902FA03F90CFA03F329D86A6B22EA18
:10A340000902134301466B63053676454ED0F37818
:10A35000481CC0B2002BF7D096F801C03379ACF19D
:10A360000A0202EB42024FF0070A0CEB4C09BCF167
:10A37000090F0AFA02FB03FA02F20AFA09FACED826
:10A380002A6903FA09F322EA0A0213432B61CBE795
:10A39000CA1FA1F10D0302EB82024FF01F0A03EB6B
:10A3A00083030C290AFA02F90AFA03F10CFA02F201
:10A3B00000F284802B6B23EA09031A4301462A63C7
:10A3C000C2E700BF284C0020300D0708404B00209A
:10A3D00000230140E030FCFF0020014080380100F4
:10A3E0002E7AFF1F2C7AFF1F2A7AFF1F019A0299EB
:10A3F000936843F400739360936843F480739360AD
:10A4000093683C4443F0010393601746022014F91B
:10A41000B52C49F0C1FA044600283FF469AF4668FC
:10A42000304649F033FB2A4A431E242101FB032313
:10A4300093F84C50002D7FF45BAF039983F84D10D7
:10A44000062283F84C2000283FF452AF304649F0F2
:10A450001DFB60F093FF60680BF088FD05A80BF012
:10A4600047FDB8F1010F8CBF4FF480630023A26851
:10A470000B933B46174801974C3305924FF4006706
:10A480004FF48072069307904FF4003360680A958A
:10A4900005A94FF40056CDE90E23CDE90C76CDE9A0
:10A4A00008580BF037FD6268019F136843F0010301
:10A4B0001360BB6843F08043BB6019E7EA6A0CFA9B
:10A4C00003F322EA010213430146EB623CE700BFBB
:10A4D00088010020844B00202DE9F84F2E4F00EB1F
:10A4E000800407EBC40454F8946C2EB1054614F8AC
:10A4F0007F0C00F0FF0820B14FF000084046BDE897
:10A50000F88F89469A46934643F0E4F94FEA4901A9
:10A510000123C9B204F87E1C04F87DBC04F87B3C1E
:10A5200004F87A8C04F87C3C04F87F3C04F8808CB6
:10A53000B28844F878AC9105814644F874AC1DD4D7
:10A540003388DA0510D442F20F7405E043F0C2F903
:10A55000A0EB0903A34215DC33889B05F6D43388AE
:10A560009BB243F480733380B3889BB243F440734F
:10A570004FF00108B3804046BDE8F88F984640464A
:10A58000BDE8F88F37F8203C01339BB2284627F806
:10A59000203C61F043FFB1E7284C00200128B5EED4
:10A5A000C00A10D0F1EE10FA0BDD9FED177ADFED47
:10A5B000177AE0EE077AFCEEE77A17EE903A98B257
:10A5C000704700207047F1EE10FA0BDD9FED107A16
:10A5D000DFED107AE0EE077AFCEEE77A17EE903ABC
:10A5E00098B27047EDD5F7EE007A30EE270A9FED6E
:10A5F0000A7ADFED0A7AE0EE077AFCEEE77A17EEE8
:10A60000903A98B2704700BF00E0F9440000404221
:10A6100000C079440000834400C079C400E0824453
:10A6200070B5464E16F81E4C04EB840306EB83030C
:10A63000A50013F81C3C032B6ED8DFE803F0592962
:10A640001E02254406EB850555F8180C002870D12C
:10A6500096F834309C425FD0013404F003029342F8
:10A6600006F81E2C58D002EB820406EB8404022369
:10A6700044F8180C04F81C3C70BD2B1906EB83033E
:10A6800053F8182C72B1013A43F8182C002070BD11
:10A690002B1906EB830353F8182C002AF3D102225E
:10A6A00003F81C2C254406EB850515F8103C013BEE
:10A6B000DBB205F8103C8BBB214B96F83460D3F825
:10A6C000701255F8140C621C02F003024B1E032496
:10A6D000B242034405F81C4CB3FBF1F045F8180CEA
:10A6E0001AD0994218D8013845F8180C012070BDCD
:10A6F00049F0DAFF80B1124B2C44D3F8702206EBFC
:10A700008404012102F51C5304F81C1C0F33B3FB15
:10A71000F2F344F8183C70BD012070BD084BD3F82B
:10A720007022012002F2E733B3FBF2F345F8183C44
:10A7300070BD013845F8180C002070BD284C002071
:10A74000880100202DE9F84F3249DFF8D4B091F8A4
:10A750002D1E01240229074619461046CBF82C402D
:10A760004FF000022C4C1D4618BF7F02FDF748FC3D
:10A770002A4B63626B02A362E36A40F2FF5943F023
:10A7800093034FF400704FF48A62E3620121C4F82E
:10A790003890A0601020E2605DF0FAFF012D40F2D9
:10A7A00051434E46C4F83890CA4640F252488EBFD4
:10A7B0004FF0120998464FF011090A25C4F838A045
:10A7C0000121A7604846C4F80C805DF0E1FF034614
:10A7D0004FF0000C40F2774201213720A6632BB9DD
:10A7E00000231846CBF82830BDE8F88FA663C4F8DC
:10A7F00008C0E2605DF0CCFF013DA6630028EFD009
:10A8000015F0FF05DAD10346CBF82C50CBF82830F1
:10A81000BDE8F88F303B0020002C014000E1F50539
:10A82000382A00202DE9F843DFF8748098F888581A
:10A83000042D0446894617461E4608D0082D02D02E
:10A840000020BDE8F883FEF78BFC0228F8D1012335
:10A850004A4620460021FFF775FF68B1FEF710FD5C
:10A86000D8F87048002CEBD00022D8F87438D8F80B
:10A8700068181046A047E3E7084BC8F86498DA6EFA
:10A88000C8F868480523C8F87078C8F87468C8F82C
:10A89000782888F888380120BDE8F883303B00200C
:10A8A000382A00202DE9F84F2F49DFF8C49091F89D
:10A8B0002D1E1E4602292D4B07464FF0010418BFDE
:10A8C0004702012E40F259481C6398BF4FF48B6831
:10A8D0003B469346474640F2FF55B0468CBF4FF08B
:10A8E000190A4FF0180A0A241E4640F2FF53C9F80D
:10A8F00038300121C9F808605046C9F80C705DF085
:10A9000047FF03464FF0000C40F277420121372009
:10A91000C9F83850A3B9584641460122FDF770FBEB
:10A920004646134A134B536276029662D36A43F04B
:10A930009103D3620D4B002108469962BDE8F88F60
:10A94000C9F83850C9F808C0C9F80C205DF020FFDC
:10A95000013CC9F838500028DDD014F0FF04C4D100
:10A96000024B1C63BDE8F88F303B0020382A0020E2
:10A97000002C014000E1F5052DE9F0473C4C82B088
:10A9800005460E461746984694F8880804280DD0C8
:10A99000082807D1D4F88038AB4207D0FEF7E0FB97
:10A9A0000228F1D0012002B0BDE8F087DFF8C8A08E
:10A9B000C4F86468DAF8249EC4F86858C9F34F21D3
:10A9C0000F294FEA592223D8D4F884380193FBB1D8
:10A9D00094F85609E0B1B9F5005F13D02548314627
:10A9E0004FF40072484465F029F809F50072C2F38B
:10A9F0004F211029CAF8242E4FEA522202D0019B7F
:10AA0000012B25D192B2013A1A4EAD1A0B4600E045
:10AA1000012332462846062601250021C4F8707815
:10AA2000C4F8748884F86C5884F88868FFF73AFF93
:10AA30000028B8D0FEF724FCD4F87068AEB12846E0
:10AA4000D4F87438D4F868180022B0470320AAE775
:10AA5000D4F88028013B01320421C4F88438C4F8BA
:10AA6000802884F8881802209DE703209BE700BF18
:10AA7000382A0020346E0020303B0020F0B52B4CEB
:10AA80002B4BD4F8B82012695168994283B048D052
:10AA9000A3F57843994246D003F58063994214BFE9
:10AAA0004FF0FF31022101312248234F49F0BCF918
:10AAB000D4F8B8302148D3F8A830C4F8C43007F12E
:10AAC000380207F14803C4E9522349F0E5F90026AA
:10AAD0000346314601AA1748A4F8C030ADF8046017
:10AAE000FDF756FE052043F0DDF81248ADF804608E
:10AAF00001AA3146FDF74CFE054620B19DF8053010
:10AB00001E2B03D03546284603B0F0BD0C4A0D4B32
:10AB100008480121C4E9292387F8581049F0D8FBD7
:10AB2000F1E70021BFE70121BDE700BFF8000010F9
:10AB300000300140B4010010284C0020809698009D
:10AB4000B5700608497806082DE9F04F0C68BA4D33
:10AB5000013BAC4283B09BB200F07881A5F58065E3
:10AB6000AC4200F0738105F58045AC425AD005F542
:10AB70008065AC4256D005F58065AC4252D0AF4EF0
:10AB80002588B76B7F08B7FBF2F6013EB6B2AAB2D2
:10AB9000B4F1804F0AD0AA4DAC4207D005F58065CC
:10ABA000AC4203D005F58065AC4202D122F07002C0
:10ABB00092B2A44DAC4200F02A8105F58065AC420A
:10ABC00000F0258122F4407205F56C4592B2AC424A
:10ABD0002280E362268540F04281002323860125FE
:10ABE000A5820B7A4A7913F0020600F0148100273F
:10ABF000DB0003F00803B84601973946BC46BE4661
:10AC00003D464FF480664FF0400A4FF0040B0C2A8B
:10AC100011D8DFE802F0C91010109910101021109F
:10AC200010106900854E2588B66BB6FBF2F6013E22
:10AC3000B6B2AAB2ACE70C2A3ED8DFE812F0DF00C9
:10AC40003D003D003D00AC003D003D003D003D00AD
:10AC50003D003D003D007C00218C7B4F21F4807144
:10AC60000904090C2184218CB4F80490A58B89B2C5
:10AC700025F0730521F400712D044CEA01012D0C1F
:10AC8000BC4241EA0E211FFA89F945F0600500F047
:10AC9000EB8007F58067BC4200F0E6800023A4F853
:10ACA0000490A583E3632184A38B23F008031B0492
:10ACB0001B0C43F00803A383B4F844306FEA43430A
:10ACC0006FEA53439BB2A4F84430238821469BB2D9
:10ACD00043F0010321F8343B00238D18C0E90054F0
:10ACE0008B5003B0BDE8F08F238C574923F4805379
:10ACF0001B041B0C2384238CB4F804C0A68B9BB2CA
:10AD000026F4E64623F40053360448EA0305360CDD
:10AD10008C4245EA0E3346F4C0461FFA8CF500F02B
:10AD2000AF8001F580618C4200F0AA800021A580EF
:10AD3000A68321642384A38B23F400631B041B0CD0
:10AD400043F40063A383B7E7258C3F4E25F010053D
:10AD50002D042D0C2584B4F820C0A788258B1FFA5C
:10AD60008CFC25F4E6452CF0200C2D0441EA0C0166
:10AD70002D0CB44241EA0E11BFB245F4C04500F0BB
:10AD80008E8006F58066B44200F089800023A7809B
:10AD90002583A3632184238B23F400631B041B0CF2
:10ADA00043F40063238387E7218C274F21F00101BF
:10ADB0000904090C2184268CB4F80480B4F8189096
:10ADC00026F0020629F0730936044FEA09494EEAD3
:10ADD0000501360C4FEA1949BC4241EA06011FFA47
:10ADE00088F849F060094FD0134DAC424CD0002395
:10ADF000A4F80480A4F8189063632184238B23F0C3
:10AE000008031B041B0C43F00803238354E7228030
:10AE1000E3622685E3E65B004FF4806103F0020EF7
:10AE20000191B2463346B3464FF480474FF4805801
:10AE300010214FF4807CEAE600040140382A00200B
:10AE40000004004000100040000001401A4E258818
:10AE5000B66BB6FBF2F6013EB6B2AAB2A6E6174B47
:10AE60009C423FF4BAAEBAE621F4006141EA032302
:10AE700023F4806129F44059314349EA08090DE778
:10AE800025F480453D4351E74FF6F3760E4028F414
:10AE90004078334348EA0C0843EA0B01A7E721F066
:10AEA000800141EA031323F04001019B27F440672E
:10AEB00041EA0A011F4369E7382A002000040140E3
:10AEC000F0B5214E96F8647083B0384643F016FE14
:10AED00096F88D40054644B1D6F89040241AB4FA4D
:10AEE00084F46409204603B0F0BD3846012259219C
:10AEF00040F0C0FD07460028F4D00123C6F890506A
:10AF000086F88D3015B140F25913EB80797A2846D6
:10AF1000FEF7DCFC38685EF019F90C4B0246A3FB27
:10AF20000213C3F30E35013DC3F3CF23ACB2013B93
:10AF30000094074839469BB2FDF7C2F80124F36F2D
:10AF400020461D6003B0F0BD284C0020D34D621098
:10AF5000A44C002070B5214DD5F8903193F82620EF
:10AF6000DAB11B699847E0B1D5F8903193F8242005
:10AF70008AB105F5CA7600241A19E0B29B6992F8E5
:10AF80002C10B6EC010A9847D5F8903193F824209C
:10AF900001349442F0DB5B69984795F8A431312B7A
:10AFA00000D070BD95F8A831002BFAD0D5F89031BB
:10AFB00093F82430042B1E46A8BF0426002BF0D0A3
:10AFC0000024074D234618465EF068FB0134E3B2C7
:10AFD0009E4245F8040BF6D870BD00BFF800001083
:10AFE000A402001003681A78012A01D000207047DB
:10AFF00093F90430044A03EB830302EBC30313F811
:10B000007F0CC0B2704700BF284C002010B50C4C1C
:10B01000D4F8D03E1B78022B10D1D4F8D80E44F0CF
:10B02000DDF8D4F8D80E08B12323C380012140F005
:10B030002DFF044848F030FFA4F8D40E10BD00BF27
:10B04000303B002080969800054BD3F8D02E127824
:10B05000022A03D1D3F8D80E48F046BD704700BF8E
:10B06000303B002030B583B00D46012301460DF181
:10B0700007020446074849F0AFF99DF8072035EA72
:10B08000020304D003482A43214649F033FA03B0AF
:10B0900030BD00BF004A002038B505460A460C46C0
:10B0A0000648294649F024F845F08001034848F055
:10B0B0001DFF231A5842584138BD00BF004A0020E6
:10B0C000F0B5374DD5F8D07E3E78022E95B00446C7
:10B0D0000B460FD0012E02D0002015B0F0BD97F91D
:10B0E000040095F8D41E00931346224661F016FC26
:10B0F00015B0F0BD396A0029EED1CDE90A320DF163
:10B100000F068DF80F00002201200023CDE9081161
:10B11000CDE90E2305918DF81C100D91109112911F
:10B12000049606908DF830008DF84400EFF31180FE
:10B13000102383F31288D5F8D03E1B6A13B3069B05
:10B1400004AC22461BB1D3691432002BFBD13B6AFD
:10B1500013B3996839B993420AD0196829B15B6869
:10B1600099680029F7D01433F3E70E4AC3E90024A5
:10B17000C0B280F31188D5F8D02E136A002BFCD111
:10B180000120AAE704ABC0B23B6280F3118805F549
:10B190006D6060F08FFDEEE7024A1A60FFDE00BFCF
:10B1A000303B0020004A002070B503681D78022D56
:10B1B00014D0012D01D0002070BD044693F9040085
:10B1C0000A4B421C83F89850F5D00228F3DC0A465B
:10B1D00098332179BDE87040FFF77EB91B6A002BD8
:10B1E000E9D1012248F084FF012070BD284C0020E5
:10B1F00013B53A4C0023D4F8A8208DF80730137803
:10B2000003F0FD01012905D194F8AC1011B90C210E
:10B2100084F8AC10022B1ED0032B2ED001220B2160
:10B220002F4857F0C1FB042042F03CFD2C4801237D
:10B230000DF10702002157F0D9FB002839D09DF805
:10B240000730482B35D1274BC4F89C30264BC4F827
:10B25000A03002B010BDD4F8B00043F0BFFFD4F866
:10B26000B00008B13423C380012140F00FFE1F4815
:10B2700048F012FEA4F8AC00D0E7D4F85835506876
:10B2800046F2A8111961002380F888301222372174
:10B2900057F05EFBD4F8A8300D225868242157F0EF
:10B2A00057FBD4F8A830302258686A2157F050FB79
:10B2B000B4E7D4F8A8301A78022A03D0032A07D0BA
:10B2C0000020C6E7D4F8B00048F00EFC0020C0E72C
:10B2D00058681022372157F03BFBF1E7284C00203B
:10B2E000D04C00204B2A0608CD2A060880969800EC
:10B2F00010B58CB000234CF20502044601A9CDE93B
:10B300000633CDE90833ADF800208DF80230032272
:10B310000B930123CDE903128DF814308DF82830FA
:10B32000CDF808D048F0CEFF204602A948F002FC34
:10B33000204648F0C7FF9DF806000CB010BD00BFC6
:10B340002DE9F041614C82B0242204F698000021DE
:10B3500065F0CEFA94F8C1780023C4F8BC38002F09
:10B360003CD15B4ED6F8D43063B39B6A53B3594893
:10B370009847836833B303885748013B9BB28446A0
:10B38000064600253178032906F106061ED0013550
:10B39000062DF7D100220178022900F1060000F005
:10B3A0008F800132062AF6D1D4F8BC18052909D0BD
:10B3B000481C02FB01C2C4F8BC0802200021938093
:10B3C00010705180384602B0BDE8F081062303FBBF
:10B3D0000545B5F89A38013B9BB2DBE794F8C00805
:10B3E00004F6C803C4F8C43810B9394E0027B9E7C9
:10B3F00043F084FBC4F8D00818B1837913F0BF0F71
:10B40000F3D13648394648F00FFD80460028ECD08D
:10B41000D4F8C4382F4A9868C3F8942008B122237E
:10B42000C380092140F032FDD4F8C438284E986812
:10B4300043F0D4FE2A48D4F8C45848F02DFD012327
:10B44000A8803220C6F8F45086F8F83042F02AFC82
:10B450000423D4F8C40800250DEB03029F210195B5
:10B4600048F0F2FD9DF805509DF804309DF8061057
:10B470002D0245EA03450D43294606F1D40056F056
:10B4800081FA08BB2846FDF755FAE8B99DF8065041
:10B490009DF805209DF807302D0245EA02451D4321
:10B4A000294606F1D40056F0CFF868B92846FDF7D2
:10B4B00041FA074640B994F8C00848F035FB51E717
:10B4C000062101FB02C278E747464BE7284C0020E3
:10B4D000303B0020043C0020C0540020F0540020E9
:10B4E000404B4C002DE9F04F0646044616F8010B80
:10B4F00087B0002800F04B838B46002509E015F04B
:10B50000EDF801353446264616F8010B002800F008
:10B5100088802528F3D16278302A00F0D780023461
:10B520000027A2F13001CBB2092B4FF000035ED906
:10B530006C2A7AD0782AE6D8572A64D9A2F1580121
:10B540002029E0D801A050F821F000BF09B8000878
:10B5500007B5000807B5000807B5000807B50008DB
:10B5600007B5000807B5000807B5000807B50008CB
:10B5700007B5000807B500084BB7000859B7000821
:10B5800007B5000807B5000807B5000807B50008AB
:10B5900007B5000807B5000807B5000807B500089B
:10B5A00007B5000843B7000807B5000807B500084D
:10B5B00007B5000807B50008DFB6000807B50008A2
:10B5C000B3B7000807B5000807B5000809B80008B8
:10B5D000BCF1050FACD8A2F137010A29A8D114F8A3
:10B5E000012B03EB830301EB4303A2F13001C8B24B
:10B5F0000928A2F16106A2F1410CF0D9052EE7D885
:10B60000A2F15701E9E762B1252A7FF47CAF264613
:10B61000252015F063F816F8010B013500287FF49A
:10B6200078AF284607B0BDE8F08F14F8011B7829E1
:10B630003FF669AF57294DD9A1F15802202A3FF6AC
:10B6400062AF01A050F822F01BB9000807B500084E
:10B6500007B5000807B5000807B5000807B50008DA
:10B6600007B5000807B5000807B5000807B50008CA
:10B6700007B500084BB700086BB8000807B500080D
:10B6800007B5000807B5000807B5000807B50008AA
:10B6900007B5000807B5000807B5000807B500089A
:10B6A00043B7000807B5000807B5000807B500084C
:10B6B00007B50008DFB6000807B50008C5B80008E0
:10B6C00007B5000807B500081BB90008A2780127D4
:10B6D000033426E70029A4D0252998D013E75BF886
:10B6E000048BB8F1000F00F04582464616F8010BB6
:10B6F000002800F04E82CBB1324600E0B3B112F820
:10B70000011B1F46013B0029F8D1023F73B1B94626
:10B71000202014F0E3FF4B46002B09F1FF39F7DC42
:10B7200098F8000027EAE773013340B101339F1B0B
:10B7300014F0D4FFF31916F8010B0028F8D11D44BA
:10B74000E1E65BF8043B1D60DDE65BF8040BC0B28C
:10B75000013514F0C3FFD6E6DBF800000028C0F284
:10B760005481EC46092806464FF0010209DD02EB40
:10B7700082025200B0FBF2F10929F8D8002A00F049
:10B780009181D248A0FB02E1B6FBF2F009288E4677
:10B7900000F1570900F130084FEAD10140F27981F8
:10B7A000092A0CF8019B02FB106640F27B810A46D5
:10B7B000E7E7DBF800C0BCF1090F4FF0010209D93F
:10B7C00002EB82025200BCFBF2F10929F8D8002AF0
:10B7D00000F0A6816E46B646BC48A0FB0281BCFBC9
:10B7E000F2F00928884600F1570A00F130094FEAC3
:10B7F000D10140F3B581092A0EF801AB02FB10CC50
:10B8000040F290810A46E7E75BF804CBBCF10F0FEA
:10B810004FF0010140F2D8810901BCFBF1F00F2883
:10B82000FAD8002900F0CB816E46B0460EE0582AC7
:10B830000CBF4FF0370E4FF0570E864401FB10CC73
:10B84000090908F801EB0CD0BCFBF1F00928EEDC8B
:10B850004FF0300E864401FB10CC090908F801EBCB
:10B86000F2D1002288F8002097E05BF8040B002852
:10B87000C0F28681EC46092806464FF0010209DD38
:10B8800002EB82025200B0FBF2F10929F8D8002A3B
:10B8900000F057818D48A0FB02E1B6FBF2F00928C9
:10B8A0008E4600F1570900F130084FEAD10140F20D
:10B8B0003F81092A0CF8019B02FB106640F241818E
:10B8C0000A46E7E75BF804CBBCF1090F4FF0010231
:10B8D00009D902EB82025200BCFBF2F10929F8D827
:10B8E000002A00F099806E46B6467848A0FB028197
:10B8F000BCFBF2F00928884600F1570A00F1300934
:10B900004FEAD10140F32181092A0EF801AB02FB75
:10B9100010CC40F283800A46E7E75BF804CBBCF129
:10B920000F0F4FF0010240F24D811201BCFBF2F00B
:10B930000F28FAD8002A00F03F816E465829314678
:10B940001DD007E002FB10CC120901F8018B22D0B8
:10B95000BCFBF2F0092800F1570800F1300EF1DCD1
:10B9600002FB10CC120901F801EBF1D113E002FB4C
:10B9700010CC120901F8018B0DD0BCFBF2F00928A4
:10B9800000F1370800F1300EF1DC02FB10CC120997
:10B9900001F801EBF1D100220A709DF80090002F10
:10B9A00014BF4FF030084FF02008B9F1000F00F03D
:10B9B000FE800DF1010211460BB91AE0CBB111F86E
:10B9C000010B1F46013B0028F8D1023F8BB1BA465C
:10B9D000404614F083FE5346002B0AF1FF3AF7DC91
:10B9E00027EAE7730133B9F1000F3FF4A8AE0DF178
:10B9F000010217469E1B484614F070FEBB1917F84B
:10BA0000010B0028F8D11D447DE52D2240428DF820
:10BA100000200DF1010CA5E66E46B64600228EF818
:10BA200000209DF80090002F14BF4FF030084FF019
:10BA30002008B9F1000F00F0B5800DF101021146A8
:10BA40000BB91AE0CBB111F8010B1F46013B0028DE
:10BA5000F8D1023F8BB1BA46404614F03FFE534640
:10BA6000002B0AF1FF3AF7DC27EAE7730133B9F15B
:10BA7000000F3FF464AE0DF1010217469E1B4846CD
:10BA800014F02CFEBB1917F8010B0028F8D11D4447
:10BA900039E5092A0CF8018B02FB10664FEADE013A
:10BAA0003FF685AE00220BF1040B8CF800209DF8C8
:10BAB0000080002F14BF30272027B8F1000F6DD071
:10BAC0000DF10102114623B91DE000BFCDCCCCCC55
:10BAD000CBB111F8010B1E46013B0028F8D1023E04
:10BAE0008BB1B146384614F0F9FD4B46002B09F1F5
:10BAF000FF39F7DC26EAE6730133B8F1000F3FF4B3
:10BB00001EAE0DF101026E4617469E1B404614F014
:10BB1000E5FDBB1917F8010B0028F8D11D44F2E42C
:10BB20006E46B64600220BF1040B8EF8002078E733
:10BB3000092A0CF8018B02FB10664FEADE013FF682
:10BB4000BFAE00228CF80020B1E7092A0EF8019B55
:10BB500002FB10CC4FEAD8017FF660AF0A46C4E67C
:10BB6000092A0EF8019B02FB10CC4FEAD801D9D963
:10BB70000A4631E6DFF85480282008F10106BAE5CC
:10BB80002D2240428DF800200DF1010C73E6054690
:10BB900047E55F1E002B7FF4BAADB4E45E1E002BB8
:10BBA0009FD1B0E45F1E002B7FF455AFABE45F1E66
:10BBB000002B7FF40CAFA6E46E463146EBE66E46F2
:10BBC000B0464EE66046B8E660462DE6D09B0708D4
:10BBD0002DE9F041C54BC64EC64DC74C0822C3F8EF
:10BBE0008820336B82B043F00103336307464FF480
:10BBF000C052284640F2023388466946CDE9002308
:10BC00000AF056FB6B6AC4F8448F23F470436B62EE
:10BC10006B6AC4F84C7F43F420436B626B6AB7498C
:10BC2000C4F8481F23F470236B626B6AB448C4F8ED
:10BC3000600943F420236B62736CB249C4F8641941
:10BC400043F480437364736BAF48B049C4F8700920
:10BC500043F0800302257363AD4F84F86859AD4EFD
:10BC6000AD4DC4F8B4194FF0A043C4F86C39AB4AD9
:10BC7000C4F87C7903F53463A1F5D071C4F8B859E0
:10BC8000C4F88069C4F8BC39C4F884190123DFF80A
:10BC9000BCC2C4F878C907F51077A5F5E465A6F528
:10BCA000A066A1F58C61C4F8C079C4F87459C4F8D1
:10BCB0002C6A84F86B3905F5A075536106F5B076EA
:10BCC000C4F8F01984F8723A1946954B954AC4F8AD
:10BCD000F859A7F5BC67A035C4F8046A924EC4F8B9
:10BCE000007AC4F8083A07F5D45703F56953C4F845
:10BCF0000C5A4FF050250020DFF854E2C4F8302AE7
:10BD0000ACF5687C02F5A042C4F8347AC4F8386A0D
:10BD100007F5A04706F5A046C4F83C3AC4F8405AD7
:10BD2000A3F5485304F51665C4F8442AC4F84C6AD0
:10BD3000C4F86C3AC4F8F4E9C4F8FCC90246C4F883
:10BD4000487A2B4684F8740A402683F81C21A3F80D
:10BD500022210132042AC3E9496083F81D1183F8C6
:10BD60001F01C3F8300103F12803EED10022114670
:10BD70002B46402083F87423A3F87A230132042A47
:10BD8000C3E9DF0183F8751383F87713C3F88813C9
:10BD900003F12803EED14FF0A04364489A6822F0E3
:10BDA00001029A60DA6842F04002DA6009F03EFB74
:10BDB00094F869390022212161F317420BB142F452
:10BDC000801294F86319D4F86C3901299A6300F051
:10BDD000E480DA68D4F86C6AD4F87009C2F30761B9
:10BDE00021F0600141F0400161F31F620021DA603F
:10BDF0003160026861F3CC22026094F86B29012A59
:10BE000000F0B88010214A4809F062FE484809F065
:10BE100045FED4F8700994F8613900224FF0FF31E3
:10BE2000026142618161C26153B305F11407414E61
:10BE3000114607EB83074FEA830C4FF0FF0E56F8CD
:10BE4000042F1368002BACBF00234FF09043B74280
:10BE500013601161C2F808E0F1D105F150033649D1
:10BE600063440027FF2651F8042F1568002DACBF4E
:10BE700000254FF090459942156017619660F2D108
:10BE8000036994F8631943F480730129036161D055
:10BE9000D4F86C2929480023936100294FF0FF331F
:10BEA0006FF0804151615360516114BF0023102332
:10BEB000906143F470139069D4F8481F43F46053C1
:10BEC00043F00803034393619368096843F0010357
:10BED000936088471A4B1B4ADA6068461A4B0093F6
:10BEE000FDF734FB02B0BDE8F08100BF00E100E0E7
:10BEF0000038024000000240284C0020FC030020D3
:10BF0000080401004000400100080050000B0050F0
:10BF10002009005040090050200B0050003C014017
:10BF2000C005005000100050003000509455002013
:10BF3000885500209C550020D8550020000800801E
:10BF400000ED00E00005FA05430200010009005081
:10BF500020050050D4F86C29144B03636FF0804126
:10BF6000134D00234FF0FF309361516150605161D8
:10BF700095619EE701680F4A0F4E41F00301016091
:10BF8000802159629E62C3F80421E022C3F808218F
:10BF9000C0F24002C3F80C2134E79A6822F03E0157
:10BFA00041F02A0161F307029A6012E70301810060
:10BFB00000080080A00040008000200010B51A4C4E
:10BFC00094F8550FC0B9194B83F8B508C3F8B808F1
:10BFD00094F8583F012B05D0022B21D0D4F85C3FB8
:10BFE0001BB910BD124BC4F85C3F12495B68BDE839
:10BFF0001040A1F10C00184742F080FD94F8572F33
:10C000000A49003A18BF012281F8B528C1F8B808DA
:10C010000028DDD02122C28020213FF037FFD7E762
:10C02000054BC4F85C3FE0E7284C0020382A00208C
:10C030003C040020885B00201804002099B10A6BA2
:10C04000824216D9154BD3F89C2F914221D35C39EB
:10C0500091421ED30B6B9842F9D38B6B9842F6D862
:10C060000B46184670470D4BD3F89C1F0A6B904245
:10C0700012D30B680BB9F4E70A6B90420B4602D35C
:10C080008A6B9042EDD951F85C3F002BF4D11846F1
:10C0900070470023184670470A46D8E7284C00200E
:10C0A0002DE9F047CC0143D10346224A43F8082B3F
:10C0B0004FF0FF324260022418467E26DFF8788077
:10C0C000D8F8A09F2644013E051D49466FF07047F1
:10C0D0004FF0010A08E0A3421CD0631C45F8043C61
:10C0E000321B1C460435CAB10B6BA34202D88B6BC2
:10C0F000A34204D22046FFF7A1FF014690B10A797E
:10C100004B6B002AE7D1A34204D0E6D245F8042CB9
:10C11000631CE5E745F8047C631CE1E7C8F8A01F51
:10C12000BDE8F08745F804AC321B631C4946D8E7EC
:10C130008026C3E7F8FFFF0F284C002070B4447935
:10C1400041BB03684FF400524FF4007620250221D2
:10C150003CBB1A8C22F001021204120C1A841A8BB6
:10C16000188C22F0F30280B2120420F00A00120CA4
:10C17000014342F0010241F001011A8319841A8B34
:10C1800022F00C021204120C1A831A8B92B270BCA9
:10C190001A83704700220368164615461146002C84
:10C1A000D7D0042C21D0082C38D0198C21F4805100
:10C1B0000904090C19849C8B1D8C45F6FF7040F610
:10C1C000FF4128402140024342F4805241F48071F3
:10C1D00099831A849A8B22F440621204120C9A8377
:10C1E0009A8B92B270BC9A8370471A8C22F010021C
:10C1F0001204120C1A84188B198C89B240F6FF4273
:10C2000021F0A00102400D4342F4807245F0100578
:10C210001A831D841A8B22F44062B3E71A8C22F42D
:10C2200080721204120C1A84998B1A8C21F0F3017B
:10C2300092B2090422F42062090C324342F4807263
:10C2400041F0010199831A849A8B22F00C02C4E711
:10C2500010B50446006809F02FFF0C4B9A6B20467E
:10C2600052084FF6FF713FF031FA20460021FFF7E8
:10C2700065FF0749074BC1F80C3D20460022BDE889
:10C28000104001F60C513FF09FB900BF382A002042
:10C29000303B00209DB201080E4A10B50E4CC2F88A
:10C2A000BC4F0E4CC2F8B44F00230D4CC2F8A80F7F
:10C2B000A2F8AC1FC2F8B03FA2F8AE3FC2F8B84F28
:10C2C00082F8C03F282202FB03F403530133994252
:10C2D000F9D110BD284C002040420F0020A10700DA
:10C2E000A01CE9FF10B5104C104BC4F8C43F01214D
:10C2F000002304F6C47084F8D03F84F8D33F84F858
:10C30000D53F0FF071FCD4F8C43F5B6C0121FF22D4
:10C3100084F8D11F84F8D22F23B104F6C470BDE88D
:10C320001040184710BD00BF284C0020480D0708DA
:10C330000449054A054B8360C0E900120C3050F0F7
:10C340008DBE00BF5DD0050845B40508F1B30508F2
:10C3500004490023C1F8D83FC1F8DC3FC1F8E03FF1
:10C36000704700BF284C0020034B0022C3F8E82F81
:10C37000C3F8E42F704700BF284C00202DE9F04F90
:10C38000B44CB54AB4F8D011B4F8CE312DED088BC9
:10C3900007EE901A0AEE903A92F8ED3FDFEDAFBA51
:10C3A0009FEDAFBAB8EE67AA07EE903AB2F8EE3F4B
:10C3B000F8EEE77AF2EE046A0A2B87EEA67AB8BFA7
:10C3C0000A2385B004F6842704F66C6A04F68466B2
:10C3D00004F5AC5B07EE903AB2F8F03F87ED007AD7
:10C3E00008EE103AF8EEE78AB8EEC88AB6EE009A80
:10C3F000F4EE488A2AEE090AF1EE10FAC8BFB0EE50
:10C40000688A92F8EC3FC7ED018AB4EEC80AF1EEF3
:10C4100010FAD8BFB0EE408A082B4FF00002A8BF38
:10C420000823B1F57A7F38BF134680EE080AC4F8B6
:10C43000942AC4F8903A87ED028A61F075FDF7EE10
:10C44000009AB4EE690AF1EE10FA48BFB0EE690A3C
:10C45000FDEEC07AF8EE6AAAB8EEE77A17EE905AC7
:10C46000CAEE8A7A04F65C63C4F8585EDFED7DAAF2
:10C4700067EE877AC9EEA76ADFED7B7AC3ED006AC3
:10C48000CAEE076A04F5666386EEA7AA88EE8A0AF2
:10C4900083ED00AA61F0C8FD0228B8BF022088EE33
:10C4A0000A0A8046C4F8640E61F0BEFD2328A8BFC6
:10C4B0002320B8F1230FA8BF4FF023084045C4F84C
:10C4C000680EB8BF4046A0EB0802012DDAED007AF5
:10C4D0009FED668A66498146B8BF01250132F5EEB7
:10C4E000407AF1EE10FA2BD16248019500230296B2
:10C4F0001D46064607EE905AB8EEE7AA03922AEECA
:10C500002BAA0135B0EE4A0A61F0C6FCF0EE408A73
:10C51000B0EE4A0A61F05AFEE0EE088A242D544932
:10C52000039A68EEAA8A20EE2A0AC6ED008A86EDF2
:10C53000010A06F10806DDD1DDE90156F0EE4B7A7D
:10C54000002346E9053892FBF5F046F80C9C46F8C6
:10C55000080C46F8045C30460133482BA0EC018AF5
:10C56000FAD1D1F858E1D1F85CC106F590730020FA
:10C5700001302428C3F800E0C3F804C003F1080325
:10C58000F6D106F515765E45A9D1DFF8F090DFED1E
:10C590003A8ACAED007A0026BD19CA464FF0000853
:10C5A000D4F8903A984548DA07EE908A97ED016AF8
:10C5B000F8EEE76AD7ED027A36EE897A77EEC67A38
:10C5C00067EE877A07EE103AB8EEC77AB4F8CE3144
:10C5D00087EE870A30EE060AB5EEC00AAAEC010A19
:10C5E000F1EE10FA97ED001A85ED208A85ED1F8A8D
:10C5F00085ED1E8A85ED1D8A11DD83B1A6EEA81A90
:10C60000B5EEC01AF1EE10FA09DD07EE903A0421FA
:10C61000F8EE670A05F1740054F0C6F909E0C5EDBB
:10C62000219A85ED228A85ED238A85ED248A85ED80
:10C63000258A08F101082435B2E706F59076B6F5AB
:10C64000587F09F12009A7D105B0BDEC088BBDE8E2
:10C65000F08F00BFF8000010284C0020C3B8B23D96
:10C66000BC297E3F72F97F3F00009042000000002D
:10C67000380C070864160010CDCC4C3E900B00100F
:10C680002DE9F04F2DED028BDFF8D4816D4CDFF8F2
:10C69000D4A1DFED6D8A9FED6D8A85B00127FEB2D2
:10C6A00018F8010B324657213FF0E4F905460028FF
:10C6B00000F09E80D0F800B0A0600123BBF1804F55
:10C6C00004F8303C00F09F80614B9B4500F09B805C
:10C6D0000023584604F82F3C5CF038FD07EE900A22
:10C6E000F8EE677A4FF4807344ED0A7ADFF87891B8
:10C6F00044F8103C4FF400520023584644E9062306
:10C7000044F8083C5CF022FD99F8FA3F44ED088AB1
:10C7100007EE903AAAFB0030F8EE677AC3080122D0
:10C7200018F8010C44F80C3C04ED0B8A44ED097A2E
:10C7300024F81C2C24F81A2C42F0E0F9E06010B127
:10C740005723C671837199F8F83F012B78D0022BDB
:10C750000CBF422102216A7A42F0BCFA28685CF0E0
:10C76000F5FC01462846FCF713FF14F82F3C002B7C
:10C7700058D02146374B41F8043D002228463EF070
:10C7800023FF99F8F93F2868002B4FF0010914BFE7
:10C7900000230223CDF80890ADF8063004236A790F
:10C7A000ADF804200DEB0301ADF80C3009F07AFA76
:10C7B00054F8103CA2682849126891F89416013E7A
:10C7C000013B9BB2F6B213854FF0FF3500234FF4C7
:10C7D0000050B142D562A2F8149044E9060324F84F
:10C7E0001C9C24F81A9C44F8083C01D13EF09AFCA9
:10C7F0000137052F04F140047FF451AF05B0BDECC3
:10C80000028BBDE8F08F4FF00109584604F82F9CC9
:10C810005CF09CFC07EE900AF8EE677A4B4644ED1C
:10C820000A7A63E70D48DFF844C044F8040C224656
:10C83000211F28466360C4F800C03EF0C5FEA0E793
:10C84000222188E7B417001000401C4600000000B9
:10C85000000C004011A80408F011001039A90408C8
:10C860001C5C00201F85EB51284C002049B10408B6
:10C870000D4B0E4841F2140141F20402595830B4F4
:10C880000B4D0C4C9D508A1E223134F8D83C1B01B4
:10C89000A0FB0353DB08A3F5B06322F8023F9142EB
:10C8A000F3D130BC704700BF284C0020CDCCCCCC9D
:10C8B000C5960208205D0020F0B541F21403284D12
:10C8C000284CEC5085B00646FFF7D2FF41F2080233
:10C8D0001A2141F20C0385F8FE1F2349A95040207C
:10C8E000224AEA503DF008F8002836D094F83D304E
:10C8F00094F83E5094F83F7090F904001C4A002EC2
:10C9000014BF4FF4E1314FF4E121002B14BF022397
:10C910000023002D14BF30250025002F18BF43F041
:10C9200001032B430325CDE901530091002340214E
:10C930003DF043F8C83444F8740C48B10D480CF08D
:10C940002DFC14F86F3C04F8700C0BB904F86F5C04
:10C9500054F8740C003818BF012005B0F0BD00BFBA
:10C96000284C0020585C0020E54002084548020899
:10C97000F11B02088D4A020830B5402085B03CF01A
:10C98000BBFF38B3154C90F9040014F88B1C14F855
:10C990008A3C14F8895C124A002914BF0221002144
:10C9A000002B14BF10230023002D18BF41F00101FC
:10C9B0000B4303254FF4E131CDE9015300910023EE
:10C9C00040213CF0FAFF44F86C0C08B1054B43637E
:10C9D00005B030BD014B43F86C0CF9E7205D002039
:10C9E00069200208B11F020870B5084C251D2E46AB
:10C9F00014F8010B33F07AFB28B1037905F8013BF9
:10CA0000B442F5D170BDFF23F8E700BFB85C002049
:10CA10002DE9F0471D4F012607F10805B2464FF0FA
:10CA20003B094FF0000817F8010B42F067F8044685
:10CA300090B180F80690C671FB7803F07F02012A5E
:10CA400018D013F0800F20460DD185F8048042F0F5
:10CA5000BFFB85F805802C600136052E05F1080521
:10CA6000E1D1BDE8F08785F804A042F0B7FB85F876
:10CA700005A0F0E71B0605D4012120463FF006FA89
:10CA8000FB78DEE742F0AAFBF6E700BFC05C0020BF
:10CA9000174BA3F1140210B443F8202CEFF31181CB
:10CAA000102282F312880022DA62C9B21A6383F874
:10CAB000342083F8382081F3118893F8512093F8BB
:10CAC0005210D863002A14BF02220022002914BF8A
:10CAD000302100210A431220064C83F84800064901
:10CAE00083F840205C6401205DF8044BD9647047F2
:10CAF000205D0020AD9103083D950308114A124BBB
:10CB000092F88E1007EE901AF8EEE77AF2EE046AC9
:10CB100087EEA67A92F88F10B2F8902007EE901A5E
:10CB2000DFED0A6A83ED017AF8EEE77A87EEA67AFE
:10CB300007EE902AF8EE677A83ED027AC3ED037A66
:10CB4000704700BF205D0020881800100000C84218
:10CB50002DE9F843E84CDFEDE92AB4F85820B4F8A1
:10CB60007230DFEDE71A9FEDE72A01EE102AB4F8E4
:10CB70005A2007EE102AB4F85C2007EE902AB4F889
:10CB80005E2003EE102AB4F860202DED088B03EE32
:10CB9000902A08EE103AB4F86220B4F87430DFED51
:10CBA000DAAADFEDDABA9FEDDABA9FEDDAAADFEDA5
:10CBB000DA9A09EE103A04EE102AB4F87630B4F896
:10CBC000642008EE903A04EE902AB4F85430B4F899
:10CBD000662000EE103A05EE102AB4F85630B4F88C
:10CBE000682000EE903A05EE902AB8EEC88AB8EEBA
:10CBF000C99AF8EEE88AB8EEC00AF8EEE00AB8EE94
:10CC0000C11AB8EEC77AF8EEE77AB8EEC33AF8EE92
:10CC1000E33AB8EEC44AF8EEE44AB8EEC55AF8EE84
:10CC2000E55ABE4BB4F86A2028EE2A8A27EE217A0C
:10CC300067EEA27A65EE8A5A29EE2A9A68EEAA8AE7
:10CC400020EE2B0A60EE8B0A21EE221A23EE2B3AFD
:10CC500063EE8B3A24EE024A64EEA14A25EE225A94
:10CC600003F5017506EE102A85ED248AB4F86C20D0
:10CC700093ED018A85ED037AC5ED047A85ED259A59
:10CC8000C5ED268A85ED000AC5ED010A85ED021A7B
:10CC900085ED053AC5ED063A85ED074AC5ED084A2A
:10CCA00085ED095AC5ED0A5AB4F86E3007EE103A10
:10CCB000B4F8703006EE902A07EE903AB8EEC66AE5
:10CCC00094F8813026EE296A05EE903AF8EEE66A8D
:10CCD00094F8823085ED0B6A66EE826A06EE103AB1
:10CCE00094F88330C5ED0C6AB8EEC77A06EE903A38
:10CCF000F8EEE77A27EE217A67EE827AF8EE655A47
:10CD0000B8EE466AF8EE666A94F8783085ED0D7AEA
:10CD1000C5ED0E7AC5ED2A5A85ED2B6AC5ED2C6A54
:10CD2000002B00F0E58007EE903AF8EEE77AF2EE9D
:10CD3000046A86EEA77A94F8793085ED287A002B7C
:10CD400000F0D38007EE903AF8EEE77A744EDFF801
:10CD5000E881C5ED297AA6F19C074FF0000957F844
:10CD6000043C384609F101093037F0EE480A33B186
:10CD700098F8062000EE102AB8EE400A984718F8F6
:10CD8000013B00EE103A3046B8EE400AF0EE480A99
:10CD900053F056FF98F8023000EE103A06F13000DA
:10CDA000B8EE400AF0EE480A53F04AFFB9F1030F1B
:10CDB00006F11006D3D194F87A205A4B83F85829FB
:10CDC000002A00F08E80DFED587A9FED587AB5EE9C
:10CDD000C08AF1EE10FA68EE277A28EE077A40F35F
:10CDE000AD8094F87E20002A00F0D280642AA8BF8B
:10CDF000642206EE902AF8EE666AF4EEE67AF1EE28
:10CE000010FA98BFF0EE676A37EE265AB7EE006A5E
:10CE1000C6EE855A94F87B2094F87F10F4EEC65A3B
:10CE2000F1EE10FA88BFF0EE465AFA2AA8BFFA22AD
:10CE30000A2AB8BF0A22C5ED525A83F8592931B1DE
:10CE40006429A8BF642106EE901AB8EE666AF4EE73
:10CE5000C67AF1EE10FA98BFB0EE676A37EE065A5E
:10CE6000F7EE006AC6EE055A94F87C2094F880101C
:10CE7000F4EEE65AF1EE10FA88BFF0EE665AFA2A9E
:10CE8000A8BFFA220A2AB8BF0A22C5ED545A83F86D
:10CE90005A2931B16429A8BF642106EE901AF8EE30
:10CEA000666AF4EEE67AF1EE10FA88BFF0EE667A82
:10CEB00037EE277AB7EE006AC7EE876A94F87D20CE
:10CEC000F4EEC66AF1EE10FA88BFF0EE466AFA2A6E
:10CED000A8BFFA220A2AB8BF0A22C5ED566A83F80B
:10CEE0005B29BDEC088BBDE8F883DFED117A2DE7F7
:10CEF0009FED107A1FE700BF205D002095BFD6335D
:10CF000017B7D137BD3786350AD7233C2CB2DF3669
:10CF100017B7513964CF8B386F12033AA818001035
:10CF2000081C0010F01100103333F33E83F9223E49
:10CF30000000614500000000A45D002094F87B0023
:10CF400094F87C1094F87D20FA28A8BFFA20FA29DA
:10CF5000A8BFFA21FA2AA8BFFA220A28B8BF0A20D5
:10CF60000A29B8BF0A210A2AB8BF0A2283F8590938
:10CF700083F85A1983F85B29BDEC088B4FF07E5477
:10CF8000C5F84841C5F85041C5F85841BDE8F88397
:10CF9000F7EE006A31E700BF2DE9F84FAA4EDFF83F
:10CFA000D8B2DFF8D8A22DED0C8B06F51070542204
:10CFB000002163F09DFC96ED01DADFEDA47ADFED50
:10CFC000A46A9FEDA49ADFEDA4CA9FEDA4CADFED89
:10CFD000A4BA9FEDA4BADFEDA4AA6DEE277AB7EE4E
:10CFE000007AF4EEC77AF1EE10FA88BFF0EE477AD5
:10CFF000B0EE676AADEE266A06F501740025C7EE4D
:10D000000D9AA14606F531780BF10307C7EE86DAD3
:10D010002DEE099AF4EEC7DAF1EE10FA3DEE0DAA04
:10D0200088BFF0EE47DA9BF8063048F80CAC00EE0B
:10D03000103A8E4B48F8083C8D4B48F8043CB8EE4B
:10D04000400AF0EE4D0A404650F066F91BF8013BED
:10D05000C4F86051C4F85C5123B1B5EEC0DAF1EE0A
:10D0600010FA3EDC9BF80230C4F86451C4F86851F1
:10D07000C4F89051C4F88C5123B3B5EEC0DAF1EE88
:10D0800010FA00F3D780C4F89451C4F89851F7EE21
:10D09000007AC9F844515F45C9ED527A08F1300869
:10D0A00004F1100409F10809BDD1D6ED017AF5EEBD
:10D0B000C07AF1EE10FA40F2B980BDEC0C8BBDE8FD
:10D0C000F84F45E5B5EEC0DAF1EE10FAC4F8945128
:10D0D000C4F89851C9F8445140F3B380F0EE6D7A2A
:10D0E000D9E707EE903AB8EE677A39EEA98AB4EE3E
:10D0F000C97AF1EE10FA88BFB0EE497A67EE088A75
:10D10000B0EE680A61F03CF838EEC07AB0EE6A6AB8
:10D1100067EE076AF0EE4C7AA6EE8B6AC4F890517F
:10D12000C4F88C51E6EEAC7ADFED525AE6EE865A40
:10D13000B0EE6B6AA6EEA76ABDEEC00AF0EE467AC4
:10D14000B7EE006AA6EEA56A10EE103A27EE277A2F
:10D15000DA0744BFB1EE466AC6EE076A9BF80230B2
:10D1600058BFC7EE066AB7EE007A76EE877A36EEDB
:10D17000C77A66EE8A6A87EE276A86EEA77A84ED1A
:10D18000596A84ED5A7A002B49D007EE903AF8EEAE
:10D19000677AF4EEC97AF1EE10FA88BFF0EE497AB8
:10D1A00027EE888AB0EE480A60F0EAFF78EE407A0F
:10D1B000F0EE6A5A27EEA77A9FED2E6AE7EE0B5A39
:10D1C000F0EE4C6AE7EE2C6AA7EE256AF0EE6B5A99
:10D1D000E7EE265ABDEEC00AF7EE006AE7EE066AF1
:10D1E00010EE103A67EEA57ADB0746BFF1EE666AED
:10D1F00086EEA77A87EEA67AF7EE007A77EE276AB0
:10D2000077EE677A27EE0A7A87EEA66AC7EE267A65
:10D2100084ED656AC4ED667AC9F844515EE7C4F8E6
:10D220009451C4F89851C9F8445157E7BDEC0C8BA0
:10D23000BDE8F88F07EE903A39EEA98AF8EE677AE2
:10D24000A7E7F7EE007A26E7A81800103333F33E7D
:10D2500083F9223E3333733E15109F3D624D25BF47
:10D26000990FC93FF454A7BCB1D8813EC1B305089A
:10D2700021D40508D1E99DBFA45D002019D305087C
:10D280003D4BB3F8CE3107EE903A2DE9F041FAEE7E
:10D29000EF7A2DED048BB4EEE70AF1EE10FADFED34
:10D2A000378AB0EE408AF0EE419A06DDF4EEE70AE6
:10D2B000F1EE10FA4BD5B0EE678AB5EEC08AF1EE0A
:10D2C00010FA49DDF5EEC00AF1EE10FA44DDF4EE95
:10D2D000C80AF1EE10FA3FD560EEE07A20EE887AC7
:10D2E000E8EE087A87EE279A254E264FDFF89880D9
:10D2F000044600F19005C4E901872660B5EEC08AB6
:10D30000F1EE10FAC4ED068AC4ED058AC4ED048A74
:10D31000C4ED038A23DDF5EEC09AF1EE10FA1EDDAE
:10D32000B5EEC09AF1EE10FA19DD0421B0EE491AFB
:10D33000F0EE690AB0EE480A04F10C0053F034FB39
:10D340003034AC42D7D1BDEC048BBDE8F081B0EEF7
:10D35000688AB0EE689AC7E79FED089AC4E74FF075
:10D360007E53E361C4ED088AC4ED098AC4ED0A8ADC
:10D37000C4ED0B8AE4E700BFF800001000000000D5
:10D380008DB40508F1B3050845B405080A44914277
:10D3900015D030B441F2210511F8014B082380EA81
:10D3A000042010F4004F85EA40040ABF4000A0B2F8
:10D3B00080B2013BF5D18A42EED130BC7047704754
:10D3C00070B5654C654DD4F89C30D4E925122DED2F
:10D3D000068B41EA02000126184384B085F8D86222
:10D3E0006FD009B209EE101A12B2DFED5D7A1BB2EE
:10D3F000B8EEC99A08EE902A08EE103A29EE279A5C
:10D40000F8EEE88AB8EEC88A0023B0EE490A85F83B
:10D41000D83268EEA78A28EE278A60F03DFDF0EE4C
:10D42000407AB0EE490AB0EE679A60F0CFFEB0EEF7
:10D4300040AAB0EE680A60F02FFDF0EE407AB0EE40
:10D44000680AF0EE678A60F0C1FEF0EE409AB0EE36
:10D45000480A60F021FDF0EE407AB0EE480AB0EEE6
:10D46000678A60F0B3FE69EE085A29EE006A6AEE38
:10D47000006A2AEE087AB0EE655AA9EEE65AE9EE9D
:10D48000E56AF0EE465AE9EE875AA9EE867A60EE32
:10D49000687A29EE289A28EE888A68EECA8AC4ED4E
:10D4A000359A84ED375AC4ED396AC4ED347A84ED87
:10D4B0003B9A84ED338AC4ED388AC4ED365A84ED44
:10D4C0003A7AD4F8A030012285F8D92233B9B4F9D8
:10D4D000A4302BB904B0BDEC068B70BDB4F9A430F8
:10D4E000B4F9A000B4F9A2201E4C9FED1D6A1E499C
:10D4F00084FB00C6C017C0EBA60084FB02C684FBF9
:10D5000003C4D217DB17C2EBA602C3EBA40312B20B
:10D5100000B21BB207EE102A06EE900A07EE903A10
:10D52000F8EEE66AB8EEC77AF8EEE77A66EE866A53
:10D5300027EE067A67EE867A002301A8CDED016A10
:10D540008DED027ACDED037A85F8D93253F08CF85F
:10D5500004B0BDEC068B70BD205D0020880100206A
:10D5600035FA8E3C67666666C85D00202DE9F0419D
:10D57000204E214F96F8F33087F89C3FF03607F5A0
:10D580007A6500244FF0050816F8010B20BB2860CF
:10D590000134032C05F10405F6D197F89C1FD7F848
:10D5A000A00FC94301F0010141F01EFE97F89C1F36
:10D5B000D7F8A40F81F00201C1F3400141F014FE3D
:10D5C00097F89C1FD7F8A80F81F00401BDE8F0413F
:10D5D000C1F3800141F008BE41F090FA013401210D
:10D5E0002860E3B210B180F80680C37128683EF06D
:10D5F0004DFCCEE7205D0020303B0020036870B575
:10D600005E6A26B133462522BDE8704018470446BD
:10D610000D4601F1250600E023689B6820469847E7
:10D620000028F9D0236815F8011B1B68204698478D
:10D63000B542F1D170BD00BF036870B55E6A26B116
:10D6400033461922BDE87040184704460D4601F1E3
:10D65000190600E023689B68204698470028F9D007
:10D66000236815F8011B1B6820469847B542F1D185
:10D6700070BD00BF2DE9F041284C294DB4F8F86089
:10D68000A5F8AC6F82B0EEB994F8F40041F036FA28
:10D6900094F8F520C5F8B00F003A18BF012285F8BC
:10D6A000AE2F48B194F8F6102C22002914BF112196
:10D6B0000121C2803EF0EAFB002002B0BDE8F0414B
:10D6C00041F0F0BD94F8F480002240462C213EF059
:10D6D000D1F90746404641F011FAD8B1D7B12C2212
:10D6E000C5F8C80FC280797AFCF7F0F80D4AB2FB92
:10D6F000F6F3C3F34F0000909BB2394605F6B470C1
:10D70000A4F8FA60FAF7DCFCD5F8B42F0023136014
:10D7100085F8C53F02B0BDE8F08100BF205D002064
:10D72000303B002040420F002DE9F84F244C94F884
:10D73000083184F8FC3004F1FF07002604F58E74EC
:10D740005FFA86FB0BF101085FFA88F8012117F8F0
:10D75000010F42460E448A463EF08CF94FF0000914
:10D76000054638B3387804F80E9C04F80D9C04F88C
:10D770000FBC04F810AC44F8045C41F0BFF918B1D8
:10D7800080F806A080F80780697AFCF79FF80D49B9
:10D790002846FBF7FDFE0C4B23600C4B221D214657
:10D7A0002846C4E901393DF00FFF697928684A46E7
:10D7B0002EF056FE082E04F11C04C1D1BDE8F88FEE
:10D7C000205D002040420F0099C4030869540308FB
:10D7D00070B52B4C2B4B94F83402C4F82C32002239
:10D7E0000221C4E97B22C4F8F421C4F82822A4F859
:10D7F00030223EF03FF9002834D0234B066805461E
:10D8000003F170015A7C12B15A6896422BD01C3336
:10D810008B42F7D1002394F83402C4F8185184F8ED
:10D820000C3141F06BF908B10223C380697AFCF72F
:10D830004DF828461549FBF7ABFE154A1549C4F8C3
:10D840001C110026111F2846134BC4F82031C4F8C0
:10D8500024613DF0B9FE697928683246BDE8704020
:10D860002EF0FEBD70BD30465BF070FC328D0B4972
:10D8700092B2531CB0FBF3F081F8DA02CAE700BFA2
:10D88000205D002000FFFF002801001040420F0033
:10D89000405E0020915403082D56030888010020A3
:10D8A0002DE9F04FC24D95F80A710A2F85B08346D5
:10D8B00033D8012404FA07F240F2EF531A422CD075
:10D8C000DFF8F8827B1F032B88F8684B30D90023E0
:10D8D00088F8D83AFBF7B8F8B64EC6F89001D6F8F3
:10D8E0009031002B00F093800022012183F824B0B6
:10D8F00083F8251083F826209A62BBF1000F09D027
:10D900002C33AD4A03EB0B0012F8011B03F8011B8B
:10D910009842F9D105B0BDE8F08FA84B053F002231
:10D92000032F83F8682B6DD9A24E83F8D82AD6E747
:10D9300095F8133188F8D84A012B00F08F80022B1C
