:020000040800F2
:10000000F0FF0010DDD8060849FE0008D5090508F4
:100010007DD906087DD906087DD9060800000000B4
:1000200000000000000000000000000045FE000885
:1000300041FE0008000000003DFE00084D0A0508D2
:100040007DD906087DD906087DD906087DD9060820
:100050007DD906087DD906086D470508354705088E
:10006000FD460508C54605088D4605082DA5060868
:100070001DA506080DA50608FDA40608E9A40608A6
:10008000D5A40608C1A406087DD906087DD90608AE
:100090007DD906087DD906087DD90608554605088C
:1000A000457B0408C57B0408357B0408E97B04080C
:1000B000B97B0408A97B0408997B040895C7060846
:1000C0009DC7060889C7060891C706087DD9060896
:1000D0007DD90608093805085137050899360508FD
:1000E0001D4605087DD906088D150108257B0408E5
:1000F000557B0408157B0408797B0408ADA4060829
:100100007DD90608C1820608897B04087DD90608C6
:10011000E1350508293505087DD906087DD9060889
:1001200099A4060885A4060871A406085DA406081B
:1001300049A406087DD906087DD906087DD9060898
:100140007DD906087DD906087DD90608D1F70008B3
:1001500035A4060821A406080DA406087134050874
:100160007DC7060885C706087DD906087DD906081B
:100170007DD906087DD906087DD906087DD90608EF
:080180007DD906087DD90608AF
:08280000082800080040000850
:04400000FFFFFFFFC0
:10800000F0B401292A4C2B4D23684FF0000694BF91
:1080100000270127EE626662A6626763676B47EA24
:1080200042076763EE63EC6B002A38D144F4957421
:10803000EC631C6824F001041C601C68E407FCD499
:10804000490289085960D8601968EAB921F04001ED
:10805000196019498B421DD018494FF47410C8603B
:10806000196841F01E011960596941F08001596198
:10807000196841F00101196022B90E4AD36A43F030
:108080000803D362F0BC704741F0400119600A490F
:108090008B42E1D14FF0746041F8500CE0E744F0BE
:1080A0001A04EC63EC6A44F00804EC62C1E700BF18
:1080B000702A0020002C01405864024000640240F5
:1080C0002DE9F04F0C68B34D85B0013BAC42BDF8D3
:1080D00038809BB200F07C81A5F58065AC4200F051
:1080E000778105F58045AC425CD005F58065AC42F2
:1080F00058D005F58065AC4254D0A74E2588B76BA3
:108100007F08B7FBF2F6013EB6B2AAB2B4F1804FD7
:108110000AD0A24DAC4207D005F58065AC4203D031
:1081200005F58065AC4202D122F0700292B29C4DFE
:10813000AC4200F02B8105F58065AC4200F0268151
:1081400022F4407205F56C4592B2AC422280E362A3
:10815000268540F04681002323860125A58291F8DB
:1081600008904A7919F0020600F01E8100254FEAB6
:10817000C909402109F00809AE460395AC462F46CF
:108180002B4601954FF4806602914FF0040B0C2AA8
:1081900011D8DFE802F0C91010109B101010211048
:1081A00010106B007C4E2588B66BB6FBF2F6013ED4
:1081B000B6B2AAB2AAE70C2A40D8DFE812F0DE0075
:1081C0003F003F003F00AC003F003F003F003F004A
:1081D0003F003F003F007E00218C724D21F48071F2
:1081E0000904090C2184B4F820A0B4F804C0A18BC0
:1081F0001FFA8AFA21F073012AF4007A090447EA87
:108200000A07090CAC4247EA03231FFA8CFC41F031
:10821000600100F0EB8005F58065AC4200F0E6807F
:10822000A4F804C0A183C4F83C802384A38B23F06A
:1082300008031B041B0C43F00803A383B4F8443069
:108240006FEA43436FEA53439BB2A4F84430238858
:1082500021469BB243F0010321F8343B00238D18E3
:10826000C0E900548B5005B0BDE8F08F218C4D4E15
:1082700021F480510904090C2184B4F820C0A78896
:10828000A18B1FFA8CFC21F4E6412CF4005C09045C
:108290004EEA0C0E090CB4424EEA0333BFB241F46D
:1082A000C04100F0AF8006F58066B44200F0AA80BD
:1082B000A780A183C4F840802384A38B23F40063A8
:1082C0001B041B0C43F40063A383B7E7218C354DDB
:1082D00021F010010904090C2184278CA688218B28
:1082E000BFB221F4E64127F0200709044CEA070C4D
:1082F000090CAC424CEA0313B6B241F4C04100F0A1
:10830000918005F58065AC4200F08C80A6802183C9
:10831000C4F838802384238B23F400631B041B0CD4
:1083200043F40063238389E7258C1E4E019925F0D1
:1083300001052D042D0C2584B4F820E0B4F804C008
:10834000258B2EF0020E25F073054FEA0E4E2D04FC
:108350000B434FEA1E4E2D0CB4424EEA03031FFAA4
:108360008CFC45F0600551D00A498C424ED0A4F8EF
:1083700004C02583C4F834802384238B23F00803AE
:108380001B041B0C43F00803238357E72280E3629E
:108390002685E2E600040140702A00200004004027
:1083A00000100040000001404FEA49094FF4806787
:1083B000CDE9015609F002030397B146B3464FF4E5
:1083C00080454FF4805E4FF0100C4FF48077DEE66E
:1083D0001B4E2588B66BB6FBF2F6013EB6B2AAB2CA
:1083E000A2E6184B9C423FF4B6AEB6E623F4006317
:1083F00043EA092323F480632CF4405C33434CEAC2
:108400000E0C0DE727F480472F4351E74FF6F37129
:1084100019402CF4407C41EA09034CEA070C43EA7A
:108420000B03A4E723F08003029D43EA091323F022
:1084300040032B43039D26F440662E4366E700BFAE
:10844000702A002000040140036870B55E6A26B1FE
:1084500033461522BDE87040184704460D4601F129
:10846000150600E023689B68204698470028F9D04D
:10847000236815F8011B1B6820469847B542F1D1C7
:1084800070BD00BF70B4C3080D4CE25C00F007067D
:10849000B24004EBD004D2B20020C6F108038B42F4
:1084A00028BF0B46C3F108052A419840C91A40EA83
:1084B00002004FF0000614F8012FEED170BC704797
:1084C000EC2A0020084AD2E94C3199420AD0D1184E
:1084D000013391F838110170C3F30A03C2F8303147
:1084E0000120704700207047702A0020044BD3E918
:1084F0004C30C01AC0F30A00C0F50060704700BFDE
:10850000702A0020012380F85130704707B501A878
:10851000FFF7D8FF0028FAD09DF8040003B05DF8FB
:1085200004FB034BD3E94C30C01AC0F30A00704778
:10853000702A002001207047024BC3F83829C3F885
:108540003C197047702A0020024BC3F84029C3F839
:1085500044197047702A00207047704730B4114D9D
:10856000D5E94C239A1AC2F30A020A44B2F5006F05
:1085700013D8A9B101444A1E013810F8014FE91877
:10858000824203F1010381F83841C3F30A03F4D1B5
:10859000C5F83431002030BC7047022030BC704731
:1085A0000846F8E7702A0020212838B50C4605D087
:1085B00022282ED0202813D0002038BD0029FBD03F
:1085C000072AF9D11A4BD3F8480993F84C1993F8B4
:1085D0004D2993F84E39206021716271A371EBE748
:1085E0000029E9D0072AE7D1114DD5F83C391BB154
:1085F0000968D5F838099847206821796279A37904
:10860000C5F8480985F84C1985F84D2985F84E3983
:10861000D2E70029D0D0022ACED1054AD2F8443977
:10862000002BC9D00988D2F840099847C4E700BF99
:10863000702A0020024B0020C3F85009704700BF89
:10864000702A0020044B00200522C3F85029C3F8EB
:108650004409C3F83C097047702A0020704700BFE6
:10866000704700BF704700BF704700BF704700BF32
:10867000704700BF704700BF042301480B8070475C
:108680008801002010B4074A074B92F854091224BD
:1086900003F114020C8001280CBF184610465DF847
:1086A000044B7047702A00208C010020004870475E
:1086B000D42A002000487047D42A0020034B93F8A6
:1086C0006000032894BF002001207047702A00201A
:1086D000034B93F86000032894BF002001207047EB
:1086E000702A0020034B93F86000003818BF012067
:1086F000704700BF702A0020A0B182680D4B12B1F4
:1087000007229A7070471978DA6003294FF0040045
:108710000CBF80214FF48071C3E901111A611A75F1
:1087200098707047034B41F2E47101225A545A7019
:10873000704700BF9C9D00200378022B10D0006979
:1087400008B9012070470C4B1B78032B0EBF0B4B55
:1087500080B24FF6F773984294BF00200120704713
:108760000549436841F650028A58B3EB422F2CBFAB
:1087700001200020704700BF9C9D0020F7FFFF0FE5
:108780000378022B14D030B4104A4368006941F6D4
:10879000480402F5C2511559096841F63C042B40C2
:1087A00012595B0A023801FB0030104430BC70479C
:1087B000064B426841F6340141F6300059581858CA
:1087C00000EB410000EB5220704700BF9C9D002051
:1087D000F0B505682B6A93B013B1002013B0F0BD5B
:1087E00061F07F01CDE906330DF107078DF8071021
:1087F000039301218DF81430089202260B930E93F7
:10880000109300220023CDE90C2304460297049123
:108810008DF828108DF83C100996EFF3118610237F
:1088200083F3128803681B6A03B3049B02A8024601
:108830001BB1D3691432002BFBD12B6AF3B19968B9
:1088400039B9934209D0196829B15B689968002940
:10885000F7D01433F3E7C3E90040F6B286F311888A
:108860002268136A002BFCD10120B7E702ABF6B2F5
:108870002B6286F3118861F013FFF1E71C60FFDEC5
:1088800070B5144C94F85839002BFBD1F9B1014460
:108890004E1E451E02E0012047F0FCFFD4F85C3973
:1088A000D4F860290133C3F30A039342F3D0D4F818
:1088B0005C29D4F85C3915F8011F22440133C3F355
:1088C0000A03B54282F86419C4F85C39E6D1002085
:1088D00070BD00BF702A0020094B0846D3F850191C
:1088E00010B559B1D3F85039052B07D1054C002AE2
:1088F000E36E03DD1146FFF7C3FFE36E10BD00BF5B
:10890000702A0020683B002010B590F8501000231A
:1089100080F8503079B10B4CD4F850296AB1D4F8B2
:108920005029052A0BD1084C3C30E36EFFF7A8FF15
:10893000E36E012010BD0120FCE71046FAE718465F
:10894000F8E700BF702A0020683B0020002280F872
:108950005120D9E790F85020531C0244DBB280F834
:10896000503082F83C1090F851200AB1132B00D9F6
:10897000CAE770473E4B98422DE9F0410ED003F50F
:108980006853083398424BD03A4B0020C3E9370074
:10899000A3F8D800A3F8E400BDE8F081354C364FC9
:1089A000DFF8DC800223236704F174060025FB6AEC
:1089B000AB42294605F1010503D0D4F8F4005CF080
:1089C000EBF994F8F830D4F8F42086F824303262C9
:1089D000304641465CF016FB236F9D4206F130069F
:1089E000E5DB002384F8E630D4E91F03216FB4F8F7
:1089F0007820B4F88450C4F8043112FB01F203FB70
:108A000001F3A4F8D820B4F87A101C4AA4F8E45072
:108A1000C4E93703A4F8DA10C4F8D4200120BBE776
:108A2000144C154FDFF85C800223236704F17406B1
:108A30000025FB6AAB42294605F1010503D0D4F8B5
:108A4000F4005CF0A9F994F8F830D4F8F42086F832
:108A500024303262304641465CF036F9236F9D4245
:108A600006F13006E5DB012384F8E630BCE700BF01
:108A70001971EF00683B0020880100204C050708B1
:108A80001940EF0021AAEF002DE9F04F2A4DDFF841
:108A9000D0A006460FCD54462DED048B0FC40FCD4C
:108AA0000FC426492A6891F80A3122608BB091F8E8
:108AB000102103960A2B0CD8DFE813F036020B00C6
:108AC000A30231020B000B000B000B000B000B008C
:108AD0002C02DFED1B7AF0EE678A002A19491A4A48
:108AE000CAF8102019481A4BCAF818000EBF002205
:108AF00001220B46009238EEA77AF5EE006AC6EE28
:108B0000879ADFF860B0134ECAF814300BF12307D0
:108B10004FF000099FED108A9FED109A27EE888A8A
:108B2000039B4B4540F3BF811BF8014B002C00F029
:108B30001B8200231BE000BF84050708683B002060
:108B40006F120339E5140508E914050895B5030803
:108B500059960308280100106F12833A00007A44E6
:108B6000F80000107D3C0020152B00F0FD8103EB88
:108B700043024FEA4308B95CA14203F10103F3D178
:108B8000D04B1A4492F83911002900F0388220465F
:108B90003FF032FA054628463FF04EFA01780029A8
:108BA00040F0E281C74B984409F10103019303228D
:108BB000DBB288F8793188F87821002D00F0D48173
:108BC0004FEA141808F1FF38B8F1050F04F00F0C44
:108BD00000F2F281BC4C04EB4801B1F85C0040FAB1
:108BE0000CF111F0010100F0E781012101FA0CFC08
:108BF0000CF1FF3C0CEA0000A044029364F0B6FCC8
:108C000098F868C0DFF8D0E2029BB56160440EEBD3
:108C1000C00C03228CF807308CF806205EF8300078
:108C2000C6F814C000F13F4303F57E0304EB932420
:108C3000012194F870306A7A03F01F045B09032B5A
:108C400001FA04F100F0CD81042B00F0C581022B64
:108C500000F0CC81BCF80440B4FA84F3C3F11F03E4
:108C6000C3F3CC0100EB810103F00703D1F820C06E
:108C70009B004FF00F0E0EFA03FE2CEA0E0CC1F80B
:108C800020C0D1F820C002FA03F343EA0C0305AA7E
:108C90000B62114602230292CDE905430DF0B2FDAD
:108CA000029A009B002B00F07081864BB3F80831CC
:108CB00000EE103AB8EEC00AFCEEC07A17EE90EA69
:108CC0002C68824B9C4200F05981A3F580639C4242
:108CD00000F0548103F580439C4200F04F8103F57E
:108CE00080639C4200F04A8103F580639C4200F05F
:108CF0004581774B986B4108B1FBFEF303F57F4349
:108D0000FF334FEA134C009BB1FBFCFC002B00F03F
:108D10003981BCFBFEF1013989B207EE90CAB8EE89
:108D2000677A6A4B67EE086A9C4269EE667AC6ED1E
:108D3000026AE7EE287AC6ED037A00F00381A3F514
:108D400080639C4200F0FE8003F580439C4200F06B
:108D5000378103F580639C4200F0328103F5806324
:108D60009C4200F02D8123884008B0FBFCF00138C4
:108D700080B29BB2B4F1804F00F0EA80DFF85CC1B2
:108D8000644500F0E5800CF5806C644500F0E080FF
:108D90000CF5806C644500F0DB80DFF844C164456D
:108DA00000F0DE800CF5806C644500F0D98023F47F
:108DB00040730CF56C4C9BB264452380E1622085C6
:108DC00040F00581002323860120A0822B7A95F8AC
:108DD00005800021CDE907114FF0600CADF81810A7
:108DE00009919907CDF814C040F1DA80DB0003F057
:108DF00008030421ADF82230ADF818104146204692
:108E00003EF004FDB8F10C0F10D8DFE808F07A0F3F
:108E10000F0F710F0F0F520F0F0F0700A38B23F4CB
:108E200000631B041B0C43F40063A3832B68B3F89B
:108E300044206FEA42426FEA524292B2A3F84420C1
:108E40001A88194692B242F0010221F8342B68794F
:108E500073600C18002234600A50B9F1000F00F062
:108E6000CA80DAF834108B4200F0C780B9F1010FE4
:108E700000F0C180DAF850108B4200F0BE80B9F1EA
:108E8000030F40F0B880DAF86C20D31A18BF012322
:108E9000DDF8049033740122B9F1040F727406F105
:108EA0001C067FF43DAE0B480BB0BDEC048BBDE857
:108EB000F08FA38B23F008031B041B0C43F0080363
:108EC000A383B3E7683B00204C050708000401407A
:108ED000702A0020F80000100C3D00200004004023
:108EE000001000406F12833AACC5A737ACC5A73657
:108EF000238B23F400631B041B0C43F400632383C4
:108F000094E7238B23F008031B041B0C43F0080396
:108F100023838BE75FED0D7AF0EE678ADDE55FED89
:108F20000E7A5FED0E8AD8E5384BDFED397A394A93
:108F3000CAF8103001230093CAF81820364BF0EE1F
:108F4000678AD8E52388B0FBFCF0013880B29BB279
:108F5000DFF8DCC023F0700364459BB27FF422AFDE
:108F60002380E16220852FE72C4A2B4B0020CAE9A1
:108F700005320BB0BDEC048BBDE8F08F284B996B2C
:108F80000846B9E64FF6FE71C7E6B0EE690A0292EE
:108F900064F0FCFCFCEEC07A029A17EE90EA8FE6D1
:108FA0005B0003F002034FF48071ADF82030ADF8A0
:108FB0001600ADF8241021E77161B56105AA70E6CD
:108FC0002388B0FBFCF0013880B29BB2D2E6154B8F
:108FD0009C423FF4F7AEF7E6134B1C6B2143196339
:108FE00038E6114B1C6C2143196433E60E4B5C6C64
:108FF000214359642EE601234AE7134648E70D460C
:10900000C9E5DFED0A7AF0EE678A66E5E91405083E
:109010006F12833A95B50308E5140508E197030834
:10902000702A00200004014000380240282930380E
:1090300000100040114B70B59C6B054600680E4651
:1090400064080DF0E3FAB4FBF6F1B1F5803F03D309
:10905000012CFAD96408F6E72246284689B23EF088
:109060004DFE0749074BC1F8083D28460022BDE8E0
:10907000704001F608513EF0BFBD00BF702A0020CD
:10908000683B002091F20108F8B5214C1D270E46DF
:10909000054684F8107D23F09BFA002023F038FA6F
:1090A000082023F035FA0E2023F032FA384623F058
:1090B0002FFA042023F02CFA042023F029FA0020B0
:1090C00023F026FA302023F023FA002023F020FAA0
:1090D000304623F01DFA002023F01AFA23F062FA3A
:1090E00004F6115023F078F9234670B194F8112D4D
:1090F00062B994F8122D302A00D03AB993F8132DA2
:1091000022B993F8143D2B700120F8BD0120FCE733
:10911000683B002010B5044C04480A4621460CF078
:10912000F9F8204610BD00BF8C4800209C96070827
:1091300010B5044C04480A4621460CF0EBF82046D2
:1091400010BD00BF8C480020AC96070810B5044C39
:1091500004480A4621460CF0DDF8204610BD00BF49
:109160008C480020B896070810B5044C04480A46FD
:1091700021460CF0CFF8204610BD00BF8C480020DF
:10918000C496070810B5044C04480A4621460CF062
:10919000C1F8204610BD00BF8C480020D0960708BB
:1091A00010B50C4C94F82E210023E36512B10A4A45
:1091B000C2F8243E5FF0E4F820B10423022084F8D2
:1091C000603010BD044BDB6E2365092384F86030EA
:1091D00010BD00BF702A0020683B002070B50D4D07
:1091E00095F86030042B04460E460AD0082B06D1B1
:1091F000AB6D83420CD0FFF7D3FF022801D00120D2
:1092000070BD0823C5E9164685F86030022070BDA0
:10921000022070BD702A002070B50379224C002B0B
:1092200014BF0123002384F88C3003D1002384F879
:10923000603070BD1D4D002195F92B2E03204AF0A2
:1092400051FB0028F2D0466830464AF039FB84F8DA
:109250002D010028EAD095F8293E003B18BF0123D4
:10926000304684F82E315FF09BFF0CF001F838B9DE
:1092700094F8543084F86000013384F8543070BDA1
:109280005FF068F940B194F854300022013384F85B
:10929000543084F8602070BDEB6E2365012384F8A0
:1092A000540084F8603070BD702A0020683B0020B4
:1092B00010B55FF04FF958B10B4C94F854300133AE
:1092C000DBB2072B84F8543003D9002384F86030D4
:1092D00010BD0BF0CDFF0028F7D0044A0123D26E59
:1092E000226584F8603010BD702A0020683B0020A1
:1092F0002DE9F041844C94F88C50002D00F0F28060
:1093000094F86020814E0227531E082B3FD8DFE8D7
:1093100003F035379A3E654E143E05005FF030F895
:10932000002840F0E680236DF26EFA3393422BD290
:10933000FFF7BEFF94F86020E6E75FF021F8002811
:10934000F1D0E36D0022012B84F8542040F2D58047
:10935000A16D94F82E01013B0131C4E9161310B13F
:109360006A4BC3F8242E082284F86020A2F1080575
:10937000B5FA85F56D092846BDE8F08184F860707E
:109380005EF0FEFF002840D194F86020531EDBB24F
:10939000022B09D85D4B216DDB6E5B1AC82BE5D91A
:1093A000FFF786FF94F86020042ADFD1E3E7236B00
:1093B000002BDBD1554BA66CDB6E2365072284F8AE
:1093C0006020002ED2D0D4E90F21E36C0120B047F9
:1093D000DAE7236DF16E64338B42C7D2D4F82C8068
:1093E000B8F1000FF5D15EF0CBFF0028A2D0A66C3B
:1093F00084F85480042384F86030002E77D0D4E9B8
:109400000F21E36C4046B047BEE75EF05FFC0028EA
:10941000BAD196F82D3E002BA3F10203B3FA83F3E1
:1094200014BF022201225B0984F8552084F85630CB
:109430005EF04CFC00287FF47BAF354A0323926C2E
:10944000626684F860305EF041FC00289CD12F4BAE
:10945000E06593F85C6EB3F85E0ED3F860EED3F877
:1094600060CED3F8607ED3F8602E84F86A6093F8FB
:10947000641EA4F8680093F8656E84F86E2093F873
:10948000650ED3F8682E2267B3F86E8EB3F86E2E91
:1094900084F86F10B3F86E1EC2F30B1343EA18235F
:1094A00003F00F0301F00F024FEA1E6E4FEA1C4C4F
:1094B0003F0A360900F00F0003F5FA63042184F82F
:1094C000750084F86BE084F86CC084F86D7084F8E3
:1094D0007460A4F8763084F8782084F86010284608
:1094E000BDE8F08184F860502846BDE8F08105466B
:1094F00041E7042384F860303DE7FAD1FFF750FEDE
:1095000094F86020531E42E7702A0020683B002038
:10951000984900202DE9F8431A4C94F86060042E15
:109520000546894690461F4608D0082E02D00020E6
:10953000BDE8F8830BF0C2FD0228F8D1D4F89C00F6
:109540004AF0F8FF94F8563093B9690211200BF0F5
:1095500023FE98B90C4BC4F83C90DA6E25640523C1
:10956000C4E91287226584F860300120BDE8F883E1
:10957000294611200BF010FE0028EBD00BF054FE12
:10958000D5E700BF702A0020683B002070B51E4C54
:1095900094F86030042B06460D4608D0082B22D1E3
:1095A000A36D83422DD00BF089FD02281BD1D4F886
:1095B0009C004AF0BFFF002137200BF0EDFD29464B
:1095C00017200BF0E9FDB0B994F856306BB9710271
:1095D00019200BF0E1FD70B90823C4E9166584F881
:1095E0006030022070BD012070BD314619200BF0A3
:1095F000D3FD0028F0D00BF017FE0BF04BFE03203C
:1096000070BD022070BD00BF702A00202DE9F0411E
:109610002D4C0546884617461E4694F860000428DF
:1096200036D0082806D1A36DAB4206D00BF046FD1C
:109630000228F2D00120BDE8F0814FF0FC0CD4F8F4
:1096400094202248117B224B80F888CEC3F85880A2
:1096500051B1526942B194F81C21002A0CBF4FF459
:1096600080724FF4007201E04FF480721A6619495B
:1096700019484BF0A3FA01220623C4E90F85C4E977
:10968000127684F8442084F860300020BDE8F08130
:10969000D4F89C004AF04EFF94F856305BB969024A
:1096A00018200BF079FD40B994F86030082BC4D035
:1096B0004FF0FE0CC3E72946F2E70BF0B5FD0BF0C7
:1096C000E9FD0320B7E700BF702A0020683B0020B7
:1096D00088010020B8010020042B002000F01F02A8
:1096E00040090123032803FA02F304D004280CD014
:1096F000022805D07047074A116C0B43136470476A
:10970000044A516C0B4353647047024A116B0B437C
:1097100013637047003802400E4B30B4DB68427868
:1097200001780D4CDB43C3F30223C3F10403DBB226
:1097300002FA03F360181B0101F01F050122490919
:1097400003F0F003AA4080F8003344F8212030BC35
:10975000704700BF00ED00E000E100E010B5834A73
:109760000368934282B000F0C280A2F58062934207
:1097700000F0BD8002F58042934200F08B8002F53C
:109780008062934200F0868002F58062934200F08E
:10979000818077481A88806B4008B0FBF1F101396D
:1097A00089B292B2B3F1804F0AD07248834207D097
:1097B00000F58060834203D000F58060834202D1CF
:1097C00022F0700292B26C48834200F0998000F55A
:1097D0008060834200F0A08022F4407200F56C406B
:1097E00092B24FF6FF7483421A80DC62198540F012
:1097F000998000221A8601229A821A885F4992B2C1
:1098000042F001028B421A8000F09880B3F1804F41
:1098100000F09680574A934200F0948002F58062EF
:10982000934200F0918002F58062934200F08E80B6
:1098300002F58062934200F08B8002F580629342D1
:1098400000F0888002F57042934200F0858002F5B6
:109850007052934200F0828002F5806293427FD082
:1098600002F5806293427DD0A2F5983293427BD07C
:1098700002F58062934216D002F58062934208BFDF
:109880000D2211D04FF0012301A80193FFF744FFEF
:1098900002B010BD36481A88806BB0FBF1F1013977
:1098A00089B292B27EE70C22354B03EBC20301A8CA
:1098B00093F87D408DF8044001224FF480738DF8B9
:1098C0000520ADF80630FFF727FF1B2C06D12D4BE6
:1098D000019301A8FFF720FF02B010BD2E2CD7D1B5
:1098E000294B019301A8FFF717FF02B010BD2048D4
:1098F0001A88806BB0FBF1F1013989B292B25FE74F
:1099000001204FF6FF741A80DC62198598821A884C
:1099100092B202431A807DE74FF6FF701A80D86238
:10992000198568E7114A93423FF463AF01229A8296
:109930001A8892B242F001021A8067E70022B3E768
:109940000122B1E70222AFE70322ADE70422ABE731
:109950000522A9E70622A7E70722A5E70822A3E731
:109960000922A1E70A229FE70B229DE7000401409C
:10997000702A002000040040001000400000014058
:109980004C050708190100012C010001002877D0BF
:10999000F0B58388B3FA83F3202B83B00446C3F178
:1099A0001F0258D0374D384E15444FF0004006EB9B
:1099B000820230FA03F395F8E850C2F88C1E05D005
:1099C000324A116821EA03011160536120460021E7
:1099D0004AF0EAFBA38822682C49B3FA83F7C7F15F
:1099E0001F0404F0FC0000F1804000F59C3004F0FE
:1099F0000304A40002F13F434FF00F0C82680CFAFD
:109A000004FC22EA0C02826003F57E038268C3F341
:109A10008723A340134383600A681D484FF0004327
:109A2000FB4022EA03020A604A6822EA03024A6013
:109A30000A681A430A608A6822EA03028A60CA68CE
:109A400022EA0302CA6002682E441343036096F8B8
:109A5000CC3EF02B01D803B0F0BD0E4B5B5D8DF812
:109A60000430F02103224FF4807301A886F8CC1E45
:109A70008DF80520ADF80630FFF74EFE03B0F0BDBF
:109A8000704700BF4C050708683B0020003C0140C0
:109A9000083C01403897070800285FD00368374A20
:109AA0002DE9F04103F13F4404F57E0402EB9422DA
:109AB000012492F8702002F01F055209032A04FACB
:109AC00005F456D0042A4FD0022A48D08588B5FA2A
:109AD00085F0C0F11F00C0F3CC0603EB860600F052
:109AE000070082000F24306A944020EA04003062AC
:109AF000306A01FA02F20243002132624FF0010E95
:109B00000A464FF0030C02270EFA02F838EA050065
:109B100002F101021CD118680CFA01F420EA0400D9
:109B20001860186807FA01F606431E609E6826EA68
:109B300004069E6098689860586820EA080058609B
:109B400058685860D86820EA0400D860D868D8609F
:109B5000102A01F10201D7D1BDE8F0817047084A0F
:109B6000556C2C435464B1E7054A156B2C431463C0
:109B7000ACE7034A156C2C431464A7E74C050708AF
:109B800000380240F0B5374DD5F8D47E3E78012E2E
:109B900095B004460B4606D0022E01D1396A69B150
:109BA000002015B0F0BD97F9040095F8D81E009379
:109BB0001346224662F0ACFC15B0F0BD60F07F00A9
:109BC000CDE90A320DF10F048DF80F0000220120BB
:109BD0000023CDE90811CDE90E2305918DF81C1065
:109BE0000D9110911291049406908DF830008DF82B
:109BF0004400EFF31180102383F31288D5F8D43E8C
:109C00001B6A13B3069B04AC22461BB1D369143202
:109C1000002BFBD13B6A13B3996839B993420AD040
:109C2000196829B15B6899680029F7D01433F3E704
:109C30000D4AC3E90024C0B280F31188D5F8D42EB0
:109C4000136A002BFCD10120ABE704ABC0B23B622E
:109C500080F3118805F6D46060F022FDEEE7024A39
:109C60001A60FFDE683B00203C4A0020034BD3F81B
:109C70009420136A002BFCD1704700BF702A00208B
:109C80002DE9F047C24C94F8A01F0546C1F34001EE
:109C9000D4F8A80F4AF05AFC94F8A01FD4F8A40FE7
:109CA000C94301F001014AF051FC002D00F0DC80B5
:109CB00005F1FF38B74EB84D5FFA88F81027D4F891
:109CC000A83F33B11A689B8851690B4214BF538374
:109CD0001383D4F8A43F33B11A689B8851690B42AF
:109CE00014BF53831383B4F8B03F002B40F0488176
:109CF00094F8B21FD4F8B40F4AF028FC4FF0FA0CD5
:109D00004FF47A704FF0010E7368C3F30803002B11
:109D100040F00B81EFF31183002B40F00681E26EDF
:109D2000A968E36E9A42FAD1D4F8DC3F9942F6D89A
:109D3000D4F8D89F00FB09F35B1AB3FBF9F300FBDF
:109D400002327368C3F30803002B40F0AF80EFF3D7
:109D50001183002B40F0AA80E36ED5F808A0E16ED5
:109D60008B42F9D1D4F8DC1F8A45F5D8D4F8D89FB6
:109D700000FB09F1A1EB0A01B1FBF9F100FB0313B0
:109D80009B1AB3F57A7FDCD3BCF1010CBCD1D4F8BB
:109D9000A83F33B11A689B8851690B4214BF5383A3
:109DA0001383D4F8A43F33B11A689B8851690B42DE
:109DB00014BF53831383B4F8B03F002B40F0D4801A
:109DC00094F8B21FD4F8B40F81F001014AF0BEFB41
:109DD0004FF0FA0C4FF47A704FF0010E7368C3F332
:109DE0000803002B40F08280EFF31183002B7DD11C
:109DF000E26EA968E36E9A42FAD1D4F8DC3F994248
:109E0000F6D8D4F8D89F00FB09F35B1AB3FBF9F33B
:109E100000FB02327368C3F308033BBBEFF311830B
:109E200023BBE36ED5F808A0E16E8B42F9D1D4F8DC
:109E3000DC1F8A45F5D8D4F8D89F00FB09F1A1EBC7
:109E40000A01B1FBF9F100FB03139B1AB3F57A7F0A
:109E5000E0D3BCF1010CC1D108F1FF385FFA88F8FA
:109E6000B8F1FF0F7FF42BAFBDE8F087EFF3118956
:109E700087F31288D5F808A02B68DB0344BFC4F829
:109E8000D4EFD5F808A0E36ED4F8D41F5FFA89F9AF
:109E900089F31188D4F8D89F0B4400FB09F1A1EB9A
:109EA0000A01B1FBF9F100FB0313CEE7EFF31189CF
:109EB00087F31288D5F808A02B68D90344BFC4F8EB
:109EC000D4EFD5F808A0E36ED4F8D41F5FFA89F96F
:109ED00089F31188D4F8D89F0B4400FB09F1A1EB5A
:109EE0000A01B1FBF9F100FB031349E7EFF311811C
:109EF00087F31288D5F808902B68DA0344BFC4F8BA
:109F0000D4EFD5F80890E36ED4F8D42FC9B281F31A
:109F10001188D4F8D81F1A4400FB01F3A3EB0903FE
:109F2000B3FBF1F300FB023274E7EFF3118187F327
:109F30001288D5F808902B68DB0344BFC4F8D4EF2F
:109F4000D5F80890E36ED4F8D42FC9B281F3118804
:109F5000D4F8D81F1A4400FB01F3A3EB0903B3FBA9
:109F6000F1F300FB0232ECE6D4F8CC3F002B3FF4D7
:109F70002FAFD4F8B82F0023136084F8C93F27E728
:109F8000D4F8CC3F002B3FF4B9AE49F05FFAB5E608
:109F9000683B002000ED00E010E000E02DE9F84F04
:109FA000BD4CBE4F94F8A01FD4F8A80FBC4DC1F310
:109FB00040014AF0CBFA94F8A01FD4F8A40FC9438B
:109FC00001F001014AF0C2FA4FF0050B4FF0100802
:109FD000D4F8A83F33B11A689B8851690B4214BF6B
:109FE00053831383D4F8A43F33B11A689B88516913
:109FF0000B4214BF53831383B4F8B03F002B40F0DF
:10A00000438194F8B21FD4F8B40F4AF09FFA4FF08E
:10A01000320C4FF47A7001267B68C3F30803002BDF
:10A0200040F00781EFF31183002B40F00281E26ED4
:10A03000A968E36E9A42FAD1D4F8DC3F9942F6D887
:10A04000D4F8D89F00FB09F35B1AB3FBF9F300FBCC
:10A0500002327B68C3F30803002B40F0AB80EFF3C0
:10A060001183002B40F0A680E36ED5F808A0E16EC6
:10A070008B42F9D1D4F8DC1F8A45F5D8D4F8D89FA3
:10A0800000FB09F1A1EB0A01B1FBF9F100FB03139D
:10A090009B1AB3F57A7FDCD3BCF1010CBCD1D4F8A8
:10A0A000A83F33B11A689B8851690B4214BF538390
:10A0B0001383D4F8A43F33B11A689B8851690B42CB
:10A0C00014BF53831383B4F8B03F002B40F0D0800B
:10A0D00094F8B21FD4F8B40F81F001014AF036FAB7
:10A0E0004FF0320C4FF47A7001267B68C3F30803FB
:10A0F000002B7FD1EFF31183002B7BD1E26EA96897
:10A10000E36E9A42FAD1D4F8DC3F9942F6D8D4F8FB
:10A11000D89F00FB09F35B1AB3FBF9F300FB023293
:10A120007B68C3F308032BBBEFF3118313BBE36E10
:10A13000D5F808A0E16E8B42F9D1D4F8DC1F8A452E
:10A14000F5D8D4F8D89F00FB09F1A1EB0A01B1FBC7
:10A15000F9F100FB03139B1AB3F57A7FE0D3BCF14E
:10A16000010CC2D10BF1FF3616F0FF0B7FF430AFBC
:10A17000BDE8F88FEFF3118988F31288D5F808A0AD
:10A180002B68DB0344BFC4F8D46FD5F808A0E36E96
:10A19000D4F8D41F5FFA89F989F31188D4F8D89FCD
:10A1A0000B4400FB09F1A1EB0A01B1FBF9F100FB43
:10A1B0000313D0E7EFF3118988F31288D5F808A0CC
:10A1C0002B68D90344BFC4F8D46FD5F808A0E36E58
:10A1D000D4F8D41F5FFA89F989F31188D4F8D89F8D
:10A1E0000B4400FB09F1A1EB0A01B1FBF9F100FB03
:10A1F00003134DE7EFF3118188F31288D5F8089027
:10A200002B68DA0344BFC4F8D46FD5F80890E36E26
:10A21000D4F8D42FC9B281F31188D4F8D81F1A44C6
:10A2200000FB01F3A3EB0903B3FBF1F300FB0232E4
:10A2300076E7EFF3118188F31288D5F808902B6840
:10A24000DB0344BFC4F8D46FD5F80890E36ED4F8AC
:10A25000D42FC9B281F31188D4F8D81F1A4400FB57
:10A2600001F3A3EB0903B3FBF1F300FB0232F0E6C9
:10A27000D4F8CC3F002B3FF433AFD4F8B82F0023F1
:10A28000136084F8C93F2BE7D4F8CC3F002B3FF490
:10A29000BEAE49F0DBF8BAE6683B002000ED00E016
:10A2A00010E000E0B0B10C49D1F8E03F102B03D131
:10A2B000052100203EF002B903EB43020A4482F874
:10A2C000E40F202082F8E50F0120034482F8E60F16
:10A2D000C1F8E03F704700BF683B00202DE9F04F18
:10A2E0002DED028BAA4C95B01E22A4F1E4000021B2
:10A2F00065F088FF14F8C43C1BB114F8C33C04F8A3
:10A30000E43C14F8C23C1BB114F8C13C04F8DF3C37
:10A3100014F8C03C1BB114F8BF3C04F8DA3C14F844
:10A32000BE3C1BB114F8BD3C04F8D53C14F8BC3C51
:10A330001BB114F8BB3C04F8D03C14F8BA3C1BB178
:10A3400014F8B93C04F8CB3C14F8B23C0393013B3D
:10A350005FB2DBB202937B1C00F0B0808D4B8E4E5F
:10A3600053F83720019203EBC7034FF0000A1B7923
:10A3700008EE103AB146D046D34699F80050394617
:10A38000284645B34BF0B4FA034628461D4613B39E
:10A3900049F0AAFB0BF107031321DBB220B14FF008
:10A3A000000C837180F807C049F0FEFE99F80000A8
:10A3B0004BF0D4FA08F1010389F802805FFA83F8C0
:10A3C0004FF0070389F804304FF0010389F80100CA
:10A3D000AA4689F803300BF1010BBBF1060F09F116
:10A3E0000509CAD118EE100AFFF778F96B4A6C4BD1
:10A3F00051680B4043F44033536017B9BAF1000F72
:10A400000BD1684D4820FFF769F92846022162F018
:10A41000D7F9AB6843F00103AB606049614B4A6810
:10A4200034F8B80C42F400024A605A6822F48052B0
:10A430005A609A6B22F4401242F480129A63DA68EE
:10A4400042F46002DA609D6B85F44012C2F301525F
:10A4500002EB82021F2101FA02FC25EA0C054FF0F3
:10A46000110C0CFA02F22A439A63DA6842F4E01201
:10A47000DA609D6BC5F30152C2F10402D2B202EB65
:10A48000820291404FF0100C25EA01050CFA02F20D
:10A490002A439A63E8B134F8B62C44F8AC0CAAB15C
:10A4A00034F8B43C44F8A82C6BB13F499B1A91FB9B
:10A4B000F3F344F8A43CBAF1000F0DD115B0BDEC94
:10A4C000028BBDE8F08F394B1B88EEE7384B1A88BA
:10A4D000E6E7384B1888DEE7019D4146284662F0E2
:10A4E0006FF906F11E0E012117E0EB6823EA0B035A
:10A4F0001A43EA604B1E03EB83031F22062902FA6C
:10A5000003F90CFA03F329D86A6B22EA0902134310
:10A5100001466B63053676454ED0F378481CC0B2D1
:10A52000002BF7D096F801C03379ACF10A0202EBA8
:10A5300042024FF0070A0CEB4C09BCF1090F0AFA72
:10A5400002FB03FA02F20AFA09FACED82A6903FAE0
:10A5500009F322EA0A0213432B61CBE7CA1FA1F1D8
:10A560000D0302EB82024FF01F0A03EB83030C2959
:10A570000AFA02F90AFA03F10CFA02F200F28480F4
:10A580002B6B23EA09031A4301462A63C2E700BF83
:10A59000604C0020440607087C4B0020002301404B
:10A5A000E030FCFF00200140803801002E7AFF1FC0
:10A5B0002C7AFF1F2A7AFF1F019A0299936843F4AD
:10A5C00000739360936843F48073936093683C4492
:10A5D00043F0010393601746022014F9B12C49F0AF
:10A5E00081F9044600283FF469AF4668304649F0D7
:10A5F00067F92A4A431E242101FB032393F89C5048
:10A60000002D7FF45BAF039983F89D10062283F839
:10A610009C2000283FF452AF304649F051F95EF0DB
:10A62000EBFC60680BF04CFF05A80BF00BFFB8F1DA
:10A63000010F8CBF4FF480630023A2680B933B464D
:10A64000174801974C3305924FF400674FF480721E
:10A65000069307904FF4003360680A9505A94FF4FC
:10A660000056CDE90E23CDE90C76CDE908580BF064
:10A67000FBFE6268019F136843F001031360BB682F
:10A6800043F08043BB6019E7EA6A0CFA03F322EA5D
:10A69000010213430146EB623CE700BF8801002042
:10A6A000C04B00202DE9F84F2E4F00EB800407EB44
:10A6B000C40454F8906C2EB1054614F87B0C00F0DD
:10A6C000FF0820B14FF000084046BDE8F88F8946EA
:10A6D0009A46934645F0F6FE4FEA49010123C9B276
:10A6E00004F87A1C04F879BC04F8773C04F8768CFA
:10A6F00004F8783C04F87B3C04F87C8CB28844F87D
:10A7000074AC9105814644F870AC1DD43388DA05E9
:10A7100010D442F20F7405E045F0D4FEA0EB09031B
:10A72000A34215DC33889B05F6D433889BB243F4EF
:10A7300080733380B3889BB243F440734FF00108B9
:10A74000B3804046BDE8F88F98464046BDE8F88F94
:10A7500037F81C3C01339BB2284627F81C3C61F0BB
:10A7600057FCB1E7604C00200128B5EEC00A10D0BC
:10A77000F1EE10FA0BDD9FED177ADFED177AE0EEC0
:10A78000077AFCEEE77A17EE903A98B2704700200D
:10A790007047F1EE10FA0BDD9FED107ADFED107AC5
:10A7A000E0EE077AFCEEE77A17EE903A98B270473F
:10A7B000EDD5F7EE007A30EE270A9FED0A7ADFED4D
:10A7C0000A7AE0EE077AFCEEE77A17EE903A98B252
:10A7D000704700BF00E0F9440000404200C07944E7
:10A7E0000000834400C079C400E0824470B5464E46
:10A7F00016F81A4C04EB840306EB8303A50013F848
:10A80000183C032B6ED8DFE803F059291E022544BB
:10A8100006EB850555F8140C002870D196F83830F1
:10A820009C425FD0013404F00302934206F81A2CD4
:10A8300058D002EB820406EB8404022344F8140C83
:10A8400004F8183C70BD2B1906EB830353F8142C45
:10A8500072B1013A43F8142C002070BD2B1906EB9D
:10A86000830353F8142C002AF3D1022203F8182C86
:10A87000254406EB850515F80C3C013BDBB205F8D9
:10A880000C3C8BBB214B96F83860D3F8C01255F8BE
:10A89000100C621C02F003024B1E0324B24203445C
:10A8A00005F8184CB3FBF1F045F8140C1AD0994296
:10A8B00018D8013845F8140C012070BD4AF0A0FEEC
:10A8C00080B1124B2C44D3F8C02206EB8404012142
:10A8D00002F51C5304F8181C0F33B3FBF2F344F8D1
:10A8E000143C70BD012070BD084BD3F8C02201207C
:10A8F00002F2E733B3FBF2F345F8143C70BD0138C4
:10A9000045F8140C002070BD604C00208801002028
:10A910002DE9F84F3249DFF8D4B091F82D1E01240B
:10A920000229074619461046CBF82C404FF000028A
:10A930002C4C1D4618BF7F02FDF762FB2A4B636259
:10A940006B02A362E36A40F2FF5943F093034FF4B2
:10A9500000704FF48A62E3620121C4F83890A0606D
:10A960001020E2605DF0FEFA012D40F251434E46A8
:10A97000C4F83890CA4640F252488EBF4FF01209D0
:10A9800098464FF011090A25C4F838A00121A760A4
:10A990004846C4F80C805DF0E5FA03464FF0000C21
:10A9A00040F2774201213720A6632BB900231846D5
:10A9B000CBF82830BDE8F88FA663C4F808C0E26081
:10A9C0005DF0D0FA013DA6630028EFD015F0FF0539
:10A9D000DAD10346CBF82C50CBF82830BDE8F88FFD
:10A9E000683B0020002C014000E1F505702A0020A2
:10A9F0002DE9F843DFF8708098F86050042D044684
:10AA0000894617461E4608D0082D02D00020BDE812
:10AA1000F883FEF7C5FB0228F8D101234A462046F9
:10AA20000021FFF775FF68B1FEF742FCD8F84840F7
:10AA3000002CEBD00022D8F84C30D8F8401010464B
:10AA4000A047E3E7074BC8F83C90DA6EC8F84040EF
:10AA50000523C8E91276C8F8502088F86030012034
:10AA6000BDE8F883683B0020702A00202DE9F84FEC
:10AA70002F49DFF8C49091F82D1E1E4602292D4B58
:10AA800007464FF0010418BF4702012E40F2594813
:10AA90001C6398BF4FF48B683B469346474640F291
:10AAA000FF55B0468CBF4FF0190A4FF0180A0A2420
:10AAB0001E4640F2FF53C9F838300121C9F808603A
:10AAC0005046C9F80C705DF04DFA03464FF0000C8B
:10AAD00040F2774201213720C9F83850A3B95846CF
:10AAE00041460122FDF78CFA4646134A134B536246
:10AAF00076029662D36A43F09103D3620D4B002134
:10AB000008469962BDE8F88FC9F83850C9F808C0FE
:10AB1000C9F80C205DF026FA013CC9F8385000282D
:10AB2000DDD014F0FF04C4D1024B1C63BDE8F88FE4
:10AB3000683B0020702A0020002C014000E1F50550
:10AB40002DE9F047364C82B005460E46174698462A
:10AB500094F8600004280CD0082806D1A36DAB42FD
:10AB600007D0FEF71DFB0228F2D0012002B0BDE89D
:10AB7000F087DFF8B4A0E663DAF8249E2564C9F311
:10AB80004F210F294FEA592222D8E36D0193FBB1DF
:10AB900094F82E01E0B1B9F5005F13D02148314699
:10ABA0004FF40072484464F0D3FB09F50072C2F31D
:10ABB0004F211029CAF8242E4FEA522202D0019BBD
:10ABC000012B21D192B2013A164EAD1A0B4600E08C
:10ABD000012332462846062601250021A764C4F831
:10ABE0004C8084F8445084F86060FFF73FFF0028F1
:10ABF000BCD0FEF75DFBA66C86B12846E36C216CE9
:10AC00000022B0470320B1E7A26D013B01320421CD
:10AC1000C4E9162384F860100220A7E70320A5E703
:10AC2000702A00209C6D0020683B0020F0B52B4C62
:10AC30002B4BD4F8B82012695168994283B048D0A0
:10AC4000A3F57843994246D003F58063994214BF37
:10AC50004FF0FF31022101312248234F4AF02CF9F5
:10AC6000D4F8B8302148D3F8A830C4F8C43007F17C
:10AC70003C0207F14C03C4E952234AF059F900267B
:10AC80000346314601AA1748A4F8C030ADF8046065
:10AC9000FDF79EFD052045F0FDFD1248ADF804606E
:10ACA00001AA3146FDF794FD054620B19DF8053017
:10ACB0001E2B03D03546284603B0F0BD0C4A0D4B81
:10ACC00008480121C4E9292387F85C104AF04CFBAD
:10ACD000F1E70021BFE70121BDE700BFF800001048
:10ACE00000300140B4010010604C002080969800B4
:10ACF000B5AE060849B606082DE9F04F0C68BA4D06
:10AD0000013BAC4283B09BB200F07881A5F5806531
:10AD1000AC4200F0738105F58045AC425AD005F590
:10AD20008065AC4256D005F58065AC4252D0AF4E3E
:10AD30002588B76B7F08B7FBF2F6013EB6B2AAB220
:10AD4000B4F1804F0AD0AA4DAC4207D005F580651A
:10AD5000AC4203D005F58065AC4202D122F070020E
:10AD600092B2A44DAC4200F02A8105F58065AC4258
:10AD700000F0258122F4407205F56C4592B2AC4298
:10AD80002280E362268540F042810023238601254C
:10AD9000A5820B7A4A7913F0020600F0148100278D
:10ADA000DB0003F00803B84601973946BC46BE46AF
:10ADB0003D464FF480664FF0400A4FF0040B0C2ADA
:10ADC00011D8DFE802F0C9101010991010102110EE
:10ADD00010106900854E2588B66BB6FBF2F6013E71
:10ADE000B6B2AAB2ACE70C2A3ED8DFE812F0DF0018
:10ADF0003D003D003D00AC003D003D003D003D00FC
:10AE00003D003D003D007C00218C7B4F21F4807192
:10AE10000904090C2184218CB4F80490A58B89B213
:10AE200025F0730521F400712D044CEA01012D0C6D
:10AE3000BC4241EA0E211FFA89F945F0600500F095
:10AE4000EB8007F58067BC4200F0E6800023A4F8A1
:10AE50000490A583E3632184A38B23F008031B04E0
:10AE60001B0C43F00803A383B4F844306FEA434358
:10AE70006FEA53439BB2A4F84430238821469BB227
:10AE800043F0010321F8343B00238D18C0E900543E
:10AE90008B5003B0BDE8F08F238C574923F48053C7
:10AEA0001B041B0C2384238CB4F804C0A68B9BB218
:10AEB00026F4E64623F40053360448EA0305360C2C
:10AEC0008C4245EA0E3346F4C0461FFA8CF500F07A
:10AED000AF8001F580618C4200F0AA800021A5803E
:10AEE000A68321642384A38B23F400631B041B0C1F
:10AEF00043F40063A383B7E7258C3F4E25F010058C
:10AF00002D042D0C2584B4F820C0A788258B1FFAAA
:10AF10008CFC25F4E6452CF0200C2D0441EA0C01B4
:10AF20002D0CB44241EA0E11BFB245F4C04500F009
:10AF30008E8006F58066B44200F089800023A780E9
:10AF40002583A3632184238B23F400631B041B0C40
:10AF500043F40063238387E7218C274F21F001010D
:10AF60000904090C2184268CB4F80480B4F81890E4
:10AF700026F0020629F0730936044FEA09494EEA21
:10AF80000501360C4FEA1949BC4241EA06011FFA95
:10AF900088F849F060094FD0134DAC424CD00023E3
:10AFA000A4F80480A4F8189063632184238B23F011
:10AFB00008031B041B0C43F00803238354E722807F
:10AFC000E3622685E3E65B004FF4806103F0020E46
:10AFD0000191B2463346B3464FF480474FF4805850
:10AFE00010214FF4807CEAE600040140702A002022
:10AFF0000004004000100040000001401A4E258867
:10B00000B66BB6FBF2F6013EB6B2AAB2A6E6174B95
:10B010009C423FF4BAAEBAE621F4006141EA032350
:10B0200023F4806129F44059314349EA08090DE7C6
:10B0300025F480453D4351E74FF6F3760E4028F462
:10B040004078334348EA0C0843EA0B01A7E721F0B4
:10B05000800141EA031323F04001019B27F440677C
:10B0600041EA0A011F4369E7702A002000040140F9
:10B07000F0B5224E96F8687083B0384648F034FD3B
:10B0800096F89140054644B1D6F89440241AB4FA93
:10B0900084F46409204603B0F0BD384601225921EA
:10B0A0003DF000F807460028F4D00123C6F894507C
:10B0B00086F8913015B140F25913EB80797A284621
:10B0C000FEF7EAFC38685DF031FC0D4B0246A3FB4D
:10B0D0000213C3F30E35013DC3F3CF23ACB2013BE2
:10B0E0000094084839469BB2FCF7EAFF0124D6F8E1
:10B0F000803020461D6003B0F0BD00BF604C0020D2
:10B10000D34D6210E04C002070B5214DD5F8903140
:10B1100093F82620DAB11B699847E0B1D5F8903151
:10B1200093F824208AB105F5CA7600241A19E0B2F2
:10B130009B6992F82C10B6EC010A9847D5F890312B
:10B1400093F8242001349442F0DB5B69984795F82A
:10B15000A431312B00D070BD95F8A831002BFAD066
:10B16000D5F8903193F82430042B1E46A8BF04264E
:10B17000002BF0D00024074D234618465DF088FED2
:10B180000134E3B29E4245F8040BF6D870BD00BF0F
:10B19000F8000010A402001003681A78012A01D0F8
:10B1A0000020704793F90430044A03EB830302EB59
:10B1B000C30313F87B0CC0B2704700BF604C002083
:10B1C00010B50C4CD4F8D43E1B78022B10D1D4F817
:10B1D000DC0E49F0B5F9D4F8DC0E08B12323C380A6
:10B1E000012148F0E1FF044849F0A2FEA4F8D80E7E
:10B1F00010BD00BF683B002080969800054BD3F837
:10B20000D42E1278022A03D1D3F8DC0E49F0B0BC58
:10B21000704700BF683B002030B583B00D46012366
:10B2200001460DF10702044607484AF021F99DF84E
:10B23000072035EA020304D003482A4321464AF096
:10B24000A5F903B030BD00BF3C4A002038B5054623
:10B250000A460C460648294649F096FF45F080010B
:10B26000034849F08FFE231A5842584138BD00BFA9
:10B270003C4A0020F0B5374DD5F8D47E3E78022EFA
:10B2800095B004460B460FD0012E02D0002015B019
:10B29000F0BD97F9040095F8D81E00931346224696
:10B2A00061F036F915B0F0BD396A0029EED1CDE96B
:10B2B0000A320DF10F068DF80F0000220120002345
:10B2C000CDE90811CDE90E2305918DF81C100D91E3
:10B2D00010911291049606908DF830008DF844007C
:10B2E000EFF31180102383F31288D5F8D43E1B6A44
:10B2F00013B3069B04AC22461BB1D3691432002B56
:10B30000FBD13B6A13B3996839B993420AD01968E3
:10B3100029B15B6899680029F7D01433F3E70E4A26
:10B32000C3E90024C0B280F31188D5F8D42E136A83
:10B33000002BFCD10120AAE704ABC0B23B6280F332
:10B34000118805F6D4605FF0ABF9EEE7024A1A60A7
:10B35000FFDE00BF683B00203C4A002070B5036858
:10B360001D78022D14D0012D01D0002070BD04469F
:10B3700093F904000A4B421C83F89C50F5D0022834
:10B38000F3DC0A469C332179BDE87040FFF78AB9A7
:10B390001B6A002BE9D1012249F0F6FE012070BDA5
:10B3A000604C002013B53A4C0023D4F8AC208DF843
:10B3B0000730137803F0FD01012905D194F8B0108E
:10B3C00011B90C2184F8B010022B1ED0032B2ED003
:10B3D00001220B212F485AF02BFE042045F05AFA87
:10B3E0002C4801230DF1070200215AF043FE0028EA
:10B3F00039D09DF80730482B35D1274BC4F8A03001
:10B40000264BC4F8A43002B010BDD4F8B40049F003
:10B4100097F8D4F8B40008B13423C380012148F070
:10B42000C3FE1F4849F084FDA4F8B000D0E7D4F86B
:10B430005C35506846F2A8111961002380F8883005
:10B44000122237215AF0C8FDD4F8AC300D225868CA
:10B4500024215AF0C1FDD4F8AC30302258686A215A
:10B460005AF0BAFDB4E7D4F8AC301A78022A03D007
:10B47000032A07D00020C6E7D4F8B40049F078FBCF
:10B480000020C0E75868102237215AF0A5FDF1E7E7
:10B49000604C00200C4D0020D36006085561060862
:10B4A0008096980010B58CB000234CF2050204463B
:10B4B00001A9CDE90633CDE90833ADF800208DF8B8
:10B4C000023003220B930123CDE903128DF81430CF
:10B4D0008DF82830CDF808D049F040FF204602A969
:10B4E00049F06CFB204649F039FF9DF806000CB08E
:10B4F00010BD00BF2DE9F041614C82B0242204F65A
:10B500005C00002164F07EFE94F885780023C4F886
:10B510008038002F3CD15B4ED6F8D43063B39B6AA1
:10B5200053B359489847836833B303885748013B5E
:10B530009BB28446064600253178032906F10606AB
:10B540001ED00135062DF7D100220178022900F125
:10B55000060000F08F800132062AF6D1D4F8801858
:10B56000052909D0481C02FB01C2C4F8800802204A
:10B570000021938010705180384602B0BDE8F08100
:10B58000062303FB0545B5F85E38013B9BB2DBE7BC
:10B5900094F8840804F68C03C4F8883810B9394E3E
:10B5A0000027B9E748F0A0FAC4F8940818B18379E5
:10B5B00013F0BF0FF3D13648394649F07DFC804681
:10B5C0000028ECD0D4F888382F4A9868C3F8942023
:10B5D00008B12223C380092148F0E6FDD4F8883859
:10B5E000284E986848F0ACFF2A48D4F8885849F0AB
:10B5F0009FFC0123A8803220C6F8F45086F8F8306A
:10B6000045F048F90423D4F8880800250DEB03021F
:10B610009F21019549F064FD9DF805509DF8043087
:10B620009DF806102D0245EA03450D43294606F113
:10B63000D40059F0E7FC08BB2846FDF79BF9E8B9B0
:10B640009DF806509DF805209DF807302D0245EA2B
:10B6500002451D43294606F1D40059F035FB68B96F
:10B660002846FDF787F9074640B994F8840849F061
:10B670009FFA51E7062101FB02C278E747464BE7F4
:10B68000604C0020683B00203C3C0020BC54002063
:10B69000EC540020404B4C002DE9F04F0646044688
:10B6A00016F8010B87B0002800F04B838B4600256D
:10B6B00009E014F0CFFB01353446264616F8010B9D
:10B6C000002800F088802528F3D16278302A00F025
:10B6D000D78002340027A2F13001CBB2092B4FF002
:10B6E00000035ED96C2A7AD0782AE6D8572A64D922
:10B6F000A2F158012029E0D801A050F821F000BFA4
:10B70000BDB90008BBB60008BBB60008BBB6000850
:10B71000BBB60008BBB60008BBB60008BBB6000845
:10B72000BBB60008BBB60008BBB60008FFB80008EF
:10B730000DB90008BBB60008BBB60008BBB60008D0
:10B74000BBB60008BBB60008BBB60008BBB6000815
:10B75000BBB60008BBB60008F7B80008BBB60008C7
:10B76000BBB60008BBB60008BBB6000893B800081B
:10B77000BBB6000867B90008BBB60008BBB6000836
:10B78000BDB90008BCF1050FACD8A2F137010A29F8
:10B79000A8D114F8012B03EB830301EB4303A2F1BF
:10B7A0003001C8B20928A2F16106A2F1410CF0D91A
:10B7B000052EE7D8A2F15701E9E762B1252A7FF407
:10B7C0007CAF2646252014F045FB16F8010B013509
:10B7D00000287FF478AF284607B0BDE8F08F14F852
:10B7E000011B78293FF669AF57294DD9A1F15802BD
:10B7F000202A3FF662AF01A050F822F0CFBA00082D
:10B80000BBB60008BBB60008BBB60008BBB6000854
:10B81000BBB60008BBB60008BBB60008BBB6000844
:10B82000BBB60008BBB60008FFB800081FBA000886
:10B83000BBB60008BBB60008BBB60008BBB6000824
:10B84000BBB60008BBB60008BBB60008BBB6000814
:10B85000BBB60008F7B80008BBB60008BBB60008C6
:10B86000BBB60008BBB6000893B80008BBB600081A
:10B8700079BA0008BBB60008BBB60008CFBA00080A
:10B88000A2780127033426E70029A4D0252998D0DF
:10B8900013E75BF8048BB8F1000F00F045824646D1
:10B8A00016F8010B002800F04E82CBB1324600E0C2
:10B8B000B3B112F8011B1F46013B0029F8D1023F2A
:10B8C00073B1B946202014F0C5FA4B46002B09F19C
:10B8D000FF39F7DC98F8000027EAE773013340B13D
:10B8E00001339F1B14F0B6FAF31916F8010B002868
:10B8F000F8D11D44E1E65BF8043B1D60DDE65BF832
:10B90000040BC0B2013514F0A5FAD6E6DBF800004E
:10B910000028C0F25481EC46092806464FF0010287
:10B9200009DD02EB82025200B0FBF2F10929F8D8DE
:10B93000002A00F09181D248A0FB02E1B6FBF2F0B0
:10B9400009288E4600F1570900F130084FEAD1016D
:10B9500040F27981092A0CF8019B02FB106640F243
:10B960007B810A46E7E7DBF800C0BCF1090F4FF026
:10B97000010209D902EB82025200BCFBF2F1092953
:10B98000F8D8002A00F0A6816E46B646BC48A0FB57
:10B990000281BCFBF2F00928884600F1570A00F149
:10B9A00030094FEAD10140F3B581092A0EF801AB05
:10B9B00002FB10CC40F290810A46E7E75BF804CB2B
:10B9C000BCF10F0F4FF0010140F2D8810901BCFB1F
:10B9D000F1F00F28FAD8002900F0CB816E46B0466E
:10B9E0000EE0582A0CBF4FF0370E4FF0570E86442A
:10B9F00001FB10CC090908F801EB0CD0BCFBF1F0FD
:10BA00000928EEDC4FF0300E864401FB10CC09090A
:10BA100008F801EBF2D1002288F8002097E05BF8EB
:10BA2000040B0028C0F28681EC46092806464FF038
:10BA3000010209DD02EB82025200B0FBF2F109299A
:10BA4000F8D8002A00F057818D48A0FB02E1B6FB30
:10BA5000F2F009288E4600F1570900F130084FEA4C
:10BA6000D10140F23F81092A0CF8019B02FB1066CC
:10BA700040F241810A46E7E75BF804CBBCF1090FCD
:10BA80004FF0010209D902EB82025200BCFBF2F135
:10BA90000929F8D8002A00F099806E46B646784801
:10BAA000A0FB0281BCFBF2F00928884600F1570A8E
:10BAB00000F130094FEAD10140F32181092A0EF843
:10BAC00001AB02FB10CC40F283800A46E7E75BF84B
:10BAD00004CBBCF10F0F4FF0010240F24D81120177
:10BAE000BCFBF2F00F28FAD8002A00F03F816E4626
:10BAF000582931461DD007E002FB10CC120901F88D
:10BB0000018B22D0BCFBF2F0092800F1570800F1AC
:10BB1000300EF1DC02FB10CC120901F801EBF1D17F
:10BB200013E002FB10CC120901F8018B0DD0BCFB15
:10BB3000F2F0092800F1370800F1300EF1DC02FBC9
:10BB400010CC120901F801EBF1D100220A709DF826
:10BB50000090002F14BF4FF030084FF02008B9F1CB
:10BB6000000F00F0FE800DF1010211460BB91AE042
:10BB7000CBB111F8010B1F46013B0028F8D1023F61
:10BB80008BB1BA46404614F065F95346002B0AF1D2
:10BB9000FF3AF7DC27EAE7730133B9F1000F3FF40E
:10BBA000A8AE0DF1010217469E1B484614F052F94B
:10BBB000BB1917F8010B0028F8D11D447DE52D2293
:10BBC00040428DF800200DF1010CA5E66E46B64608
:10BBD00000228EF800209DF80090002F14BF4FF037
:10BBE00030084FF02008B9F1000F00F0B5800DF1DA
:10BBF000010211460BB91AE0CBB111F8010B1F4637
:10BC0000013B0028F8D1023F8BB1BA46404614F000
:10BC100021F95346002B0AF1FF3AF7DC27EAE773D4
:10BC20000133B9F1000F3FF464AE0DF10102174684
:10BC30009E1B484614F00EF9BB1917F8010B00289B
:10BC4000F8D11D4439E5092A0CF8018B02FB106676
:10BC50004FEADE013FF685AE00220BF1040B8CF8B3
:10BC600000209DF80080002F14BF30272027B8F156
:10BC7000000F6DD00DF10102114623B91DE000BF88
:10BC8000CDCCCCCCCBB111F8010B1E46013B00282A
:10BC9000F8D1023E8BB1B146384614F0DBF84B4682
:10BCA000002B09F1FF39F7DC26EAE6730133B8F11E
:10BCB000000F3FF41EAE0DF101026E4617469E1BAB
:10BCC000404614F0C7F8BB1917F8010B0028F8D14B
:10BCD0001D44F2E46E46B64600220BF1040B8EF8CA
:10BCE000002078E7092A0CF8018B02FB10664FEA66
:10BCF000DE013FF6BFAE00228CF80020B1E7092A32
:10BD00000EF8019B02FB10CC4FEAD8017FF660AF22
:10BD10000A46C4E6092A0EF8019B02FB10CC4FEA42
:10BD2000D801D9D90A4631E6DFF85480282008F135
:10BD30000106BAE52D2240428DF800200DF1010CDC
:10BD400073E6054647E55F1E002B7FF4BAADB4E409
:10BD50005E1E002B9FD1B0E45F1E002B7FF455AF19
:10BD6000ABE45F1E002B7FF40CAFA6E46E463146B9
:10BD7000EBE66E46B0464EE66046B8E660462DE617
:10BD8000E89607082DE9F041C54BC64EC64DC74C95
:10BD90000822C3F88820336B82B043F00103336379
:10BDA00007464FF4C052284640F20233884669469F
:10BDB000CDE900230AF026FD6B6AC4F8088F23F44E
:10BDC00070436B626B6AC4F8107F43F420436B626C
:10BDD0006B6AB749C4F80C1F23F470236B626B6A5B
:10BDE000B448C4F8240943F420236B62736CB2494D
:10BDF000C4F8281943F480437364736BAF48B049A7
:10BE0000C4F8340943F0800302257363AD4F84F80E
:10BE10002C59AD4EAD4DC4F878194FF0A043C4F87D
:10BE20003039AB4AC4F8407903F53463A1F5D071D9
:10BE3000C4F87C59C4F84469C4F88039C4F8481976
:10BE40000123DFF8BCC2C4F83CC907F51077A5F59B
:10BE5000E465A6F5A066A1F58C61C4F88479C4F800
:10BE60003859C4F8F06984F82F3905F5A075536185
:10BE700006F5B076C4F8B41984F8363A1946954BED
:10BE8000954AC4F8BC59A7F5BC67A035C4F8C86981
:10BE9000924EC4F8C479C4F8CC3907F5D45703F5E9
:10BEA0006953C4F8D0594FF050250020DFF854E210
:10BEB000C4F8F429ACF5687C02F5A042C4F8F8791E
:10BEC000C4F8FC6907F5A04706F5A046C4F8003A97
:10BED000C4F8045AA3F5485304F62415C4F8082AF4
:10BEE000C4F8106AC4F8303AC4F8B8E9C4F8C0C954
:10BEF0000246C4F80C7A2B4684F8380A402683F8A8
:10BF00001C21A3F822210132042AC3E9496083F8E5
:10BF10001D1183F81F01C3F8300103F12803EED18E
:10BF2000002211462B46402083F87423A3F87A237D
:10BF30000132042AC3E9DF0183F8751383F877130C
:10BF4000C3F8881303F12803EED14FF0A0436448EF
:10BF50009A6822F001029A60DA6842F04002DA60E0
:10BF600009F00EFD94F82D390022212161F31742CA
:10BF70000BB142F4801294F82719D4F83039012912
:10BF80009A6300F0E480DA68D4F8306AD4F83409AF
:10BF9000C2F3076121F0600141F0400161F31F62CB
:10BFA0000021DA603160026861F3CC22026094F80B
:10BFB0002F29012A00F0B88010214A480AF032F8EF
:10BFC00048480AF015F8D4F8340994F825390022C5
:10BFD0004FF0FF31026142618161C26153B305F1EB
:10BFE0001407414E114607EB83074FEA830C4FF0CD
:10BFF000FF0E56F8042F1368002BACBF00234FF040
:10C000009043B74213601161C2F808E0F1D105F125
:10C010005003364963440027FF2651F8042F156862
:10C02000002DACBF00254FF0904599421560176177
:10C030009660F2D1036994F8271943F480730129BB
:10C04000036161D0D4F83029294800239361002985
:10C050004FF0FF336FF0804151615360516114BF65
:10C0600000231023906143F470139069D4F80C1FDF
:10C0700043F4605343F008030343936193680968F2
:10C0800043F00103936088471A4B1B4ADA60684605
:10C090001A4B0093FDF740FB02B0BDE8F08100BFF2
:10C0A00000E100E00038024000000240604C002047
:10C0B0004C0400200804010040004001000800502A
:10C0C000000B00502009005040090050200B005088
:10C0D000003C0140C00500500010005000300050EE
:10C0E000905500208455002098550020D4550020FC
:10C0F0000008008000ED00E00005FA0543020001A1
:10C100000009005020050050D4F83029144B036377
:10C110006FF08041134D00234FF0FF309361516168
:10C120005060516195619EE701680F4A0F4E41F0E2
:10C1300003010160802159629E62C3F80421E0225C
:10C14000C3F80821C0F24002C3F80C2134E79A6812
:10C1500022F03E0141F02A0161F307029A6012E7E2
:10C160000301810000080080A00040008000200042
:10C1700010B51A4C94F8190FC0B9194B83F88D00FB
:10C18000C3F8900094F81C3F012B05D0022B21D05E
:10C19000D4F8203F1BB910BD124BC4F8203F124900
:10C1A0005B68BDE81040A1F10C00184747F09CFC0B
:10C1B00094F81B2F0A49003A18BF012281F88D20FC
:10C1C000C1F890000028DDD02122C280202147F054
:10C1D000EBFFD7E7054BC4F8203FE0E7604C0020B9
:10C1E000702A00208C040020845B0020680400205A
:10C1F00099B10A6B824216D9154BD3F8642F91423C
:10C2000021D35C3991421ED30B6B9842F9D38B6BCF
:10C210009842F6D80B46184670470D4BD3F8641F6A
:10C220000A6B904212D30B680BB9F4E70A6B904289
:10C230000B4602D38A6B9042EDD951F85C3F002B3C
:10C24000F4D1184670470023184670470A46D8E7CD
:10C25000604C00202DE9F047CC0143D10346224A2F
:10C2600043F8082B4FF0FF324260022418467E2626
:10C27000DFF87880D8F8689F2644013E051D4946BE
:10C280006FF070474FF0010A08E0A3421CD0631C16
:10C2900045F8043C321B1C460435CAB10B6BA34263
:10C2A00002D88B6BA34204D22046FFF7A1FF0146C0
:10C2B00090B10A794B6B002AE7D1A34204D0E6D2B1
:10C2C00045F8042C631CE5E745F8047C631CE1E7B2
:10C2D000C8F8681FBDE8F08745F804AC321B631C42
:10C2E0004946D8E78026C3E7F8FFFF0F604C0020DF
:10C2F00070B4447941BB03684FF400524FF40076A8
:10C30000202502213CBB1A8C22F001021204120CDF
:10C310001A841A8B188C22F0F30280B2120420F0D7
:10C320000A00120C014342F0010241F001011A839C
:10C3300019841A8B22F00C021204120C1A831A8B25
:10C3400092B270BC1A8370470022036816461546E5
:10C350001146002CD7D0042C21D0082C38D0198CB1
:10C3600021F480510904090C19849C8B1D8C45F61D
:10C37000FF7040F6FF4128402140024342F48052C2
:10C3800041F4807199831A849A8B22F440621204DA
:10C39000120C9A839A8B92B270BC9A8370471A8C53
:10C3A00022F010021204120C1A84188B198C89B214
:10C3B00040F6FF4221F0A00102400D4342F480729A
:10C3C00045F010051A831D841A8B22F44062B3E7EE
:10C3D0001A8C22F480721204120C1A84998B1A8C13
:10C3E00021F0F30192B2090422F42062090C3243D5
:10C3F00042F4807241F0010199831A849A8B22F0F1
:10C400000C02C4E710B5044600680AF0FFF80C4BB4
:10C410009A6B204652084FF6FF713BF06FFC2046A6
:10C420000021FFF765FF0749074BC1F80C3D204687
:10C430000022BDE8104001F60C513BF0DDBB00BF0F
:10C44000702A0020683B0020C9BA01080E4A10B5C6
:10C450000E4CC2F8844F0E4CC2F87C4F00230D4C9A
:10C46000C2F8700FA2F8741FC2F8783FA2F8763FA6
:10C47000C2F8804F82F8883F282202FB03F403535E
:10C4800001339942F9D110BD604C002040420F00A9
:10C4900020A10700A01CE9FF10B5104C104BC4F8F8
:10C4A0008C3F0121002304F68C7084F8983F84F8B7
:10C4B0009B3F84F89D3F0FF0A7FFD4F88C3F5B6C47
:10C4C0000121FF2284F8991F84F89A2F23B104F6E2
:10C4D0008C70BDE81040184710BD00BF604C0020B4
:10C4E0005C0607080449054A054B8360C0E9001251
:10C4F0000C304DF039BD00BF699F0508FD8B050864
:10C50000A98B05082DE9F04FB44CB54AB4F8D01109
:10C51000B4F8CE312DED088B07EE901A0AEE903A62
:10C5200092F8A13FDFEDAFBA9FEDAFBAB8EE67AAC0
:10C5300007EE903AB2F8A23FF8EEE77AF2EE046A1C
:10C540000A2B87EEA67AB8BF0A2385B004F68427A3
:10C5500004F66C6A04F6846604F5AC5B07EE903A68
:10C56000B2F8A43F87ED007A08EE103AF8EEE78AB9
:10C57000B8EEC88AB6EE009AF4EE488A2AEE090AA6
:10C58000F1EE10FAC8BFB0EE688A92F8A03FC7ED8E
:10C59000018AB4EEC80AF1EE10FAD8BFB0EE408AB4
:10C5A000082B4FF00002A8BF0823B1F57A7F38BFEF
:10C5B000134680EE080AC4F8942AC4F8903A87ED2E
:10C5C000028A61F071FAF7EE009AB4EE690AF1EEB0
:10C5D00010FA48BFB0EE690AFDEEC07AF8EE6AAA1A
:10C5E000B8EEE77A17EE905ACAEE8A7A04F65C63E0
:10C5F000C4F8585EDFED7DAA67EE877AC9EEA76AB8
:10C60000DFED7B7AC3ED006ACAEE076A04F5666364
:10C6100086EEA7AA88EE8A0A83ED00AA61F0C4FA22
:10C620000228B8BF022088EE0A0A8046C4F8640EC9
:10C6300061F0BAFA2328A8BF2320B8F1230FA8BFBE
:10C640004FF023084045C4F8680EB8BF4046A0EB41
:10C650000802012DDAED007A9FED668A664981466F
:10C66000B8BF01250132F5EE407AF1EE10FA2BD178
:10C6700062480195002302961D46064607EE905A31
:10C68000B8EEE7AA03922AEE2BAA0135B0EE4A0AC9
:10C6900061F0C2F9F0EE408AB0EE4A0A61F056FB52
:10C6A000E0EE088A242D5449039A68EEAA8A20EE07
:10C6B0002A0AC6ED008A86ED010A06F10806DDD1D8
:10C6C000DDE90156F0EE4B7A002346E9053892FB8E
:10C6D000F5F046F80C9C46F8080C46F8045C304629
:10C6E0000133482BA0EC018AFAD1D1F858E1D1F8F6
:10C6F0005CC106F59073002001302428C3F800E0E7
:10C70000C3F804C003F10803F6D106F515765E45BB
:10C71000A9D1DFF8F090DFED3A8ACAED007A002661
:10C72000BD19CA464FF00008D4F8903A984548DA47
:10C7300007EE908A97ED016AF8EEE76AD7ED027A84
:10C7400036EE897A77EEC67A67EE877A07EE103A88
:10C75000B8EEC77AB4F8CE3187EE870A30EE060A13
:10C76000B5EEC00AAAEC010AF1EE10FA97ED001A34
:10C7700085ED208A85ED1F8A85ED1E8A85ED1D8A4F
:10C7800011DD83B1A6EEA81AB5EEC01AF1EE10FACB
:10C7900009DD07EE903A0421F8EE670A05F174000E
:10C7A00050F0E8FF09E0C5ED219A85ED228A85ED7C
:10C7B000238A85ED248A85ED258A08F10108243530
:10C7C000B2E706F59076B6F5587F09F12009A7D1B2
:10C7D00005B0BDEC088BBDE8F08F00BFF80000107D
:10C7E000604C0020C3B8B23DBC297E3F72F97F3F48
:10C7F00000009042000000004C050708641600107D
:10C80000CDCC4C3E900B00102DE9F04F2DED028B5E
:10C81000DFF8D4816D4CDFF8D4A1DFED6D8A9FED98
:10C820006D8A85B00127FEB218F8010B32465721F8
:10C830003BF038FC0546002800F09E80D0F800B0A0
:10C84000A0600123BBF1804F04F8303C00F09F80D2
:10C85000614B9B4500F09B800023584604F82F3C19
:10C860005CF064F807EE900AF8EE677A4FF4807394
:10C8700044ED0A7ADFF8789144F8103C4FF4005206
:10C880000023584644E9062344F8083C5CF04EF87F
:10C8900099F8AE3F44ED088A07EE903AAAFB0030C3
:10C8A000F8EE677AC308012218F8010C44F80C3C32
:10C8B00004ED0B8A44ED097A24F81C2C24F81A2C78
:10C8C00047F012F9E06010B15723C671837199F8EF
:10C8D000AC3F012B78D0022B0CBF422102216A7A97
:10C8E00047F0C8F928685CF021F801462846FCF7B3
:10C8F00035FF14F82F3C002B58D02146374B41F818
:10C90000043D002228463BF077F999F8AD3F2868AE
:10C91000002B4FF0010914BF00230223CDF808902B
:10C92000ADF8063004236A79ADF804200DEB03015D
:10C93000ADF80C3009F060FC54F8103CA2682849AE
:10C94000126891F89416013E013B9BB2F6B2138532
:10C950004FF0FF3500234FF40050B142D562A2F8EA
:10C96000149044E9060324F81C9C24F81A9C44F80B
:10C97000083C01D13AF0F4FE0137052F04F14004E0
:10C980007FF451AF05B0BDEC028BBDE8F08F4FF0E6
:10C990000109584604F82F9C5BF0C8FF07EE900A87
:10C9A000F8EE677A4B4644ED0A7A63E70D48DFF804
:10C9B00044C044F8040C2246211F28466360C4F892
:10C9C00000C03BF019F9A0E7222188E7B417001056
:10C9D00000401C4600000000000C0040D971040813
:10C9E000F011001001730408085C00201F85EB5152
:10C9F000604C0020857704080C480D4BD0F8C81F08
:10CA000010B40C4CC0F8B83F8A1E2231B0F8D43FA5
:10CA10001B01A4FB03C3DB08A3F5B06322F8023FAC
:10CA20009142F3D15DF8044B704700BF604C002089
:10CA3000B9510208CDCCCCCCF0B5284C85B004F669
:10CA4000E4730546C4F8C83FFFF7D6FF244A254BD8
:10CA5000C4F8BC2F1A21402084F8B21FC4F8C03F8C
:10CA600035F090FB002836D01F4C90F9040014F8E4
:10CA7000D73C14F8D67C14F8D56C1C4A002D14BF92
:10CA80004FF4E1314FF4E121002B14BF02230023C6
:10CA9000002F14BF30250025002E18BF43F00103DE
:10CAA0002B430325CDE9015300910023402135F0AC
:10CAB000C6FB44F8C00C48B10D480CF0B1FE14F8A8
:10CAC000BB3C04F8BC0C0BB904F8BB5C54F8C00CBC
:10CAD000003818BF012005B0F0BD00BF604C002039
:10CAE0008DAB0208C1BF0208585D0020E543020873
:10CAF00009C2020830B5402085B035F043FB38B399
:10CB0000154C90F9040014F8D71C14F8D63C14F80E
:10CB1000D55C124A002914BF02210021002B14BF4A
:10CB200010230023002D18BF41F001010B43032502
:10CB30004FF4E131CDE9015300910023402135F05C
:10CB40007EFB44F8B80C08B1054B436305B030BD1B
:10CB5000014B43F8B80CF9E7585D00205D48020826
:10CB6000A547020870B5084C251D2E4614F8010B88
:10CB700032F07AF928B1037905F8013BB442F5D1D6
:10CB800070BDFF23F8E700BFA45C00202DE9F0474B
:10CB90001D4F012607F10805B2464FF03B094FF043
:10CBA000000817F8010B46F09FFF044690B180F88B
:10CBB0000690C671FB7803F07F02012A18D013F0AB
:10CBC000800F20460DD185F8048047F0B3FC85F82E
:10CBD00005802C600136052E05F10805E1D1BDE880
:10CBE000F08785F804A047F0ABFC85F805A0F0E7D6
:10CBF0001B0605D40121204647F0D6FAFB78DEE774
:10CC000047F09EFCF6E700BFAC5C0020184BA3F198
:10CC1000600210B443F86C2CEFF31181102282F300
:10CC20001288002243F8202CC9B243F81C2C03F8C8
:10CC3000182C03F8142C81F311885A79997943F848
:10CC4000100C002A14BF02220022002914BF302138
:10CC500000210A431220074C03F8040C064903F88C
:10CC60000C2C43F8084C01205DF8044B1960704708
:10CC7000585D002035A20308C5A503083D4BB3F855
:10CC8000CE3107EE903A2DE9F041FAEEEF7A2DED34
:10CC9000048BB4EEE70AF1EE10FADFED378AB0EE5E
:10CCA000408AF0EE419A06DDF4EEE70AF1EE10FA62
:10CCB0004BD5B0EE678AB5EEC08AF1EE10FA49DDC9
:10CCC000F5EEC00AF1EE10FA44DDF4EEC80AF1EE1A
:10CCD00010FA3FD560EEE07A20EE887AE8EE087A26
:10CCE00087EE279A254E264FDFF89880044600F1FC
:10CCF0009005C4E901872660B5EEC08AF1EE10FA0E
:10CD0000C4ED068AC4ED058AC4ED048AC4ED038A25
:10CD100023DDF5EEC09AF1EE10FA1EDDB5EEC09AF5
:10CD2000F1EE10FA19DD0421B0EE491AF0EE690AAD
:10CD3000B0EE480A04F10C0050F01CFD3034AC4257
:10CD4000D7D1BDEC048BBDE8F081B0EE688AB0EEBF
:10CD5000689AC7E79FED089AC4E74FF07E53E361F6
:10CD6000C4ED088AC4ED098AC4ED0A8AC4ED0B8AB1
:10CD7000E4E700BFF800001000000000458C050843
:10CD8000A98B0508FD8B05080A44914215D030B4E3
:10CD900041F2210511F8014B082380EA042010F428
:10CDA000004F85EA40040ABF4000A0B280B2013BB8
:10CDB000F5D18A42EED130BC7047704770B5644CF3
:10CDC000644D2369D4E902122DED068B41EA02007D
:10CDD0000126184384B085F828636FD009B209EEA4
:10CDE000101A12B2DFED5C7A1BB2B8EEC99A08EEE7
:10CDF000902A08EE103A29EE279AF8EEE88AB8EE63
:10CE0000C88A0023B0EE490A85F8283368EEA78A5D
:10CE100028EE278A60F000FEF0EE407AB0EE490A74
:10CE2000B0EE679A60F092FFB0EE40AAB0EE680AEA
:10CE300060F0F2FDF0EE407AB0EE680AF0EE678A3C
:10CE400060F084FFF0EE409AB0EE480A60F0E4FD36
:10CE5000F0EE407AB0EE480AB0EE678A60F076FFF6
:10CE600069EE085A29EE006A6AEE006A2AEE087A2C
:10CE7000B0EE655AA9EEE65AE9EEE56AF0EE465ADA
:10CE8000E9EE875AA9EE867A60EE687A29EE289A4A
:10CE900028EE888A68EECA8AC4ED129A84ED145A84
:10CEA000C4ED166AC4ED117A84ED189A84ED108AE7
:10CEB000C4ED158AC4ED135A84ED177A6369012213
:10CEC00085F8292333B9B4F918302BB904B0BDEC77
:10CED000068B70BDB4F91830B4F91400B4F91620FB
:10CEE0001E4C9FED1D6A1E4984FB00C6C017C0EB97
:10CEF000A60084FB02C684FB03C4D217DB17C2EB77
:10CF0000A602C3EBA40312B200B21BB207EE102AB2
:10CF100006EE900A07EE903AF8EEE66AB8EEC77AA7
:10CF2000F8EEE77A66EE866A27EE067A67EE867A8C
:10CF3000002301A8CDED016A8DED027ACDED037AD3
:10CF400085F8293350F076FA04B0BDEC068B70BD3D
:10CF5000585D00208801002035FA8E3C67666666C1
:10CF6000745D00202DE9F041204E214F96F8673086
:10CF700087F8A03F643607F6A47500244FF0050833
:10CF800016F8010B20BB28600134032C05F10405C1
:10CF9000F6D197F8A01FD7F8A40FC94301F00101FB
:10CFA00047F0D4FA97F8A01FD7F8A80F81F0020134
:10CFB000C1F3400147F0CAFA97F8A01FD7F8AC0FA9
:10CFC00081F00401BDE8F041C1F3800147F0BEBA31
:10CFD00046F08AFD013401212860E3B210B180F8E7
:10CFE0000680C371286847F0DFF8CEE7585D00205F
:10CFF000683B0020036870B55E6A26B1334625227F
:10D00000BDE87040184704460D4601F1250600E0D2
:10D0100023689B68204698470028F9D0236815F8B4
:10D02000011B1B6820469847B542F1D170BD00BF77
:10D03000036870B55E6A26B133461922BDE87040B8
:10D04000184704460D4601F1190600E023689B6865
:10D05000204698470028F9D0236815F8011B1B6863
:10D0600020469847B542F1D170BD00BF2DE9F0418F
:10D07000284C294DB4F86C60A5F8B06F82B0EEB9B9
:10D0800094F8680046F030FD94F86920C5F8B40FB4
:10D09000003A18BF012285F8B22F48B194F86A10FF
:10D0A0002C22002914BF11210121C28047F07CF8F5
:10D0B000002002B0BDE8F04147F050BA94F8688013
:10D0C000002240462C213AF0EDFF0746404646F04C
:10D0D0000BFDD8B1D7B12C22C5F8CC0FC280797A1C
:10D0E000FCF7DAFC0D4AB2FBF6F3C3F34F000090F5
:10D0F0009BB2394605F6B870A4F86E60FAF7E0FF07
:10D10000D5F8B82F0023136085F8C93F02B0BDE8F9
:10D11000F08100BF585D0020683B002040420F00B6
:10D120002DE9F84F244C94F87C3084F8703004F1E9
:10D130007307002690345FFA86FB0BF101085FFA53
:10D1400088F8012117F8010F42460E448A463AF04A
:10D15000A9FF4FF00009054638B3387804F80E9C53
:10D1600004F80D9C04F80FBC04F810AC44F8045CFF
:10D1700046F0BAFC18B180F806A080F80780697AFA
:10D18000FCF78AFC0D492846FCF7E8FA0C4B2360B3
:10D190000C4B221D21462846C4E901393AF02CFDEA
:10D1A000697928684A462EF025FE082E04F11C04F1
:10D1B000C1D1BDE8F88F00BF585D002040420F008C
:10D1C0002DBE0308A992030870B52B4C2B4B94F885
:10D1D000A801C4F8A03100220221C4E95822C4F8F1
:10D1E0006821C4F89C21A4F8A4213AF05BFF002830
:10D1F00034D0234B0668054603F170015A7C12B106
:10D200005A6896422BD01C338B42F7D1002394F8F6
:10D21000A801C4F88C5084F8803046F065FC08B151
:10D220000223C380697AFCF737FC28461549FCF7CE
:10D2300095FA154A1549C4F890100026111F284682
:10D24000134BC4F89430C4F898603AF0D5FC69796F
:10D2500028683246BDE870402EF0CCBD70BD304627
:10D260005BF064FB328D0B4992B2531CB0FBF3F0C0
:10D2700081F82A03CAE700BF585D002000FFFF00C5
:10D280002801001040420F00EC5D0020D1920308FD
:10D290006D940308880100202DE9F04FC24D95F8E8
:10D2A0000A710A2F85B0834633D8012404FA07F2A5
:10D2B00040F2EF531A422CD0DFF8F8827B1F032B89
:10D2C00088F8884730D9002388F8F836FBF7DCFB6C
:10D2D000B64EC6F89001D6F89031002B00F093803E
:10D2E0000022012183F824B083F8251083F826203A
:10D2F0009A62BBF1000F09D02C33AD4A03EB0B004F
:10D3000012F8011B03F8011B9842F9D105B0BDE8E2
:10D31000F08FA84B053F0022032F83F888276DD993
:10D32000A24E83F8F826D6E795F8133188F8F84628
:10D33000012B00F08F80022B71D09F4BDFF8A4C22D
:10D3400003931C46BCE80F000FC4BCE80F000FC4D9
:10D3500095F812E1DCF80020944E2260BEF1000244
:10D3600018BF0122954B86F8A821072FC8F8D83698
:10D3700000F2FB80042F00F23B81914BDFF86892B2
:10D380000093002402965FFA84FA0AF10107FFB2C3
:10D39000A3453A464FF0030104F1010429DD00984A
:10D3A00010F8013B0090184601933AF07BFE019B78
:10D3B00006461846002E00F0DF8046F095FB034637
:10D3C00051463046C9F814301BB14FF003029A7130
:10D3D000DF71337A95F80A215BF0C6FF002800F070
:10D3E000CB804FF00103042C89F8113009F11C099E
:10D3F000C9D1DDE90263C6F890316CE701226B4EBA
:10D4000083F8F82667E76F4D6F4C0FCD0FC40FCD33
:10D410000FC42B6844F82039C6F8904176E795F898
:10D420001231002B89D0082F14D1DFF8B8C15F4E1C
:10D43000BCE80F0008F5D96703970FC7BCE80F00D9
:10D440000FC7DCF800205D4B3A6086F8A841C8F8A9
:10D45000D8368DE0DFF894C15C4C95F81251534EEC
:10D46000C8F8FCB6BCE80F000FC4BCE80F000FC43E
:10D4700000216D1A564ADCF8003044F8503B18BFC2
:10D48000012586F8A851154602F5F0704FF44C724C
:10D4900085F8DC7185F8AA110F4662F0B3FE484B9F
:10D4A00006F13009CDE9003BBB46D8F8FC365B45B8
:10D4B00054DD009B13F8015B009328463AF078FE98
:10D4C0008246284646F010FB9AF80870404B96F8C2
:10D4D000A81107F0010A0AF1010A054683F8A9A17B
:10D4E00009B187F00107002D4FD0A97911F0BF0FC6
:10D4F00010D0384AC8F8B026374A384BC8F8AC269E
:10D50000334AC8F8A836012382F8AA31DDF804B0FE
:10D51000002370E7284647F077F84FEA4A110BF1ED
:10D52000010B41F009014FF0030361616060E560A8
:10D53000277485F807B0AB71284646F035FEFB0727
:10D5400028460FD546F0F6FFE368C9F81430BBF162
:10D55000040F04F1200409F11C09A6D1DDF804B080
:10D560001A4B48E746F0ECFFEEE7082F7FF405AFD3
:10D570001B4BC8F8003700E7174B164AC8F8DC36D3
:10D58000029EC8F8E026002335E7284647F03CF81D
:10D590004FEA4A1A4AF009010BF1010B6161606020
:10D5A000E5602774C8E700BF683B0020F800001062
:10D5B000743C0020F0110010B8180010356E0608F9
:10D5C0007D3C0020AC060708045F0020881800108E
:10D5D000585D0020E1140508E5140508E914050864
:10D5E0004D150508D006070828010010F4060708A5
:10D5F00095F81131064AC8F80027012B05D0022BF7
:10D6000006BFBEFA8EF35B09002388F80437B4E640
:10D610007D150508F8B56F4F17F8C90C17F8C85CE9
:10D6200046F062FA60B12D23C3802021044646F003
:10D63000BBFD0A203BF08AF8204646F0DBFF18B914
:10D64000D7F81035DA0000D5F8BD013D092DFBD81B
:10D6500017F8CA4CDCB9402034F094FD0028F3D010
:10D6600090F904305C4A092BC8BF143B92F8B11FF3
:10D670003B440A2993F8144500F09D8093F8203527
:10D6800017F8D62C002A08BF1C46002CDCD02046F8
:10D6900046F02AFA0546002800F089802D23C38031
:10D6A000002146F081FD2B68AA881A8301212846B3
:10D6B00046F07AFD0121084646F082FF3C2043F007
:10D6C000E9F80021012046F07BFF17F8C83C002B49
:10D6D0004CD0424C00261FE02B68AA885A833BF0AE
:10D6E00035F894F8A01FD4F8A40F01F0010146F01A
:10D6F0002DFF94F8A01FD4F8AC0FC1F3800146F0C1
:10D7000025FF2B68AA881A8378203BF01FF817F8AA
:10D71000C83C01369E4229DA94F8A01FD4F8A40F21
:10D72000C94301F0010146F011FF94F8A01FD4F89D
:10D73000AC0F81F00401C1F3800146F007FF7820AF
:10D74000002DC9D178203BF001F894F8A01FD4F83F
:10D75000A40F01F0010146F0F9FE94F8A01FD4F8DF
:10D76000AC0FC1F3800146F0F1FECDE717F8CA3CDB
:10D77000ABB917F8C93C002B7FF466AF17F8C73C6C
:10D78000012B7FF461AFD7F8103513F080537FF48D
:10D790005BAF07F8C83CBDE8F84051F071B83220E3
:10D7A00043F078F82846002146F0FEFCE1E7014608
:10D7B00046F0FAFC7AE7D7F838355B057FF544AFD9
:10D7C0000EF0F8FE00287FF43FAF002C7FF45FAF2F
:10D7D0003AE700BF585D0020604C0020683B002005
:10D7E00048400822430010F0800F08BF400083F03B
:10D7F000D50314BFD8B2C0B2013AF3D1704700BF0D
:10D8000030B405688D424FF0000211D011F8013B91
:10D8100008245A40530012F0800F08BF520083F0D2
:10D82000D50314BFDAB2D2B2013CF3D18D42EDD1AF
:10D830006B1C03602A7030BC704700BF70B4344862
:10D8400090F83C35A3F13001092957D800F23C5437
:10D85000224600F24B5012F8015FA5F13001092970
:10D8600004D88242F7D1002070BC7047141B022CF0
:10D870004ADD2848002101E010F8013B01EB81015D
:10D8800003EB4103161A303B022E044603F0FF015E
:10D89000F2DC214B03FB01F1A2424FF000030DD952
:10D8A00003EB830314F8016B5B00303B3344A2426B
:10D8B00003F0FF03F4D1194800FB03F32E2D06D02B
:10D8C0001748A0FB032301EB930070BC70470132A3
:10D8D00004200024157804EB8404303D6400092DF5
:10D8E00000F1FF30A4B202D82C44A4B2013210F0EF
:10D8F000FF00EFD1642202FB0433E1E700211D4663
:10D9000000F23C520B46D9E7064C0021C4E700BFA9
:10D91000585D0020956200208096980040420F00DC
:10D92000ABAAAAAA9462002083B50C461646054607
:10D9300034F0DAFB204634F0D7FB0021204B0846B8
