:020000040800F2
:10000000F0FF0010C5EF0608C10301081D480508F0
:1000100065F0060865F0060865F0060800000000B7
:10002000000000000000000000000000BD03010807
:10003000B903010800000000B5030108292E0508D6
:1000400065F0060865F0060865F0060865F0060824
:1000500065F0060865F006080D4A0508D54905084B
:100060009D490508654905082D490508C9AA0608DE
:10007000B9AA0608A9AA060899AA060885AA060820
:1000800071AA06085DAA060865F0060865F006086C
:1000900065F0060865F0060865F00608F5480508ED
:1000A0007D030508050405086D0305082D040508F2
:1000B000F5030508E5030508D5030508BDE80608AE
:1000C000C5E80608B1E80608B9E8060865F00608BC
:1000D00065F006084132050889310508D130050868
:1000E000BD48050865F006083D1A01085D030508CE
:1000F0008D0305084D030508B503050849AA060840
:1001000065F006086D880608C503050865F0060851
:1001100019300508612F050865F0060865F0060826
:1001200035AA060821AA06080DAA0608F9A9060894
:10013000E5A9060865F0060865F0060865F00608FA
:1001400065F0060865F0060865F0060849FD000838
:10015000D1A90608BDA90608A9A90608A92E05085F
:10016000A5E80608ADE8060865F0060865F006088B
:1001700065F0060865F0060865F0060865F00608F3
:0801800065F0060865F00608B1
:08280000082800080040000850
:04400000FFFFFFFFC0
:10800000F0B401292A4C2B4D23684FF0000694BF91
:1080100000270127EE626662A6626763676B47EA24
:1080200042076763EE63EC6B002A38D144F4957421
:10803000EC631C6824F001041C601C68E407FCD499
:10804000490289085960D8601968EAB921F04001ED
:10805000196019498B421DD018494FF47410C8603B
:10806000196841F01E011960596941F08001596198
:10807000196841F00101196022B90E4AD36A43F030
:108080000803D362F0BC704741F0400119600A490F
:108090008B42E1D14FF0746041F8500CE0E744F0BE
:1080A0001A04EC63EC6A44F00804EC62C1E700BF18
:1080B00038100020002C0140586402400064024047
:1080C0002DE9F04F0C68B34D85B0013BAC42BDF8D3
:1080D00038809BB200F07C81A5F58065AC4200F051
:1080E000778105F58045AC425CD005F58065AC42F2
:1080F00058D005F58065AC4254D0A74E2588B76BA3
:108100007F08B7FBF2F6013EB6B2AAB2B4F1804FD7
:108110000AD0A24DAC4207D005F58065AC4203D031
:1081200005F58065AC4202D122F0700292B29C4DFE
:10813000AC4200F02B8105F58065AC4200F0268151
:1081400022F4407205F56C4592B2AC422280E362A3
:10815000268540F04681002323860125A58291F8DB
:1081600008904A7919F0020600F01E8100254FEAB6
:10817000C909402109F00809AE460395AC462F46CF
:108180002B4601954FF4806602914FF0040B0C2AA8
:1081900011D8DFE802F0C91010109B101010211048
:1081A00010106B007C4E2588B66BB6FBF2F6013ED4
:1081B000B6B2AAB2AAE70C2A40D8DFE812F0DE0075
:1081C0003F003F003F00AC003F003F003F003F004A
:1081D0003F003F003F007E00218C724D21F48071F2
:1081E0000904090C2184B4F820A0B4F804C0A18BC0
:1081F0001FFA8AFA21F073012AF4007A090447EA87
:108200000A07090CAC4247EA03231FFA8CFC41F031
:10821000600100F0EB8005F58065AC4200F0E6807F
:10822000A4F804C0A183C4F83C802384A38B23F06A
:1082300008031B041B0C43F00803A383B4F8443069
:108240006FEA43436FEA53439BB2A4F84430238858
:1082500021469BB243F0010321F8343B00238D18E3
:10826000C0E900548B5005B0BDE8F08F218C4D4E15
:1082700021F480510904090C2184B4F820C0A78896
:10828000A18B1FFA8CFC21F4E6412CF4005C09045C
:108290004EEA0C0E090CB4424EEA0333BFB241F46D
:1082A000C04100F0AF8006F58066B44200F0AA80BD
:1082B000A780A183C4F840802384A38B23F40063A8
:1082C0001B041B0C43F40063A383B7E7218C354DDB
:1082D00021F010010904090C2184278CA688218B28
:1082E000BFB221F4E64127F0200709044CEA070C4D
:1082F000090CAC424CEA0313B6B241F4C04100F0A1
:10830000918005F58065AC4200F08C80A6802183C9
:10831000C4F838802384238B23F400631B041B0CD4
:1083200043F40063238389E7258C1E4E019925F0D1
:1083300001052D042D0C2584B4F820E0B4F804C008
:10834000258B2EF0020E25F073054FEA0E4E2D04FC
:108350000B434FEA1E4E2D0CB4424EEA03031FFAA4
:108360008CFC45F0600551D00A498C424ED0A4F8EF
:1083700004C02583C4F834802384238B23F00803AE
:108380001B041B0C43F00803238357E72280E3629E
:108390002685E2E600040140381000200004004079
:1083A00000100040000001404FEA49094FF4806787
:1083B000CDE9015609F002030397B146B3464FF4E5
:1083C00080454FF4805E4FF0100C4FF48077DEE66E
:1083D0001B4E2588B66BB6FBF2F6013EB6B2AAB2CA
:1083E000A2E6184B9C423FF4B6AEB6E623F4006317
:1083F00043EA092323F480632CF4405C33434CEAC2
:108400000E0C0DE727F480472F4351E74FF6F37129
:1084100019402CF4407C41EA09034CEA070C43EA7A
:108420000B03A4E723F08003029D43EA091323F022
:1084300040032B43039D26F440662E4366E700BFAE
:1084400038100020000401400B480C4B416D10B463
:108450000B4C43648A1E2231B0F860301B01A4FB30
:1084600003C3DB08A3F5B06322F8023F9142F3D1C6
:108470005DF8044B704700BF38100020795A02089D
:10848000CDCCCCCC036870B55E6A26B133461522DC
:10849000BDE87040184704460D4601F1150600E09E
:1084A00023689B68204698470028F9D0236815F870
:1084B000011B1B6820469847B542F1D170BD00BF33
:1084C000084AD2E91C31994209D0D118013391F8F8
:1084D00078100170C3F30A0313670120704700206E
:1084E000704700BF38100020044BD3E91C30C01A7D
:1084F000C0F30A00C0F50060704700BF38100020CC
:10850000012380F85130704707B501A8FFF7D8FF65
:108510000028FAD09DF8040003B05DF804FB034B7B
:10852000D3E91C30C01AC0F30A007047381000208D
:1085300001207047024BC3F87828C3F87C187047B5
:1085400038100020024BC3F88028C3F88418704705
:10855000381000207047704730B4114DD5E91C2306
:108560009A1AC2F30A020A44B2F5006F12D8A1B1F6
:1085700001444A1E013810F8014FE918824203F104
:10858000010381F87840C3F30A03F4D16B6700203C
:1085900030BC7047022030BC70470846F8E700BF87
:1085A00038100020212838B50C4605D022282ED0BE
:1085B000202813D0002038BD0029FBD0072AF9D18C
:1085C0001A4BD3F8880893F88C1893F88D2893F8F1
:1085D0008E38206021716271A371EBE70029E9D028
:1085E000072AE7D1114DD5F87C381BB10968D5F8B9
:1085F00078089847206821796279A379C5F88808B6
:1086000085F88C1885F88D2885F88E38D2E70029F2
:10861000D0D0022ACED1054AD2F88438002BC9D056
:108620000988D2F880089847C4E700BF38100020B6
:10863000024B0020C3F89008704700BF381000209C
:10864000044B00200522C3F89028C3F88408C3F81F
:108650007C08704738100020704700BF704700BF8B
:10866000704700BF704700BF704700BF704700BF32
:10867000704700BF042301480B8070478801002029
:1086800010B4074A074B92F89408122403F114021D
:108690000C8001280CBF184610465DF8044B70474B
:1086A000381000208C01002000487047F818002086
:1086B000034B93F8BC08032894BF002001207047A7
:1086C00038100020034B93F8BC08003818BF012075
:1086D000704700BF38100020A0B182680D4B12B166
:1086E00007229A7070471978DA6003294FF0040066
:1086F0000CBF80214FF48071C3E901111A611A7512
:1087000098707047034B41F2E47101225A545A7039
:10871000704700BFC88300200378022B10D0006987
:1087200008B9012070470C4B1B78032B0EBF0B4B75
:1087300080B24FF6F773984294BF00200120704733
:108740000549436841F650028A58B3EB422F2CBFCB
:1087500001200020704700BFC8830020F7FFFF0FF3
:1087600000285DD0036803F13F4202F57E022DE947
:10877000F041920A324DAA5C02F01F055209012411
:10878000032A04FA05F456D0042A4FD0022A48D00E
:108790008588B5FA85F0C0F11F00C0F3CC0603EB65
:1087A000860600F0070082000F24306A944020EA19
:1087B00004003062306A01FA02F2024300213262A0
:1087C0004FF0010E0A464FF0030C02270EFA02F892
:1087D00038EA050002F101021CD118680CFA01F414
:1087E00020EA04001860186807FA01F606431E60C4
:1087F0009E6826EA04069E6098689860586820EA99
:108800000800586058685860D86820EA0400D860AA
:10881000D868D860102A01F10201D7D1BDE8F081F3
:108820007047084A556C2C435464B1E7054A156BF0
:108830002C431463ACE7034A156C2C431464A7E77C
:10884000A01E070800380240F0B505682B6A93B0F7
:1088500013B1002013B0F0BD61F07F01CDE9063304
:108860000DF107078DF80710039301218DF81430DF
:10887000089202260B930E93109300220023CDE959
:108880000C230446029704918DF828108DF83C10B3
:108890000996EFF31186102383F3128803681B6A8D
:1088A00003B3049B02A802461BB1D3691432002B08
:1088B000FBD12B6AF3B1996839B9934209D0196891
:1088C00029B15B6899680029F7D01433F3E7C3E94D
:1088D0000040F6B286F311882268136A002BFCD19F
:1088E0000120B7E702ABF6B22B6286F3118862F083
:1088F000A5F9F1E71C60FFDE70B5144C94F88C39D3
:10890000002BFBD1F9B101444E1E451E02E00120AF
:108910004AF0EAF9D4F89039D4F894290133C3F332
:108920000A039342F3D0D4F89029D4F8903915F87B
:10893000011F22440133C3F30A03B54282F8981998
:10894000C4F89039E6D1002070BD00BF3810002077
:108950000A4B0846D3F8901810B569B1D3F890388F
:10896000052B09D1064C002AD4F8A03004DD1146AD
:10897000FFF7C2FFD4F8A03010BD00BF38100020B0
:108980003021002010B590F85010002380F85030AE
:1089900089B10C4CD4F890287AB1D4F89028052AE3
:1089A0000DD1094C3C30D4F8A030FFF7A5FFD4F826
:1089B000A030012010BD0120FCE71046FAE7184660
:1089C000F8E700BF3810002030210020002280F896
:1089D0005120D7E790F85020531C0244DBB280F8B6
:1089E000503082F83C1090F851200AB1132B00D976
:1089F000C8E77047404B98422DE9F0410ED003F58F
:108A00006853083398424ED03C4B0020C3E94400E1
:108A1000A3F80C01A3F81801BDE8F081374C384FDA
:108A2000DFF8E4800223C4F8A43004F1A80600258E
:108A3000FB6AAB42294605F1010503D0D4F82801B1
:108A40005CF080FC94F82C31D4F8282186F824308E
:108A50003262304641465CF0ABFDD4F8A4309D4212
:108A600006F13006E4DB002384F81A31D4E92C0344
:108A7000D4F8A410B4F8AC20B4F8B850C4F8383125
:108A800012FB01F203FB01F3A4F80C21B4F8AE10C1
:108A90001C4AA4F81851C4E94403A4F80E11C4F800
:108AA00008210120B8E7154C154FDFF8608002233C
:108AB000C4F8A43004F1A8060025FB6AAB4229469D
:108AC00005F1010503D0D4F828015CF03BFC94F8D3
:108AD0002C31D4F8282186F82430326230464146C1
:108AE0005CF0C8FBD4F8A4309D4206F13006E4DB0C
:108AF000012384F81A31B9E71971EF003021002001
:108B000088010020A81E07081940EF0021AAEF00E5
:108B1000F0B5264D264C6C6585B00646FFF794FCF3
:108B2000244A254B1A214020C5E9122385F83E101E
:108B30003FF05EFF002837D094F83D3094F83E5067
:108B400094F83F7090F904001C4A002E14BF4FF4B3
:108B5000E1314FF4E121002B14BF02230023002D4B
:108B600014BF30250025002F18BF43F001032B430D
:108B70000325CDE9015300910023402142F001FC7F
:108B8000A4F59E74C4F8900158B10D4811F08CFC06
:108B900094F8953184F89401D4F890010BB984F8D5
:108BA0009551003818BF012005B0F0BD38100020E5
:108BB0006C22002051A70208EDB80208614E02089D
:108BC00035BB02082DE9F04F2A4DDFF8D0A006464C
:108BD0000FCD54462DED048B0FC40FCD0FC4264985
:108BE0002A6891F89A3122608BB091F8A0210396FF
:108BF0000A2B0CD8DFE813F034020B00A1022F027D
:108C00000B000B000B000B000B000B002A02DFED2A
:108C10001B7AF0EE678A002A19491A4ACAF810200E
:108C200019481A4BCAF818000EBF002201220B4641
:108C3000009238EEA77AF5EE006AC6EE879ADFF862
:108C400060B0134ECAF814300BF123074FF000093F
:108C50009FED108A9FED109A27EE888A039B4B4563
:108C600040F3BD811BF8014B002C00F0198200235A
:108C70001BE000BFE01E0708302100206F120339FF
:108C8000E5EC0408E9EC0408617E0308DD7B0308D9
:108C9000480100106F12833A00007A441801001056
:108CA000D5220020152B00F0FB8103EB43024FEA95
:108CB0004308B95CA14203F10103F3D1CF4B1A443D
:108CC00092F8C911002900F03682204647F0B8FD1D
:108CD0000546284647F0D4FE0178002940F0E0819F
:108CE000C64B984409F1010301930322DBB288F8D3
:108CF000093288F80822002D00F0D2814FEA1418BA
:108D000008F1FF38B8F1050F04F00F0C00F2F08104
:108D1000BB4C04EB4801B1F8640040FA0CF111F0CF
:108D2000010100F0E581012101FA0CFC0CF1FF3C8E
:108D30000CEA0000A044029365F0CCFF98F870C0E4
:108D4000DFF8CCE2029BB56160440EEBC00C03225D
:108D50008CF807308CF806205EF83000C6F814C096
:108D600000F13F4303F57E039B0A0121E35C6A7A2D
:108D700003F01F045B09032B01FA04F100F0CD811D
:108D8000042B00F0C581022B00F0CC81BCF804401C
:108D9000B4FA84F3C3F11F03C3F3CC0100EB8101E8
:108DA00003F00703D1F820C09B004FF00F0E0EFA1E
:108DB00003FE2CEA0E0CC1F820C0D1F820C002FA44
:108DC00003F343EA0C0305AA0B6211460223029245
:108DD000CDE905430EF0E2F8029A009B002B00F06B
:108DE0007081864BB3F8983100EE103AB8EEC00AA5
:108DF000FCEEC07A17EE90EA2C68824B9C4200F0A1
:108E00005981A3F580639C4200F0548103F58043AF
:108E10009C4200F04F8103F580639C4200F04A8140
:108E200003F580639C4200F04581774B986B4108C5
:108E3000B1FBFEF303F57F43FF334FEA134C009B76
:108E4000B1FBFCFC002B00F03981BCFBFEF10139C9
:108E500089B207EE90CAB8EE677A6A4B67EE086A85
:108E60009C4269EE667AC6ED026AE7EE287AC6EDA4
:108E7000037A00F00381A3F580639C4200F0FE803A
:108E800003F580439C4200F0378103F580639C42E8
:108E900000F0328103F580639C4200F02D8123882D
:108EA0004008B0FBFCF0013880B29BB2B4F1804FB7
:108EB00000F0EA80DFF85CC1644500F0E5800CF565
:108EC000806C644500F0E0800CF5806C644500F037
:108ED000DB80DFF844C1644500F0DE800CF5806C77
:108EE000644500F0D98023F440730CF56C4C9BB2C0
:108EF00064452380E162208540F0058100232386BC
:108F00000120A0822B7A95F805800021CDE9071178
:108F10004FF0600CADF8181009919907CDF814C006
:108F200040F1DA80DB0003F008030421ADF82230C1
:108F3000ADF818104146204647F084F8B8F10C0F00
:108F400010D8DFE808F07A0F0F0F710F0F0F520FD4
:108F50000F0F0700A38B23F400631B041B0C43F4C7
:108F60000063A3832B68B3F844206FEA42426FEAA0
:108F7000524292B2A3F844201A88194692B242F0A3
:108F8000010221F8342B687973600C1800223460D8
:108F90000A50B9F1000F00F0CA80DAF834108B42A1
:108FA00000F0C780B9F1010F00F0C180DAF850106D
:108FB0008B4200F0BE80B9F1030F40F0B880DAF8C0
:108FC0006C20D31A18BF0123DDF8049033740122FA
:108FD000B9F1040F727406F11C067FF43FAE0B4822
:108FE0000BB0BDEC048BBDE8F08FA38B23F008031E
:108FF0001B041B0C43F00803A383B3E730210020BC
:10900000A01E0708000401403810002018010010BD
:109010006423002000040040001000406F12833AD7
:10902000ACC5A737ACC5A736238B23F400631B045C
:109030001B0C43F40063238394E7238B23F0080382
:109040001B041B0C43F0080323838BE75FED0D7AB1
:10905000F0EE678ADFE55FED0E7A5FED0E8ADAE506
:10906000384BDFED397A394ACAF8103001230093C2
:10907000CAF81820364BF0EE678ADAE52388B0FB91
:10908000FCF0013880B29BB2DFF8DCC023F0700343
:1090900064459BB27FF422AF2380E16220852FE7F5
:1090A0002C4A2B4B0020CAE905320BB0BDEC048BD7
:1090B000BDE8F08F284B996B0846B9E64FF6FE7174
:1090C000C7E6B0EE690A029265F0D4FFFCEEC07A02
:1090D000029A17EE90EA8FE65B0003F002034FF46A
:1090E0008071ADF82030ADF81600ADF8241021E7FE
:1090F0007161B56105AA70E62388B0FBFCF0013808
:1091000080B29BB2D2E6154B9C423FF4F7AEF7E635
:10911000134B1C6B2143196338E6114B1C6C214324
:10912000196433E60E4B5C6C214359642EE601232F
:109130004AE7134648E70D46CBE5DFED0A7AF0EE45
:10914000678A68E5E9EC04086F12833A617E0308D8
:10915000E5EC04086D7D0308381000200004014090
:10916000003802402829303800100040114B70B5FB
:109170009C6B054600680E4664080DF013FEB4FBB8
:10918000F6F1B1F5803F03D3012CFAD96408F6E774
:109190002246284689B247F0D3F90749074BC1F860
:1091A000983D28460022BDE8704001F6985147F0EE
:1091B00045B900BF381000203021002011FC010803
:1091C000F8B5214C1D270E46054684F8A07D23F0F6
:1091D0000FFD002023F0ACFC082023F0A9FC0E209A
:1091E00023F0A6FC384623F0A3FC042023F0A0FCC7
:1091F000042023F09DFC002023F09AFC302023F073
:1092000097FC002023F094FC304623F091FC0020D2
:1092100023F08EFC23F0D6FC04F6A15023F0ECFBE7
:10922000234670B194F8A12D62B994F8A22D302A8A
:1092300000D03AB993F8A32D22B993F8A43D2B702E
:109240000120F8BD0120FCE73021002010B5044CBE
:1092500004480A4621460CF029FC204610BD00BFF8
:10926000E42E002030BC070810B5044C04480A4620
:1092700021460CF01BFC204610BD00BFE42E002050
:1092800040BC070810B5044C04480A4621460CF0BF
:109290000DFC204610BD00BFE42E00204CBC07088A
:1092A00010B5044C04480A4621460CF0FFFB20464A
:1092B00010BD00BFE42E002058BC070810B5044CB8
:1092C00004480A4621460CF0F1FB204610BD00BFC1
:1092D000E42E002064BC070810B50D4C94F88A29D0
:1092E0000023C4F8B83812B10A4AC2F8B43E5FF09D
:1092F0001DFB20B10423022084F8BC3810BD054BAF
:10930000D3F8A030C4F8AC38092384F8BC3810BDB9
:10931000381000203021002070B50F4D95F8BC3872
:10932000042B04460E460BD0082B07D1D5F8B438D1
:1093300083420ED0FFF7D0FF022801D0012070BD7C
:109340000823C5F8B868C5F8B44885F8BC380220C9
:1093500070BD022070BD00BF3810002070B50379C9
:10936000234C002B14BF0123002384F8E83803D1D9
:10937000002384F8BC3870BD1E4D002195F9BB2E2A
:10938000032049F0CBFF0028F2D04668304649F070
:10939000B3FF84F889090028EAD095F8B93E003B6C
:1093A00018BF0123304684F88A3960F0CFF90CF0F9
:1093B00017F838B994F8B03884F8BC08013384F849
:1093C000B03870BD5FF09CFB40B194F8B03800221B
:1093D000013384F8B03884F8BC2870BDD5F8A030CB
:1093E000C4F8AC38012384F8B00884F8BC3870BDE8
:1093F000381000203021002010B55FF081FB58B1FB
:109400000C4C94F8B0380133DBB2072B84F8B03839
:1094100003D9002384F8BC3810BD0BF0E1FF00280D
:10942000F7D0054A0123D2F8A020C4F8AC2884F86C
:10943000BC3810BD38100020302100202DE9F0414B
:10944000904C94F8E858002D00F0098194F8BC285D
:109450008D4E0227531E082B45D8DFE803F03B3D15
:10946000AF447556164405005FF060FA002840F0DE
:10947000FD80D4F8AC38D6F8A020FA3393422FD22E
:10948000FFF7BAFF94F8BC28E4E75FF04FFA002832
:10949000EFD0D4F8B8380022012B84F8B02840F27D
:1094A000E980D4F8B41894F88A09013B0131C4F872
:1094B000B838C4F8B41810B1734BC3F8B42E0822EE
:1094C00084F8BC28A2F10805B5FA85F56D0928468F
:1094D000BDE8F08184F8BC785FF028FA00284ED10E
:1094E00094F8BC28531EDBB2022B0BD8664BD4F881
:1094F000AC18D3F8A0305B1AC82BE3D9FFF77CFF78
:1095000094F8BC28042ADDD1E1E7236B002BD9D1E4
:109510005D4BD4F8A468D3F8A030C4F8AC38072267
:1095200084F8BC28002ECDD0D4F8A838D4F89828D8
:10953000D4F89C180120B047D2E7D4F8AC38D6F85C
:10954000A01064338B42BDD2D4F82C80B8F1000F48
:10955000F3D15FF0EBF9002894D0D4F8A46884F834
:10956000B088042384F8BC38002E7DD0D4F8A83805
:10957000D4F89828D4F89C184046B047B0E75EF07D
:109580007BFE0028ACD196F8BD3E002BA3F1020370
:10959000B3FA83F314BF022201225B0984F8B128D5
:1095A00084F8B2385EF068FE00287FF469AF374A6D
:1095B0000323926CC4F8C02884F8BC385EF05CFECB
:1095C00000288DD1304BC4F8B80893F8EC6EB3F88E
:1095D000EE0ED3F8F0EED3F8F0CED3F8F07ED3F859
:1095E000F02E84F8C66893F8F41EA4F8C40893F823
:1095F000F56E84F8CA2893F8F50ED3F8F82EC4F85F
:10960000CC28B3F8FE8EB3F8FE2E84F8CB18B3F84E
:10961000FE1EC2F30B1343EA182303F00F0301F0FD
:109620000F024FEA1E6E4FEA1C4C3F0A360900F04B
:109630000F0003F5FA63042184F8D10884F8C7E821
:1096400084F8C8C884F8C97884F8D068A4F8D238F7
:1096500084F8D42884F8BC182846BDE8F08184F842
:10966000BC582846BDE8F081054630E7042384F85D
:10967000BC382CE7FAD1FFF72FFE94F8BC28531E14
:1096800031E700BF3810002030210020F02F0020EB
:1096900000F01F0240090123032803FA02F304D05B
:1096A00004280CD0022805D07047074A116C0B43E0
:1096B00013647047044A516C0B4353647047024A69
:1096C000116B0B4313637047003802400E4B30B4EC
:1096D000DB68427801780D4CDB43C3F30223C3F10E
:1096E0000403DBB202FA03F360181B0101F01F054B
:1096F0000122490903F0F003AA4080F8003344F83E
:10970000212030BC704700BF00ED00E000E100E028
:10971000002877D0F0B58388B3FA83F3202B83B089
:109720000446C3F11F0258D0374D384E15444FF050
:10973000004006EB820230FA03F395F87850C2F845
:10974000181F05D0324A116821EA030111605361E4
:109750002046002147F0B8FBA38822682C49B3FAC1
:1097600083F7C7F11F0404F0FC0000F1804000F50E
:109770009C3004F00304A40002F13F434FF00F0CAF
:1097800082680CFA04FC22EA0C02826003F57E0374
:109790008268C3F38723A340134383600A681D488C
:1097A0004FF00043FB4022EA03020A604A6822EAC3
:1097B00003024A600A681A430A608A6822EA0302BE
:1097C0008A60CA6822EA0302CA6002682E44134310
:1097D000036096F8583FF02B01D803B0F0BD0E4B54
:1097E0005B5D8DF80430F02103224FF4807301A8F3
:1097F00086F8581F8DF80520ADF80630FFF766FF94
:1098000003B0F0BD704700BFA01E07083021002044
:10981000003C0140083C0140CCBC0708F0B5374D86
:10982000D5F8607F3E78012E95B004460B4606D0F1
:10983000022E01D1396A69B1002015B0F0BD97F947
:10984000040095F8641F00931346224664F0F4FE6A
:1098500015B0F0BD60F07F00CDE90A320DF10F04C4
:109860008DF80F00002201200023CDE90811CDE979
:109870000E2305918DF81C100D91109112910494F6
:1098800006908DF830008DF84400EFF3118010231E
:1098900083F31288D5F8603F1B6A13B3069B04ACB0
:1098A00022461BB1D3691432002BFBD13B6A13B3A0
:1098B000996839B993420AD0196829B15B689968E7
:1098C0000029F7D01433F3E70D4AC3E90024C0B2EE
:1098D00080F31188D5F8602F136A002BFCD101208A
:1098E000ABE704ABC0B23B6280F3118805F576604C
:1098F00061F0A4F9EEE7024A1A60FFDE3021002091
:1099000090300020034BD3F8F028136A002BFCD1D1
:10991000704700BF381000202DE9F84FCB4C14F8E9
:10992000CC1C0546C1F3400154F8C40C4AF022FF98
:1099300014F8CC1C54F8C80CC94301F001014AF0DA
:1099400019FF002D00F0E78005F1FF39C04EC14F2F
:10995000C14D5FFA89F94FF0100854F8C43C33B197
:109960001A689B8851690B4214BF5383138354F8C0
:10997000C83C33B11A689B8851690B4214BF5383AA
:10998000138334F8BC3C002B40F0578114F8BA1C08
:1099900054F8B80C4AF0EEFEFA204FF47A714FF00A
:1099A000010C7B68C3F30803002B40F01981EFF32F
:1099B0001183002B40F01481D6F8A020D5F808E0E0
:1099C000D6F8A0309A42F7D154F8903C9E45F3D88F
:1099D00054F894AC01FB0AF3A3EB0E03B3FBFAF3C8
:1099E00001FB02327B68C3F30803002B40F0B68012
:1099F000EFF31183002B40F0B180D6F8A030D5F8FA
:109A000008B0D6F8A0E07345F7D154F890ECF345D0
:109A1000F3D854F894AC01FB0AFEAEEB0B0EBEFB80
:109A2000FAFE01FB03E39B1AB3F57A7FDAD3013820
:109A3000B7D154F8C43C33B11A689B8851690B42C2
:109A400014BF5383138354F8C83C33B11A689B88FE
:109A500051690B4214BF5383138334F8BC3C002B71
:109A600040F0DF8014F8BA1C54F8B80C81F0010102
:109A70004AF080FEFA204FF47A714FF0010C7B68B7
:109A8000C3F30803002B40F08A80EFF31183002B0F
:109A900040F08580D6F8A020D5F808E0D6F8A030B0
:109AA0009A42F7D154F8903C9E45F3D854F894ACC0
:109AB00001FB0AF3A3EB0E03B3FBFAF301FB023243
:109AC0007B68C3F3080343BBEFF311832BBBD6F8CA
:109AD000A030D5F808B0D6F8A0E07345F7D154F817
:109AE00090ECF345F3D854F894AC01FB0AFEAEEBCE
:109AF0000B0EBEFBFAFE01FB03E39B1AB3F57A7F64
:109B0000DED30138BBD109F1FF395FFA89F9B9F128
:109B1000FF0F7FF422AFBDE8F88FEFF3118A88F3CF
:109B20001288D5F808B02B68DB0344BF44F898CC02
:109B3000D5F808B0D6F8A03054F898EC5FFA8AFA55
:109B40008AF3118854F894AC734401FB0AFEAEEB1F
:109B50000B0EBEFBFAFE01FB03E3CEE7EFF3118A27
:109B600088F31288D5F808B02B68DB0344BF44F8AB
:109B700098CCD5F808B0D6F8A03054F898EC5FFA35
:109B80008AFA8AF3118854F894AC734401FB0AFEF4
:109B9000AEEB0B0EBEFBFAFE01FB03E343E7EFF374
:109BA000118E88F31288D5F808A02B68DA0344BF19
:109BB00044F898CCD5F808A0D6F8A03054F8982CE2
:109BC0005FFA8EFE8EF3118854F894EC1A4401FB70
:109BD0000EF3A3EB0A03B3FBFEF301FB02326FE7C4
:109BE000EFF3118E88F31288D5F808A02B68DA03FA
:109BF00044BF44F898CCD5F808A0D6F8A03054F863
:109C0000982C5FFA8EFE8EF3118854F894EC1A4467
:109C100001FB0EF3A3EB0A03B3FBFEF301FB0232DD
:109C2000E0E654F8A03C002B3FF424AF54F8B42CE9
:109C30000023136004F8A33C1CE754F8A03C002B5D
:109C40003FF4AAAE49F01EF9A6E600BF2832002074
:109C50003021002000ED00E010E000E02DE9F04FA1
:109C6000CA4CCB4E14F8CC1C54F8C40CDFF8288333
:109C7000C84D83B0C1F340014AF07CFD14F8CC1C00
:109C800054F8C80CC94301F001014AF073FD0523E3
:109C900001934FF0100954F8C43C33B11A689B8803
:109CA00051690B4214BF5383138354F8C83C33B13A
:109CB0001A689B8851690B4214BF5383138334F88D
:109CC000BC3C002B40F0598114F8BA1C54F8B80C75
:109CD0004AF050FD32204FF47A710127D8F8043051
:109CE000C3F30803002B40F01B81EFF31183002B1B
:109CF00040F01681D6F8A020D5F808E0D6F8A030BC
:109D00009A42F7D154F8903C9E45F3D854F894AC5D
:109D100001FB0AF3A3EB0E03B3FBFAF301FB0232E0
:109D2000D8F80430C3F30803002B40F0B780EFF3FA
:109D30001183002B40F0B280D6F8A030D5F808B0DF
:109D4000D6F8A0E07345F7D154F890ECF345F3D87A
:109D500054F894AC01FB0AFEAEEB0B0EBEFBFAFE10
:109D600001FB03E39B1AB3F57A7FD9D30138B5D150
:109D700054F8C43C33B11A689B8851690B4214BF34
:109D80005383138354F8C83C33B11A689B885169D4
:109D90000B4214BF5383138334F8BC3C002B40F0B8
:109DA000E08014F8BA1C54F8B80C81F001014AF0B4
:109DB000E1FC32204FF47A710127D8F80430C3F364
:109DC0000803002B40F08B80EFF31183002B40F051
:109DD0008680D6F8A020D5F808E0D6F8A0309A42C0
:109DE000F7D154F8903C9E45F3D854F894AC01FB5D
:109DF0000AF3A3EB0E03B3FBFAF301FB0232D8F82C
:109E00000430C3F3080343BBEFF311832BBBD6F835
:109E1000A030D5F808B0D6F8A0E07345F7D154F8D3
:109E200090ECF345F3D854F894AC01FB0AFEAEEB8A
:109E30000B0EBEFBFAFE01FB03E39B1AB3F57A7F20
:109E4000DDD30138B9D1019B5F1E17F0FF030193E9
:109E50007FF421AF03B0BDE8F08FEFF3118A89F3EF
:109E60001288D5F808B02B68DB0344BF44F8987C0F
:109E7000D5F808B0D6F8A03054F898EC5FFA8AFA12
:109E80008AF3118854F894AC734401FB0AFEAEEBDC
:109E90000B0EBEFBFAFE01FB03E3CEE7EFF3118AE4
:109EA00089F31288D5F808B02B68DB0344BF44F867
:109EB000987CD5F808B0D6F8A03054F898EC5FFA42
:109EC0008AFA8AF3118854F894AC734401FB0AFEB1
:109ED000AEEB0B0EBEFBFAFE01FB03E342E7EFF332
:109EE000118E89F31288D5F808A02B68DA0344BFD5
:109EF00044F8987CD5F808A0D6F8A03054F8982CEF
:109F00005FFA8EFE8EF3118854F894EC1A4401FB2C
:109F10000EF3A3EB0A03B3FBFEF301FB02326EE781
:109F2000EFF3118E89F31288D5F808A02B68DA03B5
:109F300044BF44F8987CD5F808A0D6F8A03054F86F
:109F4000982C5FFA8EFE8EF3118854F894EC1A4424
:109F500001FB0EF3A3EB0A03B3FBFEF301FB02329A
:109F6000DEE654F8A03C002B3FF423AF54F8B42CA9
:109F70000023136004F8A33C1BE754F8A03C002B1B
:109F80003FF4A8AE48F07EFFA4E600BF28320020D0
:109F90003021002010E000E000ED00E0B0B10C49FD
:109FA00051F88C3C102B03D10521002047F02CB92F
:109FB00003EB43020A4402F8880C202002F8870CC5
:109FC0000120034402F8860C41F88C3C704700BF26
:109FD000283200202DE9F04F2DED028BAA4C95B0D0
:109FE0001E22A4F15800002167F0B6FD14F8383C99
:109FF0001BB114F8373C04F8583C14F8363C1BB13C
:10A0000014F8353C04F8533C14F8343C1BB114F8F4
:10A01000333C04F84E3C14F8323C1BB114F8313C8C
:10A0200004F8493C14F8303C1BB114F82F3C04F8F8
:10A03000443C14F82E3C1BB114F82D3C04F83F3C72
:10A0400014F8263C0393013B5FB2DBB202937B1C06
:10A0500000F0B0808D4B8E4E53F83720019203EB09
:10A06000C7034FF0000A1B7908EE103AB146D046FC
:10A07000D34699F800503946284645B34BF02AFD9F
:10A08000034628461D4613B349F0E2FF0BF10703D0
:10A090001321DBB220B14FF0000C837180F807C0B0
:10A0A00046F012FF99F800004BF04AFD08F1010359
:10A0B00089F802805FFA83F84FF0070389F80430CB
:10A0C0004FF0010389F80100AA4689F803300BF12B
:10A0D000010BBBF1060F09F10509CAD118EE100AF0
:10A0E000FFF7D6FA6B4A6C4B51680B4043F4403390
:10A0F000536017B9BAF1000F0BD1684D4820FFF734
:10A10000C7FA2846022164F0EFFBAB6843F0010375
:10A11000AB606049614B4A6834F82C0C42F4000291
:10A120004A605A6822F480525A609A6B22F44012B4
:10A1300042F480129A63DA6842F46002DA609D6B3E
:10A1400085F44012C2F3015202EB82021F2101FA90
:10A1500002FC25EA0C054FF0110C0CFA02F22A431E
:10A160009A63DA6842F4E012DA609D6BC5F301523B
:10A17000C2F10402D2B202EB820291404FF0100C05
:10A1800025EA01050CFA02F22A439A63E8B134F891
:10A190002A2C44F8200CAAB134F8283C44F81C2C92
:10A1A0006BB13F499B1A91FBF3F344F8183CBAF1A9
:10A1B000000F0DD115B0BDEC028BBDE8F08F394B0F
:10A1C0001B88EEE7384B1A88E6E7384B1888DEE73D
:10A1D000019D4146284664F087FB06F11E0E0121D1
:10A1E00017E0EB6823EA0B031A43EA604B1E03EB0C
:10A1F00083031F22062902FA03F90CFA03F329D874
:10A200006A6B22EA0902134301466B630536764501
:10A210004ED0F378481CC0B2002BF7D096F801C09E
:10A220003379ACF10A0202EB42024FF0070A0CEB61
:10A230004C09BCF1090F0AFA02FB03FA02F20AFA0E
:10A2400009FACED82A6903FA09F322EA0A0213436B
:10A250002B61CBE7CA1FA1F10D0302EB82024FF085
:10A260001F0A03EB83030C290AFA02F90AFA03F125
:10A270000CFA02F200F284802B6B23EA09031A43E2
:10A2800001462A63C2E700BF28320020281F0708C2
:10A29000D031002000230140E030FCFF00200140CD
:10A2A000803801002E7AFF1F2C7AFF1F2A7AFF1FA9
:10A2B000019A0299936843F400739360936843F49E
:10A2C0008073936093683C4443F0010393601746A6
:10A2D000022014F9252C49F021F8044600283FF407
:10A2E00069AF4668304649F007F82A4A431E2421E0
:10A2F00001FB032393F84C50002D7FF45BAF0399CF
:10A3000083F84D10062283F84C2000283FF452AF0A
:10A31000304648F0F1FF5FF045F960680CF09CFCB6
:10A3200005A80CF05BFCB8F1010F8CBF4FF4806303
:10A330000023A2680B933B46174801974C330592C4
:10A340004FF400674FF48072069307904FF4003388
:10A3500060680A9505A94FF40056CDE90E23CDE9B2
:10A360000C76CDE908580CF04BFC6268019F13682D
:10A3700043F001031360BB6843F08043BB6019E7FF
:10A38000EA6A0CFA03F322EA010213430146EB6284
:10A390003CE700BF88010020143200202DE9F84F6F
:10A3A0002C4F00EB800407EBC40454F8046C26B176
:10A3B0000546607C00F0FF0820B14FF000084046E1
:10A3C000BDE8F88F89469A46934648F0A5FA4FEAC9
:10A3D00049010123C9B2A17484F813B0637584F8EC
:10A3E00016802375637484F81080B288C4F818A0AE
:10A3F00091058146C4F81CA01DD43388DA0510D419
:10A4000042F20F7405E048F087FAA0EB0903A3427B
:10A4100015DC33889B05F6D433889BB243F48073F4
:10A420003380B3889BB243F440734FF00108B3808C
:10A430004046BDE8F88F98464046BDE8F88FB7F82B
:10A44000703001339BB22846A7F8703063F074FE79
:10A45000B5E700BF283200200128B5EEC00A10D0B1
:10A46000F1EE10FA0BDD9FED177ADFED177AE0EED3
:10A47000077AFCEEE77A17EE903A98B27047002020
:10A480007047F1EE10FA0BDD9FED107ADFED107AD8
:10A49000E0EE077AFCEEE77A17EE903A98B2704752
:10A4A000EDD5F7EE007A30EE270A9FED0A7ADFED60
:10A4B0000A7AE0EE077AFCEEE77A17EE903A98B265
:10A4C000704700BF00E0F9440000404200C07944FA
:10A4D0000000834400C079C400E0824470B5414E5E
:10A4E00096F8724004EB840306EB8303A50093F80F
:10A4F0007430032B65D8DFE803F051251C02254496
:10A5000006EB8505A86F002867D196F8C4309C42F9
:10A5100057D0013404F00302934286F8722050D0E1
:10A5200002EB820406EB84040223A06784F87430F3
:10A5300070BD2B1906EB83039A6F62B1013A9A67DB
:10A54000002070BD2B1906EB83039A6F002AF5D10A
:10A55000022283F87420254406EB850595F88030A7
:10A56000013BDBB285F880306BBB1F4B96F8C460B3
:10A57000D3F87012E86F621C02F003024B1E032432
:10A58000B242034485F87440B3FBF1F0A86718D0D9
:10A59000994216D80138A867012070BD4BF084F9A4
:10A5A00078B1114B2C44D3F8702206EB84040121BE
:10A5B00002F51C5384F874100F33B3FBF2F3A36756
:10A5C00070BD012070BD084BD3F87022012002F24B
:10A5D000E733B3FBF2F3AB6770BD0138A867002027
:10A5E00070BD00BF28320020880100202DE9F84FFF
:10A5F0003249DFF8D4B091F8BD1E01240229074684
:10A6000019461046CBF82C404FF000022C4C1D464A
:10A6100018BF7F02FDF7F4FC2A4B63626B02A36252
:10A62000E36A40F2FF5943F093034FF400704FF494
:10A630008A62E3620121C4F83890A0601020E260D1
:10A640005DF066FF012D40F251434E46C4F838904C
:10A65000CA4640F252488EBF4FF0120998464FF05A
:10A6600011090A25C4F838A00121A7604846C4F89A
:10A670000C805DF04DFF03464FF0000C40F2774236
:10A6800001213720A6632BB900231846CBF82830C8
:10A69000BDE8F88FA663C4F808C0E2605DF038FF3B
:10A6A000013DA6630028EFD015F0FF05DAD103467F
:10A6B000CBF82C50CBF82830BDE8F88F30210020A3
:10A6C000002C014000E1F505381000202DE9F84389
:10A6D000DFF8788098F8BC58042D04468946174660
:10A6E0001E4608D0082D02D00020BDE8F883FEF7F2
:10A6F000F3FD0228F8D101234A4620460021FFF746
:10A7000075FF68B1FEF778FED8F8A448002CEBD0AE
:10A710000022D8F8A838D8F89C181046A047E3E7DC
:10A72000094BC8F89898D3F8A020C8F89C4805238E
:10A73000C8F8A478C8F8A868C8F8AC2888F8BC3865
:10A740000120BDE8F88300BF302100203810002030
:10A750002DE9F84F2F49DFF8C49091F8BD1E1E4631
:10A7600002292D4B07464FF0010418BF4702012E66
:10A7700040F259481C6398BF4FF48B683B469346A0
:10A78000474640F2FF55B0468CBF4FF0190A4FF0D4
:10A79000180A0A241E4640F2FF53C9F83830012136
:10A7A000C9F808605046C9F80C705DF0B1FE034668
:10A7B0004FF0000C40F2774201213720C9F83850A1
:10A7C000A3B9584641460122FDF71AFC4646134AF2
:10A7D000134B536276029662D36A43F09103D362BD
:10A7E0000D4B002108469962BDE8F88FC9F8385032
:10A7F000C9F808C0C9F80C205DF08AFE013CC9F810
:10A8000038500028DDD014F0FF04C4D1024B1C6383
:10A81000BDE8F88F3021002038100020002C0140C6
:10A8200000E1F5052DE9F0473C4C82B005460E46A7
:10A830001746984694F8BC0804280DD0082807D17C
:10A84000D4F8B438AB4207D0FEF746FD0228F1D069
:10A85000012002B0BDE8F087DFF8C8A0C4F898680E
:10A86000DAF8B49EC4F89C58C9F34F210F294FEA77
:10A87000592223D8D4F8B8380193FBB194F88A0947
:10A88000E0B1B9F5005F13D0254831464FF40072AE
:10A89000484466F007FA09F50072C2F34F21102907
:10A8A000CAF8B42E4FEA522202D0019B012B25D1C7
:10A8B00092B2013A1A4EAD1A0B4600E0012332461D
:10A8C0002846062601250021C4F8A478C4F8A888E3
:10A8D00084F8A05884F8BC68FFF73AFF0028B8D085
:10A8E000FEF78AFDD4F8A468AEB12846D4F8A8389B
:10A8F000D4F89C180022B0470320AAE7D4F8B42863
:10A90000013B01320421C4F8B838C4F8B42884F8F3
:10A91000BC1802209DE703209BE700BF38100020F1
:10A92000C853002030210020F0B52B4C2B4BD4F81D
:10A93000B82012695168994283B048D0A3F5784392
:10A94000994246D003F58063994214BF4FF0FF311E
:10A95000022101312248234F4AF0FEFBD4F8B830DF
:10A960002148D3F8A830C4F8C43007F1C80207F171
:10A97000D803C4E952234AF02FFC0026034631468F
:10A9800001AA1748A4F8C030ADF80460FDF75CFFD9
:10A99000052048F0A9F91248ADF8046001AA314633
:10A9A000FDF752FF054620B19DF805301E2B03D060
:10A9B0003546284603B0F0BD0C4A0D4B084801212E
:10A9C000C4E9292387F8E8104AF022FEF1E70021C4
:10A9D000BFE70121BDE700BF1801001000300140B2
:10A9E000D40100102832002080969800DDCF0608A0
:10A9F00071D706082DE9F04F0C68BA4D013BAC4207
:10AA000083B09BB200F07881A5F58065AC4200F080
:10AA1000738105F58045AC425AD005F58065AC429E
:10AA200056D005F58065AC4252D0AF4E2588B76B45
:10AA30007F08B7FBF2F6013EB6B2AAB2B4F1804F7E
:10AA40000AD0AA4DAC4207D005F58065AC4203D0D0
:10AA500005F58065AC4202D122F0700292B2A44D9D
:10AA6000AC4200F02A8105F58065AC4200F02581FA
:10AA700022F4407205F56C4592B2AC422280E3624A
:10AA8000268540F04281002323860125A5820B7A8A
:10AA90004A7913F0020600F014810027DB0003F06E
:10AAA0000803B84601973946BC46BE463D464FF4BA
:10AAB00080664FF0400A4FF0040B0C2A11D8DFE8F3
:10AAC00002F0C91010109910101021101010690018
:10AAD000854E2588B66BB6FBF2F6013EB6B2AAB239
:10AAE000ACE70C2A3ED8DFE812F0DF003D003D0065
:10AAF0003D00AC003D003D003D003D003D003D00FF
:10AB00003D007C00218C7B4F21F480710904090CED
:10AB10002184218CB4F80490A58B89B225F07305AB
:10AB200021F400712D044CEA01012D0CBC4241EAD4
:10AB30000E211FFA89F945F0600500F0EB8007F55A
:10AB40008067BC4200F0E6800023A4F80490A5834F
:10AB5000E3632184A38B23F008031B041B0C43F045
:10AB60000803A383B4F844306FEA43436FEA5343C6
:10AB70009BB2A4F84430238821469BB243F00103E2
:10AB800021F8343B00238D18C0E900548B5003B0EA
:10AB9000BDE8F08F238C574923F480531B041B0C12
:10ABA0002384238CB4F804C0A68B9BB226F4E6461B
:10ABB00023F40053360448EA0305360C8C4245EA78
:10ABC0000E3346F4C0461FFA8CF500F0AF8001F555
:10ABD00080618C4200F0AA800021A580A6832164B8
:10ABE0002384A38B23F400631B041B0C43F4006336
:10ABF000A383B7E7258C3F4E25F010052D042D0CBF
:10AC00002584B4F820C0A788258B1FFA8CFC25F476
:10AC1000E6452CF0200C2D0441EA0C012D0CB44229
:10AC200041EA0E11BFB245F4C04500F08E8006F532
:10AC30008066B44200F089800023A7802583A36347
:10AC40002184238B23F400631B041B0C43F4006357
:10AC5000238387E7218C274F21F001010904090C88
:10AC60002184268CB4F80480B4F8189026F00206EB
:10AC700029F0730936044FEA09494EEA0501360CFA
:10AC80004FEA1949BC4241EA06011FFA88F849F027
:10AC900060094FD0134DAC424CD00023A4F804807F
:10ACA000A4F8189063632184238B23F008031B040A
:10ACB0001B0C43F00803238354E72280E3622685BC
:10ACC000E3E65B004FF4806103F0020E0191B246AF
:10ACD0003346B3464FF480474FF4805810214FF469
:10ACE000807CEAE6000401403810002000040040A7
:10ACF00000100040000001401A4E2588B66BB6FBDC
:10AD0000F2F6013EB6B2AAB2A6E6174B9C423FF459
:10AD1000BAAEBAE621F4006141EA032323F480616C
:10AD200029F44059314349EA08090DE725F48045E3
:10AD30003D4351E74FF6F3760E4028F44078334315
:10AD400048EA0C0843EA0B01A7E721F0800141EA39
:10AD5000031323F04001019B27F4406741EA0A01F5
:10AD60001F4369E73810002000040140F0B5224E6F
:10AD700096F8F47083B0384649F06AF996F81D41A8
:10AD8000054644B1D6F82041241AB4FA84F4640983
:10AD9000204603B0F0BD38460122512145F0A6FE01
:10ADA00007460028F4D00123C6F8205186F81D314B
:10ADB00015B140F25113EB80797A2846FDF7D0FCAB
:10ADC00038685EF089F80D4B0246A3FB0213C3F30B
:10ADD0000E35013DC3F3CF23ACB2013B00940848CC
:10ADE00039469BB2FDF76CF90124D6F80C312046A8
:10ADF0001D6003B0F0BD00BF28320020D34D6210AB
:10AE00003433002070B5214DD5F8903193F82620C9
:10AE1000DAB11B699847E0B1D5F8903193F8242056
:10AE20008AB105F5CA7600241A19E0B29B6992F836
:10AE30002C10B6EC010A9847D5F8903193F82420ED
:10AE400001349442F0DB5B69984795F8A431312BCB
:10AE500000D070BD95F8A831002BFAD0D5F890310C
:10AE600093F82430042B1E46A8BF0426002BF0D0F4
:10AE70000024074D234618465EF0E0FA0134E3B2A1
:10AE80009E4245F8040BF6D870BD00BF18010010B3
:10AE9000C402001003681A78012A01D0002070470C
:10AEA00093F90430034A03EB830302EBC303587C9A
:10AEB000C0B270472832002010B50C4CD4F8603F67
:10AEC0001B78022B10D1D4F8680F49F04DFCD4F850
:10AED000680F08B12123C380012145F0F5FF044824
:10AEE0004AF07AF9A4F8640F10BD00BF30210020A9
:10AEF00080969800054BD3F8602F1278022A03D170
:10AF0000D3F8680F49F084BF704700BF302100209C
:10AF100030B583B00D46012301460DF1070204460A
:10AF200007484AF0F9FB9DF8072035EA020304D0F0
:10AF300003482A4321464AF07DFC03B030BD00BFE0
:10AF40009030002038B505460A460C46064829468A
:10AF50004AF06EFA45F0800103484AF067F9231A77
:10AF60005842584138BD00BF90300020F0B5374DF1
:10AF7000D5F8607F3E78022E95B004460B460FD080
:10AF8000012E02D0002015B0F0BD97F9040095F80D
:10AF9000641F00931346224663F04EFB15B0F0BDCC
:10AFA000396A0029EED1CDE90A320DF10F068DF88C
:10AFB0000F00002201200023CDE90811CDE90E2366
:10AFC00005918DF81C100D91109112910496069028
:10AFD0008DF830008DF84400EFF31180102383F3D7
:10AFE0001288D5F8603F1B6A13B3069B04AC224657
:10AFF0001BB1D3691432002BFBD13B6A13B39968A0
:10B0000039B993420AD0196829B15B689968002957
:10B01000F7D01433F3E70E4AC3E90024C0B280F33B
:10B020001188D5F8602F136A002BFCD10120AAE704
:10B0300004ABC0B23B6280F3118805F576605FF027
:10B04000FDFDEEE7024A1A60FFDE00BF302100205E
:10B050009030002070B503681D78022D15D0012DA9
:10B0600001D0002070BD044693F904000B4B421C34
:10B0700083F82851F5D00228F3DC0A4603F59473CF
:10B080002179BDE87040FFF789B91B6A002BE8D130
:10B0900001224AF0CDF9012070BD00BF2832002006
:10B0A00013B53A4C0023D4F838218DF807301378C3
:10B0B00003F0FD01012905D194F83C1111B90C21CF
:10B0C00084F83C11022B1ED0032B2ED001220B2121
:10B0D0002F485BF07FFA042047F006FE2C4801233E
:10B0E0000DF1070200215BF097FA002839D09DF896
:10B0F0000730482B35D1274BC4F82C31264BC4F8E8
:10B10000303102B010BDD4F8400149F02DFBD4F825
:10B11000400108B12E23C380012145F0D5FE1F4810
:10B120004AF05AF8A4F83C01D0E7D4F8E835506862
:10B1300046F2A8111961002380F8883012223721C5
:10B140005BF01CFAD4F838310D22586824215BF0EA
:10B1500015FAD4F83831302258686A215BF00EFABB
:10B16000B4E7D4F838311A78022A03D0032A07D07A
:10B170000020C6E7D4F8400149F04AFE0020C0E7AD
:10B180005868102237215BF0F9F9F1E728320020E6
:10B190006033002077660608F966060880969800F6
:10B1A00010B58CB000234CF20502044601A9CDE98C
:10B1B0000633CDE90833ADF800208DF802300322C4
:10B1C0000B930123CDE903128DF814308DF828304C
:10B1D000CDF808D04AF016FA204602A949F03EFE02
:10B1E00020464AF00FFA9DF806000CB010BD00BFD3
:10B1F0002DE9F041614C82B0242204F62810002190
:10B2000066F0AAFC94F851790023C4F84C39002F59
:10B210003CD15B4ED6F8083163B39B6A53B35948AF
:10B220009847836833B303885748013B9BB28446F1
:10B23000064600253178032906F106061ED00135A1
:10B24000062DF7D100220178022900F1060000F056
:10B250008F800132062AF6D1D4F84C19052909D07D
:10B26000481C02FB01C2C4F84C0902200021938053
:10B2700010705180384602B0BDE8F081062303FB10
:10B280000545B5F82A39013B9BB2DBE794F8500934
:10B2900004F65813C4F8543910B9394E0027B9E7E9
:10B2A00048F0D6FEC4F8600918B183790BB1382B89
:10B2B000F3D13648394649F04FFF80460028ECD09C
:10B2C000D4F854392F4A9868C3F8942008B1202341
:10B2D000C380092145F0F8FDD4F85439284E986808
:10B2E00049F042FA2A48D4F8545949F075FF01232D
:10B2F000A8803220C6F8285186F82C3147F0F4FC9B
:10B300000423D4F8540900250DEB03029F21019575
:10B310004AF03AF89DF805509DF804309DF8061063
:10B320002D0245EA03450D43294606F584705AF07F
:10B330003FF908BB2846FDF75DFBE8B99DF80650CC
:10B340009DF805209DF807302D0245EA02451D4372
:10B35000294606F5847059F08DFF68B92846FDF737
:10B3600049FB074640B994F8500949F071FD51E78F
:10B37000062101FB02C278E747464BE7283200204E
:10B380003021002038220020503B0020803B00204C
:10B39000404B4C002DE9F04F0646044616F8010BD1
:10B3A00087B0002800F04B838B46002509E015F09C
:10B3B0003BFA01353446264616F8010B002800F00A
:10B3C00088802528F3D16278302A00F0D7800234B3
:10B3D0000027A2F13001CBB2092B4FF000035ED958
:10B3E0006C2A7AD0782AE6D8572A64D9A2F1580173
:10B3F0002029E0D801A050F821F000BFB9B600081C
:10B40000B7B30008B7B30008B7B30008B7B3000874
:10B41000B7B30008B7B30008B7B30008B7B3000864
:10B42000B7B30008B7B30008FBB5000809B60008B9
:10B43000B7B30008B7B30008B7B30008B7B3000844
:10B44000B7B30008B7B30008B7B30008B7B3000834
:10B45000B7B30008F3B50008B7B30008B7B30008E6
:10B46000B7B30008B7B300088FB50008B7B300083A
:10B4700063B60008B7B30008B7B30008B9B6000850
:10B48000BCF1050FACD8A2F137010A29A8D114F8F4
:10B49000012B03EB830301EB4303A2F13001C8B29C
:10B4A0000928A2F16106A2F1410CF0D9052EE7D8D6
:10B4B000A2F15701E9E762B1252A7FF47CAF264665
:10B4C000252015F0B1F916F8010B013500287FF49D
:10B4D00078AF284607B0BDE8F08F14F8011B782933
:10B4E0003FF669AF57294DD9A1F15802202A3FF6FE
:10B4F00062AF01A050F822F0CBB70008B7B3000844
:10B50000B7B30008B7B30008B7B30008B7B3000873
:10B51000B7B30008B7B30008B7B30008B7B3000863
:10B52000B7B30008FBB500081BB70008B7B30008A5
:10B53000B7B30008B7B30008B7B30008B7B3000843
:10B54000B7B30008B7B30008B7B30008B7B3000833
:10B55000F3B50008B7B30008B7B30008B7B30008E5
:10B56000B7B300088FB50008B7B3000875B7000877
:10B57000B7B30008B7B30008CBB70008A27801271B
:10B58000033426E70029A4D0252998D013E75BF8D7
:10B59000048BB8F1000F00F04582464616F8010B07
:10B5A000002800F04E82CBB1324600E0B3B112F871
:10B5B000011B1F46013B0029F8D1023F73B1B94678
:10B5C000202015F031F94B46002B09F1FF39F7DC4B
:10B5D00098F8000027EAE773013340B101339F1B5D
:10B5E00015F022F9F31916F8010B0028F8D11D44C3
:10B5F000E1E65BF8043B1D60DDE65BF8040BC0B2DE
:10B60000013515F011F9D6E6DBF800000028C0F28C
:10B610005481EC46092806464FF0010209DD02EB91
:10B6200082025200B0FBF2F10929F8D8002A00F09A
:10B630009181D248A0FB02E1B6FBF2F009288E46C8
:10B6400000F1570900F130084FEAD10140F2798149
:10B65000092A0CF8019B02FB106640F27B810A4626
:10B66000E7E7DBF800C0BCF1090F4FF0010209D990
:10B6700002EB82025200BCFBF2F10929F8D8002A41
:10B6800000F0A6816E46B646BC48A0FB0281BCFB1A
:10B69000F2F00928884600F1570A00F130094FEA14
:10B6A000D10140F3B581092A0EF801AB02FB10CCA1
:10B6B00040F290810A46E7E75BF804CBBCF10F0F3C
:10B6C0004FF0010140F2D8810901BCFBF1F00F28D5
:10B6D000FAD8002900F0CB816E46B0460EE0582A19
:10B6E0000CBF4FF0370E4FF0570E864401FB10CCC5
:10B6F000090908F801EB0CD0BCFBF1F00928EEDCDD
:10B700004FF0300E864401FB10CC090908F801EB1C
:10B71000F2D1002288F8002097E05BF8040B0028A3
:10B72000C0F28681EC46092806464FF0010209DD89
:10B7300002EB82025200B0FBF2F10929F8D8002A8C
:10B7400000F057818D48A0FB02E1B6FBF2F009281A
:10B750008E4600F1570900F130084FEAD10140F25E
:10B760003F81092A0CF8019B02FB106640F24181DF
:10B770000A46E7E75BF804CBBCF1090F4FF0010282
:10B7800009D902EB82025200BCFBF2F10929F8D878
:10B79000002A00F099806E46B6467848A0FB0281E8
:10B7A000BCFBF2F00928884600F1570A00F1300985
:10B7B0004FEAD10140F32181092A0EF801AB02FBC7
:10B7C00010CC40F283800A46E7E75BF804CBBCF17B
:10B7D0000F0F4FF0010240F24D811201BCFBF2F05D
:10B7E0000F28FAD8002A00F03F816E4658293146CA
:10B7F0001DD007E002FB10CC120901F8018B22D00A
:10B80000BCFBF2F0092800F1570800F1300EF1DC22
:10B8100002FB10CC120901F801EBF1D113E002FB9D
:10B8200010CC120901F8018B0DD0BCFBF2F00928F5
:10B8300000F1370800F1300EF1DC02FB10CC1209E8
:10B8400001F801EBF1D100220A709DF80090002F61
:10B8500014BF4FF030084FF02008B9F1000F00F08E
:10B86000FE800DF1010211460BB91AE0CBB111F8BF
:10B87000010B1F46013B0028F8D1023F8BB1BA46AD
:10B88000404614F0D1FF5346002B0AF1FF3AF7DC93
:10B8900027EAE7730133B9F1000F3FF4A8AE0DF1C9
:10B8A000010217469E1B484614F0BEFFBB1917F84D
:10B8B000010B0028F8D11D447DE52D2240428DF872
:10B8C00000200DF1010CA5E66E46B64600228EF86A
:10B8D00000209DF80090002F14BF4FF030084FF06B
:10B8E0002008B9F1000F00F0B5800DF101021146FA
:10B8F0000BB91AE0CBB111F8010B1F46013B002830
:10B90000F8D1023F8BB1BA46404614F08DFF534642
:10B91000002B0AF1FF3AF7DC27EAE7730133B9F1AC
:10B92000000F3FF464AE0DF1010217469E1B48461E
:10B9300014F07AFFBB1917F8010B0028F8D11D4449
:10B9400039E5092A0CF8018B02FB10664FEADE018B
:10B950003FF685AE00220BF1040B8CF800209DF819
:10B960000080002F14BF30272027B8F1000F6DD0C2
:10B970000DF10102114623B91DE000BFCDCCCCCCA6
:10B98000CBB111F8010B1E46013B0028F8D1023E55
:10B990008BB1B146384614F047FF4B46002B09F1F6
:10B9A000FF39F7DC26EAE6730133B8F1000F3FF404
:10B9B0001EAE0DF101026E4617469E1B404614F066
:10B9C00033FFBB1917F8010B0028F8D11D44F2E42E
:10B9D0006E46B64600220BF1040B8EF8002078E785
:10B9E000092A0CF8018B02FB10664FEADE013FF6D4
:10B9F000BFAE00228CF80020B1E7092A0EF8019BA7
:10BA000002FB10CC4FEAD8017FF660AF0A46C4E6CD
:10BA1000092A0EF8019B02FB10CC4FEAD801D9D9B4
:10BA20000A4631E6DFF85480282008F10106BAE51D
:10BA30002D2240428DF800200DF1010C73E60546E1
:10BA400047E55F1E002B7FF4BAADB4E45E1E002B09
:10BA50009FD1B0E45F1E002B7FF455AFABE45F1EB7
:10BA6000002B7FF40CAFA6E46E463146EBE66E4643
:10BA7000B0464EE66046B8E660462DE67CBC070858
:10BA80002DE9F041C54BC64EC64DC74C0822C3F840
:10BA90008820336B82B043F00103336307464FF4D1
:10BAA000C052284640F2023388466946CDE9002359
:10BAB0000BF074FA6B6AC4F8D48F23F470436B6292
:10BAC0006B6AC4F8DC7F43F420436B626B6AB7494E
:10BAD000C4F8D81F23F470236B626B6AB448C4F8AF
:10BAE000F00943F420236B62736CB249C4F8F41973
:10BAF00043F480437364736BAF48B049C4F8000AE1
:10BB000043F0800302257363AD4F84F8F859AD4EBE
:10BB1000AD4DC4F8441A4FF0A043C4F8FC39AB4A09
:10BB2000C4F80C7A03F53463A1F5D071C4F8485A0F
:10BB3000C4F8106AC4F84C3AC4F8141A0123DFF8A8
:10BB4000BCC2C4F808CA07F51077A5F5E465A6F5E8
:10BB5000A066A1F58C61C4F8507AC4F8045AC4F800
:10BB6000BC6A84F8FB3905F5A075536106F5B0761B
:10BB7000C4F8801A84F8023B1946954B954AC4F8DC
:10BB8000885AA7F5BC67A035C4F8946A924EC4F8E9
:10BB9000907AC4F8983A07F5D45703F56953C4F876
:10BBA0009C5A4FF050250020DFF854E2C4F8C02A18
:10BBB000ACF5687C02F5A042C4F8C47AC4F8C86A3F
:10BBC00007F5A04706F5A046C4F8CC3AC4F8D05A09
:10BBD000A3F5485304F51F65C4F8D42AC4F8DC6AF9
:10BBE000C4F8FC3AC4F884EAC4F88CCA0246C4F823
:10BBF000D87A2B4684F8040B402683F81C21A3F83E
:10BC000022210132042AC3E9496083F81D1183F817
:10BC10001F01C3F8300103F12803EED100221146C1
:10BC20002B46402083F87423A3F87A230132042A98
:10BC3000C3E9DF0183F8751383F87713C3F888131A
:10BC400003F12803EED14FF0A04364489A6822F034
:10BC500001029A60DA6842F04002DA600AF05CFAA7
:10BC600094F8F9390022212161F317420BB142F413
:10BC7000801294F8F319D4F8FC3901299A6300F082
:10BC8000E480DA68D4F8FC6AD4F8000AC2F30761E9
:10BC900021F0600141F0400161F31F620021DA6090
:10BCA0003160026861F3CC22026094F8FB29012A1A
:10BCB00000F0B88010214A480AF080FD48480AF098
:10BCC00063FDD4F8000A94F8F13900224FF0FF31F7
:10BCD000026142618161C26153B305F11407414EB3
:10BCE000114607EB83074FEA830C4FF0FF0E56F81F
:10BCF000042F1368002BACBF00234FF09043B742D2
:10BD000013601161C2F808E0F1D105F15003364922
:10BD100063440027FF2651F8042F1568002DACBF9F
:10BD200000254FF090459942156017619660F2D159
:10BD3000036994F8F31943F480730129036161D016
:10BD4000D4F8FC2929480023936100294FF0FF33E0
:10BD50006FF0804151615360516114BF0023102383
:10BD6000906143F470139069D4F8D81F43F4605382
:10BD700043F00803034393619368096843F00103A8
:10BD8000936088471A4B1B4ADA6068461A4B009347
:10BD9000FDF79CFC02B0BDE8F08100BF00E100E0CF
:10BDA000003802400000024028320020FC0300203E
:10BDB000080401004000400100080050000B005042
:10BDC0002009005040090050200B0050003C014069
:10BDD000C00500500010005000300050243C0020EE
:10BDE000183C00202C3C0020683C0020000800800B
:10BDF00000ED00E00005FA054302000100090050D3
:10BE000020050050D4F8FC29144B03636FF08041E7
:10BE1000134D00234FF0FF30936151615060516129
:10BE200095619EE701680F4A0F4E41F003010160E2
:10BE3000802159629E62C3F80421E022C3F80821E0
:10BE4000C0F24002C3F80C2134E79A6822F03E01A8
:10BE500041F02A0161F307029A6012E703018100B1
:10BE600000080080A00040008000200010B51A4C9F
:10BE700094F8E50FC0B9194B83F8E908C3F8EC084A
:10BE800094F8E83F012B05D0022B21D0D4F8EC3FE9
:10BE90001BB910BD124BC4F8EC3F12495B68BDE8FA
:10BEA0001040A1F10C00184748F0D2F894F8E72FA1
:10BEB0000A49003A18BF012281F8E928C1F8EC08C4
:10BEC0000028DDD01F22C280202144F0FDFFD7E7EB
:10BED000054BC4F8EC3FE0E7283200203810002082
:10BEE0003C040020184200201804002099B10A6B7D
:10BEF000824216D9154B53F8CC2C914221D35C3990
:10BF000091421ED30B6B9842F9D38B6B9842F6D8B3
:10BF10000B46184670470D4B53F8CC1C0A6B9042E9
:10BF200012D30B680BB9F4E70A6B90420B4602D3AD
:10BF30008A6B9042EDD951F85C3F002BF4D1184642
:10BF400070470023184670470A46D8E72043002070
:10BF50002DE9F047CC0143D10346224A43F8082B90
:10BF60004FF0FF324260022418467E26DFF87880C8
:10BF700058F8C89C2644013E051D49466FF070479D
:10BF80004FF0010A08E0A3421CD0631C45F8043CB2
:10BF9000321B1C460435CAB10B6BA34202D88B6B13
:10BFA000A34204D22046FFF7A1FF014690B10A79CF
:10BFB0004B6B002AE7D1A34204D0E6D245F8042C0B
:10BFC000631CE5E745F8047C631CE1E748F8C81CFE
:10BFD000BDE8F08745F804AC321B631C4946D8E73E
:10BFE0008026C3E7F8FFFF0F204300200E4ADFF84A
:10BFF00044C010B50D4C42F8AC4C0D4C42F8C00C8E
:10C00000002342E92DC422F8BC1C42F8B83C22F8B7
:10C01000BA3C02F8A83C2822994204D002FB03F45F
:10C0200003530133F8E710BD2043002040420F00C6
:10C03000A01CE9FF20A1070070B4447941BB03684C
:10C040004FF400524FF40076202502213CBB1A8C9D
:10C0500022F001021204120C1A841A8B188C22F09E
:10C06000F30280B2120420F00A00120C014342F0E5
:10C07000010241F001011A8319841A8B22F00C028B
:10C080001204120C1A831A8B92B270BC1A83704776
:10C0900000220368164615461146002CD7D0042C02
:10C0A00021D0082C38D0198C21F480510904090CB6
:10C0B00019849C8B1D8C45F6FF7040F6FF4128408B
:10C0C0002140024342F4805241F4807199831A84E2
:10C0D0009A8B22F440621204120C9A839A8B92B2C9
:10C0E00070BC9A8370471A8C22F010021204120C52
:10C0F0001A84188B198C89B240F6FF4221F0A001F6
:10C1000002400D4342F4807245F010051A831D84ED
:10C110001A8B22F44062B3E71A8C22F48072120464
:10C12000120C1A84998B1A8C21F0F30192B2090433
:10C1300022F42062090C324342F4807241F0010182
:10C1400099831A849A8B22F00C02C4E710B5044636
:10C1500000680AF027FE0C4B9A6B204652084FF6F7
:10C16000FF7144F0EDF920460021FFF765FF074914
:10C17000074BC1F89C3D20460022BDE8104001F667
:10C180009C5144F05BB900BF3810002030210020E2
:10C19000A9BE010870B53B4C54F8A43C5A0684B0C3
:10C1A00027D454F8983C5B0654D454F88C3C5E0673
:10C1B00053D454F8803C5D0652D454F8743C58066D
:10C1C00051D454F8683C590650D454F85C3C5A0693
:10C1D0004FD454F8503C5B064ED454F8443C13F012
:10C1E00040034CD1092244F8303C04F8342C04B00C
:10C1F00070BD00230121244A04F8341C92F879010F
:10C2000092F87A1192F87B51204A002814BF02203C
:10C21000002003EB4303002914BF1021002104EB8D
:10C220008303002D18BF40F00100014303264FF4A3
:10C23000E13513F9A00C0095CDE9016100234021FF
:10C240003FF09FF844F8300C0028D0D0104B4363E7
:10C2500004B070BD01230221CDE702230321CAE708
:10C2600003230421C7E704230521C4E7052306218E
:10C27000C1E706230721BEE707230821BBE7082300
:10C280000921B8E72043002030210020D9520208BC
:10C2900021520208F0B5B74D95F83D1085B013292D
:10C2A0002DD8DFE811F02F002F00BB008B01AF0469
:10C2B00014001400EE016A02BD022F002C003D03A1
:10C2C000D4032C00BB001B04210414004504AA4C19
:10C2D000AA4BAB48AB4A6B6406294FF0000384F8C5
:10C2E000883084F8893084F88A30A8642A6500F0A0
:10C2F0004486122900F0C684052900F043850020F9
:10C3000005B0F0BD9C4CA04A54F8A43C22625A06E9
:10C3100000F1B68654F8983C5E0600F1CB8654F8DE
:10C320008C3C580600F1D48654F8803C5A0600F143
:10C33000F98654F8743C5E0600F1028754F8683CB4
:10C34000580600F11E8754F85C3C5A0600F133850C
:10C3500054F8503C5E0600F1348754F8443C13F026
:10C36000400000F04A8408220926002013F4057FCB
:10C3700004F8346C84F8240000F08685022940F229
:10C380002C86CB1E042B40F217860A2900F03F862C
:10C39000002900F0288602EB420204EB8203794A6E
:10C3A00013F9A00C794B7A4E7A496E64C5E91332C1
:10C3B000A9640127784E96F8793196F87A21002BF6
:10C3C00014BF02230023002A40F0A88594F82420FB
:10C3D000002A14BF1022002296F87B110197002931
:10C3E00018BF43F0010313434FF4E132029300926C
:10C3F000654B6A4A40213EF0C4FF96F8803195F8BB
:10C400003E206063013BDBB29A4284F8383000F290
:10C410003484002384F8383000F02FBCB5F8602055
:10C420005F485D4E544C96F88C31DFF88CC15D4FFF
:10C430001201A0FB0202D208A2F5B06292B2002063
:10C4400062F30F0062F31F40002B18BF6246C4E97D
:10C450000F0042F6F82CC4E91100C4E91300C4E946
:10C460001500E06504F1600008BF3A4654F8A43CAA
:10C47000A86541F270774FF0120008BF6746A5F833
:10C48000407085F83E00484F3E486F6404F13C0C14
:10C49000464F28655806C4F88420C5F854C0AF64D8
:10C4A00000F1EA8554F8983C5F0600F1078654F8DD
:10C4B0008C3C5D0600F1108654F8803C580600F173
:10C4C000258654F8743C5F0600F13E8654F8683CBB
:10C4D0005D0600F1528654F85C3C580600F1678412
:10C4E00054F8503C5F0600F1708654F8443C13F059
:10C4F000400000F082830820092513F4057F04F82A
:10C50000345C40F0A68503F48253B3F5825F00F0FB
:10C5100028850F2900F0288500EB400004EB8004FB
:10C52000012514F9A00C96F8793196F87A41002B80
:10C5300014BF0C230E23002C40F008850F290CBFDC
:10C540001021002196F87B410092002C18BF43F087
:10C5500001030B430293164A164B019540213EF00E
:10C5600010FF96F88431002B00F08783052386F8AE
:10C57000953182E33810002020430020114002084A
:10C5800039400208E163020874100020895402084F
:10C59000DD5402083955020830210020C55902082F
:10C5A000CDCCCCCCA0860100795A0208995A020859
:10C5B000415C020880430020400D03008B4C8C4AF4
:10C5C00054F8A43C6A64182042F6F82285F83E002C
:10C5D000A5F840208748884AA8645F062A6500F1CC
:10C5E000448554F8983C5E0600F1608554F88C3C14
:10C5F0005D0600F1758554F8803C580600F18A8587
:10C6000054F8743C5A0600F1A38554F8683C5F0660
:10C6100000F1BB8554F85C3C5E0600F10F8454F8D1
:10C62000503C5D0600F1D58554F8443C13F04000C1
:10C6300000F0E3820822092013F4057F04F8340C8B
:10C6400000F0528402EB420204EB820414F9A00CC5
:10C650006A4E019196F8791196F87A3196F87B41F5
:10C66000674A002914BF02210021002B14BF1023A8
:10C670000023002C18BF41F001010B434FF4E131BE
:10C68000F5E25A4C5F4A54F8A43C6A6444F62060D0
:10C690001226A5F84000584885F83E6000225A4E00
:10C6A0002865580684F89320AE6400F1E28454F8BB
:10C6B000983C5A0600F1F48454F88C3C5F0600F173
:10C6C000178554F8803C5E0600F1198554F8743CD7
:10C6D0005D0600F1418554F8683C580600F1468536
:10C6E00054F85C3C5A0600F1B08354F8503C5F06A5
:10C6F00000F15F8554F8443C13F0400000F07D8267
:10C700000822092103F48253B3F5825F04F8341C34
:10C7100000F0958402EB420204EB8202002512F93C
:10C72000A00C0127354E96F8793196F87A11002B36
:10C730004FF0000314BF02221A4684F894300029F7
:10C7400040F0EF83002D00F0698496F87B3101976B
:10C75000002B18BF42F0010242F010024FF4E13505
:10C7600002920B46294A009540213EF00AFE002322
:10C77000C4F8980084F89C307FE21C4C244B6B6416
:10C7800028211023234A84F8AE10002741F27C515F
:10C7900085F83E304020184B84F8AD70A5F8401065
:10C7A000AA642B653CF024F900283FF4A8AD134E91
:10C7B000194996F8792196F87B3190F90400009197
:10C7C000BA4214BF12221022BB4218BF42F001022B
:10C7D0000321CDE901123B46104A40213EF0D1FD34
:10C7E000C4F8B000C01B18BF012089E52043002019
:10C7F000E54B0208FD4B0208E163020830210020EE
:10C80000D54C0208056A02086D7402081D6A020808
:10C810007D640208A564020848E801004565020835
:10C82000B5F86030B14AB24CB24868641B01A2FB53
:10C830000323B14854F8A42CA864DB08A3F5B06323
:10C8400041F60B20C4E92E33C4E93033C4E9323356
:10C85000C4E93433C4E93633C4E93833C4E93A337C
:10C86000C4E93C331026A54BA5F84000500685F8D6
:10C870003E602B6500F1088454F8983C5A0600F19C
:10C880000C8454F88C3C5B0600F12E8454F8803CF8
:10C890005F0600F1438454F8743C5E0600F14C845A
:10C8A00054F8683C5D0600F1748454F85C3C58060A
:10C8B00000F1C88254F8503C5A0600F17E8454F8C6
:10C8C000440C10F0400000F0988108238C4E8D4DF0
:10C8D00096F8792196F87B010095002A03EB430333
:10C8E00004EB830314BF02220022002818BF42F089
:10C8F0000102032513F9A00C834BCDE9015204F882
:10C90000341C824A40213EF03CFD96F89531C4F833
:10C91000F800002B40F0B181062386F89531ACE198
:10C92000B5F86030714A724C794969641B01A2FB09
:10C930000323DB08A3F5B0639BB2002263F30F026D
:10C9400063F31F421223C4E93F22C4E94122C4E930
:10C950004322C4E9452254F8A41CC4F81C2185F8DC
:10C960003E306C4A654B6C48A864C5E9132304F15A
:10C97000FC0642F6F8204B066E65A5F8400000F173
:10C98000868354F8983C5F0600F19C8354F88C3CF5
:10C990005E0600F19A8354F8803C5D0600F1C68380
:10C9A00054F8743C580600F1C48354F8683C5906A6
:10C9B00000F1D98354F85C3C5A0600F1008254F827
:10C9C000503C5B0600F1EF8354F8440C10F040003B
:10C9D00000F0138108230927494E04F8347C96F8A7
:10C9E000790196F87A1196F87B514C4A002814BFC9
:10C9F0000220002003EB4303002914BF3021002153
:10CA000004EB8303002D18BF40F001000143032510
:10CA10004FF4E13713F9A00C0097CDE90151002341
:10CA200040213EF0AEFCC4F82001002800F0258132
:10CA30003B480DF039FD96F8953184F82401D4F87F
:10CA40002001002B40F0198186F8955115E12C4EFC
:10CA5000274C96F88A3196F88B212376A4F1280387
:10CA600062766B654FF080224FF0802344E90A2301
:10CA700044E9082344E9062344E9042344E9022362
:10CA8000C4E90023C4E90223C4E90423202242F6B6
:10CA9000F82385F83E20A5F84030184A214B54F879
:10CAA000301C214F21486F64C5E91332A864002966
:10CAB00000F04F820123A37644F08EFD96F8953165
:10CAC00000F543405030E06113B9032386F89531F7
:10CAD00054F8300C003818BF012011E4012005B0D3
:10CAE000BDE8F040FCF714B80020F8E7CDCCCCCC82
:10CAF00020430020015D0208555D0208E163020841
:10CB000030210020A0680600741000200D6002088B
:10CB1000795A02089DBB0208C1AA0208493E0208D0
:10CB20003DBB0208A15102086951020821700208A8
:10CB3000C74BC84F6B6444F62062122385F83E3021
:10CB4000A5F84020C44BC54AC54CAB64EA64C54B4C
:10CB50002B654FF4B672002107F5367064F0FCFFC8
:10CB600054F8A40C40F2DC5240F2DC53012146069A
:10CB7000C7E9B623C7E9B823C7E9BA23C7E9BC2385
:10CB8000C7E9BE23C7E9C023C7E9C223C7E9C42355
:10CB9000C7E9C623C7E9C823C7E9CA23C7E9CC2325
:10CBA00087F8EF1300F1768254F8983C5D0600F1A7
:10CBB0007B8254F88C3C580600F19E8254F8803CED
:10CBC000590600F1A08254F8743C5A0600F1C8825C
:10CBD00054F8683C5B0600F1CD8254F85C3C5E067C
:10CBE00000F1F08054F8503C5D0600F1DF8254F80B
:10CBF000440C10F0400040F0F382092304F8343C68
:10CC000005B0F0BD984A994B082042F6F82185F806
:10CC10003E004020C5E91123A5F840103BF0E8FE96
:10CC2000044600283FF46BAB95F83D10904E10F091
:10CC3000ABF996F8791196F87A3196F87B518D4ACE
:10CC40000746002F94F9040014BF0324012400298F
:10CC500014BF02210021002B14BF10230023002D3C
:10CC600018BF41F001010B4301944FF4E1310293ED
:10CC70000091002340213EF084FB003818BF0120C2
:10CC800005B0F0BD102343F2B06085F83E3040F6A9
:10CC90008C2284F89130A5F840004723764D84F823
:10CCA0009210C4F88C2084F8903054F8A43C5806B4
:10CCB00000F1738254F8983C5A0600F1718254F8DE
:10CCC0008C3C5F0600F1898254F8803C5E0600F1DE
:10CCD0008A8254F8743C580600F1888254F8683C03
:10CCE0005A0600F1868254F85C3C5F0600F18482AB
:10CCF00054F8503C5E0600F1828254F8443C13F034
:10CD000040003FF47AAF0822092013F4057F04F8AD
:10CD1000340C00F0F2800F2900F0F880122900F0A6
:10CD20007182052900F06E82062900F06B820729C6
:10CD300000F0688202EB420204EB8204012314F942
:10CD4000A00C4B4E019396F8792196F87A3196F81B
:10CD50007B110095002A14BF02220022002B14BF71
:10CD600010230023002918BF42F00102134302934D
:10CD7000424A002340213EF004FB003818BF012046
:10CD8000FFF7BEBA0C2385F83E3042F6F8204FF488
:10CD9000FA5284F891301B23A5F8400084F89210D1
:10CDA000C4F88C2084F890304FF4E1357DE70620FC
:10CDB0000725FFF7A2BB06220726FFF7D6BA0623F0
:10CDC000072709E606210725294E2D4896F87931CF
:10CDD00096F87B210090002B01EB410104EB8101CF
:10CDE00014BF32233023002A18BF43F0010303226B
:10CDF00011F9A00CCDE90123402104F8345C214A4B
:10CE000000233EF0BEFA0546C7F8400388B1002370
:10CE10003F22C4F8A05087F8442487F8452484F8BA
:10CE2000A43084F8A530C4F8A83084F8AC301EF0E3
:10CE300067FF281E18BF0120FFF762BA06220720ED
:10CE4000FFF7FABB0623072140E506225AE400BF9C
:10CE500049660208880100205D66020835BE0208A6
:10CE600020430020E1630208514B0208754B020881
:10CE7000302100201951020890D003009544020887
:10CE800060E31600E566020803F48253B3F5825F9F
:10CE900000F08F8001297FF478AA00210320072366
:10CEA00084F82C0084F82D3001204FF4006384F8BE
:10CEB0002E0023630C2042F6F82385F83E00A5F8E7
:10CEC000403002EB420204EB8202D24B12F9A00C7A
:10CED000AB64D14AD14BD24E6E64C5E913320029FE
:10CEE0005FD00327FFF766BA02EB420204EB82042D
:10CEF000012114F9A00CFFF7ABBB03F48253B3F587
:10CF0000825F7FF417AF07297FF414AF02EB420270
:10CF100004EB8204032314F9A00C12E71022FFF79C
:10CF20005BBA96F87B110197002918BF42F0010205
:10CF300042F010024FF4E13102920091B94A4021CF
:10CF40003EF01FFA002D3FF498AE10E41021FFF7D9
:10CF5000F9BAFFF71FF954F8303C002B3FF4CFA982
:10CF6000A8E507297FF4D5AA00EB400004EB800474
:10CF7000032514F9A00CFFF7D6BA0C2385F83E3030
:10CF800043F2B0604FF4FA5284F891302123A5F8AF
:10CF9000400084F89210A44DC4F88C2084F890309E
:10CFA00083E694F82430002B14BF03270127FFF7F2
:10CFB00001BA07297FF46EAF02EB420204EB820351
:10CFC000954A13F9A00C954B954E92496E64C5E9AC
:10CFD0001332A9640327FFF7EDB901293FF45EAFCF
:10CFE0000029E9D101210220032384F82C0084F8D0
:10CFF0002D3000204FF4806384F82E002363072037
:10D0000045F2F05385F83E00A5F8403059E7A36A91
:10D01000C3F3802384F8243000213FE796F87B3166
:10D020000197002B18BF42F001024FF4E131029248
:10D0300000917C4A2B4640213EF0A3F91DE602EB0D
:10D04000420204EB8203012513F9A00C0327FFF72A
:10D0500069BB764DCD40ED0786D403F48253B3F51A
:10D06000825F7FF456AAFFF757BA00220120FFF72C
:10D07000E3BA0121FFF746BB00200125FFF73DBAC7
:10D0800000220126FFF771B9002301211EE40023CD
:10D090000127A1E40D46002196E60123022115E4B3
:10D0A00001220221FFF72EBB02258DE6012202207C
:10D0B000FFF7C2BA01220226FFF757B90120022565
:10D0C000FFF71BBA0123022786E40223032783E428
:10D0D00002220326FFF749B902200325FFF70DBA04
:10D0E00008460222FFF7A8BA02230321FFF7EEBB8E
:10D0F00002220321FFF706BB0221032564E6032277
:10D100000421FFF7FFBA032104255DE6032004256F
:10D11000FFF7F3B903220420FFF78EBA032304219B
:10D12000FFF7D4BB03220426FFF71FB9032304270C
:10D1300052E4042305274FE404230521FFF7C6BB6F
:10D1400004220526FFF711B904200525FFF7D5B9FC
:10D1500004220520FFF770BA04220521FFF7D2BA96
:10D160000421052530E60523062735E4052206219E
:10D17000FFF7C8BA0521062526E605200625FFF794
:10D18000BCB905220626FFF7F0B805220620FFF7F6
:10D1900053BA05230621FFF799BB00220120B4E50D
:10D1A00001220220B1E50723082715E407210825FD
:10D1B0000AE607220821FFF7A5BA07230821FFF78F
:10D1C00085BB07220826FFF7D0B807200825FFF700
:10D1D00094B907220820FFF72FBA0222032094E512
:10D1E00008210925F0E5032204208EE5042205200C
:10D1F0008BE50522062088E50622072085E5072223
:10D20000082082E50C2303FB0242032312F9A00C41
:10D2100097E500BF39550208E16302088954020806
:10D22000DD5402081D6A020890D00300FF8004004C
:10D2300010B5104C104BC4F828310121002304F51F
:10D24000947084F8343184F8373184F839310FF030
:10D25000CBFAD4F828315B6C0121FF2284F8351118
:10D2600084F8362123B104F59470BDE810401847C6
:10D2700010BD00BF20430020401F07080449054A95
:10D28000054B8360C0E900120C3054F00BB900BFAD
:10D29000A514060879EF050825EF050803490023C2
:10D2A000C1E94F33C1F84431704700BF204300202B
:10D2B000024B0022C3E95222704700BF20430020E6
:10D2C0002DE9F04FB44CB54AB4F8D011B4F8CE31D2
:10D2D0002DED088B07EE901A0AEE903A92F8513134
:10D2E000DFEDAFBA9FEDAFBAB8EE67AA07EE903A9E
:10D2F000B2F85231F8EEE77AF2EE046A0A2B87EEC2
:10D30000A67AB8BF0A2385B004F6842704F66C6AAF
:10D3100004F6846604F5AC5B07EE903AB2F854313B
:10D3200087ED007A08EE103AF8EEE78AB8EEC88A80
:10D33000B6EE009AF4EE488A2AEE090AF1EE10FAE7
:10D34000C8BFB0EE688A92F85031C7ED018AB4EEDA
:10D35000C80AF1EE10FAD8BFB0EE408A082B4FF0A1
:10D360000002A8BF0823B1F57A7F38BF134680EECC
:10D37000080AC4F8942AC4F8903A87ED028A61F04A
:10D3800007FFF7EE009AB4EE690AF1EE10FA48BF13
:10D39000B0EE690AFDEEC07AF8EE6AAAB8EEE77A56
:10D3A00017EE905ACAEE8A7A04F65C63C4F8585EA7
:10D3B000DFED7DAA67EE877AC9EEA76ADFED7B7A9B
:10D3C000C3ED006ACAEE076A04F5666386EEA7AA93
:10D3D00088EE8A0A83ED00AA61F05AFF0228B8BFDE
:10D3E000022088EE0A0A8046C4F8640E61F050FFFD
:10D3F0002328A8BF2320B8F1230FA8BF4FF023088C
:10D400004045C4F8680EB8BF4046A0EB0802012DA5
:10D41000DAED007A9FED668A66498146B8BF01253C
:10D420000132F5EE407AF1EE10FA2BD16248019507
:10D43000002302961D46064607EE905AB8EEE7AA6C
:10D4400003922AEE2BAA0135B0EE4A0A61F058FE8B
:10D45000F0EE408AB0EE4A0A61F0ECFFE0EE088A96
:10D46000242D5449039A68EEAA8A20EE2A0AC6EDB2
:10D47000008A86ED010A06F10806DDD1DDE90156D4
:10D48000F0EE4B7A002346E9053892FBF5F046F8BA
:10D490000C9C46F8080C46F8045C30460133482BD7
:10D4A000A0EC018AFAD1D1F8E8E0D1F8ECC006F599
:10D4B0009073002001302428C3F800E0C3F804C0B2
:10D4C00003F10803F6D106F515765E45A9D1DFF81C
:10D4D000F090DFED3A8ACAED007A0026BD19CA46FF
:10D4E0004FF00008D4F8903A984548DA07EE908A51
:10D4F00097ED016AF8EEE76AD7ED027A36EE897A9F
:10D5000077EEC67A67EE877A07EE103AB8EEC77AFA
:10D51000B4F8CE3187EE870A30EE060AB5EEC00ABF
:10D52000AAEC010AF1EE10FA97ED001A85ED208AB7
:10D5300085ED1F8A85ED1E8A85ED1D8A11DD83B17B
:10D54000A6EEA81AB5EEC01AF1EE10FA09DD07EE44
:10D55000903A0421F8EE670A05F1740057F0D0F90B
:10D5600009E0C5ED219A85ED228A85ED238A85EDB6
:10D57000248A85ED258A08F101082435B2E706F5ED
:10D580009076B6F5587F09F12009A7D105B0BDEC1A
:10D59000088BBDE8F08F00BF180100102043002069
:10D5A000C3B8B23DBC297E3F72F97F3F0000904274
:10D5B00000000000A01E070884160010CDCC4C3ED1
:10D5C000B00B00102DE9F04F2DED028BDFF8D88164
:10D5D0006E4CDFF8D8A1DFED6E8A9FED6E8A85B0C4
:10D5E0000127FEB218F8010B32464F2143F07EFAB4
:10D5F0000546002800F09F80D0F800B0A06001230D
:10D60000BBF1804F04F8303C00F0A080624B9B459A
:10D6100000F09C800023584604F82F3C5BF05CFC33
:10D6200007EE900AF8EE677A4FF4807344ED0A7AB9
:10D63000DFF87C9144F8103C4FF400520023584628
:10D6400044E9062344F8083C5BF046FC99F85E3157
:10D6500044ED088A07EE903AAAFB0030F8EE677AAC
:10D66000C308012218F8010C44F80C3C04ED0B8AA5
:10D6700044ED097A24F81C2C24F81A2C46F0E8FC16
:10D68000E06010B14F23C671837199F85C31012BB2
:10D6900079D0022B0CBF422102216A7A46F0C4FDE8
:10D6A00028685BF019FC00210246284642F048FF3A
:10D6B00014F82F3C002B58D02146384B41F8043D3C
:10D6C0000022284642F0BAFE99F85D312868002B06
:10D6D0004FF0010914BF00230223CDF80890ADF8E4
:10D6E000063004236A79ADF804200DEB0301ADF890
:10D6F0000C3009F04DF954F8103CA2682849126822
:10D7000091F89416013E013B9BB2F6B213854FF09F
:10D71000FF3500234FF40050B142D562A2F81490B7
:10D7200044E9060324F81C9C24F81A9C44F8083C9D
:10D7300001D142F031FC0137052F04F140047FF4A0
:10D7400050AF05B0BDEC028BBDE8F08F4FF0010982
:10D75000584604F82F9C5BF0BFFB07EE900AF8EEEA
:10D76000677A4B4644ED0A7A62E70E48DFF844C018
:10D7700044F8040C2246211F28466360C4F800C008
:10D7800042F05CFEA0E7222187E700BFD41700101B
:10D7900000401C4600000000000C0040C9F10408D5
:10D7A00010120010F1F20408784400201F85EB519C
:10D7B00020430020BDFF040870B5084C251D2E46EF
:10D7C00014F8010B34F0C2FD28B1037905F8013BD0
:10D7D000B442F5D170BDFF23F8E700BF80440020BC
:10D7E0002DE9F0471D4F012607F10805B2464FF01D
:10D7F00033094FF0000817F8010B46F029FC0446E6
:10D8000090B180F80690C671FB7803F07F02012A80
:10D8100018D013F0800F20460DD185F8048046F013
:10D820009DFF85F805802C600136052E05F1080561
:10D83000E1D1BDE8F08785F804A046F095FF85F8B2
:10D8400005A0F0E71B0605D40121204643F03CFB70
:10D85000FB78DEE746F088FFF6E700BF884400204B
:10D86000184B03F5DA72C3F8A821EFF311811022E7
:10D8700082F312880022C3F81022C9B2C3F814221E
:10D8800083F8182283F81C2281F3118893F835223B
:10D8900093F83612C3F82002002A14BF0222002295
:10D8A00011B142F0300252B20748084983F82422ED
:10D8B0001A22C3F8280283F82C22C3F83012012060
:10D8C000704700BF2043002009BA030891BD030838
:10D8D0003D4BB3F8CE3107EE903A2DE9F041FAEE28
:10D8E000EF7A2DED048BB4EEE70AF1EE10FADFEDDE
:10D8F000378AB0EE408AF0EE419A06DDF4EEE70A90
:10D90000F1EE10FA4BD5B0EE678AB5EEC08AF1EEB3
:10D9100010FA49DDF5EEC00AF1EE10FA44DDF4EE3E
:10D92000C80AF1EE10FA3FD560EEE07A20EE887A70
:10D93000E8EE087A87EE279A254E264FDFF8988082
