:020000040800F2
:10000000000001207DAC050819AD05087D5A0408E3
:10001000E15A040819AD050819AD050800000000F3
:1000200000000000000000000000000019AD0508FD
:1000300019AD05080000000019AD050841240408A9
:1000400019AD050819AD050819AD050819AD050864
:1000500019AD050819AD0508315C0408295C0408D0
:10006000215C0408195C0408115C04084136000096
:10007000313600002136000011360000FD35000049
:10008000E9350000D535000019AD050819AD0508A2
:1000900019AD050819AD050819AD0508095C040876
:1000A0006976050861770508597605088977050896
:1000B0005177050841770508317705084D96050801
:1000C00059960508359605084196050819AD0508A5
:1000D00019AD0508251B0000191B00000D1B0000B1
:1000E000015C040819AD050819AD05084976050835
:1000F0007976050819AD0508A1760508C135000017
:1001000019AD0508E96A05082177050819AD050844
:10011000011B0000F51A0000B1760508CDE10008CA
:10012000AD350000993500008535000071350000BF
:100130005D3500000000000000000000000000002D
:1001400000000000000000000000000065E600085C
:10015000493500003535000021350000E91A00005E
:100160001D9605082996050819AD050819AD05085D
:1001700019AD050819AD05080000000000000000D9
:1001800019AD050819AD050819AD050819AD050823
:1001900019AD050819AD05080000000019AD0508E6
:1001A00000000000000000000000000019AD05087C
:1001B00019AD050819AD0508000000000000000099
:1001C000000000000000000000000000000000002F
:1001D00000000000000000000000000019AD05084C
:0801E00094A7050001000000D6
:1001E8000E02010002000000205F0120285F0120AC
:1001F8000000000068F30608245F012014020100D3
:1002080005000000103B0120305F012000000000C5
:100218006AF306082C5F01200D1001007000000031
:10022800705D01203C5F012000000000C3740308DA
:10023800385F0120F10308003001000058590120FF
:10024800B05F01200000000041EA0408AC5F012013
:10025800FD010100240000001C590120E460012078
:1002680000000000DFE80308E06001201602150026
:100278003F000000A45801200C610120000000008C
:10028800D1E70408086101200610010030000000D1
:1002980070580120506101200000000085E9040821
:1002A8004C610120FB010100010000006C58012095
:1002B8008461012000000000B1E804088061012089
:1002C800FC01010009000000385701208C61012061
:1002D80000000000B9E8040888610120F701010066
:1002E80006000000085701209C6101200000000062
:1002F80070F3060898610120F9010100040000006C
:10030800F8560120A861012000000000F9EA04085D
:10031800A461012002000100140000009856012089
:10032800B06101200000000000000000AC61012065
:10033800F50301003A00000040560120C861012081
:100348000000000076F30608C461012011020100D4
:100358000800000018560120086201200000000073
:10036800B0F3060804620120121201000400000024
:10037800105601201462012000000000B8F306089E
:10038800106201201830010020000000E45501200F
:100398001C6201200000000001FB04081862012013
:1003A800191001000E000000A05501204062012034
:1003B80000000000BCF306083C620120E8030100CD
:1003C800070000007455012054620120000000005D
:1003D8003DEB0408506201202A02010006000000DB
:1003E8006C5501206062012000000000CAF3060875
:1003F8005C620120FF21010005000000F454012087
:100408006C6201200000000089E80408686201208D
:100418000812040014000000005501207862012031
:100428000000000075EB040874620120130201004B
:1004380004000000F43A012090620120000000004E
:10044800D0F306088C620120FA01010003000000C5
:1004580054540120986201200000000055EB040864
:10046800946201201C02020020000000E8490120DB
:10047800A06201200000000069F804089C620120C5
:10048800FE0101001600000058440120C46201204A
:1004980000000000E9EB0408C06201200502010029
:1004A8000C000000B09D012010A1012000000000F8
:1004B800D4F306080CA10120052001000C0000005F
:1004C8007CB0012020B5012000000000E0F3060800
:1004D8001CB501203A0001000E000000CCAF01203D
:1004E80030B5012000000000ECF306082CB501200F
:1004F800371001003000000030AF012044B5012062
:1005080000000000FAF3060840B501201E000100B3
:1005180009000000F0A8012078B5012000000000C3
:100528002AF4060874B501201B20010014000000FD
:10053800D8A1012088B50120000000001D970108FE
:1005480084B50120210201006801000010A20120E9
:10055800A0B50120000000004D9901089CB50120BC
:10056800F01301000200000090AA01200CB701203E
:1005780000000000D5E7040808B701201F6001004B
:10058800C4000000BCA6012014B701200000000030
:1005980034F4060810B70120123001000D000000E5
:1005A80034AA0120DCB7012000000000F8F4060896
:1005B800D8B701200B5001002C00000030A1012009
:1005C800F0B701200000000006F50608ECB701208E
:1005D8002F200100240000000CAA012020B80120CF
:1005E8000000000034F506081CB80120EE53010095
:1005F8001000000078A4012048B801200000000085
:1006080045F9040844B801202B001200240000001A
:10061800C8C90120A4C9012000000000CD25020896
:10062800A0C9012029201400780000006CC801200E
:10063800F0C901200000000000000000ECC9012002
:100648000A90010020000000A0BB01206CCA012014
:100658000000000005EB040868CA012023200100FF
:1006680010000000A0B8012090CA0120000000007E
:1006780001EC04088CCA0120283001001600000093
:1006880060C50120A4CA01200000000069F904081F
:10069800A0CA0120261001000800000078C501202A
:1006A800C0CA012000000000D1EB0408BCCA012028
:1006B80020020100C20000008CCF01202CE40120A0
:1006C80000000000A0F5060828E401200001010050
:1006D80006000000B8D6012050DC01200000000010
:1006E8005DEB04084CDC0120020104001800000046
:1006F800A0D601205CDC012000000000B1E704085E
:1007080058DC012013100100040000009CD60120D1
:1007180078DC01200000000058F5060874DC012090
:10072800232201001000000034DC012080DC0120BD
:10073800000000005CF506087CDC012025002A008A
:10074800A002000074D9012094DC01200000000000
:100758000000000090DC01200C700600F000000092
:10076800DCD3012038DF012000000000E5E80408A0
:1007780034DF01203800010007000000B4CB01205D
:100788002CE00120000000006CF5060828E001209C
:10079800012001000C000000FCD4012038E00120F9
:1007A8000000000074F5060834E00120F30301009E
:1007B800100000001CD5012048E0012000000000C6
:1007C80080F5060844E00120F2031000A0000000B4
:1007D80048D501205CE0012000000000E5EA04089B
:1007E80058E00120102001001000000060D3012013
:1007F80000E101200000000090F50608FCE001205F
:100808000E9006004002000020D1012014E10120D2
:100818000000000039E9040810E10120F403080091
:10082800D000000050D0012058E301200000000053
:1008380059E9040854E30120EB732000C0010000CB
:1008480084CD0120F4E401200000000071EA0408CE
:10085800F0E40120EC131E00B4000000FCCA0120E3
:10086800B8E6012000000000DDE90408B4E6012034
:10087800341001001A00000068CD012070E7012043
:10088800000000002DE804086CE701202A101A0077
:10089800A0010000C8CB012090E701200000000063
:1008A800DDE704088CE70120290201004000000070
:1008B80038EF0120440802200000000064F6060812
:1008C80040080220F62101000C0000002808022040
:1008D800A808022000000000A4F60608A4080220C8
:1008E800F83101000200000024080220B8080220A4
:1008F80000000000B0F60608B40802200612040042
:10090800180000000C080220C008022000000000A7
:100918007DF90408BC0802201D0202000600000040
:10092800AC050220DC0802200000000000000000E6
:10093800D8080220ED2301000300000068EE012022
:10094800E80802200000000099E80408E4080220F2
:10095800F70301000200000060EE0120F008022009
:1009680000000000A9E80408EC080220EA230100BE
:10097800010000003C090220680A02200000000073
:10098800B2F60608640A02202802040004000000E7
:1009980000150220BC1602200000000035E90408FA
:1009A800B81602202702040004000000FC140220EC
:1009B800C41602200000000029E90408C01602201D
:1009C8001F0208001000000004150220CC160220A7
:1009D8000000000041E80408C8160220F6030100E0
:1009E80004000000080C0220E016022000000000AD
:1009F800B4F60608DC1602201A02010049000000BD
:100A0800C80A0220E8160220000000003DFB040886
:100A1800E41602202C12010002000000D418022063
:100A28005819022000000000B8F6060854190220E0
:100A38001B0201001000000070190220601902203A
:100A480000000000D1E804085C190220161001001B
:100A58000400000020190220841902200000000070
:100A6800BAF60608801902200902010001000000F8
:100A7800EC4E0220E84E022000000000BEF60608F8
:100A8800E44E02201E02010006000000FC4E022077
:100A9800F44E022000000000C0F60608F04E0220C6
:08280000082800080040000850
:04400000FFFFFFFFC0
:10800000026C03463AB11A6CD20608D50022012050
:1080100083F83C207047426480F83C20F3E71A6CF8
:1080200049494A4811401A6841F00201F0B4196404
:108030004168474D21F44031416041685C6821430B
:1080400041605168186921F48071D3F808C0DF6875
:10805000516054689E6A44EA0024AE4254605468F9
:1080600024F040745460506840EA0C0050609068FE
:1080700020F400609060916841EA0701916054D05B
:108080009068DC6A20F07060906091680E439660A2
:10809000906820F040509060916821439160906812
:1080A0009C6920F002009060916841EA440191606F
:1080B00093F82010002941D05468596A44F40064B0
:1080C000481E5460516821F460415160516841EA92
:1080D00040315160D06A0025DC6920F470005E698F
:1080E000611ED0622846D46A44EA0154D46294687E
:1080F00024F400749460946893F8301044EA4124A6
:108100009460946824F480649460916841EA8621C4
:1081100091605D641A6C22F0030242F001021A645D
:10812000002283F83C20F0BC7047916821F0706118
:108130009160916821F040519160B0E7516821F45D
:1081400000615160C6E700BFFDEEFFFF0023014064
:108150000100000F0129F0B42A4C4FF000062A4D0F
:1081600094BF002701272368EE626662A6626763F8
:10817000676B47EA42076763EE63EC6B002A38D10E
:1081800044F49574EC631C6824F001041C601C68C2
:10819000E407FCD4490289085960D8601968EAB933
:1081A00021F04001196019498B421DD018494FF444
:1081B0007410C860196841F01E011960596941F0D6
:1081C00080015961196841F00101196022B90E4A14
:1081D000D36A43F00803D362F0BC704741F040011A
:1081E00019600A498B42E1D14FF0746041F8500C9C
:1081F000E0E744F01A04EC63EC6A44F00804EC6233
:10820000C1E700BF60290120002C014058640240F2
:1082100000640240124B30B49D6B6B6A28B943EA8C
:1082200001430020AB6230BC7047AC6A013803EBFD
:1082300014440BD0002303F14002013305EB82020A
:10824000DBB25268834204EB1244F4D3403044EA78
:10825000014405EB80004460002030BC704700BF43
:1082600060290120037870B42BB30246C0F10105E8
:10827000531912F8014FDBB2002CF9D101335B0026
:108280000E4C03220B8084F83C3484F83D240178A2
:1082900079B1022300265A1CE518023354FA82F2FF
:1082A00085F83C14DBB282F83C6410F8011F002909
:1082B000F1D170BC70470223E2E700BF60290120C2
:1082C000826D136A5B681B78FF2B08D090F8F03042
:1082D000013BDBB280F8F0301BB101207047002079
:1082E0007047126A0220526813707047F0B40F4B47
:1082F000C40800F0070700221E5D03EBD005BE4056
:10830000F6B2C7F1080300278B4228BF0B46C3F122
:1083100008049A40C91A46FA04F415F8016F42EAB3
:108320000402EED11046F0BC704700BFDC2E0120E5
:1083300030B5EFF31181802383F312880A4AD2F813
:108340003036D2F83446D2F83006D2F83456CAB2B3
:1083500082F31188013BA84294BF4FF400600020D3
:108360001B1B184430BD00BF60290120012380F889
:1083700051307047014BD3F838067047602901200F
:1083800001207047024BC3F83C26C3F840167047E3
:1083900060290120024BC3F84426C3F848167047F1
:1083A0006029012070477047212870B505D0222828
:1083B00029D0202810D0002070BD0029FBD0072A2A
:1083C000F9D1184B18791C685A799B7908710020EB
:1083D0000C604A718B7170BD0029ECD0072AEAD17C
:1083E0001148104B0C680E794D79D0F840268979E8
:1083F0001C601E715D719971002ADCD02146D0F895
:108400003C069047D7E70029D5D0022AD3D1064AA7
:10841000D2F84836002BCED00988D2F844069847C7
:10842000C9E700BF0000012060290120002070473B
:1084300003460A2201481A80704700BF0800012045
:108440000346642201481A80704700BF14000120CF
:10845000012901D000207047014BD3F89030184714
:1084600000000120012901D008F050BA014BD3F8D7
:108470008C30184700000120014BD3F88830184792
:108480000000012010B40B780A46044603F00303F1
:10849000012B05D0022B0BD000205DF8044B704758
:1084A0008B8843B9204611465DF8044B0DF094B912
:1084B0008B88832BF6D0034B5DF8044BD3F88030C8
:1084C000184700BF0000012038B5054B04460D4693
:1084D000DB6F98472946204609F03AFB002038BD5B
:1084E0000000012038B5054B04460D469B6F9847A8
:1084F0002946204609F064FB002038BD0000012019
:10850000F0B4002452004E1C2746030FB0F1204F58
:108510004FEA001003F1300503F1370334BF0D5566
:108520000B5537550234A242EFD1F0BC704700BF63
:10853000024808B5FFF796FE014808BD1C3F060833
:108540009C2D0120024808B5FFF78CFE014808BDAC
:108550002C3F06089C2D01200B481A220B4B00686B
:108560001B680A80C01801D109487047094B0822CE
:10857000094910B51C68FFF7C3FF042207492046CC
:10858000FFF7BEFF024810BD107AF01F187AF01FE7
:10859000B0000120147AF01FB2000120C2000120B7
:1085A000024808B5FFF75EFE014808BD383F0608DF
:1085B0009C2D0120024808B5FFF754FE014808BD74
:1085C000443F06089C2D0120042301480B8070477E
:1085D000CC00012000487047C42E0120004870479D
:1085E000C42E0120034B93F86005032894BF00209C
:1085F0000120704760290120034B93F86005032890
:1086000094BF00200120704760290120034B93F89C
:108610006005003818BF0120704700BF60290120A5
:10862000034B93F86005003818BF0120704700BF66
:108630006029012098B182680C4B12B107229A7010
:10864000704718780421DA6003281A611A750CBF84
:1086500080224FF480729970C3E901227047034B66
:10866000012241F2E4715A705A547047DC820120B1
:108670000378022B0FD0006908B9012070470E4B18
:108680001B78032B12D080B24FF6F773984294BF39
:10869000002001207047084941F6500243688A587B
:1086A000B3EB422F2CBF012000207047034B9842B0
:1086B00094BF002001207047DC820120F7FFFF0FEC
:1086C00030B40378022B13D0104A41F648014368B6
:1086D00041F63C04555802F5C25100692B40096827
:1086E000023812595B0A01FB003030BC104470475D
:1086F000064B41F6300441F6340142681859595886
:1087000000EB410030BC00EB52207047DC820120BE
:10871000826D0346126A52681278FF2A0AD190F8D5
:10872000F020002A02F1FF3214BF0120022083F85A
:10873000F02070470020704738B540F48062074C45
:108740000B4640F2FF55012100F03F00A563A360F6
:10875000E2604EF01DF8A56338BD00BF002C01405B
:108760002DE9F843884600294FD04718461E284C6B
:10877000802507F1FF39EFF3118185F31288D4F8D2
:108780003026C9B2D4F83406D4F83036D4F834C61A
:1087900081F31188634594BF4FF400630023121ADC
:1087A0001344012B1AD1012039F05CFAEFF3118147
:1087B00085F31288D4F83026C9B2D4F83406D4F838
:1087C0003036D4F8347681F31188BB4294BF4FF42D
:1087D00000630023121A1344012BE4D0EFF311823B
:1087E00085F31288D4F83436D2B216F8011F234428
:1087F00083F84C16D4F834360133C3F30A03C4F8B3
:10880000343682F311884E45B5D14046BDE8F88331
:1088100060290120F8B5002390F8505080F85030BE
:10882000BDB10E4A1278032A15D10D4E00F13C0459
:10883000376829462046FFF793FF33682D1A044412
:10884000DB1B322B01D8002DF3D1B5FA85F040099E
:10885000F8BD0120FCE71846FAE700BF203A0120E6
:10886000583A0120002280F85120D3E790F8502098
:10887000531C0244DBB280F8503082F83C1090F870
:1088800051200AB1132B00D9C4E77047F8B50A4B41
:108890000D4614461B78032B0DD1084E3768002C6B
:1088A00009DD21462846FFF75BFF3368241A05449B
:1088B000DB1B322BF3D9F8BD203A0120583A0120B6
:1088C00030B500238DB013490825012202938DF89D
:1088D00014300DF10704099301F294500B9381F8C1
:1088E0002C560DEB05018DF82820CDE907330A4BF6
:1088F000CDE9034206933DF0F7FB08483EF010FB3C
:108900009DF80700A0F1FF00B0FA80F040090DB01B
:1089100030BD00BF60290120C1820008F42E012073
:108920002DE9F04103798AB02B4E002B14BF0122B0
:10893000002286F88C2504D186F860350AB0BDE89F
:10894000F08106F29457044690F9001038463EF044
:10895000B3F9A4789CBB4FF00108204B2048C6F81F
:108960009C456C46C6F8283686F8A0853EF0DAF9B4
:1089700003461C4D4FF47A70A6F8983539F072F919
:10898000D6F89C053DF010F80FCD0FC40FCD0FC4E5
:1089900095E8030084E80300694638463DF0A4FBEF
:1089A00038463EF0BDFA104B002286F860851B6801
:1089B00086F85425C6F850350AB0BDE8F081204647
:1089C0003CF020FF044608B12023C3800D2120463F
:1089D0003CF0A2FFBFE700BF602901209C2E0120D0
:1089E000801A060050D80508583A012070B5952223
:1089F00092B040F0400504468DF80920080E0A0C9C
:108A00008DF80810090A002301AE8DF804508DF886
:108A1000050006250DF103008DF806208DF80710DE
:108A200001221749039604938DF818308DF82C30E5
:108A30000F93119305958DF840200C91CDE90733E4
:108A4000CDE90D33CDE90902FFF73AFF24B180F0FB
:108A5000010010F0FF0F10D10A4C082303A904F203
:108A6000945084F82C363DF03FFB04F294503EF0D5
:108A700057FA9DF8030012B070BDFF2012B070BD10
:108A8000118700086029012030B500238DB01049FE
:108A90000546012202938DF814300DF10704099365
:108AA00001F294500B9381F82C5602A98DF82820DE
:108AB000CDE90733074BCDE9034206933DF014FBA4
:108AC00005483EF02DFA9DF807000DB030BD00BFFF
:108AD0006029012011870008F42E012070B590B0A4
:108AE0001C4D0024FD2201260DF1030301A905F20E
:108AF00094508DF803200693C5F85C458DF810401E
:108B0000059407948DF824400F94039608968DF8E9
:108B10003860CDE90144CDE90A44CDE90C443DF08B
:108B2000E3FA05F294503EF0FBF93046FFF7ACFF54
:108B3000FF2809D0084A20460923126885F86035C5
:108B4000C5F8502510B070BD0423022085F86035AB
:108B500010B070BD60290120583A012070B506465A
:108B600090B008200D46FFF78FFFFF2823D0FE2886
:108B700002D0022010B070BD00240222012301A9FE
:108B80000E4808928DF838300296039501948DF8BE
:108B9000104007948DF824400F94CDE90544CDE9A9
:108BA0000A44CDE90C443DF09FFA04483EF0B8F980
:108BB000204610B070BD012010B070BDF42E012011
:108BC0003D4B98422DE9F0410FD003F5685308332F
:108BD000984249D00023394A1846A2F86C30A2F8CE
:108BE0007830C2E91C33BDE8F081344C0223002602
:108BF000334F04F10805DFF8D0806360D7F8D03038
:108C00003146B34206F1010603D0D4F888004AF099
:108C1000EDFB94F88C302846D4F88820414685F83E
:108C20002430303545F8102C4AF01AFD63689E4216
:108C3000E4DB002384F87A30636801206169A2894B
:108C4000256912FB03F201FB03F3268BA4F86C20C9
:108C50006367E2891B4BC4F898102567A4F8786015
:108C6000A4F86E20A366BEE7144C02230026144F1E
:108C700004F10805DFF854806360D7F8D03031463E
:108C8000B34206F1010603D0D4F888004AF0AEFBE7
:108C900094F88C302846D4F88820414685F8243052
:108CA000303545F8102C4AF039FB63689E42E4DB0E
:108CB000012384F87A30BFE71971EF00583A012098
:108CC0000000012078D805081940EF0021AAEF0024
:108CD00010B50C464AF000FA50B9074B93F89C3097
:108CE000012B4FF012030CBF04480548238010BD30
:108CF00012230448238010BD583A0120FC000120B3
:108D0000E8000120D400012010B5074C04F2945073
:108D10003EF006F90A2038F099FFD4F89C05BDE82A
:108D200010403CF041BE00BF602901202DE9F8430E
:108D30001C4C05468946904694F860651F46042EF3
:108D400008D0082E02D00020BDE8F883FFF7C6FE49
:108D50000228F8D1D4F89C053CF020FE94F8563552
:108D6000B3B969021120FFF741FEB8B90E4A0523D5
:108D70000120C4F83C951268C4F84055C4F84885F1
:108D8000C4F84C75C4F8502584F86035BDE8F88304
:108D900029461120FFF72AFE0028E7D0FFF7B4FF8D
:108DA000D1E700BF60290120583A0120F8B5214CD5
:108DB0001D270E46054684F8A07020F065FA0020B5
:108DC00020F004FA082020F001FA0E2020F0FEF92D
:108DD000384620F0FBF9042020F0F8F9042020F0B8
:108DE000F5F9002020F0F2F9302020F0EFF9002012
:108DF00020F0ECF9304620F0E9F9002020F0E6F907
:108E000020F02CFA04F1A10020F047F9234670B1BC
:108E100094F8A12062B994F8A220302A00D03AB97F
:108E200093F8A32022B993F8A43001202B70F8BD49
:108E30000120FCE7583A012010B50D4C002394F8AE
:108E40002E26C4F85C3512B10A4AC2F8B4304DF08F
:108E5000A9FE20B10423022084F8603510BD054A24
:108E60000923126884F86035C4F8502510BD00BF8E
:108E700060290120583A012070B50F4D04460E4676
:108E800095F86035042B0BD0082B07D1D5F8583551
:108E900083420ED0FFF7D0FF022801D0012070BD21
:108EA00008230220C5F85C65C5F8584585F860358B
:108EB00070BD022070BD00BF6029012010B50AF00E
:108EC00059F9104C58B194F86035032B13D894F825
:108ED00054350133DBB2072B84F8543503D9002312
:108EE00084F8603510BD084B01221B6884F86025AA
:108EF000C4F8503510BD05483DF014FFA4F898059E
:108F0000E5E700BF60290120583A0120801A0600D9
:108F100070B51F4C06460D4694F86035042B09D0F9
:108F2000082B25D1D4F8583583422FD0FFF7D6FD32
:108F300002281DD1D4F89C053CF030FD00213720DB
:108F4000FFF754FD29461720FFF750FDC0B994F8EC
:108F500056357BB971021920FFF748FD80B9082307
:108F60000220C4F85C55C4F8586584F8603570BDBB
:108F7000012070BD31461920FFF738FD0028EED0E2
:108F8000FFF7C2FEFFF79AFF032070BD022070BDFD
:108F90006029012070B50379234C002B14BF0123F5
:108FA000002384F88C3503D1002384F8603570BD2C
:108FB0001E4D0021032095F9BB203CF0EFFE002858
:108FC000F2D0466830463CF015FF84F82D060028A4
:108FD000EAD095F8B9303046003B18BF012384F839
:108FE0002E364FF0B7FC0AF0C5F838B994F854356E
:108FF00084F86005013384F8543570BD4DF0AAFE45
:1090000040B194F854350022013384F8602584F887
:10901000543570BD2A68012384F85405C4F85025DE
:1090200084F8603570BD00BF60290120583A0120E6
:1090300010B54DF08FFE58B10C4C94F854350133F7
:10904000DBB2072B84F8543503D9002384F860354C
:1090500010BD0AF08FF80028F7D0054B01221B68DD
:1090600084F86025C4F8503510BD00BF6029012088
:10907000583A01202DE9F84F904C94F88C55002D6A
:1090800000F0028194F8602502278D4E531E082BB4
:109090003ED8DFE803F03436A73D6649153D0500AC
:1090A0004DF080FD002840F00181D4F85035326841
:1090B000FA33934229D2FFF7BBFF94F86025E5E726
:1090C0004DF070FD0028F0D0D4F85C350022012B63
:1090D00084F8542540F2EE80D4F85815013B94F8FA
:1090E0002E560131C4F85C35C4F8581515B1744BCF
:1090F000C3F8B4200823054684F8603511E084F8ED
:1091000060754DF04FFD00284DD194F86025531E39
:10911000DBB2022B3CD9082A18BF042A0CBF012558
:1091200000252846BDE8F88F236B002B37D1644B10
:109130000722D4F848551B6884F86025C4F85035D8
:10914000002DEED0D4F84C350120D4F83C25D4F8CD
:109150004015A847D9E7D4F85035326864339342B4
:109160001DD2D4F82C80B8F1000FF4D14DF01AFDC7
:109170000028A2D00423D4F8485584F8548584F8F4
:109180006035002D00F090804046D4F84C35DCE787
:109190004B4BD4F850251B689B1AC82B79D8002557
:1091A0002846BDE8F88F4DF091F90028ADD196F82A
:1091B000BD30002BA3F10203B3FA83F314BF0222E4
:1091C00001225B0984F8552584F856354DF07EF967
:1091D00000287FF470AFD6F808210323C4F8642573
:1091E00084F860354DF072F900288ED1344A4FF082
:1091F000040EC4F85C05032392F8ECB0B2F8EE104C
:10920000D2F8F00084F86AB5D2F8F0704FEA106C2A
:10921000D2F8F060A4F868153F0CD2F8F0A0360A36
:1092200092F8F49092F8F55092F8F500D2F8F880A0
:1092300025FA0EF5B2F8FEB000F00F00B2F8FE10FD
:10924000B2F8FE20C1F30B1184F86BC502F00F0CCD
:1092500084F86C7541EA1B21724684F86D6501F053
:109260000F0184F86EA584F86F9501F5FA6184F812
:10927000745584F87505C4F87085A4F8761584F8DB
:1092800078C584F860E543E7284684F86055BDE872
:10929000F88FFFF7CDFE94F86055082D18BF042D08
:1092A0000CBF012500253CE705463AE7042384F876
:1092B000603536E7FAD1FFF7BFFD26E760290120C8
:1092C000583A01202DE9F8430546884617461E46C0
:1092D0002A4C94F86005042835D0082807D1D4F822
:1092E0005835AB4206D0FFF7F9FB0228F1D0012038
:1092F000BDE8F883FC22224BDFF88C90214883F8EC
:109300001821C9F838813CF01FFF002809F5887141
:109310001C4814BF4FF400734FF48073C9F84031F8
:109320003CF0E2FE012206230020C4F83C85C4F88C
:109330004055C4F84875C4F84C6584F8442584F851
:109340006035BDE8F883D4F89C053CF027FB94F821
:10935000563553B969021820FFF748FB38B994F81D
:109360006035082BC6D0FE22C5E72946F3E7FFF794
:10937000CBFCFFF7A3FD0320BAE700BF6029012063
:10938000583A0120F42E0120000001202DE9F04F71
:10939000D84C95B094F88C65002E00F0998194F823
:1093A000602504F29457DFF8508304F27C59531E71
:1093B000082B00F2A080DFE813F034005E002901E2
:1093C0009E008C00AF001B009E000900FFF778FA9A
:1093D000002840F05782D4F85035D8F80020FA33EE
:1093E000934280F08580FFF769FD94F86025DEE701
:1093F000FFF766FA0028EED0D4F85C350022012B86
:1094000084F8542540F26382D4F85825013B0821A2
:1094100006460132C4F85C3584F86015C4F8582556
:1094200052E1D4F89C053CF0B9FA00210846FFF758
:10943000DDFA0546FFF768FC012D59D14FF0000A0F
:10944000D4F89C0584F855A53CF0A8FA40F2AB117D
:109450000820FFF7CBFA052800F09081012800F0E2
:109460005181FFF751FC94F85535002B00F02B8209
:10947000022384F86035D4F89C053CF08FFA94F808
:10948000553500213720022B0CBF4FF080450D468B
:10949000FFF7ACFA29202946FFF7A8FA0546FFF79F
:1094A00033FC2DBB94F85535022B00F0988184F8DD
:1094B0005655D4F89C053CF071FA00210920FFF7BD
:1094C00095FA002871D0FFF71FFC94F86025531E11
:1094D00011E04FF40071D4F83C05FFF73FFB012881
:1094E00000F03081022800F03581002800F0618111
:1094F00094F86025531EDBB2022B00F2DF807E4B16
:10950000D4F850251B689B1AC82B00F2E780002670
:10951000304615B0BDE8F08FD4F8943577481D6A11
:109520003CF012FE002800F02C81B5FA85F56D099B
:10953000002DDDD004A800250DF10F0302224FF00D
:10954000010A05A9059038460792ADF81050069516
:109550008DF820508DF8345013958DF848A0CDE942
:109560000B3ACDE90955CDE90E55CDE910553CF042
:10957000BBFD38463DF0D4FC9DF80F3003F01F03CF
:10958000052B00F08881FFF799FCD4F848B5BBF1B2
:10959000000F00F0F0802A465046D4F84C35D4F83D
:1095A0004015D84794F8602501E710214846FFF799
:1095B000D5FA8246002886D101217F20FEF796FE4B
:1095C000012805467FF47FAF50460221FEF78EFE4C
:1095D000002800F0388101287FF475AF16213A2069
:1095E000FEF784FE01308002C4F86405FFF78CFBAF
:1095F000D4F89C053CF0D2F900210A20FFF7F6F9D7
:10960000002840F01981032384F86035102105A853
:10961000FFF7A4FA00287FF46BAF9DF821309DF886
:1096200022201B019DF815009DF8165002F00F0135
:10963000DBB245EA0025DDF81D0043EA12139DF870
:109640001C2000BA84F8781503F5FA639DF817100A
:10965000C4F87005A4F8763513099DF8140002F0DB
:109660000F0284F87435069BA4F86855C4F86C356D
:1096700084F8752584F86A0584F86B15FFF744FBB8
:1096800094F8563573B9D4F89C053CF087F94FF43B
:1096900000711020FFF7AAF90546FFF735FB002DF2
:1096A0007FF4A1AE16483DF03DFB00220423A4F850
:1096B0009805C4F85C251A4684F86035082A18BF56
:1096C000042A0CBF01260026304615B0BDE8F08FF5
:1096D000304684F8606515B0BDE8F08FFFF7EEFB0B
:1096E00094F86065042E18BF082E0CBF01260026D2
:1096F000EAE700BF60290120583A0120F42E01203A
:1097000040787D01042304AA05A98DF83400784827
:1097100007930692CDF814A08DF820A0CDF838A0BC
:10972000CDE909AACDE90BAA3CF0DEFC70483DF07A
:10973000F7FB9DF81330AB2B7FF493AE022384F834
:1097400055358EE6D4F85035D8F80020643393426E
:10975000BFF4CEAEFFF7D8FAFFF7B0FBD4F8485508
:109760004DB10022D4F84C35D4F840151046A84726
:1097700094F860251BE694F8602518E684F85555A2
:109780006FE694F844550246D4F83C154FF48073C4
:10979000384601EB05213DF0A9FB94F84425013240
:1097A000D2B2A2F1020584F84425B5FA85F56D0917
:1097B000BEE60190FFF7A8FA04230198D4F84855B3
:1097C00084F8540584F86035002D3FF47DAFD4F85B
:1097D0004C35D4F83C25D4F84015A84788E6D4F891
:1097E0009C053CF0DBF829463A20FFF7FFF80DF125
:1097F000100C04220123824605A9384605958DF8F0
:1098000020500E95CDF818C007928DF83430CDE970
:109810000955CDE90B553CF067FC38463DF080FB1F
:10982000BAF1000F08D1FFF76FFA049B1BBAC3F31C
:10983000807384F856353CE6FFF766FAFFF73EFB87
:1098400094F86025B3E504212C20FEF74FFD032199
:1098500082464E20FEF74AFD83460C213620FEF755
:1098600045FD0BF1020B421C05FA0AF502FA0BF258
:10987000A2FB0501420A42EAC152C4F86425FFF77F
:1098800043FAB5E60190FFF73FFA0423019884F804
:109890006035064618E7174B0722D4F848651B6861
:1098A00084F86025C4F85035002E3FF40DAFD4F88D
:1098B0004C355046D4F83C25D4F84015B04794F8C0
:1098C0006025531E17E61E4684F86035FCE608D076
:1098D000042384F86035FFF717FA94F86025531EC7
:1098E00009E6FFF7FBF802287FF402AEEBE500BFC4
:1098F000F42E0120583A0120154BDB68C3F30223F4
:1099000010B4C3F107041A1D042C28BF0424062A2E
:109910004FF0FF328CBF033B0023A240002821EA16
:10992000020101FA03F108DB09010A4BC9B2034441
:1099300083F800135DF8044B704700F00F00090135
:10994000054BC9B2034419765DF8044B704700BF5C
:1099500000ED00E000E100E0FCEC00E030B5264C5A
:109960000022264841F28731D4F85C3183B0244D7F
:10997000A0FB030304F58E70C4F81C51DB0C013B03
:10998000C4E94A12C4E948320AF00CFC1D4B062116
:1099900037201A6C42F020021A641B6C03F020037B
:1099A0000193019BFFF7A8FFD4F81C314FF400008E
:1099B0001549164A4860D96841F00101D960996893
:1099C0000A40062A06D0B2F5803F03D01A6842F05A
:1099D00001021A600E4B41F2DC0200200D499A5838
:1099E00003F24C64C3F84806C2F81002C3F84006FC
:1099F000C2E9811403B030BD583A012083DE1B4315
:109A0000001400400038024000E100E007000100BF
:109A100060290120B83B012038B50F4B0F4AD3F81D
:109A20005C31A2FB03239B09013BB3F1807F10D281
:109A30000B4A0024F0200B490725536081F82300CE
:109A4000214694604FF0FF301560FFF755FF204628
:109A500038BD012038BD00BF583A0120D34D6210F7
:109A600010E000E000ED00E04309012200F01F00DB
:109A700084B0013B02FA00F0032B0BD8DFE803F0BF
:109A800015021E0C124B5A6C02435A645A6C104059
:109A90000090009B04B070470D4B1A6B02431A6391
:109AA0001A6B10400390039BF4E7094B5A6B024377
:109AB0005A635A6B10400290029BEBE7044B1A6CFE
:109AC00002431A641A6C10400190019BE2E700BF48
:109AD00000380240F0B589B00D4604463CF086F8E7
:109AE000031E1CDB164A2046164E1A4406EB83035F
:109AF00092F86070C3F860593CF09EF83E44002331
:109B0000A588114A03A920680793CDE90533CDE95B
:109B100003520CF011FB96F8A039F02B01D809B0D4
:109B2000F0BD0A4AF0230321D05786F8A0390190EE
:109B3000FFF7E2FE01980DF0B7FA09B0F0BD00BFE3
:109B400050D80508583A012000001110943F06082B
:109B50002DE9F041D0F800E00C46DFF8588084B0E1
:109B6000DEF804501746DFF850C0194605EA08052C
:109B7000DDF82880064603932C43424644EA0C0C49
:109B8000CEF804C00CF02AFA78B931680246039B7B
:109B900030468F624021CDF800800CF04FFA00383B
:109BA00018BF012004B0BDE8F081012004B0BDE879
:109BB000F08100BF009800FC00200180F8B5134F31
:109BC00004460D460AE09B69DB0602D50CF0C6F997
:109BD000D0B9D7F8A8395B1B0A2B08D823682A46C6
:109BE0000A2120469E69B606EDD50020F8BD636CBB
:109BF0002021002201200B4384F84020636484F874
:109C0000411084F84220F8BD0120F8BD583A0120E7
:109C1000B0B10C49D1F8AC39102B03D1052100208B
:109C20003BF0BABF03EB43020A4482F8B00920209C
:109C300082F8B1090120034482F8B209C1F8AC39B5
:109C4000704700BF583A01208078E1E72DE9F04FD6
:109C5000634C87B01E22002104F51E6053F000FC07
:109C600094F8003A1BB194F8013A84F8E03994F87A
:109C7000023A1BB194F8033A84F8E53994F8043AAF
:109C80001BB194F8053A84F8EA3994F8063A1BB106
:109C900094F8073A84F8EF3994F8083A1BB194F82D
:109CA000093A84F8F43994F80A3A1BB194F80B3A5B
:109CB00084F8F93994F8123A013B5FB2DBB20197AC
:109CC00002933B46013300F09C81464EB0220023B4
:109CD000454802FB076106F5207AA0F13805039399
:109CE000703106F53E7952F059FC039B01222E4655
:109CF000984602FA07FB1F46307880B33B4A302172
:109D000003E091452BD012F8081F8842F9D1517811
:109D100011EA0B0FF5D03BF075FDFB1DDBB210B166
:109D200000228371C27103213BF0F6FD31780023DC
:109D3000302201E01AF83320914200F065810133AE
:109D4000102BF7D10023012208F10100072186F82A
:109D5000028073705FFA80F81346F2703171013738
:109D60000536062FC8D194F81C0A01260393FFF785
:109D70007BFE4FF44031DFF878B00022C4F83C8A13
:109D8000C4F8241A5846D4F8181AC4F8386AC4F823
:109D9000306A84F8506AC4F8282AC4F8482AC4F8FB
:109DA0004C2AC4F82C2A84F8402AC4F8442AC4F85F
:109DB000342AC4F8201AFEF723F9019B002B40F047
:109DC0002981039B002B00F02581ABF108004FF0A7
:109DD00091FC012305F11E0C4FF0000E0DE000BFB9
:109DE000583A012050D8050870440120D0DA0508FF
:109DF000784401200535AC4547D0EA78002AF9D0EF
:109E000094F85C1A5A1C68780129D2B22F79CDF8DF
:109E100010E036D04FF00101092884F85C1A40F2B6
:109E200045814FF003096FF01D06D4F8201A4FF05A
:109E3000070A19FB0066D1F80C900AFA06FA07FA2D
:109E400006F629EA0A07CF60CF683E43CE60062BAC
:109E50004FF0050600F218816FF0040716FB03733C
:109E60001F274E6B9F4000FA03F326EA07064E6356
:109E70004E6B33434B63B94B994200F0298184F810
:109E80005CEA05351346AC45B7D1019B0220029927
:109E9000234493F9132A3BF081FF0546002800F084
:109EA000B08040683BF0A6FF002206213BF0B2FFE5
:109EB000002800F0A680686800263BF09BFFA84FB2
:109EC0004EF036FDB8F1010F6A684FF400638CBFA5
:109ED0004FF480613146A8684FF40055C4F8781AF1
:109EE0004FF48071C4F8682A4FF40032C4F87C3A09
:109EF0000323C4F86C0A3846C4F8903AC4F8706A70
:109F0000C4F8746AC4F88C6AC4F8946AC4F8986A8D
:109F1000C4F8805AC4F8841AC4F8882A0DF022F8CC
:109F200094F85C3AC4F8587A012B0596C4F8A0BAA4
:109F300067D00123D4F8205A84F85C3AAB68DE0776
:109F400013D4D4F85C318749AA68B3FBF1F342F02B
:109F5000010203EB4303AA600593059B2BB1059B0C
:109F6000013B0593059B002BF9D1AB68D80748D579
:109F7000D4F8602A7C4B134043F48073C4F8603AF1
:109F80006B68590507D5D4F8603A23F4405343F47D
:109F90008053C4F8603AD4F8603A13F4805300F068
:109FA000CF80D4F8643A23F00603C4F8643A6F48CB
:109FB00000236F496FF02202C4F8A80A6D4884F8A4
:109FC0005C3A4346C4F8A41A05F14C01C4F8B40A3B
:109FD0002A606E68684A46F0806661486E60AE68C6
:109FE00046F48076AE600CF035FF644B5A68D206BA
:109FF00040F08F80D4F8203A9A6812F0405F00F069
:10A000009A8007B0BDE8F08F5D4A02EBC30393F876
:10A01000843298E6B02200215A48482653F020FAAC
:10A02000B0220021574853F01BFA4C4B304684F8BD
:10A03000CC6AC4F8C83AFFF717FD4FF4403000234C
:10A040000121D4F8C82AC4F8D40A4F48C4F8E81A41
:10A05000C4F8E01A84F8001BC4F8D83AC4F8F83AF7
:10A06000C4F8FC3AC4F8DC3AC4F8EC3A84F8F03AA4
:10A07000C4F8F43AC4F8E43AC4F8D02AFDF7C0FFB3
:10A0800040484FF037FBA4E60C2B2CD86FF022078A
:10A0900016FB03731F270E6B9F4000FA03F326EA9B
:10A0A00007060E630E6B33430B63E4E6D4F8201A05
:10A0B00000EB400A4FF007090E6907FA0AF709FAA0
:10A0C0000AF926EA09060E610E6937430F61BEE6FA
:10A0D000122818D011287FF4D2AE28494B6843F4D7
:10A0E00000034B60CBE66FF0400716FB03731F279E
:10A0F000CE6A9F4000FA03F326EA0706CE62CE6AD4
:10A100003343CB62B7E61D494B6843F480034B6091
:10A11000B5E6D4F8202A11498A4214D05B68DB06E0
:10A120003FF56FAF194B9A427FF46BAF9A6812F00C
:10A13000405F7FF466AF9A6842F080429A6060E7C1
:10A14000C4F8643A33E7936813F0405F03D193682F
:10A1500043F080439360094B5B6852E70020014065
:10A16000C044012040420F00FEF8FFFFBD0D010872
:10A17000C10D0108AD0D01080002002000230140BF
:10A1800050D8050820450120284501200022014023
:10A190002DE9F041D0F800E00C46DFF8588084B09B
:10A1A000DEF804501746DFF850C0194605EA0805E6
:10A1B000DDF82880064603932C43424644EA0C0C03
:10A1C000CEF804C00BF00AFF78B931680246039B51
:10A1D00030468F628021CDF800800BF02FFF0038D1
:10A1E00018BF012004B0BDE8F081012004B0BDE833
:10A1F000F08100BF009800FC0020018138B590F884
:10A200003C30012B00F08D800D46022301210446D5
:10A2100080F83D3080F83C10142A1ED8DFE802F0A8
:10A22000251D1D1D371D1D1D4A1D1D1D5C1D1D1DD0
:10A230006F1D1D1D0B002946006809F04DFD2368A8
:10A240002869596D41F400615965596D21F48061A7
:10A2500059655A6D42EA00225A65002301221846C8
:10A2600084F83D2084F83C3038BD2946006809F068
:10A2700023FE23682869996941F008019961996969
:10A2800021F0040199619A6902439A61E5E7294640
:10A29000006809F0DBFD23682869996941F40061D1
:10A2A0009961996921F4806199619A6942EA002271
:10A2B0009A61D2E72946006809F092FD236828696F
:10A2C000D96941F00801D961D96921F00401D96146
:10A2D000DA690243DA61C0E72946006809F054FDF3
:10A2E00023682869D96941F40061D961D96921F4E9
:10A2F0008061D961DA6942EA0022DA61ADE7294674
:10A30000006809F015FD23682869596D41F00801BE
:10A310005965596D21F0040159655A6D02435A651A
:10A320009BE7022038BD00BF0128B5EEC00A10D05F
:10A33000F1EE10FA0BDD9FED177ADFED177AE0EE04
:10A34000077AFCEEE77A17EE903A98B27047002051
:10A350007047F1EE10FA0BDD9FED107ADFED107A09
:10A36000E0EE077AFCEEE77A17EE903A98B2704783
:10A37000EDD5F7EE006A9FED0B7ADFED0B7A30EE4C
:10A38000260AE0EE077AFCEEE77A17EE903A98B2EA
:10A39000704700BF00E0F9440000404200C079442B
:10A3A0000000834400C079C400E08244F8B53D4E0B
:10A3B00096F8784B04EB8403A70006EB830393F82D
:10A3C0007C3B032B44D8DFE803F0461B0F023C44E0
:10A3D00006EB8404D4F8803B002B58D0013B0025C9
:10A3E000C4F8803B2846F8BD3B1906EB8303D3F83D
:10A3F000802B7AB1013A0025C3F8802B2846F8BD9E
:10A400003B1906EB8303D3F8802B002AF2D10222FA
:10A4100083F87C2B3C4406EB840494F8883B013B96
:10A42000DBB284F8883B4BBB0323D4F8840B84F85D
:10A430007C3B53F0D5F9C4F8800B064653F0BCF9C9
:10A4400080F00100002E0CBF002500F0010525BBA7
:10A4500001252846F8BD3DF0FBFA05460028F7D057
:10A460003C44012342F2107006EB840484F87C3BE8
:10A4700053F0B6F9C4F8800B2846F8BD01254FF417
:10A480007A7053F0ADF9C4F8800B2846F8BD53F04C
:10A49000B7F980F00100C5B2B0E7013EC4F8806BA7
:10A4A000ACE700BF583A012003689B0AA3F580136C
:10A4B000522B00D970470E4A134470B593F80043ED
:10A4C00084B00D2C12D800294FF0000309494FF039
:10A4D000010514BF1E460226427901EB841069462D
:10A4E000CDE90065CDE9023309F01CFD04B070BD73
:10A4F00050D805082446012033492DE9F84F91F83A
:10A50000BD101C46012507460229DFF8C4A01046ED
:10A5100019464FF00002DFF8BC9018BF7F02CAF85E
:10A520002C50FDF717FE294A630240F2FF5BC9F881
:10A5300024204FF40075C9F828304FF48A62D9F806
:10A540002C30012110205E4643F09303C9F82C30D3
:10A55000C9F838B0C9F808504D46C9F80C204CF07D
:10A5600017F9012CC9F838B04FF00A048CBF4FF02E
:10A5700052084FF051084FF0000939464046FEF7A7
:10A58000DBF8013C034640F2774201213720E4B278
:10A5900023B91846CAF82830BDE8F88FAE63C5F86D
:10A5A0000890EA604CF0F4F8AE63034608B1002C62
:10A5B000E3D1002BEDD000221846CAF82C20CAF8AF
:10A5C0002830BDE8F88F00BF583A012000E1F505BA
:10A5D00060290120002C01402DE9F843DFF8748048
:10A5E00004460F46914698F860551E46042D08D043
:10A5F000082D02D00020BDE8F883FEF71DFC0228DC
:10A60000F8D101233A4620460021FFF775FF68B1D3
:10A61000FEF70EFDD8F84845002CEBD00022D8F804
:10A620004C35D8F840151046A047E3E7084A052303
:10A630000120C8F83C751268C8F84045C8F848952C
:10A64000C8F84C65C8F8502588F86035BDE8F8832F
:10A65000583A0120602901202A492DE9F04F91F84C
:10A66000BD100124DFF8A8B00746022983B0CBF85B
:10A6700030409A4618BF4702012B4FF00A04224D82
:10A6800040F2FF568CBF4FF059084FF058084FF07A
:10A690000009009239464046FEF74EF8013C034659
:10A6A00040F2774201213720E4B2BBB9009851460D
:10A6B00001220193154CFDF74DFD13494FEA4A2243
:10A6C0000020019B4C628A62CA6A42F09102CA620F
:10A6D000CBF82800184603B0BDE8F08FAE63C5F88C
:10A6E0000890EA604CF054F8AE63034608B1002CC1
:10A6F000D0D1002BDAD000221846CBF8302003B09E
:10A70000BDE8F08F583A0120002C014000E1F5052A
:10A71000602901202DE9F84F05460E4690461F4658
:10A72000394C94F8600504280CD0082807D1D4F8D7
:10A730005835AB4206D0FEF77FFB0228F1D001204E
:10A74000BDE8F88FDFF8C8A0C4F83C65DAF8B4902B
:10A75000C4F84055C9F34F234FEA59220F2B2BD889
:10A76000D4F85CB5BBF1000F26D094F82E1619B3BF
:10A77000B9F5005F41D025484FF400723146484496
:10A7800051F00CFF09F50072C2F34F23CAF8B42050
:10A79000520A102B31D0BBF1010F2ED0D4F858251E
:10A7A0000BF1FF33042102200132C4F85C3584F838
:10A7B0006015C4F85825C3E701234FF00109284666
:10A7C000062532460021C4F84885C4F84C7584F843
:10A7D000449584F86055FFF73FFF0028B0D0FEF79E
:10A7E00027FCD4F848556DB14846D4F84C35D4F818
:10A7F00040150022A8470320A2E792B2034E013A77
:10A80000AD1ADAE703209BE760290120DC62012012
:10A81000583A012070B5294C82B0294B626A1269FE
:10A820005168994246D0A3F57843994244D003F544
:10A830008063994214BF4FF0FF310221013121485A
:10A840003CF03AFA204B626A00262048D2F8A81061
:10A8500003F110022163C4E92D323CF063FA05468E
:10A86000314601AA02231748A585ADF804603CF0E3
:10A87000DDFA052037F0F6F901AA31460223114826
:10A88000ADF804603CF0D2FA054620B19DF80530E1
:10A890001E2B03D03546284602B070BD0C4901205E
:10A8A0000C4A0D4B81F88C0F0648C4E904233CF098
:10A8B0003DFBF0E70021C1E70121BFE700020020D6
:10A8C00000300140280200200000002080969800FF
:10A8D000583A01201D5A050881520508F0B5224D4D
:10A8E00083B095F8987F38463AF08CFF95F8C14FC1
:10A8F000064644B1D5F8C44F241AB4FA84F4640966
:10A90000204603B0F0BD38460122592134F066FCE0
:10A9100007460028F4D00123C5F8C46F85F8C13F6D
:10A9200016B140F25913F38030467A7A022101249D
:10A930003AF0BAFFD5F85C210C4B3946A3FB020371
:10A940000020C3F30E36C3F3CF230190013E013B39
:10A950000748B7B29BB200972AF04AFFD5F8B03F3C
:10A9600020461E6003B0F0BD583A0120D34D62105E
:10A97000084A012070B5214DD5F8FC3093F8262007
:10A98000DAB11B699847E0B1D5F8FC3093F8242080
:10A990008AB105F5807600241A19E0B29B6901346A
:10A9A00092F82C10B6EC010A9847D5F8FC3093F8D1
:10A9B00024209442F0DB5B69984795F81031312BE5
:10A9C00000D070BD95F81431002BFAD0D5F8FC30CA
:10A9D00093F82430042B1E46A8BF0426002BF0D089
:10A9E0000024074D2346013418464DF089F845F8F8
:10A9F000040BE3B29E42F6D870BD00BF00020020F7
:10AA00001803002003681878012801D0002070473F
:10AA100093F9043041F22101064A03EB430302EBB0
:10AA200043135A5C202AF2D1D3F8E03F9869C0F36F
:10AA3000C0307047583A012010B50A4C636D1B783E
:10AA4000022B0ED1E06D3AF0AFFFE06D08B1232389
:10AA5000C38001213AF060FF03483CF063F9A4F899
:10AA6000580010BD504B012080969800044B5A6D41
:10AA70001278022A02D1D86D3BF010BB704700BF9C
:10AA8000504B012030B5044683B001230D460DF133
:10AA90000702084821463CF00DFB9DF8072035EAE7
:10AAA000020304D02A43214602483CF0DDFD03B0F6
:10AAB00030BD00BFA44B012038B505460A460C4600
:10AAC000064829463CF0BEF945F0800103483CF0B9
:10AAD0003DF9231A5842584138BD00BFA44B01200C
:10AAE00070B50D4C1346656D2A78022A07D00A46C8
:10AAF000014604F15400BDE870403CF0DBBA2A6A1C
:10AB00000AB1002070BD0A46014604F154003CF031
:10AB100069F9012070BD00BF504B0120036801227C
:10AB20001B78022B01D03CF0EFBC3CF0B3B913B55D
:10AB30003A4C0023D4F82C218DF80730137803F019
:10AB4000FD01012905D194F8301111B90C2184F8C7
:10AB50003011022B1ED0032B2ED001220B213048A6
:10AB600049F08AFD042037F07DF801230DF107023A
:10AB700000212B4849F0A2FD002839D09DF807306C
:10AB8000482B35D1274BC4F82031274BC4F824314A
:10AB900002B010BDD4F834013AF006FFD4F8340105
:10ABA00008B13423C38001213AF0B6FE1F483CF0BF
:10ABB000B9F8A4F83001D0E7D4F8DC3546F2A81192
:10ABC0005068122219610023372180F8883049F03B
:10ABD00027FDD4F82C310D222421586849F020FD9E
:10ABE000D4F82C3130226A21586849F019FDB4E7B5
:10ABF000D4F82C311A78022A03D0032A07D0002077
:10AC0000C6E7D4F834013BF049FA0020C0E710222F
:10AC10003721586849F004FDF1E700BF504B01208F
:10AC20007C4C01201B4705089D470508809698002D
:10AC300030B54CF205028DB0002304460321ADF877
:10AC4000002001AD01228DF802300B938DF8142005
:10AC50008DF82820CDF808D0CDE90633CDE90833AA
:10AC6000CDE903513CF05CF9204602A93BF03CFAE7
:10AC700020463CF055F99DF806000DB030BD00BFF0
:10AC80002DE9F041604C82B02422002104F6DC0062
:10AC900052F0E6FB002394F80579C4F80039002F40
:10ACA00039D15A4EB36E53B39B6A43B35848984751
:10ACB000836823B3038800255648013B8446064633
:10ACC0009BB23178063603291DD00135062DF8D107
:10ACD000002201780630022900F090800132062A15
:10ACE000F7D1D4F80019052909D002FB01C20131BE
:10ACF000C4F800190220002193801070518038465A
:10AD000002B0BDE8F081062303FB0545B5F8DE3847
:10AD1000013B9BB2DCE704F60C1394F80409C4F879
:10AD2000083910B90027394EBCE73AF06BFDC4F87A
:10AD3000140918B1837913F0BF0FF3D1394636489F
:10AD40003BF0BAFF80460028ECD0D4F80839304AEE
:10AD50009868C3F8942008B12223C3800D212B4E9C
:10AD60003AF0DAFDD4F80839002598683AF01CFE6C
:10AD70002A483BF0D7FFD4F8083901460122322097
:10AD80009980C6F8883086F88C2036F06BFF042353
:10AD90009F21D4F808090DEB030201953CF022F83D
:10ADA0009DF805509DF8043006F168002D029DF8CD
:10ADB000061045EA03450D43294648F051FC08BBFF
:10ADC0002846FDF7FDFEE8B99DF8065006F168003B
:10ADD0009DF805202D029DF8073045EA02451D43E8
:10ADE000294648F09BFA68B92846FDF7E9FE074670
:10ADF00040B994F804093BF071F953E7062101FBCF
:10AE000002C277E747464DE7504B0120583A0120F0
:10AE1000C03A01202C5401205C540120404B4C00CE
:10AE20002DE9F04F0423BC4C402141F2F40504F617
:10AE30004C6704F138064FF0A042E363E16400235D
:10AE4000022194F8F5038BB0C4F838746651A263FC
:10AE5000A366A3646366E36521656164C4E9153391
:10AE6000002800F0618103211F46164684F8F5137F
:10AE7000936823F001039360F368304643F0400386
:10AE8000F36008F089F9B36B012F054643F4803372
:10AE9000B36317D005B3022384F8F5339F4B93F8BF
:10AEA0009C50012D00F0FC80A36B80210120596291
:10AEB0005A6A42F480029A62FDF7ACF900200BB0A6
:10AEC000BDE8F08FB36843F00603B360B36843F0A6
:10AED0002003B360002DDED1A36B3220DA6822F0AC
:10AEE000C042DA60DA6842F08042DA600CF0EAF8D8
:10AEF000E06B50B32A4601272946C2EBC203561C19
:10AF000004EB830383F87420A3F87A20F2B283F869
:10AF10007570824283F87710C3F88810C3E91F1157
:10AF2000EBD300221146C2EBC203561C04EB830391
:10AF300083F83422F2B283F83512824283F8371252
:10AF4000C3F84812C3E98F11EDD30022A36BD4F8E4
:10AF500044C01646D4F84880D4F864E0D4E91471AB
:10AF6000019102F14001013203EB81010F2A4E6091
:10AF7000F7D19A6BBEF1000F40F0408122F400122D
:10AF80009A631A6842F040021A601A6842F080021E
:10AF90001A600022012F03F50066C3F8002ED3F8D3
:10AFA0000028C3F80028D3F8002800F01E81032FE2
:10AFB00000F01B8142F00302C3F800284FF48461C3
:10AFC000574A196102E0013A00F02F8119698F0692
:10AFD000F9D41021524A196102E0013A00F02381AC
:10AFE0001969C906F9D4002131617161F161E0B1DB
:10AFF00003F510624FF0904A4FF0006B0F464FF68A
:10B000007F399C4607E0176001311761C2F808904C
:10B010002032814260D01368002BF4DA11B1C2F8FB
:10B0200000A0F1E7C2F800B0EEE73269B8F1010F15
:10B0300022F48072326100F0EA8000216FF08042D9
:10B0400099615A61B8F1000F03D19A6942F0100278
:10B050009A619969334A0A439A61019A1AB19A69C5
:10B0600042F008029A61BEF1010F00F0CB80002D82
:10B070007FF411AF0121E26D84F870508A4284F8A8
:10B08000F51300F0D4807368032043F0020373606B
:10B090000CF018F8214B93F89C50012D7FF404AF6D
:10B0A00048F01AF800287FF4FFAEA36B80222846F0
:10B0B00040215A625A6A42F400129A62FDF7AAF8D5
:10B0C00020210220FDF7A6F840210320FDF7A2F879
:10B0D00000200BB0BDE8F08F002163460CF5306214
:10B0E0004FF0904A4FF0006B0F464FF67F39844681
:10B0F00007E0176001311761C2F8089020326145FE
:10B1000093D010680028F4DA11B1C2F800A0F1E77A
:10B11000C2F800B0EEE700BF60290120583A0120D4
:10B12000400D030000383C8000F0FF054B4B03202E
:10B130004FF4C05684F8F4531A6B42F001021A63BC
:10B140000A221B6B069105A903F0010308904448ED
:10B150000493049B0795059609920AF0EDFF636E30
:10B16000012B71D03D4B062143205A6B42F08002E7
:10B170005A635A6B02F080020292029A5A6C42F4AD
:10B1800080425A645B6C03F480430393039BFEF795
:10B19000B3FBA66B0323334A0821916084F8F5338F
:10B1A000226DB368012AA76C23F00103B3607FF41A
:10B1B00063AEB26B2C4B22F48032E16EB263012994
:10B1C000F26803EA0203F360F36823F44013F360C8
:10B1D00003D1F36843F48013F360304607F0DCFFDB
:10B1E000012F05467FF456AE6CE6BCF1000F3FF42C
:10B1F000E3AE42F00102C3F80028DFE642F4001299
:10B200009A63C6E69969194A0A439A612FE7184971
:10B210000020184A31636FF08041376B3A43326344
:10B220009861596115E70125DDE60125D1E684F82D
:10B230002C549969C4F8342441F000610E4A996194
:10B24000596D0A435A651EE74FF4007305A9044877
:10B250000593CDE906550AF06FFF83E700380240F9
:10B260000000024000E100E0BFFFBDFF040000401D
:10B2700000018000030001000300001010B51A4C0B
:10B2800094F8A509C0B9194B83F88D05C3F890054A
:10B2900094F8A839012B05D0022B21D0D4F8AC3971
:10B2A0001BB910BD124BC4F8AC3912495B68A1F14F
:10B2B0000C00BDE8104018473AF0A4FA94F8A7290A
:10B2C0000A49003AC1F8900518BF012281F88D257E
:10B2D0000028DDD021222021C2803AF01DFBD7E7D3
:10B2E000054BC4F8AC39E0E7504B01206029012040
:10B2F00084010120005501206001012099B10A6BF1
:10B30000824216D9154BD3F8F429914221D35C39E6
:10B3100091421ED30B6B9842F9D38B6B9842F6D8AF
:10B320000B46184670470D4BD3F8F4190A6B904240
:10B3300012D30B680BB9F4E70A6B90420B4602D3A9
:10B340008A6B9042EDD951F85C3F002BF4D118463E
:10B3500070470023184670470A46D8E7504B012033
:10B360002DE9F047CC0143D1034622494FF0FF328B
:10B37000022443F8081B7E2642601846DFF87880D6
:10B380002644051D6FF07047D8F8F8994FF0010A70
:10B39000013E494608E0A3421CD0631C45F8043C2A
:10B3A000321B1C460435CAB10B6BA34202D88B6B0F
:10B3B000A34204D22046FFF7A1FF014690B10A79CB
:10B3C0004B6B002AE7D1A34204D0E6D2631C45F8B8
:10B3D000042CE5E7631C45F8047CE1E7C8F8F8199C
:10B3E000BDE8F087321B631C494645F804ACD8E73A
:10B3F0008026C3E7F8FFFF0F504B01200E4A0023C1
:10B4000010B50E4CC2F8000AC2F8144A0C4CA2F84F
:10B41000041AC2F80C4A0B4CC2F8083AA2F8063AD1
:10B42000C2F8104A82F8183A282202FB03F40353A8
:10B4300001339942F9D110BD504B012040420F0019
:10B4400020A10700A01CE9FF2DE9F04FA84CB2EEA7
:10B45000045AA84AB4F83C1104F51F67B4F83A310D
:10B4600004F6C85B07EE901A04F6D85A06EE103AB6
:10B4700004F55F66B8EE677AB8EE466A2DED088B84
:10B4800092F81D3AB6EE009A85B09FED9BBA07EE92
:10B49000903AB2F81E3A67EE096A9FED98AA0A2B15
:10B4A000F8EEE77ADFED96AAB8BF0A23C7EE855A11
:10B4B00007EE903AB2F8203A08EE103A92F81C3AA9
:10B4C0000022B8EEE70AB8EEC88AC4F8002A87ED71
:10B4D000010AB4EE480AF1EE10FA30FE088AF4EEE2
:10B4E000C86AC7ED005AF1EE10FA38FE268AC6EE99
:10B4F000887A082B87ED028AA8BF0823B1F57A7FE6
:10B50000F7EE006A38BF1346C4F8FC3904F6CC5392
:10B51000FBFE677AF4EE667AF1EE10FA48BFF0EEC1
:10B52000667AFDEEE77AF8EEE75A17EE905AC6EE25
:10B53000077AC4F8C45D67EEA57A86EEA76ADFEDE8
:10B54000717AC7EE256A8BED006A0BF2247BC6EE9A
:10B55000A78A80EE280AC3ED008A4FF073FC022808
:10B56000B8BF022088EE280A8046C4F8D00D4FF0FC
:10B5700069FC2328DAED007ADFED638AA8BF232077
:10B58000B8F1230F6149A8BF4FF02308C4F8D40DC8
:10B590004045B8BF4046012DA0EB08028146B8BF28
:10B5A00001250132F5EE407AF1EE10FA2DD158481E
:10B5B00000230196CDF808B00646AB461D4607EEBF
:10B5C000905A039201350836F8EEE79A69EE8B9AA5
:10B5D000B0EE690A4FF0A8FBB0EE408AB0EE690AFF
:10B5E0004FF0DAFC242DA0EE288A484920EE0A0A02
:10B5F000039A06ED010A28EE0A8A06ED028ADED1D8
:10B60000F0EE6A7A5D46DDE9016B92FBF5F000230E
:10B6100046F8080C304646F80C9C46F8045C46E9AF
:10B6200005380133E0EC018A482BFAD106F5907316
:10B630000020D1F854E3D1F858C30130C3F800E03A
:10B64000C3F804C008332428F7D106F515765E4503
:10B65000A8D1DFF8C49000269FED2E8ACAED007AAB
:10B66000B819CA464FF00008D4F8FC3900F1240597
:10B67000984531DA07EE908A97ED016A743004211B
:10B68000F8EEE76AD7ED027A08F1010877EEC67A9C
:10B6900036EE897A67EE877A07EE103AB4F83A31D7
:10B6A000B8EEC77A00EE903A87EE870AF8EE600AA5
:10B6B00030EE060AAAEC010A97ED001AC5ED178ACA
:10B6C000A6EE881AC5ED168AC5ED158AC5ED148A51
:10B6D00052F07EF82846C7E706F5907609F1200972
:10B6E000B6F5587FBCD105B0BDEC088BBDE8F08F36
:10B6F00000020020504B0120C3B8B23D72F97F3FD9
:10B70000BC297E3F000090420000000050D8050890
:10B71000D8160020CDCC4C3E040C00202DE9F04F73
:10B72000DFF8B8810127674CDFF8B4912DED028B6B
:10B73000DFED658A85B09FED658AFEB2572118F866
:10B74000010B324633F04AFD0546002800F0A18087
:10B75000026801215E4B4FF4005CDFF888A19A4239
:10B7600018BFB2F1804FDFF880B19AF82A3A0CBFC7
:10B770000122002207EE903ADBF85C31002A9BEDB3
:10B78000577AA9FB0303F8EE677A14BF08464FF413
:10B790008070B8EE477ADB0804F82B2C002244F8BE
:10B7A0000C0C18F8010CE56044ED078A04ED0A8AD8
:10B7B00044F8083C04ED097A44ED087A04F82C1C9E
:10B7C00024F8181C24F8161C44F8042C44F8102CF7
:10B7D00044F814CC3AF016F8206110B15723C67122
:10B7E00083719AF8283A012B6AD0022B0CBF4221B0
:10B7F00002216A7A3AF058F8DBF85C2100212846E9
:10B800004CF0FEF814F82B3C002B4CD0314B0022AE
:10B810002146284623604BF0BFFF28684CF04AF9C8
:10B820008346A8B100219AF8292A01238A424FF0C1
:10B830000402019314BF0B460223CDE902126946AC
:10B840006A79009308F06EFB6979584608F03AFC73
:10B8500054F80C3C4FF0FF3CE268013E1E4803EBFD
:10B860000C011268F6B290F80006012391624FF4C1
:10B8700000550021B042C2F82CC0536124F8183C96
:10B8800024F8163C44F8041C44E9055101D133F076
:10B8900037FC01374034052F7FF44FAF05B0BDECC6
:10B8A000028BBDE8F08FDFF844E0221DDFF840C0D6
:10B8B00021462846A360C4E900EC4BF06DFFACE7DD
:10B8C000222196E72418002000401C4600000000BA
:10B8D000000C0040B1170000F81200207455012040
:10B8E0001F85EB51504B0120583A0120D51800001C
:10B8F000611A00000C480D4BD0F8441A10B48A1E8F
:10B900000B4C2231C0F8343AB0F8503A1B01A4FB7A
:10B9100003C3DB08A3F5B06322F8023F9142F3D1E1
:10B920005DF8044B704700BF504B012025240208EE
:10B93000CDCCCCCCF0B5294C85B0054604F52663BA
:10B94000C4F8443AFFF7D6FF1A21254A254B402078
:10B9500084F82E1AC4F8382AC4F83C3A2EF050FB6A
:10B96000002838D0002D94F89D3A94F89E2A4FF084
:10B97000030614BF4FF4E1314FF4E121002B4FF0E7
:10B98000000394F89F7A0CBF1D4602259A4290F955
:10B99000040000914FF0400114BF30221A469F422C
:10B9A00018BF45F00105019615430F4A02952EF088
:10B9B00084FBC4F8B40A48B10C4810F033FE94F884
:10B9C000B93A84F8B80A0BB984F8B96AD4F8B40A59
:10B9D000003818BF012005B0F0BD00BF504B01205A
:10B9E000A173020819380208792D02086D3A02087D
:10B9F00030B5402085B02EF003FB40B3164C032336
:10BA000090F9040094F89D2A94F89E5A002A019314
:10BA10004FF4E13394F89F2A14BF022100210093D0
:10BA2000002D4FF0000314BF10251D469A4218BF89
:10BA300041F00101094A0D43402102952EF03DFBE2
:10BA4000C4F8BC0A08B1064B436305B030BD024BD5
:10BA5000C3F8BC0AF9E700BF504B01206D40020853
:10BA60000140020870B5084C251D2E4614F8010B44
:10BA70002BF02CF928B10379B44205F8013BF5D13C
:10BA800070BDFF23F8E700BF105601202DE9F047F5
:10BA90001C4F01264FF03B094FF0000807F1080545
:10BAA000B24617F8010B39F0ADFE044690B180F8AC
:10BAB0000690C671FB7803F07F02012A17D013F0BD
:10BAC000800F20460CD185F8048039F067FF85F897
:10BAD00005802C6001360835052EE2D1BDE8F087DF
:10BAE00085F804A039F060FF85F805A0F1E71B0692
:10BAF00005D40121204639F00FFFFB78DFE739F04C
:10BB000053FFF6E7185601202DE9F041B14CB24A37
:10BB1000B4F80E3B00EE103AB4F8103B00EE903A49
:10BB2000B4F8123BB8EEC00A07EE103AB4F8F03A97
:10BB3000F8EEE00A07EE903AB4F8F23AB8EEC77AB7
:10BB400001EE103AB4F8F43AF8EEE77A01EE903AE2
:10BB5000B4F8F63AB8EEC11A02EE103AB4F8F83A70
:10BB6000F8EEE11A02EE903AB4F8FA3AB8EEC22AC8
:10BB700003EE103AB4F8FC3AF8EEE22A03EE903AFB
:10BB8000B4F8FE3AB8EEC33A04EE103AB4F8003B0B
:10BB9000F8EEE33A04EE903AB4F8023BB8EEC44A49
:10BBA00005EE103AB4F8043BF8EEE44A05EE903A9C
:10BBB000B4F8063BB8EEC55A06EE103AB4F8083BA6
:10BBC000F8EEE55A06EE903A02F50173B8EEC66A51
:10BBD000F8EEE66A2DED048B9FED808A9FED809A4A
:10BBE00020EE080ADFED7F8A60EE880ADFED7E9A9C
:10BBF00021EE091A63EE893A83ED240AC3ED250A82
:10BC000027EE087A9FED790A67EEA97ADFED780AC8
:10BC100061EEA81A9FED779A62EEA82A23EE293AE0
:10BC200092ED018A65EE895A83ED267A22EE002A8A
:10BC30009FED717A24EE204AC3ED007A64EE804ACB
:10BC400083ED011A25EE285AC3ED021A83ED032A6B
:10BC500026EE076AC3ED042A66EEA06A83ED053A74
:10BC6000C3ED063A83ED074AC3ED084A83ED095A4E
:10BC7000C3ED0A5AB4F80A2B83ED0B6A07EE102ABB
:10BC8000B4F80C2BC3ED0C6A07EE902A94F81D2B28
:10BC9000B8EEC77A05EE902A94F81E2BF8EEE77AF4
:10BCA00006EE102A94F81F2BF8EE655A06EE902A3D
:10BCB00027EE007A67EEA07A94F8142BB8EE466A65
:10BCC000C3ED2A5AF8EE666A83ED0D7AC3ED0E7A5B
:10BCD00083ED2B6AC3ED2C6A002A77D007EE902AF9
:10BCE000F2EE046AF8EEE77A86EEA77A94F8152B5E
:10BCF00083ED287A002A66D007EE902AF8EEE77ADC
:10BD00003E4D4FF000083E4FA5F19C06C3ED297A49
:10BD100056F8043C3046F0EE480A08F10108303687
:10BD20002BB1BA7900EE102AB8EE400A984717F8FE
:10BD3000013B2846F0EE480A00EE103AB8EE400A01
:10BD400046F04AFEBB7805F13000F0EE480A00EEFE
:10BD5000103A1035B8EE400A46F03EFEB8F1030F37
:10BD6000D6D194F8162B274D85F8A42822B305F6D2
:10BD70004C1705F6A506244C05F6A805E278A04662
:10BD8000642A1346A8BF6423D2B107EE903AB8EEF6
:10BD9000670A3846F0EE480A42F0EEFB98F80030A9
:10BDA00001340837FA2BA8BFFA230A2BB8BF0A239D
:10BDB00006F8013BB542E1D1BDEC048BBDE8F08152
:10BDC000B7EE000AE5E7DFED117A99E79FED107A0B
:10BDD0008CE700BF504B0120FC1800200AD7233C01
:10BDE00017B7513995BFD6332CB2DF3617B7D137D5
:10BDF000BD37863564CF8B386F12033A5C1C002048
:10BE000070560120F812002067560120000061459D
:10BE1000000000002DE9F0472A4D54222A4C002151
:10BE200005F5107005F52E7805F5587605F552776D
:10BE300004F103092DED028B51F012FB95ED018AFF
:10BE4000A3790122A246404600EE103A1146F0EED8
:10BE5000480A1444B8EE400A08F1300846F0BEFC27
:10BE60009AF800303046F0EE480A00EE103AB8EE8C
:10BE7000400A46F0C3FDA37806F13000F0EE480A10
:10BE800000EE103A1036B8EE400A46F0B7FD3846DC
:10BE9000F0EE480A0837B7EE000A42F055FBA1451C
:10BEA000CED1D5ED017AF5EEC07AF1EE10FA04D9D3
:10BEB000BDEC028BBDE8F04726E6BDEC028BBDE889
:10BEC000F08700BFFC18002070560120314BF0EEC7
:10BED000607AB3F83A3107EE103ABAEEEF7A2DE90C
:10BEE000F041B4EEC70A2DED048BF1EE10FADFED50
:10BEF0002A8AB0EE408AF0EE419A06DDF4EEC70AD7
:10BF0000F1EE10FA3DD5B0EE478AB5EEC08AF1EEFB
:10BF100010FA3BDDF5EEC07AF1EE10FA36DDF4EE04
:10BF2000C87AF1EE10FA31D527EE887A67EEE77A13
:10BF3000E8EE087A87EE279A00F10C0400F19C05E0
:10BF4000DFF86080154F164E44F80C8C2046C4ED87
:10BF5000038AB0EE491AC4ED028AF0EE690AC4ED14
:10BF6000018AB0EE480AC4ED008A042144E9026760
:10BF7000303451F02DFCAC42E6D1BDEC048BBDE871
:10BF8000F081B0EE688AB0EE689AD5E79FED029A2C
:10BF9000D2E700BF0002002000000000A5E704086F
:10BFA000691E0000A9E704080A44914216D030B483
:10BFB00041F2210511F8014B082380EA042010F416
:10BFC000004F4FEA400485EA40000CBFA0B280B2A7
:10BFD000013BF4D18A42EDD130BC7047704700BFBD
:10BFE00030B40023314D32494CF25034C5F8443B53
:10BFF000304AD1F8A80904E0D1F8A8391B1AA342A5
:10C000000FD8D368DB03F7D4D16811F4F9710BD1E1
:10C01000D06810F0010002D001230846D36030BC84
:10C020007047032030BC7047D3689B0705D5D5F80F
:10C03000443B43F02003C5F8443B1E4BDB68DC0661
:10C0400005D5D5F8443B43F01003C5F8443B194BE4
:10C05000DB68980605D5D5F8443B43F00803C5F8DE
:10C06000443B144BDB68590605D5D5F8443B43F0F7
:10C070000403C5F8443B0F4BDB681A0605D5D5F819
:10C08000443B43F00203C5F8443B0A4BDB68DB0545
:10C0900005D5D5F8443B43F04003C5F8443B054B78
:10C0A0004FF4F9720120DA6030BC7047504B012028
:10C0B000583A0120003C024070B5254C0126254D20
:10C0C00084B0D4F8481BD4F84C2BD4F8503B41EA48
:10C0D000020085F8A861184324D009B29FED1E6ABA
:10C0E00012B201A81BB206EE901A07EE102A002227
:10C0F00007EE903AF8EEE66AB8EEC77A04F53861D2
:10C10000F8EEE77A85F8A82166EE866A27EE067AC9
:10C1100067EE867ACDED016A8DED027ACDED037A78
:10C1200046F0B2F90122D4F8543B85F8A9214BB16D
:10C130000A490023A1F1080085F8A93146F002FA66
:10C1400004B070BDB4F9583B002BF1D104B070BD00
:10C15000504B01200000012035FA8E3CAC560120E6
:10C160002DE9F041204C00234FF0050894F8AB2B4B
:10C1700004F6A83704F6AC3584F8A42B17F8010BA5
:10C180005E1C20BB2860032E05F104053346F5D163
:10C1900094F8A41BD4F8AC0BC94301F0010139F0A9
:10C1A00009FC94F8A41BD4F8B00B81F00201C1F390
:10C1B000400139F0FFFB94F8A41BD4F8B40B81F0D4
:10C1C0000401BDE8F041C1F3800139F0F3BB39F05F
:10C1D00019FB0121F3B2286010B180F80680C37109
:10C1E000286839F099FBCEE7504B0120F0B5294C77
:10C1F00083B0B4F8BC5BA4F8BE5BEDB994F8B80B9F
:10C2000039F000FB94F8B92BC4F8C00B003A18BF02
:10C21000012284F8C42B48B194F8BA1B2C220029BF
:10C22000C28014BF1121012139F076FB002003B038
:10C23000BDE8F04039F0C6BB94F8B87B00222C2151
:10C24000384632F0CBFF0646384639F0DBFA00B10B
:10C250000EB903B0F0BD2C22C4F8DC0B022100277C
:10C26000C280727A39F020FB0B4AA4F8E45B3146B5
:10C2700004F6C8300197B2FBF5F3C3F34F059BB248
:10C28000009529F0B5FAD4F8C83B1F6084F8D97B33
:10C29000DFE700BF504B012040420F002DE9F84F6F
:10C2A000264B002693F8F02B03F6E73703F60444F9
:10C2B00083F8E62B5FFA86FB4FF0010917F8010FB0
:10C2C00001360BEB090A49464FF000085FFA8AFA7B
:10C2D000524632F083FF054648B3387804F80E8C96
:10C2E00004F80D8C04F80FBC04F8109C44F8045CAE
:10C2F00039F088FA022118B180F8069080F807A07A
:10C300006A7A39F0D1FA0E4A002128464BF078FBC0
:10C310000C4B221D2146236028460B4BC4E90138F3
:10C320004BF03AFA42466979286828F0A7FA082EB5
:10C3300004F11C04BED1BDE8F88F00BF504B0120B2
:10C3400040420F00BD480308B527030870B52C4CC8
:10C3500000222C4B022194F81C0DC4F8143DC4F8A3
:10C36000D42CC4F8D82CC4F8DC2CC4F8102DA4F8B4
:10C37000182D32F033FF002836D0234B05460168D4
:10C3800003F170005A7C12B15A6891422DD01C33CF
:10C390008342F7D1002394F81C0DC4F8005C84F8A4
:10C3A000F43B39F02FFA08B10223C38000266A7AE1
:10C3B000022139F079FA31462846144A4BF020FB25
:10C3C000134B144A2846C4F8043C134B111FC4F8FD
:10C3D0000C6CC4F8083C4BF0DFF9324669792868E8
:10C3E000BDE8704028F04ABA70BD8A6A0B48013235
:10C3F0000B49D0F85C31B3FBF2F381F8AA31C9E7FD
:10C40000504B012000FFFF00BC1C002040420F00E9
:10C41000DD2703085857012069290308583A0120ED
:10C42000000001202DE9F04FDFF8549399F8224DD8
:10C430002DED048B032CA1B0A4F10503039000F2B1
:10C440009880BE490122032B01F8782C00F2C080AD
:10C4500099F82B3DDFF8FCB2012B8BF8C42A00F0D1
:10C46000B1819A1E53425341082C08BF0023002B70
:10C4700040F0A881B24E0BF6642599F82A7DDFF8CA
:10C4800004830FCE0FC50FCED6F800C03E1E0FC5D9
:10C4900018BF0126AB4B072CC5F800C088F8146103
:10C4A000CBF8743A00F23D82042C00F21B84002386
:10C4B000DFF8D4A20493A44B0593A44BCDE906382E
:10C4C000DDE90332934240F309849DF810300321E3
:10C4D000069A5D1C0A9312F8016BEDB20692304683
:10C4E0002A4632F07BFE0446002800F0CB8130461D
:10C4F00039F088F9059B586110B10323C571837128
:10C5000099F8223D2046089339F00EFC94F80880F3
:10C510000346002800F0B1819BF8D02A0992002A36
:10C5200040F09B824768002F00F0AC819B68384642
:10C530000C9339F05FFC2A4603210B9039F06AFC1A
:10C54000002800F09F819BF8D46A25688048CAF8CB
:10C550009470002E00F0D7830022034603E00132DE
:10C56000B24200F0D0831968B8338D42F7D1D6B209
:10C57000D1E3DAB2052A7FF664AF70490022032BBB
:10C5800001F8782C44D8734B0122DFF8F88183F846
:10C59000C42AD8F8FC30002B40D001210022039897
:10C5A00083F8251083F82400014683F826209A6238
:10C5B00048B12C33684A1944084612F8011B03F8A5
:10C5C000011B9842F9D121B0BDEC048BBDE8F08F7E
:10C5D000DFF880B10023614E0BF694258BF8C43A46
:10C5E00099F8287D0FCE0FC50FCE36680FC52E6087
:10C5F0000A2C00F21484DFE814F01D001204250454
:10C600002A04120412041204120412041D002F043E
:10C61000504BDFF8708183F8C42ABAE7504D514C73
:10C620000FCD0FC40FCD0FC42B6844F82039C8F8C4
:10C63000FC40C8E70123DFED4C7A4C4A0693F0EE4C
:10C64000678A4B4BCBF8AC2ACBF8A43A494B38EE6F
:10C65000A77A9FED458AF5EE006ACBF8A83A27EE57
:10C66000888A3A4B384F4FF0000886EE879A059338
:10C67000CDF828B0039B434540F39D80059B08F10E
:10C68000010B032113F8016B5FFA8BF530462A4644
:10C69000059332F0A3FD0446002800F03E853046A5
:10C6A00039F0B0F8786110B10323C5718371BC61B2
:10C6B0000221627A39F0F8F8069B002B00F01D8108
:10C6C000B9F8203D4FF6FF7207EE903A2A4BF8EE8C
:10C6D000E77AD3F85C51FCEEE77A17EE903AB5FBB7
:10C6E000F3F10A44120CB5FBF2F2B2FBF3F304923D
:10C6F0009DED047ADFED217AB8EE477A99F8222D84
:10C70000092A67EE086A67EEE67AC7ED026AE7EE85
:10C71000287AC7ED037A00F00B8100269BB2049AB9
:10C72000214638460196009629F062F8B8F1000FCC
:10C7300000F0DE807968044B2BE000BFE834002075
:10C740009CDC0508717C0508BC1C00207D5801207C
:10C75000D01D0020F812002074580120E4DC0508E8
:10C7600078DC0508E45801206F12833AB93C0308CD
:10C7700029E9030825E90308583A012000007A4412
:10C78000504B012000020020F02D00209F4200F0BD
:10C79000AF805A681C338A42F8D1012383F0010329
:10C7A0000122BBF1040FD8463B7407F11C0707F8C0
:10C7B0000B2C7FF45FAFDFF83CA3DFF83C83C8F8B5
:10C7C000FCA0E6E6002799F82A3D89F8C44DBC4D47
:10C7D000DC1B039BBB4E18BF0124CBF8C83ADFF823
:10C7E000188389F8517D88F81441DFF810A30FCD24
:10C7F0000FC60FCD0FC62B6839464FF44C72B248A6
:10C8000046F8903950F02CFEB04BCDE90438DBF8F7
:10C81000C82ABA4268DD049B13F8014B20460493F2
:10C8200032F062FD0546204638F0ECFF95F80880AE
:10C83000059B044608F0010593F81411013589F8A9
:10C84000505D09B188F00108002C00F02981A17920
:10C8500011F0BF0F22D001229D4B9E49CBF8443AE4
:10C8600089F8512D00229C4BDDF81480CBF84C1A2E
:10C87000CBF8483AC8F8FC208BE69BF8D03A002B5E
:10C8800040F0EB8093490023934ADDF81C80CBF8FD
:10C890007C1ACBF8782AC8F8FC307AE66D0120467D
:10C8A00039F0A4F9013745F001014FF00303CAF84C
:10C8B0000C40CAF804008AF81080CAF81410E77116
:10C8C000A371204639F028F818F0010F204611D046
:10C8D00039F064F8DAF80C20042F0AF1200A06F186
:10C8E0001C0646F8082C92D1DDF81480754AC1E781
:10C8F000002353E739F058F8ECE7FAFE497AFCEEEA
:10C90000E77A764B4FF6FF71D3F85C5117EE902A19
:10C910000B46B5FBF2F20A44120CB5FBF2F204929C
:10C92000E6E6082C7FF4C3AD6D4BCBF8CC3ABEE500
:10C93000012100209BB2049A0191214600903846C3
:10C9400028F056FF236818461D4609EE903A4BF032
:10C95000B1F8079000283FF4E9AE624AD2F88C3C67
:10C96000002B7FF4E3AE28460C254BF0B7F85E4E63
:10C97000AA460546089709945C4C01E0A6421BD0E4
:10C980002078033414F8021C0028F7D00029F5D0D1
:10C9900032F0CAFB07460028F0D000684BF09EF842
:10C9A0008542EBD17B795345E8D1AAF1040A1AF00C
:10C9B000FF0AE1D1089FB9E6DDE90874494B192265
:10C9C000049DC3F88C7C19EE903A617902FB05F561
:10C9D000444E343388083A681944DFF824C186F895
:10C9E000CC0C5344126807980068C6F8982C129231
:10C9F0004FF48072C6F8843C16924FF40072C36AFA
:10CA0000179206F69842C6F8881C00213A60079AE9
:10CA1000119192F83C20B5FBFCF5CDE914115B1B9C
:10CA20000221012A1391C6F8903C00F05382079D21
:10CA30000122AAF1040385F83D1085F83C20082B5B
:10CA400000F24182DFE813F0C9023F023F023F02D9
:10CA5000CD023F023F023F023C026769002F3FF4D4
:10CA600011AFA36938460C9339F0C4F9204B242246
:10CA7000451E0B9002FB053595F8C831382B00F0A8
:10CA8000F08120684BF02AF8024638210B98D2B288
:10CA900039F0C0F900283FF4F5AE0023099352E5C0
:10CAA0006D01204639F0A2F8013745F00101CAF8BE
:10CAB0000C40CAF804008AF81080CAF8141000E785
:10CAC000C0DC05082C1D0020C03000207D5801204E
:10CAD00029E9030821E9030825E90308583A012058
:10CAE0009D650408F0230020E3580120A45801208C
:10CAF000000001208C1D002000020020F0330020E7
:10CB000040420F009BF8D02ACAF85430002A00F0A7
:10CB100045829846DAF89830C3F8A870CAF894703D
:10CB2000099B002B00F075820AF118000F9006F0A7
:10CB3000D5FE9BF8D03A0F98002B00F08A82CF499F
:10CB40004FF4907322684FF0030C03FB0613DAF8DE
:10CB500098104C32C1F8B030CAF81C300C9BCAF89F
:10CB60001820CAF83C30CAF848C0089B40214FF44E
:10CB7000806C082B4FF00403CAF820104FF480514A
:10CB8000CAF844304FF000030CBF06221222CAE953
:10CB90001333CAE909334FF40033CAF838204FF48D
:10CBA0008042CAF84030099BCAF83420CAE90BC158
:10CBB000002B00F03F829DF83430CAF89470022BAD
:10CBC00000F21C81AE4AAF4902EB8303089AD3F806
:10CBD000CC33082AB1FBF3F308BF5F2203F1230330
:10CBE00018BF1322CAF85C30DAF8983050469A80A1
:10CBF0004AF0AEFF9BF8D03A0BB1099B33B90B98C2
:10CC000090229AF81130A0494BF06CFE18EE102AD1
:10CC10004146284606F080FCB8F1010F00F0EA8199
:10CC2000B8F1040F00F08C81B8F1100F00F086828B
:10CC3000B8F1400F00F09782B8F5807F00F0A18234
:10CC4000B8F5806F00F0A582B8F5805F00F0A9828A
:10CC5000B8F5803F00F0C8826A6D05F1180008231E
:10CC600042F400626A6589490422894FC95CFF5C0D
:10CC70000B58BA4023EA02030B502B6843F0010320
:10CC80002B600E9B002B00F0B0812B6A43EA8803D7
:10CC90002B620A9B9E420BD16B6C43F400436B6486
:10CCA0002B6843F080032B602B6843F001032B605B
:10CCB000079B93F81431002B40F0A481049A0123C0
:10CCC00005990AF1A00A01320AF8913C4B7401F16E
:10CCD0001C03042A049205937FF4F2ABDDF81C8058
:10CCE0006C4BD8E599F8293D6B4A012BCBF8CC2A3F
:10CCF00005D0022B08BF002F0CBF012300238BF8A7
:10CD0000D03AFFF7D4BBB823721C03FB06B38BF8F1
:10CD1000D42AC3F8D85AB8239BF8D42A0A9906FB18
:10CD20000303013A8AF81110CAF8983020790A9260
:10CD300038F068FD079B08F0010193F814310131C8
:10CD40000BB188F001084901CAF8084041F00E0112
:10CD5000CAF81410627A38F0A7FD0A9B9E4200F0D0
:10CD60008F81089B063B0D93002360220AF164012A
:10CD7000CAF8803008EE101ACAF86420CAE91A33DB
:10CD8000CAE91C33CAE91E3318F002030E934FEAB6
:10CD9000480338D0012203F00203CAF86C20CAF815
:10CDA0007830002302224FF480300A21CAF8703014
:10CDB000CAF88410CAF89020CAE9220362790C2AC2
:10CDC0003FF6A0AE2E4B9BF8D01A03EB8203D3F8AC
:10CDD000D883CAF8548000297FF49CAE284B03EB1B
:10CDE0004202B2F80C14DAF89820AAF80C10B2F843
:10CDF000B43023EA0103A2F8B43091E68D23132264
:10CE0000CAF85C30F0E601214FF4807203F00203AF
:10CE1000CAF86810CAF87C20CAF87430C1E7DFEDA0
:10CE20001F7AF0EE678A002F1D4A1E4B0EBF0021AD
:10CE3000012113461C4A06911C49CBF8A42ACBF8C1
:10CE4000AC1A04E4DFED1A7AF0EE678AEBE7DFED67
:10CE5000197ADFED198AE6E7DFED187AF0EE678AD6
:10CE6000E1E720684AF03AFE95F8C93183427FF441
:10CE700008AE01230993FFF766BB00BF9023002093
:10CE800050D8050800D01213892C00003CDD05089D
:10CE900030DD05085C1D0020D16504086F120339E0
:10CEA00025E90308692A030829E90308B93C0308AE
:10CEB00028293038ACC5A737ACC5A7366F12833ADE
:10CEC00011A906F061FF07990122002381F83D2096
:10CED00081F83C30264618ADDFF804C30FCE0FC5ED
:10CEE00096E80F0085E80F00B249002218A88DF8D7
:10CEF00065A0C1F800C0A1F548634AF04DFC216867
:10CF00000023AD4A52F83320914200F011810133E1
:10CF10000E2BF6D1002040B201210490FCF7ECFC6E
:10CF200004980AF0C1F89DF865200C2A10D8DFE8B3
:10CF300002F04D0F0F0F460F0F0F3F0F0F0F38006E
:10CF4000AA6905F11800012342F00802AA618AE6E5
:10CF5000079B1B6802F01F010122186A8A40974C48
:10CF600020EA0200A3421862196A42EA01021A6228
:10CF700000F0CE80924A934200F0CA809968914AAC
:10CF80000A40062A3FF4D2ABB2F5803F3FF4CEAB65
:10CF90001A6842F001021A60FFF7C8BB90461146BA
:10CFA00021E7079B1B68D96841F01001D960D1E7E0
:10CFB000079B1B68D96841F00801D960CAE7079B45
:10CFC0001B68D96841F00401D960C3E7079B1B685F
:10CFD000D96841F00201D960BCE711A906F036FF1B
:10CFE00071E711A906F0FCFE6DE72B6A43EA08031E
:10CFF0002B624EE6AA6905F11800002342F00802F0
:10D00000AA6130E623684FF6FF7162793433995094
:10D0100054E63A68FBB2182127F0FF0022F0010223
