:020000040800F2
:10000000F0FF01205D5A0508C55A0508512704086C
:10001000C55A0508C55A0508C55A0508000000005C
:10002000000000000000000000000000C55A0508A4
:10003000C55A050800000000C55A050881220408B9
:10004000C55A0508C55A0508C55A0508C55A050800
:10005000C55A0508C55A05088D2A0408852A0408CA
:100060007D2A0408752A04086D2A04084141050800
:10007000314105082141050811410508FD400508E9
:10008000E9400508D5400508C55A0508C55A0508C0
:10009000C1CD0008C55A0508C55A0508652A0408D7
:1000A000B926050889270508A9260508B1270508E6
:1000B0007927050869270508592705084D4B0508C4
:1000C000594B0508354B0508414B0508C55A05082D
:1000D000C55A0508FD220408F1220408E522040897
:1000E0005D2A0408C55A0508C55A0508C55A0508F9
:1000F000D9260508C55A0508C9260508C55A0508A0
:10010000C55A0508C55A050849270508C55A0508EE
:10011000D9220408CD220408DD26050881C500087F
:10012000AD4005089940050885400508714005085F
:100130005D400508C55A0508C55A0508C55A050891
:10014000C55A0508C55A0508C55A0508C55A0508FF
:10015000C55A0508C55A0508C55A0508C55A0508EF
:10016000C55A0508C55A0508C55A0508C55A0508DF
:10017000C55A0508C55A0508C55A0508C55A0508CF
:1001800099260508C55A0508054B0508114B0508B1
:10019000C55A050800000000C55A0508C55A0508DB
:1001A000C55A0508C55A0508C55A0508C55A05089F
:1001B0001D4B0508294B0508C55A0508C55A0508F1
:1001C000C14005084940050835400508214005089B
:0801D000C55A0508C55A0508CF
:0801D8007C5505000100000048
:08280000082800080040000850
:04400000FFFFFFFFC0
:10600000037830B4FBB10246C0F10105531912F810
:10601000014FDBB2002CF9D101335B000B4C0B803C
:10602000032223706270017859B1022300255A1CA3
:10603000D2B2E154A55410F8011F0233DBB200299B
:10604000F5D130BC70470223E8E700BFB828002034
:10605000826D136A5B681B78FF2B08D090F8D030F4
:10606000013BDBB280F8D0301BB10120704700202B
:106070007047126A526802201370704770B4C308E8
:106080000D4CE25C00F00706B24004EBD004D2B243
:106090000020C6F108038B4228BF0B46C3F1080558
:1060A0002A419840C91A40EA02004FF0000614F84D
:1060B000012FEED170BC7047F829002030B5EFF306
:1060C0001181802383F312880A4AD2F8D431D2F89E
:1060D000D841D2F8D401D2F8D851CAB282F311888B
:1060E000013BA84294BF4FF4006000201B1B1844E2
:1060F00030BD00BFB8280020012380F85130704720
:10610000014BD3F8DC017047B8280020012070470C
:10611000014BC3E978217047B8280020014BC3E93F
:106120007A217047B828002070477047212838B579
:1061300005D0222827D020280FD0002038BD0029E4
:10614000FBD0072AF9D1174B1C6818795A799B792B
:106150000C6008714A718B71EFE70029EDD0072AB6
:10616000EBD111480F4B0C79D0F8E4214D791C711B
:106170008C7909685D719C711960002ADDD0D0F8B6
:10618000E0019047D9E70029D7D0022AD5D1064AA5
:10619000D2F8EC31002BD0D00988D2F8E80198472A
:1061A000CBE700BF00000020B82800200020704787
:1061B0000A230380004870470800002064230380FE
:1061C0000048704714000020012901D000207047CA
:1061D000014BD3F89030184700000020012901D06E
:1061E00009F0C0B8014BD3F88C30184700000020EC
:1061F000014BD3F8883018470000002010B40B780A
:1062000003F00303012B0A46044605D0022B0BD0F2
:1062100000205DF8044B70478B8843B92046114637
:106220005DF8044B0DF014BC8B88832BF6D0034B28
:106230005DF8044BD3F88030184700BF0000002001
:1062400038B5054B0446DB6F0D4698472946204676
:106250000BF0E2F8002038BD0000002038B5054BF7
:1062600004469B6F0D469847294620460BF006F9D9
:10627000002038BD000000200023F0B452004F1C65
:106280001E46B0F1204F4FEA107404F130052ABFCA
:106290003734CD54CC54FE5402339A424FEA0010A6
:1062A000EFD1F0BC704700BF08B50248FFF7A8FE69
:1062B000014808BD14F80508B828002008B50248B0
:1062C000FFF79EFE014808BD24F80508B828002005
:1062D0000B4A0C4B10681B681A22C0180A8001D1A7
:1062E0000948704710B5094B09491C680822FFF797
:1062F000C3FF204607490422FFF7BEFF024810BD36
:106300009075FF1F9875FF1FB00000209475FF1F48
:10631000B2000020C200002008B50248FFF770FE5E
:10632000014808BD30F80508B828002008B5024823
:10633000FFF766FE014808BD3CF80508B8280020B4
:10634000042301480B807047CC000020A0B1826874
:106350000D4B12B107229A7070471978DA60032941
:106360004FF004000CBF80214FF48071C3E901118C
:106370001A611A7598707047034B41F2E47101225B
:106380005A545A70704700BF889100200378022B3E
:1063900010D0006908B9012070470C4B1B78032B03
:1063A0000EBF0B4B80B24FF6F773984294BF00209C
:1063B000012070470549436841F650028A58B3EB03
:1063C000422F2CBF01200020704700BF8891002081
:1063D000F7FFFF0F0378022B14D030B4104A436844
:1063E000006941F6480402F5C2511559096841F6A1
:1063F0003C042B4012595B0A023801FB0030104468
:1064000030BC7047064B426841F6340141F630001B
:106410005958185800EB410000EB5220704700BF5C
:106420008891002000487047E0290020034B93F832
:106430002401032894BF002001207047B8280020C1
:10644000836D1B6A5B681B78FF2B0AD190F8D030F4
:10645000002B03F1FF3380F8D03014BF012002205D
:1064600070470020704700BF034B93F824010038A9
:1064700018BF0120704700BFB82800202DE9F8435D
:10648000884600294FD04718284C07F1FF39461E8F
:106490008025EFF3118185F31288D4F8D421D4F844
:1064A000D801D4F8D431D4F8D8C1C9B281F3118855
:1064B000634594BF4FF400630023121A1344012B69
:1064C0001AD101203BF070FDEFF3118185F31288A2
:1064D000D4F8D421D4F8D801D4F8D431D4F8D87170
:1064E000C9B281F31188BB4294BF4FF4006300230B
:1064F000121A1344012BE4D0EFF3118285F31288B2
:10650000D4F8D83116F8011F2344D2B283F8F01121
:10651000D4F8D8310133C3F30A03C4F8D83182F375
:1065200011884E45B5D14046BDE8F883B828002013
:10653000F8B590F85050002380F85030D5B10F4E88
:1065400096F8642C032A17D1D6F89C7C00F13C0401
:1065500029462046FFF792FFD6F89C3CDB1B322BE6
:10656000A5EB0005044401D8002DF1D1B5FA85F062
:106570004009F8BD0120FCE71846FAE7B8280020DA
:10658000002280F85120D3E790F85020531C024499
:10659000DBB280F8503082F83C1090F851200AB1FC
:1065A000132B00D9C4E77047F8B50C4E96F8643C3D
:1065B000032B0D4614460FD1D6F89C7C002C0BDD26
:1065C00021462846FFF75AFFD6F89C3CDB1B322BAE
:1065D000A4EB00040544F1D9F8BD00BFB8280020A1
:1065E00010B5134A134B8CB00821069302F5AC701A
:1065F000002382F8D0110DF1070401226944CDE98E
:106600000733CDE9034202938DF8143009930B93BD
:106610008DF828203CF0E8FD07483DF049F89DF84A
:106620000700A0F1FF00B0FA80F040090CB010BDE7
:10663000B828002051600008102A00202DE9F04100
:1066400003792C4C002B14BF012200228AB084F85D
:10665000502104D184F824310AB0BDE8F081054608
:1066600004F5AC7795F9001038463CF0DDFEAD78C6
:106670009DBB214B2148C4F860514FF00108C4F87C
:10668000CC3184F864813CF011FF1D4E03464FF479
:106690007A70A4F85C313BF087FCD4F860013BF0E1
:1066A00077FF0FCE6D460FC50FCE0FC596E80300DE
:1066B00085E80300694638463CF096FD38463CF0D4
:1066C000F7FFD4F89C2C84F824810023C4F814210B
:1066D00084F818310AB0BDE8F08128463BF09EFEF0
:1066E000054608B12023C3800D2128463BF008FF52
:1066F000BFE700BFB8280020B8290020801A060094
:106700000092050870B592B00B0E0D0C40F04006DB
:10671000952204468DF80810080A01A98DF8053065
:106720008DF80650002306258DF807008DF8092006
:106730000DF103000122039115498DF80460CDE9A4
:106740000733CDE90D33CDE9090204938DF81830F4
:106750008DF82C300F93119305958DF840200C91F6
:10676000FFF73EFF00B984B90A4C082304F5AC706A
:1067700003A984F8D0313CF037FD04F5AC703CF04F
:1067800097FF9DF8030012B070BDFF2012B070BDDE
:1067900041640008B828002030B5114A114B8DB073
:1067A00002F5AC74014606932046002382F8D0110E
:1067B0000DF10705012202A9CDE90733CDE9035206
:1067C00002938DF8143009930B938DF828203CF038
:1067D0000BFD20463CF06CFF9DF807000DB030BD6E
:1067E000B82800204164000870B51D4D90B0002409
:1067F000FD2201260DF1030301A905F5AC708DF80A
:1068000003200693CDE90144CDE90A44CDE90C44C7
:10681000C5F820418DF81040059407948DF8244068
:106820000F94039608968DF838603CF0DDFC05F572
:10683000AC703CF03DFF3046FFF7AEFFFF2809D0BB
:10684000D5F89C3CC5F814312046092385F824313D
:1068500010B070BD0423022085F8243110B070BD43
:10686000B828002070B5064690B008200D46FFF706
:1068700093FFFF2823D0FE2802D0022010B070BD65
:1068800000240222012301A90E4808928DF8383015
:10689000CDE90544CDE90A44CDE90C4402960395BF
:1068A00001948DF8104007948DF824400F943CF02B
:1068B0009BFC04483CF0FCFE204610B070BD01205B
:1068C00010B070BD102A0020444B98422DE9F041D1
:1068D00010D003F568530833984255D0404B002040
:1068E000A3F8080DA3F8140DC3F80C0DC3F8100D90
:1068F000BDE8F0813A4C3B4FDFF8F0800223C4F84A
:10690000A03C04F6A4460025D7F8D030AB42294677
:1069100005F1010503D0D4F8240D47F053FC94F899
:10692000283DD4F8242D86F8243032623046414682
:106930004AF0A4FFD4F8A03C9D4206F13006E3DB08
:10694000002384F8163DD4F8A01CB4F8A82CD4F881
:10695000B03CD4F8AC0CB4F8B45CC4F8343D12FBD1
:1069600001F203FB01F3A4F8082DB4F8AA1C1E4A97
:10697000C4F80C0DC4F8103DA4F8145DA4F80A1D69
:10698000C4F8042D0120B3E7154C164FDFF86080E2
:106990000223C4F8A03C04F6A4460025D7F8D03062
:1069A000AB42294605F1010503D0D4F8240D47F088
:1069B00009FC94F8283DD4F8242D86F8243032625E
:1069C0003046414647F096FBD4F8A03C9D4206F184
:1069D0003006E3DB012384F8163DB4E71971EF00BC
:1069E000B828002000000020289205081940EF0078
:1069F00021AAEF000F4B07B5D3F8D4205208B2FB01
:106A0000F1F3B3F5803F02D3012AF7D8F9E799B241
:106A100001904CF02FF80849084A019841F2A4531C
:106A2000CA5001F5AD510022043103B05DF804EB0A
:106A30004BF004BF00000020B8280020B5DB01089F
:106A400010B5074C04F5AC703CF032FE0A203BF068
:106A50009FFAD4F86001BDE810403BF099BD00BF3B
:106A6000B82800202DE9F8431B4C94F82461042E2B
:106A70000546894690461F4608D0082E02D00020C1
:106A8000BDE8F883FFF7B0FE0228F8D1D4F8600122
:106A90003BF078FD94F81A31A3B969021120FFF791
:106AA00031FEA8B9D4F89C3CC4F800910522C4E991
:106AB0004387C4F8045184F82421C4F81431012018
:106AC000BDE8F88329461120FFF71CFE0028E9D015
:106AD000FFF7B6FFD3E700BFB828002010B50C467B
:106AE00046F080FA58B9084B93F8B434012B4FF0B4
:106AF00012030BBF054806482380238010BD1223D4
:106B00000448238010BD00BFB039002000010020E0
:106B1000EC000020D800002010B50CF0A7FE104CAF
:106B200058B194F82431032B13D894F81831013359
:106B3000DBB2072B84F8183103D9002384F8243101
:106B400010BDD4F89C3CC4F81431012384F82431DE
:106B500010BD04483CF0AAFCA4F85C01E5E700BFC6
:106B6000B8280020801A060070B51E4C94F8243115
:106B7000042B06460D4609D0082B23D1D4F81C312E
:106B800083422DD0FFF730FE02281BD1D4F86001DC
:106B90003BF0F8FC00213720FFF7B4FD2946172011
:106BA000FFF7B0FDB0B994F81A316BB97102192032
:106BB000FFF7A8FD70B90823C4E9476584F82431BC
:106BC000022070BD012070BD31461920FFF79AFDEB
:106BD0000028F0D0FFF734FFFFF79EFF032070BDC1
:106BE000022070BDB82800202DE9F8432A4C054644
:106BF000884617461E4694F82401042831D00828F8
:106C000007D1D4F81C31AB4206D0FFF7EDFD0228C6
:106C1000F1D00120BDE8F883FC22204BDFF88490FE
:106C20001F4883F8B824C9F83C813CF00DFB0028CC
:106C300014BF4FF400734FF480731948C9F84431FE
:106C400009F58A713CF0D0FA01220623C4E9408597
:106C5000C4E9437684F8082184F824310020BDE893
:106C6000F883D4F860013BF08DFC94F81A3153B9E5
:106C700069021820FFF746FD38B994F82431082B33
:106C8000CAD0FE22C9E72946F3E7FFF7D9FEFFF78E
:106C900043FF0320BEE700BFB8280020B039002022
:106CA000102A0020000000202DE9F047D04C94F875
:106CB000506194B0002E00F0958194F8242104F5E1
:106CC000AC7704F5A078531E082B00F2A480DFE80F
:106CD00013F0390062002E01A2009000B4001B00E6
:106CE000A2000900FFF77CFC002840F04282D4F8A3
:106CF0001431D4F89C2CFA33934280F08980FFF74A
:106D00000BFF94F82421DEE7FFF76AFC0028EED0A1
:106D1000D4F820310022012B84F8182140F240825F
:106D2000D4F81C21013B511CC4E94713082284F804
:106D30002421A2F10806B6FA86F67609304614B088
:106D4000BDE8F087D4F860013BF01CFC0021084648
:106D5000FFF7D8FC0546FFF773FE012D58D1D4F894
:106D600060014FF0000984F819913BF00BFC40F2F0
:106D7000AB110820FFF7C6FC052800F07A81012836
:106D800000F03C81FFF75CFE94F81921002ACED078
:106D9000022384F82431D4F860013BF0F3FB94F82B
:106DA0001931022B0CBF4FF0804500250021372000
:106DB000FFF7A8FC29462920FFF7A4FC0546FFF7AA
:106DC0003FFE2DBB94F81931022B00F0818184F82D
:106DD0001A51D4F860013BF0D5FB00210920FFF7E0
:106DE00091FC002872D0FFF72BFE94F82421531E4B
:106DF00011E0D4F800014FF40071FFF733FD0128D2
:106E000000F01B81022800F02081002800F04C8156
:106E100094F82421531EDBB2022B0AD8D4F89C3CF0
:106E2000D4F814115B1AC82B83D9FFF775FE94F8B8
:106E30002421042A7FF47DAF80E7D4F858316D48CF
:106E40001D6A3CF001FA002800F01681B5FA85F5BC
:106E50006D09002DDCD004A900250DF10F030222DD
:106E60004FF001090591384605A9CDE90B39079284
:106E7000CDE90955CDE90E55CDE91055ADF81050C5
:106E800006958DF820508DF8345013958DF8489064
:106E90003CF0AAF938463CF00BFC9DF80F3003F0AB
:106EA0001F03052B00F06E81FFF736FED4F80CA10E
:106EB000BAF1000F00F0DA802A46D4F81031D4F885
:106EC00004114846D04794F82421FCE6102140469E
:106ED000FFF7C8FC0546002885D101217F20FFF778
:106EE000CDF8012881467FF47EAF28460221FFF7C6
:106EF000C5F8002800F01E8101287FF474AF162128
:106F00003A20FFF7BBF801308002C4F82801FFF7F0
:106F100097FDD4F860013BF035FB00210A20FFF714
:106F2000F1FB002840F0FF80032384F82431102176
:106F300005A8FFF797FC00287FF46AAF9DF8213081
:106F40009DF822109DF81C209DF815509DF8160004
:106F50001B01DBB243EA111303F5FA63A4F83A31DB
:106F6000DDF81D3001F00F0184F83C111BBA110946
:106F700002F00F0240EA052084F8381184F8392124
:106F80009DF814109DF81720C4F83431069BC4F8FE
:106F90003031A4F82C0184F82E1184F82F21FFF74A
:106FA0004FFD94F81A3173B9D4F860013BF0EAFA56
:106FB0004FF400711020FFF7A5FB0546FFF740FDD9
:106FC000002D7FF49CAE0C483CF070FA00220423A4
:106FD000A4F85C013046C4F8202184F8243114B0B0
:106FE000BDE8F087304684F8246114B0BDE8F0872E
:106FF000B8280020102A002040787D01042304AA2C
:107000008DF8340005A96E4807930692CDE90999D9
:10701000CDE90B99CDF814908DF82090CDF83890EB
:107020003CF0E2F866483CF043FB9DF81330AB2B94
:1070300004BF022384F81931A4E6D4F81431D4F83B
:107040009C2C64339342BFF4E3AEFFF7F9FCFFF7E7
:1070500063FDD4F80C514DB100221046D4F8103124
:10706000D4F80411A84794F824212CE694F824219C
:1070700029E684F8195185E6D4F8003194F808110E
:10708000024603EB012138464FF480733CF0F6FAD8
:1070900094F808310133DBB2A3F10205B5FA85F5A6
:1070A00084F808316D09D4E60190FFF7C9FCD4F8E3
:1070B0000C51019884F81801042384F82431002D20
:1070C0003FF43CAED4E94021D4F81031A8479FE604
:1070D000D4F860013BF056FA29463A20FFF712FB3C
:1070E00004A90422814601230691384605A9CDE969
:1070F0000955CDE90B5505958DF820500E95079251
:107100008DF834303CF070F838463CF0D1FAB9F1E3
:10711000000F08D1FFF794FC049B1BBAC3F38073E4
:1071200084F81A3155E6FFF78BFCFFF7F5FC94F86D
:107130002421C8E504212C20FEF7A0FF03210546E9
:107140004E20FEF79BFF0C2182463620FEF796FF6D
:107150000AF1020A431C03FA0AF309FA05F0A3FB39
:107160000001430A43EAC153C4F82831FFF768FC21
:10717000CFE60190FFF764FC01980423064684F8EB
:107180002431DBE5D4F80C51D4F89C3CC4F814311C
:10719000072284F82421002D3FF4CBAD484691E727
:1071A00008D0042384F82431FFF74AFC94F8242102
:1071B000531E30E6FFF718FB02287FF429AE12E6D3
:1071C000102A00204309012200F01F00013B86B075
:1071D00002FA00F0042B0CD8DFE803F0161F280396
:1071E0000D00174BDA6D0243DA65DA6D104001903D
:1071F000019B06B07047124B9A6C02439A649A6CDA
:1072000010400590059BF4E70D4BDA6C0243DA64FD
:10721000DA6C10400490049BEBE7094B1A6E0243B2
:107220001A661A6E10400390039BE2E7044B9A6DB6
:1072300002439A659A6D10400290029BD9E700BF05
:10724000001002402DE9F041324D95F8BF341BB9D2
:1072500000273846BDE8F08195F8BE1405F5A36017
:107260003CF0E2F807460028F2D095F8BF043BF066
:10727000D5F895F8BC34C5F820050133DBB210B160
:107280002422C37182710D213BF03AF9D5F8200513
:107290003BF07EF995F8C004E0B91F4AD2F89C3C57
:1072A000632BFBD91D481E4E1E4CDFF87C803CF042
:1072B000FDF8A5F81C0502E056F8044BF4B1404671
:1072C000A04703460028F7D0174885F8C4353CF09E
:1072D000F5F9BEE73BF0A2F895F8BC34C5F8900587
:1072E0000133DBB210B15822C37182710D213BF022
:1072F00007F9D5F890053BF04BF9CEE795F8BF04B8
:107300003BF06CFF95F8C0040028A1D03BF066FF6D
:1073100027469EE7B0390020B828002040420F00E1
:107320006492050819030508C83E0020164BDB6867
:10733000C3F3022310B4C3F107041A1D042C28BFA1
:107340000424062A4FF0FF3202FA04F28CBF033BFA
:10735000002321EA0201002801FA03F10ADB00F10F
:10736000604000F561400901C9B280F800135DF882
:10737000044B7047054B00F00F0009010344C9B2EC
:1073800019765DF8044B704700ED00E0FCEC00E07E
:10739000284B294AD3F8D430284910B5A2FB03233F
:1073A000274CDB0C82B00022013BC4F8BC1A04F667
:1073B000BC2041F28731C4F8C03AC4F8C81AC4F8F6
:1073C000CC2AC4F8C42A0DF027FD1E4B9A6D42F05A
:1073D00020029A659B6D03F020030193062137205C
:1073E000019BFFF7A3FF1849D4F8BC3A174A4FF4A2
:1073F00000004860D96841F00101D96099680A40ED
:10740000062A06D0B2F5803F03D01A6842F0010286
:107410001A600F4B0F49D3F8802C002003F5F87445
:10742000C2E98114C2F81002C3F8EC01C3F8E40108
:1074300002B010BD0000002083DE1B43001400409A
:10744000B03900200010024000E100E00700010018
:10745000B8280020AC440020F0B589B00D460446A1
:107460003BF0F2FA031E1CDB164A174E1A4406EBD9
:10747000830392F88070C3F8045220463BF00AFB65
:107480003E44A588114A2068002303A9CDE90533AD
:107490000793CDE903520EF011FC96F84432F02B1D
:1074A00001D809B0F0BD0A4B0321D8570190F02351
:1074B00086F84432FFF73AFF01980FF0B9FB09B0A4
:1074C000F0BD00BF00920508A84A0020000011107E
:1074D0008CF80508F0B5D0F800C0134CDCF8045067
:1074E00085B0254045EA01040A9F039344F0004417
:1074F00044F490341546CCF8044019463A46064602
:107500000EF030FB68B93168039B8D62024600972C
:10751000304640210EF056FB003818BF012005B060
:10752000F0BD012005B0F0BD009800FCF8B5144F87
:1075300004460D460AE09B69DB0602D50EF0D0FA40
:10754000D8B9D7F84C325B1B0A2B09D823689E693F
:10755000B6062A464FF00A012046ECD50020F8BDB9
:10756000636C202100220B43636484F8402084F87C
:10757000411084F842200120F8BD0120F8BD00BF71
:10758000A84A0020B0B10C49D1F85032102B03D1D9
:10759000052100203BF044B903EB43020A4482F882
:1075A0005402202082F855020120034482F856023A
:1075B000C1F85032704700BFA84A00208078E1E748
:1075C00000B583B00146012305480DF107023CF0E8
:1075D00037F908B19DF8070003B05DF804FB00BF60
:1075E000C83E00202DE9F04FDFF8BCB089B06C2216
:1075F00000210BF5217051F05FFC23490BF53C7025
:1076000040F24C4250F0F6FC9BF83C371BB19BF823
:107610003D378BF884329BF83E371BB19BF83F37E0
:107620008BF890329BF840371BB19BF841378BF8B1
:107630009C329BF842371BB19BF843378BF8A8323A
:107640009BF844371BB19BF845378BF8B4329BF855
:1076500046371BB19BF847378BF8C0320B4A0C4BAF
:107660000C491B88128809880B4DCBF858270B4C06
:107670000B4ECBF854179A1A00270A4B93FBF2F3E0
:10768000CBF85C3717E000BF90920508A875FF1F84
:10769000CA75FF1FAA75FF1F000021C300920508CD
:1076A0002C4D002080380100A84A00200137092F06
:1076B00006F10C0628D0062F00F04C81072F00F0B1
:1076C000708130780028F1D0BA4A00230133312B81
:1076D000ECD012F80C1F8842F8D103EB430CB649EA
:1076E00004EB8C0C00220868DC3128B19CF8DD0426
:1076F0001041C00700F10D830132052AF3D1013793
:10770000092F06F10C06D6D1AC4CDFF8DC82DFF88D
:10771000DCA2DFF8DC92AA4FAA4E002554F8083C00
:10772000002B00F0AF80D4F8D020002A00F0AA800F
:10773000DC2202FB05B22360D2F8541341F00201AF
:10774000C2F854139A6812F0040F9A6840F05C81F2
:10775000110700F15981DA6842F40012DA6020461C
:107760000FF074FA002800F0FB81236896495A68EC
:10777000DFF880C202EA08025A6040F2FF721A6023
:107780009A6822F0A0429A609A6842F000529A6089
:10779000DA6802EA0A02DA60DA6842F00042DA6085
:1077A0001A6902EA08021A615A6902F080425A61B3
:1077B0009A6902F078429A611A6A02F0F0221A621B
:1077C0005A6A02F0FF225A629A6A02F0FF229A6213
:1077D0001A6B02EA09021A635A6B3A405A639A6BAF
:1077E0003A409A63DA6B22F4FB6222F00702DA6312
:1077F0001A6E0A401A665A6E0A405A669A6E0A4013
:107800009A66DA6E1140D966D3F8A02002EA0C021B
:10781000C3F8A020D3F8A42002EA0C02C3F8A420E5
:10782000D3F8B02002EA0C02C3F8B020D3F8B42099
:10783000B3F1A04F22F07F12C3F8B420634A00F0E6
:107840005582934200F05D82614B6249624A9B68B7
:10785000896892680B431343DB0704D45F4B9A6833
:107860005F490A409A60DC2202FB05B20023C2F89D
:107870005833C4E91933C2F8543384F85830002817
:1078800040F096800135052D04F1DC047FF446AF0D
:107890004FF00009DFF860A14F465AF8743C23B15D
:1078A000DAF86430002B40F0D4800137052F0AF15C
:1078B000DC0AF2D10026404DDFF84081494F3446C2
:1078C0002B68002B00F0F581D5F8D820002A00F0B5
:1078D000F081A968B1F1A04F00F01182DFF8ECC08F
:1078E000384B3E48614518BF03469B68886840078F
:1078F0002FD495F8600001282BD003F01F0301203E
:10790000092B85F8600000F26C8340F22120D840FA
:10791000C00740F16683886810F0010040F04181A3
:10792000D1F808E0DFF8D8C01EEA0C0F00F01F8184
:10793000DC2303FB04B4D4F8543384F8500343F03D
:107940001003C4F85433D4F8583343F00103C4F897
:107950005833FEE700210A464FF4803CAE46DC2354
:1079600003FB02B23078D2F8C833717043EA0C03DB
:1079700001214FF0070CC6F804E0C2F8C83386F8BE
:107980000AC0717200283FF491AE3AF047FDFB1D2A
:10799000DBB210B100228371C27103213AF0B0FD55
:1079A00084E60021DFF85CE00A464FF4802CD6E73D
:1079B000FEE700BFDC960508984D0020A04D002092
:1079C000200882E00003005000F0FF030001005097
:1079D0000004005000050050000600500007005051
:1079E000E01000FEC0FFFF7F00F8FFFF04000080F2
:1079F000300882E00000F8FF0C4E0020FEF0FFFF90
:107A00003F000080000084CBDA68920105D5A18B8D
:107A100040F20112914200F0CE829A68520703D5DB
:107A20009A68900740F105849A68120703D59A680E
:107A3000910740F1B7820C21DBF84C0205E0DBF83E
:107A40004C22121A052A00F23D819A680A42F6D1A8
:107A500081E61AF8700CFFF7B5FBDAF864305AF8D3
:107A6000742C4AF86C2C99085A0801F0333102F052
:107A700077320A44D9089B1A01F011329B1A03EBA2
:107A8000131303F00F33FF22B3FBF2F2C2EB022217
:107A90009B1A00224AE919224AE910224FF40020D9
:107AA000DC214AF84C3C4AF8680C01234AF85C2C6B
:107AB0000AF8502C0AF8482C0AF82C2C059201FBE5
:107AC00007B108204FF480524AF8583C0AF84F3C5E
:107AD0000AF8343C4AF8540C4AF8302CD1F85433A4
:107AE000002B00F085825AF86C3C9A68940005D50A
:107AF0009A6822F0204222F03F029A609A68D000F1
:107B000016D49A6889498A48D1F8D410B1FBF0F1AB
:107B100022F0104222F03F0242F080529A6005911A
:107B2000059A2AB1059A013A0592059A002AF9D1D7
:107B30009A68D10040F1268200249A68520740F1E9
:107B40000981DC2303FB07B3D3F85433DC2303FBA5
:107B500007B3D3F8542342F01002C3F85423FEE7CE
:107B6000DC2303FB05B30122C3F85423FDE5886839
:107B7000384040F001008860DBF84CC20EE08868B5
:107B8000C00704D48868384040F001008860DBF802
:107B90004C02A0EB0C00022800F237840868C007F2
:107BA000EDD54FF0DC0C0CFB04BCDFF8A4E1DCF8F5
:107BB000540300EA080040F480707145CCF8540387
:107BC00000F01B825B48814200F01782DC2303FB3C
:107BD00004B3D3F8540320F48010C3F85403DC2317
:107BE00003FB04B34FEA920ED3F8540310F4805011
:107BF0001CBFD3F8580320F00600C3F85803E86D03
:107C00004D4BC3624D4B03634D4B43631C230B60D1
:107C1000D1F804C053080EF0333E03F077337344B9
:107C20004FF000094CF0100E4FEAD20C85F860902E
:107C3000D31AC1F804E00CF01132D1F80CE09B1A11
:107C400003EB13133F4A03F00F334EF0010E4FF0D6
:107C5000FF0CB3FBFCFCCCEB0C2CA3EB0C03C1F82E
:107C60000CE002EB460240310EF07AFEAA689368FF
:107C70003B4043F004039360002840F0C483D5F8F0
:107C8000D830314A5908980800F0333001F0773184
:107C90000144D8085B1A00F011315B1A03EB13138F
:107CA00003F00F33A2FB0312D209C2EB02229B1A8C
:107CB0001E440134052C05F1DC057FF401AE09B04A
:107CC000BDE8F08FDC2202FB05B20120D2F854138C
:107CD00041F01001C2F85413D2F858130143C2F80E
:107CE0005813DA6842F40012DA603EE59B68926845
:107CF0001343DB073FF5B7ADB2683346B0E5134B2E
:107D0000F3E54FF0A04292689B681343DA07F3D57E
:107D1000A9E50C2101FB03434FF0010C93F8E41497
:107D2000D3F8E0E40CFA01FC51B218E600000020A0
:107D3000400D030000050050C1F60008BDF6000824
:107D4000A9F60008C09101208180808000030050C6
:107D500000010050DC2202FB07B2D2F85413CD061A
:107D60003FF5F4AED2F8541321F4817141F00201D1
:107D7000C2F854139A68D6071AD4B3F1A04F00F092
:107D80006B82A04A934200F070829F489F4902F59F
:107D9000407292688068896802430A43D50707D415
:107DA0009B4882685AF8681C22F47C120A4382605D
:107DB0005AE919105AF8302C02430A431AF84F0CAA
:107DC0001AF8481C42EA4032012942EA014204D131
:107DD0005AF8441C013942EA41425AF8401C29B180
:107DE0005AF83C0C01F4787101430A43DD68894973
:107DF0005AF8380C29400A43DA601A6922F04062C6
:107E000002431A6199689A6801F0040102F00802BD
:107E10000A4327D1D9681AF8342C1AF8505C5AF85A
:107E20005C0C21F48041520021F0020142EA8532CB
:107E30000A43DA601A69002840F0C58222F48032D1
:107E40001A61D3F8C02022F47F5222F03F02C3F817
:107E5000C0201AF82C2C012A00F0C2821A6922F0E4
:107E600001021A615AF8582C012A00F085821A6B17
:107E700022F00F021A63DC2505FB07B505F55576E0
:107E8000D5F8543323F0030343F00103C5F854330A
:107E9000002C40F086811AF8143C0694012B00F067
:107EA0007F81AAF16C030393184601230AF8143C5E
:107EB0000EF0CCFE002840F06D81D5F854335649C1
:107EC00023F4885323F0020343F00203C5F854332C
:107ED0005AF86C2C936823F0404323F03F0343F09F
:107EE000004393609368002BC0F23082DC2202FBD7
:107EF00007B20021D2F85433DFF82CC123F003037A
:107F000043F00103C2F85433444B0AF8141C6C3399
:107F10000293A3F16C00012604E0029B0C30834223
:107F200000F04081437A002BF7D090F90130BB423A
:107F3000F3D13B4B80F8089003EB86021AF8143C0F
:107F4000D2F8285742684FF0000809F10101012BCF
:107F50000191CDF81C8006F1010612D05AF86C3C54
:107F6000996801240AF8144C4C075FD5DC2303FB05
:107F700007B3D3F8542383F8508342F02002C3F8A8
:107F80005423FEE7DC2202FB07B20124D2F854138B
:107F900041F01001C2F85413D2F858132143C2F82B
:107FA0005813CAE59A6822F0004222F03F0242F0DC
:107FB00020029A603FE51A68500607D4194A02E089
:107FC000013A3FF47FAE19684906F9D540221A609C
:107FD0009A68500703D59A68910740F134810421CB
:107FE0002AE5DC2303FB04B4002384F85033B0E417
:107FF000C1F858330AF8143C75E5002B7FF4EFAD57
:10800000E4E500BF000100500005005000060050EC
:10801000000700500740F0FF01DE04002C4D002057
:1080200000920508000040A3000300504FEA951895
:1080300008F00C0803F1300E05F01F0558F80E90FB
:108040001F24AC40C2F3846101FA05F529EA040457
:108050002C4348F80E409D689C6805F0040504F028
:1080600008042C4356D14FEAD25E03F114050EF0FA
:10807000040EC2F304595EF80580072404FA09F4DB
:1080800044EA08044EF805405C6924F000445C6151
:10809000DC681C6E1C6EC2F31205C4F38464002DF0
:1080A00000F03C8192FAA2F1B1FA81F18C4200F029
:1080B0002881596E596E03F16004C1F3846103F1A4
:1080C000640592FAA2FEBEFA8EFE8E4503D129689F
:1080D00021F000412960A168A16804F10805C1F3FD
:1080E000846192FAA2FEBEFA8EFE8E4503D1296803
:1080F00021F000412960E168E5680C34C5F384652E
:1081000092FAA2F1B1FA81F1A94203D1216821F0DA
:10811000004121609968C90707D4D3F8B010C2F3B1
:10812000120421EA0401C3F8B010C2490A422BD05C
:10813000B3F1A04F00F0E180BF49C04C8B4208BFB3
:1081400064462146BE4D8C68AA4204F0E07100F0FE
:10815000B080BC4DAA4200F0AC80BB4DAA4240F0BA
:108160008F80E50110D4B3F1A04F00F08780B24AB0
:10817000B24C934208BF64462246936823F0E073F2
:108180000B4343F0807393600023DDF804900AF8FA
:10819000143CC2E6336885F8504343F01003336063
:1081A000FEE7DCE4A94B3B44FDB293F913202946DA
:1081B00002203AF023FD4668044630463AF08AFE33
:1081C000A34A2421431E01FB0323864693F8801112
:1081D00000297FF474AD01354FF0060C83F881510E
:1081E00083F880C100283FF46AADA368CAF8043060
:1081F00080232022CAF810304FF480754FF480534A
:108200004FF48064CAE90723CAE90211CAE9055498
:10821000CAF800604BF028FB50460EF0FDFB5046BC
:108220000EF06EFC039B4AF818ACCAF82830FFF732
:108230003CBB9A6822F0004222F03F0242F010025A
:108240009A60FFF7F1BB9A6822F0004222F03F02E9
:1082500042F010029A60C2E677499A6889680A4338
:10826000D1073FF5A5AD7B489BE54FF0A042916853
:108270009A680A43D2073FF59BADF4E762467CE774
:10828000754DAA4280D164023FF57EAF6A4A93429F
:108290003FF47AAF02F5C062B3F1A04F08BF624667
:1082A0001346926822F0E0720A4342F480029A6018
:1082B0006AE724023FF568AFB3F1A04F1FD0674AC9
:1082C00093427FF461AF5D4CA368614A644DD2F87C
:1082D000D420B2FBF5F223F0E0730B430C2143F4FE
:1082E000000301FB02F2A360079202E0079B013B3F
:1082F0000793079B002BF9D146E7614622E76446C6
:10830000E2E7196E1C4621F0004144F8601F596EE7
:10831000596E03F16405C1F38461D2E6A14245D0F0
:108320005C6E5D6E03F16004C5F3846503F1640E59
:10833000A9422AD0A568A568C5F384658D4230D0CE
:10834000E568E5680C34C5F38465DDE6069B01331A
:108350000693069B8B427FF6C5ADDC2303FB07B378
:108360000021D3F8542383F8501322F0120242F074
:108370001002C3F8542313E7196B5AF84C2C21F060
:108380000F01013A0A431A6375E5DEF8005025F043
:108390000045CEF80050A568A568C5F38465A942DC
:1083A000CED1A56825F00045A560C9E71D6E1C4625
:1083B00025F0004544F8605F5D6E5D6E03F1640E6C
:1083C000C5F38465B4E742F480321A61D3F8C02063
:1083D00022F47F5222F03F020243C3F8C02038E566
:1083E0005AE90A211D695AF8200C25F4FF650A4351
:1083F00025F004055AF81C1C2A4302430A4342F0A4
:1084000001021A612EE5FFF7A4BADC2303FB04B4D2
:108410000022D4F8543384F8502343F01003C4F8F6
:108420005433D4F8583343F00103C4F85833FFF7FA
:1084300090BA00BF00000880000100500007005003
:10844000000021C31000C090000052C7E45100207A
:108450000000002000030050000084CB0006005004
:10846000400D0300F0B5D0F800C0134CDCF8045008
:1084700085B0254045EA01040A9F039344F0014476
:1084800044F490341546CCF8044019463A46064662
:108490000DF068FB68B93168039B8D620246009756
:1084A000304680210DF08EFB003818BF012005B04A
:1084B000F0BD012005B0F0BD009800FC0128B5EE2C
:1084C000C00A10D0F1EE10FA0BDD9FED177ADFED48
:1084D000177AE0EE077AFCEEE77A17EE903A98B258
:1084E000704700207047F1EE10FA0BDD9FED107A17
:1084F000DFED107AE0EE077AFCEEE77A17EE903ABD
:1085000098B27047EDD5F7EE007A30EE270A9FED6E
:108510000A7ADFED0A7AE0EE077AFCEEE77A17EEE8
:10852000903A98B2704700BF00E0F9440000404222
:1085300000C079440000834400C079C400E0824454
:1085400070B5464E96F8604704EB840306EB830350
:10855000A50093F86437032B6ED8DFE803F05929A0
:108560001E02254406EB8505D5F86807002870D162
:1085700096F8B4379C425FD0013404F00302934272
:1085800086F8602758D002EB820406EB84040223AD
:10859000C4F8680784F8643770BD2B1906EB8303B1
:1085A000D3F8682772B1013AC3F86827002070BD7C
:1085B0002B1906EB8303D3F86827002AF3D1022294
:1085C00083F86427254406EB850595F87037013B51
:1085D000DBB285F870378BBB214B96F8B467D3F8C4
:1085E000A413D5F86C07621C02F003024B1E03248F
:1085F000B242034485F86447B3FBF1F0C5F868075D
:108600001AD0994218D80138C5F86807012070BD02
:108610003BF02AFD80B1124B2C44D3F8A42306EB87
:108620008404012102F51C5384F864170F33B3FB53
:10863000F2F3C4F8683770BD012070BD084BD3F861
:10864000A423012002F2E733B3FBF2F3C5F8683745
:1086500070BD0138C5F86807002070BDA84A002029
:108660000000002038B590F83C30012B00F0AA80C3
:108670000D4602230121044680F83C1080F83D306D
:10868000142A1ED8DFE802F0241D1D1D3C1D1D1DEF
:10869000551D1D1D6D1D1D1D861D1D1D0B0000681A
:1086A00029460CF0BDF823682869196D41F4006172
:1086B0001965196D21F4806119651A6D42EA00226D
:1086C0001A650123002084F83D3084F83C0038BD51
:1086D000006829460CF00EFA23682869996941F070
:1086E00008019961996921F0040199619A6902432D
:1086F0009A610020012384F83D3084F83C00E6E7CD
:10870000006829460CF0A4F923682869996941F4A6
:1087100000619961996921F4806199619A6942EADD
:1087200000229A610020012384F83D3084F83C0047
:10873000CDE7006829460CF039F923682869D96922
:1087400041F00801D961D96921F00401D961DA69E0
:108750000243DA610020012384F83D3084F83C00B4
:10876000B5E7006829460CF0CFF823682869D96975
:1087700041F40061D961D96921F48061D961DA6974
:1087800042EA0022DA610020012384F83D3084F8B7
:108790003C009CE7006829460CF07CF823682869B7
:1087A000196D41F008011965196D21F00401196571
:1087B0001A6D02431A650020012384F83D3084F8C5
:1087C0003C0084E7022038BD03689B0AA3F58013B0
:1087D000542B00D970470D4A134493F844370B2BA0
:1087E000F8D830B50A4C427985B0002914BF00256D
:1087F000022504EB8310694600230124CDE90054CF
:10880000CDE902330CF0B8F905B030BD009205088F
:10881000605200200D4BD3F8D42010B55208044606
:108820004FF6FF714AF026F920460021FFF7CCFFF2
:108830000749084A41F2A8532046CA5001F5AD51F4
:10884000BDE810400022083149F0F8BF00000020C8
:10885000B8280020159F01080F4B104AD3F8D430D8
:10886000A2FB03239B09013BB3F1807F11D210B51A
:108870000B4A0C49536000240723F02081F82300A1
:1088800094600F214FF0FF301360FEF74FFD20463C
:1088900010BD0120704700BF00000020D34D6210C2
:1088A00010E000E000ED00E0F0B5324C324BD4F8BF
:1088B000102B12695168994283B054D0A3F57843C4
:1088C000994252D003F58063994250D003F580332A
:1088D000994214BF4FF0FF3103212848013100F1C4
:1088E000B4073AF0A1FDD4F8103B2548D3F88830FE
:1088F000C4F81C3B07F11003C4F8843BC4F8807B28
:108900003AF0D4FD00260546314601AA0223A7F11C
:10891000B400A4F8185BADF804603AF04FFE0520EF
:1089200039F042FB01AA3146A7F1B4000223ADF8A9
:1089300004603AF043FE054620B19DF805301E2B39
:1089400003D03546284603B0F0BD0E4A0E4BC4F89E
:10895000FC2A0121A7F1B40084F8E81BC4F8003B0D
:108960003AF0ACFEEEE70021B7E70121B5E70221BE
:10897000B3E700BFA84A002000300140BC550020EA
:10898000809698008DFD0408C1070508F8B5184FBA
:1089900097F8C435132B01D00020F8BD07F5A36567
:1089A000BC21144E28463AF099FD284601223C216C
:1089B0003AF010FED6F89C4CE4B201E0820708D4ED
:1089C000BC2128463AF08AFDD6F89C3CE31A312BAC
:1089D000F4D94307E0D408490848094A094BC1F8CB
:1089E000C800C7F80825C7F80C350120F8BD00BF3E
:1089F000B0390020B82800207C3E002000007A3DDD
:108A000045FE0408210A0508F0B5244B244E93F8CE
:108A1000C47483B0384639F001FD96F8FD4B054625
:108A200044B1D6F8004C241AB4FA84F46409204600
:108A300003B0F0BD38460122592139F08BF90746C1
:108A40000028F4D00123C6F8005C86F8FD3B15B180
:108A500040F25913EB807A7A0221284639F02EFD34
:108A6000386849F023FD0F4B0246A3FB0213C3F302
:108A70000E35013DACB2C3F3CF230094013B00247B
:108A80000194094839469BB22AF00AFA0124D6F823
:108A9000EC3B20461D6003B0F0BD00BFB0390020A4
:108AA000A84A0020D34D62109456002070B5214D85
:108AB000D5F8083C93F82620DAB11B699847E0B155
:108AC000D5F8083C93F824208AB105F60C4600241A
:108AD0001A19E0B29B6992F82C10B6EC010A98477B
:108AE000D5F8083C93F8242001349442F0DB5B690C
:108AF000984795F81C3C312B00D070BD95F81D3C73
:108B0000002BFAD0D5F8083C93F82430042B1E46ED
:108B1000A8BF0426002BF0D00024074D234618469A
:108B20004AF0F4F90134E3B29E4245F8040BF6D85A
:108B300070BD00BFA84A0020C856002003681878FE
:108B4000012801D000207047074A93F904306421BE
:108B500001FB032393F8992C202AF4D1D3F8583C35
:108B60009869C0F3C0307047A84A002010B50C4C7B
:108B7000D4F8D03D1B78022B10D1D4F8D80D39F0A1
:108B800007FDD4F8D80D08B12323C380012139F0A3
:108B9000B7FC04483AF08AFCA4F8D40D10BD00BF1D
:108BA000A84A002080969800054BD3F8D02D127863
:108BB000022A03D1D3F8D80D3AF0F0BA704700BFBB
:108BC000A84A002030B583B00D46012301460DF1BF
:108BD0000702044607483AF033FE9DF8072035EABD
:108BE000020304D003482A4321463BF0FDF803B0BA
:108BF00030BD00BF7858002038B505460A460C46FF
:108C0000064829463AF0E6FC45F0800103483AF070
:108C100065FC231A5842584138BD00BF78580020DF
:108C200070B50D4CD4F8D05D2E78022E134607D0C7
:108C30000A46014604F55D60BDE870403AF000BEAA
:108C40002A6A0AB1002070BD0A46014604F55D603B
:108C50003AF090FC012070BDA84A002003681B7800
:108C6000022B4FF0010201D03BF016B83AF0DABC0B
:108C700013B53B4C0023D4F8882E8DF807301378B9
:108C800003F0FD01012905D194F88C1E11B90C21C6
:108C900084F88C1E022B1ED0032B2ED001220B2118
:108CA000304848F0C1FE042039F07EF92D480123F8
:108CB0000DF10702002148F0D9FE00283AD09DF8B6
:108CC0000730482B36D1284BC4F87C3E274BC4F8DC
:108CD000803E02B010BDD4F8900E39F059FCD4F8A3
:108CE000900E08B13423C380012139F009FC2048DB
:108CF0003AF0DCFBA4F88C0ED0E741F21833506850
:108D0000E35846F2A8111961002380F86830122256
:108D1000372148F05DFED4F8883E0D2258682421A2
:108D200048F056FED4F8883E302258686A2148F050
:108D30004FFEB3E7D4F8883E1A78022A03D0032AFC
:108D400007D00020C5E7D4F8900E3AF027FA0020AB
:108D5000BFE758681022372148F03AFEF1E700BF1C
:108D6000A84A002030590020CB1A05084D1B0508E1
:108D70008096980010B58CB000234CF20502044692
:108D800001A9CDE90633CDE90833ADF800208DF80F
:108D9000023003220B930123CDE903128DF8143026
:108DA0008DF82830CDF808D03AF082FC204602A990
:108DB0003AF01AFA20463AF07BFC9DF806000CB017
:108DC00010BD00BF2DE9F041614C82B0242204F5B2
:108DD0008460002150F070F894F849740023C4F8BE
:108DE0004434002F3CD15B4ED6F8043D63B39B6AFC
:108DF00053B359489847836833B303885748013BB6
:108E00009BB28446064600253178032906F1060602
:108E10001ED00135062DF7D100220178022900F17C
:108E2000060000F08E800132062AF6D1D4F84414F0
:108E3000052909D0481C02FB01C2C4F844040220E1
:108E40000021938010705180384602B0BDE8F08157
:108E5000062303FB0545B5F82234013B9BB2DBE753
:108E600094F8480404F58A63C4F84C3410B9394EB8
:108E70000027B9E739F0D2FAC4F8580418B1837959
:108E800013F0BF0FF3D1364839463AF0CDFA804699
:108E90000028ECD0D4F84C342F4A98685A6708B1AF
:108EA0002223C3800D2139F02BFBD4F84C34294EFA
:108EB000986839F06DFB2B48D4F84C543AF0F6FA28
:108EC0000123A8803220C6F8245D86F8283D39F0B9
:108ED0006BF80423D4F84C0400250DEB03029F210A
:108EE00001953AF047FB9DF805509DF804309DF838
:108EF00006102D0245EA03450D43294606F60450A7
:108F000048F0BCFC08BB2846FDF7DEFCE8B99DF83C
:108F100006509DF805209DF807302D0245EA0245D0
:108F20001D43294606F6045045F0E4F868B9284682
:108F3000FDF7CAFC074640B994F848043AF04EF9E8
:108F400052E7062101FB02C279E747464CE700BF22
:108F5000A05B0020B8280020BC350020C05F0020A6
:108F6000F05F0020404B4C00114BD3F8981C91F857
:108F7000280201281AD00A68B2F858306FEA434331
:108F80006FEA53439BB210B4A2F85830B2F84030A5
:108F90009BB243F43F43002443F08003A2F84030E7
:108FA00081F8284220465DF8044B7047704700BFA7
:108FB000B8280020F0B5744C744E94F8F156744BF8
:108FC000C4F8C83406F51F62022104F59967082029
:108FD000C4F83827002289B0C6F8987CC4F8CC04BD
:108FE000C4F8D014C4F8D814C4F8DC24C4F8E024BD
:108FF000C4F8E424C4F8E824002D73D0032184F8D5
:10900000F116B3F8405044F27F0129401646A3F808
:109010004010002215464FF0010C04EB4211971C42
:1090200081F8F024A1F8FE24013204EB4717D2B2F4
:10903000904281F8F1C481F8F354C1F80055C1F8A9
:109040000455C7F8C854E8D80022154604EB42116D
:1090500002F10A0781F8F025013204EB4717D2B27A
:10906000904281F8F15581F8F355C1F80056C1F8E6
:109070000456C7F8C854E9D800210120A3F84000DD
:10908000A3F84010A3F84410A3F85010B3F8402000
:1090900092B242F43F4242F080028642A3F840205E
:1090A00084F8EC1484F8F1065BD0142300205425D6
:1090B0009421D422A4F8F6354FF48A7384F8FC0581
:1090C00084F8FC0484F81C0584F81C0684F83C052C
:1090D000A4F8F654A4F81615A4F81626A4F8363504
:1090E00009B0F0BD05F0FF062A4D0796EB6C84F839
:1090F000F06643F00103EB64EB6C049103F00103B1
:10910000029303274FF4C05303A94FF09040029AF3
:109110000596039306970CF0D1FDAB6D43F4000365
:10912000AB65AB6D03F40003019306211420019B92
:10913000FEF7FCF8184AD4F8C834D4F8CC044FF43D
:109140008011116084F8F176B3F84010D4F8E4642B
:1091500044F27F020A40A3F8402000287FF459AF70
:109160008AE784F82817B3F85420C4F8306792B21D
:1091700042F00102A3F85420B3F8542092B242F016
:109180000202A3F8542090E7A05B0020B82800203A
:10919000005C00400010024000E100E010B5194CF6
:1091A00094F83D0790B9184B83F85101C3F8540166
:1091B00094F84037012B20D0D4F844370BB313492F
:1091C0005B68BDE81040A1F10C00184739F026F9A2
:1091D00094F83F270C49003A18BF012281F8512129
:1091E000C1F854010028E3D02122C280202139F0A7
:1091F00087F994F84037012BDED1054BC4F844378A
:10920000DDE710BDA05B0020B8280020E862002048
:10921000A803002099B10A6B824216D9154BD3F8E6
:109220008C27914221D35C3991421ED30B6B98421B
:10923000F9D38B6B9842F6D80B46184670470D4B06
:10924000D3F88C170A6B904212D30B680BB9F4E772
:109250000A6B90420B4602D38A6B9042EDD951F8CB
:109260005C3F002BF4D11846704700231846704726
:109270000A46D8E7A05B00202DE9F047CC0143D196
:109280000346224A43F8082B4FF0FF324260022483
:1092900018467E26DFF87880D8F890972644013E5D
:1092A000051D49466FF070474FF0010A08E0A342E0
:1092B0001CD0631C45F8043C321B1C460435CAB163
:1092C0000B6BA34202D88B6BA34204D22046FFF75C
:1092D000A1FF014690B10A794B6B002AE7D1A34266
:1092E00004D0E6D245F8042C631CE5E745F8047C7D
:1092F000631CE1E7C8F89017BDE8F08745F804ACB7
:10930000321B631C4946D8E78026C3E7F8FFFF0FEE
:10931000A05B00200E4A10B50E4CC2F8AC470E4CB4
:10932000C2F8A44700230D4CC2F89807A2F89C1776
:10933000C2F8A037A2F89E37C2F8A84782F8B03723
:10934000282202FB03F4035301339942F9D110BDE3
:10935000A05B002040420F0020A10700A01CE9FFF5
:109360002DE9F043404C2DED028B012284F88C272F
:109370003E4A92F8B437B2F8CC17B4F8CC2407EED2
:10938000103AB8EEC77AF2EE047AC7EE276A04F212
:10939000CC4500264A43642083B0B2FBF0F2C4F807
:1093A0008467C4F8882704F23C684FF0000907EE90
:1093B000101AC5EDAD6AB8EEC77ADFED2D6A86EEFC
:1093C000878AF0EE678AB4F8CC3400EE903A002237
:1093D000F8EE600AB3EE090A0821404642F072F93D
:1093E000B4F8CC3400EE903A38EE080AF8EE600A91
:1093F0000022052108F1900042F064F9B4F8CC7421
:10940000C5F8909228EE280A07EE907AB5EEC00AC9
:10941000F1EE10FAF8EE670A07DD37B1CDED010A7B
:1094200042F086F8DDED010A01E0B7EE000AB5EE84
:10943000C08AF1EE10FA85EDA50A05DD27B1B0EE80
:10944000480A42F075F801E0B7EE000A0136032E33
:1094500085EDA60A08F1300805F10C05B3D103B07B
:10946000BDEC028BBDE8F083B0390020A05B00208A
:10947000000048432DE9F04FAB4AAC4CB2F8D01491
:10948000B2F8CE342DED088B07EE901A0AEE103AA2
:1094900094F8A93B9FEDA6BADFEDA6AAF8EE679A6D
:1094A00007EE903AB4F8AA3BF8EEE77AF2EE046AD7
:1094B0000A2B87EEA67AB8BF0A239246002285B00F
:1094C00004F2D477C4F8E42704F6B43B04F6DC369F
:1094D00007EE903AB4F8AC3B87ED007A08EE103A0C
:1094E000F8EEE78AB8EEC88AB6EE009AF4EE488A3B
:1094F00029EE890AF1EE10FAC8BFB0EE688A94F836
:10950000A83BC7ED018AB4EEC80AF1EE10FAD8BF45
:10951000B0EE408A082BA8BF0823B1F57A7F38BF88
:10952000134680EE080AC4F8E03787ED028A4DF052
:1095300007F9B7EE007AB4EE470AF1EE10FA48BF29
:10954000B0EE470AFDEEC07AB8EE4AAAF8EEE76A36
:1095500017EE905ACAEE297A04F6B833C4F8B05B15
:109560009FED75AA67EEA67A87EE276A89EEA67A3E
:10957000DFED727A8BED006AC7EE279A0BF2247B3F
:1095800088EEA90AC3ED009A4DF05AF90228B8BF37
:10959000022088EE290A8046C4F8BC0B4DF050F931
:1095A0002328A8BF2320B8F1230FA8BF4FF023081A
:1095B0004045C4F8C00BB8BF404604F6C433A0EB26
:1095C0000801D3ED007A01938146012D01F10103D9
:1095D000DFED5B8A5B480093B8BF0125F5EE407A6A
:1095E000F1EE10FA2BD1584A02960023CDF80CB0B8
:1095F0001646AB461D4607EE905AF8EEE79A01353F
:1096000069EE8B9A0836B0EE690A4DF051F8B0EE6B
:10961000408AB0EE690A4DF0E5F9A0EE288A242DC3
:10962000484828EE0A8A20EE0A0A06ED028A06ED6C
:10963000010AE0D15D46DDE9026BF0EE6A7A0023B3
:1096400046E90538009A46F80C9C92FBF5F246F87C
:10965000045C46F8082C32460133482BE2EC018AC0
:10966000FAD13A49D0F800C0096806F59073002293
:109670000132242AC3F800C0596003F10803F7D16E
:1096800006F515765E45A9D1019BDFF8C8909FEDE0
:10969000308AC3ED007A0026B819CB464FF0000897
:1096A000D4F8E037984500F1240531DA07EE908AC6
:1096B00097ED016AF8EEE76AD7ED027A36EE897A1D
:1096C00077EEC67A743067EE877A07EE103AB8EE16
:1096D000C77ABAF8CE3487EE870A042108F1010868
:1096E00000EE903A30EE060AF8EE600AABEC010AA2
:1096F00097ED001AC5ED178AA6EE881AC5ED168AF1
:10970000C5ED158AC5ED148A42F088F82846C7E7EA
:1097100006F59076B6F5587F09F12009BCD105B061
:10972000BDEC088BBDE8F08FB0390020A05B0020B5
:10973000C3B8B23DBC297E3F72F97F3F0000904222
:10974000000000009C990508646E0020A09905089F
:10975000CDCC4C3E886300202DE9F04F2DED028BDF
:10976000DFF8BC81DFF8BC91DFED688A9FED688A85
:1097700085B008F138040127FEB218F8010B324613
:10978000572138F0E7FA0546002800F0A38000686A
:10979000A5600123B0F1804F04F8303C04D05D4B4C
:1097A000C31AB3FA83F35B0904F82F3C48F07EFE3A
:1097B00014F82F3CDFF870A107EE900A002B14BFBD
:1097C00001224FF48072F8EE677A286844F8102C72
:1097D00000234FF4005244E9062344ED0A7A44F88A
:1097E000083C48F063FE9AF8F23244ED088A07EE2E
:1097F000903AA9FB0030F8EE677AC308012218F806
:10980000010C44F80C3C04ED0B8A44ED097A24F871
:109810001C2C24F81A2C38F001FEE06010B15723FC
:10982000C67183719AF8F032012B6CD0022B0CBFF9
:10983000422102216A7A38F041FE286848F036FE5B
:1098400000210246284649F015F914F82F3C002B58
:109850004BD02146304B41F8043D0022284648F0C9
:10986000EDFF286849F060F98346A0B1012300228A
:1098700001930423CDE902239AF8F112914214BF17
:109880001346022369466A7900930BF075F96979EA
:1098900058460BF03FFAA26854F8103C12689AF848
:1098A000F403013E591EF6B29162012300214FF0EC
:1098B000FF3C4FF40055B042C2F82CC0536144E95C
:1098C000065124F81C3C24F81A3C44F8081C01D129
:1098D00038F098F80137052F04F140047FF44CAFBD
:1098E00005B0BDEC028BBDE8F08F0C48DFF83CC042
:1098F00044F8040C63602246211F2846C4F800C0C7
:1099000048F09CFFADE7222194E700BF00401C46D1
:1099100000000000000C0040CD020408F50304081C
:10992000846F00201F85EB51986C0020291A0408D1
:109930000C480D4BD0F8101410B40C4CC0F8003487
:109940008A1E2231B0F81C341B01A4FB03C3DB08C0
:10995000A3F5B06322F8023F9142F3D15DF8044BC6
:10996000704700BF986C002059020208CDCCCCCCC7
:10997000F0B5274C85B004F22C430546C4F81034EA
:10998000FFF7D6FF234A244BC4F804241A214020B1
:1099900084F8FA13C4F8083433F0B4FD002835D045
:1099A00094F8693494F86A7494F86B6490F904003C
:1099B0001A4A002D14BF4FF4E1314FF4E121002B7E
:1099C00014BF02230023002F14BF30250025002ED2
:1099D00018BF43F001032B430325CDE90153009148
:1099E0000023402133F0EFFDC4F8800448B10C4857
:1099F0000EF0E4FB94F8853484F884040BB984F801
:109A00008554D4F88004003818BF012005B0F0BD9B
:109A1000986C0020614E0208A51A02082510020861
:109A2000AD1B020870B5084C251D2E4614F8010B1D
:109A30002AF022FC28B1037905F8013BB442F5D1A4
:109A400070BDFF23F8E700BF207100202DE9F0472B
:109A50001D4F012607F10805B2464FF03B094FF0B4
:109A6000000817F8010B38F0D9FC044690B180F8D3
:109A70000690C671FB7803F07F02012A18D013F01C
:109A8000800F20460DD185F8048038F07BFD85F8E5
:109A900005802C600136052E05F10805E1D1BDE8F1
:109AA000F08785F804A038F073FD85F805A0F0E78D
:109AB0001B0605D40121204638F022FDFB78DEE7A5
:109AC00038F066FDF6E700BF287100202DE9F0416F
:109AD000B34CDFEDB47AB4F89638DFEDB31A9FEDEE
:109AE000B32A2DED088B09EE103AB4F89838DFED63
:109AF000B0AADFEDB0BA9FEDB0BA9FEDB0AADFED2E
:109B0000B09A08EE903AB4F89A3808EE103AB4F8E1
:109B1000783800EE103AB4F87A3800EE903AB4F89B
:109B20007C3801EE103AB4F87E3807EE103AB4F8FB
:109B3000803802EE903AB4F8823803EE103AB4F866
:109B4000843803EE903AB4F8863804EE103AB4F84C
:109B5000883804EE903AB4F88A3805EE103AB4F832
:109B60008C3805EE903AB4F88E3806EE103AB8EE1E
:109B7000C99AF8EEE88AB8EEC88AB8EEC00AF8EEDC
:109B8000E00AB8EEC11AB8EEC77AF8EEE22AB8EEEB
:109B9000C33AF8EEE33AB8EEC44AF8EEE44AB8EE57
:109BA000C55AF8EEE55AB8EEC66AB4F8903828EE11
:109BB0002A8A21EE271A27EE217A62EEA72A25EEBD
:109BC000275A65EE8A5A26EE296A29EE2A9A68EE05
:109BD000AA8A20EE2B0A60EE8B0A23EE2B3A63EE64
:109BE0008B3A24EE024A64EEA14A06EE903A04F55E
:109BF000976204F2BC6383ED268A83ED037AC3ED9A
:109C00000A5A83ED249AC3ED258A83ED000AC3ED39
:109C1000010A83ED021AC3ED042A83ED053AC3ED70
:109C2000063A83ED074AC3ED084A83ED095A83EDEE
:109C30000B6A92ED018AB4F8922807EE102AB4F864
:109C4000942807EE902A94F8A528F8EEE66A05EE27
:109C5000902A94F8A62866EE826A06EE102A94F8F6
:109C6000A728C3ED0C6AB8EEC77A06EE902AF8EE84
:109C7000E77A27EE217A67EE827AF8EE655AB8EE37
:109C8000466AF8EE666A94F89C2883ED0D7AC3ED77
:109C90000E7AC3ED2A5A83ED2B6AC3ED2C6A002A93
:109CA0007BD007EE902AF8EEE77AF2EE046A86EEB1
:109CB000A77A94F89D2883ED287A002A6AD007EEC7
:109CC000902AF8EEE77A3F4DC3ED297AA5F1900787
:109CD000A5F596764FF0000856F8043C304608F19A
:109CE00001083036F0EE480A2BB1AA7900EE102AAE
:109CF000B8EE400A984715F8013B00EE103A384696
:109D0000B8EE400AF0EE480A41F0E6FDAB7800EE0E
:109D1000103A07F13000B8EE400AF0EE480A41F080
:109D2000DBFDB8F1030F07F11007D5D194F89E3889
:109D300084F858373BB3244C6FF4A173A4F19F0609
:109D4000A4F5A37504EB0308E278642A13462746BA
:109D5000A8BF6423DAB107EE903AB8EE670A30463E
:109D6000F0EE480A41F022FC3B78FA2BA8BFFA2318
:109D70000A2BB8BF0A2305F8013BA84504F10104EA
:109D800006F10806E0D1BDEC088BBDE8F081B7EE26
:109D9000000AE4E7DFED0D7A95E79FED0D7A88E79D
:109DA000986C002095BFD63317B7D137BD378635AD
:109DB0000AD7233C2CB2DF3617B7513964CF8B3822
:109DC0006F12033A4075002037750020000061458E
:109DD000000000002DE9F0472A4C2DED028B04F520
:109DE0001070542200214FF067F894ED018A04F5B9
:109DF0007C7504F52E7804F5587604F5527704F254
:109E0000F339AB7900EE103A012211464046B8EE24
:109E1000400AF0EE480A41F055FC2B7800EE103A6B
:109E200001353046B8EE400AF0EE480A41F066FDD2
:109E3000AB7800EE103A06F13000B8EE400AF0EED2
:109E4000480A41F05BFD3846F0EE480AB7EE000ADA
:109E500041F094FBA94508F1300806F1100607F11E
:109E60000807CED1D4ED017AF5EEC07AF1EE10FA02
:109E700004D9BDEC028BBDE8F04727E6BDEC028BB0
:109E8000BDE8F08750710020314BB3F8CE3407EEB7
:109E9000103A2DE9F041BAEEEF7A2DED048BB4EED5
:109EA000C70AF1EE10FADFED2B8AB0EE408AF0EE31
:109EB000607AF0EE419A06DDF4EEC70AF1EE10FA90
:109EC0003DD5B0EE478AB5EEC08AF1EE10FA3BDD23
:109ED000F5EEC07AF1EE10FA36DDF4EEC87AF1EE66
:109EE00010FA31D527EE887A67EEE77AE8EE087A3D
:109EF00087EE279ADFF86880174F184E00F10C04A0
:109F000000F19C0544F80C8C44E9026720460421CA
:109F1000303444ED098A44ED0A8A44ED0B8A44ED5D
:109F20000C8AB0EE491AF0EE690AB0EE480A41F028
:109F300075FCAC42E6D1BDEC048BBDE8F081B0EE1F
:109F4000688AB0EE689AD5E79FED029AD2E700BF23
:109F5000B039002000000000656B0408B96B0408EC
:109F6000016C04080A44914215D030B441F2210535
:109F700011F8014B082380EA042010F4004F85EA11
:109F800040040ABF4000A0B280B2013BF5D18A4232
:109F9000EED130BC704770471249134AD1F84C02D9
:109FA00005E0D1F84C321B1AB3F57A7F0FD813694C
:109FB000DB03F6D413694CF2FA310B4009D1106976
:109FC00010F0010004D001211846116170470320F0
:109FD00070470648D0F8D0131943C0F8D0130120B9
:109FE00013617047A84A00200020024000000020B2
:109FF00070B5254C254DD4F8B418D4F8B828D4F849
:10A00000BC3841EA02000126184384B085F8EC63AD
:10A0100024D009B21BB212B206EE901A07EE903AA3
:10A0200007EE102A9FED1A6AF8EEE66AB8EEC77AD4
:10A03000F8EEE77A66EE866A27EE067A67EE867AAB
:10A04000002304F6EC0101A8CDED016A8DED027A42
:10A05000CDED037A85F8EC3341F022F8D4F8C0381E
:10A06000012285F8ED234BB10A490023A1F1080034
:10A0700085F8ED3341F072F804B070BDB4F9C4381E
:10A08000002BF1D104B070BD986C002000000020BE
:10A0900035FA8E3C607500202DE9F041204D95F891
:10A0A000173985F8103905F6141705F61816002427
:10A0B0004FF0050817F8010B20BB30600134032C6A
:10A0C00006F10406F6D195F81019D5F81809C94318
:10A0D00001F0010138F0DCFA95F81019D5F81C09E7
:10A0E00081F00201C1F3400138F0D2FA95F810195D
:10A0F000D5F8200981F00401BDE8F041C1F38001E9
:10A1000038F0C6BA38F08AF9013401213060E3B280
:10A1100010B180F80680C371306838F0F1F9CEE7ED
:10A12000986C0020F0B5284CB4F82859A4F82A59A6
:10A1300083B0EDB994F8240938F070F994F8252922
:10A14000C4F82C09003A18BF012284F8302948B11C
:10A1500094F826192C22002914BF11210121C28054
:10A1600038F0CEF9002003B0BDE8F04038F098BADE
:10A1700094F82479002238462C2137F0EBFD06466E
:10A18000384638F04BF9E8B1E6B12C22C4F848095A
:10A19000C280727A022138F091F900270B4AB2FB93
:10A1A000F5F3C3F34F0000909BB23146019704F6DC
:10A1B0003410A4F8505928F073FED4F834391F60D5
:10A1C00084F8457903B0F0BD986C002040420F0040
:10A1D0002DE9F84F254C94F85C3984F8523904F68F
:10A1E0005317002604F517645FFA86FB0BF101088C
:10A1F0005FFA88F8012117F8010F42460E448A469B
:10A2000037F0A8FD4FF00009054648B3387804F848
:10A210000E9C04F80D9C04F80FBC04F810AC44F834
:10A22000045C38F0FBF8022118B180F806A080F831
:10A2300007806A7A38F042F90D4A0021284648F032
:10A2400019FC0C4B23600C4B221D21462846C4E907
:10A25000013948F0F3FA697928684A4628F0D4FDB4
:10A26000082E04F11C04BFD1BDE8F88F986C0020C3
:10A2700040420F00492E0308C910030870B52D4C49
:10A280002D4B94F8880AC4F8803A00220221C4F8C1
:10A29000402AC4F8442AC4F8482AC4F87C2AA4F8FE
:10A2A000842A37F057FD002837D00668054604F6A3
:10A2B0008C2304F6FC215A7C12B15A6896422DD0A8
:10A2C0001C338B42F7D1002394F8880AC4F86C59E8
:10A2D00084F8603938F0A2F808B10223C3806A7AA2
:10A2E000022138F0EBF82846144A002148F0C2FB5E
:10A2F000134A1449C4F870190026111F2846124B3E
:10A30000C4F87439C4F8786948F098FA697928680B
:10A310003246BDE8704028F077BD70BD304648F049
:10A32000C5F8B36A094A0133B0FBF3F082F8EE03D3
:10A33000C9E700BF986C002000FFFF0040420F00FB
:10A340000C760020F11003088D1203080000002095
:10A350002DE9F04FDFF838822DED068B98F88E4B03
:10A36000A1B0032C0490A4F1050300F29780794971
:10A370000122032B81F8D82900F2BF8098F8973B7F
:10A3800088F8BC2B012B00F0B081022B00F0AA81D1
:10A39000714B724E0B931D460FCE0FC50FCE0FC5DE
:10A3A00098F8967B33686E492B603B1E18BF0123DB
:10A3B0006C4A0391072C81F81D3CC8F83C2B00F235
:10A3C000A682042C0ED998F8953B674AC8F8C42B8E
:10A3D000012B05D0022B06BFB7FA87F35B090023D8
:10A3E00088F8C83B614B0593DFF8A8B103F20D1361
:10A3F00006934FF0000A049B534540F36E845FFAC6
:10A400008AF309935D1C069B13F8016B0693EDB26A
:10A410002A463046032137F09DFC0446002835D0FB
:10A42000304637F0FBFF059B586110B10323C5711F
:10A43000837198F88E3B07932046277A38F0BEFB4D
:10A4400098F8C83B0646002800F0BD820893002B10
:10A4500040F0BC82D0F80490B9F1000F16D0484605
:10A4600038F038FD424A0A90431E242101FB0323A1
:10A4700093F8802152B90322B16883F8815183F89F
:10A4800080210A9B0C91002B40F0C782394B3A4A3D
:10A49000C8F8403BC8F8442B00237DE1DAB2042A17
:10A4A0007FF665AF2B490022032B81F8D8293FD8CE
:10A4B000012388F8BC3B2A4B0393039BD3F8083C49
:10A4C000002B3AD0049883F824000121002283F85D
:10A4D000251083F826209A62014648B12C3319448E
:10A4E000264A084612F8011B03F8011B9842F9D1CD
:10A4F00021B0BDEC068BBDE8F08F214E214D98F8C0
:10A50000947B0FCE0FC50FCE0FC533682B60002391
:10A5100088F8BC3B092C41D8DFE814F04201400028
:10A52000F703F203400040004000400040004201B9
:10A530000B4B88F8BC2B0393BFE7134D134C0FCD87
:10A540000FC40FCD0FC42B6844F82039039BC3F808
:10A55000084CCDE7907D0020C4770020849A050840
:10A56000A84A00209D2C0508B5FE0308247700208A
:10A570000000002021FE03081DFE030828780020AB
:10A58000CC9A0508F4770020609A0508848300209F
:10A59000986C0020247E00206F1203395FED028A40
:10A5A000F0EE689ABA4ABB49BB4BC8F8741B002F3F
:10A5B000BA49C8F86C1B16BF134600220122069246
:10A5C00039EEA87AF5EE006A86EE87AAC8F8703BE5
:10A5D000B34B6FF4867203F20D1305939C184FF082
:10A5E0000009DFEDB07A9FEDB09A68EEA78A049B70
:10A5F0004B4570DD059B09F1010B13F8017B0593B9
:10A600005FFA8BF632463846032137F0A3FB054646
:10A61000002800F03085384637F000FF606110B147
:10A620000323C6718371A5616A7A022137F046FF60
:10A63000069B002B00F0EF80B8F88C3B286807EEF3
:10A64000903AF8EEE77AFCEEE77A17EE907A47F068
:10A650002DFFB0FBF7F303F57F43FF331B0CB0FB7B
:10A66000F3F30393B3FBF7F3DDED037A98F88E2B46
:10A67000F8EE677A092A67EEA86A29EE667AC4EDD1
:10A68000026AA7EEA97A84ED037A00F0DB8000204D
:10A69000CDE90000039A9BB22946204628F000FC31
:10A6A000B9F1000F00F0B28061687D4B02E09C427E
:10A6B00000F0AC805A688A4203F11C03F7D10123F1
:10A6C00083F001030122BBF1040F23746274D946A5
:10A6D00004F11C048BD1DFF8F4B1744B0393C3F87D
:10A6E00008BCEAE6082C00F01583714A714E6F4BE6
:10A6F00082F8244603930FCE6F4D98F896CB6B4C9F
:10A70000DFF8CC910FC50FCE0FC500212F46326860
:10A7100047F89029BCEB0103049E6848C8F8C06B59
:10A7200018BF01234FF44C7284F81D3C88F8BE1BFF
:10A730000E464EF0C1FB7D35D8F8C03BB34263DD19
:10A7400015F8014B204637F08FFB8246204637F044
:10A7500065FE9AF808B0039B0BF0010A93F81D3CC4
:10A760000AF1010A044688F8BDAB0BB18BF0010B6E
:10A77000002C00F0B482A37913F0BF0F1ED0504B11
:10A780004649434AC8F8143B012388F8BE3BC8F841
:10A790000C1BC8F8102B0023039AC2F8083C8CE667
:10A7A0003E4BDFED408A3B4AC8F86C3B01230693E1
:10A7B000C8F8742B364BF0EE689A01E7204638F063
:10A7C00043F94FEA4A1A01364AF001014FF00303F8
:10A7D000C9F81410C9F80400C9F80C4089F810B081
:10A7E000E671A371204637F08BFE1BF0010F204667
:10A7F0000ED037F0C7FED9F80C307B61042E09F17A
:10A80000200907F11C0797D12B4BC5E7002357E719
:10A8100037F0BEFEEFE7B0EE4A0A4BF003FF2868C0
:10A82000B0EE408A47F042FEFCEEC87A4FF6FF7366
:10A8300017EE902AB0FBF2F21A44120CB0FBF2F2BF
:10A84000039211E701210022CDE900219BB2039A76
:10A850002946204628F024FB2B68184608EE103ABB
:10A860001E4648F061F9079000283FF419AF104ADE
:10A87000D2F87035002B7FF413AF304648F068F9FA
:10A88000104F09950C26824608940F4D24E000BF16
:10A8900021FE0308E91E0308D512030825FE03085C
:10A8A000247700206F12833A00007A44A84A0020DF
:10A8B000907D0020A89A050894770020B883002096
:10A8C0001DFE03088383002044830020F4770020CA
:10A8D000E8860020AF4221D06B78287819460335EE
:10A8E0000028F7D0002BF5D037F0E0F80446002818
:10A8F000F0D0006848F02CF98245EBD16379B3427F
:10A90000E8D1043E16F0FF06BFD1089CC8E6082C2B
:10A910007FF468AD474BC8F8C43B63E5B246464E8A
:10A92000089C099DC6F870456B792268980818EE56
:10A93000107A86F8B005079812680068C6F87C257A
:10A94000343706F27C513E461F445346F3183A4EC4
:10A950002160C6F86C75039EC16A1292192707FB25
:10A9600006F7079E354A96F83CC0334EB7FBF2F225
:10A97000891A4FF480770022C6F86835C6F8741536
:10A9800002234FF40071BCF1010FCDE914221192A2
:10A9900016971393179100F0E9810799012281F826
:10A9A0003D30AAF1040381F83C20082B00F2D78146
:10A9B000DFE813F08402D501D501D5018002D5016D
:10A9C000D501D501D201002B3FF460ADD4F814902D
:10A9D000B9F1000F3FF45AAD484638F07BFAA2694E
:10A9E000174B0C92451E242202FB05350A9095F860
:10A9F0008061382E00F0A581206848F0A9F8C0B227
:10AA0000002E7FF443AD382385F880310A9B85F80A
:10AA10008101002B3FF43AAD089698F8C96B256880
:10AA20000848CBF82891002E00F0548200220346FB
:10AA30000EE000BF85FE0308907D002040420F001D
:10AA400000000020647800200132B24200F042820F
:10AA500019688D4203F1B803F6D1D6B2B82306FBCC
:10AA60000303099ACBF82C3198F8C93B8BF8B52031
:10AA7000013B2079099337F0D1FC039B93F81D2CFF
:10AA800007F00103591C0AB187F00107490141F0A1
:10AA90000E01CBF8B810CBF80840627A37F00EFD03
:10AAA000099B9E4200F09C82079B063B0D9300236E
:10AAB000CBE93F33CBE94133CBE94333CBF8143116
:10AAC0000BF1F80308EE103A17F002034FF06002A2
:10AAD0000E934FEA4703CBF8F82003F002034FF040
:10AAE000010200F01982CBF80C31CBF800210027CD
:10AAF0004FF48033CBE947370A220223CBF80471A5
:10AB0000CBF81821CBF8243163790C2B00F2F081BB
:10AB1000B14A98F8C81B02EB8302D2F81078CBF840
:10AB2000E870002900F0B082DBF82C31C3F8A8905F
:10AB3000CBF82891089B002B00F035820BF1BC006C
:10AB40000F9009F09BFC98F8C83B0F98002B00F081
:10AB50001882A24A21684FF4907303FB0623DBF8A6
:10AB60002C2101F57871C2F8B030CBF8C0300C9BC5
:10AB7000CBF8E030CBF8BC10079B082B0CBF0623AA
:10AB80001223CBF8DC300023CBE932334FF40073CF
:10AB90001022CBF8D4304FF40053CBF8C420CBF8BC
:10ABA000E4308022089BCBF8D0204FF40062CBF831
:10ABB000D820002B00F0D1819DF83430CBF82891BB
:10ABC000022B00F29081844A02EB8303079AD3F8A8
:10ABD0000438082A824AB2FBF3F303F12303CBF8CB
:10ABE000F0300CBF5F221322DBF82C3158469A80DC
:10ABF00047F0C0FF98F8C83B002B00F06381089B2A
:10AC0000002B00F05F8118EE102A3946284609F023
:10AC100005FA012F00F08D81042F00F0D981102F4B
:10AC200000F03E82402F00F05082B7F5807F00F0A8
:10AC30005A82B7F5806F00F05E82B7F5805F00F052
:10AC40006282B7F5804F00F06682B7F5803F00F072
:10AC500081822B6D43F400632B6505F118000923F5
:10AC60006049614AC95C12F803C00B58042202FA19
:10AC70000CF223EA02030B502B6843F001032B6014
:10AC80000E9B002B00F051812B6A43EA87072F624D
:10AC9000099B9E420BD16B6C43F400436B642B68A1
:10ACA00043F080032B602B6843F001032B60039B70
:10ACB00093F81D3C002B40F04981059A01230AF1CD
:10ACC000010A8BF80F305374BAF1040F02F11C0320
:10ACD0000BF59A7B05937FF48EAB0B9B5CE52046CE
:10ACE00037F0B2FE4FEA4A1A4AF001010136C9F8BC
:10ACF0001410C9F80400C9F80C4089F810B071E5C7
:10AD0000DFED3A8ADFED3A9A4CE4DFED3A8AF0EE75
:10AD1000689A47E4384B394D0B931C460FCD0FC44E
:10AD20000FCD0FC498F8966B35492A68354B0391BF
:10AD3000003E18BF0126226081F81D6CC8F83C3B1C
:10AD4000E8E5206847F004FF95F8813183427FF4FD
:10AD50009DAB0123089360E611A909F0D5FD079981
:10AD60000122002381F83D2081F83C302E460FCE91
:10AD700018AF0FC796E80F0087E80F002249DFF8E9
:10AD800090C0C1F800C0002218A8A1F264538DF849
:10AD900065A047F053FD296800231C4A52F8332070
:10ADA000914200F0778101330C2BF6D1002040B2A4
:10ADB00001210390FCF7BAFA03980BF039FF9DF8D4
:10ADC00065200C2A26D8DFE802F0672525256025B6
:10ADD00025256E252525590000920508E0940120BF
:10ADE00000D012133C9B0508309B0508ACC5A73763
:10ADF000ACC5A73628293038C4770020849A0508C6
:10AE0000A84A00209D2C0508F4820020A49905087A
:10AE1000DD130308079B1B68186A02F01F0101225B
:10AE20008A4020EA02001862186ABF4902438B4236
:10AE30001A6200F08680BD4A934200F0828002F5DB
:10AE4000406293427DD002F58062934279D002F550
:10AE50008062934275D002F50062934271D0996886
:10AE6000B34A0A40062A3FF41BACB2F5803F3FF4D8
:10AE700017AC1A6842F001021A6011E4079B1B68C4
:10AE8000D96841F01001D960C6E7079B1B68D968F3
:10AE900041F00401D960BFE7079B1B68D96841F006
:10AEA0000201D960B8E7079B1B68D96841F0080127
:10AEB000D960B1E711A909F079FD50E711A909F0AE
:10AEC000C7FD4CE70A989BF8B5309A49902248F0A4
:10AED000AFFC98E6B82202FB0682731CC2F8CC5B7A
:10AEE00088F8C93BBAE58D23CBF8F03013227BE616
:10AEF00098F8C83BCBF8E870002B7FF415AE1F46DE
:10AF00001946DBF82C21ABF80C10B2F8B43023EA68
:10AF10000103A2F8B4300DE6CBF808314FF480738A
:10AF2000CBF8FC20CBF81031E1E52B6A1F432F62F0
:10AF3000AEE6AB6943F00803AB6105F118000023EE
:10AF40008EE65A6C42F400425A6488E723686279BC
:10AF500034334FF6FF719950AFE65FFA89F302463A
:10AF6000A3F1080129F0FF001423B1FBF3F1013133
:10AF700009F092FAD9F8003043F00203C9F8003022
:10AF80001AE66D4A0C9BCBF8E030582303FB0A23EA
:10AF9000CBF83031CBF8C0302368627934331344B6
:10AFA000CBF8BC30E8E5D9F800305FFA89F123F03E
:10AFB00001031422C9F8003029F0FF000839B1FB61
:10AFC000F2F1013109F0A6FA0A9848F04DFCB5E516
:10AFD000AB6943F00803AB6105F1180001233FE6BC
:10AFE00000234FF0FF32ADF8603019931B938DF8BA
:10AFF00070301A92514A52F8332095426DD0013385
:10B000000C2BF7D10020FCF7DDF82B6823F00103AF
:10B010002B60079B28469A1F0D9247F047FA9DF830
:10B02000343007EE900A022BF8EE677A40D8444A93
:10B03000DFED446A02EB830303F6040292ED007A2B
:10B04000B8EE477A87EE870A30EE260A4BF0F8FB17
:10B05000079B0138082BADF8600014BF13225F2254
:10B06000002318A928461A921B938DF87030199363
:10B0700009F0A2F91BE5344A344BC8F8742B834617
:10B08000C8F8703BFFF729BB2D4A02EB4303B3F826
:10B09000441836E72A4A02EBC30393F8A90786E669
:10B0A000AB6943F40063AB6105F118000223D7E5F7
:10B0B0009FED277A9FED230AA7EE870A4BF0C0FB8E
:10B0C0000138ADF860001322CAE7AB6943F008030A
:10B0D000AB6105F118000323C2E5194A02EBC30373
:10B0E00093F8A8078FE7EB6943F00803EB6105F1DC
:10B0F00018000423B4E5EB6943F00803EB6105F1A4
:10B1000018000523ACE5EB6943F40063EB6105F13E
:10B1100018000623A4E5EB6943F00803EB6105F191
:10B12000180007239CE500BF002C014000340140BB
:10B1300007000100D10E0508E09D0120A499050833
:10B14000009205080AD7233CD913030821FE0308FF
:10B15000FCF4B2342B6D43F008032B6505F11800A5
:10B1600008237DE5F8B5534E96F8770496F87854A1
:10B1700037F054F960B12D23C3802021044637F005
:10B18000BFF90A2036F004FF204637F053FC20B9FF
:10B19000494FD7F8DC39DA0000D5F8BD013D092D5B
:10B1A000FBD896F87644CCB9402032F0ABF90028B1
:10B1B000F3D090F9043096F8F913092BC8BF143B6B
:10B1C0003B440A2993F8E04967D093F8EC3996F8A4
:10B1D0006A24002A08BF1C46002CDED0204637F027
:10B1E0001DF9054608B12D23C3800121284637F0FB
:10B1F00087F90121084637F091FA0121284637F0F6
:10B2000047FA3C2036F0D0FE0021012037F086FAC4
:10B2100096F878341BB300240021084637F07EFAF4
:10B220000021022037F07AFA0021284637F030FA60
:10B23000782036F0ADFE0121002037F06FFA0121B1
:10B24000022037F06BFA0121284637F021FA7820E6
:10B2500036F09EFE96F8783401349C42DCDB96F89A
:10B26000763493B996F87734002B96D196F87934E2
:10B27000012B92D1D7F8DC3913F080538DD186F8A9
:10B280007834BDE8F84041F087BA322036F08CFEC1
:10B290002846002137F034F9E4E7D7F8043A5B0593
:10B2A0007FF57BAF0FF0C2FE00287FF476AF002C55
:10B2B00094D172E7986C0020907D002048400822CD
:10B2C000430010F0800F08BF400083F0D50314BF87
:10B2D000D8B2C0B2013AF3D1704700BF30B40568AC
:10B2E0008D424FF0000211D011F8013B08245A4062
:10B2F000530012F0800F08BF520083F0D50314BF33
:10B30000DAB2D2B2013CF3D18D42EDD16B1C0360B5
:10B310002A7030BC704700BF82B00346019000F134
:10B320004802D3ED024A93ED044A93ED037A93ED7C
:10B33000055AD3ED087AD3ED075A93ED066AE4EE89
:10B34000004A2433F0EE406AA5EE267A67EEE47AEE
:10B35000A4EEE57AE6EE267A03ED077A43ED067A67
:10B360009342B0EE640ADCD102B0704770B4344846
:10B3700090F8083AA3F13001092957D800F60824BB
:10B38000224600F6172012F8015FA5F130010929C5
:10B3900004D88242F7D1002070BC7047141B022CE5
:10B3A0004ADD2848002101E010F8013B01EB810152
:10B3B00003EB4103161A303B022E044603F0FF0153
:10B3C000F2DC214B03FB01F1A2424FF000030DD947
:10B3D00003EB830314F8016B5B00303B3344A24260
:10B3E00003F0FF03F4D1194800FB03F32E2D06D020
:10B3F0001748A0FB032301EB930070BC7047013298
:10B4000004200024157804EB8404303D6400092DE9
:10B4100000F1FF30A4B202D82C44A4B2013210F0E3
:10B42000FF00EFD1642202FB0433E1E700211D4657
:10B4300000F608220B46D9E7064C0021C4E700BFFE
:10B44000907D0020998700208096980040420F0050
:10B45000ABAAAAAA9887002083B50C4616460546D3
:10B4600032F002F8204631F0FFFF0021204B084661
:10B47000002E08BF1E4637F051F90021012037F099
:10B480004DF9284636F05CFFB0B10121002037F0BD
:10B4900045F9284636F04CFF0746204636F04CFF6B
:10B4A0000028FAD03946204636F070FF3846B047BB
:10B4B0000021084637F032F9204636F041FF0028D7
:10B4C000DFD00121002037F029F9204636F030FF87
:10B4D00001462846019136F02FFF01990028F8D047
:10B4E000284636F053FF0021084637F017F9C8E721
:10B4F000497F0308F0B50023C1E90033C1E90233F5
:10B500000B61D0E900258DB007AEDFF898E0C2F3FB
:10B51000056C37464CFA03F0C0073C4604D513F8D7
:10B520000E0004F8010B27460133062BF2D11B4C09
:10B53000DFF874E0C2F303200023205C3B708DF839
:10B540002400C2F3073C0DF125074CFA03F0C007B5
:10B550003C4604D513F80E0004F8010B27460133CE
:10B56000082BF2D100233B70C5F3435CC5F3434481
:10B5700009AB0846C5F34F05C2F30351CDE90215E7
:10B580000193CDE9044C02F00F0305490096C2F384
:10B5900003123FF06DFC0DB0F0BD00BF7CF8050854
:10B5A00054F8050884F8050870F8050870B5094CCA
:10B5B000D4F8182A054662B10026D4F8180A2D21BD
:10B5C000013638F027FDAE42F7DBBDE870403CF0B5
:10B5D000FBBF70BD907D00202DE9F04385B008B120
:10B5E0003CF0FCFF164DDFF85C80002415F8023CAF
:10B5F000009342462346002101203EF029FCDFF85B
:10B6000048902F46002615F8023C9E4207F1040799
:10B6100007D30134082C05F12605E7D105B0BDE8B4
:10B62000F08337F9023C029337F9043C4A46CDE9EE
:10B6300000630021234601203EF00AFC0136E2E7C8
:10B64000AE87002094F80508ACF805082DE9F04F06
:10B65000CDB2002185B007460846164637F05EF8A1
:10B660000021012037F05AF836F0BAFE022E09D038
:10B67000042E44F6C01918BF4FF49649032D06D97D
:10B6800000200BE0FF2D4FF41649F7D10326C34CE1
:10B6900094F84C3B2BB90020C4F8500B05B0BDE822
:10B6A000F08F032E15D0BE490D44002295F8990B5A
:10B6B000032136F04FFB0028EDD0BA4DC5F87C0DC4
:10B6C000037A9A07E7D4006847F02EFA41F28853CC
:10B6D000E850B44D94F84C0B41F29F530022EE54C5
:10B6E000032136F037FB05F58C58C8F80000002818
:10B6F000D1D0006847F018FA41F284534FF48062C9
:10B70000E850A94BC5F8383DC5F8442D0323C5F8CA
:10B71000482D41F29052A5F83C3D0023AB5441F234
:10B720008C524FF0010A25F802A041F2985205F51B
:10B730005861AB5041F29C52C5F84C1DAB5241F2DE
:10B740009E5201F20441032EAB54C5F8409DC5F84A
:10B75000643DC5F8583DC5F8543DC5F8501DC5F8C1
:10B76000603DC5F85C3D05F6385B0FD0D5F87C3DF3
:10B770000093187936F052FE009BC5F8780D1846F4
:10B7800012F0C3F95146584612F0CEF9322036F085
:10B790000BFC012E09D1D8F800004946FBF72AF925
:10B7A000D5F87C0DFDF736F80AE0022E3AD1D5F82F
:10B7B0007C0D12F09EF9D8F800004946FBF71AF903
:10B7C000C4F850BB022E12D0D4F8500B36F0B8FD9E
:10B7D00068B10121002036F0A1FFD4F8500B36F0FB
:10B7E000AFFD0146002840F0868036F097FF3846CE
:10B7F00036F0A6FD80B10121084636F08FFF4FF0EC
:10B80000050B4FF00009384636F09AFD0146002836
:10B810007AD1012036F082FF042ED5D0052036F0F3
:10B82000C3FBCFE7032E5ED1604B61484FF0000AA7
:10B8300083F800A0514620224DF03EFB5B4B8DF873
:10B840000FA0DFF85CA100939DF80F20032A09D90F
:10B850005848012112F068F9D8F800004946FBF772
:10B86000C9F8ADE79DF80F20C2EBC2020AEB8202D5
:10B8700092F89D2A82B39DF80F20C2EBC2020AEB18
:10B880008202D2F8A02A3AB39DF80F20524492F8CF
:10B89000990B08B30022032136F05CFA0190D8B16D
:10B8A00012F027F9009B9DF80F2018780199C2EB40
:10B8B000C2020AEB820204EBC00CD2F8A02ACCF838
:10B8C000542B0A7AD307009B48BF012200F10100E4
:10B8D00048BF8CF8582B18709DF80F200132D2B257
