:020000040800F2
:10000000F0FF00107DEC060891090108A512050813
:100010001DED06081DED06081DED06080000000098
:100020000000000000000000000000008D09010831
:10003000890901080000000085090108E5FD0408A0
:100040001DED06081DED06081DED06081DED060850
:100050001DED06081DED0608453B05080D3B05088E
:10006000D53A05089D3A0508653A05086DCA06089F
:100070005DCA06084DCA06083DCA060829CA060810
:1000800015CA060801CA06081DED06081DED06087A
:100090001DED06081DED06081DED06082D3A0508A4
:1000A00009D5040891D50408F9D40408B9D5040881
:1000B00081D5040871D5040861D50408CDDA060895
:1000C000D5DA0608C1DA0608C9DA06081DED060801
:1000D0001DED0608FD010508450105088D00050810
:1000E000F53905081DED0608191C0108E9D40408B6
:1000F00019D50408D9D4040841D50408EDC9060867
:100100001DED0608199A060851D504081DED0608CC
:10011000D5FF04081DFF04081DED06081DED0608A7
:10012000D9C90608C5C90608B1C906089DC9060887
:1001300089C906081DED06081DED06081DED060817
:100140001DED06081DED06081DED06081903010842
:1001500075C9060861C906084DC9060865FE040888
:10016000B5DA0608BDDA06081DED06081DED06081D
:100170001DED06081DED06081DED06081DED06081F
:080180001DED06081DED060847
:08280000082800080040000850
:04400000FFFFFFFFC0
:10800000F0B401292A4C2B4D23684FF0000694BF91
:1080100000270127EE626662A6626763676B47EA24
:1080200042076763EE63EC6B002A38D144F4957421
:10803000EC631C6824F001041C601C68E407FCD499
:10804000490289085960D8601968EAB921F04001ED
:10805000196019498B421DD018494FF47410C8603B
:10806000196841F01E011960596941F08001596198
:10807000196841F00101196022B90E4AD36A43F030
:108080000803D362F0BC704741F0400119600A490F
:108090008B42E1D14FF0746041F8500CE0E744F0BE
:1080A0001A04EC63EC6A44F00804EC62C1E700BF18
:1080B000702A0020002C01405864024000640240F5
:1080C0002DE9F04F0C68B34D85B0013BAC42BDF8D3
:1080D00038809BB200F07C81A5F58065AC4200F051
:1080E000778105F58045AC425CD005F58065AC42F2
:1080F00058D005F58065AC4254D0A74E2588B76BA3
:108100007F08B7FBF2F6013EB6B2AAB2B4F1804FD7
:108110000AD0A24DAC4207D005F58065AC4203D031
:1081200005F58065AC4202D122F0700292B29C4DFE
:10813000AC4200F02B8105F58065AC4200F0268151
:1081400022F4407205F56C4592B2AC422280E362A3
:10815000268540F04681002323860125A58291F8DB
:1081600008904A7919F0020600F01E8100254FEAB6
:10817000C909402109F00809AE460395AC462F46CF
:108180002B4601954FF4806602914FF0040B0C2AA8
:1081900011D8DFE802F0C91010109B101010211048
:1081A00010106B007C4E2588B66BB6FBF2F6013ED4
:1081B000B6B2AAB2AAE70C2A40D8DFE812F0DE0075
:1081C0003F003F003F00AC003F003F003F003F004A
:1081D0003F003F003F007E00218C724D21F48071F2
:1081E0000904090C2184B4F820A0B4F804C0A18BC0
:1081F0001FFA8AFA21F073012AF4007A090447EA87
:108200000A07090CAC4247EA03231FFA8CFC41F031
:10821000600100F0EB8005F58065AC4200F0E6807F
:10822000A4F804C0A183C4F83C802384A38B23F06A
:1082300008031B041B0C43F00803A383B4F8443069
:108240006FEA43436FEA53439BB2A4F84430238858
:1082500021469BB243F0010321F8343B00238D18E3
:10826000C0E900548B5005B0BDE8F08F218C4D4E15
:1082700021F480510904090C2184B4F820C0A78896
:10828000A18B1FFA8CFC21F4E6412CF4005C09045C
:108290004EEA0C0E090CB4424EEA0333BFB241F46D
:1082A000C04100F0AF8006F58066B44200F0AA80BD
:1082B000A780A183C4F840802384A38B23F40063A8
:1082C0001B041B0C43F40063A383B7E7218C354DDB
:1082D00021F010010904090C2184278CA688218B28
:1082E000BFB221F4E64127F0200709044CEA070C4D
:1082F000090CAC424CEA0313B6B241F4C04100F0A1
:10830000918005F58065AC4200F08C80A6802183C9
:10831000C4F838802384238B23F400631B041B0CD4
:1083200043F40063238389E7258C1E4E019925F0D1
:1083300001052D042D0C2584B4F820E0B4F804C008
:10834000258B2EF0020E25F073054FEA0E4E2D04FC
:108350000B434FEA1E4E2D0CB4424EEA03031FFAA4
:108360008CFC45F0600551D00A498C424ED0A4F8EF
:1083700004C02583C4F834802384238B23F00803AE
:108380001B041B0C43F00803238357E72280E3629E
:108390002685E2E600040140702A00200004004027
:1083A00000100040000001404FEA49094FF4806787
:1083B000CDE9015609F002030397B146B3464FF4E5
:1083C00080454FF4805E4FF0100C4FF48077DEE66E
:1083D0001B4E2588B66BB6FBF2F6013EB6B2AAB2CA
:1083E000A2E6184B9C423FF4B6AEB6E623F4006317
:1083F00043EA092323F480632CF4405C33434CEAC2
:108400000E0C0DE727F480472F4351E74FF6F37129
:1084100019402CF4407C41EA09034CEA070C43EA7A
:108420000B03A4E723F08003029D43EA091323F022
:1084300040032B43039D26F440662E4366E700BFAE
:10844000702A0020000401400B480C4B416D10B411
:108450000B4C43648A1E2231B0F860301B01A4FB30
:1084600003C3DB08A3F5B06322F8023F9142F3D1C6
:108470005DF8044B704700BF702A002049A2020833
:10848000CDCCCCCC036870B55E6A26B133461522DC
:10849000BDE87040184704460D4601F1150600E09E
:1084A00023689B68204698470028F9D0236815F870
:1084B000011B1B6820469847B542F1D170BD00BF33
:1084C000084AD2E91C31994209D0D118013391F8F8
:1084D00078100170C3F30A0313670120704700206E
:1084E000704700BF702A0020044BD3E91C30C01A2B
:1084F000C0F30A00C0F50060704700BF702A00207A
:10850000012380F85130704707B501A8FFF7D8FF65
:108510000028FAD09DF8040003B05DF804FB034B7B
:10852000D3E91C30C01AC0F30A007047702A00203B
:1085300001207047024BC3F87828C3F87C187047B5
:10854000702A0020024BC3F88028C3F884187047B3
:10855000702A00207047704730B4114DD5E91C23B4
:108560009A1AC2F30A020A44B2F5006F12D8A1B1F6
:1085700001444A1E013810F8014FE918824203F104
:10858000010381F87840C3F30A03F4D16B6700203C
:1085900030BC7047022030BC70470846F8E700BF87
:1085A000702A0020212838B50C4605D022282ED06C
:1085B000202813D0002038BD0029FBD0072AF9D18C
:1085C0001A4BD3F8880893F88C1893F88D2893F8F1
:1085D0008E38206021716271A371EBE70029E9D028
:1085E000072AE7D1114DD5F87C381BB10968D5F8B9
:1085F00078089847206821796279A379C5F88808B6
:1086000085F88C1885F88D2885F88E38D2E70029F2
:10861000D0D0022ACED1054AD2F88438002BC9D056
:108620000988D2F880089847C4E700BF702A002064
:10863000024B0020C3F89008704700BF702A00204A
:10864000044B00200522C3F89028C3F88408C3F81F
:108650007C087047702A0020704700BF704700BF39
:10866000704700BF704700BF704700BF704700BF32
:10867000704700BF042301480B8070478801002029
:1086800010B4074A074B92F89408122403F114021D
:108690000C8001280CBF184610465DF8044B70474B
:1086A000702A00208C0100200048704730330020E1
:1086B000034B93F8BC08032894BF002001207047A7
:1086C000702A0020034B93F8BC08003818BF012023
:1086D000704700BF702A0020A0B182680D4B12B114
:1086E00007229A7070471978DA6003294FF0040066
:1086F0000CBF80214FF48071C3E901111A611A7512
:1087000098707047034B41F2E47101225A545A7039
:10871000704700BF289F00200378022B10D000690B
:1087200008B9012070470C4B1B78032B0EBF0B4B75
:1087300080B24FF6F773984294BF00200120704733
:108740000549436841F650028A58B3EB422F2CBFCB
:1087500001200020704700BF289F0020F7FFFF0F77
:10876000F0B505682B6A93B013B1002013B0F0BDCB
:1087700061F07F01CDE906330DF107078DF8071091
:10878000039301218DF81430089202260B930E9367
:10879000109300220023CDE90C2304460297049194
:1087A0008DF828108DF83C100996EFF311861023F0
:1087B00083F3128803681B6A03B3049B02A8024672
:1087C0001BB1D3691432002BFBD12B6AF3B199682A
:1087D00039B9934209D0196829B15B6899680029B1
:1087E000F7D01433F3E7C3E90040F6B286F31188FB
:1087F0002268136A002BFCD10120B7E702ABF6B266
:108800002B6286F3118864F0EBF9F1E71C60FFDE60
:1088100070B5144C94F88C39002BFBD1F9B101449C
:108820004E1E451E02E0012047F03CFAD4F8903974
:10883000D4F894290133C3F30A039342F3D0D4F854
:108840009029D4F8903915F8011F22440133C3F35D
:108850000A03B54282F89819C4F89039E6D100208D
:1088600070BD00BF702A00200A4B0846D3F890184C
:1088700010B569B1D3F89038052B09D1064C002A00
:10888000D4F8A03004DD1146FFF7C2FFD4F8A030C1
:1088900010BD00BF702A0020683B002010B590F882
:1088A0005010002380F8503089B10C4CD4F8902837
:1088B0007AB1D4F89028052A0DD1094C3C30D4F86F
:1088C000A030FFF7A5FFD4F8A030012010BD012093
:1088D000FCE71046FAE71846F8E700BF702A0020C8
:1088E000683B0020002280F85120D7E790F8502004
:1088F000531C0244DBB280F8503082F83C1090F8F0
:1089000051200AB1132B00D9C8E77047404B984259
:108910002DE9F0410ED003F56853083398424ED04C
:108920003C4B0020C3E94400A3F80C01A3F8180154
:10893000BDE8F081374C384FDFF8E4800223C4F8FB
:10894000A43004F1A8060025FB6AAB42294605F1D4
:10895000010503D0D4F8280159F074FE94F82C31A5
:10896000D4F8282186F8243032623046414659F046
:108970009FFFD4F8A4309D4206F13006E4DB0023CB
:1089800084F81A31D4E92C03D4F8A410B4F8AC203C
:10899000B4F8B850C4F8383112FB01F203FB01F30C
:1089A000A4F80C21B4F8AE101C4AA4F81851C4E97C
:1089B0004403A4F80E11C4F808210120B8E7154CAF
:1089C000154FDFF860800223C4F8A43004F1A80634
:1089D0000025FB6AAB42294605F1010503D0D4F816
:1089E000280159F02FFE94F82C31D4F8282186F86C
:1089F000243032623046414659F0BCFDD4F8A430F0
:108A00009D4206F13006E4DB012384F81A31B9E710
:108A10001971EF00683B002088010020EC1807085E
:108A20001940EF0021AAEF00F0B5124D2B7841F666
:108A30003002022B0BBF070AC0F3D417C4B200F0F8
:108A40007F04A85883B00E4600230122384401A9B0
:108A50000CF04EF901280AD12B78022B019B16BF8E
:108A600053F8243033F8143023F07043336003B0EC
:108A7000F0BD00BF289F0020F0B5264D264C6C6548
:108A800085B00646FFF7E0FC244A254B1A2140201A
:108A9000C5E9122385F83E1040F040FC002837D08D
:108AA00094F83D3094F83E5094F83F7090F90400EB
:108AB0001C4A002E14BF4FF4E1314FF4E121002B8A
:108AC00014BF02230023002D14BF30250025002FE2
:108AD00018BF43F001032B430325CDE90153009157
:108AE0000023402140F07BFCA4F59E74C4F8900163
:108AF00058B10D4811F02AF994F8953184F8940191
:108B0000D4F890010BB984F89551003818BF0120B2
:108B100005B0F0BD702A0020A43C0020F54B0208EF
:108B200059530208C5260208A15502082DE9F04F45
:108B30002A4DDFF8D0A006460FCD54462DED048B0C
:108B40000FC40FCD0FC426492A6891F89A312260CC
:108B50008BB091F8A02103960A2B0CD8DFE813F014
:108B600036020B00A30231020B000B000B000B00BE
:108B70000B000B002C02DFED1B7AF0EE678A002A57
:108B800019491A4ACAF8102019481A4BCAF818008D
:108B90000EBF002201220B46009238EEA77AF5EEB6
:108BA000006AC6EE879ADFF860B0134ECAF8143038
:108BB0000BF123074FF000099FED108A9FED109AEB
:108BC00027EE888A039B4B4540F3BF811BF8014B7E
:108BD000002C00F01B8200231BE000BF24190708B3
:108BE000683B00206F12033959C204085DC20408B3
:108BF00071730308E1690308280100106F12833ABA
:108C000000007A44F80000100D3D0020152B00F004
:108C1000FD8103EB43024FEA4308B95CA14203F133
:108C20000103F3D1D04B1A4492F8C911002900F086
:108C30003882204644F0C8FE0546284644F0E4FE4B
:108C40000178002940F0E281C74B984409F1010303
:108C500001930322DBB288F8093288F80822002D3C
:108C600000F0D4814FEA141808F1FF38B8F1050F6D
:108C700004F00F0C00F2F281BC4C04EB4801B1F897
:108C80005C0040FA0CF111F0010100F0E7810121D4
:108C900001FA0CFC0CF1FF3C0CEA0000A04402932A
:108CA00065F034FE98F868C0DFF8D0E2029BB56149
:108CB00060440EEBC00C03228CF807308CF80620C1
:108CC0005EF83000C6F814C000F13F4303F57E03A0
:108CD00004EB9324012194F870306A7A03F01F04A6
:108CE0005B09032B01FA04F100F0CD81042B00F0A5
:108CF000C581022B00F0CC81BCF80440B4FA84F3A7
:108D0000C3F11F03C3F3CC0100EB810103F00703A0
:108D1000D1F820C09B004FF00F0E0EFA03FE2CEA94
:108D20000E0CC1F820C0D1F820C002FA03F343EAC8
:108D30000C0305AA0B62114602230292CDE90543FA
:108D40000DF0C4FF029A009B002B00F07081864B4F
:108D5000B3F8983100EE103AB8EEC00AFCEEC07AD3
:108D600017EE90EA2C68824B9C4200F05981A3F5E3
:108D700080639C4200F0548103F580439C4200F0E4
:108D80004F8103F580639C4200F04A8103F58063C4
:108D90009C4200F04581774B986B4108B1FBFEF394
:108DA00003F57F43FF334FEA134C009BB1FBFCFC00
:108DB000002B00F03981BCFBFEF1013989B207EECE
:108DC00090CAB8EE677A6A4B67EE086A9C4269EE11
:108DD000667AC6ED026AE7EE287AC6ED037A00F0FD
:108DE0000381A3F580639C4200F0FE8003F580437D
:108DF0009C4200F0378103F580639C4200F0328191
:108E000003F580639C4200F02D8123884008B0FB6D
:108E1000FCF0013880B29BB2B4F1804F00F0EA80E0
:108E2000DFF85CC1644500F0E5800CF5806C6445BA
:108E300000F0E0800CF5806C644500F0DB80DFF82A
:108E400044C1644500F0DE800CF5806C644500F0A0
:108E5000D98023F440730CF56C4C9BB2644523809D
:108E6000E162208540F00581002323860120A08255
:108E70002B7A95F805800021CDE907114FF0600CA1
:108E8000ADF8181009919907CDF814C040F1DA80B7
:108E9000DB0003F008030421ADF82230ADF8181010
:108EA0004146204644F094F9B8F10C0F10D8DFE8A1
:108EB00008F07A0F0F0F710F0F0F520F0F0F0700EF
:108EC000A38B23F400631B041B0C43F40063A383F4
:108ED0002B68B3F844206FEA42426FEA524292B2E2
:108EE000A3F844201A88194692B242F0010221F8F0
:108EF000342B687973600C18002234600A50B9F181
:108F0000000F00F0CA80DAF834108B4200F0C780FE
:108F1000B9F1010F00F0C180DAF850108B4200F077
:108F2000BE80B9F1030F40F0B880DAF86C20D31A94
:108F300018BF0123DDF8049033740122B9F1040F46
:108F4000727406F11C067FF43DAE0B480BB0BDEC0D
:108F5000048BBDE8F08FA38B23F008031B041B0CCC
:108F600043F00803A383B3E7683B0020EC1807082D
:108F700000040140702A0020F80000109C3D0020F1
:108F800000040040001000406F12833AACC5A737C0
:108F9000ACC5A736238B23F400631B041B0C43F4DE
:108FA0000063238394E7238B23F008031B041B0C2B
:108FB00043F0080323838BE75FED0D7AF0EE678AB9
:108FC000DDE55FED0E7A5FED0E8AD8E5384BDFED1B
:108FD000397A394ACAF8103001230093CAF81820A8
:108FE000364BF0EE678AD8E52388B0FBFCF00138F9
:108FF00080B29BB2DFF8DCC023F0700364459BB203
:109000007FF422AF2380E16220852FE72C4A2B4B8F
:109010000020CAE905320BB0BDEC048BBDE8F08F2F
:10902000284B996B0846B9E64FF6FE71C7E6B0EEDD
:10903000690A029265F07AFEFCEEC07A029A17EE97
:1090400090EA8FE65B0003F002034FF48071ADF805
:109050002030ADF81600ADF8241021E77161B5613C
:1090600005AA70E62388B0FBFCF0013880B29BB201
:10907000D2E6154B9C423FF4F7AEF7E6134B1C6B60
:109080002143196338E6114B1C6C2143196433E604
:109090000E4B5C6C214359642EE601234AE71346CC
:1090A00048E70D46C9E5DFED0A7AF0EE678A66E526
:1090B0005DC204086F12833A7173030859C2040831
:1090C000696B0308702A0020000401400038024048
:1090D0002829303800100040114B70B59C6B0546B4
:1090E00000680E4664080DF0F5FCB4FBF6F1B1F52E
:1090F000803F03D3012CFAD96408F6E722462846BC
:1091000089B244F0E3FA0749074BC1F8983D284675
:109110000022BDE8704001F6985144F055BA00BFF6
:10912000702A0020683B00202D040208F8B5214C6D
:109130001D270E46054684F8A07D26F02DFA002056
:1091400026F0CCF9082026F0C9F90E2026F0C6F941
:10915000384626F0C3F9042026F0C0F9042026F092
:10916000BDF9002026F0BAF9302026F0B7F900202A
:1091700026F0B4F9304626F0B1F9002026F0AEF919
:1091800026F0F4F904F6A15026F010F9234670B148
:1091900094F8A12D62B994F8A22D302A00D03AB9E2
:1091A00093F8A32D22B993F8A43D2B700120F8BDAC
:1091B0000120FCE7683B002010B5044C04480A4637
:1091C00021460CF00BFB204610BD00BF1C490020BF
:1091D0003CAA070810B5044C04480A4621460CF086
:1091E000FDFA204610BD00BF1C4900204CAA07080C
:1091F00010B5044C04480A4621460CF0EFFA20460C
:1092000010BD00BF1C49002058AA070810B5044C27
:1092100004480A4621460CF0E1FA204610BD00BF82
:109220001C49002064AA070810B5044C04480A46EB
:1092300021460CF0D3FA204610BD00BF1C49002087
:1092400070AA070810B50D4C94F88A290023C4F8B9
:10925000B83812B10A4AC2F8B43E60F03DFC20B101
:109260000423022084F8BC3810BD054BD3F8A0308D
:10927000C4F8AC38092384F8BC3810BD702A00202B
:10928000683B002070B50F4D95F8BC38042B0446A0
:109290000E460BD0082B07D1D5F8B43883420ED038
:1092A000FFF7D0FF022801D0012070BD0823C5F8C8
:1092B000B868C5F8B44885F8BC38022070BD0220F3
:1092C00070BD00BF702A002070B50379234C002BBD
:1092D00014BF0123002384F8E83803D1002384F865
:1092E000BC3870BD1E4D002195F9BB2E032046F001
:1092F000F3FF0028F2D04668304646F0DBFF84F8E2
:1093000089090028EAD095F8B93E003B18BF01232F
:10931000304684F88A395FF0A1FF0BF0F9FE38B9C6
:1093200094F8B03884F8BC08013384F8B03870BDC4
:1093300060F0B8FC40B194F8B0380022013384F8F2
:10934000B03884F8BC2870BDD5F8A030C4F8AC386B
:10935000012384F8B00884F8BC3870BD702A00205E
:10936000683B002010B560F09DFC58B10C4C94F89F
:10937000B0380133DBB2072B84F8B03803D90023AF
:1093800084F8BC3810BD0BF0C3FE0028F7D0054AA6
:109390000123D2F8A020C4F8AC2884F8BC3810BD52
:1093A000702A0020683B00202DE9F041904C94F891
:1093B000E858002D00F0098194F8BC288D4E022752
:1093C000531E082B45D8DFE803F03B3DAF447556EC
:1093D0001644050060F080FB002840F0FD80D4F8C2
:1093E000AC38D6F8A020FA3393422FD2FFF7BAFF59
:1093F00094F8BC28E4E760F06FFB0028EFD0D4F8C5
:10940000B8380022012B84F8B02840F2E980D4F863
:10941000B41894F88A09013B0131C4F8B838C4F88B
:10942000B41810B1734BC3F8B42E082284F8BC28CA
:10943000A2F10805B5FA85F56D092846BDE8F08169
:1094400084F8BC7860F048FB00284ED194F8BC2822
:10945000531EDBB2022B0BD8664BD4F8AC18D3F8F2
:10946000A0305B1AC82BE3D9FFF77CFF94F8BC2827
:10947000042ADDD1E1E7236B002BD9D15D4BD4F871
:10948000A468D3F8A030C4F8AC38072284F8BC280C
:10949000002ECDD0D4F8A838D4F89828D4F89C1849
:1094A0000120B047D2E7D4F8AC38D6F8A010643326
:1094B0008B42BDD2D4F82C80B8F1000FF3D160F00C
:1094C0000BFB002894D0D4F8A46884F8B088042357
:1094D00084F8BC38002E7DD0D4F8A838D4F8982869
:1094E000D4F89C184046B047B0E75FF09BFF0028D7
:1094F000ACD196F8BD3E002BA3F10203B3FA83F37F
:1095000014BF022201225B0984F8B12884F8B23822
:109510005FF088FF00287FF469AF374A0323926C1D
:10952000C4F8C02884F8BC385FF07CFF00288DD1D7
:10953000304BC4F8B80893F8EC6EB3F8EE0ED3F8DD
:10954000F0EED3F8F0CED3F8F07ED3F8F02E84F816
:10955000C66893F8F41EA4F8C40893F8F56E84F86E
:10956000CA2893F8F50ED3F8F82EC4F8CC28B3F82F
:10957000FE8EB3F8FE2E84F8CB18B3F8FE1EC2F3AD
:109580000B1343EA182303F00F0301F00F024FEA15
:109590001E6E4FEA1C4C3F0A360900F00F0003F51F
:1095A000FA63042184F8D10884F8C7E884F8C8C8AD
:1095B00084F8C97884F8D068A4F8D23884F8D4281C
:1095C00084F8BC182846BDE8F08184F8BC582846C9
:1095D000BDE8F081054630E7042384F8BC382CE769
:1095E000FAD1FFF72FFE94F8BC28531E31E700BFD5
:1095F000702A0020683B0020284A002000F01F024B
:1096000040090123032803FA02F304D004280CD0F4
:10961000022805D07047074A116C0B43136470474A
:10962000044A516C0B4353647047024A116B0B435D
:1096300013637047003802400E4B30B4DB68427849
:1096400001780D4CDB43C3F30223C3F10403DBB207
:1096500002FA03F360181B0101F01F0501224909FA
:1096600003F0F003AA4080F8003344F8212030BC16
:10967000704700BF00ED00E000E100E010B5834A54
:109680000368934282B000F0C280A2F580629342E8
:1096900000F0BD8002F58042934200F08B8002F51D
:1096A0008062934200F0868002F58062934200F06F
:1096B000818077481A88806B4008B0FBF1F101394E
:1096C00089B292B2B3F1804F0AD07248834207D078
:1096D00000F58060834203D000F58060834202D1B0
:1096E00022F0700292B26C48834200F0998000F53B
:1096F0008060834200F0A08022F4407200F56C404C
:1097000092B24FF6FF7483421A80DC62198540F0F2
:10971000998000221A8601229A821A885F4992B2A1
:1097200042F001028B421A8000F09880B3F1804F22
:1097300000F09680574A934200F0948002F58062D0
:10974000934200F0918002F58062934200F08E8097
:1097500002F58062934200F08B8002F580629342B2
:1097600000F0888002F57042934200F0858002F597
:109770007052934200F0828002F5806293427FD063
:1097800002F5806293427DD0A2F5983293427BD05D
:1097900002F58062934216D002F58062934208BFC0
:1097A0000D2211D04FF0012301A80193FFF744FFD0
:1097B00002B010BD36481A88806BB0FBF1F1013958
:1097C00089B292B27EE70C22354B03EBC20301A8AB
:1097D00093F87D408DF8044001224FF480738DF89A
:1097E0000520ADF80630FFF727FF1B2C06D12D4BC7
:1097F000019301A8FFF720FF02B010BD2E2CD7D196
:10980000294B019301A8FFF717FF02B010BD2048B4
:109810001A88806BB0FBF1F1013989B292B25FE72F
:1098200001204FF6FF741A80DC62198598821A882D
:1098300092B202431A807DE74FF6FF701A80D86219
:10984000198568E7114A93423FF463AF01229A8277
:109850001A8892B242F001021A8067E70022B3E749
:109860000122B1E70222AFE70322ADE70422ABE712
:109870000522A9E70622A7E70722A5E70822A3E712
:109880000922A1E70A229FE70B229DE7000401407D
:10989000702A002000040040001000400000014039
:1098A000EC180708190100012C010001002877D0ED
:1098B000F0B58388B3FA83F3202B83B00446C3F159
:1098C0001F0258D0374D384E15444FF0004006EB7C
:1098D000820230FA03F395F8E850C2F8181F05D059
:1098E000324A116821EA03011160536120460021C8
:1098F00044F0CCFAA38822682C49B3FA83F7C7F165
:109900001F0404F0FC0000F1804000F59C3004F0DE
:109910000304A40002F13F434FF00F0C82680CFADD
:1099200004FC22EA0C02826003F57E038268C3F322
:109930008723A340134383600A681D484FF0004308
:10994000FB4022EA03020A604A6822EA03024A60F4
:109950000A681A430A608A6822EA03028A60CA68AF
:1099600022EA0302CA6002682E441343036096F899
:10997000583FF02B01D803B0F0BD0E4B5B5D8DF866
:109980000430F02103224FF4807301A886F8581F99
:109990008DF80520ADF80630FFF74EFE03B0F0BDA0
:1099A000704700BFEC180708683B0020003C0140EE
:1099B000083C0140D8AA070800285FD00368374A4E
:1099C0002DE9F04103F13F4404F57E0402EB9422BB
:1099D000012492F8702002F01F055209032A04FAAC
:1099E00005F456D0042A4FD0022A48D08588B5FA0B
:1099F00085F0C0F11F00C0F3CC0603EB860600F033
:109A0000070082000F24306A944020EA040030628C
:109A1000306A01FA02F20243002132624FF0010E75
:109A20000A464FF0030C02270EFA02F838EA050046
:109A300002F101021CD118680CFA01F420EA0400BA
:109A40001860186807FA01F606431E609E6826EA49
:109A500004069E6098689860586820EA080058607C
:109A600058685860D86820EA0400D860D868D86080
:109A7000102A01F10201D7D1BDE8F0817047084AF0
:109A8000556C2C435464B1E7054A156B2C431463A1
:109A9000ACE7034A156C2C431464A7E7EC180708DD
:109AA00000380240F0B5374DD5F8607F3E78012E82
:109AB00095B004460B4606D0022E01D1396A69B131
:109AC000002015B0F0BD97F9040095F8641F0093CD
:109AD0001346224663F0B8FE15B0F0BD60F07F007B
:109AE000CDE90A320DF10F048DF80F00002201209C
:109AF0000023CDE90811CDE90E2305918DF81C1046
:109B00000D9110911291049406908DF830008DF80B
:109B10004400EFF31180102383F31288D5F8603FDF
:109B20001B6A13B3069B04AC22461BB1D3691432E3
:109B3000002BFBD13B6A13B3996839B993420AD021
:109B4000196829B15B6899680029F7D01433F3E7E5
:109B50000D4AC3E90024C0B280F31188D5F8602F04
:109B6000136A002BFCD10120ABE704ABC0B23B620F
:109B700080F3118805F5766063F032F8EEE7024A6B
:109B80001A60FFDE683B0020C84A0020034BD3F870
:109B9000F028136A002BFCD1704700BF702A002008
:109BA0002DE9F84FCB4C14F8CC1C0546C1F340010D
:109BB00054F8C40C47F054FB14F8CC1C54F8C80CEF
:109BC000C94301F0010147F04BFB002D00F0E78095
:109BD00005F1FF39C04EC14FC14D5FFA89F94FF011
:109BE000100854F8C43C33B11A689B8851690B4281
:109BF00014BF5383138354F8C83C33B11A689B884D
:109C000051690B4214BF5383138334F8BC3C002BBF
:109C100040F0578114F8BA1C54F8B80C47F020FBF8
:109C2000FA204FF47A714FF0010C7B68C3F30803FC
:109C3000002B40F01981EFF31183002B40F01481C9
:109C4000D6F8A020D5F808E0D6F8A0309A42F7D18F
:109C500054F8903C9E45F3D854F894AC01FB0AF3B9
:109C6000A3EB0E03B3FBFAF301FB02327B68C3F3F1
:109C70000803002B40F0B680EFF31183002B40F077
:109C8000B180D6F8A030D5F808B0D6F8A0E073457A
:109C9000F7D154F890ECF345F3D854F894AC01FBA9
:109CA0000AFEAEEB0B0EBEFBFAFE01FB03E39B1AB2
:109CB000B3F57A7FDAD30138B7D154F8C43C33B165
:109CC0001A689B8851690B4214BF5383138354F85D
:109CD000C83C33B11A689B8851690B4214BF538347
:109CE000138334F8BC3C002B40F0DF8014F8BA1C1E
:109CF00054F8B80C81F0010147F0B2FAFA204FF4A1
:109D00007A714FF0010C7B68C3F30803002B40F01D
:109D10008A80EFF31183002B40F08580D6F8A020D5
:109D2000D5F808E0D6F8A0309A42F7D154F8903C24
:109D30009E45F3D854F894AC01FB0AF3A3EB0E0351
:109D4000B3FBFAF301FB02327B68C3F3080343BBA6
:109D5000EFF311832BBBD6F8A030D5F808B0D6F8B6
:109D6000A0E07345F7D154F890ECF345F3D854F8DC
:109D700094AC01FB0AFEAEEB0B0EBEFBFAFE01FB40
:109D800003E39B1AB3F57A7FDED30138BBD109F127
:109D9000FF395FFA89F9B9F1FF0F7FF422AFBDE80F
:109DA000F88FEFF3118A88F31288D5F808B02B6882
:109DB000DB0344BF44F898CCD5F808B0D6F8A030FF
:109DC00054F898EC5FFA8AFA8AF3118854F894AC44
:109DD000734401FB0AFEAEEB0B0EBEFBFAFE01FB69
:109DE00003E3CEE7EFF3118A88F31288D5F808B0C1
:109DF0002B68DB0344BF44F898CCD5F808B0D6F8FC
:109E0000A03054F898EC5FFA8AFA8AF3118854F873
:109E100094AC734401FB0AFEAEEB0B0EBEFBFAFEE4
:109E200001FB03E343E7EFF3118E88F31288D5F8C3
:109E300008A02B68DA0344BF44F898CCD5F808A0F2
:109E4000D6F8A03054F8982C5FFA8EFE8EF3118865
:109E500054F894EC1A4401FB0EF3A3EB0A03B3FB92
:109E6000FEF301FB02326FE7EFF3118E88F31288E5
:109E7000D5F808A02B68DA0344BF44F898CCD5F88D
:109E800008A0D6F8A03054F8982C5FFA8EFE8EF316
:109E9000118854F894EC1A4401FB0EF3A3EB0A0367
:109EA000B3FBFEF301FB0232E0E654F8A03C002BCA
:109EB0003FF424AF54F8B42C0023136004F8A33CFF
:109EC0001CE754F8A03C002B3FF4AAAE45F0B8FFC5
:109ED000A6E600BF604C0020683B002000ED00E0DB
:109EE00010E000E02DE9F04FCA4CCB4E14F8CC1C2A
:109EF00054F8C40CDFF82883C84D83B0C1F3400187
:109F000047F0AEF914F8CC1C54F8C80CC94301F062
:109F1000010147F0A5F9052301934FF0100954F80A
:109F2000C43C33B11A689B8851690B4214BF5383F8
:109F3000138354F8C83C33B11A689B8851690B42AB
:109F400014BF5383138334F8BC3C002B40F0598179
:109F500014F8BA1C54F8B80C47F082F932204FF4C8
:109F60007A710127D8F80430C3F30803002B40F0BE
:109F70001B81EFF31183002B40F01681D6F8A0204F
:109F8000D5F808E0D6F8A0309A42F7D154F8903CC2
:109F90009E45F3D854F894AC01FB0AF3A3EB0E03EF
:109FA000B3FBFAF301FB0232D8F80430C3F3080321
:109FB000002B40F0B780EFF31183002B40F0B2800C
:109FC000D6F8A030D5F808B0D6F8A0E07345F7D1A0
:109FD00054F890ECF345F3D854F894AC01FB0AFE26
:109FE000AEEB0B0EBEFBFAFE01FB03E39B1AB3F5CF
:109FF0007A7FD9D30138B5D154F8C43C33B11A684B
:10A000009B8851690B4214BF5383138354F8C83C97
:10A0100033B11A689B8851690B4214BF5383138371
:10A0200034F8BC3C002B40F0E08014F8BA1C54F823
:10A03000B80C81F0010147F013F932204FF47A7126
:10A040000127D8F80430C3F30803002B40F08B80BD
:10A05000EFF31183002B40F08680D6F8A020D5F8CE
:10A0600008E0D6F8A0309A42F7D154F8903C9E45CB
:10A07000F3D854F894AC01FB0AF3A3EB0E03B3FB43
:10A08000FAF301FB0232D8F80430C3F3080343BBF0
:10A09000EFF311832BBBD6F8A030D5F808B0D6F873
:10A0A000A0E07345F7D154F890ECF345F3D854F899
:10A0B00094AC01FB0AFEAEEB0B0EBEFBFAFE01FBFD
:10A0C00003E39B1AB3F57A7FDDD30138B9D1019B45
:10A0D0005F1E17F0FF0301937FF421AF03B0BDE8CB
:10A0E000F08FEFF3118A89F31288D5F808B02B6846
:10A0F000DB0344BF44F8987CD5F808B0D6F8A0300C
:10A1000054F898EC5FFA8AFA8AF3118854F894AC00
:10A11000734401FB0AFEAEEB0B0EBEFBFAFE01FB25
:10A1200003E3CEE7EFF3118A89F31288D5F808B07C
:10A130002B68DB0344BF44F8987CD5F808B0D6F808
:10A14000A03054F898EC5FFA8AFA8AF3118854F830
:10A1500094AC734401FB0AFEAEEB0B0EBEFBFAFEA1
:10A1600001FB03E342E7EFF3118E89F31288D5F880
:10A1700008A02B68DA0344BF44F8987CD5F808A0FF
:10A18000D6F8A03054F8982C5FFA8EFE8EF3118822
:10A1900054F894EC1A4401FB0EF3A3EB0A03B3FB4F
:10A1A000FEF301FB02326EE7EFF3118E89F31288A2
:10A1B000D5F808A02B68DA0344BF44F8987CD5F89A
:10A1C00008A0D6F8A03054F8982C5FFA8EFE8EF3D3
:10A1D000118854F894EC1A4401FB0EF3A3EB0A0324
:10A1E000B3FBFEF301FB0232DEE654F8A03C002B89
:10A1F0003FF423AF54F8B42C0023136004F8A33CBD
:10A200001BE754F8A03C002B3FF4A8AE45F018FE25
:10A21000A4E600BF604C0020683B002010E000E096
:10A2200000ED00E0B0B10C4951F88C3C102B03D18B
:10A230000521002043F0CABF03EB43020A4402F8A1
:10A24000880C202002F8870C0120034402F8860CB9
:10A2500041F88C3C704700BF604C00202DE9F04F66
:10A260002DED028BAA4C95B01E22A4F158000021BE
:10A2700067F098F914F8383C1BB114F8373C04F82F
:10A28000583C14F8363C1BB114F8353C04F8533CE8
:10A2900014F8343C1BB114F8333C04F84E3C14F869
:10A2A000323C1BB114F8313C04F8493C14F8303C02
:10A2B0001BB114F82F3C04F8443C14F82E3C1BB19D
:10A2C00014F82D3C04F83F3C14F8263C0393013B62
:10A2D0005FB2DBB202937B1C00F0B0808D4B8E4EE0
:10A2E00053F83720019203EBC7034FF0000A1B79A4
:10A2F00008EE103AB146D046D34699F80050394698
:10A30000284645B34BF0C6F9034628461D4613B30D
:10A3100046F030FC0BF107031321DBB220B14FF004
:10A32000000C837180F807C043F0B0FD99F800007D
:10A330004BF0E6F908F1010389F802805FFA83F82F
:10A340004FF0070389F804304FF0010389F801004A
:10A35000AA4689F803300BF1010BBBF1060F09F196
:10A360000509CAD118EE100AFFF748F96B4A6C4B81
:10A3700051680B4043F44033536017B9BAF1000FF2
:10A380000BD1684D4820FFF739F92846022163F0C8
:10A39000B3FBAB6843F00103AB606049614B4A68B3
:10A3A00034F82C0C42F400024A605A6822F48052BD
:10A3B0005A609A6B22F4401242F480129A63DA686F
:10A3C00042F46002DA609D6B85F44012C2F30152E0
:10A3D00002EB82021F2101FA02FC25EA0C054FF074
:10A3E000110C0CFA02F22A439A63DA6842F4E01282
:10A3F000DA609D6BC5F30152C2F10402D2B202EBE6
:10A40000820291404FF0100C25EA01050CFA02F28D
:10A410002A439A63E8B134F82A2C44F8200CAAB1F4
:10A4200034F8283C44F81C2C6BB13F499B1A91FB33
:10A43000F3F344F8183CBAF1000F0DD115B0BDECA0
:10A44000028BBDE8F08F394B1B88EEE7384B1A883A
:10A45000E6E7384B1888DEE7019D4146284663F061
:10A460004BFB06F11E0E012117E0EB6823EA0B03FC
:10A470001A43EA604B1E03EB83031F22062902FAEC
:10A4800003F90CFA03F329D86A6B22EA0902134391
:10A4900001466B63053676454ED0F378481CC0B252
:10A4A000002BF7D096F801C03379ACF10A0202EB29
:10A4B00042024FF0070A0CEB4C09BCF1090F0AFAF3
:10A4C00002FB03FA02F20AFA09FACED82A6903FA61
:10A4D00009F322EA0A0213432B61CBE7CA1FA1F159
:10A4E0000D0302EB82024FF01F0A03EB83030C29DA
:10A4F0000AFA02F90AFA03F10CFA02F200F2848075
:10A500002B6B23EA09031A4301462A63C2E700BF03
:10A51000604C0020E4190708084C0020002301408B
:10A52000E030FCFF00200140803801002E7AFF1F40
:10A530002C7AFF1F2A7AFF1F019A0299936843F42D
:10A5400000739360936843F48073936093683C4412
:10A5500043F0010393601746022014F9252C45F0BF
:10A56000BBFE044600283FF469AF4668304645F01C
:10A57000A1FE2A4A431E242101FB032393F84C50D9
:10A58000002D7FF45BAF039983F84D10062283F80A
:10A590004C2000283FF452AF304645F08BFE61F06E
:10A5A00083FE60680CF0F0F905A80CF0AFF9B8F183
:10A5B000010F8CBF4FF480630023A2680B933B46CE
:10A5C000174801974C3305924FF400674FF480729F
:10A5D000069307904FF4003360680A9505A94FF47D
:10A5E0000056CDE90E23CDE90C76CDE908580CF0E4
:10A5F0009FF96268019F136843F001031360BB6811
:10A6000043F08043BB6019E7EA6A0CFA03F322EADD
:10A61000010213430146EB623CE700BF88010020C2
:10A620004C4C00202DE9F84F2C4F00EB800407EB39
:10A63000C40454F8046C26B10546607C00F0FF08A1
:10A6400020B14FF000084046BDE8F88F89469A4691
:10A65000934645F03FF94FEA49010123C9B2A1747D
:10A6600084F813B0637584F816802375637484F8D6
:10A670001080B288C4F818A091058146C4F81CA0C7
:10A680001DD43388DA0510D442F20F7405E045F08A
:10A6900021F9A0EB0903A34215DC33889B05F6D40E
:10A6A00033889BB243F480733380B3889BB243F406
:10A6B00040734FF00108B3804046BDE8F88F9846DC
:10A6C0004046BDE8F88FB7F8703001339BB228469A
:10A6D000A7F8703062F038FEB5E700BF604C00208C
:10A6E0000128B5EEC00A10D0F1EE10FA0BDD9FED97
:10A6F000177ADFED177AE0EE077AFCEEE77A17EECD
:10A70000903A98B2704700207047F1EE10FA0BDDD6
:10A710009FED107ADFED107AE0EE077AFCEEE77A33
:10A7200017EE903A98B27047EDD5F7EE007A30EE1A
:10A73000270A9FED0A7ADFED0A7AE0EE077AFCEE4F
:10A74000E77A17EE903A98B2704700BF00E0F944FC
:10A750000000404200C079440000834400C079C436
:10A7600000E0824470B5414E96F8724004EB8403D9
:10A7700006EB8303A50093F87430032B65D8DFE85C
:10A7800003F051251C02254406EB8505A86F00281F
:10A7900067D196F8C4309C4257D0013404F00302CC
:10A7A000934286F8722050D002EB820406EB8404B8
:10A7B0000223A06784F8743070BD2B1906EB830365
:10A7C0009A6F62B1013A9A67002070BD2B1906EBAF
:10A7D00083039A6F002AF5D1022283F8742025445E
:10A7E00006EB850595F88030013BDBB285F88030BB
:10A7F0006BBB1F4B96F8C460D3F87012E86F621CF5
:10A8000002F003024B1E0324B242034485F8744055
:10A81000B3FBF1F0A86718D0994216D80138A867A1
:10A82000012070BD4AF020FE78B1114B2C44D3F8C2
:10A83000702206EB8404012102F51C5384F8741085
:10A840000F33B3FBF2F3A36770BD012070BD084B5B
:10A85000D3F87022012002F2E733B3FBF2F3AB67C7
:10A8600070BD0138A867002070BD00BF604C00209B
:10A87000880100202DE9F84F3249DFF8D4B091F873
:10A88000BD1E01240229074619461046CBF82C406C
:10A890004FF000022C4C1D4618BF7F02FDF7B0FBA5
:10A8A0002A4B63626B02A362E36A40F2FF5943F0F2
:10A8B00093034FF400704FF48A62E3620121C4F8FD
:10A8C0003890A0601020E2605EF0F8FE012D40F2AA
:10A8D00051434E46C4F83890CA4640F252488EBFA3
:10A8E0004FF0120998464FF011090A25C4F838A014
:10A8F0000121A7604846C4F80C805EF0DFFE0346E5
:10A900004FF0000C40F2774201213720A6632BB9AB
:10A9100000231846CBF82830BDE8F88FA663C4F8AA
:10A9200008C0E2605EF0CAFE013DA6630028EFD0D9
:10A9300015F0FF05DAD10346CBF82C50CBF82830C0
:10A94000BDE8F88F683B0020002C014000E1F505D0
:10A95000702A00202DE9F843DFF8788098F8BC5879
:10A96000042D0446894617461E4608D0082D02D0FD
:10A970000020BDE8F883FEF765FC0228F8D101232A
:10A980004A4620460021FFF775FF68B1FEF7EAFC52
:10A99000D8F8A448002CEBD00022D8F8A838D8F872
:10A9A0009C181046A047E3E7094BC8F89898D3F8DD
:10A9B000A020C8F89C480523C8F8A478C8F8A8685F
:10A9C000C8F8AC2888F8BC380120BDE8F88300BF7F
:10A9D000683B0020702A00202DE9F84F2F49DFF84E
:10A9E000C49091F8BD1E1E4602292D4B07464FF01C
:10A9F000010418BF4702012E40F259481C6398BF5A
:10AA00004FF48B683B469346474640F2FF55B046AD
:10AA10008CBF4FF0190A4FF0180A0A241E4640F264
:10AA2000FF53C9F838300121C9F808605046C9F809
:10AA30000C705EF043FE03464FF0000C40F277428C
:10AA400001213720C9F83850A3B9584641460122A0
:10AA5000FDF7D6FA4646134A134B536276029662C6
:10AA6000D36A43F09103D3620D4B002108469962EB
:10AA7000BDE8F88FC9F83850C9F808C0C9F80C20EB
:10AA80005EF01CFE013CC9F838500028DDD014F0FF
:10AA9000FF04C4D1024B1C63BDE8F88F683B002063
:10AAA000702A0020002C014000E1F5052DE9F04757
:10AAB0003C4C82B005460E461746984694F8BC08B2
:10AAC00004280DD0082807D1D4F8B438AB4207D0F9
:10AAD000FEF7B8FB0228F1D0012002B0BDE8F087F4
:10AAE000DFF8C8A0C4F89868DAF8B49EC4F89C5897
:10AAF000C9F34F210F294FEA592223D8D4F8B83887
:10AB00000193FBB194F88A09E0B1B9F5005F13D065
:10AB1000254831464FF40072484465F0E9FD09F5D7
:10AB20000072C2F34F211029CAF8B42E4FEA522204
:10AB300002D0019B012B25D192B2013A1A4EAD1AD7
:10AB40000B4600E001233246284606260125002157
:10AB5000C4F8A478C4F8A88884F8A05884F8BC681D
:10AB6000FFF73AFF0028B8D0FEF7FCFBD4F8A46842
:10AB7000AEB12846D4F8A838D4F89C180022B047C3
:10AB80000320AAE7D4F8B428013B01320421C4F819
:10AB9000B838C4F8B42884F8BC1802209DE7032014
:10ABA0009BE700BF702A0020286F0020683B002030
:10ABB000F0B52B4C2B4BD4F8B82012695168994250
:10ABC00083B048D0A3F57843994246D003F580631B
:10ABD000994214BF4FF0FF31022101312248234F27
:10ABE00049F03CFAD4F8B8302148D3F8A830C4F87A
:10ABF000C43007F1C80207F1D803C4E952234AF070
:10AC00002BF800260346314601AA1748A4F8C030A5
:10AC1000ADF80460FDF7A4FD052045F043F81248A7
:10AC2000ADF8046001AA3146FDF79AFD054620B152
:10AC30009DF805301E2B03D03546284603B0F0BDE5
:10AC40000C4A0D4B08480121C4E9292387F8E81074
:10AC50004AF01EFAF1E70021BFE70121BDE700BF7E
:10AC6000F800001000300140B4010010604C0020DA
:10AC700080969800E17F0608758706082DE9F04F59
:10AC80000C68BA4D013BAC4283B09BB200F07881B6
:10AC9000A5F58065AC4200F0738105F58045AC42B6
:10ACA0005AD005F58065AC4256D005F58065AC42BA
:10ACB00052D0AF4E2588B76B7F08B7FBF2F6013E46
:10ACC000B6B2AAB2B4F1804F0AD0AA4DAC4207D0B6
:10ACD00005F58065AC4203D005F58065AC4202D134
:10ACE00022F0700292B2A44DAC4200F02A8105F528
:10ACF0008065AC4200F0258122F4407205F56C4578
:10AD000092B2AC422280E362268540F04281002369
:10AD100023860125A5820B7A4A7913F0020600F0FA
:10AD200014810027DB0003F00803B8460197394679
:10AD3000BC46BE463D464FF480664FF0400A4FF099
:10AD4000040B0C2A11D8DFE802F0C910101099107A
:10AD50001010211010106900854E2588B66BB6FBC7
:10AD6000F2F6013EB6B2AAB2ACE70C2A3ED8DFE852
:10AD700012F0DF003D003D003D00AC003D003D0015
:10AD80003D003D003D003D003D007C00218C7B4F9F
:10AD900021F480710904090C2184218CB4F80490F9
:10ADA000A58B89B225F0730521F400712D044CEABE
:10ADB00001012D0CBC4241EA0E211FFA89F945F030
:10ADC000600500F0EB8007F58067BC4200F0E6808C
:10ADD0000023A4F80490A583E3632184A38B23F0CC
:10ADE00008031B041B0C43F00803A383B4F844308E
:10ADF0006FEA43436FEA53439BB2A4F8443023887D
:10AE000021469BB243F0010321F8343B00238D1807
:10AE1000C0E900548B5003B0BDE8F08F238C574934
:10AE200023F480531B041B0C2384238CB4F804C02C
:10AE3000A68B9BB226F4E64623F40053360448EA78
:10AE40000305360C8C4245EA0E3346F4C0461FFA21
:10AE50008CF500F0AF8001F580618C4200F0AA8093
:10AE60000021A580A68321642384A38B23F400639F
:10AE70001B041B0C43F40063A383B7E7258C3F4EF0
:10AE800025F010052D042D0C2584B4F820C0A788CA
:10AE9000258B1FFA8CFC25F4E6452CF0200C2D04A4
:10AEA00041EA0C012D0CB44241EA0E11BFB245F447
:10AEB000C04500F08E8006F58066B44200F08980BF
:10AEC0000023A7802583A3632184238B23F40063BD
:10AED0001B041B0C43F40063238387E7218C274F5B
:10AEE00021F001010904090C2184268CB4F80480A6
:10AEF000B4F8189026F0020629F0730936044FEAD8
:10AF000009494EEA0501360C4FEA1949BC4241EAAB
:10AF100006011FFA88F849F060094FD0134DAC4282
:10AF20004CD00023A4F80480A4F818906363218413
:10AF3000238B23F008031B041B0C43F0080323831B
:10AF400054E72280E3622685E3E65B004FF48061EC
:10AF500003F0020E0191B2463346B3464FF48047E8
:10AF60004FF4805810214FF4807CEAE60004014041
:10AF7000702A002000040040001000400000014042
:10AF80001A4E2588B66BB6FBF2F6013EB6B2AAB2EF
:10AF9000A6E6174B9C423FF4BAAEBAE621F4006134
:10AFA00041EA032323F4806129F44059314349EAFB
:10AFB00008090DE725F480453D4351E74FF6F37648
:10AFC0000E4028F44078334348EA0C0843EA0B016A
:10AFD000A7E721F0800141EA031323F04001019B20
:10AFE00027F4406741EA0A011F4369E7702A0020FD
:10AFF00000040140F0B5224E96F8F47083B0384654
:10B0000045F0B8FD96F81D41054644B1D6F82041FB
:10B01000241AB4FA84F46409204603B0F0BD38461B
:10B020000122592142F026FD07460028F4D00123D1
:10B03000C6F8205186F81D3115B140F25913EB8046
:10B04000797A2846FEF7B8FC38685FF015F80D4BA2
:10B050000246A3FB0213C3F30E35013DC3F3CF2316
:10B06000ACB2013B0094084839469BB2FDF728F882
:10B070000124D6F80C3120461D6003B0F0BD00BF9E
:10B08000604C0020D34D62106C4D002070B5214DF6
:10B09000D5F8903193F82620DAB11B699847E0B1D2
:10B0A000D5F8903193F824208AB105F5CA760024AA
:10B0B0001A19E0B29B6992F82C10B6EC010A984775
:10B0C000D5F8903193F8242001349442F0DB5B6989
:10B0D000984795F8A431312B00D070BD95F8A83170
:10B0E000002BFAD0D5F8903193F82430042B1E466B
:10B0F000A8BF0426002BF0D00024074D2346184695
:10B100005FF062FA0134E3B29E4245F8040BF6D8D0
:10B1100070BD00BFF8000010A402001003681A7888
:10B12000012A01D00020704793F90430034A03EB51
:10B13000830302EBC303587CC0B27047604C00200D
:10B1400010B50C4CD4F8603F1B78022B10D1D4F80A
:10B15000680F46F07FF8D4F8680F08B12323C38046
:10B16000012142F093FE044849F076FDA4F8640FF3
:10B1700010BD00BF683B002080969800054BD3F8B7
:10B18000602F1278022A03D1D3F8680F48F0C2BDAD
:10B19000704700BF683B002030B583B00D460123E7
:10B1A00001460DF107020446074849F0F5FF9DF8F6
:10B1B000072035EA020304D003482A4321464AF017
:10B1C00079F803B030BD00BFC84A002038B5054645
:10B1D0000A460C460648294649F06AFE45F08001B9
:10B1E000034849F063FD231A5842584138BD00BF57
:10B1F000C84A0020F0B5374DD5F8607F3E78022E62
:10B2000095B004460B460FD0012E02D0002015B099
:10B21000F0BD97F9040095F8641F00931346224689
:10B2200062F012FB15B0F0BD396A0029EED1CDE90C
:10B230000A320DF10F068DF80F00002201200023C5
:10B24000CDE90811CDE90E2305918DF81C100D9163
:10B2500010911291049606908DF830008DF84400FC
:10B26000EFF31180102383F31288D5F8603F1B6A37
:10B2700013B3069B04AC22461BB1D3691432002BD6
:10B28000FBD13B6A13B3996839B993420AD0196864
:10B2900029B15B6899680029F7D01433F3E70E4AA7
:10B2A000C3E90024C0B280F31188D5F8602F136A77
:10B2B000002BFCD10120AAE704ABC0B23B6280F3B3
:10B2C000118805F5766061F08BFCEEE7024A1A60A2
:10B2D000FFDE00BF683B0020C84A002070B503684D
:10B2E0001D78022D15D0012D01D0002070BD04461F
:10B2F00093F904000B4B421C83F82851F5D0022827
:10B30000F3DC0A4603F594732179BDE87040FFF73A
:10B3100089B91B6A002BE8D1012249F0C9FD01203F
:10B3200070BD00BF604C002013B53A4C0023D4F828
:10B3300038218DF80730137803F0FD01012905D17C
:10B3400094F83C1111B90C2184F83C11022B1ED049
:10B35000032B2ED001220B212F4858F0BBFA0420DA
:10B3600044F0A0FC2C4801230DF10702002158F005
:10B37000D3FA002839D09DF80730482B35D1274B18
:10B38000C4F82C31264BC4F8303102B010BDD4F8CB
:10B39000400145F05FFFD4F8400108B13423C38079
:10B3A000012142F073FD1F4849F056FCA4F83C010E
:10B3B000D0E7D4F8E835506846F2A81119610023A7
:10B3C00080F888301222372158F058FAD4F83831F2
:10B3D0000D225868242158F051FAD4F8383130221F
:10B3E00058686A2158F04AFAB4E7D4F838311A7824
:10B3F000022A03D0032A07D00020C6E7D4F8400170
:10B4000048F088FC0020C0E758681022372158F027
:10B4100035FAF1E7604C0020984D00207739060896
:10B42000F93906088096980010B58CB000234CF2CC
:10B430000502044601A9CDE90633CDE90833ADF88C
:10B4400000208DF8023003220B930123CDE9031273
:10B450008DF814308DF82830CDF808D049F012FE60
:10B46000204602A948F07CFC204649F00BFE9DF8DE
:10B4700006000CB010BD00BF2DE9F041614C82B058
:10B48000242204F6E800002166F08CF894F8117983
:10B490000023C4F80C39002F3CD15B4ED6F808319C
:10B4A00063B39B6A53B359489847836833B303889F
:10B4B0005748013B9BB28446064600253178032954
:10B4C00006F106061ED00135062DF7D100220178BF
:10B4D000022900F1060000F08F800132062AF6D121
:10B4E000D4F80C19052909D0481C02FB01C2C4F884
:10B4F0000C0902200021938010705180384602B060
:10B50000BDE8F081062303FB0545B5F8EA38013BA9
:10B510009BB2DBE794F8100904F61813C4F8143949
:10B5200010B9394E0027B9E745F024FBC4F82009CB
:10B5300018B1837913F0BF0FF3D13648394648F07C
:10B540008DFD80460028ECD0D4F814392F4A986835
:10B55000C3F8942008B12223C380092142F096FC4D
:10B56000D4F81439284E986845F074FE2A48D4F867
:10B57000145949F071FB0123A8803220C6F82851E4
:10B5800086F82C3144F08EFB0423D4F814090025EE
:10B590000DEB03029F21019549F036FC9DF8055003
:10B5A0009DF804309DF806102D0245EA03450D4331
:10B5B000294606F5847057F07BF908BB2846FDF74D
:10B5C000A5F9E8B99DF806509DF805209DF80730CB
:10B5D0002D0245EA02451D43294606F5847056F0C2
:10B5E000C9FF68B92846FDF791F9074640B994F8B4
:10B5F000100948F0AFFB51E7062101FB02C278E7D2
:10B6000047464BE7604C0020683B0020703C002020
:10B610004855002078550020404B4C002DE9F04F54
:10B620000646044616F8010B87B0002800F04B834D
:10B630008B46002509E015F0A5FD01353446264668
:10B6400016F8010B002800F088802528F3D16278D5
:10B65000302A00F0D78002340027A2F13001CBB2AB
:10B66000092B4FF000035ED96C2A7AD0782AE6D8ED
:10B67000572A64D9A2F158012029E0D801A050F836
:10B6800021F000BF41B900083FB600083FB60008EE
:10B690003FB600083FB600083FB600083FB60008B6
:10B6A0003FB600083FB600083FB600083FB60008A6
:10B6B00083B8000891B800083FB600083FB60008FC
:10B6C0003FB600083FB600083FB600083FB6000886
:10B6D0003FB600083FB600083FB600087BB8000838
:10B6E0003FB600083FB600083FB600083FB6000866
:10B6F00017B800083FB60008EBB800083FB60008CE
:10B700003FB6000841B90008BCF1050FACD8A2F162
:10B7100037010A29A8D114F8012B03EB830301EBAD
:10B720004303A2F13001C8B20928A2F16106A2F1D7
:10B73000410CF0D9052EE7D8A2F15701E9E762B133
:10B74000252A7FF47CAF2646252015F01BFD16F830
:10B75000010B013500287FF478AF284607B0BDE81B
:10B76000F08F14F8011B78293FF669AF57294DD99E
:10B77000A1F15802202A3FF662AF01A050F822F052
:10B7800053BA00083FB600083FB600083FB60008AD
:10B790003FB600083FB600083FB600083FB60008B5
:10B7A0003FB600083FB600083FB6000883B800085F
:10B7B000A3B900083FB600083FB600083FB600082E
:10B7C0003FB600083FB600083FB600083FB6000885
:10B7D0003FB600083FB600087BB800083FB6000837
:10B7E0003FB600083FB600083FB6000817B800088B
:10B7F0003FB60008FDB900083FB600083FB6000894
:10B8000053BA0008A2780127033426E70029A4D000
:10B81000252998D013E75BF8048BB8F1000F00F0EE
:10B820004582464616F8010B002800F04E82CBB147
:10B83000324600E0B3B112F8011B1F46013B00295C
:10B84000F8D1023F73B1B946202015F09BFC4B465E
:10B85000002B09F1FF39F7DC98F8000027EAE773BD
:10B86000013340B101339F1B15F08CFCF31916F81E
:10B87000010B0028F8D11D44E1E65BF8043B1D6094
:10B88000DDE65BF8040BC0B2013515F07BFCD6E6B3
:10B89000DBF800000028C0F25481EC460928064677
:10B8A0004FF0010209DD02EB82025200B0FBF2F11F
:10B8B0000929F8D8002A00F09181D248A0FB02E1C2
:10B8C000B6FBF2F009288E4600F1570900F1300866
:10B8D0004FEAD10140F27981092A0CF8019B02FB61
:10B8E000106640F27B810A46E7E7DBF800C0BCF156
:10B8F000090F4FF0010209D902EB82025200BCFB92
:10B90000F2F10929F8D8002A00F0A6816E46B64661
:10B91000BC48A0FB0281BCFBF2F00928884600F17C
:10B92000570A00F130094FEAD10140F3B581092AE5
:10B930000EF801AB02FB10CC40F290810A46E7E71B
:10B940005BF804CBBCF10F0F4FF0010140F2D8813E
:10B950000901BCFBF1F00F28FAD8002900F0CB81D7
:10B960006E46B0460EE0582A0CBF4FF0370E4FF02F
:10B97000570E864401FB10CC090908F801EB0CD0E6
:10B98000BCFBF1F00928EEDC4FF0300E864401FBE1
:10B9900010CC090908F801EBF2D1002288F8002048
:10B9A00097E05BF8040B0028C0F28681EC4609287A
:10B9B00006464FF0010209DD02EB82025200B0FBA5
:10B9C000F2F10929F8D8002A00F057818D48A0FB30
:10B9D00002E1B6FBF2F009288E4600F1570900F1AA
:10B9E00030084FEAD10140F23F81092A0CF8019B4F
:10B9F00002FB106640F241810A46E7E75BF804CBA0
:10BA0000BCF1090F4FF0010209D902EB820252008A
:10BA1000BCFBF2F10929F8D8002A00F099806E46A3
:10BA2000B6467848A0FB0281BCFBF2F009288846A4
:10BA300000F1570A00F130094FEAD10140F32181AA
:10BA4000092A0EF801AB02FB10CC40F283800A46B3
:10BA5000E7E75BF804CBBCF10F0F4FF0010240F2B7
:10BA60004D811201BCFBF2F00F28FAD8002A00F039
:10BA70003F816E46582931461DD007E002FB10CCAD
:10BA8000120901F8018B22D0BCFBF2F0092800F169
:10BA9000570800F1300EF1DC02FB10CC120901F85E
:10BAA00001EBF1D113E002FB10CC120901F8018B7C
:10BAB0000DD0BCFBF2F0092800F1370800F1300E80
:10BAC000F1DC02FB10CC120901F801EBF1D10022EC
:10BAD0000A709DF80090002F14BF4FF030084FF00F
:10BAE0002008B9F1000F00F0FE800DF101021146AF
:10BAF0000BB91AE0CBB111F8010B1F46013B00282E
:10BB0000F8D1023F8BB1BA46404615F03BFB534695
:10BB1000002B0AF1FF3AF7DC27EAE7730133B9F1AA
:10BB2000000F3FF4A8AE0DF1010217469E1B4846D8
:10BB300015F028FBBB1917F8010B0028F8D11D449C
:10BB40007DE52D2240428DF800200DF1010CA5E687
:10BB50006E46B64600228EF800209DF80090002F19
:10BB600014BF4FF030084FF02008B9F1000F00F07B
:10BB7000B5800DF1010211460BB91AE0CBB111F8F5
:10BB8000010B1F46013B0028F8D1023F8BB1BA469A
:10BB9000404615F0F7FA5346002B0AF1FF3AF7DC5E
:10BBA00027EAE7730133B9F1000F3FF464AE0DF1FA
:10BBB000010217469E1B484615F0E4FABB1917F818
:10BBC000010B0028F8D11D4439E5092A0CF8018B36
:10BBD00002FB10664FEADE013FF685AE00220BF154
:10BBE000040B8CF800209DF80080002F14BF302734
:10BBF0002027B8F1000F6DD00DF10102114623B9D5
:10BC00001DE000BFCDCCCCCCCBB111F8010B1E4652
:10BC1000013B0028F8D1023E8BB1B146384615F001
:10BC2000B1FA4B46002B09F1FF39F7DC26EAE6733F
:10BC30000133B8F1000F3FF41EAE0DF101026E4664
:10BC400017469E1B404615F09DFABB1917F8010BCD
:10BC50000028F8D11D44F2E46E46B64600220BF1EE
:10BC6000040B8EF8002078E7092A0CF8018B02FB00
:10BC700010664FEADE013FF6BFAE00228CF80020CE
:10BC8000B1E7092A0EF8019B02FB10CC4FEAD8015C
:10BC90007FF660AF0A46C4E6092A0EF8019B02FB54
:10BCA00010CC4FEAD801D9D90A4631E6DFF85480E2
:10BCB000282008F10106BAE52D2240428DF8002027
:10BCC0000DF1010C73E6054647E55F1E002B7FF47E
:10BCD000BAADB4E45E1E002B9FD1B0E45F1E002B12
:10BCE0007FF455AFABE45F1E002B7FF40CAFA6E4EE
:10BCF0006E463146EBE66E46B0464EE66046B8E626
:10BD000060462DE688AA07082DE9F041C54BC64ECE
:10BD1000C64DC74C0822C3F88820336B82B043F06D
:10BD20000103336307464FF4C052284640F2023302
:10BD300088466946CDE900230AF0C8FF6B6AC4F85B
:10BD4000948F23F470436B626B6AC4F89C7F43F456
:10BD500020436B626B6AB749C4F8981F23F47023C1
:10BD60006B626B6AB448C4F8B00943F420236B6279
:10BD7000736CB249C4F8B41943F480437364736BB1
:10BD8000AF48B049C4F8C00943F08003022573638B
:10BD9000AD4F84F8B859AD4EAD4DC4F8041A4FF00C
:10BDA000A043C4F8BC39AB4AC4F8CC7903F534637A
:10BDB000A1F5D071C4F8085AC4F8D069C4F80C3A97
:10BDC000C4F8D4190123DFF8BCC2C4F8C8C907F508
:10BDD0001077A5F5E465A6F5A066A1F58C61C4F819
:10BDE000107AC4F8C459C4F87C6A84F8BB3905F5E4
:10BDF000A075536106F5B076C4F8401A84F8C23ACB
:10BE00001946954B954AC4F8485AA7F5BC67A03522
:10BE1000C4F8546A924EC4F8507AC4F8583A07F5F8
:10BE2000D45703F56953C4F85C5A4FF050250020ED
:10BE3000DFF854E2C4F8802AACF5687C02F5A04231
:10BE4000C4F8847AC4F8886A07F5A04706F5A046C6
:10BE5000C4F88C3AC4F8905AA3F5485304F51B650E
:10BE6000C4F8942AC4F89C6AC4F8BC3AC4F844EAFA
:10BE7000C4F84CCA0246C4F8987A2B4684F8C40A1F
:10BE8000402683F81C21A3F822210132042AC3E9A9
:10BE9000496083F81D1183F81F01C3F8300103F1D5
:10BEA0002803EED1002211462B46402083F874234C
:10BEB000A3F87A230132042AC3E9DF0183F875135A
:10BEC00083F87713C3F8881303F12803EED14FF0FA
:10BED000A04364489A6822F001029A60DA6842F04E
:10BEE0004002DA6009F0B0FF94F8B939002221214C
:10BEF00061F317420BB142F4801294F8B319D4F8ED
:10BF0000BC3901299A6300F0E480DA68D4F8BC6A8D
:10BF1000D4F8C009C2F3076121F0600141F040018B
:10BF200061F31F620021DA603160026861F3CC22A4
:10BF3000026094F8BB29012A00F0B88010214A4819
:10BF40000AF0D4FA48480AF0B7FAD4F8C00994F8CD
:10BF5000B13900224FF0FF31026142618161C2615B
:10BF600053B305F11407414E114607EB83074FEA1F
:10BF7000830C4FF0FF0E56F8042F1368002BACBF54
:10BF800000234FF09043B74213601161C2F808E0FC
:10BF9000F1D105F15003364963440027FF2651F8DB
:10BFA000042F1568002DACBF00254FF09045994235
:10BFB000156017619660F2D1036994F8B31943F4E0
:10BFC00080730129036161D0D4F8BC29294800237A
:10BFD000936100294FF0FF336FF08041516153604E
:10BFE000516114BF00231023906143F470139069D2
:10BFF000D4F8981F43F4605343F00803034393615C
:10C000009368096843F00103936088471A4B1B4A01
:10C01000DA6068461A4B0093FDF70EFB02B0BDE8EC
:10C02000F08100BF00E100E0003802400000024063
:10C03000604C0020FC030020080401004000400187
:10C0400000080050000B005020090050400900502B
:10C05000200B0050003C0140C00500500010005073
:10C06000003000501C56002010560020245600209E
:10C07000605600200008008000ED00E00005FA0591
:10C08000430200010009005020050050D4F8BC29EB
:10C09000144B03636FF08041134D00234FF0FF30CA
:10C0A000936151615060516195619EE701680F4A4B
:10C0B0000F4E41F003010160802159629E62C3F876
:10C0C0000421E022C3F80821C0F24002C3F80C2189
:10C0D00034E79A6822F03E0141F02A0161F3070239
:10C0E0009A6012E70301810000080080A000400070
:10C0F0008000200010B51A4C94F8A50FC0B9194B58
:10C1000083F8E908C3F8EC0894F8A83F012B05D0A0
:10C11000022B21D0D4F8AC3F1BB910BD124BC4F890
:10C12000AC3F12495B68BDE81040A1F10C00184714
:10C1300044F020FD94F8A72F0A49003A18BF0122C5
:10C1400081F8E928C1F8EC080028DDD02122C2805E
:10C15000202141F09BFED7E7054BC4F8AC3FE0E758
:10C16000604C0020702A00203C040020105C00205D
:10C170001804002099B10A6B824216D9154BD3F8E6
:10C18000EC2F914221D35C3991421ED30B6B984224
:10C19000F9D38B6B9842F6D80B46184670470D4B77
:10C1A000D3F8EC1F0A6B904212D30B680BB9F4E77B
:10C1B0000A6B90420B4602D38A6B9042EDD951F83C
:10C1C0005C3F002BF4D11846704700231846704797
:10C1D0000A46D8E7604C00202DE9F047CC0143D156
:10C1E0000346224A43F8082B4FF0FF3242600224F4
:10C1F00018467E26DFF87880D8F8F09F2644013E66
:10C20000051D49466FF070474FF0010A08E0A34250
:10C210001CD0631C45F8043C321B1C460435CAB1D3
:10C220000B6BA34202D88B6BA34204D22046FFF7CC
:10C23000A1FF014690B10A794B6B002AE7D1A342D6
:10C2400004D0E6D245F8042C631CE5E745F8047CED
:10C25000631CE1E7C8F8F01FBDE8F08745F804ACBF
:10C26000321B631C4946D8E78026C3E7F8FFFF0F5F
:10C27000604C0020114A30B502F580540023236041
:10C2800041F20C040E4D155141F204040D4D1551AF
:10C2900041F208040C4D155141F21004C2F8F80F98
:10C2A0001355A2F8FC1FA2F8FE3F282202FB03F45C
:10C2B000035301339942F9D130BD00BF604C0020D7
:10C2C00040420F0020A10700A01CE9FF70B4447990
:10C2D00041BB03684FF400524FF400762025022141
:10C2E0003CBB1A8C22F001021204120C1A841A8B25
:10C2F000188C22F0F30280B2120420F00A00120C13
:10C30000014342F0010241F001011A8319841A8BA2
:10C3100022F00C021204120C1A831A8B92B270BC17
:10C320001A83704700220368164615461146002CF2
:10C33000D7D0042C21D0082C38D0198C21F480516E
:10C340000904090C19849C8B1D8C45F6FF7040F67E
:10C35000FF4128402140024342F4805241F4807161
:10C3600099831A849A8B22F440621204120C9A83E5
:10C370009A8B92B270BC9A8370471A8C22F010028A
:10C380001204120C1A84188B198C89B240F6FF42E1
:10C3900021F0A00102400D4342F4807245F01005E7
:10C3A0001A831D841A8B22F44062B3E71A8C22F49C
:10C3B00080721204120C1A84998B1A8C21F0F301EA
:10C3C00092B2090422F42062090C324342F48072D2
:10C3D00041F0010199831A849A8B22F00C02C4E780
:10C3E00010B5044600680AF075FB0C4B9A6B2046AA
:10C3F00052084FF6FF7141F069F920460021FFF71E
:10C4000065FF0749074BC1F89C3D20460022BDE867
:10C41000104001F69C5141F0D7B800BF702A0020AF
:10C42000683B002051BE010870B53B4C54F8E43C19
:10C430005A0684B027D454F8D83C5B0654D454F838
:10C44000CC3C5E0653D454F8C03C5D0652D454F83C
:10C45000B43C580651D454F8A83C590650D454F86A
:10C460009C3C5A064FD454F8903C5B064ED454F88A
:10C47000843C13F040034CD1092244F8703C04F88A
:10C48000742C04B070BD00230121244A04F8741CEC
:10C4900092F8790192F87A1192F87B51204A00289B
:10C4A00014BF0220002003EB4303002914BF102116
:10C4B000002104EB8303002D18BF40F0010001436D
:10C4C00003264FF4E13513F9E00C0095CDE9016145
:10C4D000002340213CF083FF44F8700C0028D0D0AA
:10C4E000104B436304B070BD01230221CDE702234A
:10C4F0000321CAE703230421C7E704230521C4E776
:10C5000005230621C1E706230721BEE707230821EB
:10C51000BBE708230921B8E7585D0020683B0020ED
:10C520003D2B0208852A0208F0B5BB4D95F83D1059
:10C5300085B013292DD8DFE811F02F002F00C2009D
:10C54000D1033B041400140052039301CC012F00CB
:10C550002C004C0207039B04C200EF04F5041400F6
:10C56000F704AE4CAE4BAF48AF4A6B6406294FF0B0
:10C57000000384F84C3084F84D3084F84E30A864C1
:10C580002A6500F0C686122900F03485052900F0DE
:10C59000B685002005B0F0BDA04CA44A54F8E43C98
:10C5A00044F8202C5A0600F14B8754F8D83C5F061B
:10C5B00000F1578754F8CC3C5E0600F16F8754F8C1
:10C5C000C03C580600F1928754F8B43C5A0600F17A
:10C5D000948754F8A83C5F0600F1E68554F89C3C2B
:10C5E0005E0600F1BB8754F8903C580600F1C48702
:10C5F00054F8843C13F0400000F0F584082209262A
:10C60000002013F4057F04F8746C04F81C0C00F08F
:10C610000B86022940F2F086CB1E042B40F2AF8637
:10C620000A2900F0D086002900F0908602EB420231
:10C6300004EB82037C4A13F9E00C7D4B7D4E7E496E
:10C640006E64C5E91332A96400274FF0010C7B4EDC
:10C6500096F8792196F87A31002A14BF0222002236
:10C66000002B40F03A8614F81C3C002B14BF10231A
:10C67000002396F87B11CDF804C0002918BF42F0C2
:10C68000010213434FF4E13202930092674B6C4A6C
:10C6900040213CF0A4FE44F80C0C0FB144F8080C07
:10C6A00096F8803195F83E20013BDBB29A4204F8BF
:10C6B000043C00F20E83002304F8043C09E3B5F8BF
:10C6C0006030604A5D4E554C96F88C01DFF88CC1A5
:10C6D0005D4F6C651B01A2FB0323DB08A3F5B06370
:10C6E0009BB2002263F30F0263F31F42002842F65D
:10C6F000F823C4E90022C4E90222C4E90422C4E9FF
:10C700000622226204F1240241F27070AA6508BF79
:10C7100018464FF0120254F8E43CA5F8400085F8A2
:10C720003E204A48404A686418BF674648482A6520
:10C730005A06A764A86400F1878654F8D83C5D06C1
:10C7400000F1898654F8CC3C580600F19C8654F8D8
:10C75000C03C5A0600F1AE8654F8B43C5D0600F1C8
:10C76000D78654F8A83C580600F1178554F89C3C2D
:10C770005A0600F1E78654F8903C5D0600F1068702
:10C7800054F8843C13F0400000F02D840822092066
:10C7900013F4057F04F8740C40F0358603F48253DB
:10C7A000B3F5825F00F0A7850F2900F0A78502EBA3
:10C7B000420204EB8203002513F9E00C4FF0010C58
:10C7C00096F8792196F87A31002A14BF0C220E22AD
:10C7D000002B40F085850F290CBF1023002396F80D
:10C7E0007B11CDF804C0002918BF42F001021343A9
:10C7F0000293184A184B009740213CF0F0FD96F840
:10C80000843113B1052386F89531002D00F0618243
:10C8100044F8080C5DE200BF702A0020585D00203B
:10C820006D180208951802089DA90208AC2A00207C
:10C83000F92C02084D2D0208A92D0208683B0020A2
:10C8400035320208CDCCCCCCA086010049A202082A
:10C8500069A2020811A402087C5D0020400D0300BB
:10C86000A74CA84B6B6428211023A74A84F87210A8
:10C87000002741F27C5185F83E304020A34B84F8DC
:10C880007170A5F84010AA642B653CF047FD0028A4
:10C890003FF47FAE9E4E9F4996F8792196F87B3102
:10C8A00090F904000091BA4214BF12221022BB4238
:10C8B00018BF42F001020321CDE901123B46964A1E
:10C8C00040213CF08CFD6067C01B18BF012005B003
:10C8D000F0BDB5F86030914A894C914868641B01FD
:10C8E000A2FB03238F4854F8E42CA864DB08A3F5CB
:10C8F000B06341F60B20C4E91E33C4E92033C4E918
:10C900002233C4E92433C4E92633C4E92833C4E913
:10C910002A33C4E92C3310267C4BA5F8400050067E
:10C9200085F83E602B6500F1828554F8D83C5A06A4
:10C9300000F19F8554F8CC3C5B0600F1A88554F8C3
:10C94000C03C5F0600F1C68554F8B43C5E0600F1B9
:10C95000EA8554F8A83C5D0600F1548454F89C3CE8
:10C96000580600F1EB8554F8903C5A0600F11A86FF
:10C9700054F8840C10F0400000F035830823644E16
:10C98000694D96F8792196F87B010095002A03EB12
:10C99000430304EB830314BF02220022002818BFC4
:10C9A00042F00102032513F9E00C604BCDE901527E
:10C9B00004F8741C5E4A40213CF011FD96F8953154
:10C9C000C4F8B800002B40F08481062386F8953126
:10C9D0007FE1B5F86030514A494C564969641B0102
:10C9E000A2FB0323DB08A3F5B0639BB2002263F331
:10C9F0000F0263F31F421223C4E94122C4E9432218
:10CA0000C4E94522C4E9472254F8E41CC4F82421AF
:10CA100085F83E30484A3D4B4848A864C5E9132391
:10CA200004F5827642F6F8204B066E65A5F84000C4
:10CA300000F1F98454F8D83C5F0600F1168554F8EB
:10CA4000CC3C5E0600F12E8554F8C03C5D0600F13A
:10CA5000458554F8B43C580600F1568554F8A83C76
:10CA6000590600F1CC8354F89C3C5A0600F16285CB
:10CA700054F8903C5B0600F1918554F8840C10F05A
:10CA8000400000F0B08208230927214E04F8747C8E
:10CA900096F8790196F87A1196F87B51284A002881
:10CAA00014BF0220002003EB4303002914BF3021F0
:10CAB000002104EB8303002D18BF40F00100014367
:10CAC00003254FF4E13713F9E00C0097CDE901514C
:10CAD000002340213CF083FCC4F82801002800F02A
:10CAE000F88018480DF032F996F8953184F82C0149
:10CAF000D4F82801002B40F0EC8086F89551E8E04E
:10CB0000585D002069AA020891AA02089DA902089E
:10CB1000683B002048E8010031AB0208CDCCCCCC0A
:10CB200095A5020821A60208A0680600AC2A0020EC
:10CB3000F9E2020849A20208055602084950020813
:10CB4000D9160208A9550208BA4EBB4C96F88A318C
:10CB500096F88B2104F8283CA4F1680304F8272CEC
:10CB60006B654FF080224FF0802344E91A2344E99B
:10CB7000182344E9162344E9142344E9122344E921
:10CB8000102344E90E2344E90C23202242F6F82323
:10CB900085F83E20A5F84030A84AA94B54F8701CEF
:10CBA000A84FA9486F64C5E91332A864002900F0B2
:10CBB0009A83012304F8263C41F0F0FC96F8953165
:10CBC00000F54340503044F8240C13B9032386F891
:10CBD000953154F8700C003818BF012077E6964C58
:10CBE0009A4A54F8E43C6A6444F620601226A5F898
:10CBF0004000924885F83E600022954E2865580610
:10CC000084F85720AE6400F1168454F8D83C5A06D4
:10CC100000F11E8454F8CC3C5F0600F1478454F8C0
:10CC2000C03C5E0600F15E8454F8B43C5D0600F141
:10CC3000738454F8A83C580600F1B38254F89C3C25
:10CC40005A0600F1888454F8903C5F0600F1908405
:10CC500054F8843C13F0400000F0C58108220921FB
:10CC600003F48253B3F5825F04F8741C00F0BB83B5
:10CC700002EB420204EB8202002512F9E00C0127CC
:10CC80006C4E96F8793196F87A11002B4FF000032C
:10CC900014BF02221A4684F85830002940F0088355
:10CCA000002D00F07F8396F87B310197002B18BF91
:10CCB00042F0010242F010024FF4E13502920B46BD
:10CCC000644A009540213CF08AFB0023E06584F82B
:10CCD0006030003818BF012005B0F0BD564C5E4AE8
:10CCE00054F8E43C6A64122042F6F82285F83E00CB
:10CCF000A5F840205948514AA8645F062A6500F10A
:10CD00008F8354F8D83C5E0600F1B78354F8CC3CCE
:10CD10005D0600F1B58354F8C03C580600F1EA8383
:10CD200054F8B43C5A0600F1EC8354F8A83C5F0672
:10CD300000F1628254F89C3C5E0600F1078454F8CE
:10CD4000903C5D0600F1268454F8843C13F04000CA
:10CD500000F049810822092013F4057504F8740CC9
:10CD600000F0548202EB420204EB8203012513F926
:10CD7000E00C304E019196F8791196F87A3196F8D8
:10CD80007B61374A002914BF02210021002B14BF08
:10CD900010230023002E18BF41F001010B434FF474
:10CDA000E13102930091002340213CF018FB2CE577
:10CDB0002C4A2D4B082042F6F82185F83E004020F1
:10CDC000C5E91123A5F840103CF0A8FA0446002854
:10CDD0003FF4DFAB95F83D10164E10F079FB96F856
:10CDE000792196F87A3196F87B51014694F904003E
:10CDF0000C1E14BF03210121002A14BF02220022AD
:10CE0000002B14BF10230023002D18BF42F0010295
:10CE100013434FF4E132CDE9011300920023134A8A
:10CE200040213CF0DCFA002C3FF453AF024B43F8B6
:10CE3000080C4EE7683B0020585D00209DA90208C1
:10CE4000052A0208CD29020825570208EDAF02087D
:10CE5000C5C5020801B0020849240208612402087D
:10CE600039250208B5230208D92302087D290208C2
:10CE7000B5F86030CE4ACF4CCF4969641B01A2FBA4
:10CE80000323DB08A3F5B06341F29410C4E9303307
:10CE9000C4E93233C4E93433C4E93633C4E938333E
:10CEA000C4E93A33C4E93C33C4E93E33C34AC44B12
:10CEB000C449A5F8400010264020C5E9133285F882
:10CEC0003E60A9643CF02AFA00283FF462ABBE4EF3
:10CED000BE4996F8793196F87B2190F904000091CB
:10CEE000002B14BF32233023002A18BF43F0010364
:10CEF0000325CDE90153B64A002340213CF06FFAE7
:10CF000096F89531B34AC4F800014263002B6FD103
:10CF100086F895510120DAE4012005B0BDE8F04023
:10CF2000FBF7AABD0020F8E7AB4BAC4F6B6444F6AF
:10CF30002062122385F83E30A5F84020A84BA94A6C
:10CF40009C4CAB64EA649D4B2B654FF4AA720021A4
:10CF500007F5367064F026FB54F8E40C40F2DC521E
:10CF600040F2DC5301214606C7E9B623C7E9B823DE
:10CF7000C7E9BA23C7E9BC23C7E9BE23C7E9C02371
:10CF8000C7E9C223C7E9C423C7E9C62387F8D71373
:10CF900000F1538254F8D83C5D0600F1608254F8E9
:10CFA000CC3C580600F1778254F8C03C590600F199
:10CFB0008E8254F8B43C5A0600F1B28254F8A83C70
:10CFC0005B0600F1B08054F89C3C5E0600F1CA821A
:10CFD00054F8903C5D0600F1D38254F8840C10F0B4
:10CFE000400040F0E382092304F8743C05B0F0BD32
:10CFF00001206CE4102343F2B06085F83E3040F627
:10D000008C2284F85530A5F840004723764D84F8EB
:10D010005610226584F8543054F8E43C580600F168
:10D02000868254F8D83C5A0600F19F8254F8CC3CD2
:10D030005F0600F1A88254F8C03C5E0600F1B98298
:10D0400054F8B43C580600F1B78254F8A83C5A068C
:10D0500000F1B58254F89C3C5F0600F1B38254F8AD
:10D06000903C5E0600F1B18254F8843C13F040001D
:10D07000B9D00822092013F4057F04F8740C00F0DD
:10D0800005810F2900F01A82122900F0AF820529CC
:10D0900000F0AC82062900F0A982072900F0A682E0
:10D0A00003F48253B3F5825F00F0F98002EB420291
:10D0B00004EB8202002712F9E00C0123424E019397
:10D0C00096F8792196F87A3196F87B110095002A26
:10D0D00014BF02220022002B14BF102300230029BA
:10D0E00018BF42F0010213430293404A002340213B
:10D0F0003CF075F9002F3FF4ECADFFF789BB0C2332
:10D1000085F83E3042F6F8204FF4FA5284F8553054
:10D110001B23A5F8400084F85610226584F854308B
:10D120004FF4E13578E705210625274E304896F87B
:10D13000793196F87B210090002B01EB410104EB43
:10D14000810114BF32233023002A18BF43F00103AA
:10D15000032211F9E00CCDE90123402104F8745CAD
:10D16000244A00233CF03BF90546C7F8280378B170
:10D1700000233F22656687F82C2487F82D2484F845
:10D18000683084F86930E36684F8703022F074F80F
:10D19000281E18BF0120FFF79ABB05220620FFF7C3
:10D1A000F7BA052206215BE505220626FFF728BA15
:10D1B000CDCCCCCC585D0020E1A402089DA902088A
:10D1C0005DE10208D9A80208683B0020A0680600BB
:10D1D0000DA50208D1A4020835AC02088801002080
:10D1E00049AC02084D17030890D00300F91C02084F
:10D1F00060E31600D1AC020805220620ACE5052349
:10D20000062742E405230621FFF7B9BB03F4825346
:10D21000B3F5825F00F0DF8002EB420204EB820292
:10D22000012112F9E00CA4E503F48253B3F5825F07
:10D2300000F0A28001297FF4F3A90027032107232E
:10D2400004F8141C04F8133C01214FF4006304F8A3
:10D25000121C44F8103C0C2142F6F82385F83E10CD
:10D26000A5F8403002EB420204EB8202D84B12F9DF
:10D27000E00CAB64D74AD84BD8496964C5E913328E
:10D28000002F59D04FF0030CFFF7E1B903F482539C
:10D29000B3F5825F7FF40AAF072900F00F8102EB3C
:10D2A000420204EB8203002713F9E00C012305E797
:10D2B00096F87B110197002918BF42F0010242F055
:10D2C00010024FF4E13102920091C54A40213CF036
:10D2D00086F8002D3FF4FDACF7E41023FFF7C9B941
:10D2E0001023FFF77CBAFFF79FF854F8703C002B2F
:10D2F0003FF44FA95DE407297FF456AA02EB4202EE
:10D3000004EB8202012512F9E00C4FF0030CFFF749
:10D3100057BA0C2385F83E3043F2B0604FF4FA520E
:10D3200084F855302123A5F8400084F85610AD4DFF
:10D33000226584F854306FE614F81C3C002B14BFAF
:10D340004FF0030C4FF0010CFFF781B90F4602219B
:10D35000032304F8141C04F8133C00214FF48063E9
:10D3600004F8121C44F8103C072145F2F05385F8EC
:10D370003E10A5F8403075E707297FF45BAF02EB5C
:10D38000420204EB8203934A13F9E00C924B934E52
:10D390008F496E64C5E91332A96401274FF0030C6D
:10D3A000FFF755B996F87B310197002B18BF42F073
:10D3B00001024FF4E13102920091894A2B4640214B
:10D3C0003CF00DF885E454F8183CC3F3802304F8CE
:10D3D0001C3C002732E702EB420204EB82030121EE
:10D3E00013F9E00CC5E402EB420204EB82030125D1
:10D3F00013F9E00C032743E4012900F0AA80002977
:10D40000BDD10127A3E77848C840C0073FF576AFF4
:10D4100003F48253B3F5825F7FF4C6A9FFF7C7B95F
:10D420000022012098E400230127FFF72EBB0023F0
:10D430000121FFF7A4BA012112E40D46002174E690
:10D4400000220126FFF7DCB800220120FFF7A0B977
:10D450000122022104E401220220FFF799B90225EA
:10D4600063E601220226FFF7CBB801230227FFF76C
:10D470000CBB01230221FFF782BA012202206BE4D8
:10D480000846022268E402220320FFF781B9022342
:10D490000321FFF774BA0221032546E60222032680
:10D4A000FFF7AEB802230327FFF7EFBA02220321EA
:10D4B000FFF7D6BB03220420FFF76AB902EB420252
:10D4C00004EB8203012713F9E00C0323F6E50321A3
:10D4D00004252AE603230421FFF751BA0323042776
:10D4E000FFF7D3BA03220421FFF7BABB03220426B5
:10D4F000FFF786B8032204202EE404220526FFF756
:10D500007FB80422052027E404230527FFF7BDBACE
:10D5100004220520FFF73CB904220521FFF7A0BB38
:10D520000421052501E604230521FFF728BA00227E
:10D530000120A0E506230727FFF7A7BA0623072146
:10D54000FFF71DBA06220720FFF722B9062207209F
:10D5500002E40F4672E60622FFF782BB0622072688
:10D56000FFF74EB806210725DFE50122022082E5FC
:10D5700007220821FFF774BB07220826FFF740B8EF
:10D5800007210825D1E50222032074E5072208209F
:10D59000FFF7FEB807220820FFF7DEBB07230827A6
:10D5A000FFF773BA07230821FFF7E9B90821092516
:10D5B000BBE5032204205EE5042205205BE505228D
:10D5C000062058E50622072055E50722082052E5E7
:10D5D000A92D02089DA90208F92C02084D2D020868
:10D5E00001B0020890D00300FF8004000C2303FB6D
:10D5F0000242012712F9E00C03235FE510B5104C3D
:10D60000104BC4F830310121002304F5987084F8E0
:10D610003C3184F83F3184F841310FF0BFF8D4F841
:10D6200030315B6C0121FF2284F83D1184F83E21EA
:10D6300023B104F59870BDE81040184710BD00BF35
:10D64000585D0020FC1907080449054A054B836012
:10D65000C0E900120C3050F079BC00BF4DDF050866
:10D6600005C30508B1C205082DE9F04FB44CB54A11
:10D67000B4F8D011B4F8CE312DED088B07EE901A26
:10D680000AEE903A92F84531DFEDAFBA9FEDAFBAAE
:10D69000B8EE67AA07EE903AB2F84631F8EEE77AAC
:10D6A000F2EE046A0A2B87EEA67AB8BF0A2385B089
:10D6B00004F6842704F66C6A04F6846604F5AC5B11
:10D6C00007EE903AB2F8483187ED007A08EE103A4A
:10D6D000F8EEE78AB8EEC88AB6EE009AF4EE488A09
:10D6E0002AEE090AF1EE10FAC8BFB0EE688A92F885
:10D6F0004431C7ED018AB4EEC80AF1EE10FAD8BF82
:10D70000B0EE408A082B4FF00002A8BF0823B1F505
:10D710007A7F38BF134680EE080AC4F8942AC4F80A
:10D72000903A87ED028A61F08FFBF7EE009AB4EE33
:10D73000690AF1EE10FA48BFB0EE690AFDEEC07A50
:10D74000F8EE6AAAB8EEE77A17EE905ACAEE8A7A2D
:10D7500004F65C63C4F8585EDFED7DAA67EE877A55
:10D76000C9EEA76ADFED7B7AC3ED006ACAEE076AED
:10D7700004F5666386EEA7AA88EE8A0A83ED00AAFE
:10D7800061F0E2FB0228B8BF022088EE0A0A804658
:10D79000C4F8640E61F0D8FB2328A8BF2320B8F199
:10D7A000230FA8BF4FF023084045C4F8680EB8BF48
:10D7B0004046A0EB0802012DDAED007A9FED668A63
:10D7C00066498146B8BF01250132F5EE407AF1EE97
:10D7D00010FA2BD162480195002302961D46064699
:10D7E00007EE905AB8EEE7AA03922AEE2BAA01356B
:10D7F000B0EE4A0A61F0E0FAF0EE408AB0EE4A0A72
:10D8000061F074FCE0EE088A242D5449039A68EE16
:10D81000AA8A20EE2A0AC6ED008A86ED010A06F1E0
:10D820000806DDD1DDE90156F0EE4B7A002346E92A
:10D83000053892FBF5F046F80C9C46F8080C46F8C3
:10D84000045C30460133482BA0EC018AFAD1D1F8B0
:10D8500058E1D1F85CC106F590730020013024280E
:10D86000C3F800E0C3F804C003F10803F6D106F5DD
:10D8700015765E45A9D1DFF8F090DFED3A8ACAED62
:10D88000007A0026BD19CA464FF00008D4F8903A35
:10D89000984548DA07EE908A97ED016AF8EEE76A54
:10D8A000D7ED027A36EE897A77EEC67A67EE877A16
:10D8B00007EE103AB8EEC77AB4F8CE3187EE870A91
:10D8C00030EE060AB5EEC00AAAEC010AF1EE10FA33
:10D8D00097ED001A85ED208A85ED1F8A85ED1E8A59
:10D8E00085ED1D8A11DD83B1A6EEA81AB5EEC01A2A
:10D8F000F1EE10FA09DD07EE903A0421F8EE670A1E
:10D9000005F1740053F0D4FF09E0C5ED219A85EDCF
:10D91000228A85ED238A85ED248A85ED258A08F102
:10D9200001082435B2E706F59076B6F5587F09F17F
:10D930002009A7D105B0BDEC088BBDE8F08F00BF72
