:020000040800F2
:10000000F0FF0120E5EB05089DE50008094804081C
:100010005DEC05085DEC05085DEC050800000000DE
:1000200000000000000000000000000099E500084A
:1000300095E500080000000091E5000881480408EB
:100040005DEC05085DEC05085DEC05085DEC050858
:100050005DEC05085DEC0508A9C7040871C7040834
:1000600039C7040801C70408C9C60408CDB4050887
:10007000BDB40508ADB405089DB4050889B40508EC
:1000800075B4050861B405085DEC050800000000C2
:1000900000000000000000000000000091C60408FD
:1000A000A1050408F10504089105040819060408CF
:1000B000E1050408D1050408C10504088DE605081A
:1000C00095E6050881E6050889E605085DEC050862
:1000D0005DEC0508257804086D7704080000000031
:1000E00059C604085DEC0508E92401080000000079
:1000F0000000000000000000000000004DB40508F2
:10010000000000005DEC0508B10504085DEC050881
:1001100000000000000000000000000000000000DF
:1001200039B4050825B4050811B40508FDB3050860
:10013000E9B3050800000000000000000000000016
:100140000000000000000000000000001D05010884
:10015000D5B30508C1B30508ADB30508B5760408E5
:1001600075E605087DE605080000000000000000B7
:10017000000000000000000000000000000000007F
:10018000000000005DEC0508000000000000000019
:080190005DEC05085DEC0508BB
:0801980084E7050001000000EE
:08280000082800080040000850
:04400000FFFFFFFFC0
:108000000A480B4B816910B40A4C83608A1E2231E6
:10801000838C1B01A4FB03C3DB08A3F5B06322F828
:10802000023F9142F4D15DF8044B7047600D00208F
:1080300065220208CDCCCCCC036870B55E6A26B14F
:1080400033461522BDE87040184704460D4601F13D
:10805000150600E023689B68204698470028F9D061
:10806000236815F8011B1B6820469847B542F1D1DB
:1080700070BD00BF084AD2E90D31994209D0D1182C
:10808000013391F83C100170C3F30A0353630120DC
:1080900070470020704700BF600D0020044BD3E9FB
:1080A0000D30C01AC0F30A00C0F50060704700BF71
:1080B000600D0020012380F85130704707B501A8FA
:1080C000FFF7D8FF0028FAD09DF8040003B05DF850
:1080D00004FB034BD3E90D30C01AC0F30A0070470C
:1080E000600D002001207047024BC3F83C28C3F804
:1080F00040187047600D0020024BC3F84428C3F8B5
:1081000048187047600D00207047704730B4114D1B
:10811000D5E90D239A1AC2F30A020A44B2F5006F98
:1081200012D8A1B101444A1E013810F8014FE918D4
:10813000824203F1010381F83C40C3F30A03F4D106
:10814000AB63002030BC7047022030BC704708464B
:10815000F8E700BF600D0020212838B50C4605D097
:1081600022282ED0202813D0002038BD0029FBD093
:10817000072AF9D11A4BD3F84C0893F8501893F802
:10818000512893F85238206021716271A371EBE796
:108190000029E9D0072AE7D1114DD5F840381BB1A5
:1081A0000968D5F83C089847206821796279A37955
:1081B000C5F84C0885F8501885F8512885F85238CC
:1081C000D2E70029D0D0022ACED1054AD2F84838C9
:1081D000002BC9D00988D2F844089847C4E700BFEB
:1081E000600D0020024B0020C3F85408704700BF08
:1081F000600D0020044B00200522C3F85428C3F86A
:108200004808C3F840087047600D0020704700BF61
:10821000704700BF704700BF704700BF704700BF86
:10822000704700BF704700BF042301480B807047B0
:108230009801002010B4074A074B92F858081224FE
:1082400003F114020C8001280CBF184610465DF89B
:10825000044B7047600D00209C01002010B40C4AB4
:1082600092F85C3802EBC3010133DBB2042B4FF010
:10827000050408BF00234FF4045081F8604882F8D9
:108280005C38C1F864085DF8044B4FF0FF3070476C
:10829000600D0020202301480B807047C40100209E
:1082A000642301480B807047E40100204323014808
:1082B0000B8070474802002010B5084CD4F8F40039
:1082C000FF2809D00649D1F8802801F68401FFF77C
:1082D00043FFFF23C4F8F430002010BD98010020B4
:1082E000600D0020E8E700BF08B5D0F8E4355B6A10
:1082F0009847002008BD00BF08B5D0F8E4351B6AD8
:108300009847002008BD00BFD0F8E43510B50446FA
:108310001B689847D4F8E8359B689847002010BD43
:1083200008B5D0F8E435DB6903B19847002008BDF3
:1083300008B5042290F81211D0F8E83580F813112E
:1083400080F81221DB689847002008BD10B5D0F8EE
:10835000E83504461B699847032384F8123100204E
:1083600010BD00BF0B0617D401EB810300EBC30364
:1083700010B400EB81000124002283F8764383F8D7
:10838000741383F87523426D5DF8044B136843F44E
:10839000001300201360704701F07F0101EB81039F
:1083A00000EBC303012200EB810083F81C1183F86A
:1083B0001E2183F81D2182691368002B01DA43F026
:1083C000804343F400131360002070470B0630B461
:1083D0001CD401EB810200EBC202002300EB8105FB
:1083E00082F8741382F8753301241A4604FA01F1F5
:1083F0006D6D61F31F4201696FF3CF332B60CB6961
:1084000023EA0203002030BCCB61704701F07F01FA
:1084100001EB810400EBC404012200EB8105002381
:1084200084F81C1184F81D2102FA01F11A46AD6985
:1084300061F30F02DFE700BF10B581210446FFF7AB
:10844000C5FF20460121FFF7C1FF024B002083F842
:108450008C0810BD600D002010B581210446FFF787
:10846000B5FF20460121FFF7B1FF82212046FFF72B
:10847000ADFFFFF7B7FE002010BD00BF38B50D46B9
:1084800004468321FFF7A2FF29462046FFF7E4FFB9
:10849000002038BDF0B416460A063AD401EB810537
:1084A00000EBC5052824002204FB0104022B85F8FB
:1084B0007413C5F87C6385F8773385F8752304F564
:1084C0005D7448D0154600EB8107012202FA01F1E4
:1084D0007F6D61F31F45D7F800C01CF4004F11D128
:1084E000E488204946F0805242F4004242EA834246
:1084F00004F00F041C4B42EA845211400CEA0303BF
:10850000194339600269D3692B430020F0BCD36161
:10851000704701F07F0101EB810500EBC5052824C0
:10852000012204FB0104022B85F81C11C5F824610B
:1085300085F81F31A5F8221185F81D2104F58E74E8
:108540000CD0002500EB8107012202FA01F1BF697E
:1085500061F30F05BFE722711546B4E700252571C9
:10856000F0E700BFFF87CC13007833EC002310B591
:10857000194604464022FFF78DFF80212046002344
:108580004022FFF787FFD4F8E835A078012284F86D
:1085900012215B689847002010BD00BF82B0002305
:1085A000016801930B6901930E4B03E00A69019284
:1085B000013B13D0019A002AF8DA019A094B42F0E4
:1085C00001020192019A0A610A69019203E00A69B3
:1085D0000192013B02D0019AD207F8D4002002B0E8
:1085E000704700BF400D0300436D064A1A61C27810
:1085F000012A06D100F2CC5058614FF08022196850
:108600001A6070471800086010B580210446FFF713
:10861000A9FE20460021FFF7A5FE2046BDE8104038
:10862000E2E700BF70B44B78012B26D00B784A6983
:1086300000EB83035D6D2C682B69D2B18A684A61B7
:1086400002F07F0223F4002323F07F0342F4002290
:1086500013432B61C378012B04BF0B696B61C4F317
:10866000076363F07B0363F31F642C60002070BC1E
:1086700070478A6802F07F02E4E782694D691468F6
:10868000136945B38E68B5428CBF06F07F0505F0CF
:108690007F0523F4002323F07F0345F4002543EAFC
:1086A000050388BF4E611361C378012B1DD0C4F34D
:1086B000076565F07B0565F31F641460002BD5D159
:1086C0004B69002BD2D002690878516B012383409B
:1086D0000B435363CAE723F4002323F07F0343F4DF
:1086E00000231361C378012BE1D10B780D6900EBF6
:1086F0008300C4F30763816963F07B0363F31F6442
:108700004D610020146070BC704700BF2DE9F0433C
:108710004B78012B30D00B784C6900EB83035E6DF6
:10872000356837691CB38B681C44013CB4FBF3F417
:10873000C4F3090203FB02F3C3F312034B611446B3
:1087400043EAC44363F31C073761C378012B04BFBA
:108750000B697361CB78012B44D0C5F3076363F0D9
:108760007B0363F31F6535600020BDE8F0838A68F2
:108770000124C2F31203E3E791F800804E6900EB95
:10878000880EDEF818C0DCF80050DCF8107076B304
:10879000D1F80890384A06EB0904013CB4FBF9F41F
:1087A00002EAC444C6F312022243CC7807F06047C1
:1087B0003A43012C174649D0CCF81020C278012A40
:1087C00055D00269516B03FA08F30B435363C5F3A9
:1087D000076363F07B0363F31F65CCF80050002050
:1087E000BDE8F0834B7973B345F00055B5E707F06A
:1087F000604747F40027CC78CCF81070C378012B81
:108800002FD0012CE3D102699268D20554BF45F004
:10881000005545F08055C5F3076262F07B0262F3B4
:108820001F65CCF80050002B9ED1B0B203308010F1
:10883000DEF8D04098D0CA6852F8041B216001339A
:108840009842F9D190E745F0805586E764F35E776A
:10885000CCF81070C378012BD5D10A69CCF814205C
:10886000D1E70A69CCF81420012CB0D1CBE70B6911
:10887000CCF81430ABE700BF0000F81F38B501EBAF
:10888000810400EBC4040D46002184F87453C4F83D
:108890008C1384F87513C4F88833C4F88023C37824
:1088A0002821012B01FB050108BFEDB201F55D7127
:1088B00008BFC4F884231DB9FFF7B4FE002038BDFB
:1088C000FFF724FF002038BD70B5104BD3F898286F
:1088D00093F8B05804461AB193F89C382B430DD046
:1088E00081212046FFF73EFD022D00D070BD2046BD
:1088F000074ABDE870401F230121BFE70121FFF7B0
:1089000031FD20468121BDE870402BE5600D00203F
:10891000F015002010B501EB8101084A00EBC10100
:108920000446B1F88C131046FFF7F0FB034A2046CB
:1089300040230121FFF7A2FF002010BD14160020E4
:10894000E8E700BF10B50223044640228121FFF76B
:10895000A1FD2046022340220121FFF79BFD822139
:10896000204603230822FFF795FD064B02229A8337
:10897000FFF740FC044A204640230121FFF77EFF19
:10898000002010BD980100201416002038B50922DF
:108990000D46044603238321FFF77CFD294620462C
:1089A000FFF7D0FF002038BD82B000230193019A69
:1089B000094B42F010020192C168019A0A610A69EA
:1089C000019203E00A690192013B02D0019AD206AA
:1089D000F8D4002002B07047400D030082B000239D
:1089E0000193019A0B4B42F020020192019A61F32C
:1089F0008A120192C168019A0A610A69019203E030
:108A00000A690192013B02D0019A9206F8D4002033
:108A100002B07047400D030070B50446144EFFF7D6
:108A20000BFD2046022340228121FFF733FD402227
:108A3000012120460223FFF72DFDD6F8F43800254A
:108A40001B6886F88C58284686F8B0589847204608
:108A5000FFF7AAFF20460121FFF7C0FF204606F5D9
:108A600009621F230121FFF709FF284670BD00BFDF
:108A7000600D00200E4BDA68D20310D4DA68D106FC
:108A80000FD4DA68D20510D4DA6812F0E00F0AD1F8
:108A9000DB6813F0020F14BF082009207047012083
:108AA000704706207047072070470220704700BFBC
:108AB000003C02402DE9F04700230F6801264FF0EB
:108AC000030C02E00133102B41D006FA03F232EA24
:108AD0000704F7D1D0F800E05C000CFA04F52EEAA8
:108AE000050EC0F800E091F80490D0F800A009FA53
:108AF00004FE09F1FF394EEA0A0EB9F1010FA8464A
:108B0000C0F800E06FEA050515D8D0F808E005EADE
:108B10000E0585604D79D0F808E0A54045EA0E05C0
:108B20008560456825EA020242608A7945689A4074
:108B300092B22A434260C26822EA0802C260CA793D
:108B4000C568A24001332A43102BC260BDD1BDE8E5
:108B5000F087064BFF2283F8F82883F8242983F84E
:108B6000502983F87C2983F8A8297047600D0020DC
:108B700070B5144C94F8D439002BFBD1F9B10144F1
:108B80004E1E451E02E001203BF09EFDD4F8D83970
:108B9000D4F8DC290133C3F30A039342F3D0D4F8A9
:108BA000D829D4F8D83915F8011F22440133C3F36A
:108BB0000A03B54282F8E019C4F8D839E6D100209A
:108BC00070BD00BF600D00200A4B0846D3F8541852
:108BD00010B569B1D3F85438052B09D1064C002AD9
:108BE000D4F8E83004DD1146FFF7C2FFD4F8E830CE
:108BF00010BD00BF600D0020581E002010B590F879
:108C00005010002380F8503089B10C4CD4F854280F
:108C10007AB1D4F85428052A0DD1094C3C30D4F847
:108C2000E830FFF7A5FFD4F8E830012010BD01209F
:108C3000FCE71046FAE71846F8E700BF600D002091
:108C4000581E0020002280F85120D7E790F85020CD
:108C5000531C0244DBB280F8503082F83C1090F88C
:108C600051200AB1132B00D9C8E77047F0B5254D44
:108C7000254CAC6185B00646FFF7C2F9234A244B68
:108C80001A214020C5E90323A97036F0EBFF002824
:108C900036D094F83D3094F83E5094F83F7090F9F7
:108CA00004001C4A002E14BF4FF4E1314FF4E121BF
:108CB000002B14BF02230023002D14BF30250025F4
:108CC000002F18BF43F001032B430325CDE90153C7
:108CD00000910023402136F0A9FCEC3CC4F840018F
:108CE00058B10D480EF0C4FF94F8453184F84401A2
:108CF000D4F840010BB984F84551003818BF012061
:108D000005B0F0BD600D0020441F002031B6010801
:108D100041BA0108D1AD010855BB01082DE9F04F5A
:108D2000DFF82C93C04F4D4606460FCD07F5A474CF
:108D30002DED048B0FC40FCD0FC48DB097F87A3191
:108D40002A682260049697F880210A2B0CD8DFE865
:108D500013F0F6010B006A02F1010B000B000B008F
:108D60000B000B000B00EC01DFEDB07AF0EE678A30
:108D7000002AAF49AF4AC7F85821AF48AF4BC7F8F0
:108D800060010EBF002201220B46059237EEA87A41
:108D9000F5EE006AC6EE879AA94DC7F85C314FF030
:108DA0000008A5F1230305F1700BAA46019345467F
:108DB0009FEDA48A9FEDA49A27EE888A049BAB427C
:108DC00040F39281019B13F8014B0193002C00F0BA
:108DD000D181002302E0152B00F0CC8103EB43028C
:108DE0004FEA43081BF80210A14203F10103F2D13C
:108DF0003A4492F81912002900F01382204637F005
:108E000067FE0646304637F083FE0078002840F0C3
:108E1000B18107EB080305F101085FFA88F203212D
:108E200083F8592283F85812002E00F0A3812309F9
:108E3000013B042B04F00F0C00F2CF8109EB43003F
:108E4000808C40FA0CF414F0010400F0E581012458
:108E500004FA0CFC0CF1FF3C0CEA0000CDE90232F4
:108E600055F048FD029BDFF8ECC1039ACAF8186080
:108E70004B44032193F8303018440CEBC003CAF87C
:108E800014309971DA715CF83000727A00F13F4168
:108E900001F57E0109EB912191F8381001F01F0CCA
:108EA0004909032904FA0CF400F0AC81042900F00C
:108EB000A281022900F097819C88B4FA84F3C3F15F
:108EC0001F03C3F3CC0100EB810103F00703D1F8CA
:108ED00020C09B004FF00F0E0EFA03FE2CEA0E0C82
:108EE000C1F820C0D1F820C002FA03F343EA0C0312
:108EF00007AA0B62114602230292CDE90743FFF74E
:108F0000D9FD029A059B002B00F03E81B7F878311D
:108F1000D7F804C5346807EE903AF8EEE77AFCEE2D
:108F2000E77A17EE900ABCFBF0F303F57F43FF33BB
:108F30001B0CBCFBF3F3B3FBF0F001381FFA80FE0F
:108F400007EE903ABCFBF3F3B8EE677A2188DFF8BE
:108F500008C167EE087A013BCAED027A69EE677ACA
:108F60006445E7EE287A9BB289B2CAED037A00F035
:108F7000F4803648844200F0F080B4F1804F00F075
:108F8000EC80ACF57C4C644500F0E7800CF5806C1F
:108F9000644500F0E2800CF5806C644500F0DD80F3
:108FA000DFF8B8C0644500F0E0800CF5806C6445E3
:108FB00000F0DB8021F440710CF56C4C89B2644503
:108FC0002180C4F82CE0238540F002810023238611
:108FD0004FF0010CA4F814C0337A71790020CDE968
:108FE00009004FF0600EADF820000B909807CDF807
:108FF0001CE040F1E180DB0003F008030420ADF841
:109000002A30ADF820002046029137F055F9029938
:109010000C292DD8DFE801F0802C2C2C772C2C2C5F
:109020006E2C2C2C240000BF581E00206F12033918
:10903000098004080D800408E1FB020841F60208DB
:10904000002000206F12833A00007A44000401409F
:1090500068180608DC2000200000014000100040D5
:10906000A38B23F400631B041B0C43F40063A38352
:109070003368B3F844206FEA42426FEA524292B238
:10908000A3F844201A88194692B242F0010221F84E
:10909000342B7079CAF804300C180022CAF800404A
:1090A0000A50002D00F0B680D7F8AC118B4200F0CA
:1090B000B680012D00F0AE80D7F8C8118B4200F0C9
:1090C000AE80032D40F0A680D7F8E421D31A18BF54
:1090D000012345460122042D8AF810308AF8112018
:1090E0000AF11C0A7FF46AAE51480DB0BDEC048B46
:1090F000BDE8F08FA38B23F008031B041B0C43F087
:109100000803A383B4E7238B23F400631B041B0C25
:1091100043F400632383ABE7238B23F008031B0492
:109120001B0C43F008032383A2E7DFED427AF0EE45
:10913000678A1DE6DFED407ADFED408A18E6404B96
:10914000DFED3C7A3F4AC7F8583101230593C7F851
:1091500060213D4BF0EE678A18E6DFF800C121F090
:109160007001644589B27FF420AF2180C4F82CE0FF
:1091700023852DE7354A344B0020C7E957320DB01F
:10918000BDEC048BBDE8F08FB0EE690A029255F099
:109190006DFDFCEEC07AD7F804C53468029A17EE6C
:1091A000903ABCFBF3F303F57F43FF331B0C4FF600
:1091B000FE7EBCFBF3F3C3E65B0003F002034FF457
:1091C0008070ADF82830ADF81EC0ADF82C001AE75D
:1091D0001F4B9C423FF4FAAEFAE6CAF81400CAF8F4
:1091E000186007AA8EE6DFF86CE0DEF844100C4346
:1091F000CEF8444060E61749D1F830C044EA0C0488
:109200000C6359E6DFF84CE0DEF840100C43CEF872
:10921000404051E601235CE7CAF81440DFE71346FB
:1092200057E70E46EEE5DFED0C7AF0EE678A9FE534
:10923000A01F00206F12833AACC5A737ACC5A73674
:109240000D800408E1FB02080980040865FA0208A1
:109250000004014000380240282930380010004046
:10926000F8B5214C1D270E46054684F808751FF0F9
:1092700057F900201FF0F6F808201FF0F3F80E2031
:109280001FF0F0F838461FF0EDF804201FF0EAF860
:1092900004201FF0E7F800201FF0E4F830201FF052
:1092A000E1F800201FF0DEF830461FF0DBF8002068
:1092B0001FF0D8F81FF01EF904F209501FF03AF819
:1092C000234670B194F8092562B994F80A25302A2A
:1092D00000D03AB993F80B2522B993F80C352B70CE
:1092E0000120F8BD0120FCE7581E002000F01F02FD
:1092F00040090123032803FA02F304D004280CD008
:10930000022805D07047074A116C0B43136470475D
:10931000044A516C0B4353647047024A116B0B4370
:109320001363704700380240004870473C2100201A
:109330002DE9F041324C94F81F351BB9002738460F
:10934000BDE8F08194F81E1504F5AF6043F0BAFD56
:1093500007460028F2D094F81F0542F00DFC94F85F
:109360001C35C4F880050133DBB210B12222C37171
:109370008271092142F060FFD4F8800543F028F99A
:1093800094F82005D8B9D4F8E830632BFBD91D48F0
:109390001D4E1E4DDFF8788043F0CCFDA4F87C050F
:1093A00002E056F8045FF5B14046A847034600289E
:1093B000F7D0174884F8443643F080FFBFE742F007
:1093C000DBFB94F81C35C4F810060133DBB210B196
:1093D0005022C3718271092142F02EFFD4F8100689
:1093E00043F0F6F8CFE794F81F0543F0EFFB94F84D
:1093F00020050028A2D043F0E9FB2F469FE700BFDD
:10940000581E002040420F00A8180608C74405084F
:10941000D02300200E4B30B4DB68427801780D4C2D
:10942000DB43C3F30223C3F10403DBB202FA03F309
:1094300060181B0101F01F050122490903F0F00328
:10944000AA4080F8003344F8212030BC704700BFA8
:1094500000ED00E000E100E0002877D0F0B583885F
:10946000B3FA83F3202B83B00446C3F11F0258D014
:10947000374D384E15444FF0004006EB820230FA6B
:1094800003F395F85850C2F83C1B05D0324A1168D6
:1094900021EA0301116053612046002142F0CCFE15
:1094A000A38822682C49B3FA83F7C7F11F0404F09C
:1094B000FC0000F1804000F59C3004F00304A4009F
:1094C00002F13F434FF00F0C82680CFA04FC22EAD1
:1094D0000C02826003F57E038268C3F38723A340F6
:1094E000134383600A681D484FF00043FB4022EAA3
:1094F00003020A604A6822EA03024A600A681A43C1
:109500000A608A6822EA03028A60CA6822EA0302C1
:10951000CA6002682E441343036096F87C3BF02B2C
:1095200001D803B0F0BD0E4B5B5D8DF80430F02127
:1095300003224FF4807301A886F87C1B8DF8052068
:10954000ADF80630FFF766FF03B0F0BD704700BF0F
:1095500068180608581E0020003C0140083C0140E5
:10956000308206082DE9F84FC94C94F8831B054654
:10957000C1F34001D4F8880B43F030F894F8831B12
:10958000D4F8840BC94301F0010143F027F8002D02
:1095900000F0EC8005F1FF38BE4D5FFA88F8012736
:1095A000D4F8883B33B11A689B8851690B4214BFC9
:1095B00053831383D4F8843B33B11A689B88516971
:1095C0000B4214BF53831383B4F8903B002B40F03D
:1095D000658194F8921BD4F8940B42F0FFFFDFF8FA
:1095E000B8C2FA204FF0100E4FF47A71DCF8043054
:1095F000C3F30803002B40F01E81EFF31183002B0F
:1096000040F01981D4F8E820D5F80890D4F8E83073
:109610009A42F7D1D4F8C03B9945F3D8D4F8BC6B43
:1096200001FB06F3A3EB0903B3FBF6F301FB0232E4
:10963000DCF80430C3F30803002B40F0BA80EFF3EA
:109640001183002B40F0B580D4F8E830D5F808B08D
:10965000D4F8E860B342F7D1D4F8C06BB345F3D87F
:10966000D4F8BC6B01FB06F9A9EB0B09B9FBF6F9C1
:1096700001FB03939B1AB3F57A7FD9D30138B5D197
:10968000D4F8883B33B11A689B8851690B4214BFE8
:1096900053831383D4F8843B33B11A689B88516990
:1096A0000B4214BF53831383B4F8903B002B40F05C
:1096B000E38094F8921BD4F8940B81F0010142F0FE
:1096C0008DFFDFF8D4C1FA204FF0100E4FF47A71FD
:1096D000DCF80430C3F30803002B40F08B80EFF379
:1096E0001183002B40F08680D4F8E820D5F808904C
:1096F000D4F8E8309A42F7D1D4F8C03B9945F3D872
:10970000D4F8BC6B01FB06F3A3EB0903B3FBF6F340
:1097100001FB0232DCF80430C3F3080343BBEFF370
:1097200011832BBBD4F8E830D5F808B0D4F8E86042
:10973000B342F7D1D4F8C06BB345F3D8D4F8BC6BBF
:1097400001FB06F9A9EB0B09B9FBF6F901FB039341
:109750009B1AB3F57A7FDDD30138B9D108F1FF3810
:109760005FFA88F8B8F1FF0F7FF41AAFBDE8F88F01
:10977000EFF3118A8EF31288D5F808B02B68DB035B
:1097800044BFC4F8B87BD5F808B0D4F8E830D4F8B2
:10979000B89B5FFA8AFA8AF31188D4F8BC6B4B4401
:1097A00001FB06F9A9EB0B09B9FBF6F901FB0393E1
:1097B000CEE7EFF3118A8EF31288D5F808B02B6844
:1097C000DE0344BFC4F8B87BD5F808B0D4F8E8305D
:1097D000D4F8B89B5FFA8AFA8AF31188D4F8BC6B84
:1097E0004B4401FB06F9A9EB0B09B9FBF6F901FBA8
:1097F00003933FE7EFF311898EF31288D5F808A0A1
:109800002B68DA0344BFC4F8B87BD5F808A0D4F8B5
:10981000E830D4F8B82B5FFA89F989F31188D4F8C5
:10982000BC6B1A4401FB06F3A3EB0A03B3FBF6F38C
:1098300001FB02326EE7EFF311898EF31288D5F83F
:1098400008A02B68DB0344BFC4F8B87BD5F808A098
:10985000D4F8E830D4F8B82B5FFA89F989F3118885
:10986000D4F8BC6B1A4401FB06F3A3EB0A03B3FB69
:10987000F6F301FB0232DBE6D4F8AC3B002B3FF4FD
:1098800020AFD4F8982B0023136084F8A93B18E785
:10989000581E002010E000E000ED00E0D4F8AC3BE2
:1098A000002B3FF49CAED4F8982BB4F8B43B044999
:1098B000B1FBF3F35B10136084F8A97B8FE600BF64
:1098C00040420F002DE9F84FCE4CCF4D94F8831B4A
:1098D000D4F8880BC1F3400142F080FE94F8831B5A
:1098E000D4F8840BC94301F0010142F077FE4FF038
:1098F00005080127D4F8883B33B11A689B88516961
:109900000B4214BF53831383D4F8843B33B11A68DA
:109910009B8851690B4214BF53831383B4F8903B67
:10992000002B40F05D8194F8921BD4F8940B42F028
:1099300055FEDFF8DCC232204FF0100E4FF47A7182
:10994000DCF80430C3F30803002B40F01C81EFF374
:109950001183002B40F01781D4F8E820D5F8089047
:10996000D4F8E8309A42F7D1D4F8C03B9945F3D8FF
:10997000D4F8BC6B01FB06F3A3EB0903B3FBF6F3CE
:1099800001FB0232DCF80430C3F30803002B40F083
:10999000B880EFF31183002B40F0B380D4F8E830A7
:1099A000D5F808B0D4F8E860B342F7D1D4F8C06B6A
:1099B000B345F3D8D4F8BC6B01FB06F9A9EB0B094E
:1099C000B9FBF6F901FB03939B1AB3F57A7FD9D360
:1099D0000138B5D1D4F8883B33B11A689B885169F6
:1099E0000B4214BF53831383D4F8843B33B11A68FA
:1099F0009B8851690B4214BF53831383B4F8903B87
:109A0000002B40F0E18094F8921BD4F8940B81F085
:109A1000010142F0E3FDDFF8F8C132204FF0100EF3
:109A20004FF47A71DCF80430C3F30803002B40F0E4
:109A30008980EFF31183002B40F08480D4F8E82074
:109A4000D5F80890D4F8E8309A42F7D1D4F8C03B62
:109A50009945F3D8D4F8BC6B01FB06F3A3EB0903DB
:109A6000B3FBF6F301FB0232DCF80430C3F3080366
:109A700033BBEFF311831BBBD4F8E830D5F808B043
:109A8000D4F8E860B342F7D1D4F8C06BB345F3D84B
:109A9000D4F8BC6B01FB06F9A9EB0B09B9FBF6F98D
:109AA00001FB03939B1AB3F57A7FDDD30138B9D15B
:109AB00008F1FF3818F0FF087FF41CAFBDE8F88FFD
:109AC000EFF3118A8EF31288D5F808B02B68DB0308
:109AD00044BFC4F8B87BD5F808B0D4F8E830D4F85F
:109AE000B89B5FFA8AFA8AF31188D4F8BC6B4B44AE
:109AF00001FB06F9A9EB0B09B9FBF6F901FB03938E
:109B0000D0E7EFF3118A8EF31288D5F808B02B68EE
:109B1000DE0344BFC4F8B87BD5F808B0D4F8E83009
:109B2000D4F8B89B5FFA8AFA8AF31188D4F8BC6B30
:109B30004B4401FB06F9A9EB0B09B9FBF6F901FB54
:109B4000039341E7EFF311898EF31288D5F808A04B
:109B50002B68DA0344BFC4F8B87BD5F808A0D4F862
:109B6000E830D4F8B82B5FFA89F989F31188D4F872
:109B7000BC6B1A4401FB06F3A3EB0A03B3FBF6F339
:109B800001FB023270E7EFF311898EF31288D5F8EA
:109B900008A02B68DB0344BFC4F8B87BD5F808A045
:109BA000D4F8E830D4F8B82B5FFA89F989F3118832
:109BB000D4F8BC6B1A4401FB06F3A3EB0A03B3FB16
:109BC000F6F301FB0232DDE6D4F8AC3B002B3FF4A8
:109BD00022AFD4F8982B0023136084F8A93B1AE72E
:109BE000D4F8AC3B002B3FF4A4AED4F8982BB4F8D7
:109BF000B43B0649B1FBF3F35B10136084F8A97B17
:109C000097E600BF581E002010E000E040420F0021
:109C100000ED00E0B0B10C49D1F8C43B102B03D1EA
:109C20000521002037F0A6B903EB43020A4482F86D
:109C3000C80B202082F8C90B0120034482F8CA0B0C
:109C4000C1F8C43B704700BF581E0020F0B53E4C21
:109C5000D4F878251378012B95B006D0022B01D1CA
:109C6000136AE3B1002015B0F0BD92F904506A1CEC
:109C7000F8D0022DF6DC0DF10E06024694F87C15A4
:109C80000096284654F0F8FA0028EBD0284654F005
:109C9000A3FB0028E6D09DF80E0015B0F0BD60F0E3
:109CA0007F0001210DF10F058DF80F0000260DF149
:109CB0000E000027CDE90833CDE90E6705938DF836
:109CC0001C300D9310931293049506910B918DF80F
:109CD00030108DF844100A90EFF31180102383F3B5
:109CE0001288D4F878351B6A0BB3069B04AD29465D
:109CF0001BB1CB691431002BFBD1136A0BB39A68EB
:109D00003AB98B420AD01A682AB15B689A68002A6D
:109D1000F7D01433F3E70D4AC3E90025C0B280F34E
:109D20001188D4F87825136A002BFCD1B3E704AB73
:109D3000C0B2136280F3118804F5AF6051F080FC6B
:109D4000EFE7024A1A60FFDE581E0020D0230020F1
:109D50002DE9F84F2E4F00EB800407EBC404D4F834
:109D6000FC6B2EB1054694F8110C00F0FF0820B1F1
:109D70004FF000084046BDE8F88F89469A46934662
:109D80003AF0ACFA4FEA49010123C9B284F8121C37
:109D900084F813BC84F8153C84F8168C84F8143CC1
:109DA00084F8113C84F8108CB288C4F818AC910582
:109DB0008146C4F81CAC1DD43388DA0510D442F2B5
:109DC0000F7405E03AF08AFAA0EB0903A34215DC10
:109DD00033889B05F6D433889BB243F48073338079
:109DE000B3889BB243F440734FF00108B380404600
:109DF000BDE8F88F98464046BDE8F88FB7F8703C4C
:109E000001339BB22846A7F8703C54F093F8B1E7B1
:109E1000581E00200128B5EEC00A10D0F1EE10FA4D
:109E20000BDD9FED177ADFED177AE0EE077AFCEE97
:109E3000E77A17EE903A98B2704700207047F1EE3B
:109E400010FA0BDD9FED107ADFED107AE0EE077A65
:109E5000FCEEE77A17EE903A98B27047EDD5F7EE40
:109E6000007A30EE270A9FED0A7ADFED0A7AE0EEFB
:109E7000077AFCEEE77A17EE903A98B2704700BF87
:109E800000E0F9440000404200C0794400008344EF
:109E900000C079C400E0824470B5464E96F8724C1A
:109EA00004EB840306EB8303A50093F8743C032BB7
:109EB0006ED8DFE803F059291E02254406EB85051C
:109EC000D5F8780C002870D196F8C43C9C425FD03D
:109ED000013404F00302934286F8722C58D002EB4E
:109EE000820406EB84040223C4F8780C84F8743CE2
:109EF00070BD2B1906EB8303D3F8782C72B1013AAD
:109F0000C3F8782C002070BD2B1906EB8303D3F81F
:109F1000782C002AF3D1022283F8742C254406EB16
:109F2000850595F8803C013BDBB285F8803C8BBB16
:109F3000214B96F8C46CD3F8F810D5F87C0C621C51
:109F400002F003024B1E0324B242034485F8744C12
:109F5000B3FBF1F0C5F8780C1AD0994218D8013843
:109F6000C5F8780C012070BD43F0EAFA80B1124BBD
:109F70002C44D3F8F82006EB8404012102F51C538D
:109F800084F8741C0F33B3FBF2F3C4F8783C70BD53
:109F9000012070BD084BD3F8F820012002F2E7330E
:109FA000B3FBF2F3C5F8783C70BD0138C5F8780C06
:109FB000002070BD581E00209801002070B5214D72
:109FC000D5F8C83C93F82620DAB11B699847E0B170
:109FD000D5F8C83C93F824208AB105F6CC46002475
:109FE0001A19E0B29B6992F82C10B6EC010A984756
:109FF000D5F8C83C93F8242001349442F0DB5B6927
:10A00000984795F8DC3C312B00D070BD95F8DD3CCD
:10A01000002BFAD0D5F8C83C93F82430042B1E4608
:10A02000A8BF0426002BF0D00024074D2346184675
:10A030004FF0D4FE0134E3B29E4245F8040BF6D84B
:10A0400070BD00BF581E0020382B002003681A780E
:10A05000012A01D00020704793F90430044A03EB31
:10A06000830302EBC30393F8110CC0B2704700BF27
:10A07000581E002010B5094CD4F8080D42F0A8FA7B
:10A08000D4F8080D08B12123C380012142F0D4F88F
:10A09000034842F04FFFA4F8040D10BD581E0020E5
:10A0A0008096980030B583B00D46012301460DF12E
:10A0B00007020446074843F085F99DF8072035EA72
:10A0C000020304D003482A43214643F0EFF903B0CA
:10A0D00030BD00BF582B0020F0B53B4CD4F8005DDC
:10A0E0002B78022B95B018D0012B02D0002015B090
:10A0F000F0BD95F904506B1CF8D0022DF6DC0091F0
:10A10000134694F8041D0246284654F0B5F800287A
:10A11000ECD0284654F060F9E9E72B6A002BE5D132
:10A120000DF10F0C8DF80F00002601200027CDE95E
:10A130000833CDE90A12CDE90E6705938DF81C307E
:10A140000D9310931293CDF810C006908DF8300047
:10A150008DF84400EFF31180102383F31288D4F8B4
:10A16000003D1B6A13B3069B04AE32461BB1D36994
:10A170001432002BFBD12B6A13B3996839B993427F
:10A180000AD0196829B15B6899680029F7D014339F
:10A19000F3E70E4AC3E90026C0B280F31188D4F871
:10A1A000002D136A002BFCD10120A0E704ABC0B244
:10A1B0002B6280F3118804F5506051F041FAEEE70C
:10A1C000024A1A60FFDE00BF581E0020582B0020F4
:10A1D00070B503681D78022D14D0012D01D0002028
:10A1E00070BD044693F904000A4B421C83F8CC5D11
:10A1F000F5D00228F3DC0A4603F6CC532179BDE8FA
:10A200007040A5E51B6A002BE9D1012242F066FFF0
:10A21000012070BD581E00202DE9F0417A4C82B01B
:10A22000242204F55D60002157F07AF994F8F95D75
:10A230000023C4F8F43D002D3CD1D4F8983E6BB314
:10A240009B6A5BB37148984783683BB30388DFF828
:10A25000D0C1013B9BB26046664600213778032F90
:10A2600006F106061ED001310629F7D10022017839
:10A27000022900F1060000F083800132062AF6D19F
:10A28000D4F8F41D052909D0481C02FB01C2C4F80A
:10A29000F40D02200021938010705180284602B0F6
:10A2A000BDE8F081062303FB0141B1F8D23D013B3B
:10A2B0009BB2DBE794F8F80D04F56063C4F8FC3D4D
:10A2C00008B90025B9E741F057FCC4F8080E18B1E9
:10A2D00083790BB1382BF4D129464D4842F0F2FD79
:10A2E00005460028EDD0D4F8FC3D484A9868C3F8EC
:10A2F000942008B12023C380092141F09DFFD4F8A8
:10A30000FC3D444F986842F063F94348D4F8FC6D33
:10A3100042F010FE0123B0803220C4F8B86E84F8F9
:10A32000BC3E3AF0D1F904230DEB0302D4F8FC0D46
:10A3300000269F21019642F07DFE9DF805009DF8C4
:10A3400004209DF80630000240EA024018433246DD
:10A3500001E0884218D0D3B207EB03130132996EA3
:10A360000029F6D194F8F80DA4F89C1EA4F8A81EB4
:10A37000C4F8A01EC4F8A41E0D4642F027FC5CE7FA
:10A38000062101FB02C284E7B3F87220B3F87070B3
:10A39000B3F86C602149B3F86E00A4F8A82E12023D
:10A3A000D3F874C0A4F89C7E01FB00F04FF48073D6
:10A3B00001FB06F14FF0000802FB07F6C4F8A02EDF
:10A3C000C4F8A46EC4F8CC0EC4F8C81EC4F898CE65
:10A3D00084F8AA8EA4F89E3E42F0ACFDD4F8B87E74
:10A3E000B6F1807FB88003D8012384F8B13E24E71A
:10A3F0000123B72642463846694684F8B03E8DF8B8
:10A40000006042F00FFFEFE7581E0020F02C002004
:10A41000582C002068180608404B4C0040420F00A2
:10A42000282C00202DE9F041C94BCA4ECA4DCB4C17
:10A430000822C3F88820336B82B043F001033363F2
:10A4400007464FF4C052284640F202338846694618
:10A45000CDE90023FEF72EFB6B6AC14ADFF848C343
:10A4600023F470436B626B6A43F420436B626B6A44
:10A4700023F470236B626B6A43F420236B62736C6A
:10A48000B84D43F4804341F2B4417364736B44F8B4
:10A49000018041F2BC4143F08003675041F2B84E65
:10A4A000B14973630227C4F8D41EB04EB04BB14912
:10A4B00044F80E5084F8D87E4FF0A045AE4FC4F853
:10A4C000DC5EC4F8E06EC4F8E83EC4F8241F05F56D
:10A4D000326506F5A07603F51073A1F5D071C4F8C6
:10A4E000EC7EC4F8285FC4F8F06EC4F82C3FC4F8C2
:10A4F000F41E012307F51077A5F5E465A6F5A0661F
:10A50000A1F58C61C4F8D0CEC4F8307FC4F8E45E05
:10A51000C4F89C6F84F8DB3E05F5A075536106F521
:10A52000B076C4F8601F84F8E23F1946934B944A12
:10A53000C4F8685FA7F5BC67A035C4F8746F914E86
:10A54000C4F8707FC4F8783F07F5D45703F5695312
:10A55000C4F87C5F4FF050250020DFF850E2DFF8B0
:10A5600050C2C4F8A02FC4F8A47F02F5A04207F59A
:10A57000A047C4F8A86FC4F8AC3F06F5A046A3F501
:10A580004853C4F8B05F04F56D65C4F8B42FC4F83F
:10A59000BC6FC4F8DC3FC4F864EFC4F86CCF02466B
:10A5A000C4F8B87F2B4684F8E40F402683F81C21BA
:10A5B000A3F822210132042AC3E9496083F81D115E
:10A5C00083F81F01C3F8300103F12803EED1002204
:10A5D00011462B46402083F87423A3F87A230132D6
:10A5E000042AC3E9DF0183F8751383F87713C3F8EE
:10A5F000881303F12803EED14FF0A04362489A6814
:10A6000022F001029A60DA6842F04002DA60FDF757
:10A61000C5FF94F8D93E0022212161F317420BB106
:10A6200042F4801294F8D31ED4F8DC3E01299A63D8
:10A6300000F0E380DA68D4F8DC6FD4F8E00EC2F3FF
:10A64000076121F0600141F0400161F31F620021C8
:10A65000DA603160026861F3CC22026094F8DB2E8C
:10A66000012A00F0B78010214848FEF7B7F94748A3
:10A67000FEF79AF9D4F8E00E94F8D13E00224FF09C
:10A68000FF31026142618161C26153B305F1140778
:10A690003F4E114607EB83074FEA830C4FF0FF0E46
:10A6A00056F8042F1368002BACBF00234FF09043E3
:10A6B000B74213601161C2F808E0F1D105F150030F
:10A6C000344963440027FF2651F8042F1568002DF4
:10A6D000ACBF00254FF09045994215601761966018
:10A6E000F2D1036994F8D31E43F480730129036106
:10A6F00060D0D4F8DC2E28480023936100294FF065
:10A70000FF336FF0804151615360516114BF0023EA
:10A710001023906143F47013916943F4605343F044
:10A7200008030B43936141F2B8419368615843F0C9
:10A73000010393600B689847184B194ADA60684622
:10A74000184B0093FEF766FE02B0BDE8F08100BF33
:10A7500000E100E00038024000000240581E0020E6
:10A76000003C0140940200204000400100080050DD
:10A7700000090050000B005020090050C005005097
:10A780000010005000300050342D0020282D0020F3
:10A790003C2D0020782D00200008008000ED00E016
:10A7A0000005FA05430200010804010020050050DD
:10A7B00060050050D4F8DC2E144B03636FF0804129
:10A7C000134D00234FF0FF30936151615060516190
:10A7D00095619FE701680F4A0F4E41F00301016048
:10A7E000802159629E62C3F80421E022C3F8082147
:10A7F000C0F24002C3F80C2135E79A6822F03E010E
:10A8000041F02A0161F307029A6013E70301810016
:10A8100000080080A00040008000200099B10A6B71
:10A82000824216D9154BD3F8FC23914221D35C39CF
:10A8300091421ED30B6B9842F9D38B6B9842F6D89A
:10A840000B46184670470D4BD3F8FC130A6B904229
:10A8500012D30B680BB9F4E70A6B90420B4602D394
:10A860008A6B9042EDD951F85C3F002BF4D1184629
:10A8700070470023184670470A46D8E7502F00203B
:10A880002DE9F047CC0143D10346224A43F8082B77
:10A890004FF0FF324260022418467E26DFF87880AF
:10A8A000D8F800942644013E051D49466FF07047D4
:10A8B0004FF0010A08E0A3421CD0631C45F8043C99
:10A8C000321B1C460435CAB10B6BA34202D88B6BFA
:10A8D000A34204D22046FFF7A1FF014690B10A79B6
:10A8E0004B6B002AE7D1A34204D0E6D245F8042CF2
:10A8F000631CE5E745F8047C631CE1E7C8F8001435
:10A90000BDE8F08745F804AC321B631C4946D8E724
:10A910008026C3E7F8FFFF0F502F00202DE9F04FEE
:10A920000646044616F8010B87B0002800F04B835A
:10A930008B46002509E012F069FF013534462646B2
:10A9400016F8010B002800F088802528F3D16278E2
:10A95000302A00F0D78002340027A2F13001CBB2B8
:10A96000092B4FF000035ED96C2A7AD0782AE6D8FA
:10A97000572A64D9A2F158012029E0D801A050F843
:10A9800021F000BF41AC00083FA900083FA9000822
:10A990003FA900083FA900083FA900083FA90008F7
:10A9A0003FA900083FA900083FA900083FA90008E7
:10A9B00083AB000891AB00083FA900083FA900083D
:10A9C0003FA900083FA900083FA900083FA90008C7
:10A9D0003FA900083FA900083FA900087BAB000879
:10A9E0003FA900083FA900083FA900083FA90008A7
:10A9F00017AB00083FA90008EBAB00083FA900080F
:10AA00003FA9000841AC0008BCF1050FACD8A2F189
:10AA100037010A29A8D114F8012B03EB830301EBBA
:10AA20004303A2F13001C8B20928A2F16106A2F1E4
:10AA3000410CF0D9052EE7D8A2F15701E9E762B140
:10AA4000252A7FF47CAF2646252012F0DFFE16F87B
:10AA5000010B013500287FF478AF284607B0BDE828
:10AA6000F08F14F8011B78293FF669AF57294DD9AB
:10AA7000A1F15802202A3FF662AF01A050F822F05F
:10AA800053AD00083FA900083FA900083FA90008EE
:10AA90003FA900083FA900083FA900083FA90008F6
:10AAA0003FA900083FA900083FA9000883AB0008A0
:10AAB000A3AC00083FA900083FA900083FA900086F
:10AAC0003FA900083FA900083FA900083FA90008C6
:10AAD0003FA900083FA900087BAB00083FA9000878
:10AAE0003FA900083FA900083FA9000817AB0008CC
:10AAF0003FA90008FDAC00083FA900083FA90008D5
:10AB000053AD0008A2780127033426E70029A4D01A
:10AB1000252998D013E75BF8048BB8F1000F00F0FB
:10AB20004582464616F8010B002800F04E82CBB154
:10AB3000324600E0B3B112F8011B1F46013B002969
:10AB4000F8D1023F73B1B946202012F05FFE4B46A8
:10AB5000002B09F1FF39F7DC98F8000027EAE773CA
:10AB6000013340B101339F1B12F050FEF31916F868
:10AB7000010B0028F8D11D44E1E65BF8043B1D60A1
:10AB8000DDE65BF8040BC0B2013512F03FFED6E6FD
:10AB9000DBF800000028C0F25481EC460928064684
:10ABA0004FF0010209DD02EB82025200B0FBF2F12C
:10ABB0000929F8D8002A00F09181D248A0FB02E1CF
:10ABC000B6FBF2F009288E4600F1570900F1300873
:10ABD0004FEAD10140F27981092A0CF8019B02FB6E
:10ABE000106640F27B810A46E7E7DBF800C0BCF163
:10ABF000090F4FF0010209D902EB82025200BCFB9F
:10AC0000F2F10929F8D8002A00F0A6816E46B6466E
:10AC1000BC48A0FB0281BCFBF2F00928884600F189
:10AC2000570A00F130094FEAD10140F3B581092AF2
:10AC30000EF801AB02FB10CC40F290810A46E7E728
:10AC40005BF804CBBCF10F0F4FF0010140F2D8814B
:10AC50000901BCFBF1F00F28FAD8002900F0CB81E4
:10AC60006E46B0460EE0582A0CBF4FF0370E4FF03C
:10AC7000570E864401FB10CC090908F801EB0CD0F3
:10AC8000BCFBF1F00928EEDC4FF0300E864401FBEE
:10AC900010CC090908F801EBF2D1002288F8002055
:10ACA00097E05BF8040B0028C0F28681EC46092887
:10ACB00006464FF0010209DD02EB82025200B0FBB2
:10ACC000F2F10929F8D8002A00F057818D48A0FB3D
:10ACD00002E1B6FBF2F009288E4600F1570900F1B7
:10ACE00030084FEAD10140F23F81092A0CF8019B5C
:10ACF00002FB106640F241810A46E7E75BF804CBAD
:10AD0000BCF1090F4FF0010209D902EB8202520097
:10AD1000BCFBF2F10929F8D8002A00F099806E46B0
:10AD2000B6467848A0FB0281BCFBF2F009288846B1
:10AD300000F1570A00F130094FEAD10140F32181B7
:10AD4000092A0EF801AB02FB10CC40F283800A46C0
:10AD5000E7E75BF804CBBCF10F0F4FF0010240F2C4
:10AD60004D811201BCFBF2F00F28FAD8002A00F046
:10AD70003F816E46582931461DD007E002FB10CCBA
:10AD8000120901F8018B22D0BCFBF2F0092800F176
:10AD9000570800F1300EF1DC02FB10CC120901F86B
:10ADA00001EBF1D113E002FB10CC120901F8018B89
:10ADB0000DD0BCFBF2F0092800F1370800F1300E8D
:10ADC000F1DC02FB10CC120901F801EBF1D10022F9
:10ADD0000A709DF80090002F14BF4FF030084FF01C
:10ADE0002008B9F1000F00F0FE800DF101021146BC
:10ADF0000BB91AE0CBB111F8010B1F46013B00283B
:10AE0000F8D1023F8BB1BA46404612F0FFFC5346E0
:10AE1000002B0AF1FF3AF7DC27EAE7730133B9F1B7
:10AE2000000F3FF4A8AE0DF1010217469E1B4846E5
:10AE300012F0ECFCBB1917F8010B0028F8D11D44E7
:10AE40007DE52D2240428DF800200DF1010CA5E694
:10AE50006E46B64600228EF800209DF80090002F26
:10AE600014BF4FF030084FF02008B9F1000F00F088
:10AE7000B5800DF1010211460BB91AE0CBB111F802
:10AE8000010B1F46013B0028F8D1023F8BB1BA46A7
:10AE9000404612F0BBFC5346002B0AF1FF3AF7DCA8
:10AEA00027EAE7730133B9F1000F3FF464AE0DF107
:10AEB000010217469E1B484612F0A8FCBB1917F862
:10AEC000010B0028F8D11D4439E5092A0CF8018B43
:10AED00002FB10664FEADE013FF685AE00220BF161
:10AEE000040B8CF800209DF80080002F14BF302741
:10AEF0002027B8F1000F6DD00DF10102114623B9E2
:10AF00001DE000BFCDCCCCCCCBB111F8010B1E465F
:10AF1000013B0028F8D1023E8BB1B146384612F011
:10AF200075FC4B46002B09F1FF39F7DC26EAE67386
:10AF30000133B8F1000F3FF41EAE0DF101026E4671
:10AF400017469E1B404612F061FCBB1917F8010B17
:10AF50000028F8D11D44F2E46E46B64600220BF1FB
:10AF6000040B8EF8002078E7092A0CF8018B02FB0D
:10AF700010664FEADE013FF6BFAE00228CF80020DB
:10AF8000B1E7092A0EF8019B02FB10CC4FEAD80169
:10AF90007FF660AF0A46C4E6092A0EF8019B02FB61
:10AFA00010CC4FEAD801D9D90A4631E6DFF85480EF
:10AFB000282008F10106BAE52D2240428DF8002034
:10AFC0000DF1010C73E6054647E55F1E002B7FF48B
:10AFD000BAADB4E45E1E002B9FD1B0E45F1E002B1F
:10AFE0007FF455AFABE45F1E002B7FF40CAFA6E4FB
:10AFF0006E463146EBE66E46B0464EE66046B8E633
:10B0000060462DE6A48106080F4A10B50F4CC2F821
:10B010001C440F4CC2F8144400230E4CC2F8080420
:10B02000A2F80C14C2F81034A2F80E34C2F8184476
:10B0300082F820342822994204D002FB03F40353FF
:10B040000133F8E710BD00BF502F002040420F0031
:10B0500020A10700A01CE9FF70B4447941BB03683C
:10B060004FF400524FF40076202502213CBB1A8C8D
:10B0700022F001021204120C1A841A8B188C22F08E
:10B08000F30280B2120420F00A00120C014342F0D5
:10B09000010241F001011A8319841A8B22F00C027B
:10B0A0001204120C1A831A8B92B270BC1A83704766
:10B0B00000220368164615461146002CD7D0042CF2
:10B0C00021D0082C38D0198C21F480510904090CA6
:10B0D00019849C8B1D8C45F6FF7040F6FF4128407B
:10B0E0002140024342F4805241F4807199831A84D2
:10B0F0009A8B22F440621204120C9A839A8B92B2B9
:10B1000070BC9A8370471A8C22F010021204120C41
:10B110001A84188B198C89B240F6FF4221F0A001E5
:10B1200002400D4342F4807245F010051A831D84DD
:10B130001A8B22F44062B3E71A8C22F48072120454
:10B14000120C1A84998B1A8C21F0F30192B2090423
:10B1500022F42062090C324342F4807241F0010172
:10B1600099831A849A8B22F00C02C4E70B88F0B4FE
:10B1700033BB028C4C880E898B88C98822F001026F
:10B180001204120C0284058B028CADB225F0F3057B
:10B1900092B22B4322F00A0243EA061322439BB2E7
:10B1A00042F0010203830284038B23F00C031B048F
:10B1B0001B0C0383038B9BB21943F0BC01837047C4
:10B1C000042B048C2CD0082B4E888A880D89C988C2
:10B1D00051D024F480542404240C0484838B078CE1
:10B1E0002C0344EA022440F6FF421A4045F6FF735E
:10B1F0003B4043EA063322439BB292B243F480536E
:10B2000082830384828B22F440621204120C8283B4
:10B21000838B9BB243EA01239BB2F0BC83837047CC
:10B2200024F010042404240C4D880F898A88C988CE
:10B230000484068B038C12029BB242EA073423F08B
:10B24000A00340F6FF42324043EA051322439BB27B
:10B2500092B243F0100302830384028B22F4406213
:10B260001204120C0283038B9BB243EA01239BB2AC
:10B27000F0BC0383704724F480742404240C0484F9
:10B28000848B038CA4B29BB224F0F30423F42063D8
:10B29000224343EA062342EA05129BB243F4807339
:10B2A00092B282830384838B23F00C031B041B0C58
:10B2B0008383838B9BB21943F0BC8183704700BFAB
:10B2C00070B5314CD4F824345D0684B01BD4D4F866
:10B2D0003034580648D4D4F83C34590647D4D4F80E
:10B2E00048345A0646D4D4F854345B0645D4D4F8CE
:10B2F000603413F0400343D10622C4F8743484F858
:10B30000702404B070BD00230121204A84F8701419
:10B3100092F8290192F82A1192F82B511C4A002820
:10B3200014BF0220002003EB4303002914BF1021A7
:10B33000002104EB8303002D18BF40F001000143FE
:10B3400003264FF4E13593F928040095CDE9016116
:10B350000023402134F06AF9C4F874040028D0D0E6
:10B360000C4B436304B070BD01230221CDE70223DF
:10B370000321CAE703230421C7E704230521C4E707
:10B3800005230621C1E700BF502F0020581E0020D2
:10B3900075200208B91F0208F0B5A94D6B7885B079
:10B3A000132B2DD8DFE813F02F002F005600F900E3
:10B3B0004004140014006C01D7010E022F002C0071
:10B3C000AE023B032C00560084038A0314008C0356
:10B3D0009C4C9D4A9D489E49AA60062B4FF0000256
:10B3E00084F8282584F8292584F82A25E8606961ED
:10B3F00000F01A85122B00F05484052B00F0BE8457
:10B40000002005B0F0BD8F4CD4F82424C4F8C054FB
:10B41000510600F15985D4F83024560600F12E86E5
:10B42000D4F83C24500600F13786D4F8482451065D
:10B4300000F15986D4F85424560600F15B86D4F8FE
:10B44000602412F0400040F06A86062384F87034CD
:10B4500005B0F0BDA98C7F487F4E7A4C96F83C2110
:10B46000DFF818C27D4F0901A0FB0101C908A1F551
:10B47000B06189B2002061F30F0061F31F40002A20
:10B4800018BF6146C4F8DC0442F6F82CC4F8E004A6
:10B49000C4F8E404C4F8E804C4F8EC04C4F8F00404
:10B4A000C4F8F404C4F8F804C4F8FC0404F5A0607B
:10B4B00008BF3946D4F82424E86141F270774FF090
:10B4C000120008BF6746AF80A870654F6048AF6044
:10B4D00004F2DC4C634F68615006C4F82415C5F8CB
:10B4E00018C0EF6000F1B485D4F83024570600F19D
:10B4F000B385D4F83C24550600F1CA85D4F8482415
:10B50000500600F1EC85D4F85424570600F1EE857E
:10B51000D4F8602412F0400097D00520062512F4DC
:10B52000057F84F8705440F0AB8402F48252B2F587
:10B53000825F00F06D840F2B00F06D8400EB400003
:10B5400004EB8004012594F9280496F8292196F843
:10B550002A41002A14BF0C220E22002C40F038840D
:10B560000F2B0CBF1024002496F82B310091002BD8
:10B570000CBF134642F00103234302933A4A3B4B6C
:10B580000195402134F052F896F83431002B00F048
:10B590008383052386F845317EE32A4C3449D4F869
:10B5A0002424A96042F6F8211820A9802849A8700F
:10B5B00069613048E860510600F14685D4F83024CE
:10B5C000570600F14F85D4F83C24560600F15C85FF
:10B5D000D4F84824550600F17A85D4F8542450064E
:10B5E00000F18B85D4F8602412F040003FF42DAFB9
:10B5F0000521062012F4057F84F8700400F0D18341
:10B6000001EB410104EB810494F92804124E0193EB
:10B6100096F8291196F82A3196F82B41164A0029F6
:10B6200014BF02210021002B14BF10230023002C83
:10B6300018BF41F001010B434FF4E13126E300BF95
:10B64000600D0020502F0020799F0108A19F010864
:10B65000F92C0208CDCCCCCC581E0020A0860100CD
:10B6600065220208852202082D2402085034002099
:10B6700055AB01086DAB010845AC0108400D030056
:10B68000904C914AD4F82434AA60122044F62061E8
:10B690000022A870A9808D488D4984F833255F0663
:10B6A000E860696100F1FE83D4F830345E0600F191
:10B6B000DD84D4F83C345D0600F1F784D4F84834D6
:10B6C000580600F1FD84D4F85434590600F11D8564
:10B6D000D4F8603413F040003FF4B7AE05220621E1
:10B6E00003F48253B3F5825F84F8701400F0BF83D3
:10B6F00002EB420204EB8202002592F928040127A2
:10B70000744E96F8293196F82A11002B4FF0000359
:10B7100014BF02221A4684F83435002940F05B83B6
:10B72000002D00F0938396F82B310197002B18BF62
:10B7300042F0010242F010024FF4E13502920B4652
:10B74000654A0095402133F071FF0023C4F83805A5
:10B7500084F83C35A0E25B4C604BAB6028211023A1
:10B760005F4A84F84E15002741F27C51AB704020AF
:10B77000574B84F84D75A980EA606B6134F072FA1A
:10B7800000283FF43DAE534E564996F8292196F8CD
:10B790002B3190F904000091BA4214BF12221022FA
:10B7A000BB4218BF42F001020321CDE901123B4622
:10B7B0004D4A402133F03AFFC4F85005C01B18BF72
:10B7C000012045E6AB8C494A3E4C4949A9601B0122
:10B7D000A2FB0323D4F824144648E860DB08A3F551
:10B7E000B0631020C4F85835C4F86035C4F85C352F
:10B7F000C4F86435C4F86835C4F86C35C4F87035DD
:10B80000C4F87435C4F87835C4F87C35C4F880358C
:10B81000C4F88435C4F88835C4F88C35C4F890353C
:10B82000C4F8943541F60B22294BA8704906AA802A
:10B830006B6100F13483D4F830345A0600F11A8475
:10B84000D4F83C345B0600F13484D4F848345F0605
:10B8500000F14184D4F854345E0600F15284D4F8E7
:10B86000600410F040003FF4F0AD05230625194EAA
:10B87000214896F8292196F82B110090002A03EB15
:10B88000430304EB830314BF02220022002918BFE4
:10B8900042F00102032193F92804184BCDE901126B
:10B8A000174A84F87054402133F0C0FE96F84531B1
:10B8B000C4F89805002B40F0EF81062386F8453147
:10B8C000EAE100BF502F00201D330208F54F0208A7
:10B8D000F92C0208581E002031330208952D020869
:10B8E000BD2D020848E801005D2E0208CDCCCCCC6D
:10B8F000ED240208412A0208A0680600600D00201D
:10B900006D4B0208AB8CB64AB64CB749B748A96034
:10B910001B01A2FB0323DB08A3F5B0639BB200224B
:10B9200063F30F0263F31F421223AB70D4F82414A5
:10B93000AF4BC4F89C25C4F8A025C4F8A425C4F8CE
:10B94000A825C4F8AC25C4F8B025C4F8B425C4F8BB
:10B95000B825C4F8BC25A74AE86004F29C5642F614
:10B96000F820C5E90423AE61A8804D0600F1948259
:10B97000D4F83034580600F18483D4F83C345906A6
:10B9800000F18D83D4F848345A0600F19D83D4F831
:10B9900054345B0600F1BD83D4F8600410F040001D
:10B9A0003FF453AD05230627934E84F8707496F840
:10B9B000290196F82A1196F82B51904A002814BFB5
:10B9C0000220002003EB4303002914BF3021002193
:10B9D00004EB8303002D18BF40F001000143032551
:10B9E0004FF4E13793F928040097CDE90151002382
:10B9F000402133F01BFEC4F8C005002800F04C8144
:10BA00007F480CF035F996F8453184F8C405D4F830
:10BA1000C005002B40F0408186F845513CE1764E50
:10BA2000704C96F83A3196F83B1184F8B8344FF0E0
:10BA3000802004F58F6384F8B9144FF08021C3E9A6
:10BA40000001C3E90201C3E90401C3E90601C3E936
:10BA50000801C3E90A01C3E90C01C3E90E01AB61A6
:10BA600042F6F821674BA98020206149AB60D4F8E9
:10BA70007424654BA8706548E860C5E90431002A64
:10BA800000F0BE81012384F8BA3435F05BFC96F8EF
:10BA9000453100F543405030C4F8BC0413B90323CA
:10BAA00086F84531D4F87404003818BF0120CFE47B
:10BAB000012005B0BDE8F040FDF7D8B80020F8E758
:10BAC000534B544FAB6044F620621223AB70AA80F4
:10BAD000514B524A434CEB602A61454B6B614FF42A
:10BAE000B672002107F58C7055F01AFDD4F82404C5
:10BAF00040F2DC5240F2DC53C7E94623C7E9482351
:10BB0000C7E94A23C7E94C23C7E94E23C7E95023B5
:10BB1000C7E95223C7E95423C7E95623C7E9582385
:10BB2000C7E95A23C7E95C230121420687F82F128F
:10BB300000F18782D4F830345B0600F19182D4F8AA
:10BB40003C345E0600F1AE82D4F848345D0600F164
:10BB5000B482D4F85434580600F1DE82D4F860047C
:10BB600010F040003FF471AC05210625224E2C4810
:10BB700096F8293196F82B210090002B01EB41011A
:10BB800004EB810114BF32233023002A18BF43F095
:10BB90000103032291F92804CDE90123402184F80F
:10BBA0007054204A002333F041FD0546C7F8800158
:10BBB00088B100233F22C4F8405587F8842287F8D3
:10BBC000852284F8443584F84535C4F8483584F82E
:10BBD0004C351CF015FB281E18BF012038E400BFAF
:10BBE000CDCCCCCC502F00206522020879B30108BF
:10BBF000F92C0208B9BB0108581E0020E99D010874
:10BC00005DBB0108811F020845250208056F020877
:10BC1000612F020898010020752F0208F1B0020878
:10BC200060E31600FD2F02089F4AA04B082042F651
:10BC3000F821A8704020C5E90223A98034F012F849
:10BC4000044600283FF4DCAB6978994E0CF030FDD7
:10BC500096F8291196F82A3196F82B51954A0746FD
:10BC6000002F94F9040014BF03240124002914BFF9
:10BC700002210021002B14BF10230023002D18BF28
:10BC800041F001010B4301944FF4E1310293009123
:10BC90000023402133F0CAFC003818BF012005B052
:10BCA000F0BD102243F2B060AA7040F68C2184F8F7
:10BCB0003125A8804722804D84F83235C4F82C15F0
:10BCC00084F83025D4F82424510600F12B82D4F8CE
:10BCD0003024570600F12982D4F83C24560600F19E
:10BCE0002782D4F84824500600F12582D4F8542441
:10BCF000510600F12382D4F8602412F040003FF492
:10BD0000A4AB0521062012F4057F84F8700450D0FE
:10BD10000F2B55D0122B00F01482052B00F011824E
:10BD2000062B00F00E82072B00F00B8201EB410185
:10BD300004EB8104012394F928045D4E019396F8E5
:10BD4000292196F82A3196F82B110095002A14BF64
:10BD500002220022002B14BF10230023002918BF49
:10BD600042F0010213430293544A0023402133F06E
:10BD70005DFC003818BF0120FFF76ABB0C22AA70D7
:10BD800042F6F8204FF4FA5184F831251B22A8809E
:10BD900084F83235C4F82C1584F830254FF4E13599
:10BDA00090E701EB410104EB8104012394F928049D
:10BDB0002CE402F48252B2F5825FB7D1072BB5D1E1
:10BDC00001EB410104EB8104032394F92804B4E757
:10BDD0001024FFF7C9BB96F82B110197002918BF53
:10BDE00042F0010242F010024FF4E1310292009160
:10BDF000334A402133F01AFC002D3FF44DAFA4E448
:10BE0000FFF75EFAD4F87434002B3FF4F9AA39E650
:10BE1000072B7FF490AB00EB400004EB800403257C
:10BE200094F92804FFF791BB0C22AA7043F2B0608A
:10BE30004FF4FA5184F831252122A88084F8323554
:10BE40001D4DC4F82C1584F830253BE796F82B31AE
:10BE50000197002B18BF42F001024FF4E13102922A
:10BE60000091174A2B46402133F0E0FB14E702EB28
:10BE7000420204EB8203012593F9280403273FE4DF
:10BE8000104DDD40ED07C6D402F48252B2F5825F58
:10BE90007FF451ABFFF752BB0023012784E5002359
:10BEA0000125E4E401211BE4C1AA0108E5AA010877
:10BEB000581E002089B0010890D0030005A4010895
:10BEC00031330208FF80040000210126002012F413
:10BED000057F84F8706484F8C4044CD0022B40F2CF
:10BEE0009080DA1E042A7CD90A2B00F0A280002B55
:10BEF00000F08C8001EB410104EB8103944A93F93B
:10BF00002804944B944E9549AE60C5E90432E9602B
:10BF10000127934E96F8293196F82A21002B14BF59
:10BF200002230023002A51D194F8C424002A14BF0C
:10BF30001022002296F82B110197002918BF43F018
:10BF4000010313434FF4E13202930092854B864A7A
:10BF5000402133F06BFB96F83031AA78C4F8D40452
:10BF6000013BDBB29A4284F8D8343FF695AE002309
:10BF700084F8D83490E602F48252B2F5825F2ED073
:10BF8000012BB1D100230320072284F8CC0484F8CC
:10BF9000CD2401204FF4006284F8CE04C4F8D024EC
:10BFA0000C2042F6F822A870AA8001EB410104EBB4
:10BFB00081016A4A91F92804EA606549654A664E3A
:10BFC000AE60C5E904211BB10327A2E71022B1E747
:10BFD00094F8C434002B14BF0327012799E7072BDB
:10BFE000CED101EB410104EB8103594A93F92804B6
:10BFF000584B594E5949AE60C5E90432E9600327F0
:10C0000087E7012BBFD0002BEBD1012302200322B5
:10C0100084F8CC0484F8CD2400204FF4806284F8A6
:10C02000CE04C4F8D024072045F2F052A870AA80AC
:10C03000BBE7D4F8C834C3F3802384F8C4340023A6
:10C04000A1E70D46002191E500210120FFF7D2BABA
:10C0500000200125FFF763BA01200225FFF75FBA30
:10C06000022583E501210220FFF7C4BA0122022143
:10C07000FFF736BB01230225FFF7F9BB012102269A
:10C0800024E7012302278FE418460221FFF7B2BA02
:10C0900002200325FFF743BA0221032616E70223F5
:10C0A000032781E40221032560E502220321FFF733
:10C0B00017BB02230325FFF7DABB0321042555E54F
:10C0C00003220421FFF70CBB032304276CE40321A4
:10C0D0000420FFF78FBA03230425FFF7C8BB032012
:10C0E0000425FFF71CBA03210426EFE604200525EA
:10C0F000FFF715BA04210526E8E604210520FFF71D
:10C1000079BA04230525FFF7B2BB04220521FFF706
:10C11000E7BA0423052747E40421052526E5052180
:10C120000626D3E600210120EDE501210220EAE503
:10C1300002210320E7E503210420E4E50421052092
:10C14000E1E50C2303FB0141032391F92804F4E505
:10C15000F92C02080D21020861210208C9250208F4
:10C16000581E0020600D0020B52102080449054A30
:10C17000054B8360C0E900120C3047F08BB800BF5C
:10C1800095320508C51705087117050804490023ED
:10C19000C1F8C835C1F8CC35C1F8D035704700BFFB
:10C1A000502F0020034B0022C3F8D825C3F8D42514
:10C1B000704700BF502F00202DE9F041534C2DED6A
:10C1C000048B012284F80C28514ADFED529A92F830
:10C1D000DC35B2F8F415B4F82C259FED4F9A07EE34
:10C1E000103AB8EEC77AF2EE047AC7EE276A04F284
:10C1F0002C5500264A436420C4F80468B2FBF0F2D0
:10C2000004F2BC67C4F808284FF0000807EE101AC3
:10C21000C5EDB56AB8EEC77ADFED406A86EE878A6B
:10C22000F0EE678AB4F82C3500EE903AB3EE090AC6
:10C23000F8EE600A3846FFF799FFB4F82C3500EEA7
:10C24000903A38EE080AF8EE600A0022052107F15C
:10C2500090004AF047F9B4F82C35C5F8B08268EE82
:10C26000287A07EE103AF5EEC07AF1EE10FAB8EE41
:10C27000476AB7EE007A17DDB3B166EE296AF4EECD
:10C28000E76AF1EE10FA88BFF0EE676AF0EE665AE0
:10C29000E6EE095AC6EEA57AF4EEC77AF1EE10FA88
:10C2A00088BFF0EE477A01E0F0EE477AB5EEC08A3B
:10C2B000F1EE10FAC5EDAD7A19DDC3B166EE296A6B
:10C2C000F4EEC86AF1EE10FA88BFF0EE486AF0EEBC
:10C2D000667AE6EE097AB0EE676AC6EE867AF4EE22
:10C2E000C77AF1EE10FA88BFF0EE477A01E0F7EE78
:10C2F000007A0136032EC5EDAE7A07F1300705F15D
:10C300000C058FD1BDEC048BBDE8F081581E0020D8
:10C31000502F00203333F33E83F9223E0000484380
:10C320002DE9F04FAA4AAB4CB2F83015B2F82E35D1
:10C330002DED088B07EE901A0AEE103A94F8D139D9
:10C340009FEDA5BADFEDA5AAF8EE679A07EE903A41
:10C35000B4F8D239F8EEE77AF2EE046A0A2B87EEE7
:10C36000A67AB8BF0A239246002285B004F2FC5791
:10C37000C4F80C2604F6042607EE903AB4F8D43933
:10C3800087ED007A08EE103AF8EEE78AB8EEC88A30
:10C39000B6EE009AF4EE488A29EE890AF1EE10FA18
:10C3A000C8BFB0EE688A94F8D039C7ED018AB4EE00
:10C3B000C80AF1EE10FAD8BFB0EE408A082BA8BF29
:10C3C0000823B1F57A7F38BF134680EE080AC4F817
:10C3D000083687ED028A52F0D7FCB7EE007AB4EE49
:10C3E000470AF1EE10FA48BFB0EE470AFDEEC07AF8
:10C3F000B8EE4AAAF8EEE76A17EE905ACAEE297A22
:10C4000004F6DC13C4F8D8599FED75AA67EEA67A36
:10C4100087EE276A89EEA67ADFED727A83ED006AED
:10C42000C7EE279A04F51E6388EEA90AC3ED009AA9
:10C4300052F048FD0228B8BF022088EE290A804643
:10C44000C4F8E40952F03EFD2328A8BF2320B8F128
:10C45000230FA8BF4FF023084045C4F8E809B8BF30
:10C46000404604F6EC13A0EB0802012D02F1010294
:10C47000D3ED007ADFED5C8A5C4901938146B8BF59
:10C4800001259346F5EE407AF1EE10FA2BD1584A89
:10C4900002960023CDF80CB01646AB461D4607EEBB
:10C4A000905AF8EEE79A013569EE8B9A0836B0EEAD
:10C4B000690A52F021FCB0EE408AB0EE690A52F0EF
:10C4C000D3FDA0EE288A242D484928EE0A8A20EEC2
:10C4D0000A0A06ED028A06ED010AE0D15D46DDE9B1
:10C4E000026BF0EE6A7A002346E905389BFBF5F211
:10C4F00046F80C9C46F8082C46F8045C324601339A
:10C50000482BE2EC018AFAD1D1F8A8C1D1F8AC01EC
:10C5100006F5907300220132242AC3F800C0586047
:10C5200003F10803F7D1334B06F515769E42A9D1E6
:10C53000019BDFF8C8909FED308AC3ED007A00269A
:10C54000B819CB464FF00008D4F80836984500F1EA
:10C55000240531DA07EE908A97ED016AF8EEE76A72
:10C56000D7ED027A36EE897A77EEC67A743067EEC6
:10C57000877A07EE103AB8EEC77ABAF82E3587EE0A
:10C58000870A042108F1010800EE903A30EE060A0D
:10C59000F8EE600AABEC010A97ED001AC5ED178AB8
:10C5A000A6EE881AC5ED168AC5ED158AC5ED148A62
:10C5B0004AF044F82846C7E706F59076B6F5587F66
:10C5C00009F12009BCD105B0BDEC088BBDE8F08FA6
:10C5D000581E0020502F0020C3B8B23DBC297E3F1A
:10C5E00072F97F3F000090420000000068180608C2
:10C5F0003C40002050400020CDCC4C3E6035002017
:10C600002DE9F04F2DED028BDFF8C091DFF8C0B1BE
:10C61000DFED698A9FED698A85B009F13804012749
:10C62000FEB219F8010B32464F2134F0A7FA054645
:10C63000002800F09A800368A0600122B3F1804FC7
:10C6400004F8302C00F09C805D4A934200F0988002
:10C65000DFF880A1DAF8043507EE903AF8EE677A51
:10C6600000228021DFF8708144ED0A7A98F81A01DF
:10C6700004F82F2C07EE900AABFB0323F8EE677A41
:10C68000DB08002244F80C3C4FF4005C012319F84D
:10C69000010C44F8101C44ED088A04ED0B8A44EDAB
:10C6A000097A44F8082C44F8142C44F818CC24F8DF
:10C6B0001C3C24F81A3C3FF05FFAE06010B14F23B5
:10C6C000C671837198F81831012B72D0022B0CBF00
:10C6D000422102216A7A3FF015FBDAF80425002195
:10C6E000284634F093F814F82F3C002B53D0214601
:10C6F000344B41F8043D0022284633F095FF98F86A
:10C7000019312868002B4FF0010A14BF00230223BF
:10C71000CDF808A0ADF8063004236A79ADF80420FE
:10C720000DEB0301ADF80C30FEF720FD54F8103C82
:10C73000A26898F81C121268013E013B9BB2F6B247
:10C7400013854FF0FF3500234FF40050B142D562FE
:10C75000A2F814A044E9060324F81CAC24F81AAC8F
:10C7600044F8083C01D133F051FD0137052F04F1A5
:10C7700040047FF455AF05B0BDEC028BBDE8F08FEF
:10C78000DFF850A0DAF8043507EE903A0122F8EE0F
:10C79000677A114666E70C48DFF840C044F8040C9D
:10C7A00063602246211F2846C4F800C033F03CFFD6
:10C7B000A5E722218EE700BF00401C4600000000D4
:10C7C000000C0040A1F80308C9F903085C410020EF
:10C7D0001F85EB51581E00204840002031020408FC
:10C7E00070B5084C251D2E4614F8010B2CF0E6FC04
:10C7F00028B1037905F8013BB442F5D170BDFF23A0
:10C80000F8E700BF684200202DE9F0471D4F0126E0
:10C8100007F10805B2464FF033094FF0000817F84A
:10C82000010B3FF0A9F9044690B180F80690C6715B
:10C83000FB7803F07F02012A18D013F0800F204606
:10C840000DD185F804803FF0BDFE85F805802C6091
:10C850000136052E05F10805E1D1BDE8F08785F820
:10C8600004A03FF0B5FE85F805A0F0E71B0605D44F
:10C87000012120463FF0E0FCFB78DEE73FF0A8FE18
:10C88000F6E700BF70420020184B03F51D72C3F895
:10C890006822EFF31181102282F312880022C3F87C
:10C8A000D022C9B2C3F8D42283F8D82283F8DC227C
:10C8B00081F3118893F8F52293F8F612C3F8E00299
:10C8C000002A14BF0222002211B142F0300252B2FB
:10C8D0000748084983F8E4221A22C3F8E80283F8DB
:10C8E000EC22C3F8F0120120704700BF484000203E
:10C8F000112A0308992D03082DE9F04F0C68B64E54
:10C90000B64F2588D6F80465B6FBF2F2013B013A32
:10C91000BC4296B283B09BB2AAB211D0B04DAC4229
:10C920000ED0B4F1804F0BD0A5F58035AC4207D0C6
:10C9300005F58065AC4203D005F58065AC4202D1B7
:10C9400022F0700292B2A74DAC4211D005F580657D
:10C95000AC420DD022F4407205F56C4592B2AC4267
:10C960002280E362268540F021810023238602E0B5
:10C970002280E36226850126A6820B7A4A7913F08B
:10C98000020572D00021DB0003F008038E460191FE
:10C9900088460F468C460E464FF480654FF0400A9D
:10C9A0004FF0040B0C2A08D8DFE802F0CC07070789
:10C9B000A00707071807070771000C2A3DD8DFE812
:10C9C00012F0EC003C003C003C00B8003C003C0095
:10C9D0003C003C003C003C003C008C00218CDFF81B
:10C9E000FC8121F480710904090C2184218CB4F8A4
:10C9F0000490A68B89B226F0730621F400713604E8
:10CA00000F43360C444547EA0C211FFA89F946F0DA
:10CA1000600600F0D080724FBC4200F0CC80002352
:10CA2000A4F80490A683E3632184A38B23F0080376
:10CA30001B041B0C43F00803A383B4F844306FEAD3
:10CA400043436FEA53439BB2A4F844302388214602
:10CA50009BB243F0010321F8343B00238D18C0E959
:10CA600000548B5003B0BDE8F08F5B004FF480673B
:10CA700003F0020C0197AA462B46AB464FF48041C7
:10CA80004FF4805E4FF010084FF480778AE7238CD4
:10CA9000524E23F480531B041B0C2384238CB4F8C4
:10CAA0000480A78B9BB227F4E64723F400533F048E
:10CAB0004EEA03053F0CB44245EA0C3347F4C04745
:10CAC0001FFA88F500F0848006F58066B4427FD0B6
:10CAD0000021A580A78321642384A38B23F4006312
:10CAE0001B041B0C43F40063A383A6E7218C3B4E7D
:10CAF00021F010010904090C2184218CA788258BC1
:10CB000089B225F4E64521F020012D0448EA01010F
:10CB10002D0CB44241EA0C11BFB245F4C0456ED0B1
:10CB200006F58066B4426AD00023A7802583A363FC
:10CB30002184238B23F400631B041B0C43F4006348
:10CB400023837AE7218CDFF894E021F001010904C6
:10CB5000090C2184258CB4F80480B4F8189025F0D1
:10CB6000020529F073092D044FEA09494CEA060130
:10CB70002D0C4FEA1949744545EA01061FFA88F859
:10CB800049F0600930D016498C422DD00023A4F81A
:10CB90000480A4F8189063632684238B23F0080391
:10CBA0001B041B0C43F00803238346E70C4B9C42F9
:10CBB0003FF4DBAEDFE621F4006141EA032323F416
:10CBC000806329F4405943EA050149EA0E0926E742
:10CBD00025F480450D437BE7581E002000000140EE
:10CBE00000040140001000404FF6F375354028F472
:10CBF00040782B4348EA070843EA0B06C6E721F0D2
:10CC0000800141EA031323F04001019B27F44067B0
:10CC100041EA0A011F4387E7214A038890429BB2F9
:10CC200012D002F5806290420ED0B0F1804F0BD04E
:10CC3000A2F58032904207D002F58062904203D084
:10CC400002F58062904203D14A8823F070031343B7
:10CC5000144A904218D002F58062904214D030B449
:10CC600023F440730C894D6802F56C429BB2234358
:10CC700090420C880380C56204850DD18B7A0386AF
:10CC8000012330BC8382704703800B884A68C262EC
:10CC90000385012383827047034B9842EED0EFE770
:10CCA0000000014000100040000401402DE9F04167
:10CCB000494D4A4ED5F8043586B004460139A6FBE5
:10CCC000030389B29B0C0027013B02912068ADF859
:10CCD000043001A91646ADF80C70ADF806708DF859
:10CCE0000E70FFF799FF237AADF808706022019269
:10CCF0009A07CDE90477D4F8008067793ED5DB0048
:10CD000003F008030422ADF81230ADF8082001AAA0
:10CD100039464046039633F0CFFA0C2F12D8DFE89D
:10CD200007F03A111111451111115011111107009D
:10CD3000B8F81C3023F400631B041B0C43F400639D
:10CD4000A8F81C302268B2F844306FEA43436FEA17
:10CD500053439BB2A2F84430138811469BB243F070
:10CD6000010321F8343B6379C5F89C2BC8180022D5
:10CD7000C5F8980BCA5006B0BDE8F0815B0003F01F
:10CD800002030122ADF810304FF48073ADF8062095
:10CD9000ADF81430BBE7B8F8183023F008031B04D3
:10CDA0001B0C43F00803A8F81830CBE7B8F818308C
:10CDB00023F400631B041B0C43F40063A8F8183031
:10CDC000C0E7B8F81C3023F008031B041B0C43F029
:10CDD0000803A8F81C30B5E7581E002083DE1B436B
:10CDE000564BB3F82E352DE9F04107EE903AF8EEA8
:10CDF000E77AB6EE007A67EE877A2DED0A8BB4EE0D
:10CE0000E70AF1EE10FADFED4E8A82B0B0EE408A0A
:10CE1000B0EE41AAF0EE47AA06DDF4EEE70AF1EE25
:10CE200010FA78D5B0EE678AB5EEC08AF1EE10FA46
:10CE300076DDF5EEC00AF1EE10FA71DDF4EEC80A07
:10CE4000F1EE10FA6CD560EE887A60EEE00AE8EE5A
:10CE5000080AC7EEA09A3B4E3B4FDFF8F880044625
:10CE600000F19005DFED397A9FED397A6AEE277A85
:10CE7000B7EE009AF4EEC87AF1EE10FA88BFF0EE41
:10CE8000487A67EE877A89EE29BAC7EE8ABAB8EE91
:10CE900000CAB5EEC08AF1EE10FAC4E90187266037
:10CEA000C4ED068AC4ED058AC4ED048AC4ED038A84
:10CEB00039DDB5EEC0AAF1EE10FA34DDF5EEC09A18
:10CEC000F1EE10FA2FDDB0EE6B0A49F01FFA20EEFA
:10CED0002A0AF0EE497AE0EE0B7A60EE8C0AB0EEA8
:10CEE000496A80EEA77AA0EE4B6AC9EE276A84ED04
:10CEF000087A84ED0A7A86EE277AC4ED076AC4EDD3
:10CF0000096A84ED0B7A3034A542C2D102B0BDEC7F
:10CF10000A8BBDE8F081B0EE688AF0EE689A9AE775
:10CF2000DFED079A97E784ED079AC4ED088AC4ED10
:10CF3000098AC4ED0A8AC4ED0B8AE4E7581E002072
:10CF4000000000000D180508711705083333F33E83
:10CF5000DB0FC940C51705080A44914215D030B40B
:10CF600041F2210511F8014B082380EA042010F456
:10CF7000004F85EA40040ABF4000A0B280B2013BE6
:10CF8000F5D18A42EED130BC7047704770B5654C20
:10CF9000654DD4F80033D4E9BE122DED068B41EA7D
:10CFA00002000126184384B085F886626FD009B26A
:10CFB00009EE101A12B2DFED5D7A1BB2B8EEC99A13
:10CFC00008EE902A08EE103A29EE279AF8EEE88A41
:10CFD000B8EEC88A0023B0EE490A85F8863268EEBA
:10CFE000A78A28EE278A51F087FEF0EE407AB0EE4D
:10CFF000490AB0EE679A52F037F8B0EE40AAB0EEA8
:10D00000680A51F079FEF0EE407AB0EE680AF0EE70
:10D01000678A52F029F8F0EE409AB0EE480A51F0D3
:10D020006BFEF0EE407AB0EE480AB0EE678A52F03E
:10D030001BF869EE085A29EE006A6AEE006A2AEEC9
:10D04000087AB0EE655AA9EEE65AE9EEE56AF0EE26
:10D05000465AE9EE875AA9EE867A60EE687A29EE9A
:10D06000289A28EE888A68EECA8AC4EDCE9A84EDA2
:10D07000D05AC4EDD26AC4EDCD7A84EDD49A84ED51
:10D08000CC8AC4EDD18AC4EDCF5A84EDD37AD4F8DA
:10D090000433012285F8872233B9B4F908332BB958
:10D0A00004B0BDEC068B70BDB4F90833B4F90403C9
:10D0B000B4F906231E4C9FED1D6A1E4984FB00C671
:10D0C000C017C0EBA60084FB02C684FB03C4D217C2
:10D0D000DB17C2EBA602C3EBA40312B200B21BB271
:10D0E00007EE102A06EE900A07EE903AF8EEE66A8E
:10D0F000B8EEC77AF8EEE77A66EE866A27EE067A29
:10D1000067EE867A002301A8CDED016A8DED027AE3
:10D11000CDED037A85F8873248F058FF04B0BDECB6
:10D12000068B70BD484000209801002035FA8E3CE7
:10D1300067666666544300202DE9F041214E224F78
:10D1400096F8573387F8833B06F5557607F684350E
:10D1500000244FF0050816F8010B20BB28600134AD
:10D16000032C05F10405F6D197F8831BD7F8840B3F
:10D17000C94301F001013FF031FA97F8831BD7F85A
:10D18000880B81F00201C1F340013FF027FA97F8C4
:10D19000831BD7F88C0B81F00401BDE8F041C1F38B
:10D1A00080013FF01BBA3EF0E7FC0134012128600A
:10D1B000E3B210B180F80680C37128683FF03CF8F4
:10D1C000CEE700BF48400020581E0020036870B51D
:10D1D0005E6A26B133461922BDE8704018470446FE
:10D1E0000D4601F1190600E023689B682046984728
:10D1F0000028F9D0236815F8011B1B6820469847C2
:10D20000B542F1D170BD00BFF8B5254C254DB4F83D
:10D210005C63A5F8906BE6B994F858033EF0ACFC5B
:10D2200094F85923C5F8940B003A18BF012285F8E9
:10D23000922B48B194F85A132A22002914BF1121C5
:10D240000121C2803EF0F8FFBDE8F840002037F031
:10D25000D1BC94F85873002238462A2133F08EFC52
:10D26000044638463EF088FCC8B1C4B12A22C5F84D
:10D27000AC0BC280627A02213EF08CFA0A49B1FB03
:10D28000F6F12046C1F34F0289B2A5F8B46BFFF75F
:10D290000DFDD5F8982B0023136085F8A93BF8BD48
:10D2A00048400020581E002040420F002DE9F04F5A
:10D2B000C84D95F87A710A2F83B0044600F29E801B
:10D2C000012303FA07F140F2EF52114200F0968079
:10D2D000C14E7A1F032A86F8B43721D9002386F875
:10D2E000C033FBF71BFDC5F8C80CD5F8C83C002BB4
:10D2F00000F08E800022012183F8244083F825105D
:10D3000083F826209A6244B12C33B44A1C4412F8A4
:10D31000011B03F8011B9C42F9D103B0BDE8F08F5B
:10D3200095F8832186F8C033012A00F09C80022AF8
:10D330007ED0DFF8D4E2AA4B0193BEE80F00DFF8FD
:10D34000A0C295F88281ACE80F00BEE80F00ACE8FF
:10D350000F00DEF80020CCF80020B8F1000218BF62
:10D360000122A04B85F8DD2C072FC6F8A03300F270
:10D370000481042F00F20E81DFF890920027A9F1BA
:10D38000230B5FFA87FA0AF101085FFA88F8BC42BA
:10D3900042464FF0030107F101072BDD1BF8013B6B
:10D3A0000093184633F0EAFB009B024600921846B1
:10D3B000002A00F0E9803EF0DFFB009A0346514668
:10D3C0001046C9F814302BB14FF0030C83F806C097
:10D3D00083F80780137A95F87A214CF085FE0028AF
:10D3E00000F0D2804FF00103042F89F8113009F1C9
:10D3F0001C09C6D1019BC5F8C83C76E7764B053FB2
:10D400000022032F83F8B4270ED983F8C0236CE7DA
:10D41000754E764C0FCE0FC40FCE0FC4336844F850
:10D420002039C5F8C84C78E7012283F8C0235CE7AF
:10D4300095F88221002A3FF47CAF082F13D1DFF842
:10D44000C8C185F8DD3CBCE80F0006F5647701979C
:10D450000FC7BCE80F000FC7DCF80020614B3A6033
:10D46000C6F8A0338CE0DFF8A8E1DFF890B195F8BA
:10D470008291DFF8988186F80074BEE80F00ABE86F
:10D480000F00BEE80F00ABE80F0000215846B9EBD3
:10D490000109DEF8003040F8843B18BF4FF0010965
:10D4A0000F464FF44C7285F8DD9CC6F8C44386F8ED
:10D4B000C2130BF56D7B54F033F8A8F12309BA467B
:10D4C0000094D6F8C433534551DD19F8014B20467A
:10D4D00033F0DAFB074620463EF04EFB3C7A95F8E7
:10D4E000DD2C04F001010131074686F8C1130AB1B1
:10D4F00084F00104002F5DD0BA7972B1382A0CD0C3
:10D500003B4B3C493C4AC6F87833012386F8C2338A
:10D51000C6E9DC12009C00236DE7BA88CBF80C70DA
:10D520004901B2FA82F241F009010AF1010AC2F19D
:10D530001F024FF00303CBF80420CBF814108BF834
:10D54000104087F807A0BB7138463EF075FEE30730
:10D5500038460FD53FF036F8DBF80C30C8F81430F9
:10D56000BAF1040F0BF1200B08F11C08A9D1009CA3
:10D57000224B40E73FF02CF8EEE7082F7FF4FCAE9B
:10D580001F4BC6F8C833F7E61B4B194AC6E9E93208
:10D59000002330E795F881311A4AC6F8C823012BD9
:10D5A00005D0022B06BFB8FA88F35B09002386F882
:10D5B000CC33E1E6490141F009014FF0FF33CBF8EC
:10D5C0001410CBF80430CBF80C708BF810400AF133
:10D5D000010AB9E7581E002048400020D41F00204F
:10D5E000D843002025890508181A06081844002089
:10D5F000058004080D80040809800408A843002061
:10D6000071800408A18004083C1A0608002000204C
:10D61000601A0608F8B56F4C94F8370194F8386131
:10D620003EF0AAFA60B12B23C380202105463EF0CC
:10D6300003FE0A2033F0E6FD28463FF003F820B948
:10D64000654FD7F8B837DA0000D5F8BD013E092E8E
:10D65000FBD894F83651D5B9402032F003FB0028AE
:10D66000F3D090F904305D4A092BC8BF143B5178C0
:10D670003B440A2993F8BC5700F09C8093F8C837C4
:10D6800094F82A21002A08BF1D46002DDDD0284627
:10D690003EF072FA0546002800F088802B23C380F4
:10D6A00000213EF0C9FD2B68AA881A830121284673
:10D6B0003EF0C2FD012108463EF0AAFF3C2037F0B3
:10D6C00003F8002101203EF0A3FF94F83831002B2D
:10D6D0004BD000261FE02B68AA885A8333F092FDB6
:10D6E00094F8831BD4F8840B01F001013EF076FF1F
:10D6F00094F8831BD4F88C0BC1F380013EF06EFFCD
:10D700002B68AA881A83782033F07CFD94F838318E
:10D7100001369E4229DA94F8831BD4F8840BC9435E
:10D7200001F001013EF05AFF94F8831BD4F88C0BF2
:10D7300081F00401C1F380013EF050FF7820002DFC
:10D74000C9D1782033F05EFD94F8831BD4F8840BA4
:10D7500001F001013EF042FF94F8831BD4F88C0BDA
:10D76000C1F380013EF03AFFCDE794F83631ABB912
:10D7700094F83731002B7FF468AF94F83931012BDE
:10D780007FF463AFD7F8B83713F080537FF45DAF01
:10D7900084F83831BDE8F84049F030BC322036F02A
:10D7A00093FF284600213EF047FDE1E701463EF0A9
:10D7B00043FD7BE70A4BD3F8C8345B057FF545AFE3
:10D7C0000AF076FF00287FF440AF002D7FF45FAFB2
:10D7D0003BE700BF581E002048400020600D00209D
:10D7E000502F002048400822430010F0800F08BF4F
:10D7F000400083F0D50314BFD8B2C0B2013AF3D1D0
:10D80000704700BF70B4344890F8E037A3F130019E
:10D81000092957D800F5FC64224600F2EF7012F88F
:10D82000015FA5F13001092904D88242F7D1002017
:10D8300070BC7047141B022C4ADD2848002101E00F
:10D8400010F8013B01EB810103EB4103161A303B59
:10D85000022E044603F0FF01F2DC214B03FB01F131
:10D86000A2424FF000030DD903EB830314F8016BC0
:10D870005B00303B3344A24203F0FF03F4D119486C
:10D8800000FB03F32E2D06D01748A0FB032301EB6A
:10D89000930070BC7047013204200024157804EB1B
:10D8A0008404303D6400092D00F1FF30A4B202D899
:10D8B0002C44A4B2013210F0FF00EFD1642202FB2D
:10D8C0000433E1E700211D4600F5FC620B46D9E771
:10D8D000064C0021C4E700BF484000202948002032
:10D8E0008096980040420F00ABAAAAAA28480020C0
:10D8F00083B50C461646054631F05EFE204631F0F3
:10D900005BFE0021204B0846002E08BF1E463EF05D
:10D910007FFE002101203EF07BFE28463DF0EEFE1A
